{"abi":[{"type":"constructor","inputs":[{"name":"_beaconAddress","type":"address","internalType":"address"},{"name":"_tokenX","type":"address","internalType":"address"},{"name":"_tokenY","type":"address","internalType":"address"},{"name":"_binStep","type":"uint16","internalType":"uint16"},{"name":"_data","type":"bytes","internalType":"bytes"}],"stateMutability":"payable"},{"type":"fallback","stateMutability":"payable"},{"type":"receive","stateMutability":"payable"},{"type":"function","name":"TOKEN_NAME","inputs":[],"outputs":[{"name":"","type":"string","internalType":"string"}],"stateMutability":"view"},{"type":"function","name":"TOKEN_SYMBOL","inputs":[],"outputs":[{"name":"","type":"string","internalType":"string"}],"stateMutability":"view"},{"type":"function","name":"getLBPairBeacon","inputs":[],"outputs":[{"name":"","type":"address","internalType":"address"}],"stateMutability":"view"},{"type":"function","name":"name","inputs":[],"outputs":[{"name":"","type":"string","internalType":"string"}],"stateMutability":"view"},{"type":"function","name":"symbol","inputs":[],"outputs":[{"name":"","type":"string","internalType":"string"}],"stateMutability":"view"},{"type":"event","name":"BeaconUpgraded","inputs":[{"name":"beacon","type":"address","indexed":true,"internalType":"address"}],"anonymous":false},{"type":"error","name":"AddressEmptyCode","inputs":[{"name":"target","type":"address","internalType":"address"}]},{"type":"error","name":"ERC1967InvalidBeacon","inputs":[{"name":"beacon","type":"address","internalType":"address"}]},{"type":"error","name":"ERC1967InvalidImplementation","inputs":[{"name":"implementation","type":"address","internalType":"address"}]},{"type":"error","name":"ERC1967NonPayable","inputs":[]},{"type":"error","name":"FailedInnerCall","inputs":[]}],"bytecode":{"object":"0x60a060405260405162000e7538038062000e758339810160408190526200002691620006b4565b6040805160208101909152600081528590620000438282620002cb565b506001600160a01b031660805260006200007f60017f73ef95b1b141b4aeb11976757a225324c423bf4634f4361553b9b059a82050bb6200075d565b6040516020016200009291815260200190565b60408051601f19818403018152919052805160209091012090506000620000db60017f039c6157caeca9b57df712b1365b48c637c526ae0a75b2c95cd3622e6ffda4fd6200075d565b604051602001620000ee91815260200190565b60408051601f198184030181529190528051602090910120905060006200013760017fd1a1c4c8365fed7323947e7cb6a7be46aba18d67bc4a4c5418b50b8bbf5a31856200075d565b6040516020016200014a91815260200190565b6040516020818303038152906040528051906020012090506000876001600160a01b03166395d89b416040518163ffffffff1660e01b8152600401600060405180830381865afa158015620001a3573d6000803e3d6000fd5b505050506040513d6000823e601f3d908101601f19168201604052620001cd91908101906200077f565b90506000876001600160a01b03166395d89b416040518163ffffffff1660e01b8152600401600060405180830381865afa15801562000210573d6000803e3d6000fd5b505050506040513d6000823e601f3d908101601f191682016040526200023a91908101906200077f565b9050818160405160200162000251929190620007d4565b60405160208183030381529060405260009081620002709190620008cd565b5081816040516020016200028692919062000999565b60405160208183030381529060405260019081620002a59190620008cd565b50888555878455868355620002bb8a87620002cb565b5050505050505050505062000a25565b620002d68262000395565b6040516001600160a01b038316907f1cf3b03a6cf19fa2baba4df148e9dcabedea7f8a5c07840e207e5c089be95d3e90600090a2805115620003875762000382826001600160a01b0316635c60da1b6040518163ffffffff1660e01b8152600401602060405180830381865afa15801562000355573d6000803e3d6000fd5b505050506040513d601f19601f820116820180604052508101906200037b9190620009e9565b82620004ae565b505050565b620003916200052d565b5050565b806001600160a01b03163b600003620003d157604051631933b43b60e21b81526001600160a01b03821660048201526024015b60405180910390fd5b807fa3f0ad74e5423aebfd80d3ef4346578335a9a72aeaee59ff6cb3582b35133d5080546001600160a01b0319166001600160a01b0392831617905560408051635c60da1b60e01b81529051600092841691635c60da1b9160048083019260209291908290030181865afa1580156200044e573d6000803e3d6000fd5b505050506040513d601f19601f82011682018060405250810190620004749190620009e9565b9050806001600160a01b03163b6000036200039157604051634c9c8ce360e01b81526001600160a01b0382166004820152602401620003c8565b6060600080846001600160a01b031684604051620004cd919062000a07565b600060405180830381855af49150503d80600081146200050a576040519150601f19603f3d011682016040523d82523d6000602084013e6200050f565b606091505b509092509050620005228583836200054f565b925050505b92915050565b34156200054d5760405163b398979f60e01b815260040160405180910390fd5b565b60608262000568576200056282620005b5565b620005ae565b81511580156200058057506001600160a01b0384163b155b15620005ab57604051639996b31560e01b81526001600160a01b0385166004820152602401620003c8565b50805b9392505050565b805115620005c65780518082602001fd5b604051630a12f52160e11b815260040160405180910390fd5b80516001600160a01b0381168114620005f757600080fd5b919050565b634e487b7160e01b600052604160045260246000fd5b60005b838110156200062f57818101518382015260200162000615565b50506000910152565b60006001600160401b0380841115620006555762000655620005fc565b604051601f8501601f19908116603f01168101908282118183101715620006805762000680620005fc565b816040528093508581528686860111156200069a57600080fd5b620006aa86602083018762000612565b5050509392505050565b600080600080600060a08688031215620006cd57600080fd5b620006d886620005df565b9450620006e860208701620005df565b9350620006f860408701620005df565b9250606086015161ffff811681146200071057600080fd5b60808701519092506001600160401b038111156200072d57600080fd5b8601601f810188136200073f57600080fd5b620007508882516020840162000638565b9150509295509295909350565b818103818111156200052757634e487b7160e01b600052601160045260246000fd5b6000602082840312156200079257600080fd5b81516001600160401b03811115620007a957600080fd5b8201601f81018413620007bb57600080fd5b620007cc8482516020840162000638565b949350505050565b7f4c697175696469747920426f6f6b20546f6b656e2000000000000000000000008152600083516200080e81601585016020880162000612565b6201016960ed1b60159184019182015283516200083381601884016020880162000612565b01601801949350505050565b600181811c908216806200085457607f821691505b6020821081036200087557634e487b7160e01b600052602260045260246000fd5b50919050565b601f8211156200038257600081815260208120601f850160051c81016020861015620008a45750805b601f850160051c820191505b81811015620008c557828155600101620008b0565b505050505050565b81516001600160401b03811115620008e957620008e9620005fc565b6200090181620008fa84546200083f565b846200087b565b602080601f831160018114620009395760008415620009205750858301515b600019600386901b1c1916600185901b178555620008c5565b600085815260208120601f198616915b828110156200096a5788860151825594840194600190910190840162000949565b5085821015620009895787850151600019600388901b60f8161c191681555b5050505050600190811b01905550565b634c42545f60e01b815260008351620009ba81600485016020880162000612565b602d60f81b6004918401918201528351620009dd81600584016020880162000612565b01600501949350505050565b600060208284031215620009fc57600080fd5b620005ae82620005df565b6000825162000a1b81846020870162000612565b9190910192915050565b60805161042d62000a48600039600081816101000152610281015261042d6000f3fe60806040526004361061005e5760003560e01c80632a905318116100435780632a905318146100af57806395d89b41146100c4578063a0a0ea39146100d957610065565b806306fdde031461006f578063188214001461009a57610065565b3661006557005b61006d61012a565b005b34801561007b57600080fd5b5061008461013c565b6040516100919190610332565b60405180910390f35b3480156100a657600080fd5b506100846101ce565b3480156100bb57600080fd5b5061008461025c565b3480156100d057600080fd5b50610084610269565b3480156100e557600080fd5b5060405173ffffffffffffffffffffffffffffffffffffffff7f0000000000000000000000000000000000000000000000000000000000000000168152602001610091565b61013a61013561027d565b61030e565b565b60606000805461014b90610380565b80601f016020809104026020016040519081016040528092919081815260200182805461017790610380565b80156101c45780601f10610199576101008083540402835291602001916101c4565b820191906000526020600020905b8154815290600101906020018083116101a757829003601f168201915b5050505050905090565b600080546101db90610380565b80601f016020809104026020016040519081016040528092919081815260200182805461020790610380565b80156102545780601f1061022957610100808354040283529160200191610254565b820191906000526020600020905b81548152906001019060200180831161023757829003601f168201915b505050505081565b600180546101db90610380565b60606001805461014b90610380565b905090565b60007f000000000000000000000000000000000000000000000000000000000000000073ffffffffffffffffffffffffffffffffffffffff16635c60da1b6040518163ffffffff1660e01b8152600401602060405180830381865afa1580156102ea573d6000803e3d6000fd5b505050506040513d601f19601f8201168201806040525081019061027891906103ba565b3660008037600080366000845af43d6000803e80801561032d573d6000f35b3d6000fd5b600060208083528351808285015260005b8181101561035f57858101830151858201604001528201610343565b506000604082860101526040601f19601f8301168501019250505092915050565b600181811c9082168061039457607f821691505b6020821081036103b457634e487b7160e01b600052602260045260246000fd5b50919050565b6000602082840312156103cc57600080fd5b815173ffffffffffffffffffffffffffffffffffffffff811681146103f057600080fd5b939250505056fea26469706673582212202732cc560e4346676321313462bd5711fafce7e02b399cd2cea916626493217b64736f6c63430008140033","linkReferences":{}},"methodIdentifiers":{"TOKEN_NAME()":"18821400","TOKEN_SYMBOL()":"2a905318","getLBPairBeacon()":"a0a0ea39","name()":"06fdde03","symbol()":"95d89b41"},"id":62}