{
  "abi": [
    {
      "inputs": [
        {
          "internalType": "address",
          "name": "_beaconAddress",
          "type": "address"
        },
        {
          "internalType": "address",
          "name": "_tokenX",
          "type": "address"
        },
        {
          "internalType": "address",
          "name": "_tokenY",
          "type": "address"
        },
        {
          "internalType": "uint16",
          "name": "_binStep",
          "type": "uint16"
        },
        {
          "internalType": "bytes",
          "name": "_data",
          "type": "bytes"
        }
      ],
      "stateMutability": "payable",
      "type": "constructor"
    },
    {
      "inputs": [
        {
          "internalType": "address",
          "name": "target",
          "type": "address"
        }
      ],
      "name": "AddressEmptyCode",
      "type": "error"
    },
    {
      "inputs": [
        {
          "internalType": "address",
          "name": "beacon",
          "type": "address"
        }
      ],
      "name": "ERC1967InvalidBeacon",
      "type": "error"
    },
    {
      "inputs": [
        {
          "internalType": "address",
          "name": "implementation",
          "type": "address"
        }
      ],
      "name": "ERC1967InvalidImplementation",
      "type": "error"
    },
    {
      "inputs": [],
      "name": "ERC1967NonPayable",
      "type": "error"
    },
    {
      "inputs": [],
      "name": "FailedInnerCall",
      "type": "error"
    },
    {
      "anonymous": false,
      "inputs": [
        {
          "indexed": true,
          "internalType": "address",
          "name": "beacon",
          "type": "address"
        }
      ],
      "name": "BeaconUpgraded",
      "type": "event"
    },
    {
      "stateMutability": "payable",
      "type": "fallback"
    },
    {
      "inputs": [],
      "name": "getLBPairBeacon",
      "outputs": [
        {
          "internalType": "address",
          "name": "",
          "type": "address"
        }
      ],
      "stateMutability": "view",
      "type": "function"
    },
    {
      "stateMutability": "payable",
      "type": "receive"
    }
  ],
  "bytecode": {
    "object": "0x60a060405260405161073138038061073183398101604081905261002291610416565b604080516020810190915260008152859061003d82826100cd565b506001600160a01b03166080527f3441ab29b24daf7a3fd59500b0e08396ec08ec96f5cc2d0362924cdd45cfec318481557f7e1935766b7c49e7482a018a5ee52ca183a2ddfcb6810787916934079aa582648481557fff057b3b4d4500dda208cde5d654db7aa2ec63ac10ab9f9956a1f569738427828481556100c088856100cd565b5050505050505050610548565b6100d68261018d565b6040516001600160a01b038316907f1cf3b03a6cf19fa2baba4df148e9dcabedea7f8a5c07840e207e5c089be95d3e90600090a28051156101815761017c826001600160a01b0316635c60da1b6040518163ffffffff1660e01b8152600401602060405180830381865afa158015610152573d6000803e3d6000fd5b505050506040513d601f19601f820116820180604052508101906101769190610511565b826102a0565b505050565b610189610317565b5050565b806001600160a01b03163b6000036101c857604051631933b43b60e21b81526001600160a01b03821660048201526024015b60405180910390fd5b807fa3f0ad74e5423aebfd80d3ef4346578335a9a72aeaee59ff6cb3582b35133d5080546001600160a01b0319166001600160a01b0392831617905560408051635c60da1b60e01b81529051600092841691635c60da1b9160048083019260209291908290030181865afa158015610244573d6000803e3d6000fd5b505050506040513d601f19601f820116820180604052508101906102689190610511565b9050806001600160a01b03163b60000361018957604051634c9c8ce360e01b81526001600160a01b03821660048201526024016101bf565b6060600080846001600160a01b0316846040516102bd919061052c565b600060405180830381855af49150503d80600081146102f8576040519150601f19603f3d011682016040523d82523d6000602084013e6102fd565b606091505b50909250905061030e858383610338565b95945050505050565b34156103365760405163b398979f60e01b815260040160405180910390fd5b565b60608261034d5761034882610397565b610390565b815115801561036457506001600160a01b0384163b155b1561038d57604051639996b31560e01b81526001600160a01b03851660048201526024016101bf565b50805b9392505050565b8051156103a75780518082602001fd5b604051630a12f52160e11b815260040160405180910390fd5b80516001600160a01b03811681146103d757600080fd5b919050565b634e487b7160e01b600052604160045260246000fd5b60005b8381101561040d5781810151838201526020016103f5565b50506000910152565b600080600080600060a0868803121561042e57600080fd5b610437866103c0565b9450610445602087016103c0565b9350610453604087016103c0565b9250606086015161ffff8116811461046a57600080fd5b60808701519092506001600160401b038082111561048757600080fd5b818801915088601f83011261049b57600080fd5b8151818111156104ad576104ad6103dc565b604051601f8201601f19908116603f011681019083821181831017156104d5576104d56103dc565b816040528281528b60208487010111156104ee57600080fd5b6104ff8360208301602088016103f2565b80955050505050509295509295909350565b60006020828403121561052357600080fd5b610390826103c0565b6000825161053e8184602087016103f2565b9190910192915050565b6080516101c9610568600039600081816042015260a501526101c96000f3fe6080604052600436106100225760003560e01c8063a0a0ea391461003357610029565b3661002957005b61003161008a565b005b34801561003f57600080fd5b507f000000000000000000000000000000000000000000000000000000000000000060405173ffffffffffffffffffffffffffffffffffffffff909116815260200160405180910390f35b61009a6100956100a1565b610132565b565b905090565b60007f000000000000000000000000000000000000000000000000000000000000000073ffffffffffffffffffffffffffffffffffffffff16635c60da1b6040518163ffffffff1660e01b8152600401602060405180830381865afa15801561010e573d6000803e3d6000fd5b505050506040513d601f19601f8201168201806040525081019061009c9190610156565b3660008037600080366000845af43d6000803e808015610151573d6000f35b3d6000fd5b60006020828403121561016857600080fd5b815173ffffffffffffffffffffffffffffffffffffffff8116811461018c57600080fd5b939250505056fea2646970667358221220f0f37eb07b5c3cfec8f93a3926d8b9cc57e4663663fe0feb3212c78557ad130a64736f6c63430008140033",
    "linkReferences": {}
  },
  "methodIdentifiers": {
    "getLBPairBeacon()": "a0a0ea39"
  },
  "id": 82
}