{"abi":[{"type":"constructor","inputs":[{"name":"factoryV1","type":"address","internalType":"address"},{"name":"factoryV2","type":"address","internalType":"address"},{"name":"routerV2","type":"address","internalType":"address"}],"stateMutability":"nonpayable"},{"type":"function","name":"findBestPathFromAmountIn","inputs":[{"name":"route","type":"address[]","internalType":"address[]"},{"name":"amountIn","type":"uint128","internalType":"uint128"}],"outputs":[{"name":"quote","type":"tuple","internalType":"struct LBQuoter.Quote","components":[{"name":"route","type":"address[]","internalType":"address[]"},{"name":"pairs","type":"address[]","internalType":"address[]"},{"name":"binSteps","type":"uint256[]","internalType":"uint256[]"},{"name":"versions","type":"uint8[]","internalType":"enum ILBRouter.Version[]"},{"name":"amounts","type":"uint128[]","internalType":"uint128[]"},{"name":"virtualAmountsWithoutSlippage","type":"uint128[]","internalType":"uint128[]"},{"name":"fees","type":"uint128[]","internalType":"uint128[]"}]}],"stateMutability":"view"},{"type":"function","name":"findBestPathFromAmountOut","inputs":[{"name":"route","type":"address[]","internalType":"address[]"},{"name":"amountOut","type":"uint128","internalType":"uint128"}],"outputs":[{"name":"quote","type":"tuple","internalType":"struct LBQuoter.Quote","components":[{"name":"route","type":"address[]","internalType":"address[]"},{"name":"pairs","type":"address[]","internalType":"address[]"},{"name":"binSteps","type":"uint256[]","internalType":"uint256[]"},{"name":"versions","type":"uint8[]","internalType":"enum ILBRouter.Version[]"},{"name":"amounts","type":"uint128[]","internalType":"uint128[]"},{"name":"virtualAmountsWithoutSlippage","type":"uint128[]","internalType":"uint128[]"},{"name":"fees","type":"uint128[]","internalType":"uint128[]"}]}],"stateMutability":"view"},{"type":"function","name":"getFactoryV1","inputs":[],"outputs":[{"name":"factoryV1","type":"address","internalType":"address"}],"stateMutability":"view"},{"type":"function","name":"getFactoryV2","inputs":[],"outputs":[{"name":"factoryV2","type":"address","internalType":"address"}],"stateMutability":"view"},{"type":"function","name":"getRouterV2","inputs":[],"outputs":[{"name":"routerV2","type":"address","internalType":"address"}],"stateMutability":"view"},{"type":"error","name":"LBQuoter_InvalidLength","inputs":[]},{"type":"error","name":"SafeCast__Exceeds128Bits","inputs":[]},{"type":"error","name":"SovrynLBLibrary__AddressZero","inputs":[]},{"type":"error","name":"SovrynLBLibrary__IdenticalAddresses","inputs":[]},{"type":"error","name":"SovrynLBLibrary__InsufficientAmount","inputs":[]},{"type":"error","name":"SovrynLBLibrary__InsufficientLiquidity","inputs":[]},{"type":"error","name":"Uint128x128Math__PowUnderflow","inputs":[{"name":"x","type":"uint256","internalType":"uint256"},{"name":"y","type":"int256","internalType":"int256"}]},{"type":"error","name":"Uint256x256Math__MulDivOverflow","inputs":[]},{"type":"error","name":"Uint256x256Math__MulShiftOverflow","inputs":[]}],"bytecode":{"object":"0x60e06040523480156200001157600080fd5b5060405162002c1338038062002c1383398101604081905262000034916200006f565b6001600160a01b0392831660805290821660a0521660c052620000b9565b80516001600160a01b03811681146200006a57600080fd5b919050565b6000806000606084860312156200008557600080fd5b620000908462000052565b9250620000a06020850162000052565b9150620000b06040850162000052565b90509250925092565b60805160a05160c051612ae66200012d6000396000818160cd0152818161065e01526113cf01526000818161010601528181610400015281816104310152818161117b01526111b4015260008181606e01528181610a8401528181610ab501528181611841015261187a0152612ae66000f3fe608060405234801561001057600080fd5b50600436106100675760003560e01c806333141d3e1161005057806333141d3e146100cb57806359214226146100f1578063ca56fc721461010457600080fd5b806307da8f571461006c5780630f902a40146100ab575b600080fd5b7f00000000000000000000000000000000000000000000000000000000000000005b6040516001600160a01b0390911681526020015b60405180910390f35b6100be6100b936600461245f565b61012a565b6040516100a29190612601565b7f000000000000000000000000000000000000000000000000000000000000000061008e565b6100be6100ff36600461245f565b610eb2565b7f000000000000000000000000000000000000000000000000000000000000000061008e565b61016a6040518060e00160405280606081526020016060815260200160608152602001606081526020016060815260200160608152602001606081525090565b600283101561018c57604051632973c80b60e01b815260040160405180910390fd5b8383808060200260200160405190810160405280939291908181526020018383602002808284376000920182905250938552506101ce915060019050856126e4565b90508067ffffffffffffffff8111156101e9576101e96126f7565b604051908082528060200260200182016040528015610212578160200160208202803683370190505b5060208301528067ffffffffffffffff811115610231576102316126f7565b60405190808252806020026020018201604052801561025a578160200160208202803683370190505b5060408301528067ffffffffffffffff811115610279576102796126f7565b6040519080825280602002602001820160405280156102a2578160200160208202803683370190505b5060608301528067ffffffffffffffff8111156102c1576102c16126f7565b6040519080825280602002602001820160405280156102ea578160200160208202803683370190505b5060c08301528367ffffffffffffffff811115610309576103096126f7565b604051908082528060200260200182016040528015610332578160200160208202803683370190505b5060808301528367ffffffffffffffff811115610351576103516126f7565b60405190808252806020026020018201604052801561037a578160200160208202803683370190505b508260a0018190525082826080015160008151811061039b5761039b61270d565b60200260200101906001600160801b031690816001600160801b031681525050828260a001516000815181106103d3576103d361270d565b60200260200101906001600160801b031690816001600160801b03168152505060005b81811015610ea9577f00000000000000000000000000000000000000000000000000000000000000006001600160a01b031615610a825760007f00000000000000000000000000000000000000000000000000000000000000006001600160a01b0316636622e0d78888858181106104705761047061270d565b90506020020160208101906104859190612738565b898961049287600161275c565b8181106104a1576104a161270d565b90506020020160208101906104b69190612738565b6040516001600160e01b031960e085901b1681526001600160a01b03928316600482015291166024820152604401600060405180830381865afa158015610501573d6000803e3d6000fd5b505050506040513d6000823e601f3d908101601f1916820160405261052991908101906127d9565b905060008151118015610562575060008460800151838151811061054f5761054f61270d565b60200260200101516001600160801b0316115b15610a805760005b8151811015610a7e578181815181106105855761058561270d565b602002602001015160600151610a6c57600088886105a486600161275c565b8181106105b3576105b361270d565b90506020020160208101906105c89190612738565b6001600160a01b03168383815181106105e3576105e361270d565b6020026020010151602001516001600160a01b031663da10610c6040518163ffffffff1660e01b8152600401602060405180830381865afa15801561062c573d6000803e3d6000fd5b505050506040513d601f19601f8201168201806040525081019061065091906128d8565b6001600160a01b03161490507f00000000000000000000000000000000000000000000000000000000000000006001600160a01b031663a0d376cf84848151811061069d5761069d61270d565b602002602001015160200151886080015187815181106106bf576106bf61270d565b60209081029190910101516040516001600160e01b031960e085901b1681526001600160a01b0390921660048301526001600160801b031660248201528315156044820152606401606060405180830381865afa925050508015610740575060408051601f3d908101601f1916820190925261073d918101906128f5565b60015b15610a6a576001600160801b0383161580156107945750608089015161076788600161275c565b815181106107775761077761270d565b60200260200101516001600160801b0316826001600160801b0316115b15610a6657608089015182906107ab89600161275c565b815181106107bb576107bb61270d565b60200260200101906001600160801b031690816001600160801b0316815250508585815181106107ed576107ed61270d565b6020026020010151602001518960200151888151811061080f5761080f61270d565b60200260200101906001600160a01b031690816001600160a01b0316815250508585815181106108415761084161270d565b60200260200101516000015161ffff16896040015188815181106108675761086761270d565b60200260200101818152505060018960600151888151811061088b5761088b61270d565b602002602001019060018111156108a4576108a4612559565b908160018111156108b7576108b7612559565b8152505060008686815181106108cf576108cf61270d565b6020026020010151602001516001600160a01b031663dbe65edc6040518163ffffffff1660e01b8152600401602060405180830381865afa158015610918573d6000803e3d6000fd5b505050506040513d601f19601f8201168201806040525081019061093c9190612937565b9050610998828b60a001518a815181106109585761095861270d565b602002602001015161096a919061295c565b6001600160801b0316828c604001518b8151811061098a5761098a61270d565b602002602001015188611cc7565b60a08b01516109a88a600161275c565b815181106109b8576109b861270d565b60200260200101906001600160801b031690816001600160801b031681525050610a2e8a6080015189815181106109f1576109f161270d565b60200260200101516001600160801b0316836001600160801b0316670de0b6b3a7640000610a1f9190612983565b610a2991906129b0565b611d15565b8a60c001518981518110610a4457610a4461270d565b60200260200101906001600160801b031690816001600160801b031681525050505b5050505b505b80610a76816129d2565b91505061056a565b505b505b7f00000000000000000000000000000000000000000000000000000000000000006001600160a01b031615610e975760007f00000000000000000000000000000000000000000000000000000000000000006001600160a01b031663e6a43905888885818110610af457610af461270d565b9050602002016020810190610b099190612738565b8989610b1687600161275c565b818110610b2557610b2561270d565b9050602002016020810190610b3a9190612738565b6040516001600160e01b031960e085901b1681526001600160a01b03928316600482015291166024820152604401602060405180830381865afa158015610b85573d6000803e3d6000fd5b505050506040513d601f19601f82011682018060405250810190610ba991906128d8565b90506001600160a01b03811615801590610be95750600084608001518381518110610bd657610bd661270d565b60200260200101516001600160801b0316115b15610e9557600080610c52838a8a87818110610c0757610c0761270d565b9050602002016020810190610c1c9190612738565b8b8b610c2989600161275c565b818110610c3857610c3861270d565b9050602002016020810190610c4d9190612738565b611d44565b91509150600082118015610c665750600081115b15610e92576000610c9e87608001518681518110610c8657610c8661270d565b60200260200101516001600160801b03168484611e12565b6080880151909150610cb186600161275c565b81518110610cc157610cc161270d565b60200260200101516001600160801b0316811115610e9057610ce281611d15565b6080880151610cf287600161275c565b81518110610d0257610d0261270d565b60200260200101906001600160801b031690816001600160801b0316815250508387602001518681518110610d3957610d3961270d565b60200260200101906001600160a01b031690816001600160a01b031681525050610da5610a298860a001518781518110610d7557610d7561270d565b60200260200101516103e5610d8a91906129eb565b6001600160801b0316610d9f866103e8612983565b85611eac565b60a0880151610db587600161275c565b81518110610dc557610dc561270d565b60200260200101906001600160801b031690816001600160801b031681525050660aa87bee5380008760c001518681518110610e0357610e0361270d565b60200260200101906001600160801b031690816001600160801b031681525050600087606001518681518110610e3b57610e3b61270d565b60200260200101906001811115610e5457610e54612559565b90816001811115610e6757610e67612559565b81525050600087604001518681518110610e8357610e8361270d565b6020026020010181815250505b505b50505b505b80610ea1816129d2565b9150506103f6565b50509392505050565b610ef26040518060e00160405280606081526020016060815260200160608152602001606081526020016060815260200160608152602001606081525090565b6002831015610f1457604051632973c80b60e01b815260040160405180910390fd5b838380806020026020016040519081016040528093929190818152602001838360200280828437600092018290525093855250610f56915060019050856126e4565b90508067ffffffffffffffff811115610f7157610f716126f7565b604051908082528060200260200182016040528015610f9a578160200160208202803683370190505b5060208301528067ffffffffffffffff811115610fb957610fb96126f7565b604051908082528060200260200182016040528015610fe2578160200160208202803683370190505b5060408301528067ffffffffffffffff811115611001576110016126f7565b60405190808252806020026020018201604052801561102a578160200160208202803683370190505b5060608301528367ffffffffffffffff811115611049576110496126f7565b604051908082528060200260200182016040528015611072578160200160208202803683370190505b5060808301528367ffffffffffffffff811115611091576110916126f7565b6040519080825280602002602001820160405280156110ba578160200160208202803683370190505b5060a08301528067ffffffffffffffff8111156110d9576110d96126f7565b604051908082528060200260200182016040528015611102578160200160208202803683370190505b508260c0018190525082826080015182815181106111225761112261270d565b60200260200101906001600160801b031690816001600160801b031681525050828260a0015182815181106111595761115961270d565b6001600160801b0390921660209283029190910190910152805b8015610ea9577f00000000000000000000000000000000000000000000000000000000000000006001600160a01b03161561183f5760006001600160a01b037f000000000000000000000000000000000000000000000000000000000000000016636622e0d788886111e66001876126e4565b8181106111f5576111f561270d565b905060200201602081019061120a9190612738565b89898681811061121c5761121c61270d565b90506020020160208101906112319190612738565b6040516001600160e01b031960e085901b1681526001600160a01b03928316600482015291166024820152604401600060405180830381865afa15801561127c573d6000803e3d6000fd5b505050506040513d6000823e601f3d908101601f191682016040526112a491908101906127d9565b9050600081511180156112dd57506000846080015183815181106112ca576112ca61270d565b60200260200101516001600160801b0316115b1561183d5760005b815181101561183b578181815181106113005761130061270d565b6020026020010151606001516118295760008888858181106113245761132461270d565b90506020020160208101906113399190612738565b6001600160a01b03168383815181106113545761135461270d565b6020026020010151602001516001600160a01b031663da10610c6040518163ffffffff1660e01b8152600401602060405180830381865afa15801561139d573d6000803e3d6000fd5b505050506040513d601f19601f820116820180604052508101906113c191906128d8565b6001600160a01b03161490507f00000000000000000000000000000000000000000000000000000000000000006001600160a01b031663964f987c84848151811061140e5761140e61270d565b602002602001015160200151886080015187815181106114305761143061270d565b60209081029190910101516040516001600160e01b031960e085901b1681526001600160a01b0390921660048301526001600160801b031660248201528315156044820152606401606060405180830381865afa9250505080156114b1575060408051601f3d908101601f191682019092526114ae918101906128f5565b60015b15611827576001600160801b0382161580156114d557506001600160801b03831615155b8015611553575060808901516114ec6001896126e4565b815181106114fc576114fc61270d565b60200260200101516001600160801b0316836001600160801b031610806115535750608089015161152e6001896126e4565b8151811061153e5761153e61270d565b60200260200101516001600160801b03166000145b15611823576080890151839061156a60018a6126e4565b8151811061157a5761157a61270d565b60200260200101906001600160801b031690816001600160801b0316815250508585815181106115ac576115ac61270d565b60200260200101516020015189602001516001896115ca91906126e4565b815181106115da576115da61270d565b60200260200101906001600160a01b031690816001600160a01b03168152505085858151811061160c5761160c61270d565b60200260200101516000015161ffff16896040015160018961162e91906126e4565b8151811061163e5761163e61270d565b6020908102919091010152606089015160019061165b828a6126e4565b8151811061166b5761166b61270d565b6020026020010190600181111561168457611684612559565b9081600181111561169757611697612559565b8152505060008686815181106116af576116af61270d565b6020026020010151602001516001600160a01b031663dbe65edc6040518163ffffffff1660e01b8152600401602060405180830381865afa1580156116f8573d6000803e3d6000fd5b505050506040513d601f19601f8201168201806040525081019061171c9190612937565b90508161177b8b60a001518a815181106117385761173861270d565b60200260200101516001600160801b0316838d6040015160018d61175c91906126e4565b8151811061176c5761176c61270d565b60200260200101518915611cc7565b6117859190612a16565b60a08b015161179560018b6126e4565b815181106117a5576117a561270d565b6001600160801b039092166020928302919091019091015260808a01516117e1906117d160018b6126e4565b815181106109f1576109f161270d565b60c08b01516117f160018b6126e4565b815181106118015761180161270d565b60200260200101906001600160801b031690816001600160801b031681525050505b5050505b505b80611833816129d2565b9150506112e5565b505b505b7f00000000000000000000000000000000000000000000000000000000000000006001600160a01b031615611cb55760006001600160a01b037f00000000000000000000000000000000000000000000000000000000000000001663e6a4390588886118ac6001876126e4565b8181106118bb576118bb61270d565b90506020020160208101906118d09190612738565b8989868181106118e2576118e261270d565b90506020020160208101906118f79190612738565b6040516001600160e01b031960e085901b1681526001600160a01b03928316600482015291166024820152604401602060405180830381865afa158015611942573d6000803e3d6000fd5b505050506040513d601f19601f8201168201806040525081019061196691906128d8565b90506001600160a01b038116158015906119a657506000846080015183815181106119935761199361270d565b60200260200101516001600160801b0316115b15611cb3576000806119f5838a8a6119bf6001896126e4565b8181106119ce576119ce61270d565b90506020020160208101906119e39190612738565b8b8b88818110610c3857610c3861270d565b91509150600082118015611a2e575085608001518481518110611a1a57611a1a61270d565b60200260200101516001600160801b031681115b15611cb0576000611a6687608001518681518110611a4e57611a4e61270d565b60200260200101516001600160801b03168484611f0d565b6080880151909150611a796001876126e4565b81518110611a8957611a8961270d565b60200260200101516001600160801b0316811080611ad757506080870151611ab26001876126e4565b81518110611ac257611ac261270d565b60200260200101516001600160801b03166000145b15611cae57611ae581611d15565b6080880151611af56001886126e4565b81518110611b0557611b0561270d565b6001600160801b039092166020928302919091018201528701518490611b2c6001886126e4565b81518110611b3c57611b3c61270d565b60200260200101906001600160a01b031690816001600160a01b031681525050611bb3611ba88860a001518781518110611b7857611b7861270d565b60200260200101516103e8611b8d91906129eb565b6001600160801b0316611ba2856103e5612983565b86611eac565b610a2990600161275c565b60a0880151611bc36001886126e4565b81518110611bd357611bd361270d565b6001600160801b039092166020928302919091019091015260c0870151660aa87bee53800090611c046001886126e4565b81518110611c1457611c1461270d565b6001600160801b03909216602092830291909101909101526060870151600090611c3f6001886126e4565b81518110611c4f57611c4f61270d565b60200260200101906001811115611c6857611c68612559565b90816001811115611c7b57611c7b612559565b9052506040870151600090611c916001886126e4565b81518110611ca157611ca161270d565b6020026020010181815250505b505b50505b505b80611cbf81612a36565b915050611173565b60008115611cf057611ce9610a29866080611ce28888611fac565b9190611ff0565b9050611d0d565b611d0a610a296080611d028787611fac565b88919061205d565b90505b949350505050565b806001600160801b0381168114611d3f57604051632f45db3d60e21b815260040160405180910390fd5b919050565b6000806000611d538585612087565b509050600080876001600160a01b0316630902f1ac6040518163ffffffff1660e01b8152600401606060405180830381865afa158015611d97573d6000803e3d6000fd5b505050506040513d601f19601f82011682018060405250810190611dbb9190612a6b565b506dffffffffffffffffffffffffffff1691506dffffffffffffffffffffffffffff169150826001600160a01b0316876001600160a01b031614611e00578082611e03565b81815b90999098509650505050505050565b600083600003611e355760405163b937356b60e01b815260040160405180910390fd5b821580611e40575081155b15611e5e57604051637b03555560e01b815260040160405180910390fd5b6000611e6c856103e5612983565b90506000611e7a8483612983565b9050600082611e8b876103e8612983565b611e95919061275c565b9050611ea181836129b0565b979650505050505050565b600083600003611ecf5760405163b937356b60e01b815260040160405180910390fd5b821580611eda575081155b15611ef857604051637b03555560e01b815260040160405180910390fd5b82611f038386612983565b611d0d91906129b0565b600083600003611f305760405163b937356b60e01b815260040160405180910390fd5b821580611f3b575081155b15611f5957604051637b03555560e01b815260040160405180910390fd5b6000611f658585612983565b611f71906103e8612983565b90506000611f7f86856126e4565b611f8b906103e5612983565b9050611f9781836129b0565b611fa290600161275c565b9695505050505050565b600061271071ffff00000000000000000000000000000000608084901b1604600160801b0162ffffff8416627fffff1901611fe78282612112565b95945050505050565b6000806000611fff868661237c565b9150915081600014612015578360ff1682901c92505b8015610ea957600160ff85161b811061204157604051638e471a8960e01b815260040160405180910390fd5b8360ff166101000361ffff1681901b8301925050509392505050565b600060ff831684811b9061ffff6101008290031686901c90611fa29087906001901b86858561239b565b600080826001600160a01b0316846001600160a01b0316036120bc5760405163827524a360e01b815260040160405180910390fd5b826001600160a01b0316846001600160a01b0316106120dc5782846120df565b83835b90925090506001600160a01b03821661210b57604051632268279160e11b815260040160405180910390fd5b9250929050565b60008060008360000361212e5750600160801b91506123769050565b50826000811215612140579015906000035b6210000081101561233057600160801b9250846001600160801b0381111561216a57911591600019045b600182161561217b5792830260801c925b800260801c60028216156121915792830260801c925b800260801c60048216156121a75792830260801c925b800260801c60088216156121bd5792830260801c925b800260801c60108216156121d35792830260801c925b800260801c60208216156121e95792830260801c925b800260801c60408216156121ff5792830260801c925b8002608090811c908216156122165792830260801c925b800260801c61010082161561222d5792830260801c925b800260801c6102008216156122445792830260801c925b800260801c61040082161561225b5792830260801c925b800260801c6108008216156122725792830260801c925b800260801c6110008216156122895792830260801c925b800260801c6120008216156122a05792830260801c925b800260801c6140008216156122b75792830260801c925b800260801c6180008216156122ce5792830260801c925b800260801c620100008216156122e65792830260801c925b800260801c620200008216156122fe5792830260801c925b800260801c620400008216156123165792830260801c925b800260801c6208000082161561232e5792830260801c925b505b8260000361235f57604051631dba598d60e11b8152600481018690526024810185905260440160405180910390fd5b8161236a5782611fe7565b611fe7836000196129b0565b92915050565b6000806000198385098385029250828110838203039150509250929050565b6000816000036123bc578383816123b4576123b461299a565b049050611fe7565b8382106123dc576040516313eae71560e01b815260040160405180910390fd5b600084868809600186198101871660008190038190049091018683119095039490940294038390049390931760029290940460038102831880820284030280820284030280820284030280820284030280820284030290810290920390910292909202949350505050565b6001600160801b038116811461245c57600080fd5b50565b60008060006040848603121561247457600080fd5b833567ffffffffffffffff8082111561248c57600080fd5b818601915086601f8301126124a057600080fd5b8135818111156124af57600080fd5b8760208260051b85010111156124c457600080fd5b602092830195509350508401356124da81612447565b809150509250925092565b600081518084526020808501945080840160005b8381101561251e5781516001600160a01b0316875295820195908201906001016124f9565b509495945050505050565b600081518084526020808501945080840160005b8381101561251e5781518752958201959082019060010161253d565b634e487b7160e01b600052602160045260246000fd5b60008151808452602080850194508084016000805b848110156125bc578251600281106125aa57634e487b7160e01b83526021600452602483fd5b88529683019691830191600101612584565b50959695505050505050565b600081518084526020808501945080840160005b8381101561251e5781516001600160801b0316875295820195908201906001016125dc565b602081526000825160e0602084015261261e6101008401826124e5565b90506020840151601f198085840301604086015261263c83836124e5565b925060408601519150808584030160608601526126598383612529565b92506060860151915080858403016080860152612676838361256f565b925060808601519150808584030160a086015261269383836125c8565b925060a08601519150808584030160c08601526126b083836125c8565b925060c08601519150808584030160e086015250611fe782826125c8565b634e487b7160e01b600052601160045260246000fd5b81810381811115612376576123766126ce565b634e487b7160e01b600052604160045260246000fd5b634e487b7160e01b600052603260045260246000fd5b6001600160a01b038116811461245c57600080fd5b60006020828403121561274a57600080fd5b813561275581612723565b9392505050565b80820180821115612376576123766126ce565b6040516080810167ffffffffffffffff81118282101715612792576127926126f7565b60405290565b604051601f8201601f1916810167ffffffffffffffff811182821017156127c1576127c16126f7565b604052919050565b80518015158114611d3f57600080fd5b600060208083850312156127ec57600080fd5b825167ffffffffffffffff8082111561280457600080fd5b818501915085601f83011261281857600080fd5b81518181111561282a5761282a6126f7565b612838848260051b01612798565b818152848101925060079190911b83018401908782111561285857600080fd5b928401925b81841015611ea157608084890312156128765760008081fd5b61287e61276f565b845161ffff811681146128915760008081fd5b8152848601516128a081612723565b8187015260406128b18682016127c9565b9082015260606128c28682016127c9565b908201528352608093909301929184019161285d565b6000602082840312156128ea57600080fd5b815161275581612723565b60008060006060848603121561290a57600080fd5b835161291581612447565b602085015190935061292681612447565b60408501519092506124da81612447565b60006020828403121561294957600080fd5b815162ffffff8116811461275557600080fd5b6001600160801b0382811682821603908082111561297c5761297c6126ce565b5092915050565b8082028115828204841417612376576123766126ce565b634e487b7160e01b600052601260045260246000fd5b6000826129cd57634e487b7160e01b600052601260045260246000fd5b500490565b6000600182016129e4576129e46126ce565b5060010190565b6001600160801b03818116838216028082169190828114612a0e57612a0e6126ce565b505092915050565b6001600160801b0381811683821601908082111561297c5761297c6126ce565b600081612a4557612a456126ce565b506000190190565b80516dffffffffffffffffffffffffffff81168114611d3f57600080fd5b600080600060608486031215612a8057600080fd5b612a8984612a4d565b9250612a9760208501612a4d565b9150604084015163ffffffff811681146124da57600080fdfea264697066735822122049e882490fb40b1e480420f9b6652583b94a56010df7ef0806470be8b0ce0c1764736f6c63430008140033","linkReferences":{}},"methodIdentifiers":{"findBestPathFromAmountIn(address[],uint128)":"0f902a40","findBestPathFromAmountOut(address[],uint128)":"59214226","getFactoryV1()":"07da8f57","getFactoryV2()":"ca56fc72","getRouterV2()":"33141d3e"},"id":45}