{"abi":[{"type":"constructor","inputs":[],"stateMutability":"nonpayable"},{"type":"function","name":"allowance","inputs":[{"name":"owner","type":"address","internalType":"address"},{"name":"spender","type":"address","internalType":"address"}],"outputs":[{"name":"","type":"uint256","internalType":"uint256"}],"stateMutability":"view"},{"type":"function","name":"approve","inputs":[{"name":"spender","type":"address","internalType":"address"},{"name":"value","type":"uint256","internalType":"uint256"}],"outputs":[{"name":"","type":"bool","internalType":"bool"}],"stateMutability":"nonpayable"},{"type":"function","name":"balanceOf","inputs":[{"name":"account","type":"address","internalType":"address"}],"outputs":[{"name":"","type":"uint256","internalType":"uint256"}],"stateMutability":"view"},{"type":"function","name":"decimals","inputs":[],"outputs":[{"name":"","type":"uint8","internalType":"uint8"}],"stateMutability":"view"},{"type":"function","name":"mint","inputs":[{"name":"_to","type":"address","internalType":"address"},{"name":"_amount","type":"uint256","internalType":"uint256"}],"outputs":[],"stateMutability":"nonpayable"},{"type":"function","name":"name","inputs":[],"outputs":[{"name":"","type":"string","internalType":"string"}],"stateMutability":"view"},{"type":"function","name":"owner","inputs":[],"outputs":[{"name":"","type":"address","internalType":"address"}],"stateMutability":"view"},{"type":"function","name":"renounceOwnership","inputs":[],"outputs":[],"stateMutability":"nonpayable"},{"type":"function","name":"symbol","inputs":[],"outputs":[{"name":"","type":"string","internalType":"string"}],"stateMutability":"view"},{"type":"function","name":"totalSupply","inputs":[],"outputs":[{"name":"","type":"uint256","internalType":"uint256"}],"stateMutability":"view"},{"type":"function","name":"transfer","inputs":[{"name":"to","type":"address","internalType":"address"},{"name":"value","type":"uint256","internalType":"uint256"}],"outputs":[{"name":"","type":"bool","internalType":"bool"}],"stateMutability":"nonpayable"},{"type":"function","name":"transferFrom","inputs":[{"name":"from","type":"address","internalType":"address"},{"name":"to","type":"address","internalType":"address"},{"name":"value","type":"uint256","internalType":"uint256"}],"outputs":[{"name":"","type":"bool","internalType":"bool"}],"stateMutability":"nonpayable"},{"type":"function","name":"transferOwnership","inputs":[{"name":"newOwner","type":"address","internalType":"address"}],"outputs":[],"stateMutability":"nonpayable"},{"type":"event","name":"Approval","inputs":[{"name":"owner","type":"address","indexed":true,"internalType":"address"},{"name":"spender","type":"address","indexed":true,"internalType":"address"},{"name":"value","type":"uint256","indexed":false,"internalType":"uint256"}],"anonymous":false},{"type":"event","name":"OwnershipTransferred","inputs":[{"name":"previousOwner","type":"address","indexed":true,"internalType":"address"},{"name":"newOwner","type":"address","indexed":true,"internalType":"address"}],"anonymous":false},{"type":"event","name":"Transfer","inputs":[{"name":"from","type":"address","indexed":true,"internalType":"address"},{"name":"to","type":"address","indexed":true,"internalType":"address"},{"name":"value","type":"uint256","indexed":false,"internalType":"uint256"}],"anonymous":false},{"type":"error","name":"ERC20InsufficientAllowance","inputs":[{"name":"spender","type":"address","internalType":"address"},{"name":"allowance","type":"uint256","internalType":"uint256"},{"name":"needed","type":"uint256","internalType":"uint256"}]},{"type":"error","name":"ERC20InsufficientBalance","inputs":[{"name":"sender","type":"address","internalType":"address"},{"name":"balance","type":"uint256","internalType":"uint256"},{"name":"needed","type":"uint256","internalType":"uint256"}]},{"type":"error","name":"ERC20InvalidApprover","inputs":[{"name":"approver","type":"address","internalType":"address"}]},{"type":"error","name":"ERC20InvalidReceiver","inputs":[{"name":"receiver","type":"address","internalType":"address"}]},{"type":"error","name":"ERC20InvalidSender","inputs":[{"name":"sender","type":"address","internalType":"address"}]},{"type":"error","name":"ERC20InvalidSpender","inputs":[{"name":"spender","type":"address","internalType":"address"}]},{"type":"error","name":"OwnableInvalidOwner","inputs":[{"name":"owner","type":"address","internalType":"address"}]},{"type":"error","name":"OwnableUnauthorizedAccount","inputs":[{"name":"account","type":"address","internalType":"address"}]}],"bytecode":{"object":"0x60a06040523480156200001157600080fd5b506012336040518060400160405280600a8152602001694552433230204d6f636b60b01b8152506040518060400160405280600981526020016845524332304d6f636b60b81b81525081600390816200006b9190620001bb565b5060046200007a8282620001bb565b5050506001600160a01b038116620000ac57604051631e4fbdf760e01b81526000600482015260240160405180910390fd5b620000b781620000c4565b5060ff1660805262000287565b600580546001600160a01b038381166001600160a01b0319831681179093556040519116919082907f8be0079c531659141344cd1fd0a4f28419497f9722a3daafe3b4186f6b6457e090600090a35050565b634e487b7160e01b600052604160045260246000fd5b600181811c908216806200014157607f821691505b6020821081036200016257634e487b7160e01b600052602260045260246000fd5b50919050565b601f821115620001b657600081815260208120601f850160051c81016020861015620001915750805b601f850160051c820191505b81811015620001b2578281556001016200019d565b5050505b505050565b81516001600160401b03811115620001d757620001d762000116565b620001ef81620001e884546200012c565b8462000168565b602080601f8311600181146200022757600084156200020e5750858301515b600019600386901b1c1916600185901b178555620001b2565b600085815260208120601f198616915b82811015620002585788860151825594840194600190910190840162000237565b5085821015620002775787850151600019600388901b60f8161c191681555b5050505050600190811b01905550565b608051610975620002a3600039600061015101526109756000f3fe608060405234801561001057600080fd5b50600436106100df5760003560e01c806370a082311161008c57806395d89b411161006657806395d89b41146101dc578063a9059cbb146101e4578063dd62ed3e146101f7578063f2fde38b1461023057600080fd5b806370a0823114610190578063715018a6146101b95780638da5cb5b146101c157600080fd5b806323b872dd116100bd57806323b872dd14610137578063313ce5671461014a57806340c10f191461017b57600080fd5b806306fdde03146100e4578063095ea7b31461010257806318160ddd14610125575b600080fd5b6100ec610243565b6040516100f99190610782565b60405180910390f35b6101156101103660046107ec565b6102d5565b60405190151581526020016100f9565b6002545b6040519081526020016100f9565b610115610145366004610816565b6102ef565b60405160ff7f00000000000000000000000000000000000000000000000000000000000000001681526020016100f9565b61018e6101893660046107ec565b610313565b005b61012961019e366004610852565b6001600160a01b031660009081526020819052604090205490565b61018e610329565b6005546040516001600160a01b0390911681526020016100f9565b6100ec61033d565b6101156101f23660046107ec565b61034c565b610129610205366004610874565b6001600160a01b03918216600090815260016020908152604080832093909416825291909152205490565b61018e61023e366004610852565b61035a565b606060038054610252906108a7565b80601f016020809104026020016040519081016040528092919081815260200182805461027e906108a7565b80156102cb5780601f106102a0576101008083540402835291602001916102cb565b820191906000526020600020905b8154815290600101906020018083116102ae57829003601f168201915b5050505050905090565b6000336102e381858561039d565b60019150505b92915050565b6000336102fd8582856103af565b61030885858561042d565b506001949350505050565b61031b61048c565b61032582826104b9565b5050565b61033161048c565b61033b60006104ef565b565b606060048054610252906108a7565b6000336102e381858561042d565b61036261048c565b6001600160a01b03811661039157604051631e4fbdf760e01b8152600060048201526024015b60405180910390fd5b61039a816104ef565b50565b6103aa8383836001610559565b505050565b6001600160a01b038381166000908152600160209081526040808320938616835292905220546000198114610427578181101561041857604051637dc7a0d960e11b81526001600160a01b03841660048201526024810182905260448101839052606401610388565b61042784848484036000610559565b50505050565b6001600160a01b03831661045757604051634b637e8f60e11b815260006004820152602401610388565b6001600160a01b0382166104815760405163ec442f0560e01b815260006004820152602401610388565b6103aa83838361062e565b6005546001600160a01b0316331461033b5760405163118cdaa760e01b8152336004820152602401610388565b6001600160a01b0382166104e35760405163ec442f0560e01b815260006004820152602401610388565b6103256000838361062e565b600580546001600160a01b038381167fffffffffffffffffffffffff0000000000000000000000000000000000000000831681179093556040519116919082907f8be0079c531659141344cd1fd0a4f28419497f9722a3daafe3b4186f6b6457e090600090a35050565b6001600160a01b0384166105835760405163e602df0560e01b815260006004820152602401610388565b6001600160a01b0383166105ad57604051634a1406b160e11b815260006004820152602401610388565b6001600160a01b038085166000908152600160209081526040808320938716835292905220829055801561042757826001600160a01b0316846001600160a01b03167f8c5be1e5ebec7d5bd14f71427d1e84f3dd0314c0f7b2291e5b200ac8c7c3b9258460405161062091815260200190565b60405180910390a350505050565b600061063b6002836108f7565b905061064984600083610658565b61042784846106588486610919565b6001600160a01b038316610683578060026000828254610678919061092c565b909155506106f59050565b6001600160a01b038316600090815260208190526040902054818110156106d65760405163391434e360e21b81526001600160a01b03851660048201526024810182905260448101839052606401610388565b6001600160a01b03841660009081526020819052604090209082900390555b6001600160a01b03821661071157600280548290039055610730565b6001600160a01b03821660009081526020819052604090208054820190555b816001600160a01b0316836001600160a01b03167fddf252ad1be2c89b69c2b068fc378daa952ba7f163c4a11628f55a4df523b3ef8360405161077591815260200190565b60405180910390a3505050565b600060208083528351808285015260005b818110156107af57858101830151858201604001528201610793565b506000604082860101526040601f19601f8301168501019250505092915050565b80356001600160a01b03811681146107e757600080fd5b919050565b600080604083850312156107ff57600080fd5b610808836107d0565b946020939093013593505050565b60008060006060848603121561082b57600080fd5b610834846107d0565b9250610842602085016107d0565b9150604084013590509250925092565b60006020828403121561086457600080fd5b61086d826107d0565b9392505050565b6000806040838503121561088757600080fd5b610890836107d0565b915061089e602084016107d0565b90509250929050565b600181811c908216806108bb57607f821691505b6020821081036108db57634e487b7160e01b600052602260045260246000fd5b50919050565b634e487b7160e01b600052601160045260246000fd5b60008261091457634e487b7160e01b600052601260045260246000fd5b500490565b818103818111156102e9576102e96108e1565b808201808211156102e9576102e96108e156fea26469706673582212203128554588a242534b7d180e6bcef67cd97e91abb99161df7c218c6a9eccb86064736f6c63430008140033","linkReferences":{}},"methodIdentifiers":{"allowance(address,address)":"dd62ed3e","approve(address,uint256)":"095ea7b3","balanceOf(address)":"70a08231","decimals()":"313ce567","mint(address,uint256)":"40c10f19","name()":"06fdde03","owner()":"8da5cb5b","renounceOwnership()":"715018a6","symbol()":"95d89b41","totalSupply()":"18160ddd","transfer(address,uint256)":"a9059cbb","transferFrom(address,address,uint256)":"23b872dd","transferOwnership(address)":"f2fde38b"},"id":143}