{
	"data": {
		"bytecode": {
			"linkReferences": {},
			"object": "608060405234801562000010575f80fd5b50620000216200002760201b60201c565b62000191565b5f620000386200012b60201b60201c565b9050805f0160089054906101000a900460ff161562000083576040517ff92ee8a900000000000000000000000000000000000000000000000000000000815260040160405180910390fd5b67ffffffffffffffff8016815f015f9054906101000a900467ffffffffffffffff1667ffffffffffffffff1614620001285767ffffffffffffffff815f015f6101000a81548167ffffffffffffffff021916908367ffffffffffffffff1602179055507fc7f505b2f371ae2175ee4913f4499e1f2633a7b5936321eed1cdaeb6115181d267ffffffffffffffff6040516200011f919062000176565b60405180910390a15b50565b5f7ff0c57e16840df040f15088dc2f81fe391c3923bec73e23a9662efc9c229c6a00905090565b5f67ffffffffffffffff82169050919050565b620001708162000152565b82525050565b5f6020820190506200018b5f83018462000165565b92915050565b617503806200019f5f395ff3fe608060405234801562000010575f80fd5b5060043610620002ae575f3560e01c8063701ab8c1116200016f578063aabc4b3c11620000d3578063e203a31f1162000091578063e203a31f1462000847578063e30c39781462000867578063e74b981b1462000889578063e92d0d5d14620008a9578063f2fde38b14620008c9578063fd90c2be14620008e957620002ae565b8063aabc4b3c1462000788578063be20309414620007c5578063c1b931be14620007e5578063d547741f1462000807578063ddbfd941146200082757620002ae565b806380c5061e116200012d57806380c5061e14620006a85780638ce9aa1c14620006ca5780638da5cb5b14620006ec57806391d14854146200070e578063a0a0ea391462000744578063a217fddf146200076657620002ae565b8063701ab8c11462000602578063704037bd1462000624578063715018a6146200065a57806379ba509714620006665780637daf5d66146200067257620002ae565b80633a2f1a9111620002175780635a44092311620001d55780635a44092314620005125780635b35875c1462000532578063659ac74b1462000554578063661d7ffb146200058a5780636622e0d714620005ac57806369d56ea314620005e257620002ae565b80633a2f1a91146200046e5780633c78a941146200048e5780634ccb20c014620004ae5780634cd161d314620004d05780634e937c3a14620004f057620002ae565b8063248a9ca31162000271578063248a9ca314620003825780632772184214620003b85780632cc06b8c14620003ee5780632f2ff15d146200040e57806336568abe146200042e578063379ee803146200044e57620002ae565b806301ffc9a714620002b25780630282c9c114620002e85780630752092b146200030a578063093ff76914620003405780631af5bacc1462000360575b5f80fd5b620002d06004803603810190620002ca9190620044b5565b6200090b565b604051620002df919062004501565b60405180910390f35b620002f262000987565b604051620003019190620045ec565b60405180910390f35b6200032860048036038101906200032291906200463d565b62000a89565b604051620003379190620046f3565b60405180910390f35b6200035e6004803603810190620003589190620047dc565b62000aa7565b005b6200036a62000bc3565b604051620003799190620048e6565b60405180910390f35b620003a060048036038101906200039a919062004930565b62000be7565b604051620003af9190620048e6565b60405180910390f35b620003d66004803603810190620003d0919062004960565b62000c13565b604051620003e5919062004501565b60405180910390f35b6200040c600480360381019062000406919062004990565b62000c31565b005b6200042c600480360381019062000426919062004a18565b62000cc4565b005b6200044c600480360381019062000446919062004a18565b62000cec565b005b6200046c600480360381019062000466919062004a8c565b62000d6c565b005b6200048c600480360381019062000486919062004bcf565b62000eb5565b005b620004ac6004803603810190620004a6919062004cb7565b62000fdc565b005b620004b862001046565b604051620004c7919062004cf8565b60405180910390f35b620004ee6004803603810190620004e8919062004d13565b6200106d565b005b620004fa620011b6565b60405162000509919062004d69565b60405180910390f35b6200053060048036038101906200052a919062004960565b620011c2565b005b6200053c6200126c565b6040516200054b9190620045ec565b60405180910390f35b6200057260048036038101906200056c919062004d84565b6200127f565b60405162000581919062004e17565b60405180910390f35b6200059462001aba565b604051620005a39190620048e6565b60405180910390f35b620005ca6004803603810190620005c4919062004e32565b62001ade565b604051620005d9919062004fbb565b60405180910390f35b620006006004803603810190620005fa919062004fdd565b62001d7f565b005b6200060c62002099565b6040516200061b919062004d69565b60405180910390f35b6200064260048036038101906200063c91906200504c565b620020a1565b60405162000651919062005100565b60405180910390f35b62000664620020c1565b005b62000670620020d8565b005b6200069060048036038101906200068a91906200463d565b6200216f565b6040516200069f919062004e17565b60405180910390f35b620006b2620021b6565b604051620006c1919062004d69565b60405180910390f35b620006d4620021c8565b604051620006e3919062004d69565b60405180910390f35b620006f6620021d7565b60405162000705919062004cf8565b60405180910390f35b6200072c600480360381019062000726919062004a18565b6200220e565b6040516200073b919062004501565b60405180910390f35b6200074e6200226e565b6040516200075d919062004cf8565b60405180910390f35b6200077062002296565b6040516200077f9190620048e6565b60405180910390f35b620007a66004803603810190620007a091906200463d565b6200229c565b604051620007bc9897969594939291906200511b565b60405180910390f35b620007e36004803603810190620007dd9190620051a7565b620023b6565b005b620007ef6200262d565b604051620007fe9190620048e6565b60405180910390f35b6200082560048036038101906200081f919062004a18565b62002654565b005b6200084560048036038101906200083f919062004960565b6200267c565b005b6200086560048036038101906200085f919062005216565b62002726565b005b62000871620027c2565b60405162000880919062004cf8565b60405180910390f35b620008a76004803603810190620008a1919062005246565b620027f9565b005b620008c76004803603810190620008c191906200463d565b62002811565b005b620008e76004803603810190620008e1919062005246565b62002908565b005b620008f3620029c7565b60405162000902919062004d69565b60405180910390f35b5f7f7965db0b000000000000000000000000000000000000000000000000000000007bffffffffffffffffffffffffffffffffffffffffffffffffffffffff1916827bffffffffffffffffffffffffffffffffffffffffffffffffffffffff191614806200098057506200097f82620029d0565b5b9050919050565b60605f62000996600562002a39565b90505f81111562000a85578067ffffffffffffffff811115620009be57620009bd62005276565b5b604051908082528060200260200182016040528015620009ed5781602001602082028036833780820191505090505b5091505f805b8281101562000a75575f8062000a1483600562002a4e90919063ffffffff16565b9150915062000a25815f1b62002a77565b1562000a5f578186858151811062000a425762000a41620052a3565b5b602002602001018181525050838062000a5b90620052fd565b9450505b50508062000a6d90620052fd565b9050620009f3565b508181101562000a83578083525b505b5090565b5f62000aa082600862002a9590919063ffffffff16565b9050919050565b62000ab162002aae565b5f62000ac38b8b8b61ffff1662002b3e565b6020015190505f73ffffffffffffffffffffffffffffffffffffffff168173ffffffffffffffffffffffffffffffffffffffff160362000b40578a8a8a6040517fb65ee95300000000000000000000000000000000000000000000000000000000815260040162000b379392919062005381565b60405180910390fd5b8073ffffffffffffffffffffffffffffffffffffffff16636653851a898989898989896040518863ffffffff1660e01b815260040162000b879796959493929190620053de565b5f604051808303815f87803b15801562000b9f575f80fd5b505af115801562000bb2573d5f803e3d5ffd5b505050505050505050505050505050565b7fdcf4465aa60d92459eb361fac2489220ae3c524301cc0433c30a5d83e8fb0fa981565b5f8062000bf362002c9e565b9050805f015f8481526020019081526020015f2060010154915050919050565b5f62000c2a82600862002cc590919063ffffffff16565b9050919050565b7fdcf4465aa60d92459eb361fac2489220ae3c524301cc0433c30a5d83e8fb0fa962000c5d8162002cf4565b62000cbe8484845f801b5f67ffffffffffffffff81111562000c845762000c8362005276565b5b6040519080825280601f01601f19166020018201604052801562000cb75781602001600182028036833780820191505090505b5062002d0c565b50505050565b62000ccf8262000be7565b62000cda8162002cf4565b62000ce6838362002ec5565b50505050565b62000cf662002f16565b73ffffffffffffffffffffffffffffffffffffffff168173ffffffffffffffffffffffffffffffffffffffff161462000d5b576040517f6697b23200000000000000000000000000000000000000000000000000000000815260040160405180910390fd5b62000d67828262002f1d565b505050565b62000d7662002aae565b60018961ffff16101562000dc357886040517f4f958e7100000000000000000000000000000000000000000000000000000000815260040162000dba919062005459565b60405180910390fd5b5f62000de7898989898989895f801b6200301d90979695949392919063ffffffff16565b9050811562000e0c5762000e09600160ff83620031cf9092919063ffffffff16565b90505b62000e2a8a61ffff16825f1c6005620031fa9092919063ffffffff16565b508961ffff167f839844a256a87f87c9c835117d9a1c40be013954064c937072acb32d36db6a288a8a8a8a8a8a8a60405162000e6d9796959493929190620054ac565b60405180910390a28115158a61ffff167f58a8b6a02b964cca2712e5a71d7b0d564a56b4a0f573b4c47f389341ade14cfd60405160405180910390a350505050505050505050565b7fdcf4465aa60d92459eb361fac2489220ae3c524301cc0433c30a5d83e8fb0fa962000ee18162002cf4565b5f73ffffffffffffffffffffffffffffffffffffffff1662000f038562003217565b73ffffffffffffffffffffffffffffffffffffffff16148062000f4957505f60a01b62000f308562003222565b73ffffffffffffffffffffffffffffffffffffffff1916145b1562000f81576040517fd43a15d100000000000000000000000000000000000000000000000000000000815260040160405180910390fd5b62000fd38787878787878080601f0160208091040260200160405190810160405280939291908181526020018383808284375f81840152601f19601f8201169050808301925050505050505062002d0c565b50505050505050565b62000fe662002aae565b8073ffffffffffffffffffffffffffffffffffffffff1663d3b9fbe46040518163ffffffff1660e01b81526004015f604051808303815f87803b1580156200102c575f80fd5b505af11580156200103f573d5f803e3d5ffd5b5050505050565b5f805f9054906101000a900473ffffffffffffffffffffffffffffffffffffffff16905090565b6200107762002aae565b620010918261ffff1660056200322b90919063ffffffff16565b620010d557816040517ffb22c17e000000000000000000000000000000000000000000000000000000008152600401620010cc919062005459565b60405180910390fd5b5f620010f08361ffff1660056200324490919063ffffffff16565b5f1b90508115156200110d60ff836200325f90919063ffffffff16565b15150362001147576040517f237c71b600000000000000000000000000000000000000000000000000000000815260040160405180910390fd5b6200117c8361ffff16620011688460ff85620031cf9092919063ffffffff16565b5f1c6005620031fa9092919063ffffffff16565b508115158361ffff167f58a8b6a02b964cca2712e5a71d7b0d564a56b4a0f573b4c47f389341ade14cfd60405160405180910390a3505050565b5f600380549050905090565b620011cc62002aae565b620011e28160086200326e90919063ffffffff16565b6200122657806040517f03ce0ad90000000000000000000000000000000000000000000000000000000081526004016200121d9190620046f3565b60405180910390fd5b8073ffffffffffffffffffffffffffffffffffffffff167f84cc2115995684dcb0cd3d3a9565e3d32f075de81db70c8dc3a719b2a47af67e60405160405180910390a250565b60606200127a60056200329d565b905090565b5f6200129a8261ffff1660056200322b90919063ffffffff16565b620012de57816040517ffb22c17e000000000000000000000000000000000000000000000000000000008152600401620012d5919062005459565b60405180910390fd5b5f620012f98361ffff1660056200324490919063ffffffff16565b5f1b90505f62001308620021d7565b73ffffffffffffffffffffffffffffffffffffffff163373ffffffffffffffffffffffffffffffffffffffff16149050620013438262002a77565b1580156200134f575080155b15620013965733846040517f09f85fce0000000000000000000000000000000000000000000000000000000081526004016200138d92919062005527565b60405180910390fd5b620013ac86600862002cc590919063ffffffff16565b620013f057856040517f8e888ef3000000000000000000000000000000000000000000000000000000008152600401620013e79190620046f3565b60405180910390fd5b8573ffffffffffffffffffffffffffffffffffffffff168773ffffffffffffffffffffffffffffffffffffffff16036200146357866040517f2f9b18530000000000000000000000000000000000000000000000000000000081526004016200145a9190620046f3565b60405180910390fd5b6200146f8585620032be565b505f806200147e8989620032fa565b915091505f73ffffffffffffffffffffffffffffffffffffffff168273ffffffffffffffffffffffffffffffffffffffff1603620014e8576040517f95cf3ee400000000000000000000000000000000000000000000000000000000815260040160405180910390fd5b5f73ffffffffffffffffffffffffffffffffffffffff1660045f8473ffffffffffffffffffffffffffffffffffffffff1673ffffffffffffffffffffffffffffffffffffffff1681526020019081526020015f205f8373ffffffffffffffffffffffffffffffffffffffff1673ffffffffffffffffffffffffffffffffffffffff1681526020019081526020015f205f8861ffff1681526020019081526020015f205f0160029054906101000a900473ffffffffffffffffffffffffffffffffffffffff1673ffffffffffffffffffffffffffffffffffffffff16146200160c578888876040517fcb27a435000000000000000000000000000000000000000000000000000000008152600401620016039392919062005381565b60405180910390fd5b5f620016188562003349565b620016238662003366565b6200162e8762003384565b6200163988620033a2565b6200164489620033c0565b6200164f8a620033de565b6200165a8b620033fc565b8e6040516024016200167498979695949392919062005552565b6040516020818303038152906040527f47973bff000000000000000000000000000000000000000000000000000000007bffffffffffffffffffffffffffffffffffffffffffffffffffffffff19166020820180517bffffffffffffffffffffffffffffffffffffffffffffffffffffffff838183161783525050505090505f8383896040516020016200170b9392919062005665565b6040516020818303038152906040528051906020012090505f60405180602001620017369062004403565b6020820181038252601f19601f8201166040525060025f9054906101000a900473ffffffffffffffffffffffffffffffffffffffff168d8d8c87604051602001620017869594939291906200573b565b604051602081830303815290604052604051602001620017a8929190620057dd565b6040516020818303038152906040529050620017c65f83836200341a565b975050505060405180608001604052808761ffff1681526020018673ffffffffffffffffffffffffffffffffffffffff16815260200184151581526020015f151581525060045f8473ffffffffffffffffffffffffffffffffffffffff1673ffffffffffffffffffffffffffffffffffffffff1681526020019081526020015f205f8373ffffffffffffffffffffffffffffffffffffffff1673ffffffffffffffffffffffffffffffffffffffff1681526020019081526020015f205f8861ffff1681526020019081526020015f205f820151815f015f6101000a81548161ffff021916908361ffff1602179055506020820151815f0160026101000a81548173ffffffffffffffffffffffffffffffffffffffff021916908373ffffffffffffffffffffffffffffffffffffffff1602179055506040820151815f0160166101000a81548160ff0219169083151502179055506060820151815f0160176101000a81548160ff021916908315150217905550905050600385908060018154018082558091505060019003905f5260205f20015f9091909190916101000a81548173ffffffffffffffffffffffffffffffffffffffff021916908373ffffffffffffffffffffffffffffffffffffffff16021790555062001a2c8661ffff16600a5f8573ffffffffffffffffffffffffffffffffffffffff1673ffffffffffffffffffffffffffffffffffffffff1681526020019081526020015f205f8473ffffffffffffffffffffffffffffffffffffffff1673ffffffffffffffffffffffffffffffffffffffff1681526020019081526020015f206200351890919063ffffffff16565b508561ffff168873ffffffffffffffffffffffffffffffffffffffff168a73ffffffffffffffffffffffffffffffffffffffff167f2c8d104b27c6b7f4492017a6f5cf3803043688934ebcaa6a03540beeaf976aff88600160038054905062001a96919062005804565b60405162001aa69291906200583e565b60405180910390a450505050949350505050565b7f9daad794d31bffea33c7c571b462185cbd402366f4696e49c91be26e9222bb9d81565b60605f8062001aee8585620032fa565b915091505f600a5f8473ffffffffffffffffffffffffffffffffffffffff1673ffffffffffffffffffffffffffffffffffffffff1681526020019081526020015f205f8373ffffffffffffffffffffffffffffffffffffffff1673ffffffffffffffffffffffffffffffffffffffff1681526020019081526020015f2090505f62001b798262003531565b90505f81111562001d75578067ffffffffffffffff81111562001ba15762001ba062005276565b5b60405190808252806020026020018201604052801562001bde57816020015b62001bca62004411565b81526020019060019003908162001bc05790505b5094505f60045f8673ffffffffffffffffffffffffffffffffffffffff1673ffffffffffffffffffffffffffffffffffffffff1681526020019081526020015f205f8573ffffffffffffffffffffffffffffffffffffffff1673ffffffffffffffffffffffffffffffffffffffff1681526020019081526020015f2090505f5b8281101562001d72575f62001c8762001c8183876200354690919063ffffffff16565b6200355f565b905060405180608001604052808261ffff168152602001845f8461ffff1681526020019081526020015f205f0160029054906101000a900473ffffffffffffffffffffffffffffffffffffffff1673ffffffffffffffffffffffffffffffffffffffff168152602001845f8461ffff1681526020019081526020015f205f0160169054906101000a900460ff1615158152602001845f8461ffff1681526020019081526020015f205f0160179054906101000a900460ff16151581525088838151811062001d5a5762001d59620052a3565b5b60200260200101819052505080600101905062001c5e565b50505b5050505092915050565b62001d8962002aae565b5f8062001d978686620032fa565b915091505f60045f8473ffffffffffffffffffffffffffffffffffffffff1673ffffffffffffffffffffffffffffffffffffffff1681526020019081526020015f205f8373ffffffffffffffffffffffffffffffffffffffff1673ffffffffffffffffffffffffffffffffffffffff1681526020019081526020015f205f8661ffff1681526020019081526020015f206040518060800160405290815f82015f9054906101000a900461ffff1661ffff1661ffff1681526020015f820160029054906101000a900473ffffffffffffffffffffffffffffffffffffffff1673ffffffffffffffffffffffffffffffffffffffff1673ffffffffffffffffffffffffffffffffffffffff1681526020015f820160169054906101000a900460ff161515151581526020015f820160179054906101000a900460ff16151515158152505090505f73ffffffffffffffffffffffffffffffffffffffff16816020015173ffffffffffffffffffffffffffffffffffffffff160362001f56578686866040517f40aa464400000000000000000000000000000000000000000000000000000000815260040162001f4d9392919062005381565b60405180910390fd5b831515816060015115150362001f97576040517eddccca00000000000000000000000000000000000000000000000000000000815260040160405180910390fd5b8360045f8573ffffffffffffffffffffffffffffffffffffffff1673ffffffffffffffffffffffffffffffffffffffff1681526020019081526020015f205f8473ffffffffffffffffffffffffffffffffffffffff1673ffffffffffffffffffffffffffffffffffffffff1681526020019081526020015f205f8761ffff1681526020019081526020015f205f0160176101000a81548160ff021916908315150217905550806020015173ffffffffffffffffffffffffffffffffffffffff167f44cf35361c9ff3c8c1397ec6410d5495cc481feaef35c9af11da1a637107de4f8560405162002088919062004501565b60405180910390a250505050505050565b5f6001905090565b620020ab62004411565b620020b884848462002b3e565b90509392505050565b620020cb62002aae565b620020d65f620035a6565b565b5f620020e362002f16565b90508073ffffffffffffffffffffffffffffffffffffffff1662002106620027c2565b73ffffffffffffffffffffffffffffffffffffffff16146200216157806040517f118cdaa700000000000000000000000000000000000000000000000000000000815260040162002158919062004cf8565b60405180910390fd5b6200216c81620035a6565b50565b5f60038281548110620021875762002186620052a3565b5b905f5260205f20015f9054906101000a900473ffffffffffffffffffffffffffffffffffffffff169050919050565b5f620021c36008620035e7565b905090565b5f67016345785d8a0000905090565b5f80620021e3620035fc565b9050805f015f9054906101000a900473ffffffffffffffffffffffffffffffffffffffff1691505090565b5f805f1b8303620022595762002223620021d7565b73ffffffffffffffffffffffffffffffffffffffff168273ffffffffffffffffffffffffffffffffffffffff1614905062002268565b62002265838362003623565b90505b92915050565b5f60025f9054906101000a900473ffffffffffffffffffffffffffffffffffffffff16905090565b5f801b81565b5f805f805f805f80620022ba8960056200322b90919063ffffffff16565b620022fe57886040517ffb22c17e000000000000000000000000000000000000000000000000000000008152600401620022f5919062004d69565b60405180910390fd5b5f620023158a60056200324490919063ffffffff16565b5f1b9050620023248162003349565b61ffff169850620023358162003366565b61ffff169750620023468162003384565b61ffff1696506200235781620033a2565b61ffff1695506200236881620033c0565b62ffffff1694506200237a81620033de565b61ffff1693506200238b81620033fc565b62ffffff169250620023a860ff826200325f90919063ffffffff16565b915050919395975091939597565b5f620023c162003696565b90505f815f0160089054906101000a900460ff161590505f825f015f9054906101000a900467ffffffffffffffff1690505f808267ffffffffffffffff161480156200240a5750825b90505f60018367ffffffffffffffff161480156200243e57505f3073ffffffffffffffffffffffffffffffffffffffff163b145b9050811580156200244d575080155b1562002485576040517ff92ee8a900000000000000000000000000000000000000000000000000000000815260040160405180910390fd5b6001855f015f6101000a81548167ffffffffffffffff021916908367ffffffffffffffff1602179055508315620024d3576001855f0160086101000a81548160ff0219169083151502179055505b620024de88620036bd565b67016345785d8a000087111562002538578667016345785d8a00006040517f5e8988c10000000000000000000000000000000000000000000000000000000081526004016200252f92919062005869565b60405180910390fd5b6200254389620036d5565b866001819055508560025f6101000a81548173ffffffffffffffffffffffffffffffffffffffff021916908373ffffffffffffffffffffffffffffffffffffffff1602179055507f5c34e91c94c78b662a45d0bd4a25a4e32c584c54a45a76e4a4d43be27ba40e505f88604051620025bd929190620058d5565b60405180910390a1831562002622575f855f0160086101000a81548160ff0219169083151502179055507fc7f505b2f371ae2175ee4913f4499e1f2633a7b5936321eed1cdaeb6115181d2600160405162002619919062005954565b60405180910390a15b505050505050505050565b5f7f9daad794d31bffea33c7c571b462185cbd402366f4696e49c91be26e9222bb9d905090565b6200265f8262000be7565b6200266a8162002cf4565b62002676838362002f1d565b50505050565b6200268662002aae565b6200269c8160086200386f90919063ffffffff16565b620026e057806040517f8e888ef3000000000000000000000000000000000000000000000000000000008152600401620026d79190620046f3565b60405180910390fd5b8073ffffffffffffffffffffffffffffffffffffffff167f0b767739217755d8af5a2ba75b181a19fa1750f8bb701f09311cb19a90140cb360405160405180910390a250565b6200273062002aae565b6200274a8161ffff1660056200389e90919063ffffffff16565b6200278e57806040517ffb22c17e00000000000000000000000000000000000000000000000000000000815260040162002785919062005459565b60405180910390fd5b8061ffff167fdd86b848bb56ff540caa68683fa467d0e7eb5f8b2d44e4ee435742eeeae9be1360405160405180910390a250565b5f80620027ce620038b7565b9050805f015f9054906101000a900473ffffffffffffffffffffffffffffffffffffffff1691505090565b6200280362002aae565b6200280e81620036d5565b50565b6200281b62002aae565b5f60015490508181036200286857816040517f6ea8c7a40000000000000000000000000000000000000000000000000000000081526004016200285f919062004d69565b60405180910390fd5b67016345785d8a0000821115620028c2578167016345785d8a00006040517f5e8988c1000000000000000000000000000000000000000000000000000000008152600401620028b992919062005869565b60405180910390fd5b816001819055507f5c34e91c94c78b662a45d0bd4a25a4e32c584c54a45a76e4a4d43be27ba40e508183604051620028fc92919062005869565b60405180910390a15050565b6200291262002aae565b5f6200291d620038b7565b905081815f015f6101000a81548173ffffffffffffffffffffffffffffffffffffffff021916908373ffffffffffffffffffffffffffffffffffffffff1602179055508173ffffffffffffffffffffffffffffffffffffffff1662002981620021d7565b73ffffffffffffffffffffffffffffffffffffffff167f38d16b8cac22d99fc7c124b9cd0de2d3fa1faef420bfe791d8c362d765e2270060405160405180910390a35050565b5f600154905090565b5f7f01ffc9a7000000000000000000000000000000000000000000000000000000007bffffffffffffffffffffffffffffffffffffffffffffffffffffffff1916827bffffffffffffffffffffffffffffffffffffffffffffffffffffffff1916149050919050565b5f62002a47825f01620038de565b9050919050565b5f805f8062002a60865f0186620038f3565b91509150815f1c815f1c9350935050509250929050565b5f62002a8e60ff836200325f90919063ffffffff16565b9050919050565b5f62002aa4835f018362003930565b5f1c905092915050565b62002ab862002f16565b73ffffffffffffffffffffffffffffffffffffffff1662002ad8620021d7565b73ffffffffffffffffffffffffffffffffffffffff161462002b3c5762002afe62002f16565b6040517f118cdaa700000000000000000000000000000000000000000000000000000000815260040162002b33919062004cf8565b60405180910390fd5b565b62002b4862004411565b62002b548484620032fa565b809450819550505060045f8573ffffffffffffffffffffffffffffffffffffffff1673ffffffffffffffffffffffffffffffffffffffff1681526020019081526020015f205f8473ffffffffffffffffffffffffffffffffffffffff1673ffffffffffffffffffffffffffffffffffffffff1681526020019081526020015f205f8381526020019081526020015f206040518060800160405290815f82015f9054906101000a900461ffff1661ffff1661ffff1681526020015f820160029054906101000a900473ffffffffffffffffffffffffffffffffffffffff1673ffffffffffffffffffffffffffffffffffffffff1673ffffffffffffffffffffffffffffffffffffffff1681526020015f820160169054906101000a900460ff161515151581526020015f820160179054906101000a900460ff16151515158152505090509392505050565b5f7f02dd7bc7dec4dceedda775e58dd541e08a116c6c53815c0bd028192f7b626800905090565b5f62002cec835f018373ffffffffffffffffffffffffffffffffffffffff165f1b6200395a565b905092915050565b62002d098162002d0362002f16565b6200397a565b50565b5f62002d1e86868661ffff1662002b3e565b6020015190505f73ffffffffffffffffffffffffffffffffffffffff168173ffffffffffffffffffffffffffffffffffffffff160362002d9b578585856040517fb65ee95300000000000000000000000000000000000000000000000000000000815260040162002d929392919062005381565b60405180910390fd5b828173ffffffffffffffffffffffffffffffffffffffff1663781a89156040518163ffffffff1660e01b8152600401602060405180830381865afa15801562002de6573d5f803e3d5ffd5b505050506040513d601f19601f8201168201806040525081019062002e0c919062005985565b0362002e5157826040517fb70cd0db00000000000000000000000000000000000000000000000000000000815260040162002e489190620048e6565b60405180910390fd5b8073ffffffffffffffffffffffffffffffffffffffff16631b057f6d84846040518363ffffffff1660e01b815260040162002e8e929190620059b5565b5f604051808303815f87803b15801562002ea6575f80fd5b505af115801562002eb9573d5f803e3d5ffd5b50505050505050505050565b5f805f1b830362002f02576040517f7c64a79e00000000000000000000000000000000000000000000000000000000815260040160405180910390fd5b62002f0e8383620039d0565b905092915050565b5f33905090565b5f8062002f2962002c9e565b905062002f3784846200220e565b1562003012575f815f015f8681526020019081526020015f205f015f8573ffffffffffffffffffffffffffffffffffffffff1673ffffffffffffffffffffffffffffffffffffffff1681526020019081526020015f205f6101000a81548160ff02191690831515021790555062002fad62002f16565b73ffffffffffffffffffffffffffffffffffffffff168373ffffffffffffffffffffffffffffffffffffffff16857ff6391f5c32d9c69d2a47ea670b442974b53935d1edc7fd64eb21e047a839171b60405160405180910390a4600191505062003017565b5f9150505b92915050565b5f8561ffff168761ffff1611806200303a5750610fff8661ffff16115b806200304b57506127108561ffff16115b806200305c57506109c48361ffff16115b806200306f5750620fffff8262ffffff16115b15620030a7576040517f1c07203f00000000000000000000000000000000000000000000000000000000815260040160405180910390fd5b620030c68861ffff1661ffff5f8462003ad0909392919063ffffffff16565b9050620030e88761ffff16610fff60108462003ad0909392919063ffffffff16565b90506200310a8661ffff16610fff601c8462003ad0909392919063ffffffff16565b90506200312c8561ffff16613fff60288462003ad0909392919063ffffffff16565b9050620031508462ffffff1662ffffff60368462003ad0909392919063ffffffff16565b9050620031728361ffff16613fff604e8462003ad0909392919063ffffffff16565b9050620031968262ffffff16620fffff605c8462003ad0909392919063ffffffff16565b9050620031c1815f1c6dffffffffffffffffffffffffffff5f8c62003ad0909392919063ffffffff16565b905098975050505050505050565b5f620031f18484620031e2575f620031e5565b60015b60ff1660018562003ad0565b90509392505050565b5f6200320e845f01845f1b845f1b62003aea565b90509392505050565b5f815f1c9050919050565b5f819050919050565b5f6200323c835f01835f1b62003b23565b905092915050565b5f62003255835f01835f1b62003b43565b5f1c905092915050565b5f600183831c16905092915050565b5f62003295835f018373ffffffffffffffffffffffffffffffffffffffff165f1b62003bc5565b905092915050565b60605f620032ad835f0162003c30565b905060608190508092505050919050565b5f80620032cb8362003c46565b90505f620032d98562003c79565b9050620032f0818362003c8c90919063ffffffff16565b9250505092915050565b5f808273ffffffffffffffffffffffffffffffffffffffff168473ffffffffffffffffffffffffffffffffffffffff1611156200333c57828480945081955050505b8383915091509250929050565b5f6200335f5f8362003fb290919063ffffffff16565b9050919050565b5f6200337d60108362003fc290919063ffffffff16565b9050919050565b5f6200339b601c8362003fc290919063ffffffff16565b9050919050565b5f620033b960288362003fd290919063ffffffff16565b9050919050565b5f620033d760368362003fe290919063ffffffff16565b9050919050565b5f620033f5604e8362003fd290919063ffffffff16565b9050919050565b5f62003413605c8362003ff390919063ffffffff16565b9050919050565b5f83471015620034655747846040517fe4bbecac0000000000000000000000000000000000000000000000000000000081526004016200345c92919062005869565b60405180910390fd5b5f825103620034a0576040517f4ca249dc00000000000000000000000000000000000000000000000000000000815260040160405180910390fd5b8282516020840186f590505f73ffffffffffffffffffffffffffffffffffffffff168173ffffffffffffffffffffffffffffffffffffffff160362003511576040517f741752c200000000000000000000000000000000000000000000000000000000815260040160405180910390fd5b9392505050565b5f62003529835f01835f1b62003bc5565b905092915050565b5f6200353f825f0162004004565b9050919050565b5f62003555835f018362003930565b5f1c905092915050565b5f818291508161ffff1614620035a1576040517f64ae406d00000000000000000000000000000000000000000000000000000000815260040160405180910390fd5b919050565b5f620035b1620038b7565b9050805f015f6101000a81549073ffffffffffffffffffffffffffffffffffffffff0219169055620035e38262004013565b5050565b5f620035f5825f0162004004565b9050919050565b5f7f9016d09d72d40fdae2fd8ceac6b6234c7706214fd39c1cd1e609a0528c199300905090565b5f806200362f62002c9e565b9050805f015f8581526020019081526020015f205f015f8473ffffffffffffffffffffffffffffffffffffffff1673ffffffffffffffffffffffffffffffffffffffff1681526020019081526020015f205f9054906101000a900460ff1691505092915050565b5f7ff0c57e16840df040f15088dc2f81fe391c3923bec73e23a9662efc9c229c6a00905090565b620036c7620040e6565b620036d28162004129565b50565b5f73ffffffffffffffffffffffffffffffffffffffff168173ffffffffffffffffffffffffffffffffffffffff16036200373b576040517f95cf3ee400000000000000000000000000000000000000000000000000000000815260040160405180910390fd5b5f805f9054906101000a900473ffffffffffffffffffffffffffffffffffffffff1690508173ffffffffffffffffffffffffffffffffffffffff168173ffffffffffffffffffffffffffffffffffffffff1603620037f1575f8054906101000a900473ffffffffffffffffffffffffffffffffffffffff166040517f4fcea971000000000000000000000000000000000000000000000000000000008152600401620037e8919062004cf8565b60405180910390fd5b815f806101000a81548173ffffffffffffffffffffffffffffffffffffffff021916908373ffffffffffffffffffffffffffffffffffffffff1602179055507f15d80a013f22151bc7246e3bc132e12828cde19de98870475e3fa70840152721818360405162003863929190620059e7565b60405180910390a15050565b5f62003896835f018373ffffffffffffffffffffffffffffffffffffffff165f1b620041b4565b905092915050565b5f620038af835f01835f1b620042c0565b905092915050565b5f7f237e158222e3e6968b72b9db0d8043aacf074ad9f650f0d1606b4d82ee432c00905090565b5f620038ec825f01620042f6565b9050919050565b5f805f6200390d84865f016200430b90919063ffffffff16565b905080856002015f8381526020019081526020015f205492509250509250929050565b5f825f018281548110620039495762003948620052a3565b5b905f5260205f200154905092915050565b5f80836001015f8481526020019081526020015f20541415905092915050565b6200398682826200220e565b620039cc5780826040517fe2517d3f000000000000000000000000000000000000000000000000000000008152600401620039c392919062005a12565b60405180910390fd5b5050565b5f80620039dc62002c9e565b9050620039ea84846200220e565b62003ac5576001815f015f8681526020019081526020015f205f015f8573ffffffffffffffffffffffffffffffffffffffff1673ffffffffffffffffffffffffffffffffffffffff1681526020019081526020015f205f6101000a81548160ff02191690831515021790555062003a6062002f16565b73ffffffffffffffffffffffffffffffffffffffff168373ffffffffffffffffffffffffffffffffffffffff16857f2f8788117e7eff1d82e926ec794901d17c78024a50270940304540a733656f0d60405160405180910390a4600191505062003aca565b5f9150505b92915050565b5f82821b1985169050828416821b81179050949350505050565b5f81846002015f8581526020019081526020015f208190555062003b1a83855f016200432290919063ffffffff16565b90509392505050565b5f62003b3b82845f016200433990919063ffffffff16565b905092915050565b5f80836002015f8481526020019081526020015f205490505f801b8114801562003b76575062003b74848462003b23565b155b1562003bbb57826040517f02b5668600000000000000000000000000000000000000000000000000000000815260040162003bb29190620048e6565b60405180910390fd5b8091505092915050565b5f62003bd283836200395a565b62003c2657825f0182908060018154018082558091505060019003905f5260205f20015f9091909190915055825f0180549050836001015f8481526020019081526020015f20819055506001905062003c2a565b5f90505b92915050565b606062003c3f825f0162004350565b9050919050565b5f612710608060ff168361ffff16901b8162003c675762003c6662005a3d565b5b04608060ff166001901b019050919050565b5f628000008262ffffff16039050919050565b5f805f80840362003caa57608060ff166001901b9250505062003fac565b8390505f81121562003cc057805f039050811591505b6210000081101562003f2257608060ff166001901b9250846fffffffffffffffffffffffffffffffff86111562003cfc57805f19049050821592505b600182161562003d0f5780840260801c93505b80810260801c9050600282161562003d2a5780840260801c93505b80810260801c9050600482161562003d455780840260801c93505b80810260801c9050600882161562003d605780840260801c93505b80810260801c9050601082161562003d7b5780840260801c93505b80810260801c9050602082161562003d965780840260801c93505b80810260801c9050604082161562003db15780840260801c93505b80810260801c9050608082161562003dcc5780840260801c93505b80810260801c905061010082161562003de85780840260801c93505b80810260801c905061020082161562003e045780840260801c93505b80810260801c905061040082161562003e205780840260801c93505b80810260801c905061080082161562003e3c5780840260801c93505b80810260801c905061100082161562003e585780840260801c93505b80810260801c905061200082161562003e745780840260801c93505b80810260801c905061400082161562003e905780840260801c93505b80810260801c905061800082161562003eac5780840260801c93505b80810260801c90506201000082161562003ec95780840260801c93505b80810260801c90506202000082161562003ee65780840260801c93505b80810260801c90506204000082161562003f035780840260801c93505b80810260801c90506208000082161562003f205780840260801c93505b505b5f830362003f6b5784846040517f3b74b31a00000000000000000000000000000000000000000000000000000000815260040162003f6292919062005a84565b60405180910390fd5b8162003f78578262003fa7565b827fffffffffffffffffffffffffffffffffffffffffffffffffffffffffffffffff62003fa6919062005aaf565b5b925050505b92915050565b5f61ffff83831c16905092915050565b5f610fff83831c16905092915050565b5f613fff83831c16905092915050565b5f62ffffff83831c16905092915050565b5f620fffff83831c16905092915050565b5f815f01805490509050919050565b5f6200401e620035fc565b90505f815f015f9054906101000a900473ffffffffffffffffffffffffffffffffffffffff16905082825f015f6101000a81548173ffffffffffffffffffffffffffffffffffffffff021916908373ffffffffffffffffffffffffffffffffffffffff1602179055508273ffffffffffffffffffffffffffffffffffffffff168173ffffffffffffffffffffffffffffffffffffffff167f8be0079c531659141344cd1fd0a4f28419497f9722a3daafe3b4186f6b6457e060405160405180910390a3505050565b620040f062004371565b62004127576040517fd7e6bcf800000000000000000000000000000000000000000000000000000000815260040160405180910390fd5b565b62004133620040e6565b5f73ffffffffffffffffffffffffffffffffffffffff168173ffffffffffffffffffffffffffffffffffffffff1603620041a6575f6040517f1e4fbdf70000000000000000000000000000000000000000000000000000000081526004016200419d919062004cf8565b60405180910390fd5b620041b181620035a6565b50565b5f80836001015f8481526020019081526020015f205490505f8114620042b5575f600182620041e4919062005804565b90505f6001865f0180549050620041fc919062005804565b905080821462004269575f865f0182815481106200421f576200421e620052a3565b5b905f5260205f200154905080875f018481548110620042435762004242620052a3565b5b905f5260205f20018190555083876001015f8381526020019081526020015f2081905550505b855f018054806200427f576200427e62005ae6565b5b600190038181905f5260205f20015f90559055856001015f8681526020019081526020015f205f905560019350505050620042ba565b5f9150505b92915050565b5f826002015f8381526020019081526020015f205f9055620042ee82845f016200439190919063ffffffff16565b905092915050565b5f62004304825f0162004004565b9050919050565b5f6200431a835f018362003930565b905092915050565b5f62004331835f018362003bc5565b905092915050565b5f62004348835f01836200395a565b905092915050565b60605f62004360835f01620043a8565b905060608190508092505050919050565b5f6200437c62003696565b5f0160089054906101000a900460ff16905090565b5f620043a0835f0183620041b4565b905092915050565b6060815f01805480602002602001604051908101604052809291908181526020018280548015620043f757602002820191905f5260205f20905b815481526020019060010190808311620043e2575b50505050509050919050565b6119ba8062005b1483390190565b60405180608001604052805f61ffff1681526020015f73ffffffffffffffffffffffffffffffffffffffff1681526020015f151581526020015f151581525090565b5f80fd5b5f80fd5b5f7fffffffff0000000000000000000000000000000000000000000000000000000082169050919050565b62004491816200445b565b81146200449c575f80fd5b50565b5f81359050620044af8162004486565b92915050565b5f60208284031215620044cd57620044cc62004453565b5b5f620044dc848285016200449f565b91505092915050565b5f8115159050919050565b620044fb81620044e5565b82525050565b5f602082019050620045165f830184620044f0565b92915050565b5f81519050919050565b5f82825260208201905092915050565b5f819050602082019050919050565b5f819050919050565b620045598162004545565b82525050565b5f6200456c83836200454e565b60208301905092915050565b5f602082019050919050565b5f62004590826200451c565b6200459c818562004526565b9350620045a98362004536565b805f5b83811015620045df578151620045c388826200455f565b9750620045d08362004578565b925050600181019050620045ac565b5085935050505092915050565b5f6020820190508181035f83015262004606818462004584565b905092915050565b620046198162004545565b811462004624575f80fd5b50565b5f8135905062004637816200460e565b92915050565b5f6020828403121562004655576200465462004453565b5b5f620046648482850162004627565b91505092915050565b5f73ffffffffffffffffffffffffffffffffffffffff82169050919050565b5f819050919050565b5f620046b5620046af620046a9846200466d565b6200468c565b6200466d565b9050919050565b5f620046c88262004695565b9050919050565b5f620046db82620046bc565b9050919050565b620046ed81620046cf565b82525050565b5f602082019050620047085f830184620046e2565b92915050565b5f6200471a826200466d565b9050919050565b5f6200472d826200470e565b9050919050565b6200473f8162004721565b81146200474a575f80fd5b50565b5f813590506200475d8162004734565b92915050565b5f61ffff82169050919050565b6200477b8162004763565b811462004786575f80fd5b50565b5f81359050620047998162004770565b92915050565b5f62ffffff82169050919050565b620047b8816200479f565b8114620047c3575f80fd5b50565b5f81359050620047d681620047ad565b92915050565b5f805f805f805f805f806101408b8d031215620047fe57620047fd62004453565b5b5f6200480d8d828e016200474d565b9a50506020620048208d828e016200474d565b9950506040620048338d828e0162004789565b9850506060620048468d828e0162004789565b9750506080620048598d828e0162004789565b96505060a06200486c8d828e0162004789565b95505060c06200487f8d828e0162004789565b94505060e0620048928d828e01620047c6565b935050610100620048a68d828e0162004789565b925050610120620048ba8d828e01620047c6565b9150509295989b9194979a5092959850565b5f819050919050565b620048e081620048cc565b82525050565b5f602082019050620048fb5f830184620048d5565b92915050565b6200490c81620048cc565b811462004917575f80fd5b50565b5f813590506200492a8162004901565b92915050565b5f6020828403121562004948576200494762004453565b5b5f62004957848285016200491a565b91505092915050565b5f6020828403121562004978576200497762004453565b5b5f62004987848285016200474d565b91505092915050565b5f805f60608486031215620049aa57620049a962004453565b5b5f620049b9868287016200474d565b9350506020620049cc868287016200474d565b9250506040620049df8682870162004789565b9150509250925092565b620049f4816200470e565b8114620049ff575f80fd5b50565b5f8135905062004a1281620049e9565b92915050565b5f806040838503121562004a315762004a3062004453565b5b5f62004a40858286016200491a565b925050602062004a538582860162004a02565b9150509250929050565b62004a6881620044e5565b811462004a73575f80fd5b50565b5f8135905062004a868162004a5d565b92915050565b5f805f805f805f805f6101208a8c03121562004aad5762004aac62004453565b5b5f62004abc8c828d0162004789565b995050602062004acf8c828d0162004789565b985050604062004ae28c828d0162004789565b975050606062004af58c828d0162004789565b965050608062004b088c828d0162004789565b95505060a062004b1b8c828d01620047c6565b94505060c062004b2e8c828d0162004789565b93505060e062004b418c828d01620047c6565b92505061010062004b558c828d0162004a76565b9150509295985092959850929598565b5f80fd5b5f80fd5b5f80fd5b5f8083601f84011262004b895762004b8862004b65565b5b8235905067ffffffffffffffff81111562004ba95762004ba862004b69565b5b60208301915083600182028301111562004bc85762004bc762004b6d565b5b9250929050565b5f805f805f8060a0878903121562004bec5762004beb62004453565b5b5f62004bfb89828a016200474d565b965050602062004c0e89828a016200474d565b955050604062004c2189828a0162004789565b945050606062004c3489828a016200491a565b935050608087013567ffffffffffffffff81111562004c585762004c5762004457565b5b62004c6689828a0162004b71565b92509250509295509295509295565b5f62004c81826200470e565b9050919050565b62004c938162004c75565b811462004c9e575f80fd5b50565b5f8135905062004cb18162004c88565b92915050565b5f6020828403121562004ccf5762004cce62004453565b5b5f62004cde8482850162004ca1565b91505092915050565b62004cf2816200470e565b82525050565b5f60208201905062004d0d5f83018462004ce7565b92915050565b5f806040838503121562004d2c5762004d2b62004453565b5b5f62004d3b8582860162004789565b925050602062004d4e8582860162004a76565b9150509250929050565b62004d638162004545565b82525050565b5f60208201905062004d7e5f83018462004d58565b92915050565b5f805f806080858703121562004d9f5762004d9e62004453565b5b5f62004dae878288016200474d565b945050602062004dc1878288016200474d565b935050604062004dd487828801620047c6565b925050606062004de78782880162004789565b91505092959194509250565b5f62004dff82620046bc565b9050919050565b62004e118162004df3565b82525050565b5f60208201905062004e2c5f83018462004e06565b92915050565b5f806040838503121562004e4b5762004e4a62004453565b5b5f62004e5a858286016200474d565b925050602062004e6d858286016200474d565b9150509250929050565b5f81519050919050565b5f82825260208201905092915050565b5f819050602082019050919050565b62004eab8162004763565b82525050565b62004ebc8162004df3565b82525050565b62004ecd81620044e5565b82525050565b608082015f82015162004ee95f85018262004ea0565b50602082015162004efe602085018262004eb1565b50604082015162004f13604085018262004ec2565b50606082015162004f28606085018262004ec2565b50505050565b5f62004f3b838362004ed3565b60808301905092915050565b5f602082019050919050565b5f62004f5f8262004e77565b62004f6b818562004e81565b935062004f788362004e91565b805f5b8381101562004fae57815162004f92888262004f2e565b975062004f9f8362004f47565b92505060018101905062004f7b565b5085935050505092915050565b5f6020820190508181035f83015262004fd5818462004f53565b905092915050565b5f805f806080858703121562004ff85762004ff762004453565b5b5f62005007878288016200474d565b94505060206200501a878288016200474d565b93505060406200502d8782880162004789565b9250506060620050408782880162004a76565b91505092959194509250565b5f805f6060848603121562005066576200506562004453565b5b5f62005075868287016200474d565b935050602062005088868287016200474d565b92505060406200509b8682870162004627565b9150509250925092565b608082015f820151620050bb5f85018262004ea0565b506020820151620050d0602085018262004eb1565b506040820151620050e5604085018262004ec2565b506060820151620050fa606085018262004ec2565b50505050565b5f608082019050620051155f830184620050a5565b92915050565b5f61010082019050620051315f83018b62004d58565b62005140602083018a62004d58565b6200514f604083018962004d58565b6200515e606083018862004d58565b6200516d608083018762004d58565b6200517c60a083018662004d58565b6200518b60c083018562004d58565b6200519a60e0830184620044f0565b9998505050505050505050565b5f805f8060808587031215620051c257620051c162004453565b5b5f620051d18782880162004a02565b9450506020620051e48782880162004a02565b9350506040620051f78782880162004627565b92505060606200520a8782880162004a02565b91505092959194509250565b5f602082840312156200522e576200522d62004453565b5b5f6200523d8482850162004789565b91505092915050565b5f602082840312156200525e576200525d62004453565b5b5f6200526d8482850162004a02565b91505092915050565b7f4e487b71000000000000000000000000000000000000000000000000000000005f52604160045260245ffd5b7f4e487b71000000000000000000000000000000000000000000000000000000005f52603260045260245ffd5b7f4e487b71000000000000000000000000000000000000000000000000000000005f52601160045260245ffd5b5f620053098262004545565b91507fffffffffffffffffffffffffffffffffffffffffffffffffffffffffffffffff82036200533e576200533d620052d0565b5b600182019050919050565b5f62005369620053636200535d8462004763565b6200468c565b62004545565b9050919050565b6200537b8162005349565b82525050565b5f606082019050620053965f830186620046e2565b620053a56020830185620046e2565b620053b4604083018462005370565b949350505050565b620053c78162004763565b82525050565b620053d8816200479f565b82525050565b5f60e082019050620053f35f83018a620053bc565b620054026020830189620053bc565b620054116040830188620053bc565b620054206060830187620053bc565b6200542f6080830186620053cd565b6200543e60a0830185620053bc565b6200544d60c0830184620053cd565b98975050505050505050565b5f6020820190506200546e5f83018462005370565b92915050565b5f620054946200548e62005488846200479f565b6200468c565b62004545565b9050919050565b620054a68162005474565b82525050565b5f60e082019050620054c15f83018a62005370565b620054d0602083018962005370565b620054df604083018862005370565b620054ee606083018762005370565b620054fd60808301866200549b565b6200550c60a083018562005370565b6200551b60c08301846200549b565b98975050505050505050565b5f6040820190506200553c5f83018562004ce7565b6200554b602083018462005370565b9392505050565b5f61010082019050620055685f83018b620053bc565b62005577602083018a620053bc565b620055866040830189620053bc565b620055956060830188620053bc565b620055a46080830187620053cd565b620055b360a0830186620053bc565b620055c260c0830185620053cd565b620055d160e0830184620053cd565b9998505050505050505050565b5f8160601b9050919050565b5f620055f682620055de565b9050919050565b5f6200560982620055ea565b9050919050565b620056256200561f82620046cf565b620055fd565b82525050565b5f8160f01b9050919050565b5f62005643826200562b565b9050919050565b6200565f620056598262004763565b62005637565b82525050565b5f62005672828662005610565b60148201915062005684828562005610565b6014820191506200569682846200564a565b600282019150819050949350505050565b5f81519050919050565b5f82825260208201905092915050565b5f5b83811015620056e0578082015181840152602081019050620056c3565b5f8484015250505050565b5f601f19601f8301169050919050565b5f6200570782620056a7565b620057138185620056b1565b935062005725818560208601620056c1565b6200573081620056eb565b840191505092915050565b5f60a082019050620057505f83018862004ce7565b6200575f6020830187620046e2565b6200576e6040830186620046e2565b6200577d6060830185620053bc565b8181036080830152620057918184620056fb565b90509695505050505050565b5f81905092915050565b5f620057b382620056a7565b620057bf81856200579d565b9350620057d1818560208601620056c1565b80840191505092915050565b5f620057ea8285620057a7565b9150620057f88284620057a7565b91508190509392505050565b5f620058108262004545565b91506200581d8362004545565b9250828203905081811115620058385762005837620052d0565b5b92915050565b5f604082019050620058535f83018562004e06565b62005862602083018462004d58565b9392505050565b5f6040820190506200587e5f83018562004d58565b6200588d602083018462004d58565b9392505050565b5f819050919050565b5f620058bd620058b7620058b18462005894565b6200468c565b62004545565b9050919050565b620058cf816200589d565b82525050565b5f604082019050620058ea5f830185620058c4565b620058f9602083018462004d58565b9392505050565b5f819050919050565b5f67ffffffffffffffff82169050919050565b5f6200593c62005936620059308462005900565b6200468c565b62005909565b9050919050565b6200594e816200591c565b82525050565b5f602082019050620059695f83018462005943565b92915050565b5f815190506200597f8162004901565b92915050565b5f602082840312156200599d576200599c62004453565b5b5f620059ac848285016200596f565b91505092915050565b5f604082019050620059ca5f830185620048d5565b8181036020830152620059de8184620056fb565b90509392505050565b5f604082019050620059fc5f83018562004ce7565b62005a0b602083018462004ce7565b9392505050565b5f60408201905062005a275f83018562004ce7565b62005a366020830184620048d5565b9392505050565b7f4e487b71000000000000000000000000000000000000000000000000000000005f52601260045260245ffd5b5f819050919050565b62005a7e8162005a6a565b82525050565b5f60408201905062005a995f83018562004d58565b62005aa8602083018462005a73565b9392505050565b5f62005abb8262004545565b915062005ac88362004545565b92508262005adb5762005ada62005a3d565b5b828204905092915050565b7f4e487b71000000000000000000000000000000000000000000000000000000005f52603160045260245ffdfe60a0604052604051620019ba380380620019ba833981810160405281019062000029919062000dab565b8460405180602001604052805f8152506200004b82826200059d60201b60201c565b8173ffffffffffffffffffffffffffffffffffffffff1660808173ffffffffffffffffffffffffffffffffffffffff168152505050505f808573ffffffffffffffffffffffffffffffffffffffff166040516024016040516020818303038152906040527f95d89b41000000000000000000000000000000000000000000000000000000007bffffffffffffffffffffffffffffffffffffffffffffffffffffffff19166020820180517bffffffffffffffffffffffffffffffffffffffffffffffffffffffff83818316178352505050506040516200012c919062000e98565b5f60405180830381855afa9150503d805f811462000166576040519150601f19603f3d011682016040523d82523d5f602084013e6200016b565b606091505b50915091505f8180602001905181019062000187919062000f61565b90505f808773ffffffffffffffffffffffffffffffffffffffff166040516024016040516020818303038152906040527f95d89b41000000000000000000000000000000000000000000000000000000007bffffffffffffffffffffffffffffffffffffffffffffffffffffffff19166020820180517bffffffffffffffffffffffffffffffffffffffffffffffffffffffff838183161783525050505060405162000234919062000e98565b5f60405180830381855afa9150503d805f81146200026e576040519150601f19603f3d011682016040523d82523d5f602084013e62000273565b606091505b50915091505f818060200190518101906200028f919062000f61565b90508580156200029c5750825b620002de576040517f08c379a0000000000000000000000000000000000000000000000000000000008152600401620002d59062001034565b60405180910390fd5b60405180602001604052805f8152508051906020012084805190602001201415801562000327575060405180602001604052805f81525080519060200120818051906020012014155b62000369576040517f08c379a00000000000000000000000000000000000000000000000000000000081526004016200036090620010c8565b60405180910390fd5b896200039d7f3441ab29b24daf7a3fd59500b0e08396ec08ec96f5cc2d0362924cdd45cfec315f1b6200069860201b60201c565b5f015f6101000a81548173ffffffffffffffffffffffffffffffffffffffff021916908373ffffffffffffffffffffffffffffffffffffffff16021790555088620004107f7e1935766b7c49e7482a018a5ee52ca183a2ddfcb6810787916934079aa582645f1b6200069860201b60201c565b5f015f6101000a81548173ffffffffffffffffffffffffffffffffffffffff021916908373ffffffffffffffffffffffffffffffffffffffff1602179055508761ffff16620004877fff057b3b4d4500dda208cde5d654db7aa2ec63ac10ab9f9956a1f569738427825f1b620006a160201b60201c565b5f01819055505f620004a38961ffff16620006aa60201b60201c565b9050848282604051602001620004bc939291906200117e565b604051602081830303815290604052620004fe7f64fb4ecf63a4059a0bb1412609335673d4954bff8e9740d216d9469d190cbb3f5f1b6200083060201b60201c565b5f0190816200050e919062001414565b5084828260405160200162000526939291906200151e565b604051602081830303815290604052620005687fd668863f064048ee8c87390227ca6556d110ecf41306c7b64aab5c1c530b2d845f1b6200083060201b60201c565b5f01908162000578919062001414565b506200058b8c896200059d60201b60201c565b5050505050505050505050506200177e565b620005ae826200083960201b60201c565b8173ffffffffffffffffffffffffffffffffffffffff167f1cf3b03a6cf19fa2baba4df148e9dcabedea7f8a5c07840e207e5c089be95d3e60405160405180910390a25f8151111562000683576200067c8273ffffffffffffffffffffffffffffffffffffffff16635c60da1b6040518163ffffffff1660e01b8152600401602060405180830381865afa15801562000649573d5f803e3d5ffd5b505050506040513d601f19601f820116820180604052508101906200066f919062001587565b82620009df60201b60201c565b5062000694565b6200069362000a6b60201b60201c565b5b5050565b5f819050919050565b5f819050919050565b60605f8261ffff1603620006f6576040518060400160405280600181526020017f300000000000000000000000000000000000000000000000000000000000000081525090506200082b565b5f8290505f5b5f8261ffff16146200072f5780806200071590620015e4565b915050600a826200072791906200163f565b9150620006fc565b5f8161ffff1667ffffffffffffffff81111562000751576200075062000c4f565b5b6040519080825280601f01601f191660200182016040528015620007845781602001600182028036833780820191505090505b5090505b5f8561ffff16146200082457600182620007a3919062001676565b9150600a85620007b49190620016b2565b6030620007c29190620016e9565b60f81b818361ffff1681518110620007df57620007de62001725565b5b60200101907effffffffffffffffffffffffffffffffffffffffffffffffffffffffffffff191690815f1a905350600a856200081c91906200163f565b945062000788565b8093505050505b919050565b5f819050919050565b5f8173ffffffffffffffffffffffffffffffffffffffff163b036200089757806040517f64ced0ec0000000000000000000000000000000000000000000000000000000081526004016200088e919062001763565b60405180910390fd5b80620008cb7fa3f0ad74e5423aebfd80d3ef4346578335a9a72aeaee59ff6cb3582b35133d505f1b6200069860201b60201c565b5f015f6101000a81548173ffffffffffffffffffffffffffffffffffffffff021916908373ffffffffffffffffffffffffffffffffffffffff1602179055505f8173ffffffffffffffffffffffffffffffffffffffff16635c60da1b6040518163ffffffff1660e01b8152600401602060405180830381865afa15801562000955573d5f803e3d5ffd5b505050506040513d601f19601f820116820180604052508101906200097b919062001587565b90505f8173ffffffffffffffffffffffffffffffffffffffff163b03620009db57806040517f4c9c8ce3000000000000000000000000000000000000000000000000000000008152600401620009d2919062001763565b60405180910390fd5b5050565b60605f808473ffffffffffffffffffffffffffffffffffffffff168460405162000a0a919062000e98565b5f60405180830381855af49150503d805f811462000a44576040519150601f19603f3d011682016040523d82523d5f602084013e62000a49565b606091505b509150915062000a6185838362000aa860201b60201c565b9250505092915050565b5f34111562000aa6576040517fb398979f00000000000000000000000000000000000000000000000000000000815260040160405180910390fd5b565b60608262000ac75762000ac18262000b4460201b60201c565b62000b3c565b5f825114801562000aee57505f8473ffffffffffffffffffffffffffffffffffffffff163b145b1562000b3357836040517f9996b31500000000000000000000000000000000000000000000000000000000815260040162000b2a919062001763565b60405180910390fd5b81905062000b3d565b5b9392505050565b5f8151111562000b575780518082602001fd5b6040517f1425ea4200000000000000000000000000000000000000000000000000000000815260040160405180910390fd5b5f604051905090565b5f80fd5b5f80fd5b5f73ffffffffffffffffffffffffffffffffffffffff82169050919050565b5f62000bc58262000b9a565b9050919050565b62000bd78162000bb9565b811462000be2575f80fd5b50565b5f8151905062000bf58162000bcc565b92915050565b5f61ffff82169050919050565b62000c138162000bfb565b811462000c1e575f80fd5b50565b5f8151905062000c318162000c08565b92915050565b5f80fd5b5f80fd5b5f601f19601f8301169050919050565b7f4e487b71000000000000000000000000000000000000000000000000000000005f52604160045260245ffd5b62000c878262000c3f565b810181811067ffffffffffffffff8211171562000ca95762000ca862000c4f565b5b80604052505050565b5f62000cbd62000b89565b905062000ccb828262000c7c565b919050565b5f67ffffffffffffffff82111562000ced5762000cec62000c4f565b5b62000cf88262000c3f565b9050602081019050919050565b5f5b8381101562000d2457808201518184015260208101905062000d07565b5f8484015250505050565b5f62000d4562000d3f8462000cd0565b62000cb2565b90508281526020810184848401111562000d645762000d6362000c3b565b5b62000d7184828562000d05565b509392505050565b5f82601f83011262000d905762000d8f62000c37565b5b815162000da284826020860162000d2f565b91505092915050565b5f805f805f60a0868803121562000dc75762000dc662000b92565b5b5f62000dd68882890162000be5565b955050602062000de98882890162000be5565b945050604062000dfc8882890162000be5565b935050606062000e0f8882890162000c21565b925050608086015167ffffffffffffffff81111562000e335762000e3262000b96565b5b62000e418882890162000d79565b9150509295509295909350565b5f81519050919050565b5f81905092915050565b5f62000e6e8262000e4e565b62000e7a818562000e58565b935062000e8c81856020860162000d05565b80840191505092915050565b5f62000ea5828462000e62565b915081905092915050565b5f67ffffffffffffffff82111562000ecd5762000ecc62000c4f565b5b62000ed88262000c3f565b9050602081019050919050565b5f62000efb62000ef58462000eb0565b62000cb2565b90508281526020810184848401111562000f1a5762000f1962000c3b565b5b62000f2784828562000d05565b509392505050565b5f82601f83011262000f465762000f4562000c37565b5b815162000f5884826020860162000ee5565b91505092915050565b5f6020828403121562000f795762000f7862000b92565b5b5f82015167ffffffffffffffff81111562000f995762000f9862000b96565b5b62000fa78482850162000f2f565b91505092915050565b5f82825260208201905092915050565b7f4c4250616972426561636f6e50726f78793a204661696c656420746f206765745f8201527f20746f6b656e2073796d626f6c73000000000000000000000000000000000000602082015250565b5f6200101c602e8362000fb0565b9150620010298262000fc0565b604082019050919050565b5f6020820190508181035f8301526200104d816200100e565b9050919050565b7f4c4250616972426561636f6e50726f78793a20496e76616c696420746f6b656e5f8201527f2073796d626f6c73000000000000000000000000000000000000000000000000602082015250565b5f620010b060288362000fb0565b9150620010bd8262001054565b604082019050919050565b5f6020820190508181035f830152620010e181620010a2565b9050919050565b7f4c42545f00000000000000000000000000000000000000000000000000000000815250565b5f81519050919050565b5f81905092915050565b5f6200112e826200110e565b6200113a818562001118565b93506200114c81856020860162000d05565b80840191505092915050565b7f2f00000000000000000000000000000000000000000000000000000000000000815250565b5f6200118a82620010e8565b6004820191506200119c828662001122565b9150620011a98262001158565b600182019150620011bb828562001122565b9150620011c88262001158565b600182019150620011da828462001122565b9150819050949350505050565b7f4e487b71000000000000000000000000000000000000000000000000000000005f52602260045260245ffd5b5f60028204905060018216806200122c57607f821691505b602082108103620012425762001241620011e7565b5b50919050565b5f819050815f5260205f209050919050565b5f6020601f8301049050919050565b5f82821b905092915050565b5f60088302620012a67fffffffffffffffffffffffffffffffffffffffffffffffffffffffffffffffff8262001269565b620012b2868362001269565b95508019841693508086168417925050509392505050565b5f819050919050565b5f819050919050565b5f620012fc620012f6620012f084620012ca565b620012d3565b620012ca565b9050919050565b5f819050919050565b6200131783620012dc565b6200132f620013268262001303565b84845462001275565b825550505050565b5f90565b6200134562001337565b620013528184846200130c565b505050565b5b8181101562001379576200136d5f826200133b565b60018101905062001358565b5050565b601f821115620013c857620013928162001248565b6200139d846200125a565b81016020851015620013ad578190505b620013c5620013bc856200125a565b83018262001357565b50505b505050565b5f82821c905092915050565b5f620013ea5f1984600802620013cd565b1980831691505092915050565b5f620014048383620013d9565b9150826002028217905092915050565b6200141f826200110e565b67ffffffffffffffff8111156200143b576200143a62000c4f565b5b62001447825462001214565b620014548282856200137d565b5f60209050601f8311600181146200148a575f841562001475578287015190505b620014818582620013f7565b865550620014f0565b601f1984166200149a8662001248565b5f5b82811015620014c3578489015182556001820191506020850194506020810190506200149c565b86831015620014e35784890151620014df601f891682620013d9565b8355505b6001600288020188555050505b505050505050565b7f4c697175696469747920426f6f6b20546f6b656e200000000000000000000000815250565b5f6200152a82620014f8565b6015820191506200153c828662001122565b9150620015498262001158565b6001820191506200155b828562001122565b9150620015688262001158565b6001820191506200157a828462001122565b9150819050949350505050565b5f602082840312156200159f576200159e62000b92565b5b5f620015ae8482850162000be5565b91505092915050565b7f4e487b71000000000000000000000000000000000000000000000000000000005f52601160045260245ffd5b5f620015f08262000bfb565b915061ffff8203620016075762001606620015b7565b5b600182019050919050565b7f4e487b71000000000000000000000000000000000000000000000000000000005f52601260045260245ffd5b5f6200164b8262000bfb565b9150620016588362000bfb565b9250826200166b576200166a62001612565b5b828204905092915050565b5f620016828262000bfb565b91506200168f8362000bfb565b9250828203905061ffff811115620016ac57620016ab620015b7565b5b92915050565b5f620016be8262000bfb565b9150620016cb8362000bfb565b925082620016de57620016dd62001612565b5b828206905092915050565b5f620016f58262000bfb565b9150620017028362000bfb565b9250828201905061ffff8111156200171f576200171e620015b7565b5b92915050565b7f4e487b71000000000000000000000000000000000000000000000000000000005f52603260045260245ffd5b6200175d8162000bb9565b82525050565b5f602082019050620017785f83018462001752565b92915050565b608051610223620017975f395f61011801526102235ff3fe608060405260043610610021575f3560e01c8063a0a0ea391461003257610028565b3661002857005b61003061005c565b005b34801561003d575f80fd5b5061004661006e565b604051610053919061017b565b60405180910390f35b61006c61006761007c565b6100f6565b565b5f610077610115565b905090565b5f610085610115565b73ffffffffffffffffffffffffffffffffffffffff16635c60da1b6040518163ffffffff1660e01b8152600401602060405180830381865afa1580156100cd573d5f803e3d5ffd5b505050506040513d601f19601f820116820180604052508101906100f191906101c2565b905090565b365f80375f80365f845af43d5f803e805f8114610111573d5ff35b3d5ffd5b5f7f0000000000000000000000000000000000000000000000000000000000000000905090565b5f73ffffffffffffffffffffffffffffffffffffffff82169050919050565b5f6101658261013c565b9050919050565b6101758161015b565b82525050565b5f60208201905061018e5f83018461016c565b92915050565b5f80fd5b6101a18161015b565b81146101ab575f80fd5b50565b5f815190506101bc81610198565b92915050565b5f602082840312156101d7576101d6610194565b5b5f6101e4848285016101ae565b9150509291505056fea2646970667358221220130facd179ff68afe8c4f5f51e9f66c8a009af1f057180af91b116a45a1361c664736f6c63430008140033a2646970667358221220408f674abc88915a00048d86f4f02c24344fb5b67b185d05ce64c6c9aedc7e7c64736f6c63430008140033",
			"opcodes": "PUSH1 0x80 PUSH1 0x40 MSTORE CALLVALUE DUP1 ISZERO PUSH3 0x10 JUMPI PUSH0 DUP1 REVERT JUMPDEST POP PUSH3 0x21 PUSH3 0x27 PUSH1 0x20 SHL PUSH1 0x20 SHR JUMP JUMPDEST PUSH3 0x191 JUMP JUMPDEST PUSH0 PUSH3 0x38 PUSH3 0x12B PUSH1 0x20 SHL PUSH1 0x20 SHR JUMP JUMPDEST SWAP1 POP DUP1 PUSH0 ADD PUSH1 0x8 SWAP1 SLOAD SWAP1 PUSH2 0x100 EXP SWAP1 DIV PUSH1 0xFF AND ISZERO PUSH3 0x83 JUMPI PUSH1 0x40 MLOAD PUSH32 0xF92EE8A900000000000000000000000000000000000000000000000000000000 DUP2 MSTORE PUSH1 0x4 ADD PUSH1 0x40 MLOAD DUP1 SWAP2 SUB SWAP1 REVERT JUMPDEST PUSH8 0xFFFFFFFFFFFFFFFF DUP1 AND DUP2 PUSH0 ADD PUSH0 SWAP1 SLOAD SWAP1 PUSH2 0x100 EXP SWAP1 DIV PUSH8 0xFFFFFFFFFFFFFFFF AND PUSH8 0xFFFFFFFFFFFFFFFF AND EQ PUSH3 0x128 JUMPI PUSH8 0xFFFFFFFFFFFFFFFF DUP2 PUSH0 ADD PUSH0 PUSH2 0x100 EXP DUP2 SLOAD DUP2 PUSH8 0xFFFFFFFFFFFFFFFF MUL NOT AND SWAP1 DUP4 PUSH8 0xFFFFFFFFFFFFFFFF AND MUL OR SWAP1 SSTORE POP PUSH32 0xC7F505B2F371AE2175EE4913F4499E1F2633A7B5936321EED1CDAEB6115181D2 PUSH8 0xFFFFFFFFFFFFFFFF PUSH1 0x40 MLOAD PUSH3 0x11F SWAP2 SWAP1 PUSH3 0x176 JUMP JUMPDEST PUSH1 0x40 MLOAD DUP1 SWAP2 SUB SWAP1 LOG1 JUMPDEST POP JUMP JUMPDEST PUSH0 PUSH32 0xF0C57E16840DF040F15088DC2F81FE391C3923BEC73E23A9662EFC9C229C6A00 SWAP1 POP SWAP1 JUMP JUMPDEST PUSH0 PUSH8 0xFFFFFFFFFFFFFFFF DUP3 AND SWAP1 POP SWAP2 SWAP1 POP JUMP JUMPDEST PUSH3 0x170 DUP2 PUSH3 0x152 JUMP JUMPDEST DUP3 MSTORE POP POP JUMP JUMPDEST PUSH0 PUSH1 0x20 DUP3 ADD SWAP1 POP PUSH3 0x18B PUSH0 DUP4 ADD DUP5 PUSH3 0x165 JUMP JUMPDEST SWAP3 SWAP2 POP POP JUMP JUMPDEST PUSH2 0x7503 DUP1 PUSH3 0x19F PUSH0 CODECOPY PUSH0 RETURN INVALID PUSH1 0x80 PUSH1 0x40 MSTORE CALLVALUE DUP1 ISZERO PUSH3 0x10 JUMPI PUSH0 DUP1 REVERT JUMPDEST POP PUSH1 0x4 CALLDATASIZE LT PUSH3 0x2AE JUMPI PUSH0 CALLDATALOAD PUSH1 0xE0 SHR DUP1 PUSH4 0x701AB8C1 GT PUSH3 0x16F JUMPI DUP1 PUSH4 0xAABC4B3C GT PUSH3 0xD3 JUMPI DUP1 PUSH4 0xE203A31F GT PUSH3 0x91 JUMPI DUP1 PUSH4 0xE203A31F EQ PUSH3 0x847 JUMPI DUP1 PUSH4 0xE30C3978 EQ PUSH3 0x867 JUMPI DUP1 PUSH4 0xE74B981B EQ PUSH3 0x889 JUMPI DUP1 PUSH4 0xE92D0D5D EQ PUSH3 0x8A9 JUMPI DUP1 PUSH4 0xF2FDE38B EQ PUSH3 0x8C9 JUMPI DUP1 PUSH4 0xFD90C2BE EQ PUSH3 0x8E9 JUMPI PUSH3 0x2AE JUMP JUMPDEST DUP1 PUSH4 0xAABC4B3C EQ PUSH3 0x788 JUMPI DUP1 PUSH4 0xBE203094 EQ PUSH3 0x7C5 JUMPI DUP1 PUSH4 0xC1B931BE EQ PUSH3 0x7E5 JUMPI DUP1 PUSH4 0xD547741F EQ PUSH3 0x807 JUMPI DUP1 PUSH4 0xDDBFD941 EQ PUSH3 0x827 JUMPI PUSH3 0x2AE JUMP JUMPDEST DUP1 PUSH4 0x80C5061E GT PUSH3 0x12D JUMPI DUP1 PUSH4 0x80C5061E EQ PUSH3 0x6A8 JUMPI DUP1 PUSH4 0x8CE9AA1C EQ PUSH3 0x6CA JUMPI DUP1 PUSH4 0x8DA5CB5B EQ PUSH3 0x6EC JUMPI DUP1 PUSH4 0x91D14854 EQ PUSH3 0x70E JUMPI DUP1 PUSH4 0xA0A0EA39 EQ PUSH3 0x744 JUMPI DUP1 PUSH4 0xA217FDDF EQ PUSH3 0x766 JUMPI PUSH3 0x2AE JUMP JUMPDEST DUP1 PUSH4 0x701AB8C1 EQ PUSH3 0x602 JUMPI DUP1 PUSH4 0x704037BD EQ PUSH3 0x624 JUMPI DUP1 PUSH4 0x715018A6 EQ PUSH3 0x65A JUMPI DUP1 PUSH4 0x79BA5097 EQ PUSH3 0x666 JUMPI DUP1 PUSH4 0x7DAF5D66 EQ PUSH3 0x672 JUMPI PUSH3 0x2AE JUMP JUMPDEST DUP1 PUSH4 0x3A2F1A91 GT PUSH3 0x217 JUMPI DUP1 PUSH4 0x5A440923 GT PUSH3 0x1D5 JUMPI DUP1 PUSH4 0x5A440923 EQ PUSH3 0x512 JUMPI DUP1 PUSH4 0x5B35875C EQ PUSH3 0x532 JUMPI DUP1 PUSH4 0x659AC74B EQ PUSH3 0x554 JUMPI DUP1 PUSH4 0x661D7FFB EQ PUSH3 0x58A JUMPI DUP1 PUSH4 0x6622E0D7 EQ PUSH3 0x5AC JUMPI DUP1 PUSH4 0x69D56EA3 EQ PUSH3 0x5E2 JUMPI PUSH3 0x2AE JUMP JUMPDEST DUP1 PUSH4 0x3A2F1A91 EQ PUSH3 0x46E JUMPI DUP1 PUSH4 0x3C78A941 EQ PUSH3 0x48E JUMPI DUP1 PUSH4 0x4CCB20C0 EQ PUSH3 0x4AE JUMPI DUP1 PUSH4 0x4CD161D3 EQ PUSH3 0x4D0 JUMPI DUP1 PUSH4 0x4E937C3A EQ PUSH3 0x4F0 JUMPI PUSH3 0x2AE JUMP JUMPDEST DUP1 PUSH4 0x248A9CA3 GT PUSH3 0x271 JUMPI DUP1 PUSH4 0x248A9CA3 EQ PUSH3 0x382 JUMPI DUP1 PUSH4 0x27721842 EQ PUSH3 0x3B8 JUMPI DUP1 PUSH4 0x2CC06B8C EQ PUSH3 0x3EE JUMPI DUP1 PUSH4 0x2F2FF15D EQ PUSH3 0x40E JUMPI DUP1 PUSH4 0x36568ABE EQ PUSH3 0x42E JUMPI DUP1 PUSH4 0x379EE803 EQ PUSH3 0x44E JUMPI PUSH3 0x2AE JUMP JUMPDEST DUP1 PUSH4 0x1FFC9A7 EQ PUSH3 0x2B2 JUMPI DUP1 PUSH4 0x282C9C1 EQ PUSH3 0x2E8 JUMPI DUP1 PUSH4 0x752092B EQ PUSH3 0x30A JUMPI DUP1 PUSH4 0x93FF769 EQ PUSH3 0x340 JUMPI DUP1 PUSH4 0x1AF5BACC EQ PUSH3 0x360 JUMPI JUMPDEST PUSH0 DUP1 REVERT JUMPDEST PUSH3 0x2D0 PUSH1 0x4 DUP1 CALLDATASIZE SUB DUP2 ADD SWAP1 PUSH3 0x2CA SWAP2 SWAP1 PUSH3 0x44B5 JUMP JUMPDEST PUSH3 0x90B JUMP JUMPDEST PUSH1 0x40 MLOAD PUSH3 0x2DF SWAP2 SWAP1 PUSH3 0x4501 JUMP JUMPDEST PUSH1 0x40 MLOAD DUP1 SWAP2 SUB SWAP1 RETURN JUMPDEST PUSH3 0x2F2 PUSH3 0x987 JUMP JUMPDEST PUSH1 0x40 MLOAD PUSH3 0x301 SWAP2 SWAP1 PUSH3 0x45EC JUMP JUMPDEST PUSH1 0x40 MLOAD DUP1 SWAP2 SUB SWAP1 RETURN JUMPDEST PUSH3 0x328 PUSH1 0x4 DUP1 CALLDATASIZE SUB DUP2 ADD SWAP1 PUSH3 0x322 SWAP2 SWAP1 PUSH3 0x463D JUMP JUMPDEST PUSH3 0xA89 JUMP JUMPDEST PUSH1 0x40 MLOAD PUSH3 0x337 SWAP2 SWAP1 PUSH3 0x46F3 JUMP JUMPDEST PUSH1 0x40 MLOAD DUP1 SWAP2 SUB SWAP1 RETURN JUMPDEST PUSH3 0x35E PUSH1 0x4 DUP1 CALLDATASIZE SUB DUP2 ADD SWAP1 PUSH3 0x358 SWAP2 SWAP1 PUSH3 0x47DC JUMP JUMPDEST PUSH3 0xAA7 JUMP JUMPDEST STOP JUMPDEST PUSH3 0x36A PUSH3 0xBC3 JUMP JUMPDEST PUSH1 0x40 MLOAD PUSH3 0x379 SWAP2 SWAP1 PUSH3 0x48E6 JUMP JUMPDEST PUSH1 0x40 MLOAD DUP1 SWAP2 SUB SWAP1 RETURN JUMPDEST PUSH3 0x3A0 PUSH1 0x4 DUP1 CALLDATASIZE SUB DUP2 ADD SWAP1 PUSH3 0x39A SWAP2 SWAP1 PUSH3 0x4930 JUMP JUMPDEST PUSH3 0xBE7 JUMP JUMPDEST PUSH1 0x40 MLOAD PUSH3 0x3AF SWAP2 SWAP1 PUSH3 0x48E6 JUMP JUMPDEST PUSH1 0x40 MLOAD DUP1 SWAP2 SUB SWAP1 RETURN JUMPDEST PUSH3 0x3D6 PUSH1 0x4 DUP1 CALLDATASIZE SUB DUP2 ADD SWAP1 PUSH3 0x3D0 SWAP2 SWAP1 PUSH3 0x4960 JUMP JUMPDEST PUSH3 0xC13 JUMP JUMPDEST PUSH1 0x40 MLOAD PUSH3 0x3E5 SWAP2 SWAP1 PUSH3 0x4501 JUMP JUMPDEST PUSH1 0x40 MLOAD DUP1 SWAP2 SUB SWAP1 RETURN JUMPDEST PUSH3 0x40C PUSH1 0x4 DUP1 CALLDATASIZE SUB DUP2 ADD SWAP1 PUSH3 0x406 SWAP2 SWAP1 PUSH3 0x4990 JUMP JUMPDEST PUSH3 0xC31 JUMP JUMPDEST STOP JUMPDEST PUSH3 0x42C PUSH1 0x4 DUP1 CALLDATASIZE SUB DUP2 ADD SWAP1 PUSH3 0x426 SWAP2 SWAP1 PUSH3 0x4A18 JUMP JUMPDEST PUSH3 0xCC4 JUMP JUMPDEST STOP JUMPDEST PUSH3 0x44C PUSH1 0x4 DUP1 CALLDATASIZE SUB DUP2 ADD SWAP1 PUSH3 0x446 SWAP2 SWAP1 PUSH3 0x4A18 JUMP JUMPDEST PUSH3 0xCEC JUMP JUMPDEST STOP JUMPDEST PUSH3 0x46C PUSH1 0x4 DUP1 CALLDATASIZE SUB DUP2 ADD SWAP1 PUSH3 0x466 SWAP2 SWAP1 PUSH3 0x4A8C JUMP JUMPDEST PUSH3 0xD6C JUMP JUMPDEST STOP JUMPDEST PUSH3 0x48C PUSH1 0x4 DUP1 CALLDATASIZE SUB DUP2 ADD SWAP1 PUSH3 0x486 SWAP2 SWAP1 PUSH3 0x4BCF JUMP JUMPDEST PUSH3 0xEB5 JUMP JUMPDEST STOP JUMPDEST PUSH3 0x4AC PUSH1 0x4 DUP1 CALLDATASIZE SUB DUP2 ADD SWAP1 PUSH3 0x4A6 SWAP2 SWAP1 PUSH3 0x4CB7 JUMP JUMPDEST PUSH3 0xFDC JUMP JUMPDEST STOP JUMPDEST PUSH3 0x4B8 PUSH3 0x1046 JUMP JUMPDEST PUSH1 0x40 MLOAD PUSH3 0x4C7 SWAP2 SWAP1 PUSH3 0x4CF8 JUMP JUMPDEST PUSH1 0x40 MLOAD DUP1 SWAP2 SUB SWAP1 RETURN JUMPDEST PUSH3 0x4EE PUSH1 0x4 DUP1 CALLDATASIZE SUB DUP2 ADD SWAP1 PUSH3 0x4E8 SWAP2 SWAP1 PUSH3 0x4D13 JUMP JUMPDEST PUSH3 0x106D JUMP JUMPDEST STOP JUMPDEST PUSH3 0x4FA PUSH3 0x11B6 JUMP JUMPDEST PUSH1 0x40 MLOAD PUSH3 0x509 SWAP2 SWAP1 PUSH3 0x4D69 JUMP JUMPDEST PUSH1 0x40 MLOAD DUP1 SWAP2 SUB SWAP1 RETURN JUMPDEST PUSH3 0x530 PUSH1 0x4 DUP1 CALLDATASIZE SUB DUP2 ADD SWAP1 PUSH3 0x52A SWAP2 SWAP1 PUSH3 0x4960 JUMP JUMPDEST PUSH3 0x11C2 JUMP JUMPDEST STOP JUMPDEST PUSH3 0x53C PUSH3 0x126C JUMP JUMPDEST PUSH1 0x40 MLOAD PUSH3 0x54B SWAP2 SWAP1 PUSH3 0x45EC JUMP JUMPDEST PUSH1 0x40 MLOAD DUP1 SWAP2 SUB SWAP1 RETURN JUMPDEST PUSH3 0x572 PUSH1 0x4 DUP1 CALLDATASIZE SUB DUP2 ADD SWAP1 PUSH3 0x56C SWAP2 SWAP1 PUSH3 0x4D84 JUMP JUMPDEST PUSH3 0x127F JUMP JUMPDEST PUSH1 0x40 MLOAD PUSH3 0x581 SWAP2 SWAP1 PUSH3 0x4E17 JUMP JUMPDEST PUSH1 0x40 MLOAD DUP1 SWAP2 SUB SWAP1 RETURN JUMPDEST PUSH3 0x594 PUSH3 0x1ABA JUMP JUMPDEST PUSH1 0x40 MLOAD PUSH3 0x5A3 SWAP2 SWAP1 PUSH3 0x48E6 JUMP JUMPDEST PUSH1 0x40 MLOAD DUP1 SWAP2 SUB SWAP1 RETURN JUMPDEST PUSH3 0x5CA PUSH1 0x4 DUP1 CALLDATASIZE SUB DUP2 ADD SWAP1 PUSH3 0x5C4 SWAP2 SWAP1 PUSH3 0x4E32 JUMP JUMPDEST PUSH3 0x1ADE JUMP JUMPDEST PUSH1 0x40 MLOAD PUSH3 0x5D9 SWAP2 SWAP1 PUSH3 0x4FBB JUMP JUMPDEST PUSH1 0x40 MLOAD DUP1 SWAP2 SUB SWAP1 RETURN JUMPDEST PUSH3 0x600 PUSH1 0x4 DUP1 CALLDATASIZE SUB DUP2 ADD SWAP1 PUSH3 0x5FA SWAP2 SWAP1 PUSH3 0x4FDD JUMP JUMPDEST PUSH3 0x1D7F JUMP JUMPDEST STOP JUMPDEST PUSH3 0x60C PUSH3 0x2099 JUMP JUMPDEST PUSH1 0x40 MLOAD PUSH3 0x61B SWAP2 SWAP1 PUSH3 0x4D69 JUMP JUMPDEST PUSH1 0x40 MLOAD DUP1 SWAP2 SUB SWAP1 RETURN JUMPDEST PUSH3 0x642 PUSH1 0x4 DUP1 CALLDATASIZE SUB DUP2 ADD SWAP1 PUSH3 0x63C SWAP2 SWAP1 PUSH3 0x504C JUMP JUMPDEST PUSH3 0x20A1 JUMP JUMPDEST PUSH1 0x40 MLOAD PUSH3 0x651 SWAP2 SWAP1 PUSH3 0x5100 JUMP JUMPDEST PUSH1 0x40 MLOAD DUP1 SWAP2 SUB SWAP1 RETURN JUMPDEST PUSH3 0x664 PUSH3 0x20C1 JUMP JUMPDEST STOP JUMPDEST PUSH3 0x670 PUSH3 0x20D8 JUMP JUMPDEST STOP JUMPDEST PUSH3 0x690 PUSH1 0x4 DUP1 CALLDATASIZE SUB DUP2 ADD SWAP1 PUSH3 0x68A SWAP2 SWAP1 PUSH3 0x463D JUMP JUMPDEST PUSH3 0x216F JUMP JUMPDEST PUSH1 0x40 MLOAD PUSH3 0x69F SWAP2 SWAP1 PUSH3 0x4E17 JUMP JUMPDEST PUSH1 0x40 MLOAD DUP1 SWAP2 SUB SWAP1 RETURN JUMPDEST PUSH3 0x6B2 PUSH3 0x21B6 JUMP JUMPDEST PUSH1 0x40 MLOAD PUSH3 0x6C1 SWAP2 SWAP1 PUSH3 0x4D69 JUMP JUMPDEST PUSH1 0x40 MLOAD DUP1 SWAP2 SUB SWAP1 RETURN JUMPDEST PUSH3 0x6D4 PUSH3 0x21C8 JUMP JUMPDEST PUSH1 0x40 MLOAD PUSH3 0x6E3 SWAP2 SWAP1 PUSH3 0x4D69 JUMP JUMPDEST PUSH1 0x40 MLOAD DUP1 SWAP2 SUB SWAP1 RETURN JUMPDEST PUSH3 0x6F6 PUSH3 0x21D7 JUMP JUMPDEST PUSH1 0x40 MLOAD PUSH3 0x705 SWAP2 SWAP1 PUSH3 0x4CF8 JUMP JUMPDEST PUSH1 0x40 MLOAD DUP1 SWAP2 SUB SWAP1 RETURN JUMPDEST PUSH3 0x72C PUSH1 0x4 DUP1 CALLDATASIZE SUB DUP2 ADD SWAP1 PUSH3 0x726 SWAP2 SWAP1 PUSH3 0x4A18 JUMP JUMPDEST PUSH3 0x220E JUMP JUMPDEST PUSH1 0x40 MLOAD PUSH3 0x73B SWAP2 SWAP1 PUSH3 0x4501 JUMP JUMPDEST PUSH1 0x40 MLOAD DUP1 SWAP2 SUB SWAP1 RETURN JUMPDEST PUSH3 0x74E PUSH3 0x226E JUMP JUMPDEST PUSH1 0x40 MLOAD PUSH3 0x75D SWAP2 SWAP1 PUSH3 0x4CF8 JUMP JUMPDEST PUSH1 0x40 MLOAD DUP1 SWAP2 SUB SWAP1 RETURN JUMPDEST PUSH3 0x770 PUSH3 0x2296 JUMP JUMPDEST PUSH1 0x40 MLOAD PUSH3 0x77F SWAP2 SWAP1 PUSH3 0x48E6 JUMP JUMPDEST PUSH1 0x40 MLOAD DUP1 SWAP2 SUB SWAP1 RETURN JUMPDEST PUSH3 0x7A6 PUSH1 0x4 DUP1 CALLDATASIZE SUB DUP2 ADD SWAP1 PUSH3 0x7A0 SWAP2 SWAP1 PUSH3 0x463D JUMP JUMPDEST PUSH3 0x229C JUMP JUMPDEST PUSH1 0x40 MLOAD PUSH3 0x7BC SWAP9 SWAP8 SWAP7 SWAP6 SWAP5 SWAP4 SWAP3 SWAP2 SWAP1 PUSH3 0x511B JUMP JUMPDEST PUSH1 0x40 MLOAD DUP1 SWAP2 SUB SWAP1 RETURN JUMPDEST PUSH3 0x7E3 PUSH1 0x4 DUP1 CALLDATASIZE SUB DUP2 ADD SWAP1 PUSH3 0x7DD SWAP2 SWAP1 PUSH3 0x51A7 JUMP JUMPDEST PUSH3 0x23B6 JUMP JUMPDEST STOP JUMPDEST PUSH3 0x7EF PUSH3 0x262D JUMP JUMPDEST PUSH1 0x40 MLOAD PUSH3 0x7FE SWAP2 SWAP1 PUSH3 0x48E6 JUMP JUMPDEST PUSH1 0x40 MLOAD DUP1 SWAP2 SUB SWAP1 RETURN JUMPDEST PUSH3 0x825 PUSH1 0x4 DUP1 CALLDATASIZE SUB DUP2 ADD SWAP1 PUSH3 0x81F SWAP2 SWAP1 PUSH3 0x4A18 JUMP JUMPDEST PUSH3 0x2654 JUMP JUMPDEST STOP JUMPDEST PUSH3 0x845 PUSH1 0x4 DUP1 CALLDATASIZE SUB DUP2 ADD SWAP1 PUSH3 0x83F SWAP2 SWAP1 PUSH3 0x4960 JUMP JUMPDEST PUSH3 0x267C JUMP JUMPDEST STOP JUMPDEST PUSH3 0x865 PUSH1 0x4 DUP1 CALLDATASIZE SUB DUP2 ADD SWAP1 PUSH3 0x85F SWAP2 SWAP1 PUSH3 0x5216 JUMP JUMPDEST PUSH3 0x2726 JUMP JUMPDEST STOP JUMPDEST PUSH3 0x871 PUSH3 0x27C2 JUMP JUMPDEST PUSH1 0x40 MLOAD PUSH3 0x880 SWAP2 SWAP1 PUSH3 0x4CF8 JUMP JUMPDEST PUSH1 0x40 MLOAD DUP1 SWAP2 SUB SWAP1 RETURN JUMPDEST PUSH3 0x8A7 PUSH1 0x4 DUP1 CALLDATASIZE SUB DUP2 ADD SWAP1 PUSH3 0x8A1 SWAP2 SWAP1 PUSH3 0x5246 JUMP JUMPDEST PUSH3 0x27F9 JUMP JUMPDEST STOP JUMPDEST PUSH3 0x8C7 PUSH1 0x4 DUP1 CALLDATASIZE SUB DUP2 ADD SWAP1 PUSH3 0x8C1 SWAP2 SWAP1 PUSH3 0x463D JUMP JUMPDEST PUSH3 0x2811 JUMP JUMPDEST STOP JUMPDEST PUSH3 0x8E7 PUSH1 0x4 DUP1 CALLDATASIZE SUB DUP2 ADD SWAP1 PUSH3 0x8E1 SWAP2 SWAP1 PUSH3 0x5246 JUMP JUMPDEST PUSH3 0x2908 JUMP JUMPDEST STOP JUMPDEST PUSH3 0x8F3 PUSH3 0x29C7 JUMP JUMPDEST PUSH1 0x40 MLOAD PUSH3 0x902 SWAP2 SWAP1 PUSH3 0x4D69 JUMP JUMPDEST PUSH1 0x40 MLOAD DUP1 SWAP2 SUB SWAP1 RETURN JUMPDEST PUSH0 PUSH32 0x7965DB0B00000000000000000000000000000000000000000000000000000000 PUSH28 0xFFFFFFFFFFFFFFFFFFFFFFFFFFFFFFFFFFFFFFFFFFFFFFFFFFFFFFFF NOT AND DUP3 PUSH28 0xFFFFFFFFFFFFFFFFFFFFFFFFFFFFFFFFFFFFFFFFFFFFFFFFFFFFFFFF NOT AND EQ DUP1 PUSH3 0x980 JUMPI POP PUSH3 0x97F DUP3 PUSH3 0x29D0 JUMP JUMPDEST JUMPDEST SWAP1 POP SWAP2 SWAP1 POP JUMP JUMPDEST PUSH1 0x60 PUSH0 PUSH3 0x996 PUSH1 0x5 PUSH3 0x2A39 JUMP JUMPDEST SWAP1 POP PUSH0 DUP2 GT ISZERO PUSH3 0xA85 JUMPI DUP1 PUSH8 0xFFFFFFFFFFFFFFFF DUP2 GT ISZERO PUSH3 0x9BE JUMPI PUSH3 0x9BD PUSH3 0x5276 JUMP JUMPDEST JUMPDEST PUSH1 0x40 MLOAD SWAP1 DUP1 DUP3 MSTORE DUP1 PUSH1 0x20 MUL PUSH1 0x20 ADD DUP3 ADD PUSH1 0x40 MSTORE DUP1 ISZERO PUSH3 0x9ED JUMPI DUP2 PUSH1 0x20 ADD PUSH1 0x20 DUP3 MUL DUP1 CALLDATASIZE DUP4 CALLDATACOPY DUP1 DUP3 ADD SWAP2 POP POP SWAP1 POP JUMPDEST POP SWAP2 POP PUSH0 DUP1 JUMPDEST DUP3 DUP2 LT ISZERO PUSH3 0xA75 JUMPI PUSH0 DUP1 PUSH3 0xA14 DUP4 PUSH1 0x5 PUSH3 0x2A4E SWAP1 SWAP2 SWAP1 PUSH4 0xFFFFFFFF AND JUMP JUMPDEST SWAP2 POP SWAP2 POP PUSH3 0xA25 DUP2 PUSH0 SHL PUSH3 0x2A77 JUMP JUMPDEST ISZERO PUSH3 0xA5F JUMPI DUP2 DUP7 DUP6 DUP2 MLOAD DUP2 LT PUSH3 0xA42 JUMPI PUSH3 0xA41 PUSH3 0x52A3 JUMP JUMPDEST JUMPDEST PUSH1 0x20 MUL PUSH1 0x20 ADD ADD DUP2 DUP2 MSTORE POP POP DUP4 DUP1 PUSH3 0xA5B SWAP1 PUSH3 0x52FD JUMP JUMPDEST SWAP5 POP POP JUMPDEST POP POP DUP1 PUSH3 0xA6D SWAP1 PUSH3 0x52FD JUMP JUMPDEST SWAP1 POP PUSH3 0x9F3 JUMP JUMPDEST POP DUP2 DUP2 LT ISZERO PUSH3 0xA83 JUMPI DUP1 DUP4 MSTORE JUMPDEST POP JUMPDEST POP SWAP1 JUMP JUMPDEST PUSH0 PUSH3 0xAA0 DUP3 PUSH1 0x8 PUSH3 0x2A95 SWAP1 SWAP2 SWAP1 PUSH4 0xFFFFFFFF AND JUMP JUMPDEST SWAP1 POP SWAP2 SWAP1 POP JUMP JUMPDEST PUSH3 0xAB1 PUSH3 0x2AAE JUMP JUMPDEST PUSH0 PUSH3 0xAC3 DUP12 DUP12 DUP12 PUSH2 0xFFFF AND PUSH3 0x2B3E JUMP JUMPDEST PUSH1 0x20 ADD MLOAD SWAP1 POP PUSH0 PUSH20 0xFFFFFFFFFFFFFFFFFFFFFFFFFFFFFFFFFFFFFFFF AND DUP2 PUSH20 0xFFFFFFFFFFFFFFFFFFFFFFFFFFFFFFFFFFFFFFFF AND SUB PUSH3 0xB40 JUMPI DUP11 DUP11 DUP11 PUSH1 0x40 MLOAD PUSH32 0xB65EE95300000000000000000000000000000000000000000000000000000000 DUP2 MSTORE PUSH1 0x4 ADD PUSH3 0xB37 SWAP4 SWAP3 SWAP2 SWAP1 PUSH3 0x5381 JUMP JUMPDEST PUSH1 0x40 MLOAD DUP1 SWAP2 SUB SWAP1 REVERT JUMPDEST DUP1 PUSH20 0xFFFFFFFFFFFFFFFFFFFFFFFFFFFFFFFFFFFFFFFF AND PUSH4 0x6653851A DUP10 DUP10 DUP10 DUP10 DUP10 DUP10 DUP10 PUSH1 0x40 MLOAD DUP9 PUSH4 0xFFFFFFFF AND PUSH1 0xE0 SHL DUP2 MSTORE PUSH1 0x4 ADD PUSH3 0xB87 SWAP8 SWAP7 SWAP6 SWAP5 SWAP4 SWAP3 SWAP2 SWAP1 PUSH3 0x53DE JUMP JUMPDEST PUSH0 PUSH1 0x40 MLOAD DUP1 DUP4 SUB DUP2 PUSH0 DUP8 DUP1 EXTCODESIZE ISZERO DUP1 ISZERO PUSH3 0xB9F JUMPI PUSH0 DUP1 REVERT JUMPDEST POP GAS CALL ISZERO DUP1 ISZERO PUSH3 0xBB2 JUMPI RETURNDATASIZE PUSH0 DUP1 RETURNDATACOPY RETURNDATASIZE PUSH0 REVERT JUMPDEST POP POP POP POP POP POP POP POP POP POP POP POP POP POP POP JUMP JUMPDEST PUSH32 0xDCF4465AA60D92459EB361FAC2489220AE3C524301CC0433C30A5D83E8FB0FA9 DUP2 JUMP JUMPDEST PUSH0 DUP1 PUSH3 0xBF3 PUSH3 0x2C9E JUMP JUMPDEST SWAP1 POP DUP1 PUSH0 ADD PUSH0 DUP5 DUP2 MSTORE PUSH1 0x20 ADD SWAP1 DUP2 MSTORE PUSH1 0x20 ADD PUSH0 KECCAK256 PUSH1 0x1 ADD SLOAD SWAP2 POP POP SWAP2 SWAP1 POP JUMP JUMPDEST PUSH0 PUSH3 0xC2A DUP3 PUSH1 0x8 PUSH3 0x2CC5 SWAP1 SWAP2 SWAP1 PUSH4 0xFFFFFFFF AND JUMP JUMPDEST SWAP1 POP SWAP2 SWAP1 POP JUMP JUMPDEST PUSH32 0xDCF4465AA60D92459EB361FAC2489220AE3C524301CC0433C30A5D83E8FB0FA9 PUSH3 0xC5D DUP2 PUSH3 0x2CF4 JUMP JUMPDEST PUSH3 0xCBE DUP5 DUP5 DUP5 PUSH0 DUP1 SHL PUSH0 PUSH8 0xFFFFFFFFFFFFFFFF DUP2 GT ISZERO PUSH3 0xC84 JUMPI PUSH3 0xC83 PUSH3 0x5276 JUMP JUMPDEST JUMPDEST PUSH1 0x40 MLOAD SWAP1 DUP1 DUP3 MSTORE DUP1 PUSH1 0x1F ADD PUSH1 0x1F NOT AND PUSH1 0x20 ADD DUP3 ADD PUSH1 0x40 MSTORE DUP1 ISZERO PUSH3 0xCB7 JUMPI DUP2 PUSH1 0x20 ADD PUSH1 0x1 DUP3 MUL DUP1 CALLDATASIZE DUP4 CALLDATACOPY DUP1 DUP3 ADD SWAP2 POP POP SWAP1 POP JUMPDEST POP PUSH3 0x2D0C JUMP JUMPDEST POP POP POP POP JUMP JUMPDEST PUSH3 0xCCF DUP3 PUSH3 0xBE7 JUMP JUMPDEST PUSH3 0xCDA DUP2 PUSH3 0x2CF4 JUMP JUMPDEST PUSH3 0xCE6 DUP4 DUP4 PUSH3 0x2EC5 JUMP JUMPDEST POP POP POP POP JUMP JUMPDEST PUSH3 0xCF6 PUSH3 0x2F16 JUMP JUMPDEST PUSH20 0xFFFFFFFFFFFFFFFFFFFFFFFFFFFFFFFFFFFFFFFF AND DUP2 PUSH20 0xFFFFFFFFFFFFFFFFFFFFFFFFFFFFFFFFFFFFFFFF AND EQ PUSH3 0xD5B JUMPI PUSH1 0x40 MLOAD PUSH32 0x6697B23200000000000000000000000000000000000000000000000000000000 DUP2 MSTORE PUSH1 0x4 ADD PUSH1 0x40 MLOAD DUP1 SWAP2 SUB SWAP1 REVERT JUMPDEST PUSH3 0xD67 DUP3 DUP3 PUSH3 0x2F1D JUMP JUMPDEST POP POP POP JUMP JUMPDEST PUSH3 0xD76 PUSH3 0x2AAE JUMP JUMPDEST PUSH1 0x1 DUP10 PUSH2 0xFFFF AND LT ISZERO PUSH3 0xDC3 JUMPI DUP9 PUSH1 0x40 MLOAD PUSH32 0x4F958E7100000000000000000000000000000000000000000000000000000000 DUP2 MSTORE PUSH1 0x4 ADD PUSH3 0xDBA SWAP2 SWAP1 PUSH3 0x5459 JUMP JUMPDEST PUSH1 0x40 MLOAD DUP1 SWAP2 SUB SWAP1 REVERT JUMPDEST PUSH0 PUSH3 0xDE7 DUP10 DUP10 DUP10 DUP10 DUP10 DUP10 DUP10 PUSH0 DUP1 SHL PUSH3 0x301D SWAP1 SWAP8 SWAP7 SWAP6 SWAP5 SWAP4 SWAP3 SWAP2 SWAP1 PUSH4 0xFFFFFFFF AND JUMP JUMPDEST SWAP1 POP DUP2 ISZERO PUSH3 0xE0C JUMPI PUSH3 0xE09 PUSH1 0x1 PUSH1 0xFF DUP4 PUSH3 0x31CF SWAP1 SWAP3 SWAP2 SWAP1 PUSH4 0xFFFFFFFF AND JUMP JUMPDEST SWAP1 POP JUMPDEST PUSH3 0xE2A DUP11 PUSH2 0xFFFF AND DUP3 PUSH0 SHR PUSH1 0x5 PUSH3 0x31FA SWAP1 SWAP3 SWAP2 SWAP1 PUSH4 0xFFFFFFFF AND JUMP JUMPDEST POP DUP10 PUSH2 0xFFFF AND PUSH32 0x839844A256A87F87C9C835117D9A1C40BE013954064C937072ACB32D36DB6A28 DUP11 DUP11 DUP11 DUP11 DUP11 DUP11 DUP11 PUSH1 0x40 MLOAD PUSH3 0xE6D SWAP8 SWAP7 SWAP6 SWAP5 SWAP4 SWAP3 SWAP2 SWAP1 PUSH3 0x54AC JUMP JUMPDEST PUSH1 0x40 MLOAD DUP1 SWAP2 SUB SWAP1 LOG2 DUP2 ISZERO ISZERO DUP11 PUSH2 0xFFFF AND PUSH32 0x58A8B6A02B964CCA2712E5A71D7B0D564A56B4A0F573B4C47F389341ADE14CFD PUSH1 0x40 MLOAD PUSH1 0x40 MLOAD DUP1 SWAP2 SUB SWAP1 LOG3 POP POP POP POP POP POP POP POP POP POP JUMP JUMPDEST PUSH32 0xDCF4465AA60D92459EB361FAC2489220AE3C524301CC0433C30A5D83E8FB0FA9 PUSH3 0xEE1 DUP2 PUSH3 0x2CF4 JUMP JUMPDEST PUSH0 PUSH20 0xFFFFFFFFFFFFFFFFFFFFFFFFFFFFFFFFFFFFFFFF AND PUSH3 0xF03 DUP6 PUSH3 0x3217 JUMP JUMPDEST PUSH20 0xFFFFFFFFFFFFFFFFFFFFFFFFFFFFFFFFFFFFFFFF AND EQ DUP1 PUSH3 0xF49 JUMPI POP PUSH0 PUSH1 0xA0 SHL PUSH3 0xF30 DUP6 PUSH3 0x3222 JUMP JUMPDEST PUSH20 0xFFFFFFFFFFFFFFFFFFFFFFFFFFFFFFFFFFFFFFFF NOT AND EQ JUMPDEST ISZERO PUSH3 0xF81 JUMPI PUSH1 0x40 MLOAD PUSH32 0xD43A15D100000000000000000000000000000000000000000000000000000000 DUP2 MSTORE PUSH1 0x4 ADD PUSH1 0x40 MLOAD DUP1 SWAP2 SUB SWAP1 REVERT JUMPDEST PUSH3 0xFD3 DUP8 DUP8 DUP8 DUP8 DUP8 DUP8 DUP1 DUP1 PUSH1 0x1F ADD PUSH1 0x20 DUP1 SWAP2 DIV MUL PUSH1 0x20 ADD PUSH1 0x40 MLOAD SWAP1 DUP2 ADD PUSH1 0x40 MSTORE DUP1 SWAP4 SWAP3 SWAP2 SWAP1 DUP2 DUP2 MSTORE PUSH1 0x20 ADD DUP4 DUP4 DUP1 DUP3 DUP5 CALLDATACOPY PUSH0 DUP2 DUP5 ADD MSTORE PUSH1 0x1F NOT PUSH1 0x1F DUP3 ADD AND SWAP1 POP DUP1 DUP4 ADD SWAP3 POP POP POP POP POP POP POP PUSH3 0x2D0C JUMP JUMPDEST POP POP POP POP POP POP POP JUMP JUMPDEST PUSH3 0xFE6 PUSH3 0x2AAE JUMP JUMPDEST DUP1 PUSH20 0xFFFFFFFFFFFFFFFFFFFFFFFFFFFFFFFFFFFFFFFF AND PUSH4 0xD3B9FBE4 PUSH1 0x40 MLOAD DUP2 PUSH4 0xFFFFFFFF AND PUSH1 0xE0 SHL DUP2 MSTORE PUSH1 0x4 ADD PUSH0 PUSH1 0x40 MLOAD DUP1 DUP4 SUB DUP2 PUSH0 DUP8 DUP1 EXTCODESIZE ISZERO DUP1 ISZERO PUSH3 0x102C JUMPI PUSH0 DUP1 REVERT JUMPDEST POP GAS CALL ISZERO DUP1 ISZERO PUSH3 0x103F JUMPI RETURNDATASIZE PUSH0 DUP1 RETURNDATACOPY RETURNDATASIZE PUSH0 REVERT JUMPDEST POP POP POP POP POP JUMP JUMPDEST PUSH0 DUP1 PUSH0 SWAP1 SLOAD SWAP1 PUSH2 0x100 EXP SWAP1 DIV PUSH20 0xFFFFFFFFFFFFFFFFFFFFFFFFFFFFFFFFFFFFFFFF AND SWAP1 POP SWAP1 JUMP JUMPDEST PUSH3 0x1077 PUSH3 0x2AAE JUMP JUMPDEST PUSH3 0x1091 DUP3 PUSH2 0xFFFF AND PUSH1 0x5 PUSH3 0x322B SWAP1 SWAP2 SWAP1 PUSH4 0xFFFFFFFF AND JUMP JUMPDEST PUSH3 0x10D5 JUMPI DUP2 PUSH1 0x40 MLOAD PUSH32 0xFB22C17E00000000000000000000000000000000000000000000000000000000 DUP2 MSTORE PUSH1 0x4 ADD PUSH3 0x10CC SWAP2 SWAP1 PUSH3 0x5459 JUMP JUMPDEST PUSH1 0x40 MLOAD DUP1 SWAP2 SUB SWAP1 REVERT JUMPDEST PUSH0 PUSH3 0x10F0 DUP4 PUSH2 0xFFFF AND PUSH1 0x5 PUSH3 0x3244 SWAP1 SWAP2 SWAP1 PUSH4 0xFFFFFFFF AND JUMP JUMPDEST PUSH0 SHL SWAP1 POP DUP2 ISZERO ISZERO PUSH3 0x110D PUSH1 0xFF DUP4 PUSH3 0x325F SWAP1 SWAP2 SWAP1 PUSH4 0xFFFFFFFF AND JUMP JUMPDEST ISZERO ISZERO SUB PUSH3 0x1147 JUMPI PUSH1 0x40 MLOAD PUSH32 0x237C71B600000000000000000000000000000000000000000000000000000000 DUP2 MSTORE PUSH1 0x4 ADD PUSH1 0x40 MLOAD DUP1 SWAP2 SUB SWAP1 REVERT JUMPDEST PUSH3 0x117C DUP4 PUSH2 0xFFFF AND PUSH3 0x1168 DUP5 PUSH1 0xFF DUP6 PUSH3 0x31CF SWAP1 SWAP3 SWAP2 SWAP1 PUSH4 0xFFFFFFFF AND JUMP JUMPDEST PUSH0 SHR PUSH1 0x5 PUSH3 0x31FA SWAP1 SWAP3 SWAP2 SWAP1 PUSH4 0xFFFFFFFF AND JUMP JUMPDEST POP DUP2 ISZERO ISZERO DUP4 PUSH2 0xFFFF AND PUSH32 0x58A8B6A02B964CCA2712E5A71D7B0D564A56B4A0F573B4C47F389341ADE14CFD PUSH1 0x40 MLOAD PUSH1 0x40 MLOAD DUP1 SWAP2 SUB SWAP1 LOG3 POP POP POP JUMP JUMPDEST PUSH0 PUSH1 0x3 DUP1 SLOAD SWAP1 POP SWAP1 POP SWAP1 JUMP JUMPDEST PUSH3 0x11CC PUSH3 0x2AAE JUMP JUMPDEST PUSH3 0x11E2 DUP2 PUSH1 0x8 PUSH3 0x326E SWAP1 SWAP2 SWAP1 PUSH4 0xFFFFFFFF AND JUMP JUMPDEST PUSH3 0x1226 JUMPI DUP1 PUSH1 0x40 MLOAD PUSH32 0x3CE0AD900000000000000000000000000000000000000000000000000000000 DUP2 MSTORE PUSH1 0x4 ADD PUSH3 0x121D SWAP2 SWAP1 PUSH3 0x46F3 JUMP JUMPDEST PUSH1 0x40 MLOAD DUP1 SWAP2 SUB SWAP1 REVERT JUMPDEST DUP1 PUSH20 0xFFFFFFFFFFFFFFFFFFFFFFFFFFFFFFFFFFFFFFFF AND PUSH32 0x84CC2115995684DCB0CD3D3A9565E3D32F075DE81DB70C8DC3A719B2A47AF67E PUSH1 0x40 MLOAD PUSH1 0x40 MLOAD DUP1 SWAP2 SUB SWAP1 LOG2 POP JUMP JUMPDEST PUSH1 0x60 PUSH3 0x127A PUSH1 0x5 PUSH3 0x329D JUMP JUMPDEST SWAP1 POP SWAP1 JUMP JUMPDEST PUSH0 PUSH3 0x129A DUP3 PUSH2 0xFFFF AND PUSH1 0x5 PUSH3 0x322B SWAP1 SWAP2 SWAP1 PUSH4 0xFFFFFFFF AND JUMP JUMPDEST PUSH3 0x12DE JUMPI DUP2 PUSH1 0x40 MLOAD PUSH32 0xFB22C17E00000000000000000000000000000000000000000000000000000000 DUP2 MSTORE PUSH1 0x4 ADD PUSH3 0x12D5 SWAP2 SWAP1 PUSH3 0x5459 JUMP JUMPDEST PUSH1 0x40 MLOAD DUP1 SWAP2 SUB SWAP1 REVERT JUMPDEST PUSH0 PUSH3 0x12F9 DUP4 PUSH2 0xFFFF AND PUSH1 0x5 PUSH3 0x3244 SWAP1 SWAP2 SWAP1 PUSH4 0xFFFFFFFF AND JUMP JUMPDEST PUSH0 SHL SWAP1 POP PUSH0 PUSH3 0x1308 PUSH3 0x21D7 JUMP JUMPDEST PUSH20 0xFFFFFFFFFFFFFFFFFFFFFFFFFFFFFFFFFFFFFFFF AND CALLER PUSH20 0xFFFFFFFFFFFFFFFFFFFFFFFFFFFFFFFFFFFFFFFF AND EQ SWAP1 POP PUSH3 0x1343 DUP3 PUSH3 0x2A77 JUMP JUMPDEST ISZERO DUP1 ISZERO PUSH3 0x134F JUMPI POP DUP1 ISZERO JUMPDEST ISZERO PUSH3 0x1396 JUMPI CALLER DUP5 PUSH1 0x40 MLOAD PUSH32 0x9F85FCE00000000000000000000000000000000000000000000000000000000 DUP2 MSTORE PUSH1 0x4 ADD PUSH3 0x138D SWAP3 SWAP2 SWAP1 PUSH3 0x5527 JUMP JUMPDEST PUSH1 0x40 MLOAD DUP1 SWAP2 SUB SWAP1 REVERT JUMPDEST PUSH3 0x13AC DUP7 PUSH1 0x8 PUSH3 0x2CC5 SWAP1 SWAP2 SWAP1 PUSH4 0xFFFFFFFF AND JUMP JUMPDEST PUSH3 0x13F0 JUMPI DUP6 PUSH1 0x40 MLOAD PUSH32 0x8E888EF300000000000000000000000000000000000000000000000000000000 DUP2 MSTORE PUSH1 0x4 ADD PUSH3 0x13E7 SWAP2 SWAP1 PUSH3 0x46F3 JUMP JUMPDEST PUSH1 0x40 MLOAD DUP1 SWAP2 SUB SWAP1 REVERT JUMPDEST DUP6 PUSH20 0xFFFFFFFFFFFFFFFFFFFFFFFFFFFFFFFFFFFFFFFF AND DUP8 PUSH20 0xFFFFFFFFFFFFFFFFFFFFFFFFFFFFFFFFFFFFFFFF AND SUB PUSH3 0x1463 JUMPI DUP7 PUSH1 0x40 MLOAD PUSH32 0x2F9B185300000000000000000000000000000000000000000000000000000000 DUP2 MSTORE PUSH1 0x4 ADD PUSH3 0x145A SWAP2 SWAP1 PUSH3 0x46F3 JUMP JUMPDEST PUSH1 0x40 MLOAD DUP1 SWAP2 SUB SWAP1 REVERT JUMPDEST PUSH3 0x146F DUP6 DUP6 PUSH3 0x32BE JUMP JUMPDEST POP PUSH0 DUP1 PUSH3 0x147E DUP10 DUP10 PUSH3 0x32FA JUMP JUMPDEST SWAP2 POP SWAP2 POP PUSH0 PUSH20 0xFFFFFFFFFFFFFFFFFFFFFFFFFFFFFFFFFFFFFFFF AND DUP3 PUSH20 0xFFFFFFFFFFFFFFFFFFFFFFFFFFFFFFFFFFFFFFFF AND SUB PUSH3 0x14E8 JUMPI PUSH1 0x40 MLOAD PUSH32 0x95CF3EE400000000000000000000000000000000000000000000000000000000 DUP2 MSTORE PUSH1 0x4 ADD PUSH1 0x40 MLOAD DUP1 SWAP2 SUB SWAP1 REVERT JUMPDEST PUSH0 PUSH20 0xFFFFFFFFFFFFFFFFFFFFFFFFFFFFFFFFFFFFFFFF AND PUSH1 0x4 PUSH0 DUP5 PUSH20 0xFFFFFFFFFFFFFFFFFFFFFFFFFFFFFFFFFFFFFFFF AND PUSH20 0xFFFFFFFFFFFFFFFFFFFFFFFFFFFFFFFFFFFFFFFF AND DUP2 MSTORE PUSH1 0x20 ADD SWAP1 DUP2 MSTORE PUSH1 0x20 ADD PUSH0 KECCAK256 PUSH0 DUP4 PUSH20 0xFFFFFFFFFFFFFFFFFFFFFFFFFFFFFFFFFFFFFFFF AND PUSH20 0xFFFFFFFFFFFFFFFFFFFFFFFFFFFFFFFFFFFFFFFF AND DUP2 MSTORE PUSH1 0x20 ADD SWAP1 DUP2 MSTORE PUSH1 0x20 ADD PUSH0 KECCAK256 PUSH0 DUP9 PUSH2 0xFFFF AND DUP2 MSTORE PUSH1 0x20 ADD SWAP1 DUP2 MSTORE PUSH1 0x20 ADD PUSH0 KECCAK256 PUSH0 ADD PUSH1 0x2 SWAP1 SLOAD SWAP1 PUSH2 0x100 EXP SWAP1 DIV PUSH20 0xFFFFFFFFFFFFFFFFFFFFFFFFFFFFFFFFFFFFFFFF AND PUSH20 0xFFFFFFFFFFFFFFFFFFFFFFFFFFFFFFFFFFFFFFFF AND EQ PUSH3 0x160C JUMPI DUP9 DUP9 DUP8 PUSH1 0x40 MLOAD PUSH32 0xCB27A43500000000000000000000000000000000000000000000000000000000 DUP2 MSTORE PUSH1 0x4 ADD PUSH3 0x1603 SWAP4 SWAP3 SWAP2 SWAP1 PUSH3 0x5381 JUMP JUMPDEST PUSH1 0x40 MLOAD DUP1 SWAP2 SUB SWAP1 REVERT JUMPDEST PUSH0 PUSH3 0x1618 DUP6 PUSH3 0x3349 JUMP JUMPDEST PUSH3 0x1623 DUP7 PUSH3 0x3366 JUMP JUMPDEST PUSH3 0x162E DUP8 PUSH3 0x3384 JUMP JUMPDEST PUSH3 0x1639 DUP9 PUSH3 0x33A2 JUMP JUMPDEST PUSH3 0x1644 DUP10 PUSH3 0x33C0 JUMP JUMPDEST PUSH3 0x164F DUP11 PUSH3 0x33DE JUMP JUMPDEST PUSH3 0x165A DUP12 PUSH3 0x33FC JUMP JUMPDEST DUP15 PUSH1 0x40 MLOAD PUSH1 0x24 ADD PUSH3 0x1674 SWAP9 SWAP8 SWAP7 SWAP6 SWAP5 SWAP4 SWAP3 SWAP2 SWAP1 PUSH3 0x5552 JUMP JUMPDEST PUSH1 0x40 MLOAD PUSH1 0x20 DUP2 DUP4 SUB SUB DUP2 MSTORE SWAP1 PUSH1 0x40 MSTORE PUSH32 0x47973BFF00000000000000000000000000000000000000000000000000000000 PUSH28 0xFFFFFFFFFFFFFFFFFFFFFFFFFFFFFFFFFFFFFFFFFFFFFFFFFFFFFFFF NOT AND PUSH1 0x20 DUP3 ADD DUP1 MLOAD PUSH28 0xFFFFFFFFFFFFFFFFFFFFFFFFFFFFFFFFFFFFFFFFFFFFFFFFFFFFFFFF DUP4 DUP2 DUP4 AND OR DUP4 MSTORE POP POP POP POP SWAP1 POP PUSH0 DUP4 DUP4 DUP10 PUSH1 0x40 MLOAD PUSH1 0x20 ADD PUSH3 0x170B SWAP4 SWAP3 SWAP2 SWAP1 PUSH3 0x5665 JUMP JUMPDEST PUSH1 0x40 MLOAD PUSH1 0x20 DUP2 DUP4 SUB SUB DUP2 MSTORE SWAP1 PUSH1 0x40 MSTORE DUP1 MLOAD SWAP1 PUSH1 0x20 ADD KECCAK256 SWAP1 POP PUSH0 PUSH1 0x40 MLOAD DUP1 PUSH1 0x20 ADD PUSH3 0x1736 SWAP1 PUSH3 0x4403 JUMP JUMPDEST PUSH1 0x20 DUP3 ADD DUP2 SUB DUP3 MSTORE PUSH1 0x1F NOT PUSH1 0x1F DUP3 ADD AND PUSH1 0x40 MSTORE POP PUSH1 0x2 PUSH0 SWAP1 SLOAD SWAP1 PUSH2 0x100 EXP SWAP1 DIV PUSH20 0xFFFFFFFFFFFFFFFFFFFFFFFFFFFFFFFFFFFFFFFF AND DUP14 DUP14 DUP13 DUP8 PUSH1 0x40 MLOAD PUSH1 0x20 ADD PUSH3 0x1786 SWAP6 SWAP5 SWAP4 SWAP3 SWAP2 SWAP1 PUSH3 0x573B JUMP JUMPDEST PUSH1 0x40 MLOAD PUSH1 0x20 DUP2 DUP4 SUB SUB DUP2 MSTORE SWAP1 PUSH1 0x40 MSTORE PUSH1 0x40 MLOAD PUSH1 0x20 ADD PUSH3 0x17A8 SWAP3 SWAP2 SWAP1 PUSH3 0x57DD JUMP JUMPDEST PUSH1 0x40 MLOAD PUSH1 0x20 DUP2 DUP4 SUB SUB DUP2 MSTORE SWAP1 PUSH1 0x40 MSTORE SWAP1 POP PUSH3 0x17C6 PUSH0 DUP4 DUP4 PUSH3 0x341A JUMP JUMPDEST SWAP8 POP POP POP POP PUSH1 0x40 MLOAD DUP1 PUSH1 0x80 ADD PUSH1 0x40 MSTORE DUP1 DUP8 PUSH2 0xFFFF AND DUP2 MSTORE PUSH1 0x20 ADD DUP7 PUSH20 0xFFFFFFFFFFFFFFFFFFFFFFFFFFFFFFFFFFFFFFFF AND DUP2 MSTORE PUSH1 0x20 ADD DUP5 ISZERO ISZERO DUP2 MSTORE PUSH1 0x20 ADD PUSH0 ISZERO ISZERO DUP2 MSTORE POP PUSH1 0x4 PUSH0 DUP5 PUSH20 0xFFFFFFFFFFFFFFFFFFFFFFFFFFFFFFFFFFFFFFFF AND PUSH20 0xFFFFFFFFFFFFFFFFFFFFFFFFFFFFFFFFFFFFFFFF AND DUP2 MSTORE PUSH1 0x20 ADD SWAP1 DUP2 MSTORE PUSH1 0x20 ADD PUSH0 KECCAK256 PUSH0 DUP4 PUSH20 0xFFFFFFFFFFFFFFFFFFFFFFFFFFFFFFFFFFFFFFFF AND PUSH20 0xFFFFFFFFFFFFFFFFFFFFFFFFFFFFFFFFFFFFFFFF AND DUP2 MSTORE PUSH1 0x20 ADD SWAP1 DUP2 MSTORE PUSH1 0x20 ADD PUSH0 KECCAK256 PUSH0 DUP9 PUSH2 0xFFFF AND DUP2 MSTORE PUSH1 0x20 ADD SWAP1 DUP2 MSTORE PUSH1 0x20 ADD PUSH0 KECCAK256 PUSH0 DUP3 ADD MLOAD DUP2 PUSH0 ADD PUSH0 PUSH2 0x100 EXP DUP2 SLOAD DUP2 PUSH2 0xFFFF MUL NOT AND SWAP1 DUP4 PUSH2 0xFFFF AND MUL OR SWAP1 SSTORE POP PUSH1 0x20 DUP3 ADD MLOAD DUP2 PUSH0 ADD PUSH1 0x2 PUSH2 0x100 EXP DUP2 SLOAD DUP2 PUSH20 0xFFFFFFFFFFFFFFFFFFFFFFFFFFFFFFFFFFFFFFFF MUL NOT AND SWAP1 DUP4 PUSH20 0xFFFFFFFFFFFFFFFFFFFFFFFFFFFFFFFFFFFFFFFF AND MUL OR SWAP1 SSTORE POP PUSH1 0x40 DUP3 ADD MLOAD DUP2 PUSH0 ADD PUSH1 0x16 PUSH2 0x100 EXP DUP2 SLOAD DUP2 PUSH1 0xFF MUL NOT AND SWAP1 DUP4 ISZERO ISZERO MUL OR SWAP1 SSTORE POP PUSH1 0x60 DUP3 ADD MLOAD DUP2 PUSH0 ADD PUSH1 0x17 PUSH2 0x100 EXP DUP2 SLOAD DUP2 PUSH1 0xFF MUL NOT AND SWAP1 DUP4 ISZERO ISZERO MUL OR SWAP1 SSTORE POP SWAP1 POP POP PUSH1 0x3 DUP6 SWAP1 DUP1 PUSH1 0x1 DUP2 SLOAD ADD DUP1 DUP3 SSTORE DUP1 SWAP2 POP POP PUSH1 0x1 SWAP1 SUB SWAP1 PUSH0 MSTORE PUSH1 0x20 PUSH0 KECCAK256 ADD PUSH0 SWAP1 SWAP2 SWAP1 SWAP2 SWAP1 SWAP2 PUSH2 0x100 EXP DUP2 SLOAD DUP2 PUSH20 0xFFFFFFFFFFFFFFFFFFFFFFFFFFFFFFFFFFFFFFFF MUL NOT AND SWAP1 DUP4 PUSH20 0xFFFFFFFFFFFFFFFFFFFFFFFFFFFFFFFFFFFFFFFF AND MUL OR SWAP1 SSTORE POP PUSH3 0x1A2C DUP7 PUSH2 0xFFFF AND PUSH1 0xA PUSH0 DUP6 PUSH20 0xFFFFFFFFFFFFFFFFFFFFFFFFFFFFFFFFFFFFFFFF AND PUSH20 0xFFFFFFFFFFFFFFFFFFFFFFFFFFFFFFFFFFFFFFFF AND DUP2 MSTORE PUSH1 0x20 ADD SWAP1 DUP2 MSTORE PUSH1 0x20 ADD PUSH0 KECCAK256 PUSH0 DUP5 PUSH20 0xFFFFFFFFFFFFFFFFFFFFFFFFFFFFFFFFFFFFFFFF AND PUSH20 0xFFFFFFFFFFFFFFFFFFFFFFFFFFFFFFFFFFFFFFFF AND DUP2 MSTORE PUSH1 0x20 ADD SWAP1 DUP2 MSTORE PUSH1 0x20 ADD PUSH0 KECCAK256 PUSH3 0x3518 SWAP1 SWAP2 SWAP1 PUSH4 0xFFFFFFFF AND JUMP JUMPDEST POP DUP6 PUSH2 0xFFFF AND DUP9 PUSH20 0xFFFFFFFFFFFFFFFFFFFFFFFFFFFFFFFFFFFFFFFF AND DUP11 PUSH20 0xFFFFFFFFFFFFFFFFFFFFFFFFFFFFFFFFFFFFFFFF AND PUSH32 0x2C8D104B27C6B7F4492017A6F5CF3803043688934EBCAA6A03540BEEAF976AFF DUP9 PUSH1 0x1 PUSH1 0x3 DUP1 SLOAD SWAP1 POP PUSH3 0x1A96 SWAP2 SWAP1 PUSH3 0x5804 JUMP JUMPDEST PUSH1 0x40 MLOAD PUSH3 0x1AA6 SWAP3 SWAP2 SWAP1 PUSH3 0x583E JUMP JUMPDEST PUSH1 0x40 MLOAD DUP1 SWAP2 SUB SWAP1 LOG4 POP POP POP POP SWAP5 SWAP4 POP POP POP POP JUMP JUMPDEST PUSH32 0x9DAAD794D31BFFEA33C7C571B462185CBD402366F4696E49C91BE26E9222BB9D DUP2 JUMP JUMPDEST PUSH1 0x60 PUSH0 DUP1 PUSH3 0x1AEE DUP6 DUP6 PUSH3 0x32FA JUMP JUMPDEST SWAP2 POP SWAP2 POP PUSH0 PUSH1 0xA PUSH0 DUP5 PUSH20 0xFFFFFFFFFFFFFFFFFFFFFFFFFFFFFFFFFFFFFFFF AND PUSH20 0xFFFFFFFFFFFFFFFFFFFFFFFFFFFFFFFFFFFFFFFF AND DUP2 MSTORE PUSH1 0x20 ADD SWAP1 DUP2 MSTORE PUSH1 0x20 ADD PUSH0 KECCAK256 PUSH0 DUP4 PUSH20 0xFFFFFFFFFFFFFFFFFFFFFFFFFFFFFFFFFFFFFFFF AND PUSH20 0xFFFFFFFFFFFFFFFFFFFFFFFFFFFFFFFFFFFFFFFF AND DUP2 MSTORE PUSH1 0x20 ADD SWAP1 DUP2 MSTORE PUSH1 0x20 ADD PUSH0 KECCAK256 SWAP1 POP PUSH0 PUSH3 0x1B79 DUP3 PUSH3 0x3531 JUMP JUMPDEST SWAP1 POP PUSH0 DUP2 GT ISZERO PUSH3 0x1D75 JUMPI DUP1 PUSH8 0xFFFFFFFFFFFFFFFF DUP2 GT ISZERO PUSH3 0x1BA1 JUMPI PUSH3 0x1BA0 PUSH3 0x5276 JUMP JUMPDEST JUMPDEST PUSH1 0x40 MLOAD SWAP1 DUP1 DUP3 MSTORE DUP1 PUSH1 0x20 MUL PUSH1 0x20 ADD DUP3 ADD PUSH1 0x40 MSTORE DUP1 ISZERO PUSH3 0x1BDE JUMPI DUP2 PUSH1 0x20 ADD JUMPDEST PUSH3 0x1BCA PUSH3 0x4411 JUMP JUMPDEST DUP2 MSTORE PUSH1 0x20 ADD SWAP1 PUSH1 0x1 SWAP1 SUB SWAP1 DUP2 PUSH3 0x1BC0 JUMPI SWAP1 POP JUMPDEST POP SWAP5 POP PUSH0 PUSH1 0x4 PUSH0 DUP7 PUSH20 0xFFFFFFFFFFFFFFFFFFFFFFFFFFFFFFFFFFFFFFFF AND PUSH20 0xFFFFFFFFFFFFFFFFFFFFFFFFFFFFFFFFFFFFFFFF AND DUP2 MSTORE PUSH1 0x20 ADD SWAP1 DUP2 MSTORE PUSH1 0x20 ADD PUSH0 KECCAK256 PUSH0 DUP6 PUSH20 0xFFFFFFFFFFFFFFFFFFFFFFFFFFFFFFFFFFFFFFFF AND PUSH20 0xFFFFFFFFFFFFFFFFFFFFFFFFFFFFFFFFFFFFFFFF AND DUP2 MSTORE PUSH1 0x20 ADD SWAP1 DUP2 MSTORE PUSH1 0x20 ADD PUSH0 KECCAK256 SWAP1 POP PUSH0 JUMPDEST DUP3 DUP2 LT ISZERO PUSH3 0x1D72 JUMPI PUSH0 PUSH3 0x1C87 PUSH3 0x1C81 DUP4 DUP8 PUSH3 0x3546 SWAP1 SWAP2 SWAP1 PUSH4 0xFFFFFFFF AND JUMP JUMPDEST PUSH3 0x355F JUMP JUMPDEST SWAP1 POP PUSH1 0x40 MLOAD DUP1 PUSH1 0x80 ADD PUSH1 0x40 MSTORE DUP1 DUP3 PUSH2 0xFFFF AND DUP2 MSTORE PUSH1 0x20 ADD DUP5 PUSH0 DUP5 PUSH2 0xFFFF AND DUP2 MSTORE PUSH1 0x20 ADD SWAP1 DUP2 MSTORE PUSH1 0x20 ADD PUSH0 KECCAK256 PUSH0 ADD PUSH1 0x2 SWAP1 SLOAD SWAP1 PUSH2 0x100 EXP SWAP1 DIV PUSH20 0xFFFFFFFFFFFFFFFFFFFFFFFFFFFFFFFFFFFFFFFF AND PUSH20 0xFFFFFFFFFFFFFFFFFFFFFFFFFFFFFFFFFFFFFFFF AND DUP2 MSTORE PUSH1 0x20 ADD DUP5 PUSH0 DUP5 PUSH2 0xFFFF AND DUP2 MSTORE PUSH1 0x20 ADD SWAP1 DUP2 MSTORE PUSH1 0x20 ADD PUSH0 KECCAK256 PUSH0 ADD PUSH1 0x16 SWAP1 SLOAD SWAP1 PUSH2 0x100 EXP SWAP1 DIV PUSH1 0xFF AND ISZERO ISZERO DUP2 MSTORE PUSH1 0x20 ADD DUP5 PUSH0 DUP5 PUSH2 0xFFFF AND DUP2 MSTORE PUSH1 0x20 ADD SWAP1 DUP2 MSTORE PUSH1 0x20 ADD PUSH0 KECCAK256 PUSH0 ADD PUSH1 0x17 SWAP1 SLOAD SWAP1 PUSH2 0x100 EXP SWAP1 DIV PUSH1 0xFF AND ISZERO ISZERO DUP2 MSTORE POP DUP9 DUP4 DUP2 MLOAD DUP2 LT PUSH3 0x1D5A JUMPI PUSH3 0x1D59 PUSH3 0x52A3 JUMP JUMPDEST JUMPDEST PUSH1 0x20 MUL PUSH1 0x20 ADD ADD DUP2 SWAP1 MSTORE POP POP DUP1 PUSH1 0x1 ADD SWAP1 POP PUSH3 0x1C5E JUMP JUMPDEST POP POP JUMPDEST POP POP POP POP SWAP3 SWAP2 POP POP JUMP JUMPDEST PUSH3 0x1D89 PUSH3 0x2AAE JUMP JUMPDEST PUSH0 DUP1 PUSH3 0x1D97 DUP7 DUP7 PUSH3 0x32FA JUMP JUMPDEST SWAP2 POP SWAP2 POP PUSH0 PUSH1 0x4 PUSH0 DUP5 PUSH20 0xFFFFFFFFFFFFFFFFFFFFFFFFFFFFFFFFFFFFFFFF AND PUSH20 0xFFFFFFFFFFFFFFFFFFFFFFFFFFFFFFFFFFFFFFFF AND DUP2 MSTORE PUSH1 0x20 ADD SWAP1 DUP2 MSTORE PUSH1 0x20 ADD PUSH0 KECCAK256 PUSH0 DUP4 PUSH20 0xFFFFFFFFFFFFFFFFFFFFFFFFFFFFFFFFFFFFFFFF AND PUSH20 0xFFFFFFFFFFFFFFFFFFFFFFFFFFFFFFFFFFFFFFFF AND DUP2 MSTORE PUSH1 0x20 ADD SWAP1 DUP2 MSTORE PUSH1 0x20 ADD PUSH0 KECCAK256 PUSH0 DUP7 PUSH2 0xFFFF AND DUP2 MSTORE PUSH1 0x20 ADD SWAP1 DUP2 MSTORE PUSH1 0x20 ADD PUSH0 KECCAK256 PUSH1 0x40 MLOAD DUP1 PUSH1 0x80 ADD PUSH1 0x40 MSTORE SWAP1 DUP2 PUSH0 DUP3 ADD PUSH0 SWAP1 SLOAD SWAP1 PUSH2 0x100 EXP SWAP1 DIV PUSH2 0xFFFF AND PUSH2 0xFFFF AND PUSH2 0xFFFF AND DUP2 MSTORE PUSH1 0x20 ADD PUSH0 DUP3 ADD PUSH1 0x2 SWAP1 SLOAD SWAP1 PUSH2 0x100 EXP SWAP1 DIV PUSH20 0xFFFFFFFFFFFFFFFFFFFFFFFFFFFFFFFFFFFFFFFF AND PUSH20 0xFFFFFFFFFFFFFFFFFFFFFFFFFFFFFFFFFFFFFFFF AND PUSH20 0xFFFFFFFFFFFFFFFFFFFFFFFFFFFFFFFFFFFFFFFF AND DUP2 MSTORE PUSH1 0x20 ADD PUSH0 DUP3 ADD PUSH1 0x16 SWAP1 SLOAD SWAP1 PUSH2 0x100 EXP SWAP1 DIV PUSH1 0xFF AND ISZERO ISZERO ISZERO ISZERO DUP2 MSTORE PUSH1 0x20 ADD PUSH0 DUP3 ADD PUSH1 0x17 SWAP1 SLOAD SWAP1 PUSH2 0x100 EXP SWAP1 DIV PUSH1 0xFF AND ISZERO ISZERO ISZERO ISZERO DUP2 MSTORE POP POP SWAP1 POP PUSH0 PUSH20 0xFFFFFFFFFFFFFFFFFFFFFFFFFFFFFFFFFFFFFFFF AND DUP2 PUSH1 0x20 ADD MLOAD PUSH20 0xFFFFFFFFFFFFFFFFFFFFFFFFFFFFFFFFFFFFFFFF AND SUB PUSH3 0x1F56 JUMPI DUP7 DUP7 DUP7 PUSH1 0x40 MLOAD PUSH32 0x40AA464400000000000000000000000000000000000000000000000000000000 DUP2 MSTORE PUSH1 0x4 ADD PUSH3 0x1F4D SWAP4 SWAP3 SWAP2 SWAP1 PUSH3 0x5381 JUMP JUMPDEST PUSH1 0x40 MLOAD DUP1 SWAP2 SUB SWAP1 REVERT JUMPDEST DUP4 ISZERO ISZERO DUP2 PUSH1 0x60 ADD MLOAD ISZERO ISZERO SUB PUSH3 0x1F97 JUMPI PUSH1 0x40 MLOAD PUSH31 0xDDCCCA00000000000000000000000000000000000000000000000000000000 DUP2 MSTORE PUSH1 0x4 ADD PUSH1 0x40 MLOAD DUP1 SWAP2 SUB SWAP1 REVERT JUMPDEST DUP4 PUSH1 0x4 PUSH0 DUP6 PUSH20 0xFFFFFFFFFFFFFFFFFFFFFFFFFFFFFFFFFFFFFFFF AND PUSH20 0xFFFFFFFFFFFFFFFFFFFFFFFFFFFFFFFFFFFFFFFF AND DUP2 MSTORE PUSH1 0x20 ADD SWAP1 DUP2 MSTORE PUSH1 0x20 ADD PUSH0 KECCAK256 PUSH0 DUP5 PUSH20 0xFFFFFFFFFFFFFFFFFFFFFFFFFFFFFFFFFFFFFFFF AND PUSH20 0xFFFFFFFFFFFFFFFFFFFFFFFFFFFFFFFFFFFFFFFF AND DUP2 MSTORE PUSH1 0x20 ADD SWAP1 DUP2 MSTORE PUSH1 0x20 ADD PUSH0 KECCAK256 PUSH0 DUP8 PUSH2 0xFFFF AND DUP2 MSTORE PUSH1 0x20 ADD SWAP1 DUP2 MSTORE PUSH1 0x20 ADD PUSH0 KECCAK256 PUSH0 ADD PUSH1 0x17 PUSH2 0x100 EXP DUP2 SLOAD DUP2 PUSH1 0xFF MUL NOT AND SWAP1 DUP4 ISZERO ISZERO MUL OR SWAP1 SSTORE POP DUP1 PUSH1 0x20 ADD MLOAD PUSH20 0xFFFFFFFFFFFFFFFFFFFFFFFFFFFFFFFFFFFFFFFF AND PUSH32 0x44CF35361C9FF3C8C1397EC6410D5495CC481FEAEF35C9AF11DA1A637107DE4F DUP6 PUSH1 0x40 MLOAD PUSH3 0x2088 SWAP2 SWAP1 PUSH3 0x4501 JUMP JUMPDEST PUSH1 0x40 MLOAD DUP1 SWAP2 SUB SWAP1 LOG2 POP POP POP POP POP POP POP JUMP JUMPDEST PUSH0 PUSH1 0x1 SWAP1 POP SWAP1 JUMP JUMPDEST PUSH3 0x20AB PUSH3 0x4411 JUMP JUMPDEST PUSH3 0x20B8 DUP5 DUP5 DUP5 PUSH3 0x2B3E JUMP JUMPDEST SWAP1 POP SWAP4 SWAP3 POP POP POP JUMP JUMPDEST PUSH3 0x20CB PUSH3 0x2AAE JUMP JUMPDEST PUSH3 0x20D6 PUSH0 PUSH3 0x35A6 JUMP JUMPDEST JUMP JUMPDEST PUSH0 PUSH3 0x20E3 PUSH3 0x2F16 JUMP JUMPDEST SWAP1 POP DUP1 PUSH20 0xFFFFFFFFFFFFFFFFFFFFFFFFFFFFFFFFFFFFFFFF AND PUSH3 0x2106 PUSH3 0x27C2 JUMP JUMPDEST PUSH20 0xFFFFFFFFFFFFFFFFFFFFFFFFFFFFFFFFFFFFFFFF AND EQ PUSH3 0x2161 JUMPI DUP1 PUSH1 0x40 MLOAD PUSH32 0x118CDAA700000000000000000000000000000000000000000000000000000000 DUP2 MSTORE PUSH1 0x4 ADD PUSH3 0x2158 SWAP2 SWAP1 PUSH3 0x4CF8 JUMP JUMPDEST PUSH1 0x40 MLOAD DUP1 SWAP2 SUB SWAP1 REVERT JUMPDEST PUSH3 0x216C DUP2 PUSH3 0x35A6 JUMP JUMPDEST POP JUMP JUMPDEST PUSH0 PUSH1 0x3 DUP3 DUP2 SLOAD DUP2 LT PUSH3 0x2187 JUMPI PUSH3 0x2186 PUSH3 0x52A3 JUMP JUMPDEST JUMPDEST SWAP1 PUSH0 MSTORE PUSH1 0x20 PUSH0 KECCAK256 ADD PUSH0 SWAP1 SLOAD SWAP1 PUSH2 0x100 EXP SWAP1 DIV PUSH20 0xFFFFFFFFFFFFFFFFFFFFFFFFFFFFFFFFFFFFFFFF AND SWAP1 POP SWAP2 SWAP1 POP JUMP JUMPDEST PUSH0 PUSH3 0x21C3 PUSH1 0x8 PUSH3 0x35E7 JUMP JUMPDEST SWAP1 POP SWAP1 JUMP JUMPDEST PUSH0 PUSH8 0x16345785D8A0000 SWAP1 POP SWAP1 JUMP JUMPDEST PUSH0 DUP1 PUSH3 0x21E3 PUSH3 0x35FC JUMP JUMPDEST SWAP1 POP DUP1 PUSH0 ADD PUSH0 SWAP1 SLOAD SWAP1 PUSH2 0x100 EXP SWAP1 DIV PUSH20 0xFFFFFFFFFFFFFFFFFFFFFFFFFFFFFFFFFFFFFFFF AND SWAP2 POP POP SWAP1 JUMP JUMPDEST PUSH0 DUP1 PUSH0 SHL DUP4 SUB PUSH3 0x2259 JUMPI PUSH3 0x2223 PUSH3 0x21D7 JUMP JUMPDEST PUSH20 0xFFFFFFFFFFFFFFFFFFFFFFFFFFFFFFFFFFFFFFFF AND DUP3 PUSH20 0xFFFFFFFFFFFFFFFFFFFFFFFFFFFFFFFFFFFFFFFF AND EQ SWAP1 POP PUSH3 0x2268 JUMP JUMPDEST PUSH3 0x2265 DUP4 DUP4 PUSH3 0x3623 JUMP JUMPDEST SWAP1 POP JUMPDEST SWAP3 SWAP2 POP POP JUMP JUMPDEST PUSH0 PUSH1 0x2 PUSH0 SWAP1 SLOAD SWAP1 PUSH2 0x100 EXP SWAP1 DIV PUSH20 0xFFFFFFFFFFFFFFFFFFFFFFFFFFFFFFFFFFFFFFFF AND SWAP1 POP SWAP1 JUMP JUMPDEST PUSH0 DUP1 SHL DUP2 JUMP JUMPDEST PUSH0 DUP1 PUSH0 DUP1 PUSH0 DUP1 PUSH0 DUP1 PUSH3 0x22BA DUP10 PUSH1 0x5 PUSH3 0x322B SWAP1 SWAP2 SWAP1 PUSH4 0xFFFFFFFF AND JUMP JUMPDEST PUSH3 0x22FE JUMPI DUP9 PUSH1 0x40 MLOAD PUSH32 0xFB22C17E00000000000000000000000000000000000000000000000000000000 DUP2 MSTORE PUSH1 0x4 ADD PUSH3 0x22F5 SWAP2 SWAP1 PUSH3 0x4D69 JUMP JUMPDEST PUSH1 0x40 MLOAD DUP1 SWAP2 SUB SWAP1 REVERT JUMPDEST PUSH0 PUSH3 0x2315 DUP11 PUSH1 0x5 PUSH3 0x3244 SWAP1 SWAP2 SWAP1 PUSH4 0xFFFFFFFF AND JUMP JUMPDEST PUSH0 SHL SWAP1 POP PUSH3 0x2324 DUP2 PUSH3 0x3349 JUMP JUMPDEST PUSH2 0xFFFF AND SWAP9 POP PUSH3 0x2335 DUP2 PUSH3 0x3366 JUMP JUMPDEST PUSH2 0xFFFF AND SWAP8 POP PUSH3 0x2346 DUP2 PUSH3 0x3384 JUMP JUMPDEST PUSH2 0xFFFF AND SWAP7 POP PUSH3 0x2357 DUP2 PUSH3 0x33A2 JUMP JUMPDEST PUSH2 0xFFFF AND SWAP6 POP PUSH3 0x2368 DUP2 PUSH3 0x33C0 JUMP JUMPDEST PUSH3 0xFFFFFF AND SWAP5 POP PUSH3 0x237A DUP2 PUSH3 0x33DE JUMP JUMPDEST PUSH2 0xFFFF AND SWAP4 POP PUSH3 0x238B DUP2 PUSH3 0x33FC JUMP JUMPDEST PUSH3 0xFFFFFF AND SWAP3 POP PUSH3 0x23A8 PUSH1 0xFF DUP3 PUSH3 0x325F SWAP1 SWAP2 SWAP1 PUSH4 0xFFFFFFFF AND JUMP JUMPDEST SWAP2 POP POP SWAP2 SWAP4 SWAP6 SWAP8 POP SWAP2 SWAP4 SWAP6 SWAP8 JUMP JUMPDEST PUSH0 PUSH3 0x23C1 PUSH3 0x3696 JUMP JUMPDEST SWAP1 POP PUSH0 DUP2 PUSH0 ADD PUSH1 0x8 SWAP1 SLOAD SWAP1 PUSH2 0x100 EXP SWAP1 DIV PUSH1 0xFF AND ISZERO SWAP1 POP PUSH0 DUP3 PUSH0 ADD PUSH0 SWAP1 SLOAD SWAP1 PUSH2 0x100 EXP SWAP1 DIV PUSH8 0xFFFFFFFFFFFFFFFF AND SWAP1 POP PUSH0 DUP1 DUP3 PUSH8 0xFFFFFFFFFFFFFFFF AND EQ DUP1 ISZERO PUSH3 0x240A JUMPI POP DUP3 JUMPDEST SWAP1 POP PUSH0 PUSH1 0x1 DUP4 PUSH8 0xFFFFFFFFFFFFFFFF AND EQ DUP1 ISZERO PUSH3 0x243E JUMPI POP PUSH0 ADDRESS PUSH20 0xFFFFFFFFFFFFFFFFFFFFFFFFFFFFFFFFFFFFFFFF AND EXTCODESIZE EQ JUMPDEST SWAP1 POP DUP2 ISZERO DUP1 ISZERO PUSH3 0x244D JUMPI POP DUP1 ISZERO JUMPDEST ISZERO PUSH3 0x2485 JUMPI PUSH1 0x40 MLOAD PUSH32 0xF92EE8A900000000000000000000000000000000000000000000000000000000 DUP2 MSTORE PUSH1 0x4 ADD PUSH1 0x40 MLOAD DUP1 SWAP2 SUB SWAP1 REVERT JUMPDEST PUSH1 0x1 DUP6 PUSH0 ADD PUSH0 PUSH2 0x100 EXP DUP2 SLOAD DUP2 PUSH8 0xFFFFFFFFFFFFFFFF MUL NOT AND SWAP1 DUP4 PUSH8 0xFFFFFFFFFFFFFFFF AND MUL OR SWAP1 SSTORE POP DUP4 ISZERO PUSH3 0x24D3 JUMPI PUSH1 0x1 DUP6 PUSH0 ADD PUSH1 0x8 PUSH2 0x100 EXP DUP2 SLOAD DUP2 PUSH1 0xFF MUL NOT AND SWAP1 DUP4 ISZERO ISZERO MUL OR SWAP1 SSTORE POP JUMPDEST PUSH3 0x24DE DUP9 PUSH3 0x36BD JUMP JUMPDEST PUSH8 0x16345785D8A0000 DUP8 GT ISZERO PUSH3 0x2538 JUMPI DUP7 PUSH8 0x16345785D8A0000 PUSH1 0x40 MLOAD PUSH32 0x5E8988C100000000000000000000000000000000000000000000000000000000 DUP2 MSTORE PUSH1 0x4 ADD PUSH3 0x252F SWAP3 SWAP2 SWAP1 PUSH3 0x5869 JUMP JUMPDEST PUSH1 0x40 MLOAD DUP1 SWAP2 SUB SWAP1 REVERT JUMPDEST PUSH3 0x2543 DUP10 PUSH3 0x36D5 JUMP JUMPDEST DUP7 PUSH1 0x1 DUP2 SWAP1 SSTORE POP DUP6 PUSH1 0x2 PUSH0 PUSH2 0x100 EXP DUP2 SLOAD DUP2 PUSH20 0xFFFFFFFFFFFFFFFFFFFFFFFFFFFFFFFFFFFFFFFF MUL NOT AND SWAP1 DUP4 PUSH20 0xFFFFFFFFFFFFFFFFFFFFFFFFFFFFFFFFFFFFFFFF AND MUL OR SWAP1 SSTORE POP PUSH32 0x5C34E91C94C78B662A45D0BD4A25A4E32C584C54A45A76E4A4D43BE27BA40E50 PUSH0 DUP9 PUSH1 0x40 MLOAD PUSH3 0x25BD SWAP3 SWAP2 SWAP1 PUSH3 0x58D5 JUMP JUMPDEST PUSH1 0x40 MLOAD DUP1 SWAP2 SUB SWAP1 LOG1 DUP4 ISZERO PUSH3 0x2622 JUMPI PUSH0 DUP6 PUSH0 ADD PUSH1 0x8 PUSH2 0x100 EXP DUP2 SLOAD DUP2 PUSH1 0xFF MUL NOT AND SWAP1 DUP4 ISZERO ISZERO MUL OR SWAP1 SSTORE POP PUSH32 0xC7F505B2F371AE2175EE4913F4499E1F2633A7B5936321EED1CDAEB6115181D2 PUSH1 0x1 PUSH1 0x40 MLOAD PUSH3 0x2619 SWAP2 SWAP1 PUSH3 0x5954 JUMP JUMPDEST PUSH1 0x40 MLOAD DUP1 SWAP2 SUB SWAP1 LOG1 JUMPDEST POP POP POP POP POP POP POP POP POP JUMP JUMPDEST PUSH0 PUSH32 0x9DAAD794D31BFFEA33C7C571B462185CBD402366F4696E49C91BE26E9222BB9D SWAP1 POP SWAP1 JUMP JUMPDEST PUSH3 0x265F DUP3 PUSH3 0xBE7 JUMP JUMPDEST PUSH3 0x266A DUP2 PUSH3 0x2CF4 JUMP JUMPDEST PUSH3 0x2676 DUP4 DUP4 PUSH3 0x2F1D JUMP JUMPDEST POP POP POP POP JUMP JUMPDEST PUSH3 0x2686 PUSH3 0x2AAE JUMP JUMPDEST PUSH3 0x269C DUP2 PUSH1 0x8 PUSH3 0x386F SWAP1 SWAP2 SWAP1 PUSH4 0xFFFFFFFF AND JUMP JUMPDEST PUSH3 0x26E0 JUMPI DUP1 PUSH1 0x40 MLOAD PUSH32 0x8E888EF300000000000000000000000000000000000000000000000000000000 DUP2 MSTORE PUSH1 0x4 ADD PUSH3 0x26D7 SWAP2 SWAP1 PUSH3 0x46F3 JUMP JUMPDEST PUSH1 0x40 MLOAD DUP1 SWAP2 SUB SWAP1 REVERT JUMPDEST DUP1 PUSH20 0xFFFFFFFFFFFFFFFFFFFFFFFFFFFFFFFFFFFFFFFF AND PUSH32 0xB767739217755D8AF5A2BA75B181A19FA1750F8BB701F09311CB19A90140CB3 PUSH1 0x40 MLOAD PUSH1 0x40 MLOAD DUP1 SWAP2 SUB SWAP1 LOG2 POP JUMP JUMPDEST PUSH3 0x2730 PUSH3 0x2AAE JUMP JUMPDEST PUSH3 0x274A DUP2 PUSH2 0xFFFF AND PUSH1 0x5 PUSH3 0x389E SWAP1 SWAP2 SWAP1 PUSH4 0xFFFFFFFF AND JUMP JUMPDEST PUSH3 0x278E JUMPI DUP1 PUSH1 0x40 MLOAD PUSH32 0xFB22C17E00000000000000000000000000000000000000000000000000000000 DUP2 MSTORE PUSH1 0x4 ADD PUSH3 0x2785 SWAP2 SWAP1 PUSH3 0x5459 JUMP JUMPDEST PUSH1 0x40 MLOAD DUP1 SWAP2 SUB SWAP1 REVERT JUMPDEST DUP1 PUSH2 0xFFFF AND PUSH32 0xDD86B848BB56FF540CAA68683FA467D0E7EB5F8B2D44E4EE435742EEEAE9BE13 PUSH1 0x40 MLOAD PUSH1 0x40 MLOAD DUP1 SWAP2 SUB SWAP1 LOG2 POP JUMP JUMPDEST PUSH0 DUP1 PUSH3 0x27CE PUSH3 0x38B7 JUMP JUMPDEST SWAP1 POP DUP1 PUSH0 ADD PUSH0 SWAP1 SLOAD SWAP1 PUSH2 0x100 EXP SWAP1 DIV PUSH20 0xFFFFFFFFFFFFFFFFFFFFFFFFFFFFFFFFFFFFFFFF AND SWAP2 POP POP SWAP1 JUMP JUMPDEST PUSH3 0x2803 PUSH3 0x2AAE JUMP JUMPDEST PUSH3 0x280E DUP2 PUSH3 0x36D5 JUMP JUMPDEST POP JUMP JUMPDEST PUSH3 0x281B PUSH3 0x2AAE JUMP JUMPDEST PUSH0 PUSH1 0x1 SLOAD SWAP1 POP DUP2 DUP2 SUB PUSH3 0x2868 JUMPI DUP2 PUSH1 0x40 MLOAD PUSH32 0x6EA8C7A400000000000000000000000000000000000000000000000000000000 DUP2 MSTORE PUSH1 0x4 ADD PUSH3 0x285F SWAP2 SWAP1 PUSH3 0x4D69 JUMP JUMPDEST PUSH1 0x40 MLOAD DUP1 SWAP2 SUB SWAP1 REVERT JUMPDEST PUSH8 0x16345785D8A0000 DUP3 GT ISZERO PUSH3 0x28C2 JUMPI DUP2 PUSH8 0x16345785D8A0000 PUSH1 0x40 MLOAD PUSH32 0x5E8988C100000000000000000000000000000000000000000000000000000000 DUP2 MSTORE PUSH1 0x4 ADD PUSH3 0x28B9 SWAP3 SWAP2 SWAP1 PUSH3 0x5869 JUMP JUMPDEST PUSH1 0x40 MLOAD DUP1 SWAP2 SUB SWAP1 REVERT JUMPDEST DUP2 PUSH1 0x1 DUP2 SWAP1 SSTORE POP PUSH32 0x5C34E91C94C78B662A45D0BD4A25A4E32C584C54A45A76E4A4D43BE27BA40E50 DUP2 DUP4 PUSH1 0x40 MLOAD PUSH3 0x28FC SWAP3 SWAP2 SWAP1 PUSH3 0x5869 JUMP JUMPDEST PUSH1 0x40 MLOAD DUP1 SWAP2 SUB SWAP1 LOG1 POP POP JUMP JUMPDEST PUSH3 0x2912 PUSH3 0x2AAE JUMP JUMPDEST PUSH0 PUSH3 0x291D PUSH3 0x38B7 JUMP JUMPDEST SWAP1 POP DUP2 DUP2 PUSH0 ADD PUSH0 PUSH2 0x100 EXP DUP2 SLOAD DUP2 PUSH20 0xFFFFFFFFFFFFFFFFFFFFFFFFFFFFFFFFFFFFFFFF MUL NOT AND SWAP1 DUP4 PUSH20 0xFFFFFFFFFFFFFFFFFFFFFFFFFFFFFFFFFFFFFFFF AND MUL OR SWAP1 SSTORE POP DUP2 PUSH20 0xFFFFFFFFFFFFFFFFFFFFFFFFFFFFFFFFFFFFFFFF AND PUSH3 0x2981 PUSH3 0x21D7 JUMP JUMPDEST PUSH20 0xFFFFFFFFFFFFFFFFFFFFFFFFFFFFFFFFFFFFFFFF AND PUSH32 0x38D16B8CAC22D99FC7C124B9CD0DE2D3FA1FAEF420BFE791D8C362D765E22700 PUSH1 0x40 MLOAD PUSH1 0x40 MLOAD DUP1 SWAP2 SUB SWAP1 LOG3 POP POP JUMP JUMPDEST PUSH0 PUSH1 0x1 SLOAD SWAP1 POP SWAP1 JUMP JUMPDEST PUSH0 PUSH32 0x1FFC9A700000000000000000000000000000000000000000000000000000000 PUSH28 0xFFFFFFFFFFFFFFFFFFFFFFFFFFFFFFFFFFFFFFFFFFFFFFFFFFFFFFFF NOT AND DUP3 PUSH28 0xFFFFFFFFFFFFFFFFFFFFFFFFFFFFFFFFFFFFFFFFFFFFFFFFFFFFFFFF NOT AND EQ SWAP1 POP SWAP2 SWAP1 POP JUMP JUMPDEST PUSH0 PUSH3 0x2A47 DUP3 PUSH0 ADD PUSH3 0x38DE JUMP JUMPDEST SWAP1 POP SWAP2 SWAP1 POP JUMP JUMPDEST PUSH0 DUP1 PUSH0 DUP1 PUSH3 0x2A60 DUP7 PUSH0 ADD DUP7 PUSH3 0x38F3 JUMP JUMPDEST SWAP2 POP SWAP2 POP DUP2 PUSH0 SHR DUP2 PUSH0 SHR SWAP4 POP SWAP4 POP POP POP SWAP3 POP SWAP3 SWAP1 POP JUMP JUMPDEST PUSH0 PUSH3 0x2A8E PUSH1 0xFF DUP4 PUSH3 0x325F SWAP1 SWAP2 SWAP1 PUSH4 0xFFFFFFFF AND JUMP JUMPDEST SWAP1 POP SWAP2 SWAP1 POP JUMP JUMPDEST PUSH0 PUSH3 0x2AA4 DUP4 PUSH0 ADD DUP4 PUSH3 0x3930 JUMP JUMPDEST PUSH0 SHR SWAP1 POP SWAP3 SWAP2 POP POP JUMP JUMPDEST PUSH3 0x2AB8 PUSH3 0x2F16 JUMP JUMPDEST PUSH20 0xFFFFFFFFFFFFFFFFFFFFFFFFFFFFFFFFFFFFFFFF AND PUSH3 0x2AD8 PUSH3 0x21D7 JUMP JUMPDEST PUSH20 0xFFFFFFFFFFFFFFFFFFFFFFFFFFFFFFFFFFFFFFFF AND EQ PUSH3 0x2B3C JUMPI PUSH3 0x2AFE PUSH3 0x2F16 JUMP JUMPDEST PUSH1 0x40 MLOAD PUSH32 0x118CDAA700000000000000000000000000000000000000000000000000000000 DUP2 MSTORE PUSH1 0x4 ADD PUSH3 0x2B33 SWAP2 SWAP1 PUSH3 0x4CF8 JUMP JUMPDEST PUSH1 0x40 MLOAD DUP1 SWAP2 SUB SWAP1 REVERT JUMPDEST JUMP JUMPDEST PUSH3 0x2B48 PUSH3 0x4411 JUMP JUMPDEST PUSH3 0x2B54 DUP5 DUP5 PUSH3 0x32FA JUMP JUMPDEST DUP1 SWAP5 POP DUP2 SWAP6 POP POP POP PUSH1 0x4 PUSH0 DUP6 PUSH20 0xFFFFFFFFFFFFFFFFFFFFFFFFFFFFFFFFFFFFFFFF AND PUSH20 0xFFFFFFFFFFFFFFFFFFFFFFFFFFFFFFFFFFFFFFFF AND DUP2 MSTORE PUSH1 0x20 ADD SWAP1 DUP2 MSTORE PUSH1 0x20 ADD PUSH0 KECCAK256 PUSH0 DUP5 PUSH20 0xFFFFFFFFFFFFFFFFFFFFFFFFFFFFFFFFFFFFFFFF AND PUSH20 0xFFFFFFFFFFFFFFFFFFFFFFFFFFFFFFFFFFFFFFFF AND DUP2 MSTORE PUSH1 0x20 ADD SWAP1 DUP2 MSTORE PUSH1 0x20 ADD PUSH0 KECCAK256 PUSH0 DUP4 DUP2 MSTORE PUSH1 0x20 ADD SWAP1 DUP2 MSTORE PUSH1 0x20 ADD PUSH0 KECCAK256 PUSH1 0x40 MLOAD DUP1 PUSH1 0x80 ADD PUSH1 0x40 MSTORE SWAP1 DUP2 PUSH0 DUP3 ADD PUSH0 SWAP1 SLOAD SWAP1 PUSH2 0x100 EXP SWAP1 DIV PUSH2 0xFFFF AND PUSH2 0xFFFF AND PUSH2 0xFFFF AND DUP2 MSTORE PUSH1 0x20 ADD PUSH0 DUP3 ADD PUSH1 0x2 SWAP1 SLOAD SWAP1 PUSH2 0x100 EXP SWAP1 DIV PUSH20 0xFFFFFFFFFFFFFFFFFFFFFFFFFFFFFFFFFFFFFFFF AND PUSH20 0xFFFFFFFFFFFFFFFFFFFFFFFFFFFFFFFFFFFFFFFF AND PUSH20 0xFFFFFFFFFFFFFFFFFFFFFFFFFFFFFFFFFFFFFFFF AND DUP2 MSTORE PUSH1 0x20 ADD PUSH0 DUP3 ADD PUSH1 0x16 SWAP1 SLOAD SWAP1 PUSH2 0x100 EXP SWAP1 DIV PUSH1 0xFF AND ISZERO ISZERO ISZERO ISZERO DUP2 MSTORE PUSH1 0x20 ADD PUSH0 DUP3 ADD PUSH1 0x17 SWAP1 SLOAD SWAP1 PUSH2 0x100 EXP SWAP1 DIV PUSH1 0xFF AND ISZERO ISZERO ISZERO ISZERO DUP2 MSTORE POP POP SWAP1 POP SWAP4 SWAP3 POP POP POP JUMP JUMPDEST PUSH0 PUSH32 0x2DD7BC7DEC4DCEEDDA775E58DD541E08A116C6C53815C0BD028192F7B626800 SWAP1 POP SWAP1 JUMP JUMPDEST PUSH0 PUSH3 0x2CEC DUP4 PUSH0 ADD DUP4 PUSH20 0xFFFFFFFFFFFFFFFFFFFFFFFFFFFFFFFFFFFFFFFF AND PUSH0 SHL PUSH3 0x395A JUMP JUMPDEST SWAP1 POP SWAP3 SWAP2 POP POP JUMP JUMPDEST PUSH3 0x2D09 DUP2 PUSH3 0x2D03 PUSH3 0x2F16 JUMP JUMPDEST PUSH3 0x397A JUMP JUMPDEST POP JUMP JUMPDEST PUSH0 PUSH3 0x2D1E DUP7 DUP7 DUP7 PUSH2 0xFFFF AND PUSH3 0x2B3E JUMP JUMPDEST PUSH1 0x20 ADD MLOAD SWAP1 POP PUSH0 PUSH20 0xFFFFFFFFFFFFFFFFFFFFFFFFFFFFFFFFFFFFFFFF AND DUP2 PUSH20 0xFFFFFFFFFFFFFFFFFFFFFFFFFFFFFFFFFFFFFFFF AND SUB PUSH3 0x2D9B JUMPI DUP6 DUP6 DUP6 PUSH1 0x40 MLOAD PUSH32 0xB65EE95300000000000000000000000000000000000000000000000000000000 DUP2 MSTORE PUSH1 0x4 ADD PUSH3 0x2D92 SWAP4 SWAP3 SWAP2 SWAP1 PUSH3 0x5381 JUMP JUMPDEST PUSH1 0x40 MLOAD DUP1 SWAP2 SUB SWAP1 REVERT JUMPDEST DUP3 DUP2 PUSH20 0xFFFFFFFFFFFFFFFFFFFFFFFFFFFFFFFFFFFFFFFF AND PUSH4 0x781A8915 PUSH1 0x40 MLOAD DUP2 PUSH4 0xFFFFFFFF AND PUSH1 0xE0 SHL DUP2 MSTORE PUSH1 0x4 ADD PUSH1 0x20 PUSH1 0x40 MLOAD DUP1 DUP4 SUB DUP2 DUP7 GAS STATICCALL ISZERO DUP1 ISZERO PUSH3 0x2DE6 JUMPI RETURNDATASIZE PUSH0 DUP1 RETURNDATACOPY RETURNDATASIZE PUSH0 REVERT JUMPDEST POP POP POP POP PUSH1 0x40 MLOAD RETURNDATASIZE PUSH1 0x1F NOT PUSH1 0x1F DUP3 ADD AND DUP3 ADD DUP1 PUSH1 0x40 MSTORE POP DUP2 ADD SWAP1 PUSH3 0x2E0C SWAP2 SWAP1 PUSH3 0x5985 JUMP JUMPDEST SUB PUSH3 0x2E51 JUMPI DUP3 PUSH1 0x40 MLOAD PUSH32 0xB70CD0DB00000000000000000000000000000000000000000000000000000000 DUP2 MSTORE PUSH1 0x4 ADD PUSH3 0x2E48 SWAP2 SWAP1 PUSH3 0x48E6 JUMP JUMPDEST PUSH1 0x40 MLOAD DUP1 SWAP2 SUB SWAP1 REVERT JUMPDEST DUP1 PUSH20 0xFFFFFFFFFFFFFFFFFFFFFFFFFFFFFFFFFFFFFFFF AND PUSH4 0x1B057F6D DUP5 DUP5 PUSH1 0x40 MLOAD DUP4 PUSH4 0xFFFFFFFF AND PUSH1 0xE0 SHL DUP2 MSTORE PUSH1 0x4 ADD PUSH3 0x2E8E SWAP3 SWAP2 SWAP1 PUSH3 0x59B5 JUMP JUMPDEST PUSH0 PUSH1 0x40 MLOAD DUP1 DUP4 SUB DUP2 PUSH0 DUP8 DUP1 EXTCODESIZE ISZERO DUP1 ISZERO PUSH3 0x2EA6 JUMPI PUSH0 DUP1 REVERT JUMPDEST POP GAS CALL ISZERO DUP1 ISZERO PUSH3 0x2EB9 JUMPI RETURNDATASIZE PUSH0 DUP1 RETURNDATACOPY RETURNDATASIZE PUSH0 REVERT JUMPDEST POP POP POP POP POP POP POP POP POP POP JUMP JUMPDEST PUSH0 DUP1 PUSH0 SHL DUP4 SUB PUSH3 0x2F02 JUMPI PUSH1 0x40 MLOAD PUSH32 0x7C64A79E00000000000000000000000000000000000000000000000000000000 DUP2 MSTORE PUSH1 0x4 ADD PUSH1 0x40 MLOAD DUP1 SWAP2 SUB SWAP1 REVERT JUMPDEST PUSH3 0x2F0E DUP4 DUP4 PUSH3 0x39D0 JUMP JUMPDEST SWAP1 POP SWAP3 SWAP2 POP POP JUMP JUMPDEST PUSH0 CALLER SWAP1 POP SWAP1 JUMP JUMPDEST PUSH0 DUP1 PUSH3 0x2F29 PUSH3 0x2C9E JUMP JUMPDEST SWAP1 POP PUSH3 0x2F37 DUP5 DUP5 PUSH3 0x220E JUMP JUMPDEST ISZERO PUSH3 0x3012 JUMPI PUSH0 DUP2 PUSH0 ADD PUSH0 DUP7 DUP2 MSTORE PUSH1 0x20 ADD SWAP1 DUP2 MSTORE PUSH1 0x20 ADD PUSH0 KECCAK256 PUSH0 ADD PUSH0 DUP6 PUSH20 0xFFFFFFFFFFFFFFFFFFFFFFFFFFFFFFFFFFFFFFFF AND PUSH20 0xFFFFFFFFFFFFFFFFFFFFFFFFFFFFFFFFFFFFFFFF AND DUP2 MSTORE PUSH1 0x20 ADD SWAP1 DUP2 MSTORE PUSH1 0x20 ADD PUSH0 KECCAK256 PUSH0 PUSH2 0x100 EXP DUP2 SLOAD DUP2 PUSH1 0xFF MUL NOT AND SWAP1 DUP4 ISZERO ISZERO MUL OR SWAP1 SSTORE POP PUSH3 0x2FAD PUSH3 0x2F16 JUMP JUMPDEST PUSH20 0xFFFFFFFFFFFFFFFFFFFFFFFFFFFFFFFFFFFFFFFF AND DUP4 PUSH20 0xFFFFFFFFFFFFFFFFFFFFFFFFFFFFFFFFFFFFFFFF AND DUP6 PUSH32 0xF6391F5C32D9C69D2A47EA670B442974B53935D1EDC7FD64EB21E047A839171B PUSH1 0x40 MLOAD PUSH1 0x40 MLOAD DUP1 SWAP2 SUB SWAP1 LOG4 PUSH1 0x1 SWAP2 POP POP PUSH3 0x3017 JUMP JUMPDEST PUSH0 SWAP2 POP POP JUMPDEST SWAP3 SWAP2 POP POP JUMP JUMPDEST PUSH0 DUP6 PUSH2 0xFFFF AND DUP8 PUSH2 0xFFFF AND GT DUP1 PUSH3 0x303A JUMPI POP PUSH2 0xFFF DUP7 PUSH2 0xFFFF AND GT JUMPDEST DUP1 PUSH3 0x304B JUMPI POP PUSH2 0x2710 DUP6 PUSH2 0xFFFF AND GT JUMPDEST DUP1 PUSH3 0x305C JUMPI POP PUSH2 0x9C4 DUP4 PUSH2 0xFFFF AND GT JUMPDEST DUP1 PUSH3 0x306F JUMPI POP PUSH3 0xFFFFF DUP3 PUSH3 0xFFFFFF AND GT JUMPDEST ISZERO PUSH3 0x30A7 JUMPI PUSH1 0x40 MLOAD PUSH32 0x1C07203F00000000000000000000000000000000000000000000000000000000 DUP2 MSTORE PUSH1 0x4 ADD PUSH1 0x40 MLOAD DUP1 SWAP2 SUB SWAP1 REVERT JUMPDEST PUSH3 0x30C6 DUP9 PUSH2 0xFFFF AND PUSH2 0xFFFF PUSH0 DUP5 PUSH3 0x3AD0 SWAP1 SWAP4 SWAP3 SWAP2 SWAP1 PUSH4 0xFFFFFFFF AND JUMP JUMPDEST SWAP1 POP PUSH3 0x30E8 DUP8 PUSH2 0xFFFF AND PUSH2 0xFFF PUSH1 0x10 DUP5 PUSH3 0x3AD0 SWAP1 SWAP4 SWAP3 SWAP2 SWAP1 PUSH4 0xFFFFFFFF AND JUMP JUMPDEST SWAP1 POP PUSH3 0x310A DUP7 PUSH2 0xFFFF AND PUSH2 0xFFF PUSH1 0x1C DUP5 PUSH3 0x3AD0 SWAP1 SWAP4 SWAP3 SWAP2 SWAP1 PUSH4 0xFFFFFFFF AND JUMP JUMPDEST SWAP1 POP PUSH3 0x312C DUP6 PUSH2 0xFFFF AND PUSH2 0x3FFF PUSH1 0x28 DUP5 PUSH3 0x3AD0 SWAP1 SWAP4 SWAP3 SWAP2 SWAP1 PUSH4 0xFFFFFFFF AND JUMP JUMPDEST SWAP1 POP PUSH3 0x3150 DUP5 PUSH3 0xFFFFFF AND PUSH3 0xFFFFFF PUSH1 0x36 DUP5 PUSH3 0x3AD0 SWAP1 SWAP4 SWAP3 SWAP2 SWAP1 PUSH4 0xFFFFFFFF AND JUMP JUMPDEST SWAP1 POP PUSH3 0x3172 DUP4 PUSH2 0xFFFF AND PUSH2 0x3FFF PUSH1 0x4E DUP5 PUSH3 0x3AD0 SWAP1 SWAP4 SWAP3 SWAP2 SWAP1 PUSH4 0xFFFFFFFF AND JUMP JUMPDEST SWAP1 POP PUSH3 0x3196 DUP3 PUSH3 0xFFFFFF AND PUSH3 0xFFFFF PUSH1 0x5C DUP5 PUSH3 0x3AD0 SWAP1 SWAP4 SWAP3 SWAP2 SWAP1 PUSH4 0xFFFFFFFF AND JUMP JUMPDEST SWAP1 POP PUSH3 0x31C1 DUP2 PUSH0 SHR PUSH14 0xFFFFFFFFFFFFFFFFFFFFFFFFFFFF PUSH0 DUP13 PUSH3 0x3AD0 SWAP1 SWAP4 SWAP3 SWAP2 SWAP1 PUSH4 0xFFFFFFFF AND JUMP JUMPDEST SWAP1 POP SWAP9 SWAP8 POP POP POP POP POP POP POP POP JUMP JUMPDEST PUSH0 PUSH3 0x31F1 DUP5 DUP5 PUSH3 0x31E2 JUMPI PUSH0 PUSH3 0x31E5 JUMP JUMPDEST PUSH1 0x1 JUMPDEST PUSH1 0xFF AND PUSH1 0x1 DUP6 PUSH3 0x3AD0 JUMP JUMPDEST SWAP1 POP SWAP4 SWAP3 POP POP POP JUMP JUMPDEST PUSH0 PUSH3 0x320E DUP5 PUSH0 ADD DUP5 PUSH0 SHL DUP5 PUSH0 SHL PUSH3 0x3AEA JUMP JUMPDEST SWAP1 POP SWAP4 SWAP3 POP POP POP JUMP JUMPDEST PUSH0 DUP2 PUSH0 SHR SWAP1 POP SWAP2 SWAP1 POP JUMP JUMPDEST PUSH0 DUP2 SWAP1 POP SWAP2 SWAP1 POP JUMP JUMPDEST PUSH0 PUSH3 0x323C DUP4 PUSH0 ADD DUP4 PUSH0 SHL PUSH3 0x3B23 JUMP JUMPDEST SWAP1 POP SWAP3 SWAP2 POP POP JUMP JUMPDEST PUSH0 PUSH3 0x3255 DUP4 PUSH0 ADD DUP4 PUSH0 SHL PUSH3 0x3B43 JUMP JUMPDEST PUSH0 SHR SWAP1 POP SWAP3 SWAP2 POP POP JUMP JUMPDEST PUSH0 PUSH1 0x1 DUP4 DUP4 SHR AND SWAP1 POP SWAP3 SWAP2 POP POP JUMP JUMPDEST PUSH0 PUSH3 0x3295 DUP4 PUSH0 ADD DUP4 PUSH20 0xFFFFFFFFFFFFFFFFFFFFFFFFFFFFFFFFFFFFFFFF AND PUSH0 SHL PUSH3 0x3BC5 JUMP JUMPDEST SWAP1 POP SWAP3 SWAP2 POP POP JUMP JUMPDEST PUSH1 0x60 PUSH0 PUSH3 0x32AD DUP4 PUSH0 ADD PUSH3 0x3C30 JUMP JUMPDEST SWAP1 POP PUSH1 0x60 DUP2 SWAP1 POP DUP1 SWAP3 POP POP POP SWAP2 SWAP1 POP JUMP JUMPDEST PUSH0 DUP1 PUSH3 0x32CB DUP4 PUSH3 0x3C46 JUMP JUMPDEST SWAP1 POP PUSH0 PUSH3 0x32D9 DUP6 PUSH3 0x3C79 JUMP JUMPDEST SWAP1 POP PUSH3 0x32F0 DUP2 DUP4 PUSH3 0x3C8C SWAP1 SWAP2 SWAP1 PUSH4 0xFFFFFFFF AND JUMP JUMPDEST SWAP3 POP POP POP SWAP3 SWAP2 POP POP JUMP JUMPDEST PUSH0 DUP1 DUP3 PUSH20 0xFFFFFFFFFFFFFFFFFFFFFFFFFFFFFFFFFFFFFFFF AND DUP5 PUSH20 0xFFFFFFFFFFFFFFFFFFFFFFFFFFFFFFFFFFFFFFFF AND GT ISZERO PUSH3 0x333C JUMPI DUP3 DUP5 DUP1 SWAP5 POP DUP2 SWAP6 POP POP POP JUMPDEST DUP4 DUP4 SWAP2 POP SWAP2 POP SWAP3 POP SWAP3 SWAP1 POP JUMP JUMPDEST PUSH0 PUSH3 0x335F PUSH0 DUP4 PUSH3 0x3FB2 SWAP1 SWAP2 SWAP1 PUSH4 0xFFFFFFFF AND JUMP JUMPDEST SWAP1 POP SWAP2 SWAP1 POP JUMP JUMPDEST PUSH0 PUSH3 0x337D PUSH1 0x10 DUP4 PUSH3 0x3FC2 SWAP1 SWAP2 SWAP1 PUSH4 0xFFFFFFFF AND JUMP JUMPDEST SWAP1 POP SWAP2 SWAP1 POP JUMP JUMPDEST PUSH0 PUSH3 0x339B PUSH1 0x1C DUP4 PUSH3 0x3FC2 SWAP1 SWAP2 SWAP1 PUSH4 0xFFFFFFFF AND JUMP JUMPDEST SWAP1 POP SWAP2 SWAP1 POP JUMP JUMPDEST PUSH0 PUSH3 0x33B9 PUSH1 0x28 DUP4 PUSH3 0x3FD2 SWAP1 SWAP2 SWAP1 PUSH4 0xFFFFFFFF AND JUMP JUMPDEST SWAP1 POP SWAP2 SWAP1 POP JUMP JUMPDEST PUSH0 PUSH3 0x33D7 PUSH1 0x36 DUP4 PUSH3 0x3FE2 SWAP1 SWAP2 SWAP1 PUSH4 0xFFFFFFFF AND JUMP JUMPDEST SWAP1 POP SWAP2 SWAP1 POP JUMP JUMPDEST PUSH0 PUSH3 0x33F5 PUSH1 0x4E DUP4 PUSH3 0x3FD2 SWAP1 SWAP2 SWAP1 PUSH4 0xFFFFFFFF AND JUMP JUMPDEST SWAP1 POP SWAP2 SWAP1 POP JUMP JUMPDEST PUSH0 PUSH3 0x3413 PUSH1 0x5C DUP4 PUSH3 0x3FF3 SWAP1 SWAP2 SWAP1 PUSH4 0xFFFFFFFF AND JUMP JUMPDEST SWAP1 POP SWAP2 SWAP1 POP JUMP JUMPDEST PUSH0 DUP4 SELFBALANCE LT ISZERO PUSH3 0x3465 JUMPI SELFBALANCE DUP5 PUSH1 0x40 MLOAD PUSH32 0xE4BBECAC00000000000000000000000000000000000000000000000000000000 DUP2 MSTORE PUSH1 0x4 ADD PUSH3 0x345C SWAP3 SWAP2 SWAP1 PUSH3 0x5869 JUMP JUMPDEST PUSH1 0x40 MLOAD DUP1 SWAP2 SUB SWAP1 REVERT JUMPDEST PUSH0 DUP3 MLOAD SUB PUSH3 0x34A0 JUMPI PUSH1 0x40 MLOAD PUSH32 0x4CA249DC00000000000000000000000000000000000000000000000000000000 DUP2 MSTORE PUSH1 0x4 ADD PUSH1 0x40 MLOAD DUP1 SWAP2 SUB SWAP1 REVERT JUMPDEST DUP3 DUP3 MLOAD PUSH1 0x20 DUP5 ADD DUP7 CREATE2 SWAP1 POP PUSH0 PUSH20 0xFFFFFFFFFFFFFFFFFFFFFFFFFFFFFFFFFFFFFFFF AND DUP2 PUSH20 0xFFFFFFFFFFFFFFFFFFFFFFFFFFFFFFFFFFFFFFFF AND SUB PUSH3 0x3511 JUMPI PUSH1 0x40 MLOAD PUSH32 0x741752C200000000000000000000000000000000000000000000000000000000 DUP2 MSTORE PUSH1 0x4 ADD PUSH1 0x40 MLOAD DUP1 SWAP2 SUB SWAP1 REVERT JUMPDEST SWAP4 SWAP3 POP POP POP JUMP JUMPDEST PUSH0 PUSH3 0x3529 DUP4 PUSH0 ADD DUP4 PUSH0 SHL PUSH3 0x3BC5 JUMP JUMPDEST SWAP1 POP SWAP3 SWAP2 POP POP JUMP JUMPDEST PUSH0 PUSH3 0x353F DUP3 PUSH0 ADD PUSH3 0x4004 JUMP JUMPDEST SWAP1 POP SWAP2 SWAP1 POP JUMP JUMPDEST PUSH0 PUSH3 0x3555 DUP4 PUSH0 ADD DUP4 PUSH3 0x3930 JUMP JUMPDEST PUSH0 SHR SWAP1 POP SWAP3 SWAP2 POP POP JUMP JUMPDEST PUSH0 DUP2 DUP3 SWAP2 POP DUP2 PUSH2 0xFFFF AND EQ PUSH3 0x35A1 JUMPI PUSH1 0x40 MLOAD PUSH32 0x64AE406D00000000000000000000000000000000000000000000000000000000 DUP2 MSTORE PUSH1 0x4 ADD PUSH1 0x40 MLOAD DUP1 SWAP2 SUB SWAP1 REVERT JUMPDEST SWAP2 SWAP1 POP JUMP JUMPDEST PUSH0 PUSH3 0x35B1 PUSH3 0x38B7 JUMP JUMPDEST SWAP1 POP DUP1 PUSH0 ADD PUSH0 PUSH2 0x100 EXP DUP2 SLOAD SWAP1 PUSH20 0xFFFFFFFFFFFFFFFFFFFFFFFFFFFFFFFFFFFFFFFF MUL NOT AND SWAP1 SSTORE PUSH3 0x35E3 DUP3 PUSH3 0x4013 JUMP JUMPDEST POP POP JUMP JUMPDEST PUSH0 PUSH3 0x35F5 DUP3 PUSH0 ADD PUSH3 0x4004 JUMP JUMPDEST SWAP1 POP SWAP2 SWAP1 POP JUMP JUMPDEST PUSH0 PUSH32 0x9016D09D72D40FDAE2FD8CEAC6B6234C7706214FD39C1CD1E609A0528C199300 SWAP1 POP SWAP1 JUMP JUMPDEST PUSH0 DUP1 PUSH3 0x362F PUSH3 0x2C9E JUMP JUMPDEST SWAP1 POP DUP1 PUSH0 ADD PUSH0 DUP6 DUP2 MSTORE PUSH1 0x20 ADD SWAP1 DUP2 MSTORE PUSH1 0x20 ADD PUSH0 KECCAK256 PUSH0 ADD PUSH0 DUP5 PUSH20 0xFFFFFFFFFFFFFFFFFFFFFFFFFFFFFFFFFFFFFFFF AND PUSH20 0xFFFFFFFFFFFFFFFFFFFFFFFFFFFFFFFFFFFFFFFF AND DUP2 MSTORE PUSH1 0x20 ADD SWAP1 DUP2 MSTORE PUSH1 0x20 ADD PUSH0 KECCAK256 PUSH0 SWAP1 SLOAD SWAP1 PUSH2 0x100 EXP SWAP1 DIV PUSH1 0xFF AND SWAP2 POP POP SWAP3 SWAP2 POP POP JUMP JUMPDEST PUSH0 PUSH32 0xF0C57E16840DF040F15088DC2F81FE391C3923BEC73E23A9662EFC9C229C6A00 SWAP1 POP SWAP1 JUMP JUMPDEST PUSH3 0x36C7 PUSH3 0x40E6 JUMP JUMPDEST PUSH3 0x36D2 DUP2 PUSH3 0x4129 JUMP JUMPDEST POP JUMP JUMPDEST PUSH0 PUSH20 0xFFFFFFFFFFFFFFFFFFFFFFFFFFFFFFFFFFFFFFFF AND DUP2 PUSH20 0xFFFFFFFFFFFFFFFFFFFFFFFFFFFFFFFFFFFFFFFF AND SUB PUSH3 0x373B JUMPI PUSH1 0x40 MLOAD PUSH32 0x95CF3EE400000000000000000000000000000000000000000000000000000000 DUP2 MSTORE PUSH1 0x4 ADD PUSH1 0x40 MLOAD DUP1 SWAP2 SUB SWAP1 REVERT JUMPDEST PUSH0 DUP1 PUSH0 SWAP1 SLOAD SWAP1 PUSH2 0x100 EXP SWAP1 DIV PUSH20 0xFFFFFFFFFFFFFFFFFFFFFFFFFFFFFFFFFFFFFFFF AND SWAP1 POP DUP2 PUSH20 0xFFFFFFFFFFFFFFFFFFFFFFFFFFFFFFFFFFFFFFFF AND DUP2 PUSH20 0xFFFFFFFFFFFFFFFFFFFFFFFFFFFFFFFFFFFFFFFF AND SUB PUSH3 0x37F1 JUMPI PUSH0 DUP1 SLOAD SWAP1 PUSH2 0x100 EXP SWAP1 DIV PUSH20 0xFFFFFFFFFFFFFFFFFFFFFFFFFFFFFFFFFFFFFFFF AND PUSH1 0x40 MLOAD PUSH32 0x4FCEA97100000000000000000000000000000000000000000000000000000000 DUP2 MSTORE PUSH1 0x4 ADD PUSH3 0x37E8 SWAP2 SWAP1 PUSH3 0x4CF8 JUMP JUMPDEST PUSH1 0x40 MLOAD DUP1 SWAP2 SUB SWAP1 REVERT JUMPDEST DUP2 PUSH0 DUP1 PUSH2 0x100 EXP DUP2 SLOAD DUP2 PUSH20 0xFFFFFFFFFFFFFFFFFFFFFFFFFFFFFFFFFFFFFFFF MUL NOT AND SWAP1 DUP4 PUSH20 0xFFFFFFFFFFFFFFFFFFFFFFFFFFFFFFFFFFFFFFFF AND MUL OR SWAP1 SSTORE POP PUSH32 0x15D80A013F22151BC7246E3BC132E12828CDE19DE98870475E3FA70840152721 DUP2 DUP4 PUSH1 0x40 MLOAD PUSH3 0x3863 SWAP3 SWAP2 SWAP1 PUSH3 0x59E7 JUMP JUMPDEST PUSH1 0x40 MLOAD DUP1 SWAP2 SUB SWAP1 LOG1 POP POP JUMP JUMPDEST PUSH0 PUSH3 0x3896 DUP4 PUSH0 ADD DUP4 PUSH20 0xFFFFFFFFFFFFFFFFFFFFFFFFFFFFFFFFFFFFFFFF AND PUSH0 SHL PUSH3 0x41B4 JUMP JUMPDEST SWAP1 POP SWAP3 SWAP2 POP POP JUMP JUMPDEST PUSH0 PUSH3 0x38AF DUP4 PUSH0 ADD DUP4 PUSH0 SHL PUSH3 0x42C0 JUMP JUMPDEST SWAP1 POP SWAP3 SWAP2 POP POP JUMP JUMPDEST PUSH0 PUSH32 0x237E158222E3E6968B72B9DB0D8043AACF074AD9F650F0D1606B4D82EE432C00 SWAP1 POP SWAP1 JUMP JUMPDEST PUSH0 PUSH3 0x38EC DUP3 PUSH0 ADD PUSH3 0x42F6 JUMP JUMPDEST SWAP1 POP SWAP2 SWAP1 POP JUMP JUMPDEST PUSH0 DUP1 PUSH0 PUSH3 0x390D DUP5 DUP7 PUSH0 ADD PUSH3 0x430B SWAP1 SWAP2 SWAP1 PUSH4 0xFFFFFFFF AND JUMP JUMPDEST SWAP1 POP DUP1 DUP6 PUSH1 0x2 ADD PUSH0 DUP4 DUP2 MSTORE PUSH1 0x20 ADD SWAP1 DUP2 MSTORE PUSH1 0x20 ADD PUSH0 KECCAK256 SLOAD SWAP3 POP SWAP3 POP POP SWAP3 POP SWAP3 SWAP1 POP JUMP JUMPDEST PUSH0 DUP3 PUSH0 ADD DUP3 DUP2 SLOAD DUP2 LT PUSH3 0x3949 JUMPI PUSH3 0x3948 PUSH3 0x52A3 JUMP JUMPDEST JUMPDEST SWAP1 PUSH0 MSTORE PUSH1 0x20 PUSH0 KECCAK256 ADD SLOAD SWAP1 POP SWAP3 SWAP2 POP POP JUMP JUMPDEST PUSH0 DUP1 DUP4 PUSH1 0x1 ADD PUSH0 DUP5 DUP2 MSTORE PUSH1 0x20 ADD SWAP1 DUP2 MSTORE PUSH1 0x20 ADD PUSH0 KECCAK256 SLOAD EQ ISZERO SWAP1 POP SWAP3 SWAP2 POP POP JUMP JUMPDEST PUSH3 0x3986 DUP3 DUP3 PUSH3 0x220E JUMP JUMPDEST PUSH3 0x39CC JUMPI DUP1 DUP3 PUSH1 0x40 MLOAD PUSH32 0xE2517D3F00000000000000000000000000000000000000000000000000000000 DUP2 MSTORE PUSH1 0x4 ADD PUSH3 0x39C3 SWAP3 SWAP2 SWAP1 PUSH3 0x5A12 JUMP JUMPDEST PUSH1 0x40 MLOAD DUP1 SWAP2 SUB SWAP1 REVERT JUMPDEST POP POP JUMP JUMPDEST PUSH0 DUP1 PUSH3 0x39DC PUSH3 0x2C9E JUMP JUMPDEST SWAP1 POP PUSH3 0x39EA DUP5 DUP5 PUSH3 0x220E JUMP JUMPDEST PUSH3 0x3AC5 JUMPI PUSH1 0x1 DUP2 PUSH0 ADD PUSH0 DUP7 DUP2 MSTORE PUSH1 0x20 ADD SWAP1 DUP2 MSTORE PUSH1 0x20 ADD PUSH0 KECCAK256 PUSH0 ADD PUSH0 DUP6 PUSH20 0xFFFFFFFFFFFFFFFFFFFFFFFFFFFFFFFFFFFFFFFF AND PUSH20 0xFFFFFFFFFFFFFFFFFFFFFFFFFFFFFFFFFFFFFFFF AND DUP2 MSTORE PUSH1 0x20 ADD SWAP1 DUP2 MSTORE PUSH1 0x20 ADD PUSH0 KECCAK256 PUSH0 PUSH2 0x100 EXP DUP2 SLOAD DUP2 PUSH1 0xFF MUL NOT AND SWAP1 DUP4 ISZERO ISZERO MUL OR SWAP1 SSTORE POP PUSH3 0x3A60 PUSH3 0x2F16 JUMP JUMPDEST PUSH20 0xFFFFFFFFFFFFFFFFFFFFFFFFFFFFFFFFFFFFFFFF AND DUP4 PUSH20 0xFFFFFFFFFFFFFFFFFFFFFFFFFFFFFFFFFFFFFFFF AND DUP6 PUSH32 0x2F8788117E7EFF1D82E926EC794901D17C78024A50270940304540A733656F0D PUSH1 0x40 MLOAD PUSH1 0x40 MLOAD DUP1 SWAP2 SUB SWAP1 LOG4 PUSH1 0x1 SWAP2 POP POP PUSH3 0x3ACA JUMP JUMPDEST PUSH0 SWAP2 POP POP JUMPDEST SWAP3 SWAP2 POP POP JUMP JUMPDEST PUSH0 DUP3 DUP3 SHL NOT DUP6 AND SWAP1 POP DUP3 DUP5 AND DUP3 SHL DUP2 OR SWAP1 POP SWAP5 SWAP4 POP POP POP POP JUMP JUMPDEST PUSH0 DUP2 DUP5 PUSH1 0x2 ADD PUSH0 DUP6 DUP2 MSTORE PUSH1 0x20 ADD SWAP1 DUP2 MSTORE PUSH1 0x20 ADD PUSH0 KECCAK256 DUP2 SWAP1 SSTORE POP PUSH3 0x3B1A DUP4 DUP6 PUSH0 ADD PUSH3 0x4322 SWAP1 SWAP2 SWAP1 PUSH4 0xFFFFFFFF AND JUMP JUMPDEST SWAP1 POP SWAP4 SWAP3 POP POP POP JUMP JUMPDEST PUSH0 PUSH3 0x3B3B DUP3 DUP5 PUSH0 ADD PUSH3 0x4339 SWAP1 SWAP2 SWAP1 PUSH4 0xFFFFFFFF AND JUMP JUMPDEST SWAP1 POP SWAP3 SWAP2 POP POP JUMP JUMPDEST PUSH0 DUP1 DUP4 PUSH1 0x2 ADD PUSH0 DUP5 DUP2 MSTORE PUSH1 0x20 ADD SWAP1 DUP2 MSTORE PUSH1 0x20 ADD PUSH0 KECCAK256 SLOAD SWAP1 POP PUSH0 DUP1 SHL DUP2 EQ DUP1 ISZERO PUSH3 0x3B76 JUMPI POP PUSH3 0x3B74 DUP5 DUP5 PUSH3 0x3B23 JUMP JUMPDEST ISZERO JUMPDEST ISZERO PUSH3 0x3BBB JUMPI DUP3 PUSH1 0x40 MLOAD PUSH32 0x2B5668600000000000000000000000000000000000000000000000000000000 DUP2 MSTORE PUSH1 0x4 ADD PUSH3 0x3BB2 SWAP2 SWAP1 PUSH3 0x48E6 JUMP JUMPDEST PUSH1 0x40 MLOAD DUP1 SWAP2 SUB SWAP1 REVERT JUMPDEST DUP1 SWAP2 POP POP SWAP3 SWAP2 POP POP JUMP JUMPDEST PUSH0 PUSH3 0x3BD2 DUP4 DUP4 PUSH3 0x395A JUMP JUMPDEST PUSH3 0x3C26 JUMPI DUP3 PUSH0 ADD DUP3 SWAP1 DUP1 PUSH1 0x1 DUP2 SLOAD ADD DUP1 DUP3 SSTORE DUP1 SWAP2 POP POP PUSH1 0x1 SWAP1 SUB SWAP1 PUSH0 MSTORE PUSH1 0x20 PUSH0 KECCAK256 ADD PUSH0 SWAP1 SWAP2 SWAP1 SWAP2 SWAP1 SWAP2 POP SSTORE DUP3 PUSH0 ADD DUP1 SLOAD SWAP1 POP DUP4 PUSH1 0x1 ADD PUSH0 DUP5 DUP2 MSTORE PUSH1 0x20 ADD SWAP1 DUP2 MSTORE PUSH1 0x20 ADD PUSH0 KECCAK256 DUP2 SWAP1 SSTORE POP PUSH1 0x1 SWAP1 POP PUSH3 0x3C2A JUMP JUMPDEST PUSH0 SWAP1 POP JUMPDEST SWAP3 SWAP2 POP POP JUMP JUMPDEST PUSH1 0x60 PUSH3 0x3C3F DUP3 PUSH0 ADD PUSH3 0x4350 JUMP JUMPDEST SWAP1 POP SWAP2 SWAP1 POP JUMP JUMPDEST PUSH0 PUSH2 0x2710 PUSH1 0x80 PUSH1 0xFF AND DUP4 PUSH2 0xFFFF AND SWAP1 SHL DUP2 PUSH3 0x3C67 JUMPI PUSH3 0x3C66 PUSH3 0x5A3D JUMP JUMPDEST JUMPDEST DIV PUSH1 0x80 PUSH1 0xFF AND PUSH1 0x1 SWAP1 SHL ADD SWAP1 POP SWAP2 SWAP1 POP JUMP JUMPDEST PUSH0 PUSH3 0x800000 DUP3 PUSH3 0xFFFFFF AND SUB SWAP1 POP SWAP2 SWAP1 POP JUMP JUMPDEST PUSH0 DUP1 PUSH0 DUP1 DUP5 SUB PUSH3 0x3CAA JUMPI PUSH1 0x80 PUSH1 0xFF AND PUSH1 0x1 SWAP1 SHL SWAP3 POP POP POP PUSH3 0x3FAC JUMP JUMPDEST DUP4 SWAP1 POP PUSH0 DUP2 SLT ISZERO PUSH3 0x3CC0 JUMPI DUP1 PUSH0 SUB SWAP1 POP DUP2 ISZERO SWAP2 POP JUMPDEST PUSH3 0x100000 DUP2 LT ISZERO PUSH3 0x3F22 JUMPI PUSH1 0x80 PUSH1 0xFF AND PUSH1 0x1 SWAP1 SHL SWAP3 POP DUP5 PUSH16 0xFFFFFFFFFFFFFFFFFFFFFFFFFFFFFFFF DUP7 GT ISZERO PUSH3 0x3CFC JUMPI DUP1 PUSH0 NOT DIV SWAP1 POP DUP3 ISZERO SWAP3 POP JUMPDEST PUSH1 0x1 DUP3 AND ISZERO PUSH3 0x3D0F JUMPI DUP1 DUP5 MUL PUSH1 0x80 SHR SWAP4 POP JUMPDEST DUP1 DUP2 MUL PUSH1 0x80 SHR SWAP1 POP PUSH1 0x2 DUP3 AND ISZERO PUSH3 0x3D2A JUMPI DUP1 DUP5 MUL PUSH1 0x80 SHR SWAP4 POP JUMPDEST DUP1 DUP2 MUL PUSH1 0x80 SHR SWAP1 POP PUSH1 0x4 DUP3 AND ISZERO PUSH3 0x3D45 JUMPI DUP1 DUP5 MUL PUSH1 0x80 SHR SWAP4 POP JUMPDEST DUP1 DUP2 MUL PUSH1 0x80 SHR SWAP1 POP PUSH1 0x8 DUP3 AND ISZERO PUSH3 0x3D60 JUMPI DUP1 DUP5 MUL PUSH1 0x80 SHR SWAP4 POP JUMPDEST DUP1 DUP2 MUL PUSH1 0x80 SHR SWAP1 POP PUSH1 0x10 DUP3 AND ISZERO PUSH3 0x3D7B JUMPI DUP1 DUP5 MUL PUSH1 0x80 SHR SWAP4 POP JUMPDEST DUP1 DUP2 MUL PUSH1 0x80 SHR SWAP1 POP PUSH1 0x20 DUP3 AND ISZERO PUSH3 0x3D96 JUMPI DUP1 DUP5 MUL PUSH1 0x80 SHR SWAP4 POP JUMPDEST DUP1 DUP2 MUL PUSH1 0x80 SHR SWAP1 POP PUSH1 0x40 DUP3 AND ISZERO PUSH3 0x3DB1 JUMPI DUP1 DUP5 MUL PUSH1 0x80 SHR SWAP4 POP JUMPDEST DUP1 DUP2 MUL PUSH1 0x80 SHR SWAP1 POP PUSH1 0x80 DUP3 AND ISZERO PUSH3 0x3DCC JUMPI DUP1 DUP5 MUL PUSH1 0x80 SHR SWAP4 POP JUMPDEST DUP1 DUP2 MUL PUSH1 0x80 SHR SWAP1 POP PUSH2 0x100 DUP3 AND ISZERO PUSH3 0x3DE8 JUMPI DUP1 DUP5 MUL PUSH1 0x80 SHR SWAP4 POP JUMPDEST DUP1 DUP2 MUL PUSH1 0x80 SHR SWAP1 POP PUSH2 0x200 DUP3 AND ISZERO PUSH3 0x3E04 JUMPI DUP1 DUP5 MUL PUSH1 0x80 SHR SWAP4 POP JUMPDEST DUP1 DUP2 MUL PUSH1 0x80 SHR SWAP1 POP PUSH2 0x400 DUP3 AND ISZERO PUSH3 0x3E20 JUMPI DUP1 DUP5 MUL PUSH1 0x80 SHR SWAP4 POP JUMPDEST DUP1 DUP2 MUL PUSH1 0x80 SHR SWAP1 POP PUSH2 0x800 DUP3 AND ISZERO PUSH3 0x3E3C JUMPI DUP1 DUP5 MUL PUSH1 0x80 SHR SWAP4 POP JUMPDEST DUP1 DUP2 MUL PUSH1 0x80 SHR SWAP1 POP PUSH2 0x1000 DUP3 AND ISZERO PUSH3 0x3E58 JUMPI DUP1 DUP5 MUL PUSH1 0x80 SHR SWAP4 POP JUMPDEST DUP1 DUP2 MUL PUSH1 0x80 SHR SWAP1 POP PUSH2 0x2000 DUP3 AND ISZERO PUSH3 0x3E74 JUMPI DUP1 DUP5 MUL PUSH1 0x80 SHR SWAP4 POP JUMPDEST DUP1 DUP2 MUL PUSH1 0x80 SHR SWAP1 POP PUSH2 0x4000 DUP3 AND ISZERO PUSH3 0x3E90 JUMPI DUP1 DUP5 MUL PUSH1 0x80 SHR SWAP4 POP JUMPDEST DUP1 DUP2 MUL PUSH1 0x80 SHR SWAP1 POP PUSH2 0x8000 DUP3 AND ISZERO PUSH3 0x3EAC JUMPI DUP1 DUP5 MUL PUSH1 0x80 SHR SWAP4 POP JUMPDEST DUP1 DUP2 MUL PUSH1 0x80 SHR SWAP1 POP PUSH3 0x10000 DUP3 AND ISZERO PUSH3 0x3EC9 JUMPI DUP1 DUP5 MUL PUSH1 0x80 SHR SWAP4 POP JUMPDEST DUP1 DUP2 MUL PUSH1 0x80 SHR SWAP1 POP PUSH3 0x20000 DUP3 AND ISZERO PUSH3 0x3EE6 JUMPI DUP1 DUP5 MUL PUSH1 0x80 SHR SWAP4 POP JUMPDEST DUP1 DUP2 MUL PUSH1 0x80 SHR SWAP1 POP PUSH3 0x40000 DUP3 AND ISZERO PUSH3 0x3F03 JUMPI DUP1 DUP5 MUL PUSH1 0x80 SHR SWAP4 POP JUMPDEST DUP1 DUP2 MUL PUSH1 0x80 SHR SWAP1 POP PUSH3 0x80000 DUP3 AND ISZERO PUSH3 0x3F20 JUMPI DUP1 DUP5 MUL PUSH1 0x80 SHR SWAP4 POP JUMPDEST POP JUMPDEST PUSH0 DUP4 SUB PUSH3 0x3F6B JUMPI DUP5 DUP5 PUSH1 0x40 MLOAD PUSH32 0x3B74B31A00000000000000000000000000000000000000000000000000000000 DUP2 MSTORE PUSH1 0x4 ADD PUSH3 0x3F62 SWAP3 SWAP2 SWAP1 PUSH3 0x5A84 JUMP JUMPDEST PUSH1 0x40 MLOAD DUP1 SWAP2 SUB SWAP1 REVERT JUMPDEST DUP2 PUSH3 0x3F78 JUMPI DUP3 PUSH3 0x3FA7 JUMP JUMPDEST DUP3 PUSH32 0xFFFFFFFFFFFFFFFFFFFFFFFFFFFFFFFFFFFFFFFFFFFFFFFFFFFFFFFFFFFFFFFF PUSH3 0x3FA6 SWAP2 SWAP1 PUSH3 0x5AAF JUMP JUMPDEST JUMPDEST SWAP3 POP POP POP JUMPDEST SWAP3 SWAP2 POP POP JUMP JUMPDEST PUSH0 PUSH2 0xFFFF DUP4 DUP4 SHR AND SWAP1 POP SWAP3 SWAP2 POP POP JUMP JUMPDEST PUSH0 PUSH2 0xFFF DUP4 DUP4 SHR AND SWAP1 POP SWAP3 SWAP2 POP POP JUMP JUMPDEST PUSH0 PUSH2 0x3FFF DUP4 DUP4 SHR AND SWAP1 POP SWAP3 SWAP2 POP POP JUMP JUMPDEST PUSH0 PUSH3 0xFFFFFF DUP4 DUP4 SHR AND SWAP1 POP SWAP3 SWAP2 POP POP JUMP JUMPDEST PUSH0 PUSH3 0xFFFFF DUP4 DUP4 SHR AND SWAP1 POP SWAP3 SWAP2 POP POP JUMP JUMPDEST PUSH0 DUP2 PUSH0 ADD DUP1 SLOAD SWAP1 POP SWAP1 POP SWAP2 SWAP1 POP JUMP JUMPDEST PUSH0 PUSH3 0x401E PUSH3 0x35FC JUMP JUMPDEST SWAP1 POP PUSH0 DUP2 PUSH0 ADD PUSH0 SWAP1 SLOAD SWAP1 PUSH2 0x100 EXP SWAP1 DIV PUSH20 0xFFFFFFFFFFFFFFFFFFFFFFFFFFFFFFFFFFFFFFFF AND SWAP1 POP DUP3 DUP3 PUSH0 ADD PUSH0 PUSH2 0x100 EXP DUP2 SLOAD DUP2 PUSH20 0xFFFFFFFFFFFFFFFFFFFFFFFFFFFFFFFFFFFFFFFF MUL NOT AND SWAP1 DUP4 PUSH20 0xFFFFFFFFFFFFFFFFFFFFFFFFFFFFFFFFFFFFFFFF AND MUL OR SWAP1 SSTORE POP DUP3 PUSH20 0xFFFFFFFFFFFFFFFFFFFFFFFFFFFFFFFFFFFFFFFF AND DUP2 PUSH20 0xFFFFFFFFFFFFFFFFFFFFFFFFFFFFFFFFFFFFFFFF AND PUSH32 0x8BE0079C531659141344CD1FD0A4F28419497F9722A3DAAFE3B4186F6B6457E0 PUSH1 0x40 MLOAD PUSH1 0x40 MLOAD DUP1 SWAP2 SUB SWAP1 LOG3 POP POP POP JUMP JUMPDEST PUSH3 0x40F0 PUSH3 0x4371 JUMP JUMPDEST PUSH3 0x4127 JUMPI PUSH1 0x40 MLOAD PUSH32 0xD7E6BCF800000000000000000000000000000000000000000000000000000000 DUP2 MSTORE PUSH1 0x4 ADD PUSH1 0x40 MLOAD DUP1 SWAP2 SUB SWAP1 REVERT JUMPDEST JUMP JUMPDEST PUSH3 0x4133 PUSH3 0x40E6 JUMP JUMPDEST PUSH0 PUSH20 0xFFFFFFFFFFFFFFFFFFFFFFFFFFFFFFFFFFFFFFFF AND DUP2 PUSH20 0xFFFFFFFFFFFFFFFFFFFFFFFFFFFFFFFFFFFFFFFF AND SUB PUSH3 0x41A6 JUMPI PUSH0 PUSH1 0x40 MLOAD PUSH32 0x1E4FBDF700000000000000000000000000000000000000000000000000000000 DUP2 MSTORE PUSH1 0x4 ADD PUSH3 0x419D SWAP2 SWAP1 PUSH3 0x4CF8 JUMP JUMPDEST PUSH1 0x40 MLOAD DUP1 SWAP2 SUB SWAP1 REVERT JUMPDEST PUSH3 0x41B1 DUP2 PUSH3 0x35A6 JUMP JUMPDEST POP JUMP JUMPDEST PUSH0 DUP1 DUP4 PUSH1 0x1 ADD PUSH0 DUP5 DUP2 MSTORE PUSH1 0x20 ADD SWAP1 DUP2 MSTORE PUSH1 0x20 ADD PUSH0 KECCAK256 SLOAD SWAP1 POP PUSH0 DUP2 EQ PUSH3 0x42B5 JUMPI PUSH0 PUSH1 0x1 DUP3 PUSH3 0x41E4 SWAP2 SWAP1 PUSH3 0x5804 JUMP JUMPDEST SWAP1 POP PUSH0 PUSH1 0x1 DUP7 PUSH0 ADD DUP1 SLOAD SWAP1 POP PUSH3 0x41FC SWAP2 SWAP1 PUSH3 0x5804 JUMP JUMPDEST SWAP1 POP DUP1 DUP3 EQ PUSH3 0x4269 JUMPI PUSH0 DUP7 PUSH0 ADD DUP3 DUP2 SLOAD DUP2 LT PUSH3 0x421F JUMPI PUSH3 0x421E PUSH3 0x52A3 JUMP JUMPDEST JUMPDEST SWAP1 PUSH0 MSTORE PUSH1 0x20 PUSH0 KECCAK256 ADD SLOAD SWAP1 POP DUP1 DUP8 PUSH0 ADD DUP5 DUP2 SLOAD DUP2 LT PUSH3 0x4243 JUMPI PUSH3 0x4242 PUSH3 0x52A3 JUMP JUMPDEST JUMPDEST SWAP1 PUSH0 MSTORE PUSH1 0x20 PUSH0 KECCAK256 ADD DUP2 SWAP1 SSTORE POP DUP4 DUP8 PUSH1 0x1 ADD PUSH0 DUP4 DUP2 MSTORE PUSH1 0x20 ADD SWAP1 DUP2 MSTORE PUSH1 0x20 ADD PUSH0 KECCAK256 DUP2 SWAP1 SSTORE POP POP JUMPDEST DUP6 PUSH0 ADD DUP1 SLOAD DUP1 PUSH3 0x427F JUMPI PUSH3 0x427E PUSH3 0x5AE6 JUMP JUMPDEST JUMPDEST PUSH1 0x1 SWAP1 SUB DUP2 DUP2 SWAP1 PUSH0 MSTORE PUSH1 0x20 PUSH0 KECCAK256 ADD PUSH0 SWAP1 SSTORE SWAP1 SSTORE DUP6 PUSH1 0x1 ADD PUSH0 DUP7 DUP2 MSTORE PUSH1 0x20 ADD SWAP1 DUP2 MSTORE PUSH1 0x20 ADD PUSH0 KECCAK256 PUSH0 SWAP1 SSTORE PUSH1 0x1 SWAP4 POP POP POP POP PUSH3 0x42BA JUMP JUMPDEST PUSH0 SWAP2 POP POP JUMPDEST SWAP3 SWAP2 POP POP JUMP JUMPDEST PUSH0 DUP3 PUSH1 0x2 ADD PUSH0 DUP4 DUP2 MSTORE PUSH1 0x20 ADD SWAP1 DUP2 MSTORE PUSH1 0x20 ADD PUSH0 KECCAK256 PUSH0 SWAP1 SSTORE PUSH3 0x42EE DUP3 DUP5 PUSH0 ADD PUSH3 0x4391 SWAP1 SWAP2 SWAP1 PUSH4 0xFFFFFFFF AND JUMP JUMPDEST SWAP1 POP SWAP3 SWAP2 POP POP JUMP JUMPDEST PUSH0 PUSH3 0x4304 DUP3 PUSH0 ADD PUSH3 0x4004 JUMP JUMPDEST SWAP1 POP SWAP2 SWAP1 POP JUMP JUMPDEST PUSH0 PUSH3 0x431A DUP4 PUSH0 ADD DUP4 PUSH3 0x3930 JUMP JUMPDEST SWAP1 POP SWAP3 SWAP2 POP POP JUMP JUMPDEST PUSH0 PUSH3 0x4331 DUP4 PUSH0 ADD DUP4 PUSH3 0x3BC5 JUMP JUMPDEST SWAP1 POP SWAP3 SWAP2 POP POP JUMP JUMPDEST PUSH0 PUSH3 0x4348 DUP4 PUSH0 ADD DUP4 PUSH3 0x395A JUMP JUMPDEST SWAP1 POP SWAP3 SWAP2 POP POP JUMP JUMPDEST PUSH1 0x60 PUSH0 PUSH3 0x4360 DUP4 PUSH0 ADD PUSH3 0x43A8 JUMP JUMPDEST SWAP1 POP PUSH1 0x60 DUP2 SWAP1 POP DUP1 SWAP3 POP POP POP SWAP2 SWAP1 POP JUMP JUMPDEST PUSH0 PUSH3 0x437C PUSH3 0x3696 JUMP JUMPDEST PUSH0 ADD PUSH1 0x8 SWAP1 SLOAD SWAP1 PUSH2 0x100 EXP SWAP1 DIV PUSH1 0xFF AND SWAP1 POP SWAP1 JUMP JUMPDEST PUSH0 PUSH3 0x43A0 DUP4 PUSH0 ADD DUP4 PUSH3 0x41B4 JUMP JUMPDEST SWAP1 POP SWAP3 SWAP2 POP POP JUMP JUMPDEST PUSH1 0x60 DUP2 PUSH0 ADD DUP1 SLOAD DUP1 PUSH1 0x20 MUL PUSH1 0x20 ADD PUSH1 0x40 MLOAD SWAP1 DUP2 ADD PUSH1 0x40 MSTORE DUP1 SWAP3 SWAP2 SWAP1 DUP2 DUP2 MSTORE PUSH1 0x20 ADD DUP3 DUP1 SLOAD DUP1 ISZERO PUSH3 0x43F7 JUMPI PUSH1 0x20 MUL DUP3 ADD SWAP2 SWAP1 PUSH0 MSTORE PUSH1 0x20 PUSH0 KECCAK256 SWAP1 JUMPDEST DUP2 SLOAD DUP2 MSTORE PUSH1 0x20 ADD SWAP1 PUSH1 0x1 ADD SWAP1 DUP1 DUP4 GT PUSH3 0x43E2 JUMPI JUMPDEST POP POP POP POP POP SWAP1 POP SWAP2 SWAP1 POP JUMP JUMPDEST PUSH2 0x19BA DUP1 PUSH3 0x5B14 DUP4 CODECOPY ADD SWAP1 JUMP JUMPDEST PUSH1 0x40 MLOAD DUP1 PUSH1 0x80 ADD PUSH1 0x40 MSTORE DUP1 PUSH0 PUSH2 0xFFFF AND DUP2 MSTORE PUSH1 0x20 ADD PUSH0 PUSH20 0xFFFFFFFFFFFFFFFFFFFFFFFFFFFFFFFFFFFFFFFF AND DUP2 MSTORE PUSH1 0x20 ADD PUSH0 ISZERO ISZERO DUP2 MSTORE PUSH1 0x20 ADD PUSH0 ISZERO ISZERO DUP2 MSTORE POP SWAP1 JUMP JUMPDEST PUSH0 DUP1 REVERT JUMPDEST PUSH0 DUP1 REVERT JUMPDEST PUSH0 PUSH32 0xFFFFFFFF00000000000000000000000000000000000000000000000000000000 DUP3 AND SWAP1 POP SWAP2 SWAP1 POP JUMP JUMPDEST PUSH3 0x4491 DUP2 PUSH3 0x445B JUMP JUMPDEST DUP2 EQ PUSH3 0x449C JUMPI PUSH0 DUP1 REVERT JUMPDEST POP JUMP JUMPDEST PUSH0 DUP2 CALLDATALOAD SWAP1 POP PUSH3 0x44AF DUP2 PUSH3 0x4486 JUMP JUMPDEST SWAP3 SWAP2 POP POP JUMP JUMPDEST PUSH0 PUSH1 0x20 DUP3 DUP5 SUB SLT ISZERO PUSH3 0x44CD JUMPI PUSH3 0x44CC PUSH3 0x4453 JUMP JUMPDEST JUMPDEST PUSH0 PUSH3 0x44DC DUP5 DUP3 DUP6 ADD PUSH3 0x449F JUMP JUMPDEST SWAP2 POP POP SWAP3 SWAP2 POP POP JUMP JUMPDEST PUSH0 DUP2 ISZERO ISZERO SWAP1 POP SWAP2 SWAP1 POP JUMP JUMPDEST PUSH3 0x44FB DUP2 PUSH3 0x44E5 JUMP JUMPDEST DUP3 MSTORE POP POP JUMP JUMPDEST PUSH0 PUSH1 0x20 DUP3 ADD SWAP1 POP PUSH3 0x4516 PUSH0 DUP4 ADD DUP5 PUSH3 0x44F0 JUMP JUMPDEST SWAP3 SWAP2 POP POP JUMP JUMPDEST PUSH0 DUP2 MLOAD SWAP1 POP SWAP2 SWAP1 POP JUMP JUMPDEST PUSH0 DUP3 DUP3 MSTORE PUSH1 0x20 DUP3 ADD SWAP1 POP SWAP3 SWAP2 POP POP JUMP JUMPDEST PUSH0 DUP2 SWAP1 POP PUSH1 0x20 DUP3 ADD SWAP1 POP SWAP2 SWAP1 POP JUMP JUMPDEST PUSH0 DUP2 SWAP1 POP SWAP2 SWAP1 POP JUMP JUMPDEST PUSH3 0x4559 DUP2 PUSH3 0x4545 JUMP JUMPDEST DUP3 MSTORE POP POP JUMP JUMPDEST PUSH0 PUSH3 0x456C DUP4 DUP4 PUSH3 0x454E JUMP JUMPDEST PUSH1 0x20 DUP4 ADD SWAP1 POP SWAP3 SWAP2 POP POP JUMP JUMPDEST PUSH0 PUSH1 0x20 DUP3 ADD SWAP1 POP SWAP2 SWAP1 POP JUMP JUMPDEST PUSH0 PUSH3 0x4590 DUP3 PUSH3 0x451C JUMP JUMPDEST PUSH3 0x459C DUP2 DUP6 PUSH3 0x4526 JUMP JUMPDEST SWAP4 POP PUSH3 0x45A9 DUP4 PUSH3 0x4536 JUMP JUMPDEST DUP1 PUSH0 JUMPDEST DUP4 DUP2 LT ISZERO PUSH3 0x45DF JUMPI DUP2 MLOAD PUSH3 0x45C3 DUP9 DUP3 PUSH3 0x455F JUMP JUMPDEST SWAP8 POP PUSH3 0x45D0 DUP4 PUSH3 0x4578 JUMP JUMPDEST SWAP3 POP POP PUSH1 0x1 DUP2 ADD SWAP1 POP PUSH3 0x45AC JUMP JUMPDEST POP DUP6 SWAP4 POP POP POP POP SWAP3 SWAP2 POP POP JUMP JUMPDEST PUSH0 PUSH1 0x20 DUP3 ADD SWAP1 POP DUP2 DUP2 SUB PUSH0 DUP4 ADD MSTORE PUSH3 0x4606 DUP2 DUP5 PUSH3 0x4584 JUMP JUMPDEST SWAP1 POP SWAP3 SWAP2 POP POP JUMP JUMPDEST PUSH3 0x4619 DUP2 PUSH3 0x4545 JUMP JUMPDEST DUP2 EQ PUSH3 0x4624 JUMPI PUSH0 DUP1 REVERT JUMPDEST POP JUMP JUMPDEST PUSH0 DUP2 CALLDATALOAD SWAP1 POP PUSH3 0x4637 DUP2 PUSH3 0x460E JUMP JUMPDEST SWAP3 SWAP2 POP POP JUMP JUMPDEST PUSH0 PUSH1 0x20 DUP3 DUP5 SUB SLT ISZERO PUSH3 0x4655 JUMPI PUSH3 0x4654 PUSH3 0x4453 JUMP JUMPDEST JUMPDEST PUSH0 PUSH3 0x4664 DUP5 DUP3 DUP6 ADD PUSH3 0x4627 JUMP JUMPDEST SWAP2 POP POP SWAP3 SWAP2 POP POP JUMP JUMPDEST PUSH0 PUSH20 0xFFFFFFFFFFFFFFFFFFFFFFFFFFFFFFFFFFFFFFFF DUP3 AND SWAP1 POP SWAP2 SWAP1 POP JUMP JUMPDEST PUSH0 DUP2 SWAP1 POP SWAP2 SWAP1 POP JUMP JUMPDEST PUSH0 PUSH3 0x46B5 PUSH3 0x46AF PUSH3 0x46A9 DUP5 PUSH3 0x466D JUMP JUMPDEST PUSH3 0x468C JUMP JUMPDEST PUSH3 0x466D JUMP JUMPDEST SWAP1 POP SWAP2 SWAP1 POP JUMP JUMPDEST PUSH0 PUSH3 0x46C8 DUP3 PUSH3 0x4695 JUMP JUMPDEST SWAP1 POP SWAP2 SWAP1 POP JUMP JUMPDEST PUSH0 PUSH3 0x46DB DUP3 PUSH3 0x46BC JUMP JUMPDEST SWAP1 POP SWAP2 SWAP1 POP JUMP JUMPDEST PUSH3 0x46ED DUP2 PUSH3 0x46CF JUMP JUMPDEST DUP3 MSTORE POP POP JUMP JUMPDEST PUSH0 PUSH1 0x20 DUP3 ADD SWAP1 POP PUSH3 0x4708 PUSH0 DUP4 ADD DUP5 PUSH3 0x46E2 JUMP JUMPDEST SWAP3 SWAP2 POP POP JUMP JUMPDEST PUSH0 PUSH3 0x471A DUP3 PUSH3 0x466D JUMP JUMPDEST SWAP1 POP SWAP2 SWAP1 POP JUMP JUMPDEST PUSH0 PUSH3 0x472D DUP3 PUSH3 0x470E JUMP JUMPDEST SWAP1 POP SWAP2 SWAP1 POP JUMP JUMPDEST PUSH3 0x473F DUP2 PUSH3 0x4721 JUMP JUMPDEST DUP2 EQ PUSH3 0x474A JUMPI PUSH0 DUP1 REVERT JUMPDEST POP JUMP JUMPDEST PUSH0 DUP2 CALLDATALOAD SWAP1 POP PUSH3 0x475D DUP2 PUSH3 0x4734 JUMP JUMPDEST SWAP3 SWAP2 POP POP JUMP JUMPDEST PUSH0 PUSH2 0xFFFF DUP3 AND SWAP1 POP SWAP2 SWAP1 POP JUMP JUMPDEST PUSH3 0x477B DUP2 PUSH3 0x4763 JUMP JUMPDEST DUP2 EQ PUSH3 0x4786 JUMPI PUSH0 DUP1 REVERT JUMPDEST POP JUMP JUMPDEST PUSH0 DUP2 CALLDATALOAD SWAP1 POP PUSH3 0x4799 DUP2 PUSH3 0x4770 JUMP JUMPDEST SWAP3 SWAP2 POP POP JUMP JUMPDEST PUSH0 PUSH3 0xFFFFFF DUP3 AND SWAP1 POP SWAP2 SWAP1 POP JUMP JUMPDEST PUSH3 0x47B8 DUP2 PUSH3 0x479F JUMP JUMPDEST DUP2 EQ PUSH3 0x47C3 JUMPI PUSH0 DUP1 REVERT JUMPDEST POP JUMP JUMPDEST PUSH0 DUP2 CALLDATALOAD SWAP1 POP PUSH3 0x47D6 DUP2 PUSH3 0x47AD JUMP JUMPDEST SWAP3 SWAP2 POP POP JUMP JUMPDEST PUSH0 DUP1 PUSH0 DUP1 PUSH0 DUP1 PUSH0 DUP1 PUSH0 DUP1 PUSH2 0x140 DUP12 DUP14 SUB SLT ISZERO PUSH3 0x47FE JUMPI PUSH3 0x47FD PUSH3 0x4453 JUMP JUMPDEST JUMPDEST PUSH0 PUSH3 0x480D DUP14 DUP3 DUP15 ADD PUSH3 0x474D JUMP JUMPDEST SWAP11 POP POP PUSH1 0x20 PUSH3 0x4820 DUP14 DUP3 DUP15 ADD PUSH3 0x474D JUMP JUMPDEST SWAP10 POP POP PUSH1 0x40 PUSH3 0x4833 DUP14 DUP3 DUP15 ADD PUSH3 0x4789 JUMP JUMPDEST SWAP9 POP POP PUSH1 0x60 PUSH3 0x4846 DUP14 DUP3 DUP15 ADD PUSH3 0x4789 JUMP JUMPDEST SWAP8 POP POP PUSH1 0x80 PUSH3 0x4859 DUP14 DUP3 DUP15 ADD PUSH3 0x4789 JUMP JUMPDEST SWAP7 POP POP PUSH1 0xA0 PUSH3 0x486C DUP14 DUP3 DUP15 ADD PUSH3 0x4789 JUMP JUMPDEST SWAP6 POP POP PUSH1 0xC0 PUSH3 0x487F DUP14 DUP3 DUP15 ADD PUSH3 0x4789 JUMP JUMPDEST SWAP5 POP POP PUSH1 0xE0 PUSH3 0x4892 DUP14 DUP3 DUP15 ADD PUSH3 0x47C6 JUMP JUMPDEST SWAP4 POP POP PUSH2 0x100 PUSH3 0x48A6 DUP14 DUP3 DUP15 ADD PUSH3 0x4789 JUMP JUMPDEST SWAP3 POP POP PUSH2 0x120 PUSH3 0x48BA DUP14 DUP3 DUP15 ADD PUSH3 0x47C6 JUMP JUMPDEST SWAP2 POP POP SWAP3 SWAP6 SWAP9 SWAP12 SWAP2 SWAP5 SWAP8 SWAP11 POP SWAP3 SWAP6 SWAP9 POP JUMP JUMPDEST PUSH0 DUP2 SWAP1 POP SWAP2 SWAP1 POP JUMP JUMPDEST PUSH3 0x48E0 DUP2 PUSH3 0x48CC JUMP JUMPDEST DUP3 MSTORE POP POP JUMP JUMPDEST PUSH0 PUSH1 0x20 DUP3 ADD SWAP1 POP PUSH3 0x48FB PUSH0 DUP4 ADD DUP5 PUSH3 0x48D5 JUMP JUMPDEST SWAP3 SWAP2 POP POP JUMP JUMPDEST PUSH3 0x490C DUP2 PUSH3 0x48CC JUMP JUMPDEST DUP2 EQ PUSH3 0x4917 JUMPI PUSH0 DUP1 REVERT JUMPDEST POP JUMP JUMPDEST PUSH0 DUP2 CALLDATALOAD SWAP1 POP PUSH3 0x492A DUP2 PUSH3 0x4901 JUMP JUMPDEST SWAP3 SWAP2 POP POP JUMP JUMPDEST PUSH0 PUSH1 0x20 DUP3 DUP5 SUB SLT ISZERO PUSH3 0x4948 JUMPI PUSH3 0x4947 PUSH3 0x4453 JUMP JUMPDEST JUMPDEST PUSH0 PUSH3 0x4957 DUP5 DUP3 DUP6 ADD PUSH3 0x491A JUMP JUMPDEST SWAP2 POP POP SWAP3 SWAP2 POP POP JUMP JUMPDEST PUSH0 PUSH1 0x20 DUP3 DUP5 SUB SLT ISZERO PUSH3 0x4978 JUMPI PUSH3 0x4977 PUSH3 0x4453 JUMP JUMPDEST JUMPDEST PUSH0 PUSH3 0x4987 DUP5 DUP3 DUP6 ADD PUSH3 0x474D JUMP JUMPDEST SWAP2 POP POP SWAP3 SWAP2 POP POP JUMP JUMPDEST PUSH0 DUP1 PUSH0 PUSH1 0x60 DUP5 DUP7 SUB SLT ISZERO PUSH3 0x49AA JUMPI PUSH3 0x49A9 PUSH3 0x4453 JUMP JUMPDEST JUMPDEST PUSH0 PUSH3 0x49B9 DUP7 DUP3 DUP8 ADD PUSH3 0x474D JUMP JUMPDEST SWAP4 POP POP PUSH1 0x20 PUSH3 0x49CC DUP7 DUP3 DUP8 ADD PUSH3 0x474D JUMP JUMPDEST SWAP3 POP POP PUSH1 0x40 PUSH3 0x49DF DUP7 DUP3 DUP8 ADD PUSH3 0x4789 JUMP JUMPDEST SWAP2 POP POP SWAP3 POP SWAP3 POP SWAP3 JUMP JUMPDEST PUSH3 0x49F4 DUP2 PUSH3 0x470E JUMP JUMPDEST DUP2 EQ PUSH3 0x49FF JUMPI PUSH0 DUP1 REVERT JUMPDEST POP JUMP JUMPDEST PUSH0 DUP2 CALLDATALOAD SWAP1 POP PUSH3 0x4A12 DUP2 PUSH3 0x49E9 JUMP JUMPDEST SWAP3 SWAP2 POP POP JUMP JUMPDEST PUSH0 DUP1 PUSH1 0x40 DUP4 DUP6 SUB SLT ISZERO PUSH3 0x4A31 JUMPI PUSH3 0x4A30 PUSH3 0x4453 JUMP JUMPDEST JUMPDEST PUSH0 PUSH3 0x4A40 DUP6 DUP3 DUP7 ADD PUSH3 0x491A JUMP JUMPDEST SWAP3 POP POP PUSH1 0x20 PUSH3 0x4A53 DUP6 DUP3 DUP7 ADD PUSH3 0x4A02 JUMP JUMPDEST SWAP2 POP POP SWAP3 POP SWAP3 SWAP1 POP JUMP JUMPDEST PUSH3 0x4A68 DUP2 PUSH3 0x44E5 JUMP JUMPDEST DUP2 EQ PUSH3 0x4A73 JUMPI PUSH0 DUP1 REVERT JUMPDEST POP JUMP JUMPDEST PUSH0 DUP2 CALLDATALOAD SWAP1 POP PUSH3 0x4A86 DUP2 PUSH3 0x4A5D JUMP JUMPDEST SWAP3 SWAP2 POP POP JUMP JUMPDEST PUSH0 DUP1 PUSH0 DUP1 PUSH0 DUP1 PUSH0 DUP1 PUSH0 PUSH2 0x120 DUP11 DUP13 SUB SLT ISZERO PUSH3 0x4AAD JUMPI PUSH3 0x4AAC PUSH3 0x4453 JUMP JUMPDEST JUMPDEST PUSH0 PUSH3 0x4ABC DUP13 DUP3 DUP14 ADD PUSH3 0x4789 JUMP JUMPDEST SWAP10 POP POP PUSH1 0x20 PUSH3 0x4ACF DUP13 DUP3 DUP14 ADD PUSH3 0x4789 JUMP JUMPDEST SWAP9 POP POP PUSH1 0x40 PUSH3 0x4AE2 DUP13 DUP3 DUP14 ADD PUSH3 0x4789 JUMP JUMPDEST SWAP8 POP POP PUSH1 0x60 PUSH3 0x4AF5 DUP13 DUP3 DUP14 ADD PUSH3 0x4789 JUMP JUMPDEST SWAP7 POP POP PUSH1 0x80 PUSH3 0x4B08 DUP13 DUP3 DUP14 ADD PUSH3 0x4789 JUMP JUMPDEST SWAP6 POP POP PUSH1 0xA0 PUSH3 0x4B1B DUP13 DUP3 DUP14 ADD PUSH3 0x47C6 JUMP JUMPDEST SWAP5 POP POP PUSH1 0xC0 PUSH3 0x4B2E DUP13 DUP3 DUP14 ADD PUSH3 0x4789 JUMP JUMPDEST SWAP4 POP POP PUSH1 0xE0 PUSH3 0x4B41 DUP13 DUP3 DUP14 ADD PUSH3 0x47C6 JUMP JUMPDEST SWAP3 POP POP PUSH2 0x100 PUSH3 0x4B55 DUP13 DUP3 DUP14 ADD PUSH3 0x4A76 JUMP JUMPDEST SWAP2 POP POP SWAP3 SWAP6 SWAP9 POP SWAP3 SWAP6 SWAP9 POP SWAP3 SWAP6 SWAP9 JUMP JUMPDEST PUSH0 DUP1 REVERT JUMPDEST PUSH0 DUP1 REVERT JUMPDEST PUSH0 DUP1 REVERT JUMPDEST PUSH0 DUP1 DUP4 PUSH1 0x1F DUP5 ADD SLT PUSH3 0x4B89 JUMPI PUSH3 0x4B88 PUSH3 0x4B65 JUMP JUMPDEST JUMPDEST DUP3 CALLDATALOAD SWAP1 POP PUSH8 0xFFFFFFFFFFFFFFFF DUP2 GT ISZERO PUSH3 0x4BA9 JUMPI PUSH3 0x4BA8 PUSH3 0x4B69 JUMP JUMPDEST JUMPDEST PUSH1 0x20 DUP4 ADD SWAP2 POP DUP4 PUSH1 0x1 DUP3 MUL DUP4 ADD GT ISZERO PUSH3 0x4BC8 JUMPI PUSH3 0x4BC7 PUSH3 0x4B6D JUMP JUMPDEST JUMPDEST SWAP3 POP SWAP3 SWAP1 POP JUMP JUMPDEST PUSH0 DUP1 PUSH0 DUP1 PUSH0 DUP1 PUSH1 0xA0 DUP8 DUP10 SUB SLT ISZERO PUSH3 0x4BEC JUMPI PUSH3 0x4BEB PUSH3 0x4453 JUMP JUMPDEST JUMPDEST PUSH0 PUSH3 0x4BFB DUP10 DUP3 DUP11 ADD PUSH3 0x474D JUMP JUMPDEST SWAP7 POP POP PUSH1 0x20 PUSH3 0x4C0E DUP10 DUP3 DUP11 ADD PUSH3 0x474D JUMP JUMPDEST SWAP6 POP POP PUSH1 0x40 PUSH3 0x4C21 DUP10 DUP3 DUP11 ADD PUSH3 0x4789 JUMP JUMPDEST SWAP5 POP POP PUSH1 0x60 PUSH3 0x4C34 DUP10 DUP3 DUP11 ADD PUSH3 0x491A JUMP JUMPDEST SWAP4 POP POP PUSH1 0x80 DUP8 ADD CALLDATALOAD PUSH8 0xFFFFFFFFFFFFFFFF DUP2 GT ISZERO PUSH3 0x4C58 JUMPI PUSH3 0x4C57 PUSH3 0x4457 JUMP JUMPDEST JUMPDEST PUSH3 0x4C66 DUP10 DUP3 DUP11 ADD PUSH3 0x4B71 JUMP JUMPDEST SWAP3 POP SWAP3 POP POP SWAP3 SWAP6 POP SWAP3 SWAP6 POP SWAP3 SWAP6 JUMP JUMPDEST PUSH0 PUSH3 0x4C81 DUP3 PUSH3 0x470E JUMP JUMPDEST SWAP1 POP SWAP2 SWAP1 POP JUMP JUMPDEST PUSH3 0x4C93 DUP2 PUSH3 0x4C75 JUMP JUMPDEST DUP2 EQ PUSH3 0x4C9E JUMPI PUSH0 DUP1 REVERT JUMPDEST POP JUMP JUMPDEST PUSH0 DUP2 CALLDATALOAD SWAP1 POP PUSH3 0x4CB1 DUP2 PUSH3 0x4C88 JUMP JUMPDEST SWAP3 SWAP2 POP POP JUMP JUMPDEST PUSH0 PUSH1 0x20 DUP3 DUP5 SUB SLT ISZERO PUSH3 0x4CCF JUMPI PUSH3 0x4CCE PUSH3 0x4453 JUMP JUMPDEST JUMPDEST PUSH0 PUSH3 0x4CDE DUP5 DUP3 DUP6 ADD PUSH3 0x4CA1 JUMP JUMPDEST SWAP2 POP POP SWAP3 SWAP2 POP POP JUMP JUMPDEST PUSH3 0x4CF2 DUP2 PUSH3 0x470E JUMP JUMPDEST DUP3 MSTORE POP POP JUMP JUMPDEST PUSH0 PUSH1 0x20 DUP3 ADD SWAP1 POP PUSH3 0x4D0D PUSH0 DUP4 ADD DUP5 PUSH3 0x4CE7 JUMP JUMPDEST SWAP3 SWAP2 POP POP JUMP JUMPDEST PUSH0 DUP1 PUSH1 0x40 DUP4 DUP6 SUB SLT ISZERO PUSH3 0x4D2C JUMPI PUSH3 0x4D2B PUSH3 0x4453 JUMP JUMPDEST JUMPDEST PUSH0 PUSH3 0x4D3B DUP6 DUP3 DUP7 ADD PUSH3 0x4789 JUMP JUMPDEST SWAP3 POP POP PUSH1 0x20 PUSH3 0x4D4E DUP6 DUP3 DUP7 ADD PUSH3 0x4A76 JUMP JUMPDEST SWAP2 POP POP SWAP3 POP SWAP3 SWAP1 POP JUMP JUMPDEST PUSH3 0x4D63 DUP2 PUSH3 0x4545 JUMP JUMPDEST DUP3 MSTORE POP POP JUMP JUMPDEST PUSH0 PUSH1 0x20 DUP3 ADD SWAP1 POP PUSH3 0x4D7E PUSH0 DUP4 ADD DUP5 PUSH3 0x4D58 JUMP JUMPDEST SWAP3 SWAP2 POP POP JUMP JUMPDEST PUSH0 DUP1 PUSH0 DUP1 PUSH1 0x80 DUP6 DUP8 SUB SLT ISZERO PUSH3 0x4D9F JUMPI PUSH3 0x4D9E PUSH3 0x4453 JUMP JUMPDEST JUMPDEST PUSH0 PUSH3 0x4DAE DUP8 DUP3 DUP9 ADD PUSH3 0x474D JUMP JUMPDEST SWAP5 POP POP PUSH1 0x20 PUSH3 0x4DC1 DUP8 DUP3 DUP9 ADD PUSH3 0x474D JUMP JUMPDEST SWAP4 POP POP PUSH1 0x40 PUSH3 0x4DD4 DUP8 DUP3 DUP9 ADD PUSH3 0x47C6 JUMP JUMPDEST SWAP3 POP POP PUSH1 0x60 PUSH3 0x4DE7 DUP8 DUP3 DUP9 ADD PUSH3 0x4789 JUMP JUMPDEST SWAP2 POP POP SWAP3 SWAP6 SWAP2 SWAP5 POP SWAP3 POP JUMP JUMPDEST PUSH0 PUSH3 0x4DFF DUP3 PUSH3 0x46BC JUMP JUMPDEST SWAP1 POP SWAP2 SWAP1 POP JUMP JUMPDEST PUSH3 0x4E11 DUP2 PUSH3 0x4DF3 JUMP JUMPDEST DUP3 MSTORE POP POP JUMP JUMPDEST PUSH0 PUSH1 0x20 DUP3 ADD SWAP1 POP PUSH3 0x4E2C PUSH0 DUP4 ADD DUP5 PUSH3 0x4E06 JUMP JUMPDEST SWAP3 SWAP2 POP POP JUMP JUMPDEST PUSH0 DUP1 PUSH1 0x40 DUP4 DUP6 SUB SLT ISZERO PUSH3 0x4E4B JUMPI PUSH3 0x4E4A PUSH3 0x4453 JUMP JUMPDEST JUMPDEST PUSH0 PUSH3 0x4E5A DUP6 DUP3 DUP7 ADD PUSH3 0x474D JUMP JUMPDEST SWAP3 POP POP PUSH1 0x20 PUSH3 0x4E6D DUP6 DUP3 DUP7 ADD PUSH3 0x474D JUMP JUMPDEST SWAP2 POP POP SWAP3 POP SWAP3 SWAP1 POP JUMP JUMPDEST PUSH0 DUP2 MLOAD SWAP1 POP SWAP2 SWAP1 POP JUMP JUMPDEST PUSH0 DUP3 DUP3 MSTORE PUSH1 0x20 DUP3 ADD SWAP1 POP SWAP3 SWAP2 POP POP JUMP JUMPDEST PUSH0 DUP2 SWAP1 POP PUSH1 0x20 DUP3 ADD SWAP1 POP SWAP2 SWAP1 POP JUMP JUMPDEST PUSH3 0x4EAB DUP2 PUSH3 0x4763 JUMP JUMPDEST DUP3 MSTORE POP POP JUMP JUMPDEST PUSH3 0x4EBC DUP2 PUSH3 0x4DF3 JUMP JUMPDEST DUP3 MSTORE POP POP JUMP JUMPDEST PUSH3 0x4ECD DUP2 PUSH3 0x44E5 JUMP JUMPDEST DUP3 MSTORE POP POP JUMP JUMPDEST PUSH1 0x80 DUP3 ADD PUSH0 DUP3 ADD MLOAD PUSH3 0x4EE9 PUSH0 DUP6 ADD DUP3 PUSH3 0x4EA0 JUMP JUMPDEST POP PUSH1 0x20 DUP3 ADD MLOAD PUSH3 0x4EFE PUSH1 0x20 DUP6 ADD DUP3 PUSH3 0x4EB1 JUMP JUMPDEST POP PUSH1 0x40 DUP3 ADD MLOAD PUSH3 0x4F13 PUSH1 0x40 DUP6 ADD DUP3 PUSH3 0x4EC2 JUMP JUMPDEST POP PUSH1 0x60 DUP3 ADD MLOAD PUSH3 0x4F28 PUSH1 0x60 DUP6 ADD DUP3 PUSH3 0x4EC2 JUMP JUMPDEST POP POP POP POP JUMP JUMPDEST PUSH0 PUSH3 0x4F3B DUP4 DUP4 PUSH3 0x4ED3 JUMP JUMPDEST PUSH1 0x80 DUP4 ADD SWAP1 POP SWAP3 SWAP2 POP POP JUMP JUMPDEST PUSH0 PUSH1 0x20 DUP3 ADD SWAP1 POP SWAP2 SWAP1 POP JUMP JUMPDEST PUSH0 PUSH3 0x4F5F DUP3 PUSH3 0x4E77 JUMP JUMPDEST PUSH3 0x4F6B DUP2 DUP6 PUSH3 0x4E81 JUMP JUMPDEST SWAP4 POP PUSH3 0x4F78 DUP4 PUSH3 0x4E91 JUMP JUMPDEST DUP1 PUSH0 JUMPDEST DUP4 DUP2 LT ISZERO PUSH3 0x4FAE JUMPI DUP2 MLOAD PUSH3 0x4F92 DUP9 DUP3 PUSH3 0x4F2E JUMP JUMPDEST SWAP8 POP PUSH3 0x4F9F DUP4 PUSH3 0x4F47 JUMP JUMPDEST SWAP3 POP POP PUSH1 0x1 DUP2 ADD SWAP1 POP PUSH3 0x4F7B JUMP JUMPDEST POP DUP6 SWAP4 POP POP POP POP SWAP3 SWAP2 POP POP JUMP JUMPDEST PUSH0 PUSH1 0x20 DUP3 ADD SWAP1 POP DUP2 DUP2 SUB PUSH0 DUP4 ADD MSTORE PUSH3 0x4FD5 DUP2 DUP5 PUSH3 0x4F53 JUMP JUMPDEST SWAP1 POP SWAP3 SWAP2 POP POP JUMP JUMPDEST PUSH0 DUP1 PUSH0 DUP1 PUSH1 0x80 DUP6 DUP8 SUB SLT ISZERO PUSH3 0x4FF8 JUMPI PUSH3 0x4FF7 PUSH3 0x4453 JUMP JUMPDEST JUMPDEST PUSH0 PUSH3 0x5007 DUP8 DUP3 DUP9 ADD PUSH3 0x474D JUMP JUMPDEST SWAP5 POP POP PUSH1 0x20 PUSH3 0x501A DUP8 DUP3 DUP9 ADD PUSH3 0x474D JUMP JUMPDEST SWAP4 POP POP PUSH1 0x40 PUSH3 0x502D DUP8 DUP3 DUP9 ADD PUSH3 0x4789 JUMP JUMPDEST SWAP3 POP POP PUSH1 0x60 PUSH3 0x5040 DUP8 DUP3 DUP9 ADD PUSH3 0x4A76 JUMP JUMPDEST SWAP2 POP POP SWAP3 SWAP6 SWAP2 SWAP5 POP SWAP3 POP JUMP JUMPDEST PUSH0 DUP1 PUSH0 PUSH1 0x60 DUP5 DUP7 SUB SLT ISZERO PUSH3 0x5066 JUMPI PUSH3 0x5065 PUSH3 0x4453 JUMP JUMPDEST JUMPDEST PUSH0 PUSH3 0x5075 DUP7 DUP3 DUP8 ADD PUSH3 0x474D JUMP JUMPDEST SWAP4 POP POP PUSH1 0x20 PUSH3 0x5088 DUP7 DUP3 DUP8 ADD PUSH3 0x474D JUMP JUMPDEST SWAP3 POP POP PUSH1 0x40 PUSH3 0x509B DUP7 DUP3 DUP8 ADD PUSH3 0x4627 JUMP JUMPDEST SWAP2 POP POP SWAP3 POP SWAP3 POP SWAP3 JUMP JUMPDEST PUSH1 0x80 DUP3 ADD PUSH0 DUP3 ADD MLOAD PUSH3 0x50BB PUSH0 DUP6 ADD DUP3 PUSH3 0x4EA0 JUMP JUMPDEST POP PUSH1 0x20 DUP3 ADD MLOAD PUSH3 0x50D0 PUSH1 0x20 DUP6 ADD DUP3 PUSH3 0x4EB1 JUMP JUMPDEST POP PUSH1 0x40 DUP3 ADD MLOAD PUSH3 0x50E5 PUSH1 0x40 DUP6 ADD DUP3 PUSH3 0x4EC2 JUMP JUMPDEST POP PUSH1 0x60 DUP3 ADD MLOAD PUSH3 0x50FA PUSH1 0x60 DUP6 ADD DUP3 PUSH3 0x4EC2 JUMP JUMPDEST POP POP POP POP JUMP JUMPDEST PUSH0 PUSH1 0x80 DUP3 ADD SWAP1 POP PUSH3 0x5115 PUSH0 DUP4 ADD DUP5 PUSH3 0x50A5 JUMP JUMPDEST SWAP3 SWAP2 POP POP JUMP JUMPDEST PUSH0 PUSH2 0x100 DUP3 ADD SWAP1 POP PUSH3 0x5131 PUSH0 DUP4 ADD DUP12 PUSH3 0x4D58 JUMP JUMPDEST PUSH3 0x5140 PUSH1 0x20 DUP4 ADD DUP11 PUSH3 0x4D58 JUMP JUMPDEST PUSH3 0x514F PUSH1 0x40 DUP4 ADD DUP10 PUSH3 0x4D58 JUMP JUMPDEST PUSH3 0x515E PUSH1 0x60 DUP4 ADD DUP9 PUSH3 0x4D58 JUMP JUMPDEST PUSH3 0x516D PUSH1 0x80 DUP4 ADD DUP8 PUSH3 0x4D58 JUMP JUMPDEST PUSH3 0x517C PUSH1 0xA0 DUP4 ADD DUP7 PUSH3 0x4D58 JUMP JUMPDEST PUSH3 0x518B PUSH1 0xC0 DUP4 ADD DUP6 PUSH3 0x4D58 JUMP JUMPDEST PUSH3 0x519A PUSH1 0xE0 DUP4 ADD DUP5 PUSH3 0x44F0 JUMP JUMPDEST SWAP10 SWAP9 POP POP POP POP POP POP POP POP POP JUMP JUMPDEST PUSH0 DUP1 PUSH0 DUP1 PUSH1 0x80 DUP6 DUP8 SUB SLT ISZERO PUSH3 0x51C2 JUMPI PUSH3 0x51C1 PUSH3 0x4453 JUMP JUMPDEST JUMPDEST PUSH0 PUSH3 0x51D1 DUP8 DUP3 DUP9 ADD PUSH3 0x4A02 JUMP JUMPDEST SWAP5 POP POP PUSH1 0x20 PUSH3 0x51E4 DUP8 DUP3 DUP9 ADD PUSH3 0x4A02 JUMP JUMPDEST SWAP4 POP POP PUSH1 0x40 PUSH3 0x51F7 DUP8 DUP3 DUP9 ADD PUSH3 0x4627 JUMP JUMPDEST SWAP3 POP POP PUSH1 0x60 PUSH3 0x520A DUP8 DUP3 DUP9 ADD PUSH3 0x4A02 JUMP JUMPDEST SWAP2 POP POP SWAP3 SWAP6 SWAP2 SWAP5 POP SWAP3 POP JUMP JUMPDEST PUSH0 PUSH1 0x20 DUP3 DUP5 SUB SLT ISZERO PUSH3 0x522E JUMPI PUSH3 0x522D PUSH3 0x4453 JUMP JUMPDEST JUMPDEST PUSH0 PUSH3 0x523D DUP5 DUP3 DUP6 ADD PUSH3 0x4789 JUMP JUMPDEST SWAP2 POP POP SWAP3 SWAP2 POP POP JUMP JUMPDEST PUSH0 PUSH1 0x20 DUP3 DUP5 SUB SLT ISZERO PUSH3 0x525E JUMPI PUSH3 0x525D PUSH3 0x4453 JUMP JUMPDEST JUMPDEST PUSH0 PUSH3 0x526D DUP5 DUP3 DUP6 ADD PUSH3 0x4A02 JUMP JUMPDEST SWAP2 POP POP SWAP3 SWAP2 POP POP JUMP JUMPDEST PUSH32 0x4E487B7100000000000000000000000000000000000000000000000000000000 PUSH0 MSTORE PUSH1 0x41 PUSH1 0x4 MSTORE PUSH1 0x24 PUSH0 REVERT JUMPDEST PUSH32 0x4E487B7100000000000000000000000000000000000000000000000000000000 PUSH0 MSTORE PUSH1 0x32 PUSH1 0x4 MSTORE PUSH1 0x24 PUSH0 REVERT JUMPDEST PUSH32 0x4E487B7100000000000000000000000000000000000000000000000000000000 PUSH0 MSTORE PUSH1 0x11 PUSH1 0x4 MSTORE PUSH1 0x24 PUSH0 REVERT JUMPDEST PUSH0 PUSH3 0x5309 DUP3 PUSH3 0x4545 JUMP JUMPDEST SWAP2 POP PUSH32 0xFFFFFFFFFFFFFFFFFFFFFFFFFFFFFFFFFFFFFFFFFFFFFFFFFFFFFFFFFFFFFFFF DUP3 SUB PUSH3 0x533E JUMPI PUSH3 0x533D PUSH3 0x52D0 JUMP JUMPDEST JUMPDEST PUSH1 0x1 DUP3 ADD SWAP1 POP SWAP2 SWAP1 POP JUMP JUMPDEST PUSH0 PUSH3 0x5369 PUSH3 0x5363 PUSH3 0x535D DUP5 PUSH3 0x4763 JUMP JUMPDEST PUSH3 0x468C JUMP JUMPDEST PUSH3 0x4545 JUMP JUMPDEST SWAP1 POP SWAP2 SWAP1 POP JUMP JUMPDEST PUSH3 0x537B DUP2 PUSH3 0x5349 JUMP JUMPDEST DUP3 MSTORE POP POP JUMP JUMPDEST PUSH0 PUSH1 0x60 DUP3 ADD SWAP1 POP PUSH3 0x5396 PUSH0 DUP4 ADD DUP7 PUSH3 0x46E2 JUMP JUMPDEST PUSH3 0x53A5 PUSH1 0x20 DUP4 ADD DUP6 PUSH3 0x46E2 JUMP JUMPDEST PUSH3 0x53B4 PUSH1 0x40 DUP4 ADD DUP5 PUSH3 0x5370 JUMP JUMPDEST SWAP5 SWAP4 POP POP POP POP JUMP JUMPDEST PUSH3 0x53C7 DUP2 PUSH3 0x4763 JUMP JUMPDEST DUP3 MSTORE POP POP JUMP JUMPDEST PUSH3 0x53D8 DUP2 PUSH3 0x479F JUMP JUMPDEST DUP3 MSTORE POP POP JUMP JUMPDEST PUSH0 PUSH1 0xE0 DUP3 ADD SWAP1 POP PUSH3 0x53F3 PUSH0 DUP4 ADD DUP11 PUSH3 0x53BC JUMP JUMPDEST PUSH3 0x5402 PUSH1 0x20 DUP4 ADD DUP10 PUSH3 0x53BC JUMP JUMPDEST PUSH3 0x5411 PUSH1 0x40 DUP4 ADD DUP9 PUSH3 0x53BC JUMP JUMPDEST PUSH3 0x5420 PUSH1 0x60 DUP4 ADD DUP8 PUSH3 0x53BC JUMP JUMPDEST PUSH3 0x542F PUSH1 0x80 DUP4 ADD DUP7 PUSH3 0x53CD JUMP JUMPDEST PUSH3 0x543E PUSH1 0xA0 DUP4 ADD DUP6 PUSH3 0x53BC JUMP JUMPDEST PUSH3 0x544D PUSH1 0xC0 DUP4 ADD DUP5 PUSH3 0x53CD JUMP JUMPDEST SWAP9 SWAP8 POP POP POP POP POP POP POP POP JUMP JUMPDEST PUSH0 PUSH1 0x20 DUP3 ADD SWAP1 POP PUSH3 0x546E PUSH0 DUP4 ADD DUP5 PUSH3 0x5370 JUMP JUMPDEST SWAP3 SWAP2 POP POP JUMP JUMPDEST PUSH0 PUSH3 0x5494 PUSH3 0x548E PUSH3 0x5488 DUP5 PUSH3 0x479F JUMP JUMPDEST PUSH3 0x468C JUMP JUMPDEST PUSH3 0x4545 JUMP JUMPDEST SWAP1 POP SWAP2 SWAP1 POP JUMP JUMPDEST PUSH3 0x54A6 DUP2 PUSH3 0x5474 JUMP JUMPDEST DUP3 MSTORE POP POP JUMP JUMPDEST PUSH0 PUSH1 0xE0 DUP3 ADD SWAP1 POP PUSH3 0x54C1 PUSH0 DUP4 ADD DUP11 PUSH3 0x5370 JUMP JUMPDEST PUSH3 0x54D0 PUSH1 0x20 DUP4 ADD DUP10 PUSH3 0x5370 JUMP JUMPDEST PUSH3 0x54DF PUSH1 0x40 DUP4 ADD DUP9 PUSH3 0x5370 JUMP JUMPDEST PUSH3 0x54EE PUSH1 0x60 DUP4 ADD DUP8 PUSH3 0x5370 JUMP JUMPDEST PUSH3 0x54FD PUSH1 0x80 DUP4 ADD DUP7 PUSH3 0x549B JUMP JUMPDEST PUSH3 0x550C PUSH1 0xA0 DUP4 ADD DUP6 PUSH3 0x5370 JUMP JUMPDEST PUSH3 0x551B PUSH1 0xC0 DUP4 ADD DUP5 PUSH3 0x549B JUMP JUMPDEST SWAP9 SWAP8 POP POP POP POP POP POP POP POP JUMP JUMPDEST PUSH0 PUSH1 0x40 DUP3 ADD SWAP1 POP PUSH3 0x553C PUSH0 DUP4 ADD DUP6 PUSH3 0x4CE7 JUMP JUMPDEST PUSH3 0x554B PUSH1 0x20 DUP4 ADD DUP5 PUSH3 0x5370 JUMP JUMPDEST SWAP4 SWAP3 POP POP POP JUMP JUMPDEST PUSH0 PUSH2 0x100 DUP3 ADD SWAP1 POP PUSH3 0x5568 PUSH0 DUP4 ADD DUP12 PUSH3 0x53BC JUMP JUMPDEST PUSH3 0x5577 PUSH1 0x20 DUP4 ADD DUP11 PUSH3 0x53BC JUMP JUMPDEST PUSH3 0x5586 PUSH1 0x40 DUP4 ADD DUP10 PUSH3 0x53BC JUMP JUMPDEST PUSH3 0x5595 PUSH1 0x60 DUP4 ADD DUP9 PUSH3 0x53BC JUMP JUMPDEST PUSH3 0x55A4 PUSH1 0x80 DUP4 ADD DUP8 PUSH3 0x53CD JUMP JUMPDEST PUSH3 0x55B3 PUSH1 0xA0 DUP4 ADD DUP7 PUSH3 0x53BC JUMP JUMPDEST PUSH3 0x55C2 PUSH1 0xC0 DUP4 ADD DUP6 PUSH3 0x53CD JUMP JUMPDEST PUSH3 0x55D1 PUSH1 0xE0 DUP4 ADD DUP5 PUSH3 0x53CD JUMP JUMPDEST SWAP10 SWAP9 POP POP POP POP POP POP POP POP POP JUMP JUMPDEST PUSH0 DUP2 PUSH1 0x60 SHL SWAP1 POP SWAP2 SWAP1 POP JUMP JUMPDEST PUSH0 PUSH3 0x55F6 DUP3 PUSH3 0x55DE JUMP JUMPDEST SWAP1 POP SWAP2 SWAP1 POP JUMP JUMPDEST PUSH0 PUSH3 0x5609 DUP3 PUSH3 0x55EA JUMP JUMPDEST SWAP1 POP SWAP2 SWAP1 POP JUMP JUMPDEST PUSH3 0x5625 PUSH3 0x561F DUP3 PUSH3 0x46CF JUMP JUMPDEST PUSH3 0x55FD JUMP JUMPDEST DUP3 MSTORE POP POP JUMP JUMPDEST PUSH0 DUP2 PUSH1 0xF0 SHL SWAP1 POP SWAP2 SWAP1 POP JUMP JUMPDEST PUSH0 PUSH3 0x5643 DUP3 PUSH3 0x562B JUMP JUMPDEST SWAP1 POP SWAP2 SWAP1 POP JUMP JUMPDEST PUSH3 0x565F PUSH3 0x5659 DUP3 PUSH3 0x4763 JUMP JUMPDEST PUSH3 0x5637 JUMP JUMPDEST DUP3 MSTORE POP POP JUMP JUMPDEST PUSH0 PUSH3 0x5672 DUP3 DUP7 PUSH3 0x5610 JUMP JUMPDEST PUSH1 0x14 DUP3 ADD SWAP2 POP PUSH3 0x5684 DUP3 DUP6 PUSH3 0x5610 JUMP JUMPDEST PUSH1 0x14 DUP3 ADD SWAP2 POP PUSH3 0x5696 DUP3 DUP5 PUSH3 0x564A JUMP JUMPDEST PUSH1 0x2 DUP3 ADD SWAP2 POP DUP2 SWAP1 POP SWAP5 SWAP4 POP POP POP POP JUMP JUMPDEST PUSH0 DUP2 MLOAD SWAP1 POP SWAP2 SWAP1 POP JUMP JUMPDEST PUSH0 DUP3 DUP3 MSTORE PUSH1 0x20 DUP3 ADD SWAP1 POP SWAP3 SWAP2 POP POP JUMP JUMPDEST PUSH0 JUMPDEST DUP4 DUP2 LT ISZERO PUSH3 0x56E0 JUMPI DUP1 DUP3 ADD MLOAD DUP2 DUP5 ADD MSTORE PUSH1 0x20 DUP2 ADD SWAP1 POP PUSH3 0x56C3 JUMP JUMPDEST PUSH0 DUP5 DUP5 ADD MSTORE POP POP POP POP JUMP JUMPDEST PUSH0 PUSH1 0x1F NOT PUSH1 0x1F DUP4 ADD AND SWAP1 POP SWAP2 SWAP1 POP JUMP JUMPDEST PUSH0 PUSH3 0x5707 DUP3 PUSH3 0x56A7 JUMP JUMPDEST PUSH3 0x5713 DUP2 DUP6 PUSH3 0x56B1 JUMP JUMPDEST SWAP4 POP PUSH3 0x5725 DUP2 DUP6 PUSH1 0x20 DUP7 ADD PUSH3 0x56C1 JUMP JUMPDEST PUSH3 0x5730 DUP2 PUSH3 0x56EB JUMP JUMPDEST DUP5 ADD SWAP2 POP POP SWAP3 SWAP2 POP POP JUMP JUMPDEST PUSH0 PUSH1 0xA0 DUP3 ADD SWAP1 POP PUSH3 0x5750 PUSH0 DUP4 ADD DUP9 PUSH3 0x4CE7 JUMP JUMPDEST PUSH3 0x575F PUSH1 0x20 DUP4 ADD DUP8 PUSH3 0x46E2 JUMP JUMPDEST PUSH3 0x576E PUSH1 0x40 DUP4 ADD DUP7 PUSH3 0x46E2 JUMP JUMPDEST PUSH3 0x577D PUSH1 0x60 DUP4 ADD DUP6 PUSH3 0x53BC JUMP JUMPDEST DUP2 DUP2 SUB PUSH1 0x80 DUP4 ADD MSTORE PUSH3 0x5791 DUP2 DUP5 PUSH3 0x56FB JUMP JUMPDEST SWAP1 POP SWAP7 SWAP6 POP POP POP POP POP POP JUMP JUMPDEST PUSH0 DUP2 SWAP1 POP SWAP3 SWAP2 POP POP JUMP JUMPDEST PUSH0 PUSH3 0x57B3 DUP3 PUSH3 0x56A7 JUMP JUMPDEST PUSH3 0x57BF DUP2 DUP6 PUSH3 0x579D JUMP JUMPDEST SWAP4 POP PUSH3 0x57D1 DUP2 DUP6 PUSH1 0x20 DUP7 ADD PUSH3 0x56C1 JUMP JUMPDEST DUP1 DUP5 ADD SWAP2 POP POP SWAP3 SWAP2 POP POP JUMP JUMPDEST PUSH0 PUSH3 0x57EA DUP3 DUP6 PUSH3 0x57A7 JUMP JUMPDEST SWAP2 POP PUSH3 0x57F8 DUP3 DUP5 PUSH3 0x57A7 JUMP JUMPDEST SWAP2 POP DUP2 SWAP1 POP SWAP4 SWAP3 POP POP POP JUMP JUMPDEST PUSH0 PUSH3 0x5810 DUP3 PUSH3 0x4545 JUMP JUMPDEST SWAP2 POP PUSH3 0x581D DUP4 PUSH3 0x4545 JUMP JUMPDEST SWAP3 POP DUP3 DUP3 SUB SWAP1 POP DUP2 DUP2 GT ISZERO PUSH3 0x5838 JUMPI PUSH3 0x5837 PUSH3 0x52D0 JUMP JUMPDEST JUMPDEST SWAP3 SWAP2 POP POP JUMP JUMPDEST PUSH0 PUSH1 0x40 DUP3 ADD SWAP1 POP PUSH3 0x5853 PUSH0 DUP4 ADD DUP6 PUSH3 0x4E06 JUMP JUMPDEST PUSH3 0x5862 PUSH1 0x20 DUP4 ADD DUP5 PUSH3 0x4D58 JUMP JUMPDEST SWAP4 SWAP3 POP POP POP JUMP JUMPDEST PUSH0 PUSH1 0x40 DUP3 ADD SWAP1 POP PUSH3 0x587E PUSH0 DUP4 ADD DUP6 PUSH3 0x4D58 JUMP JUMPDEST PUSH3 0x588D PUSH1 0x20 DUP4 ADD DUP5 PUSH3 0x4D58 JUMP JUMPDEST SWAP4 SWAP3 POP POP POP JUMP JUMPDEST PUSH0 DUP2 SWAP1 POP SWAP2 SWAP1 POP JUMP JUMPDEST PUSH0 PUSH3 0x58BD PUSH3 0x58B7 PUSH3 0x58B1 DUP5 PUSH3 0x5894 JUMP JUMPDEST PUSH3 0x468C JUMP JUMPDEST PUSH3 0x4545 JUMP JUMPDEST SWAP1 POP SWAP2 SWAP1 POP JUMP JUMPDEST PUSH3 0x58CF DUP2 PUSH3 0x589D JUMP JUMPDEST DUP3 MSTORE POP POP JUMP JUMPDEST PUSH0 PUSH1 0x40 DUP3 ADD SWAP1 POP PUSH3 0x58EA PUSH0 DUP4 ADD DUP6 PUSH3 0x58C4 JUMP JUMPDEST PUSH3 0x58F9 PUSH1 0x20 DUP4 ADD DUP5 PUSH3 0x4D58 JUMP JUMPDEST SWAP4 SWAP3 POP POP POP JUMP JUMPDEST PUSH0 DUP2 SWAP1 POP SWAP2 SWAP1 POP JUMP JUMPDEST PUSH0 PUSH8 0xFFFFFFFFFFFFFFFF DUP3 AND SWAP1 POP SWAP2 SWAP1 POP JUMP JUMPDEST PUSH0 PUSH3 0x593C PUSH3 0x5936 PUSH3 0x5930 DUP5 PUSH3 0x5900 JUMP JUMPDEST PUSH3 0x468C JUMP JUMPDEST PUSH3 0x5909 JUMP JUMPDEST SWAP1 POP SWAP2 SWAP1 POP JUMP JUMPDEST PUSH3 0x594E DUP2 PUSH3 0x591C JUMP JUMPDEST DUP3 MSTORE POP POP JUMP JUMPDEST PUSH0 PUSH1 0x20 DUP3 ADD SWAP1 POP PUSH3 0x5969 PUSH0 DUP4 ADD DUP5 PUSH3 0x5943 JUMP JUMPDEST SWAP3 SWAP2 POP POP JUMP JUMPDEST PUSH0 DUP2 MLOAD SWAP1 POP PUSH3 0x597F DUP2 PUSH3 0x4901 JUMP JUMPDEST SWAP3 SWAP2 POP POP JUMP JUMPDEST PUSH0 PUSH1 0x20 DUP3 DUP5 SUB SLT ISZERO PUSH3 0x599D JUMPI PUSH3 0x599C PUSH3 0x4453 JUMP JUMPDEST JUMPDEST PUSH0 PUSH3 0x59AC DUP5 DUP3 DUP6 ADD PUSH3 0x596F JUMP JUMPDEST SWAP2 POP POP SWAP3 SWAP2 POP POP JUMP JUMPDEST PUSH0 PUSH1 0x40 DUP3 ADD SWAP1 POP PUSH3 0x59CA PUSH0 DUP4 ADD DUP6 PUSH3 0x48D5 JUMP JUMPDEST DUP2 DUP2 SUB PUSH1 0x20 DUP4 ADD MSTORE PUSH3 0x59DE DUP2 DUP5 PUSH3 0x56FB JUMP JUMPDEST SWAP1 POP SWAP4 SWAP3 POP POP POP JUMP JUMPDEST PUSH0 PUSH1 0x40 DUP3 ADD SWAP1 POP PUSH3 0x59FC PUSH0 DUP4 ADD DUP6 PUSH3 0x4CE7 JUMP JUMPDEST PUSH3 0x5A0B PUSH1 0x20 DUP4 ADD DUP5 PUSH3 0x4CE7 JUMP JUMPDEST SWAP4 SWAP3 POP POP POP JUMP JUMPDEST PUSH0 PUSH1 0x40 DUP3 ADD SWAP1 POP PUSH3 0x5A27 PUSH0 DUP4 ADD DUP6 PUSH3 0x4CE7 JUMP JUMPDEST PUSH3 0x5A36 PUSH1 0x20 DUP4 ADD DUP5 PUSH3 0x48D5 JUMP JUMPDEST SWAP4 SWAP3 POP POP POP JUMP JUMPDEST PUSH32 0x4E487B7100000000000000000000000000000000000000000000000000000000 PUSH0 MSTORE PUSH1 0x12 PUSH1 0x4 MSTORE PUSH1 0x24 PUSH0 REVERT JUMPDEST PUSH0 DUP2 SWAP1 POP SWAP2 SWAP1 POP JUMP JUMPDEST PUSH3 0x5A7E DUP2 PUSH3 0x5A6A JUMP JUMPDEST DUP3 MSTORE POP POP JUMP JUMPDEST PUSH0 PUSH1 0x40 DUP3 ADD SWAP1 POP PUSH3 0x5A99 PUSH0 DUP4 ADD DUP6 PUSH3 0x4D58 JUMP JUMPDEST PUSH3 0x5AA8 PUSH1 0x20 DUP4 ADD DUP5 PUSH3 0x5A73 JUMP JUMPDEST SWAP4 SWAP3 POP POP POP JUMP JUMPDEST PUSH0 PUSH3 0x5ABB DUP3 PUSH3 0x4545 JUMP JUMPDEST SWAP2 POP PUSH3 0x5AC8 DUP4 PUSH3 0x4545 JUMP JUMPDEST SWAP3 POP DUP3 PUSH3 0x5ADB JUMPI PUSH3 0x5ADA PUSH3 0x5A3D JUMP JUMPDEST JUMPDEST DUP3 DUP3 DIV SWAP1 POP SWAP3 SWAP2 POP POP JUMP JUMPDEST PUSH32 0x4E487B7100000000000000000000000000000000000000000000000000000000 PUSH0 MSTORE PUSH1 0x31 PUSH1 0x4 MSTORE PUSH1 0x24 PUSH0 REVERT INVALID PUSH1 0xA0 PUSH1 0x40 MSTORE PUSH1 0x40 MLOAD PUSH3 0x19BA CODESIZE SUB DUP1 PUSH3 0x19BA DUP4 CODECOPY DUP2 DUP2 ADD PUSH1 0x40 MSTORE DUP2 ADD SWAP1 PUSH3 0x29 SWAP2 SWAP1 PUSH3 0xDAB JUMP JUMPDEST DUP5 PUSH1 0x40 MLOAD DUP1 PUSH1 0x20 ADD PUSH1 0x40 MSTORE DUP1 PUSH0 DUP2 MSTORE POP PUSH3 0x4B DUP3 DUP3 PUSH3 0x59D PUSH1 0x20 SHL PUSH1 0x20 SHR JUMP JUMPDEST DUP2 PUSH20 0xFFFFFFFFFFFFFFFFFFFFFFFFFFFFFFFFFFFFFFFF AND PUSH1 0x80 DUP2 PUSH20 0xFFFFFFFFFFFFFFFFFFFFFFFFFFFFFFFFFFFFFFFF AND DUP2 MSTORE POP POP POP POP PUSH0 DUP1 DUP6 PUSH20 0xFFFFFFFFFFFFFFFFFFFFFFFFFFFFFFFFFFFFFFFF AND PUSH1 0x40 MLOAD PUSH1 0x24 ADD PUSH1 0x40 MLOAD PUSH1 0x20 DUP2 DUP4 SUB SUB DUP2 MSTORE SWAP1 PUSH1 0x40 MSTORE PUSH32 0x95D89B4100000000000000000000000000000000000000000000000000000000 PUSH28 0xFFFFFFFFFFFFFFFFFFFFFFFFFFFFFFFFFFFFFFFFFFFFFFFFFFFFFFFF NOT AND PUSH1 0x20 DUP3 ADD DUP1 MLOAD PUSH28 0xFFFFFFFFFFFFFFFFFFFFFFFFFFFFFFFFFFFFFFFFFFFFFFFFFFFFFFFF DUP4 DUP2 DUP4 AND OR DUP4 MSTORE POP POP POP POP PUSH1 0x40 MLOAD PUSH3 0x12C SWAP2 SWAP1 PUSH3 0xE98 JUMP JUMPDEST PUSH0 PUSH1 0x40 MLOAD DUP1 DUP4 SUB DUP2 DUP6 GAS STATICCALL SWAP2 POP POP RETURNDATASIZE DUP1 PUSH0 DUP2 EQ PUSH3 0x166 JUMPI PUSH1 0x40 MLOAD SWAP2 POP PUSH1 0x1F NOT PUSH1 0x3F RETURNDATASIZE ADD AND DUP3 ADD PUSH1 0x40 MSTORE RETURNDATASIZE DUP3 MSTORE RETURNDATASIZE PUSH0 PUSH1 0x20 DUP5 ADD RETURNDATACOPY PUSH3 0x16B JUMP JUMPDEST PUSH1 0x60 SWAP2 POP JUMPDEST POP SWAP2 POP SWAP2 POP PUSH0 DUP2 DUP1 PUSH1 0x20 ADD SWAP1 MLOAD DUP2 ADD SWAP1 PUSH3 0x187 SWAP2 SWAP1 PUSH3 0xF61 JUMP JUMPDEST SWAP1 POP PUSH0 DUP1 DUP8 PUSH20 0xFFFFFFFFFFFFFFFFFFFFFFFFFFFFFFFFFFFFFFFF AND PUSH1 0x40 MLOAD PUSH1 0x24 ADD PUSH1 0x40 MLOAD PUSH1 0x20 DUP2 DUP4 SUB SUB DUP2 MSTORE SWAP1 PUSH1 0x40 MSTORE PUSH32 0x95D89B4100000000000000000000000000000000000000000000000000000000 PUSH28 0xFFFFFFFFFFFFFFFFFFFFFFFFFFFFFFFFFFFFFFFFFFFFFFFFFFFFFFFF NOT AND PUSH1 0x20 DUP3 ADD DUP1 MLOAD PUSH28 0xFFFFFFFFFFFFFFFFFFFFFFFFFFFFFFFFFFFFFFFFFFFFFFFFFFFFFFFF DUP4 DUP2 DUP4 AND OR DUP4 MSTORE POP POP POP POP PUSH1 0x40 MLOAD PUSH3 0x234 SWAP2 SWAP1 PUSH3 0xE98 JUMP JUMPDEST PUSH0 PUSH1 0x40 MLOAD DUP1 DUP4 SUB DUP2 DUP6 GAS STATICCALL SWAP2 POP POP RETURNDATASIZE DUP1 PUSH0 DUP2 EQ PUSH3 0x26E JUMPI PUSH1 0x40 MLOAD SWAP2 POP PUSH1 0x1F NOT PUSH1 0x3F RETURNDATASIZE ADD AND DUP3 ADD PUSH1 0x40 MSTORE RETURNDATASIZE DUP3 MSTORE RETURNDATASIZE PUSH0 PUSH1 0x20 DUP5 ADD RETURNDATACOPY PUSH3 0x273 JUMP JUMPDEST PUSH1 0x60 SWAP2 POP JUMPDEST POP SWAP2 POP SWAP2 POP PUSH0 DUP2 DUP1 PUSH1 0x20 ADD SWAP1 MLOAD DUP2 ADD SWAP1 PUSH3 0x28F SWAP2 SWAP1 PUSH3 0xF61 JUMP JUMPDEST SWAP1 POP DUP6 DUP1 ISZERO PUSH3 0x29C JUMPI POP DUP3 JUMPDEST PUSH3 0x2DE JUMPI PUSH1 0x40 MLOAD PUSH32 0x8C379A000000000000000000000000000000000000000000000000000000000 DUP2 MSTORE PUSH1 0x4 ADD PUSH3 0x2D5 SWAP1 PUSH3 0x1034 JUMP JUMPDEST PUSH1 0x40 MLOAD DUP1 SWAP2 SUB SWAP1 REVERT JUMPDEST PUSH1 0x40 MLOAD DUP1 PUSH1 0x20 ADD PUSH1 0x40 MSTORE DUP1 PUSH0 DUP2 MSTORE POP DUP1 MLOAD SWAP1 PUSH1 0x20 ADD KECCAK256 DUP5 DUP1 MLOAD SWAP1 PUSH1 0x20 ADD KECCAK256 EQ ISZERO DUP1 ISZERO PUSH3 0x327 JUMPI POP PUSH1 0x40 MLOAD DUP1 PUSH1 0x20 ADD PUSH1 0x40 MSTORE DUP1 PUSH0 DUP2 MSTORE POP DUP1 MLOAD SWAP1 PUSH1 0x20 ADD KECCAK256 DUP2 DUP1 MLOAD SWAP1 PUSH1 0x20 ADD KECCAK256 EQ ISZERO JUMPDEST PUSH3 0x369 JUMPI PUSH1 0x40 MLOAD PUSH32 0x8C379A000000000000000000000000000000000000000000000000000000000 DUP2 MSTORE PUSH1 0x4 ADD PUSH3 0x360 SWAP1 PUSH3 0x10C8 JUMP JUMPDEST PUSH1 0x40 MLOAD DUP1 SWAP2 SUB SWAP1 REVERT JUMPDEST DUP10 PUSH3 0x39D PUSH32 0x3441AB29B24DAF7A3FD59500B0E08396EC08EC96F5CC2D0362924CDD45CFEC31 PUSH0 SHL PUSH3 0x698 PUSH1 0x20 SHL PUSH1 0x20 SHR JUMP JUMPDEST PUSH0 ADD PUSH0 PUSH2 0x100 EXP DUP2 SLOAD DUP2 PUSH20 0xFFFFFFFFFFFFFFFFFFFFFFFFFFFFFFFFFFFFFFFF MUL NOT AND SWAP1 DUP4 PUSH20 0xFFFFFFFFFFFFFFFFFFFFFFFFFFFFFFFFFFFFFFFF AND MUL OR SWAP1 SSTORE POP DUP9 PUSH3 0x410 PUSH32 0x7E1935766B7C49E7482A018A5EE52CA183A2DDFCB6810787916934079AA58264 PUSH0 SHL PUSH3 0x698 PUSH1 0x20 SHL PUSH1 0x20 SHR JUMP JUMPDEST PUSH0 ADD PUSH0 PUSH2 0x100 EXP DUP2 SLOAD DUP2 PUSH20 0xFFFFFFFFFFFFFFFFFFFFFFFFFFFFFFFFFFFFFFFF MUL NOT AND SWAP1 DUP4 PUSH20 0xFFFFFFFFFFFFFFFFFFFFFFFFFFFFFFFFFFFFFFFF AND MUL OR SWAP1 SSTORE POP DUP8 PUSH2 0xFFFF AND PUSH3 0x487 PUSH32 0xFF057B3B4D4500DDA208CDE5D654DB7AA2EC63AC10AB9F9956A1F56973842782 PUSH0 SHL PUSH3 0x6A1 PUSH1 0x20 SHL PUSH1 0x20 SHR JUMP JUMPDEST PUSH0 ADD DUP2 SWAP1 SSTORE POP PUSH0 PUSH3 0x4A3 DUP10 PUSH2 0xFFFF AND PUSH3 0x6AA PUSH1 0x20 SHL PUSH1 0x20 SHR JUMP JUMPDEST SWAP1 POP DUP5 DUP3 DUP3 PUSH1 0x40 MLOAD PUSH1 0x20 ADD PUSH3 0x4BC SWAP4 SWAP3 SWAP2 SWAP1 PUSH3 0x117E JUMP JUMPDEST PUSH1 0x40 MLOAD PUSH1 0x20 DUP2 DUP4 SUB SUB DUP2 MSTORE SWAP1 PUSH1 0x40 MSTORE PUSH3 0x4FE PUSH32 0x64FB4ECF63A4059A0BB1412609335673D4954BFF8E9740D216D9469D190CBB3F PUSH0 SHL PUSH3 0x830 PUSH1 0x20 SHL PUSH1 0x20 SHR JUMP JUMPDEST PUSH0 ADD SWAP1 DUP2 PUSH3 0x50E SWAP2 SWAP1 PUSH3 0x1414 JUMP JUMPDEST POP DUP5 DUP3 DUP3 PUSH1 0x40 MLOAD PUSH1 0x20 ADD PUSH3 0x526 SWAP4 SWAP3 SWAP2 SWAP1 PUSH3 0x151E JUMP JUMPDEST PUSH1 0x40 MLOAD PUSH1 0x20 DUP2 DUP4 SUB SUB DUP2 MSTORE SWAP1 PUSH1 0x40 MSTORE PUSH3 0x568 PUSH32 0xD668863F064048EE8C87390227CA6556D110ECF41306C7B64AAB5C1C530B2D84 PUSH0 SHL PUSH3 0x830 PUSH1 0x20 SHL PUSH1 0x20 SHR JUMP JUMPDEST PUSH0 ADD SWAP1 DUP2 PUSH3 0x578 SWAP2 SWAP1 PUSH3 0x1414 JUMP JUMPDEST POP PUSH3 0x58B DUP13 DUP10 PUSH3 0x59D PUSH1 0x20 SHL PUSH1 0x20 SHR JUMP JUMPDEST POP POP POP POP POP POP POP POP POP POP POP POP PUSH3 0x177E JUMP JUMPDEST PUSH3 0x5AE DUP3 PUSH3 0x839 PUSH1 0x20 SHL PUSH1 0x20 SHR JUMP JUMPDEST DUP2 PUSH20 0xFFFFFFFFFFFFFFFFFFFFFFFFFFFFFFFFFFFFFFFF AND PUSH32 0x1CF3B03A6CF19FA2BABA4DF148E9DCABEDEA7F8A5C07840E207E5C089BE95D3E PUSH1 0x40 MLOAD PUSH1 0x40 MLOAD DUP1 SWAP2 SUB SWAP1 LOG2 PUSH0 DUP2 MLOAD GT ISZERO PUSH3 0x683 JUMPI PUSH3 0x67C DUP3 PUSH20 0xFFFFFFFFFFFFFFFFFFFFFFFFFFFFFFFFFFFFFFFF AND PUSH4 0x5C60DA1B PUSH1 0x40 MLOAD DUP2 PUSH4 0xFFFFFFFF AND PUSH1 0xE0 SHL DUP2 MSTORE PUSH1 0x4 ADD PUSH1 0x20 PUSH1 0x40 MLOAD DUP1 DUP4 SUB DUP2 DUP7 GAS STATICCALL ISZERO DUP1 ISZERO PUSH3 0x649 JUMPI RETURNDATASIZE PUSH0 DUP1 RETURNDATACOPY RETURNDATASIZE PUSH0 REVERT JUMPDEST POP POP POP POP PUSH1 0x40 MLOAD RETURNDATASIZE PUSH1 0x1F NOT PUSH1 0x1F DUP3 ADD AND DUP3 ADD DUP1 PUSH1 0x40 MSTORE POP DUP2 ADD SWAP1 PUSH3 0x66F SWAP2 SWAP1 PUSH3 0x1587 JUMP JUMPDEST DUP3 PUSH3 0x9DF PUSH1 0x20 SHL PUSH1 0x20 SHR JUMP JUMPDEST POP PUSH3 0x694 JUMP JUMPDEST PUSH3 0x693 PUSH3 0xA6B PUSH1 0x20 SHL PUSH1 0x20 SHR JUMP JUMPDEST JUMPDEST POP POP JUMP JUMPDEST PUSH0 DUP2 SWAP1 POP SWAP2 SWAP1 POP JUMP JUMPDEST PUSH0 DUP2 SWAP1 POP SWAP2 SWAP1 POP JUMP JUMPDEST PUSH1 0x60 PUSH0 DUP3 PUSH2 0xFFFF AND SUB PUSH3 0x6F6 JUMPI PUSH1 0x40 MLOAD DUP1 PUSH1 0x40 ADD PUSH1 0x40 MSTORE DUP1 PUSH1 0x1 DUP2 MSTORE PUSH1 0x20 ADD PUSH32 0x3000000000000000000000000000000000000000000000000000000000000000 DUP2 MSTORE POP SWAP1 POP PUSH3 0x82B JUMP JUMPDEST PUSH0 DUP3 SWAP1 POP PUSH0 JUMPDEST PUSH0 DUP3 PUSH2 0xFFFF AND EQ PUSH3 0x72F JUMPI DUP1 DUP1 PUSH3 0x715 SWAP1 PUSH3 0x15E4 JUMP JUMPDEST SWAP2 POP POP PUSH1 0xA DUP3 PUSH3 0x727 SWAP2 SWAP1 PUSH3 0x163F JUMP JUMPDEST SWAP2 POP PUSH3 0x6FC JUMP JUMPDEST PUSH0 DUP2 PUSH2 0xFFFF AND PUSH8 0xFFFFFFFFFFFFFFFF DUP2 GT ISZERO PUSH3 0x751 JUMPI PUSH3 0x750 PUSH3 0xC4F JUMP JUMPDEST JUMPDEST PUSH1 0x40 MLOAD SWAP1 DUP1 DUP3 MSTORE DUP1 PUSH1 0x1F ADD PUSH1 0x1F NOT AND PUSH1 0x20 ADD DUP3 ADD PUSH1 0x40 MSTORE DUP1 ISZERO PUSH3 0x784 JUMPI DUP2 PUSH1 0x20 ADD PUSH1 0x1 DUP3 MUL DUP1 CALLDATASIZE DUP4 CALLDATACOPY DUP1 DUP3 ADD SWAP2 POP POP SWAP1 POP JUMPDEST POP SWAP1 POP JUMPDEST PUSH0 DUP6 PUSH2 0xFFFF AND EQ PUSH3 0x824 JUMPI PUSH1 0x1 DUP3 PUSH3 0x7A3 SWAP2 SWAP1 PUSH3 0x1676 JUMP JUMPDEST SWAP2 POP PUSH1 0xA DUP6 PUSH3 0x7B4 SWAP2 SWAP1 PUSH3 0x16B2 JUMP JUMPDEST PUSH1 0x30 PUSH3 0x7C2 SWAP2 SWAP1 PUSH3 0x16E9 JUMP JUMPDEST PUSH1 0xF8 SHL DUP2 DUP4 PUSH2 0xFFFF AND DUP2 MLOAD DUP2 LT PUSH3 0x7DF JUMPI PUSH3 0x7DE PUSH3 0x1725 JUMP JUMPDEST JUMPDEST PUSH1 0x20 ADD ADD SWAP1 PUSH31 0xFFFFFFFFFFFFFFFFFFFFFFFFFFFFFFFFFFFFFFFFFFFFFFFFFFFFFFFFFFFFFF NOT AND SWAP1 DUP2 PUSH0 BYTE SWAP1 MSTORE8 POP PUSH1 0xA DUP6 PUSH3 0x81C SWAP2 SWAP1 PUSH3 0x163F JUMP JUMPDEST SWAP5 POP PUSH3 0x788 JUMP JUMPDEST DUP1 SWAP4 POP POP POP POP JUMPDEST SWAP2 SWAP1 POP JUMP JUMPDEST PUSH0 DUP2 SWAP1 POP SWAP2 SWAP1 POP JUMP JUMPDEST PUSH0 DUP2 PUSH20 0xFFFFFFFFFFFFFFFFFFFFFFFFFFFFFFFFFFFFFFFF AND EXTCODESIZE SUB PUSH3 0x897 JUMPI DUP1 PUSH1 0x40 MLOAD PUSH32 0x64CED0EC00000000000000000000000000000000000000000000000000000000 DUP2 MSTORE PUSH1 0x4 ADD PUSH3 0x88E SWAP2 SWAP1 PUSH3 0x1763 JUMP JUMPDEST PUSH1 0x40 MLOAD DUP1 SWAP2 SUB SWAP1 REVERT JUMPDEST DUP1 PUSH3 0x8CB PUSH32 0xA3F0AD74E5423AEBFD80D3EF4346578335A9A72AEAEE59FF6CB3582B35133D50 PUSH0 SHL PUSH3 0x698 PUSH1 0x20 SHL PUSH1 0x20 SHR JUMP JUMPDEST PUSH0 ADD PUSH0 PUSH2 0x100 EXP DUP2 SLOAD DUP2 PUSH20 0xFFFFFFFFFFFFFFFFFFFFFFFFFFFFFFFFFFFFFFFF MUL NOT AND SWAP1 DUP4 PUSH20 0xFFFFFFFFFFFFFFFFFFFFFFFFFFFFFFFFFFFFFFFF AND MUL OR SWAP1 SSTORE POP PUSH0 DUP2 PUSH20 0xFFFFFFFFFFFFFFFFFFFFFFFFFFFFFFFFFFFFFFFF AND PUSH4 0x5C60DA1B PUSH1 0x40 MLOAD DUP2 PUSH4 0xFFFFFFFF AND PUSH1 0xE0 SHL DUP2 MSTORE PUSH1 0x4 ADD PUSH1 0x20 PUSH1 0x40 MLOAD DUP1 DUP4 SUB DUP2 DUP7 GAS STATICCALL ISZERO DUP1 ISZERO PUSH3 0x955 JUMPI RETURNDATASIZE PUSH0 DUP1 RETURNDATACOPY RETURNDATASIZE PUSH0 REVERT JUMPDEST POP POP POP POP PUSH1 0x40 MLOAD RETURNDATASIZE PUSH1 0x1F NOT PUSH1 0x1F DUP3 ADD AND DUP3 ADD DUP1 PUSH1 0x40 MSTORE POP DUP2 ADD SWAP1 PUSH3 0x97B SWAP2 SWAP1 PUSH3 0x1587 JUMP JUMPDEST SWAP1 POP PUSH0 DUP2 PUSH20 0xFFFFFFFFFFFFFFFFFFFFFFFFFFFFFFFFFFFFFFFF AND EXTCODESIZE SUB PUSH3 0x9DB JUMPI DUP1 PUSH1 0x40 MLOAD PUSH32 0x4C9C8CE300000000000000000000000000000000000000000000000000000000 DUP2 MSTORE PUSH1 0x4 ADD PUSH3 0x9D2 SWAP2 SWAP1 PUSH3 0x1763 JUMP JUMPDEST PUSH1 0x40 MLOAD DUP1 SWAP2 SUB SWAP1 REVERT JUMPDEST POP POP JUMP JUMPDEST PUSH1 0x60 PUSH0 DUP1 DUP5 PUSH20 0xFFFFFFFFFFFFFFFFFFFFFFFFFFFFFFFFFFFFFFFF AND DUP5 PUSH1 0x40 MLOAD PUSH3 0xA0A SWAP2 SWAP1 PUSH3 0xE98 JUMP JUMPDEST PUSH0 PUSH1 0x40 MLOAD DUP1 DUP4 SUB DUP2 DUP6 GAS DELEGATECALL SWAP2 POP POP RETURNDATASIZE DUP1 PUSH0 DUP2 EQ PUSH3 0xA44 JUMPI PUSH1 0x40 MLOAD SWAP2 POP PUSH1 0x1F NOT PUSH1 0x3F RETURNDATASIZE ADD AND DUP3 ADD PUSH1 0x40 MSTORE RETURNDATASIZE DUP3 MSTORE RETURNDATASIZE PUSH0 PUSH1 0x20 DUP5 ADD RETURNDATACOPY PUSH3 0xA49 JUMP JUMPDEST PUSH1 0x60 SWAP2 POP JUMPDEST POP SWAP2 POP SWAP2 POP PUSH3 0xA61 DUP6 DUP4 DUP4 PUSH3 0xAA8 PUSH1 0x20 SHL PUSH1 0x20 SHR JUMP JUMPDEST SWAP3 POP POP POP SWAP3 SWAP2 POP POP JUMP JUMPDEST PUSH0 CALLVALUE GT ISZERO PUSH3 0xAA6 JUMPI PUSH1 0x40 MLOAD PUSH32 0xB398979F00000000000000000000000000000000000000000000000000000000 DUP2 MSTORE PUSH1 0x4 ADD PUSH1 0x40 MLOAD DUP1 SWAP2 SUB SWAP1 REVERT JUMPDEST JUMP JUMPDEST PUSH1 0x60 DUP3 PUSH3 0xAC7 JUMPI PUSH3 0xAC1 DUP3 PUSH3 0xB44 PUSH1 0x20 SHL PUSH1 0x20 SHR JUMP JUMPDEST PUSH3 0xB3C JUMP JUMPDEST PUSH0 DUP3 MLOAD EQ DUP1 ISZERO PUSH3 0xAEE JUMPI POP PUSH0 DUP5 PUSH20 0xFFFFFFFFFFFFFFFFFFFFFFFFFFFFFFFFFFFFFFFF AND EXTCODESIZE EQ JUMPDEST ISZERO PUSH3 0xB33 JUMPI DUP4 PUSH1 0x40 MLOAD PUSH32 0x9996B31500000000000000000000000000000000000000000000000000000000 DUP2 MSTORE PUSH1 0x4 ADD PUSH3 0xB2A SWAP2 SWAP1 PUSH3 0x1763 JUMP JUMPDEST PUSH1 0x40 MLOAD DUP1 SWAP2 SUB SWAP1 REVERT JUMPDEST DUP2 SWAP1 POP PUSH3 0xB3D JUMP JUMPDEST JUMPDEST SWAP4 SWAP3 POP POP POP JUMP JUMPDEST PUSH0 DUP2 MLOAD GT ISZERO PUSH3 0xB57 JUMPI DUP1 MLOAD DUP1 DUP3 PUSH1 0x20 ADD REVERT JUMPDEST PUSH1 0x40 MLOAD PUSH32 0x1425EA4200000000000000000000000000000000000000000000000000000000 DUP2 MSTORE PUSH1 0x4 ADD PUSH1 0x40 MLOAD DUP1 SWAP2 SUB SWAP1 REVERT JUMPDEST PUSH0 PUSH1 0x40 MLOAD SWAP1 POP SWAP1 JUMP JUMPDEST PUSH0 DUP1 REVERT JUMPDEST PUSH0 DUP1 REVERT JUMPDEST PUSH0 PUSH20 0xFFFFFFFFFFFFFFFFFFFFFFFFFFFFFFFFFFFFFFFF DUP3 AND SWAP1 POP SWAP2 SWAP1 POP JUMP JUMPDEST PUSH0 PUSH3 0xBC5 DUP3 PUSH3 0xB9A JUMP JUMPDEST SWAP1 POP SWAP2 SWAP1 POP JUMP JUMPDEST PUSH3 0xBD7 DUP2 PUSH3 0xBB9 JUMP JUMPDEST DUP2 EQ PUSH3 0xBE2 JUMPI PUSH0 DUP1 REVERT JUMPDEST POP JUMP JUMPDEST PUSH0 DUP2 MLOAD SWAP1 POP PUSH3 0xBF5 DUP2 PUSH3 0xBCC JUMP JUMPDEST SWAP3 SWAP2 POP POP JUMP JUMPDEST PUSH0 PUSH2 0xFFFF DUP3 AND SWAP1 POP SWAP2 SWAP1 POP JUMP JUMPDEST PUSH3 0xC13 DUP2 PUSH3 0xBFB JUMP JUMPDEST DUP2 EQ PUSH3 0xC1E JUMPI PUSH0 DUP1 REVERT JUMPDEST POP JUMP JUMPDEST PUSH0 DUP2 MLOAD SWAP1 POP PUSH3 0xC31 DUP2 PUSH3 0xC08 JUMP JUMPDEST SWAP3 SWAP2 POP POP JUMP JUMPDEST PUSH0 DUP1 REVERT JUMPDEST PUSH0 DUP1 REVERT JUMPDEST PUSH0 PUSH1 0x1F NOT PUSH1 0x1F DUP4 ADD AND SWAP1 POP SWAP2 SWAP1 POP JUMP JUMPDEST PUSH32 0x4E487B7100000000000000000000000000000000000000000000000000000000 PUSH0 MSTORE PUSH1 0x41 PUSH1 0x4 MSTORE PUSH1 0x24 PUSH0 REVERT JUMPDEST PUSH3 0xC87 DUP3 PUSH3 0xC3F JUMP JUMPDEST DUP2 ADD DUP2 DUP2 LT PUSH8 0xFFFFFFFFFFFFFFFF DUP3 GT OR ISZERO PUSH3 0xCA9 JUMPI PUSH3 0xCA8 PUSH3 0xC4F JUMP JUMPDEST JUMPDEST DUP1 PUSH1 0x40 MSTORE POP POP POP JUMP JUMPDEST PUSH0 PUSH3 0xCBD PUSH3 0xB89 JUMP JUMPDEST SWAP1 POP PUSH3 0xCCB DUP3 DUP3 PUSH3 0xC7C JUMP JUMPDEST SWAP2 SWAP1 POP JUMP JUMPDEST PUSH0 PUSH8 0xFFFFFFFFFFFFFFFF DUP3 GT ISZERO PUSH3 0xCED JUMPI PUSH3 0xCEC PUSH3 0xC4F JUMP JUMPDEST JUMPDEST PUSH3 0xCF8 DUP3 PUSH3 0xC3F JUMP JUMPDEST SWAP1 POP PUSH1 0x20 DUP2 ADD SWAP1 POP SWAP2 SWAP1 POP JUMP JUMPDEST PUSH0 JUMPDEST DUP4 DUP2 LT ISZERO PUSH3 0xD24 JUMPI DUP1 DUP3 ADD MLOAD DUP2 DUP5 ADD MSTORE PUSH1 0x20 DUP2 ADD SWAP1 POP PUSH3 0xD07 JUMP JUMPDEST PUSH0 DUP5 DUP5 ADD MSTORE POP POP POP POP JUMP JUMPDEST PUSH0 PUSH3 0xD45 PUSH3 0xD3F DUP5 PUSH3 0xCD0 JUMP JUMPDEST PUSH3 0xCB2 JUMP JUMPDEST SWAP1 POP DUP3 DUP2 MSTORE PUSH1 0x20 DUP2 ADD DUP5 DUP5 DUP5 ADD GT ISZERO PUSH3 0xD64 JUMPI PUSH3 0xD63 PUSH3 0xC3B JUMP JUMPDEST JUMPDEST PUSH3 0xD71 DUP5 DUP3 DUP6 PUSH3 0xD05 JUMP JUMPDEST POP SWAP4 SWAP3 POP POP POP JUMP JUMPDEST PUSH0 DUP3 PUSH1 0x1F DUP4 ADD SLT PUSH3 0xD90 JUMPI PUSH3 0xD8F PUSH3 0xC37 JUMP JUMPDEST JUMPDEST DUP2 MLOAD PUSH3 0xDA2 DUP5 DUP3 PUSH1 0x20 DUP7 ADD PUSH3 0xD2F JUMP JUMPDEST SWAP2 POP POP SWAP3 SWAP2 POP POP JUMP JUMPDEST PUSH0 DUP1 PUSH0 DUP1 PUSH0 PUSH1 0xA0 DUP7 DUP9 SUB SLT ISZERO PUSH3 0xDC7 JUMPI PUSH3 0xDC6 PUSH3 0xB92 JUMP JUMPDEST JUMPDEST PUSH0 PUSH3 0xDD6 DUP9 DUP3 DUP10 ADD PUSH3 0xBE5 JUMP JUMPDEST SWAP6 POP POP PUSH1 0x20 PUSH3 0xDE9 DUP9 DUP3 DUP10 ADD PUSH3 0xBE5 JUMP JUMPDEST SWAP5 POP POP PUSH1 0x40 PUSH3 0xDFC DUP9 DUP3 DUP10 ADD PUSH3 0xBE5 JUMP JUMPDEST SWAP4 POP POP PUSH1 0x60 PUSH3 0xE0F DUP9 DUP3 DUP10 ADD PUSH3 0xC21 JUMP JUMPDEST SWAP3 POP POP PUSH1 0x80 DUP7 ADD MLOAD PUSH8 0xFFFFFFFFFFFFFFFF DUP2 GT ISZERO PUSH3 0xE33 JUMPI PUSH3 0xE32 PUSH3 0xB96 JUMP JUMPDEST JUMPDEST PUSH3 0xE41 DUP9 DUP3 DUP10 ADD PUSH3 0xD79 JUMP JUMPDEST SWAP2 POP POP SWAP3 SWAP6 POP SWAP3 SWAP6 SWAP1 SWAP4 POP JUMP JUMPDEST PUSH0 DUP2 MLOAD SWAP1 POP SWAP2 SWAP1 POP JUMP JUMPDEST PUSH0 DUP2 SWAP1 POP SWAP3 SWAP2 POP POP JUMP JUMPDEST PUSH0 PUSH3 0xE6E DUP3 PUSH3 0xE4E JUMP JUMPDEST PUSH3 0xE7A DUP2 DUP6 PUSH3 0xE58 JUMP JUMPDEST SWAP4 POP PUSH3 0xE8C DUP2 DUP6 PUSH1 0x20 DUP7 ADD PUSH3 0xD05 JUMP JUMPDEST DUP1 DUP5 ADD SWAP2 POP POP SWAP3 SWAP2 POP POP JUMP JUMPDEST PUSH0 PUSH3 0xEA5 DUP3 DUP5 PUSH3 0xE62 JUMP JUMPDEST SWAP2 POP DUP2 SWAP1 POP SWAP3 SWAP2 POP POP JUMP JUMPDEST PUSH0 PUSH8 0xFFFFFFFFFFFFFFFF DUP3 GT ISZERO PUSH3 0xECD JUMPI PUSH3 0xECC PUSH3 0xC4F JUMP JUMPDEST JUMPDEST PUSH3 0xED8 DUP3 PUSH3 0xC3F JUMP JUMPDEST SWAP1 POP PUSH1 0x20 DUP2 ADD SWAP1 POP SWAP2 SWAP1 POP JUMP JUMPDEST PUSH0 PUSH3 0xEFB PUSH3 0xEF5 DUP5 PUSH3 0xEB0 JUMP JUMPDEST PUSH3 0xCB2 JUMP JUMPDEST SWAP1 POP DUP3 DUP2 MSTORE PUSH1 0x20 DUP2 ADD DUP5 DUP5 DUP5 ADD GT ISZERO PUSH3 0xF1A JUMPI PUSH3 0xF19 PUSH3 0xC3B JUMP JUMPDEST JUMPDEST PUSH3 0xF27 DUP5 DUP3 DUP6 PUSH3 0xD05 JUMP JUMPDEST POP SWAP4 SWAP3 POP POP POP JUMP JUMPDEST PUSH0 DUP3 PUSH1 0x1F DUP4 ADD SLT PUSH3 0xF46 JUMPI PUSH3 0xF45 PUSH3 0xC37 JUMP JUMPDEST JUMPDEST DUP2 MLOAD PUSH3 0xF58 DUP5 DUP3 PUSH1 0x20 DUP7 ADD PUSH3 0xEE5 JUMP JUMPDEST SWAP2 POP POP SWAP3 SWAP2 POP POP JUMP JUMPDEST PUSH0 PUSH1 0x20 DUP3 DUP5 SUB SLT ISZERO PUSH3 0xF79 JUMPI PUSH3 0xF78 PUSH3 0xB92 JUMP JUMPDEST JUMPDEST PUSH0 DUP3 ADD MLOAD PUSH8 0xFFFFFFFFFFFFFFFF DUP2 GT ISZERO PUSH3 0xF99 JUMPI PUSH3 0xF98 PUSH3 0xB96 JUMP JUMPDEST JUMPDEST PUSH3 0xFA7 DUP5 DUP3 DUP6 ADD PUSH3 0xF2F JUMP JUMPDEST SWAP2 POP POP SWAP3 SWAP2 POP POP JUMP JUMPDEST PUSH0 DUP3 DUP3 MSTORE PUSH1 0x20 DUP3 ADD SWAP1 POP SWAP3 SWAP2 POP POP JUMP JUMPDEST PUSH32 0x4C4250616972426561636F6E50726F78793A204661696C656420746F20676574 PUSH0 DUP3 ADD MSTORE PUSH32 0x20746F6B656E2073796D626F6C73000000000000000000000000000000000000 PUSH1 0x20 DUP3 ADD MSTORE POP JUMP JUMPDEST PUSH0 PUSH3 0x101C PUSH1 0x2E DUP4 PUSH3 0xFB0 JUMP JUMPDEST SWAP2 POP PUSH3 0x1029 DUP3 PUSH3 0xFC0 JUMP JUMPDEST PUSH1 0x40 DUP3 ADD SWAP1 POP SWAP2 SWAP1 POP JUMP JUMPDEST PUSH0 PUSH1 0x20 DUP3 ADD SWAP1 POP DUP2 DUP2 SUB PUSH0 DUP4 ADD MSTORE PUSH3 0x104D DUP2 PUSH3 0x100E JUMP JUMPDEST SWAP1 POP SWAP2 SWAP1 POP JUMP JUMPDEST PUSH32 0x4C4250616972426561636F6E50726F78793A20496E76616C696420746F6B656E PUSH0 DUP3 ADD MSTORE PUSH32 0x2073796D626F6C73000000000000000000000000000000000000000000000000 PUSH1 0x20 DUP3 ADD MSTORE POP JUMP JUMPDEST PUSH0 PUSH3 0x10B0 PUSH1 0x28 DUP4 PUSH3 0xFB0 JUMP JUMPDEST SWAP2 POP PUSH3 0x10BD DUP3 PUSH3 0x1054 JUMP JUMPDEST PUSH1 0x40 DUP3 ADD SWAP1 POP SWAP2 SWAP1 POP JUMP JUMPDEST PUSH0 PUSH1 0x20 DUP3 ADD SWAP1 POP DUP2 DUP2 SUB PUSH0 DUP4 ADD MSTORE PUSH3 0x10E1 DUP2 PUSH3 0x10A2 JUMP JUMPDEST SWAP1 POP SWAP2 SWAP1 POP JUMP JUMPDEST PUSH32 0x4C42545F00000000000000000000000000000000000000000000000000000000 DUP2 MSTORE POP JUMP JUMPDEST PUSH0 DUP2 MLOAD SWAP1 POP SWAP2 SWAP1 POP JUMP JUMPDEST PUSH0 DUP2 SWAP1 POP SWAP3 SWAP2 POP POP JUMP JUMPDEST PUSH0 PUSH3 0x112E DUP3 PUSH3 0x110E JUMP JUMPDEST PUSH3 0x113A DUP2 DUP6 PUSH3 0x1118 JUMP JUMPDEST SWAP4 POP PUSH3 0x114C DUP2 DUP6 PUSH1 0x20 DUP7 ADD PUSH3 0xD05 JUMP JUMPDEST DUP1 DUP5 ADD SWAP2 POP POP SWAP3 SWAP2 POP POP JUMP JUMPDEST PUSH32 0x2F00000000000000000000000000000000000000000000000000000000000000 DUP2 MSTORE POP JUMP JUMPDEST PUSH0 PUSH3 0x118A DUP3 PUSH3 0x10E8 JUMP JUMPDEST PUSH1 0x4 DUP3 ADD SWAP2 POP PUSH3 0x119C DUP3 DUP7 PUSH3 0x1122 JUMP JUMPDEST SWAP2 POP PUSH3 0x11A9 DUP3 PUSH3 0x1158 JUMP JUMPDEST PUSH1 0x1 DUP3 ADD SWAP2 POP PUSH3 0x11BB DUP3 DUP6 PUSH3 0x1122 JUMP JUMPDEST SWAP2 POP PUSH3 0x11C8 DUP3 PUSH3 0x1158 JUMP JUMPDEST PUSH1 0x1 DUP3 ADD SWAP2 POP PUSH3 0x11DA DUP3 DUP5 PUSH3 0x1122 JUMP JUMPDEST SWAP2 POP DUP2 SWAP1 POP SWAP5 SWAP4 POP POP POP POP JUMP JUMPDEST PUSH32 0x4E487B7100000000000000000000000000000000000000000000000000000000 PUSH0 MSTORE PUSH1 0x22 PUSH1 0x4 MSTORE PUSH1 0x24 PUSH0 REVERT JUMPDEST PUSH0 PUSH1 0x2 DUP3 DIV SWAP1 POP PUSH1 0x1 DUP3 AND DUP1 PUSH3 0x122C JUMPI PUSH1 0x7F DUP3 AND SWAP2 POP JUMPDEST PUSH1 0x20 DUP3 LT DUP2 SUB PUSH3 0x1242 JUMPI PUSH3 0x1241 PUSH3 0x11E7 JUMP JUMPDEST JUMPDEST POP SWAP2 SWAP1 POP JUMP JUMPDEST PUSH0 DUP2 SWAP1 POP DUP2 PUSH0 MSTORE PUSH1 0x20 PUSH0 KECCAK256 SWAP1 POP SWAP2 SWAP1 POP JUMP JUMPDEST PUSH0 PUSH1 0x20 PUSH1 0x1F DUP4 ADD DIV SWAP1 POP SWAP2 SWAP1 POP JUMP JUMPDEST PUSH0 DUP3 DUP3 SHL SWAP1 POP SWAP3 SWAP2 POP POP JUMP JUMPDEST PUSH0 PUSH1 0x8 DUP4 MUL PUSH3 0x12A6 PUSH32 0xFFFFFFFFFFFFFFFFFFFFFFFFFFFFFFFFFFFFFFFFFFFFFFFFFFFFFFFFFFFFFFFF DUP3 PUSH3 0x1269 JUMP JUMPDEST PUSH3 0x12B2 DUP7 DUP4 PUSH3 0x1269 JUMP JUMPDEST SWAP6 POP DUP1 NOT DUP5 AND SWAP4 POP DUP1 DUP7 AND DUP5 OR SWAP3 POP POP POP SWAP4 SWAP3 POP POP POP JUMP JUMPDEST PUSH0 DUP2 SWAP1 POP SWAP2 SWAP1 POP JUMP JUMPDEST PUSH0 DUP2 SWAP1 POP SWAP2 SWAP1 POP JUMP JUMPDEST PUSH0 PUSH3 0x12FC PUSH3 0x12F6 PUSH3 0x12F0 DUP5 PUSH3 0x12CA JUMP JUMPDEST PUSH3 0x12D3 JUMP JUMPDEST PUSH3 0x12CA JUMP JUMPDEST SWAP1 POP SWAP2 SWAP1 POP JUMP JUMPDEST PUSH0 DUP2 SWAP1 POP SWAP2 SWAP1 POP JUMP JUMPDEST PUSH3 0x1317 DUP4 PUSH3 0x12DC JUMP JUMPDEST PUSH3 0x132F PUSH3 0x1326 DUP3 PUSH3 0x1303 JUMP JUMPDEST DUP5 DUP5 SLOAD PUSH3 0x1275 JUMP JUMPDEST DUP3 SSTORE POP POP POP POP JUMP JUMPDEST PUSH0 SWAP1 JUMP JUMPDEST PUSH3 0x1345 PUSH3 0x1337 JUMP JUMPDEST PUSH3 0x1352 DUP2 DUP5 DUP5 PUSH3 0x130C JUMP JUMPDEST POP POP POP JUMP JUMPDEST JUMPDEST DUP2 DUP2 LT ISZERO PUSH3 0x1379 JUMPI PUSH3 0x136D PUSH0 DUP3 PUSH3 0x133B JUMP JUMPDEST PUSH1 0x1 DUP2 ADD SWAP1 POP PUSH3 0x1358 JUMP JUMPDEST POP POP JUMP JUMPDEST PUSH1 0x1F DUP3 GT ISZERO PUSH3 0x13C8 JUMPI PUSH3 0x1392 DUP2 PUSH3 0x1248 JUMP JUMPDEST PUSH3 0x139D DUP5 PUSH3 0x125A JUMP JUMPDEST DUP2 ADD PUSH1 0x20 DUP6 LT ISZERO PUSH3 0x13AD JUMPI DUP2 SWAP1 POP JUMPDEST PUSH3 0x13C5 PUSH3 0x13BC DUP6 PUSH3 0x125A JUMP JUMPDEST DUP4 ADD DUP3 PUSH3 0x1357 JUMP JUMPDEST POP POP JUMPDEST POP POP POP JUMP JUMPDEST PUSH0 DUP3 DUP3 SHR SWAP1 POP SWAP3 SWAP2 POP POP JUMP JUMPDEST PUSH0 PUSH3 0x13EA PUSH0 NOT DUP5 PUSH1 0x8 MUL PUSH3 0x13CD JUMP JUMPDEST NOT DUP1 DUP4 AND SWAP2 POP POP SWAP3 SWAP2 POP POP JUMP JUMPDEST PUSH0 PUSH3 0x1404 DUP4 DUP4 PUSH3 0x13D9 JUMP JUMPDEST SWAP2 POP DUP3 PUSH1 0x2 MUL DUP3 OR SWAP1 POP SWAP3 SWAP2 POP POP JUMP JUMPDEST PUSH3 0x141F DUP3 PUSH3 0x110E JUMP JUMPDEST PUSH8 0xFFFFFFFFFFFFFFFF DUP2 GT ISZERO PUSH3 0x143B JUMPI PUSH3 0x143A PUSH3 0xC4F JUMP JUMPDEST JUMPDEST PUSH3 0x1447 DUP3 SLOAD PUSH3 0x1214 JUMP JUMPDEST PUSH3 0x1454 DUP3 DUP3 DUP6 PUSH3 0x137D JUMP JUMPDEST PUSH0 PUSH1 0x20 SWAP1 POP PUSH1 0x1F DUP4 GT PUSH1 0x1 DUP2 EQ PUSH3 0x148A JUMPI PUSH0 DUP5 ISZERO PUSH3 0x1475 JUMPI DUP3 DUP8 ADD MLOAD SWAP1 POP JUMPDEST PUSH3 0x1481 DUP6 DUP3 PUSH3 0x13F7 JUMP JUMPDEST DUP7 SSTORE POP PUSH3 0x14F0 JUMP JUMPDEST PUSH1 0x1F NOT DUP5 AND PUSH3 0x149A DUP7 PUSH3 0x1248 JUMP JUMPDEST PUSH0 JUMPDEST DUP3 DUP2 LT ISZERO PUSH3 0x14C3 JUMPI DUP5 DUP10 ADD MLOAD DUP3 SSTORE PUSH1 0x1 DUP3 ADD SWAP2 POP PUSH1 0x20 DUP6 ADD SWAP5 POP PUSH1 0x20 DUP2 ADD SWAP1 POP PUSH3 0x149C JUMP JUMPDEST DUP7 DUP4 LT ISZERO PUSH3 0x14E3 JUMPI DUP5 DUP10 ADD MLOAD PUSH3 0x14DF PUSH1 0x1F DUP10 AND DUP3 PUSH3 0x13D9 JUMP JUMPDEST DUP4 SSTORE POP JUMPDEST PUSH1 0x1 PUSH1 0x2 DUP9 MUL ADD DUP9 SSTORE POP POP POP JUMPDEST POP POP POP POP POP POP JUMP JUMPDEST PUSH32 0x4C697175696469747920426F6F6B20546F6B656E200000000000000000000000 DUP2 MSTORE POP JUMP JUMPDEST PUSH0 PUSH3 0x152A DUP3 PUSH3 0x14F8 JUMP JUMPDEST PUSH1 0x15 DUP3 ADD SWAP2 POP PUSH3 0x153C DUP3 DUP7 PUSH3 0x1122 JUMP JUMPDEST SWAP2 POP PUSH3 0x1549 DUP3 PUSH3 0x1158 JUMP JUMPDEST PUSH1 0x1 DUP3 ADD SWAP2 POP PUSH3 0x155B DUP3 DUP6 PUSH3 0x1122 JUMP JUMPDEST SWAP2 POP PUSH3 0x1568 DUP3 PUSH3 0x1158 JUMP JUMPDEST PUSH1 0x1 DUP3 ADD SWAP2 POP PUSH3 0x157A DUP3 DUP5 PUSH3 0x1122 JUMP JUMPDEST SWAP2 POP DUP2 SWAP1 POP SWAP5 SWAP4 POP POP POP POP JUMP JUMPDEST PUSH0 PUSH1 0x20 DUP3 DUP5 SUB SLT ISZERO PUSH3 0x159F JUMPI PUSH3 0x159E PUSH3 0xB92 JUMP JUMPDEST JUMPDEST PUSH0 PUSH3 0x15AE DUP5 DUP3 DUP6 ADD PUSH3 0xBE5 JUMP JUMPDEST SWAP2 POP POP SWAP3 SWAP2 POP POP JUMP JUMPDEST PUSH32 0x4E487B7100000000000000000000000000000000000000000000000000000000 PUSH0 MSTORE PUSH1 0x11 PUSH1 0x4 MSTORE PUSH1 0x24 PUSH0 REVERT JUMPDEST PUSH0 PUSH3 0x15F0 DUP3 PUSH3 0xBFB JUMP JUMPDEST SWAP2 POP PUSH2 0xFFFF DUP3 SUB PUSH3 0x1607 JUMPI PUSH3 0x1606 PUSH3 0x15B7 JUMP JUMPDEST JUMPDEST PUSH1 0x1 DUP3 ADD SWAP1 POP SWAP2 SWAP1 POP JUMP JUMPDEST PUSH32 0x4E487B7100000000000000000000000000000000000000000000000000000000 PUSH0 MSTORE PUSH1 0x12 PUSH1 0x4 MSTORE PUSH1 0x24 PUSH0 REVERT JUMPDEST PUSH0 PUSH3 0x164B DUP3 PUSH3 0xBFB JUMP JUMPDEST SWAP2 POP PUSH3 0x1658 DUP4 PUSH3 0xBFB JUMP JUMPDEST SWAP3 POP DUP3 PUSH3 0x166B JUMPI PUSH3 0x166A PUSH3 0x1612 JUMP JUMPDEST JUMPDEST DUP3 DUP3 DIV SWAP1 POP SWAP3 SWAP2 POP POP JUMP JUMPDEST PUSH0 PUSH3 0x1682 DUP3 PUSH3 0xBFB JUMP JUMPDEST SWAP2 POP PUSH3 0x168F DUP4 PUSH3 0xBFB JUMP JUMPDEST SWAP3 POP DUP3 DUP3 SUB SWAP1 POP PUSH2 0xFFFF DUP2 GT ISZERO PUSH3 0x16AC JUMPI PUSH3 0x16AB PUSH3 0x15B7 JUMP JUMPDEST JUMPDEST SWAP3 SWAP2 POP POP JUMP JUMPDEST PUSH0 PUSH3 0x16BE DUP3 PUSH3 0xBFB JUMP JUMPDEST SWAP2 POP PUSH3 0x16CB DUP4 PUSH3 0xBFB JUMP JUMPDEST SWAP3 POP DUP3 PUSH3 0x16DE JUMPI PUSH3 0x16DD PUSH3 0x1612 JUMP JUMPDEST JUMPDEST DUP3 DUP3 MOD SWAP1 POP SWAP3 SWAP2 POP POP JUMP JUMPDEST PUSH0 PUSH3 0x16F5 DUP3 PUSH3 0xBFB JUMP JUMPDEST SWAP2 POP PUSH3 0x1702 DUP4 PUSH3 0xBFB JUMP JUMPDEST SWAP3 POP DUP3 DUP3 ADD SWAP1 POP PUSH2 0xFFFF DUP2 GT ISZERO PUSH3 0x171F JUMPI PUSH3 0x171E PUSH3 0x15B7 JUMP JUMPDEST JUMPDEST SWAP3 SWAP2 POP POP JUMP JUMPDEST PUSH32 0x4E487B7100000000000000000000000000000000000000000000000000000000 PUSH0 MSTORE PUSH1 0x32 PUSH1 0x4 MSTORE PUSH1 0x24 PUSH0 REVERT JUMPDEST PUSH3 0x175D DUP2 PUSH3 0xBB9 JUMP JUMPDEST DUP3 MSTORE POP POP JUMP JUMPDEST PUSH0 PUSH1 0x20 DUP3 ADD SWAP1 POP PUSH3 0x1778 PUSH0 DUP4 ADD DUP5 PUSH3 0x1752 JUMP JUMPDEST SWAP3 SWAP2 POP POP JUMP JUMPDEST PUSH1 0x80 MLOAD PUSH2 0x223 PUSH3 0x1797 PUSH0 CODECOPY PUSH0 PUSH2 0x118 ADD MSTORE PUSH2 0x223 PUSH0 RETURN INVALID PUSH1 0x80 PUSH1 0x40 MSTORE PUSH1 0x4 CALLDATASIZE LT PUSH2 0x21 JUMPI PUSH0 CALLDATALOAD PUSH1 0xE0 SHR DUP1 PUSH4 0xA0A0EA39 EQ PUSH2 0x32 JUMPI PUSH2 0x28 JUMP JUMPDEST CALLDATASIZE PUSH2 0x28 JUMPI STOP JUMPDEST PUSH2 0x30 PUSH2 0x5C JUMP JUMPDEST STOP JUMPDEST CALLVALUE DUP1 ISZERO PUSH2 0x3D JUMPI PUSH0 DUP1 REVERT JUMPDEST POP PUSH2 0x46 PUSH2 0x6E JUMP JUMPDEST PUSH1 0x40 MLOAD PUSH2 0x53 SWAP2 SWAP1 PUSH2 0x17B JUMP JUMPDEST PUSH1 0x40 MLOAD DUP1 SWAP2 SUB SWAP1 RETURN JUMPDEST PUSH2 0x6C PUSH2 0x67 PUSH2 0x7C JUMP JUMPDEST PUSH2 0xF6 JUMP JUMPDEST JUMP JUMPDEST PUSH0 PUSH2 0x77 PUSH2 0x115 JUMP JUMPDEST SWAP1 POP SWAP1 JUMP JUMPDEST PUSH0 PUSH2 0x85 PUSH2 0x115 JUMP JUMPDEST PUSH20 0xFFFFFFFFFFFFFFFFFFFFFFFFFFFFFFFFFFFFFFFF AND PUSH4 0x5C60DA1B PUSH1 0x40 MLOAD DUP2 PUSH4 0xFFFFFFFF AND PUSH1 0xE0 SHL DUP2 MSTORE PUSH1 0x4 ADD PUSH1 0x20 PUSH1 0x40 MLOAD DUP1 DUP4 SUB DUP2 DUP7 GAS STATICCALL ISZERO DUP1 ISZERO PUSH2 0xCD JUMPI RETURNDATASIZE PUSH0 DUP1 RETURNDATACOPY RETURNDATASIZE PUSH0 REVERT JUMPDEST POP POP POP POP PUSH1 0x40 MLOAD RETURNDATASIZE PUSH1 0x1F NOT PUSH1 0x1F DUP3 ADD AND DUP3 ADD DUP1 PUSH1 0x40 MSTORE POP DUP2 ADD SWAP1 PUSH2 0xF1 SWAP2 SWAP1 PUSH2 0x1C2 JUMP JUMPDEST SWAP1 POP SWAP1 JUMP JUMPDEST CALLDATASIZE PUSH0 DUP1 CALLDATACOPY PUSH0 DUP1 CALLDATASIZE PUSH0 DUP5 GAS DELEGATECALL RETURNDATASIZE PUSH0 DUP1 RETURNDATACOPY DUP1 PUSH0 DUP2 EQ PUSH2 0x111 JUMPI RETURNDATASIZE PUSH0 RETURN JUMPDEST RETURNDATASIZE PUSH0 REVERT JUMPDEST PUSH0 PUSH32 0x0 SWAP1 POP SWAP1 JUMP JUMPDEST PUSH0 PUSH20 0xFFFFFFFFFFFFFFFFFFFFFFFFFFFFFFFFFFFFFFFF DUP3 AND SWAP1 POP SWAP2 SWAP1 POP JUMP JUMPDEST PUSH0 PUSH2 0x165 DUP3 PUSH2 0x13C JUMP JUMPDEST SWAP1 POP SWAP2 SWAP1 POP JUMP JUMPDEST PUSH2 0x175 DUP2 PUSH2 0x15B JUMP JUMPDEST DUP3 MSTORE POP POP JUMP JUMPDEST PUSH0 PUSH1 0x20 DUP3 ADD SWAP1 POP PUSH2 0x18E PUSH0 DUP4 ADD DUP5 PUSH2 0x16C JUMP JUMPDEST SWAP3 SWAP2 POP POP JUMP JUMPDEST PUSH0 DUP1 REVERT JUMPDEST PUSH2 0x1A1 DUP2 PUSH2 0x15B JUMP JUMPDEST DUP2 EQ PUSH2 0x1AB JUMPI PUSH0 DUP1 REVERT JUMPDEST POP JUMP JUMPDEST PUSH0 DUP2 MLOAD SWAP1 POP PUSH2 0x1BC DUP2 PUSH2 0x198 JUMP JUMPDEST SWAP3 SWAP2 POP POP JUMP JUMPDEST PUSH0 PUSH1 0x20 DUP3 DUP5 SUB SLT ISZERO PUSH2 0x1D7 JUMPI PUSH2 0x1D6 PUSH2 0x194 JUMP JUMPDEST JUMPDEST PUSH0 PUSH2 0x1E4 DUP5 DUP3 DUP6 ADD PUSH2 0x1AE JUMP JUMPDEST SWAP2 POP POP SWAP3 SWAP2 POP POP JUMP INVALID LOG2 PUSH5 0x6970667358 0x22 SLT KECCAK256 SGT 0xF 0xAC 0xD1 PUSH26 0xFF68AFE8C4F5F51E9F66C8A009AF1F057180AF91B116A45A1361 0xC6 PUSH5 0x736F6C6343 STOP ADDMOD EQ STOP CALLER LOG2 PUSH5 0x6970667358 0x22 SLT KECCAK256 BLOCKHASH DUP16 PUSH8 0x4ABC88915A00048D DUP7 DELEGATECALL CREATE 0x2C 0x24 CALLVALUE 0x4F 0xB5 0xB6 PUSH28 0x185D05CE64C6C9AEDC7E7C64736F6C63430008140033000000000000 "
		},
		"gasEstimates": {
			"creation": {
				"codeDepositCost": "5991000",
				"executionCost": "infinite",
				"totalCost": "infinite"
			},
			"external": {
				"DEFAULT_ADMIN_ROLE()": "485",
				"LB_HOOKS_MANAGER_ROLE()": "460",
				"LB_PAIR_BEACON_IMPLEMENTATION_PAUSER_ROLE()": "436",
				"acceptOwnership()": "infinite",
				"addQuoteAsset(address)": "infinite",
				"createLBPair(address,address,uint24,uint16)": "infinite",
				"forceDecay(address)": "infinite",
				"getAllBinSteps()": "infinite",
				"getAllLBPairs(address,address)": "infinite",
				"getFeeRecipient()": "2605",
				"getFlashLoanFee()": "2586",
				"getLBPairAtIndex(uint256)": "infinite",
				"getLBPairBeacon()": "2648",
				"getLBPairInformation(address,address,uint256)": "infinite",
				"getMaxFlashLoanFee()": "399",
				"getMinBinStep()": "378",
				"getNumberOfLBPairs()": "2574",
				"getNumberOfQuoteAssets()": "2579",
				"getOpenBinSteps()": "infinite",
				"getPauserRole()": "421",
				"getPreset(uint256)": "infinite",
				"getQuoteAssetAtIndex(uint256)": "infinite",
				"getRoleAdmin(bytes32)": "infinite",
				"grantRole(bytes32,address)": "infinite",
				"hasRole(bytes32,address)": "3361",
				"initialize(address,address,uint256,address)": "infinite",
				"isQuoteAsset(address)": "infinite",
				"owner()": "2656",
				"pendingOwner()": "2633",
				"removeLBHooksOnPair(address,address,uint16)": "infinite",
				"removePreset(uint16)": "infinite",
				"removeQuoteAsset(address)": "infinite",
				"renounceOwnership()": "infinite",
				"renounceRole(bytes32,address)": "infinite",
				"revokeRole(bytes32,address)": "infinite",
				"setFeeRecipient(address)": "infinite",
				"setFeesParametersOnPair(address,address,uint16,uint16,uint16,uint16,uint16,uint24,uint16,uint24)": "infinite",
				"setFlashLoanFee(uint256)": "infinite",
				"setLBHooksParametersOnPair(address,address,uint16,bytes32,bytes)": "infinite",
				"setLBPairIgnored(address,address,uint16,bool)": "infinite",
				"setPreset(uint16,uint16,uint16,uint16,uint16,uint24,uint16,uint24,bool)": "infinite",
				"setPresetOpenState(uint16,bool)": "infinite",
				"supportsInterface(bytes4)": "764",
				"transferOwnership(address)": "infinite"
			},
			"internal": {
				"_getLBPairInformation(contract IERC20,contract IERC20,uint256)": "infinite",
				"_grantRole(bytes32,address)": "infinite",
				"_isPresetOpen(bytes32)": "infinite",
				"_setFeeRecipient(address)": "infinite",
				"_setLBHooksParametersOnPair(contract IERC20,contract IERC20,uint16,bytes32,bytes memory)": "infinite",
				"_sortTokens(contract IERC20,contract IERC20)": "107"
			}
		},
		"methodIdentifiers": {
			"DEFAULT_ADMIN_ROLE()": "a217fddf",
			"LB_HOOKS_MANAGER_ROLE()": "1af5bacc",
			"LB_PAIR_BEACON_IMPLEMENTATION_PAUSER_ROLE()": "661d7ffb",
			"acceptOwnership()": "79ba5097",
			"addQuoteAsset(address)": "5a440923",
			"createLBPair(address,address,uint24,uint16)": "659ac74b",
			"forceDecay(address)": "3c78a941",
			"getAllBinSteps()": "5b35875c",
			"getAllLBPairs(address,address)": "6622e0d7",
			"getFeeRecipient()": "4ccb20c0",
			"getFlashLoanFee()": "fd90c2be",
			"getLBPairAtIndex(uint256)": "7daf5d66",
			"getLBPairBeacon()": "a0a0ea39",
			"getLBPairInformation(address,address,uint256)": "704037bd",
			"getMaxFlashLoanFee()": "8ce9aa1c",
			"getMinBinStep()": "701ab8c1",
			"getNumberOfLBPairs()": "4e937c3a",
			"getNumberOfQuoteAssets()": "80c5061e",
			"getOpenBinSteps()": "0282c9c1",
			"getPauserRole()": "c1b931be",
			"getPreset(uint256)": "aabc4b3c",
			"getQuoteAssetAtIndex(uint256)": "0752092b",
			"getRoleAdmin(bytes32)": "248a9ca3",
			"grantRole(bytes32,address)": "2f2ff15d",
			"hasRole(bytes32,address)": "91d14854",
			"initialize(address,address,uint256,address)": "be203094",
			"isQuoteAsset(address)": "27721842",
			"owner()": "8da5cb5b",
			"pendingOwner()": "e30c3978",
			"removeLBHooksOnPair(address,address,uint16)": "2cc06b8c",
			"removePreset(uint16)": "e203a31f",
			"removeQuoteAsset(address)": "ddbfd941",
			"renounceOwnership()": "715018a6",
			"renounceRole(bytes32,address)": "36568abe",
			"revokeRole(bytes32,address)": "d547741f",
			"setFeeRecipient(address)": "e74b981b",
			"setFeesParametersOnPair(address,address,uint16,uint16,uint16,uint16,uint16,uint24,uint16,uint24)": "093ff769",
			"setFlashLoanFee(uint256)": "e92d0d5d",
			"setLBHooksParametersOnPair(address,address,uint16,bytes32,bytes)": "3a2f1a91",
			"setLBPairIgnored(address,address,uint16,bool)": "69d56ea3",
			"setPreset(uint16,uint16,uint16,uint16,uint16,uint24,uint16,uint24,bool)": "379ee803",
			"setPresetOpenState(uint16,bool)": "4cd161d3",
			"supportsInterface(bytes4)": "01ffc9a7",
			"transferOwnership(address)": "f2fde38b"
		}
	},
	"abi": [
		{
			"inputs": [],
			"stateMutability": "nonpayable",
			"type": "constructor"
		},
		{
			"inputs": [],
			"name": "AccessControlBadConfirmation",
			"type": "error"
		},
		{
			"inputs": [
				{
					"internalType": "address",
					"name": "account",
					"type": "address"
				},
				{
					"internalType": "bytes32",
					"name": "neededRole",
					"type": "bytes32"
				}
			],
			"name": "AccessControlUnauthorizedAccount",
			"type": "error"
		},
		{
			"inputs": [],
			"name": "Create2EmptyBytecode",
			"type": "error"
		},
		{
			"inputs": [],
			"name": "Create2FailedDeployment",
			"type": "error"
		},
		{
			"inputs": [
				{
					"internalType": "uint256",
					"name": "balance",
					"type": "uint256"
				},
				{
					"internalType": "uint256",
					"name": "needed",
					"type": "uint256"
				}
			],
			"name": "Create2InsufficientBalance",
			"type": "error"
		},
		{
			"inputs": [
				{
					"internalType": "bytes32",
					"name": "key",
					"type": "bytes32"
				}
			],
			"name": "EnumerableMapNonexistentKey",
			"type": "error"
		},
		{
			"inputs": [],
			"name": "InvalidInitialization",
			"type": "error"
		},
		{
			"inputs": [],
			"name": "LBFactory__AddressZero",
			"type": "error"
		},
		{
			"inputs": [
				{
					"internalType": "uint256",
					"name": "binStep",
					"type": "uint256"
				}
			],
			"name": "LBFactory__BinStepHasNoPreset",
			"type": "error"
		},
		{
			"inputs": [
				{
					"internalType": "uint256",
					"name": "binStep",
					"type": "uint256"
				}
			],
			"name": "LBFactory__BinStepTooLow",
			"type": "error"
		},
		{
			"inputs": [],
			"name": "LBFactory__CannotGrantDefaultAdminRole",
			"type": "error"
		},
		{
			"inputs": [
				{
					"internalType": "uint256",
					"name": "fees",
					"type": "uint256"
				},
				{
					"internalType": "uint256",
					"name": "maxFees",
					"type": "uint256"
				}
			],
			"name": "LBFactory__FlashLoanFeeAboveMax",
			"type": "error"
		},
		{
			"inputs": [
				{
					"internalType": "contract IERC20",
					"name": "token",
					"type": "address"
				}
			],
			"name": "LBFactory__IdenticalAddresses",
			"type": "error"
		},
		{
			"inputs": [],
			"name": "LBFactory__InvalidHooksParameters",
			"type": "error"
		},
		{
			"inputs": [
				{
					"internalType": "contract IERC20",
					"name": "tokenX",
					"type": "address"
				},
				{
					"internalType": "contract IERC20",
					"name": "tokenY",
					"type": "address"
				},
				{
					"internalType": "uint256",
					"name": "_binStep",
					"type": "uint256"
				}
			],
			"name": "LBFactory__LBPairAlreadyExists",
			"type": "error"
		},
		{
			"inputs": [
				{
					"internalType": "contract IERC20",
					"name": "tokenX",
					"type": "address"
				},
				{
					"internalType": "contract IERC20",
					"name": "tokenY",
					"type": "address"
				},
				{
					"internalType": "uint256",
					"name": "binStep",
					"type": "uint256"
				}
			],
			"name": "LBFactory__LBPairDoesNotExist",
			"type": "error"
		},
		{
			"inputs": [],
			"name": "LBFactory__LBPairIgnoredIsAlreadyInTheSameState",
			"type": "error"
		},
		{
			"inputs": [
				{
					"internalType": "contract IERC20",
					"name": "tokenX",
					"type": "address"
				},
				{
					"internalType": "contract IERC20",
					"name": "tokenY",
					"type": "address"
				},
				{
					"internalType": "uint256",
					"name": "binStep",
					"type": "uint256"
				}
			],
			"name": "LBFactory__LBPairNotCreated",
			"type": "error"
		},
		{
			"inputs": [
				{
					"internalType": "address",
					"name": "LBPairImplementation",
					"type": "address"
				}
			],
			"name": "LBFactory__LBPairSafetyCheckFailed",
			"type": "error"
		},
		{
			"inputs": [
				{
					"internalType": "address",
					"name": "user",
					"type": "address"
				},
				{
					"internalType": "uint256",
					"name": "binStep",
					"type": "uint256"
				}
			],
			"name": "LBFactory__PresetIsLockedForUsers",
			"type": "error"
		},
		{
			"inputs": [],
			"name": "LBFactory__PresetOpenStateIsAlreadyInTheSameState",
			"type": "error"
		},
		{
			"inputs": [
				{
					"internalType": "contract IERC20",
					"name": "quoteAsset",
					"type": "address"
				}
			],
			"name": "LBFactory__QuoteAssetAlreadyWhitelisted",
			"type": "error"
		},
		{
			"inputs": [
				{
					"internalType": "contract IERC20",
					"name": "quoteAsset",
					"type": "address"
				}
			],
			"name": "LBFactory__QuoteAssetNotWhitelisted",
			"type": "error"
		},
		{
			"inputs": [
				{
					"internalType": "address",
					"name": "feeRecipient",
					"type": "address"
				}
			],
			"name": "LBFactory__SameFeeRecipient",
			"type": "error"
		},
		{
			"inputs": [
				{
					"internalType": "uint256",
					"name": "flashLoanFee",
					"type": "uint256"
				}
			],
			"name": "LBFactory__SameFlashLoanFee",
			"type": "error"
		},
		{
			"inputs": [
				{
					"internalType": "address",
					"name": "hooksImplementation",
					"type": "address"
				}
			],
			"name": "LBFactory__SameHooksImplementation",
			"type": "error"
		},
		{
			"inputs": [
				{
					"internalType": "bytes32",
					"name": "hooksParameters",
					"type": "bytes32"
				}
			],
			"name": "LBFactory__SameHooksParameters",
			"type": "error"
		},
		{
			"inputs": [
				{
					"internalType": "address",
					"name": "LBPairImplementation",
					"type": "address"
				}
			],
			"name": "LBFactory__SameImplementation",
			"type": "error"
		},
		{
			"inputs": [],
			"name": "NotInitializing",
			"type": "error"
		},
		{
			"inputs": [
				{
					"internalType": "address",
					"name": "owner",
					"type": "address"
				}
			],
			"name": "OwnableInvalidOwner",
			"type": "error"
		},
		{
			"inputs": [
				{
					"internalType": "address",
					"name": "account",
					"type": "address"
				}
			],
			"name": "OwnableUnauthorizedAccount",
			"type": "error"
		},
		{
			"inputs": [],
			"name": "PairParametersHelper__InvalidParameter",
			"type": "error"
		},
		{
			"inputs": [],
			"name": "SafeCast__Exceeds16Bits",
			"type": "error"
		},
		{
			"inputs": [
				{
					"internalType": "uint256",
					"name": "x",
					"type": "uint256"
				},
				{
					"internalType": "int256",
					"name": "y",
					"type": "int256"
				}
			],
			"name": "Uint128x128Math__PowUnderflow",
			"type": "error"
		},
		{
			"anonymous": false,
			"inputs": [
				{
					"indexed": false,
					"internalType": "address",
					"name": "oldRecipient",
					"type": "address"
				},
				{
					"indexed": false,
					"internalType": "address",
					"name": "newRecipient",
					"type": "address"
				}
			],
			"name": "FeeRecipientSet",
			"type": "event"
		},
		{
			"anonymous": false,
			"inputs": [
				{
					"indexed": false,
					"internalType": "uint256",
					"name": "oldFlashLoanFee",
					"type": "uint256"
				},
				{
					"indexed": false,
					"internalType": "uint256",
					"name": "newFlashLoanFee",
					"type": "uint256"
				}
			],
			"name": "FlashLoanFeeSet",
			"type": "event"
		},
		{
			"anonymous": false,
			"inputs": [
				{
					"indexed": false,
					"internalType": "uint64",
					"name": "version",
					"type": "uint64"
				}
			],
			"name": "Initialized",
			"type": "event"
		},
		{
			"anonymous": false,
			"inputs": [
				{
					"indexed": true,
					"internalType": "contract IERC20",
					"name": "tokenX",
					"type": "address"
				},
				{
					"indexed": true,
					"internalType": "contract IERC20",
					"name": "tokenY",
					"type": "address"
				},
				{
					"indexed": true,
					"internalType": "uint256",
					"name": "binStep",
					"type": "uint256"
				},
				{
					"indexed": false,
					"internalType": "contract ILBPair",
					"name": "LBPair",
					"type": "address"
				},
				{
					"indexed": false,
					"internalType": "uint256",
					"name": "pid",
					"type": "uint256"
				}
			],
			"name": "LBPairCreated",
			"type": "event"
		},
		{
			"anonymous": false,
			"inputs": [
				{
					"indexed": true,
					"internalType": "contract ILBPair",
					"name": "LBPair",
					"type": "address"
				},
				{
					"indexed": false,
					"internalType": "bool",
					"name": "ignored",
					"type": "bool"
				}
			],
			"name": "LBPairIgnoredStateChanged",
			"type": "event"
		},
		{
			"anonymous": false,
			"inputs": [
				{
					"indexed": false,
					"internalType": "address",
					"name": "oldLBPairImplementation",
					"type": "address"
				},
				{
					"indexed": false,
					"internalType": "address",
					"name": "LBPairImplementation",
					"type": "address"
				}
			],
			"name": "LBPairImplementationSet",
			"type": "event"
		},
		{
			"anonymous": false,
			"inputs": [
				{
					"indexed": true,
					"internalType": "address",
					"name": "previousOwner",
					"type": "address"
				},
				{
					"indexed": true,
					"internalType": "address",
					"name": "newOwner",
					"type": "address"
				}
			],
			"name": "OwnershipTransferStarted",
			"type": "event"
		},
		{
			"anonymous": false,
			"inputs": [
				{
					"indexed": true,
					"internalType": "address",
					"name": "previousOwner",
					"type": "address"
				},
				{
					"indexed": true,
					"internalType": "address",
					"name": "newOwner",
					"type": "address"
				}
			],
			"name": "OwnershipTransferred",
			"type": "event"
		},
		{
			"anonymous": false,
			"inputs": [
				{
					"indexed": true,
					"internalType": "uint256",
					"name": "binStep",
					"type": "uint256"
				},
				{
					"indexed": true,
					"internalType": "bool",
					"name": "isOpen",
					"type": "bool"
				}
			],
			"name": "PresetOpenStateChanged",
			"type": "event"
		},
		{
			"anonymous": false,
			"inputs": [
				{
					"indexed": true,
					"internalType": "uint256",
					"name": "binStep",
					"type": "uint256"
				}
			],
			"name": "PresetRemoved",
			"type": "event"
		},
		{
			"anonymous": false,
			"inputs": [
				{
					"indexed": true,
					"internalType": "uint256",
					"name": "binStep",
					"type": "uint256"
				},
				{
					"indexed": false,
					"internalType": "uint256",
					"name": "baseFactor",
					"type": "uint256"
				},
				{
					"indexed": false,
					"internalType": "uint256",
					"name": "filterPeriod",
					"type": "uint256"
				},
				{
					"indexed": false,
					"internalType": "uint256",
					"name": "decayPeriod",
					"type": "uint256"
				},
				{
					"indexed": false,
					"internalType": "uint256",
					"name": "reductionFactor",
					"type": "uint256"
				},
				{
					"indexed": false,
					"internalType": "uint256",
					"name": "variableFeeControl",
					"type": "uint256"
				},
				{
					"indexed": false,
					"internalType": "uint256",
					"name": "protocolShare",
					"type": "uint256"
				},
				{
					"indexed": false,
					"internalType": "uint256",
					"name": "maxVolatilityAccumulator",
					"type": "uint256"
				}
			],
			"name": "PresetSet",
			"type": "event"
		},
		{
			"anonymous": false,
			"inputs": [
				{
					"indexed": true,
					"internalType": "contract IERC20",
					"name": "quoteAsset",
					"type": "address"
				}
			],
			"name": "QuoteAssetAdded",
			"type": "event"
		},
		{
			"anonymous": false,
			"inputs": [
				{
					"indexed": true,
					"internalType": "contract IERC20",
					"name": "quoteAsset",
					"type": "address"
				}
			],
			"name": "QuoteAssetRemoved",
			"type": "event"
		},
		{
			"anonymous": false,
			"inputs": [
				{
					"indexed": true,
					"internalType": "bytes32",
					"name": "role",
					"type": "bytes32"
				},
				{
					"indexed": true,
					"internalType": "bytes32",
					"name": "previousAdminRole",
					"type": "bytes32"
				},
				{
					"indexed": true,
					"internalType": "bytes32",
					"name": "newAdminRole",
					"type": "bytes32"
				}
			],
			"name": "RoleAdminChanged",
			"type": "event"
		},
		{
			"anonymous": false,
			"inputs": [
				{
					"indexed": true,
					"internalType": "bytes32",
					"name": "role",
					"type": "bytes32"
				},
				{
					"indexed": true,
					"internalType": "address",
					"name": "account",
					"type": "address"
				},
				{
					"indexed": true,
					"internalType": "address",
					"name": "sender",
					"type": "address"
				}
			],
			"name": "RoleGranted",
			"type": "event"
		},
		{
			"anonymous": false,
			"inputs": [
				{
					"indexed": true,
					"internalType": "bytes32",
					"name": "role",
					"type": "bytes32"
				},
				{
					"indexed": true,
					"internalType": "address",
					"name": "account",
					"type": "address"
				},
				{
					"indexed": true,
					"internalType": "address",
					"name": "sender",
					"type": "address"
				}
			],
			"name": "RoleRevoked",
			"type": "event"
		},
		{
			"inputs": [],
			"name": "DEFAULT_ADMIN_ROLE",
			"outputs": [
				{
					"internalType": "bytes32",
					"name": "",
					"type": "bytes32"
				}
			],
			"stateMutability": "view",
			"type": "function"
		},
		{
			"inputs": [],
			"name": "LB_HOOKS_MANAGER_ROLE",
			"outputs": [
				{
					"internalType": "bytes32",
					"name": "",
					"type": "bytes32"
				}
			],
			"stateMutability": "view",
			"type": "function"
		},
		{
			"inputs": [],
			"name": "LB_PAIR_BEACON_IMPLEMENTATION_PAUSER_ROLE",
			"outputs": [
				{
					"internalType": "bytes32",
					"name": "",
					"type": "bytes32"
				}
			],
			"stateMutability": "view",
			"type": "function"
		},
		{
			"inputs": [],
			"name": "acceptOwnership",
			"outputs": [],
			"stateMutability": "nonpayable",
			"type": "function"
		},
		{
			"inputs": [
				{
					"internalType": "contract IERC20",
					"name": "quoteAsset",
					"type": "address"
				}
			],
			"name": "addQuoteAsset",
			"outputs": [],
			"stateMutability": "nonpayable",
			"type": "function"
		},
		{
			"inputs": [
				{
					"internalType": "contract IERC20",
					"name": "tokenX",
					"type": "address"
				},
				{
					"internalType": "contract IERC20",
					"name": "tokenY",
					"type": "address"
				},
				{
					"internalType": "uint24",
					"name": "activeId",
					"type": "uint24"
				},
				{
					"internalType": "uint16",
					"name": "binStep",
					"type": "uint16"
				}
			],
			"name": "createLBPair",
			"outputs": [
				{
					"internalType": "contract ILBPair",
					"name": "pair",
					"type": "address"
				}
			],
			"stateMutability": "nonpayable",
			"type": "function"
		},
		{
			"inputs": [
				{
					"internalType": "contract ILBPair",
					"name": "pair",
					"type": "address"
				}
			],
			"name": "forceDecay",
			"outputs": [],
			"stateMutability": "nonpayable",
			"type": "function"
		},
		{
			"inputs": [],
			"name": "getAllBinSteps",
			"outputs": [
				{
					"internalType": "uint256[]",
					"name": "binStepWithPreset",
					"type": "uint256[]"
				}
			],
			"stateMutability": "view",
			"type": "function"
		},
		{
			"inputs": [
				{
					"internalType": "contract IERC20",
					"name": "tokenX",
					"type": "address"
				},
				{
					"internalType": "contract IERC20",
					"name": "tokenY",
					"type": "address"
				}
			],
			"name": "getAllLBPairs",
			"outputs": [
				{
					"components": [
						{
							"internalType": "uint16",
							"name": "binStep",
							"type": "uint16"
						},
						{
							"internalType": "contract ILBPair",
							"name": "LBPair",
							"type": "address"
						},
						{
							"internalType": "bool",
							"name": "createdByOwner",
							"type": "bool"
						},
						{
							"internalType": "bool",
							"name": "ignoredForRouting",
							"type": "bool"
						}
					],
					"internalType": "struct ILBFactory.LBPairInformation[]",
					"name": "lbPairsAvailable",
					"type": "tuple[]"
				}
			],
			"stateMutability": "view",
			"type": "function"
		},
		{
			"inputs": [],
			"name": "getFeeRecipient",
			"outputs": [
				{
					"internalType": "address",
					"name": "feeRecipient",
					"type": "address"
				}
			],
			"stateMutability": "view",
			"type": "function"
		},
		{
			"inputs": [],
			"name": "getFlashLoanFee",
			"outputs": [
				{
					"internalType": "uint256",
					"name": "flashLoanFee",
					"type": "uint256"
				}
			],
			"stateMutability": "view",
			"type": "function"
		},
		{
			"inputs": [
				{
					"internalType": "uint256",
					"name": "index",
					"type": "uint256"
				}
			],
			"name": "getLBPairAtIndex",
			"outputs": [
				{
					"internalType": "contract ILBPair",
					"name": "lbPair",
					"type": "address"
				}
			],
			"stateMutability": "view",
			"type": "function"
		},
		{
			"inputs": [],
			"name": "getLBPairBeacon",
			"outputs": [
				{
					"internalType": "address",
					"name": "lbPairBeacon",
					"type": "address"
				}
			],
			"stateMutability": "view",
			"type": "function"
		},
		{
			"inputs": [
				{
					"internalType": "contract IERC20",
					"name": "tokenA",
					"type": "address"
				},
				{
					"internalType": "contract IERC20",
					"name": "tokenB",
					"type": "address"
				},
				{
					"internalType": "uint256",
					"name": "binStep",
					"type": "uint256"
				}
			],
			"name": "getLBPairInformation",
			"outputs": [
				{
					"components": [
						{
							"internalType": "uint16",
							"name": "binStep",
							"type": "uint16"
						},
						{
							"internalType": "contract ILBPair",
							"name": "LBPair",
							"type": "address"
						},
						{
							"internalType": "bool",
							"name": "createdByOwner",
							"type": "bool"
						},
						{
							"internalType": "bool",
							"name": "ignoredForRouting",
							"type": "bool"
						}
					],
					"internalType": "struct ILBFactory.LBPairInformation",
					"name": "lbPairInformation",
					"type": "tuple"
				}
			],
			"stateMutability": "view",
			"type": "function"
		},
		{
			"inputs": [],
			"name": "getMaxFlashLoanFee",
			"outputs": [
				{
					"internalType": "uint256",
					"name": "maxFee",
					"type": "uint256"
				}
			],
			"stateMutability": "pure",
			"type": "function"
		},
		{
			"inputs": [],
			"name": "getMinBinStep",
			"outputs": [
				{
					"internalType": "uint256",
					"name": "minBinStep",
					"type": "uint256"
				}
			],
			"stateMutability": "pure",
			"type": "function"
		},
		{
			"inputs": [],
			"name": "getNumberOfLBPairs",
			"outputs": [
				{
					"internalType": "uint256",
					"name": "lbPairNumber",
					"type": "uint256"
				}
			],
			"stateMutability": "view",
			"type": "function"
		},
		{
			"inputs": [],
			"name": "getNumberOfQuoteAssets",
			"outputs": [
				{
					"internalType": "uint256",
					"name": "numberOfQuoteAssets",
					"type": "uint256"
				}
			],
			"stateMutability": "view",
			"type": "function"
		},
		{
			"inputs": [],
			"name": "getOpenBinSteps",
			"outputs": [
				{
					"internalType": "uint256[]",
					"name": "openBinStep",
					"type": "uint256[]"
				}
			],
			"stateMutability": "view",
			"type": "function"
		},
		{
			"inputs": [],
			"name": "getPauserRole",
			"outputs": [
				{
					"internalType": "bytes32",
					"name": "",
					"type": "bytes32"
				}
			],
			"stateMutability": "pure",
			"type": "function"
		},
		{
			"inputs": [
				{
					"internalType": "uint256",
					"name": "binStep",
					"type": "uint256"
				}
			],
			"name": "getPreset",
			"outputs": [
				{
					"internalType": "uint256",
					"name": "baseFactor",
					"type": "uint256"
				},
				{
					"internalType": "uint256",
					"name": "filterPeriod",
					"type": "uint256"
				},
				{
					"internalType": "uint256",
					"name": "decayPeriod",
					"type": "uint256"
				},
				{
					"internalType": "uint256",
					"name": "reductionFactor",
					"type": "uint256"
				},
				{
					"internalType": "uint256",
					"name": "variableFeeControl",
					"type": "uint256"
				},
				{
					"internalType": "uint256",
					"name": "protocolShare",
					"type": "uint256"
				},
				{
					"internalType": "uint256",
					"name": "maxVolatilityAccumulator",
					"type": "uint256"
				},
				{
					"internalType": "bool",
					"name": "isOpen",
					"type": "bool"
				}
			],
			"stateMutability": "view",
			"type": "function"
		},
		{
			"inputs": [
				{
					"internalType": "uint256",
					"name": "index",
					"type": "uint256"
				}
			],
			"name": "getQuoteAssetAtIndex",
			"outputs": [
				{
					"internalType": "contract IERC20",
					"name": "asset",
					"type": "address"
				}
			],
			"stateMutability": "view",
			"type": "function"
		},
		{
			"inputs": [
				{
					"internalType": "bytes32",
					"name": "role",
					"type": "bytes32"
				}
			],
			"name": "getRoleAdmin",
			"outputs": [
				{
					"internalType": "bytes32",
					"name": "",
					"type": "bytes32"
				}
			],
			"stateMutability": "view",
			"type": "function"
		},
		{
			"inputs": [
				{
					"internalType": "bytes32",
					"name": "role",
					"type": "bytes32"
				},
				{
					"internalType": "address",
					"name": "account",
					"type": "address"
				}
			],
			"name": "grantRole",
			"outputs": [],
			"stateMutability": "nonpayable",
			"type": "function"
		},
		{
			"inputs": [
				{
					"internalType": "bytes32",
					"name": "role",
					"type": "bytes32"
				},
				{
					"internalType": "address",
					"name": "account",
					"type": "address"
				}
			],
			"name": "hasRole",
			"outputs": [
				{
					"internalType": "bool",
					"name": "",
					"type": "bool"
				}
			],
			"stateMutability": "view",
			"type": "function"
		},
		{
			"inputs": [
				{
					"internalType": "address",
					"name": "feeRecipient",
					"type": "address"
				},
				{
					"internalType": "address",
					"name": "initialOwner",
					"type": "address"
				},
				{
					"internalType": "uint256",
					"name": "flashLoanFee",
					"type": "uint256"
				},
				{
					"internalType": "address",
					"name": "lbPairBeaconAddress",
					"type": "address"
				}
			],
			"name": "initialize",
			"outputs": [],
			"stateMutability": "nonpayable",
			"type": "function"
		},
		{
			"inputs": [
				{
					"internalType": "contract IERC20",
					"name": "token",
					"type": "address"
				}
			],
			"name": "isQuoteAsset",
			"outputs": [
				{
					"internalType": "bool",
					"name": "isQuote",
					"type": "bool"
				}
			],
			"stateMutability": "view",
			"type": "function"
		},
		{
			"inputs": [],
			"name": "owner",
			"outputs": [
				{
					"internalType": "address",
					"name": "",
					"type": "address"
				}
			],
			"stateMutability": "view",
			"type": "function"
		},
		{
			"inputs": [],
			"name": "pendingOwner",
			"outputs": [
				{
					"internalType": "address",
					"name": "",
					"type": "address"
				}
			],
			"stateMutability": "view",
			"type": "function"
		},
		{
			"inputs": [
				{
					"internalType": "contract IERC20",
					"name": "tokenX",
					"type": "address"
				},
				{
					"internalType": "contract IERC20",
					"name": "tokenY",
					"type": "address"
				},
				{
					"internalType": "uint16",
					"name": "binStep",
					"type": "uint16"
				}
			],
			"name": "removeLBHooksOnPair",
			"outputs": [],
			"stateMutability": "nonpayable",
			"type": "function"
		},
		{
			"inputs": [
				{
					"internalType": "uint16",
					"name": "binStep",
					"type": "uint16"
				}
			],
			"name": "removePreset",
			"outputs": [],
			"stateMutability": "nonpayable",
			"type": "function"
		},
		{
			"inputs": [
				{
					"internalType": "contract IERC20",
					"name": "quoteAsset",
					"type": "address"
				}
			],
			"name": "removeQuoteAsset",
			"outputs": [],
			"stateMutability": "nonpayable",
			"type": "function"
		},
		{
			"inputs": [],
			"name": "renounceOwnership",
			"outputs": [],
			"stateMutability": "nonpayable",
			"type": "function"
		},
		{
			"inputs": [
				{
					"internalType": "bytes32",
					"name": "role",
					"type": "bytes32"
				},
				{
					"internalType": "address",
					"name": "callerConfirmation",
					"type": "address"
				}
			],
			"name": "renounceRole",
			"outputs": [],
			"stateMutability": "nonpayable",
			"type": "function"
		},
		{
			"inputs": [
				{
					"internalType": "bytes32",
					"name": "role",
					"type": "bytes32"
				},
				{
					"internalType": "address",
					"name": "account",
					"type": "address"
				}
			],
			"name": "revokeRole",
			"outputs": [],
			"stateMutability": "nonpayable",
			"type": "function"
		},
		{
			"inputs": [
				{
					"internalType": "address",
					"name": "feeRecipient",
					"type": "address"
				}
			],
			"name": "setFeeRecipient",
			"outputs": [],
			"stateMutability": "nonpayable",
			"type": "function"
		},
		{
			"inputs": [
				{
					"internalType": "contract IERC20",
					"name": "tokenX",
					"type": "address"
				},
				{
					"internalType": "contract IERC20",
					"name": "tokenY",
					"type": "address"
				},
				{
					"internalType": "uint16",
					"name": "binStep",
					"type": "uint16"
				},
				{
					"internalType": "uint16",
					"name": "baseFactor",
					"type": "uint16"
				},
				{
					"internalType": "uint16",
					"name": "filterPeriod",
					"type": "uint16"
				},
				{
					"internalType": "uint16",
					"name": "decayPeriod",
					"type": "uint16"
				},
				{
					"internalType": "uint16",
					"name": "reductionFactor",
					"type": "uint16"
				},
				{
					"internalType": "uint24",
					"name": "variableFeeControl",
					"type": "uint24"
				},
				{
					"internalType": "uint16",
					"name": "protocolShare",
					"type": "uint16"
				},
				{
					"internalType": "uint24",
					"name": "maxVolatilityAccumulator",
					"type": "uint24"
				}
			],
			"name": "setFeesParametersOnPair",
			"outputs": [],
			"stateMutability": "nonpayable",
			"type": "function"
		},
		{
			"inputs": [
				{
					"internalType": "uint256",
					"name": "flashLoanFee",
					"type": "uint256"
				}
			],
			"name": "setFlashLoanFee",
			"outputs": [],
			"stateMutability": "nonpayable",
			"type": "function"
		},
		{
			"inputs": [
				{
					"internalType": "contract IERC20",
					"name": "tokenX",
					"type": "address"
				},
				{
					"internalType": "contract IERC20",
					"name": "tokenY",
					"type": "address"
				},
				{
					"internalType": "uint16",
					"name": "binStep",
					"type": "uint16"
				},
				{
					"internalType": "bytes32",
					"name": "hooksParameters",
					"type": "bytes32"
				},
				{
					"internalType": "bytes",
					"name": "onHooksSetData",
					"type": "bytes"
				}
			],
			"name": "setLBHooksParametersOnPair",
			"outputs": [],
			"stateMutability": "nonpayable",
			"type": "function"
		},
		{
			"inputs": [
				{
					"internalType": "contract IERC20",
					"name": "tokenX",
					"type": "address"
				},
				{
					"internalType": "contract IERC20",
					"name": "tokenY",
					"type": "address"
				},
				{
					"internalType": "uint16",
					"name": "binStep",
					"type": "uint16"
				},
				{
					"internalType": "bool",
					"name": "ignored",
					"type": "bool"
				}
			],
			"name": "setLBPairIgnored",
			"outputs": [],
			"stateMutability": "nonpayable",
			"type": "function"
		},
		{
			"inputs": [
				{
					"internalType": "uint16",
					"name": "binStep",
					"type": "uint16"
				},
				{
					"internalType": "uint16",
					"name": "baseFactor",
					"type": "uint16"
				},
				{
					"internalType": "uint16",
					"name": "filterPeriod",
					"type": "uint16"
				},
				{
					"internalType": "uint16",
					"name": "decayPeriod",
					"type": "uint16"
				},
				{
					"internalType": "uint16",
					"name": "reductionFactor",
					"type": "uint16"
				},
				{
					"internalType": "uint24",
					"name": "variableFeeControl",
					"type": "uint24"
				},
				{
					"internalType": "uint16",
					"name": "protocolShare",
					"type": "uint16"
				},
				{
					"internalType": "uint24",
					"name": "maxVolatilityAccumulator",
					"type": "uint24"
				},
				{
					"internalType": "bool",
					"name": "isOpen",
					"type": "bool"
				}
			],
			"name": "setPreset",
			"outputs": [],
			"stateMutability": "nonpayable",
			"type": "function"
		},
		{
			"inputs": [
				{
					"internalType": "uint16",
					"name": "binStep",
					"type": "uint16"
				},
				{
					"internalType": "bool",
					"name": "isOpen",
					"type": "bool"
				}
			],
			"name": "setPresetOpenState",
			"outputs": [],
			"stateMutability": "nonpayable",
			"type": "function"
		},
		{
			"inputs": [
				{
					"internalType": "bytes4",
					"name": "interfaceId",
					"type": "bytes4"
				}
			],
			"name": "supportsInterface",
			"outputs": [
				{
					"internalType": "bool",
					"name": "",
					"type": "bool"
				}
			],
			"stateMutability": "view",
			"type": "function"
		},
		{
			"inputs": [
				{
					"internalType": "address",
					"name": "newOwner",
					"type": "address"
				}
			],
			"name": "transferOwnership",
			"outputs": [],
			"stateMutability": "nonpayable",
			"type": "function"
		}
	]
}