{
	"data": {
		"bytecode": {
			"linkReferences": {},
			"object": "61014060405234801562000011575f80fd5b5060405162007db138038062007db18339818101604052810190620000379190620002fd565b8573ffffffffffffffffffffffffffffffffffffffff1660808173ffffffffffffffffffffffffffffffffffffffff16815250508173ffffffffffffffffffffffffffffffffffffffff1660a08173ffffffffffffffffffffffffffffffffffffffff16815250508473ffffffffffffffffffffffffffffffffffffffff1660c08173ffffffffffffffffffffffffffffffffffffffff16815250508373ffffffffffffffffffffffffffffffffffffffff1660e08173ffffffffffffffffffffffffffffffffffffffff16815250508273ffffffffffffffffffffffffffffffffffffffff166101008173ffffffffffffffffffffffffffffffffffffffff16815250508073ffffffffffffffffffffffffffffffffffffffff166101208173ffffffffffffffffffffffffffffffffffffffff168152505050505050505062000395565b5f80fd5b5f73ffffffffffffffffffffffffffffffffffffffff82169050919050565b5f620001ac8262000181565b9050919050565b5f620001bf82620001a0565b9050919050565b620001d181620001b3565b8114620001dc575f80fd5b50565b5f81519050620001ef81620001c6565b92915050565b5f6200020182620001a0565b9050919050565b6200021381620001f5565b81146200021e575f80fd5b50565b5f81519050620002318162000208565b92915050565b5f6200024382620001a0565b9050919050565b620002558162000237565b811462000260575f80fd5b50565b5f8151905062000273816200024a565b92915050565b5f6200028582620001a0565b9050919050565b620002978162000279565b8114620002a2575f80fd5b50565b5f81519050620002b5816200028c565b92915050565b5f620002c782620001a0565b9050919050565b620002d981620002bb565b8114620002e4575f80fd5b50565b5f81519050620002f781620002ce565b92915050565b5f805f805f8060c087890312156200031a57620003196200017d565b5b5f6200032989828a01620001df565b96505060206200033c89828a0162000221565b95505060406200034f89828a0162000263565b94505060606200036289828a01620002a5565b93505060806200037589828a01620001df565b92505060a06200038889828a01620002e7565b9150509295509295509295565b60805160a05160c05160e051610100516101205161792c620004855f395f818161018b015281816108360152818161092401528181610a1701528181610bd6015281816110870152818161188d01528181611929015281816119dc01528181611bbf01528181611c6401528181612125015281816125a7015281816129ea0152818161361d01528181613c130152613c9501525f818161271a015261396801525f81816118b401526148ef01525f8181612741015261534f01525f818161157f01526149c201525f81816115a5015281816117e301528181611a7901528181612c7e0152614a69015261792c5ff3fe608060405260043610610184575f3560e01c806392fe8e70116100d0578063ba84652311610089578063d0e380f211610063578063d0e380f2146106a8578063e038e6dc146106e4578063e9361c0814610714578063f96fe9251461073c57610210565b8063ba84652314610617578063bb558a9f14610641578063c22159b61461066b57610210565b806392fe8e70146104b2578063964f987c146104ee5780639ab6156b1461052c578063a0d376cf14610568578063a3c7271a146105a6578063b066ea7c146105e757610210565b806362c067671161013d57806371d1974a1161011757806371d1974a146103ec57806381c2fdfb1461041657806388cc58e4146104535780638efc2b2c1461047d57610210565b806362c067671461035e578063659ac74b146103865780636c9c0078146103c257610210565b80631a24f9a9146102145780632075ad22146102505780632a443fae146102805780633dc8f8ec146102bc5780634b801870146102f85780635c5035cb1461033457610210565b36610210577f000000000000000000000000000000000000000000000000000000000000000073ffffffffffffffffffffffffffffffffffffffff163373ffffffffffffffffffffffffffffffffffffffff161461020e576040517f6c8cb79300000000000000000000000000000000000000000000000000000000815260040160405180910390fd5b005b5f80fd5b34801561021f575f80fd5b5061023a60048036038101906102359190615d32565b610778565b6040516102479190615dd4565b60405180910390f35b61026a60048036038101906102659190615e17565b610b17565b6040516102779190615f4e565b60405180910390f35b34801561028b575f80fd5b506102a660048036038101906102a19190615f6e565b610e45565b6040516102b39190615dd4565b60405180910390f35b3480156102c7575f80fd5b506102e260048036038101906102dd9190615d32565b610fc8565b6040516102ef9190615f4e565b60405180910390f35b348015610303575f80fd5b5061031e60048036038101906103199190615f6e565b6112d7565b60405161032b9190615dd4565b60405180910390f35b34801561033f575f80fd5b5061034861157c565b604051610355919061605c565b60405180910390f35b348015610369575f80fd5b50610384600480360381019061037f9190616075565b6115a3565b005b348015610391575f80fd5b506103ac60048036038101906103a79190616134565b6117e0565b6040516103b991906161b8565b60405180910390f35b3480156103cd575f80fd5b506103d661188a565b6040516103e391906161f1565b60405180910390f35b3480156103f7575f80fd5b506104006118b1565b60405161040d919061622a565b60405180910390f35b348015610421575f80fd5b5061043c60048036038101906104379190616243565b6118d8565b60405161044a92919061632c565b60405180910390f35b34801561045e575f80fd5b50610467611a76565b604051610474919061605c565b60405180910390f35b61049760048036038101906104929190616376565b611a9d565b6040516104a9969594939291906163bd565b60405180910390f35b3480156104bd575f80fd5b506104d860048036038101906104d39190615f6e565b611da4565b6040516104e59190615f4e565b60405180910390f35b3480156104f9575f80fd5b50610514600480360381019061050f91906164df565b611fd5565b6040516105239392919061653e565b60405180910390f35b348015610537575f80fd5b50610552600480360381019061054d9190615d32565b612067565b60405161055f9190615dd4565b60405180910390f35b348015610573575f80fd5b5061058e600480360381019061058991906164df565b6122c8565b60405161059d9392919061653e565b60405180910390f35b3480156105b1575f80fd5b506105cc60048036038101906105c79190616376565b61235a565b6040516105de969594939291906163bd565b60405180910390f35b61060160048036038101906105fc9190615e17565b6124e9565b60405161060e9190615dd4565b60405180910390f35b348015610622575f80fd5b5061062b612717565b6040516106389190616593565b60405180910390f35b34801561064c575f80fd5b5061065561273e565b60405161066291906165cc565b60405180910390f35b348015610676575f80fd5b50610691600480360381019061068c91906165e5565b612765565b60405161069f92919061632c565b60405180910390f35b3480156106b3575f80fd5b506106ce60048036038101906106c991906166e1565b6128ab565b6040516106db9190615dd4565b60405180910390f35b6106fe60048036038101906106f99190615e17565b61292c565b60405161070b9190615dd4565b60405180910390f35b34801561071f575f80fd5b5061073a600480360381019061073591906167b3565b612c7c565b005b348015610747575f80fd5b50610762600480360381019061075d9190616856565b612de5565b60405161076f91906168a3565b60405180910390f35b5f81804211156107c15780426040517fdae7ca7d0000000000000000000000000000000000000000000000000000000081526004016107b892919061632c565b60405180910390fd5b845f815f01515114806107dd5750805f01515181602001515114155b806107fd57508060400151516001825f0151516107fa91906168e9565b14155b15610834576040517fb91b4d4d00000000000000000000000000000000000000000000000000000000815260040160405180910390fd5b7f000000000000000000000000000000000000000000000000000000000000000073ffffffffffffffffffffffffffffffffffffffff168660400151875f015151815181106108865761088561691c565b5b602002602001015173ffffffffffffffffffffffffffffffffffffffff1614610908578560400151865f015151815181106108c4576108c361691c565b5b60200260200101516040517fcfec0e010000000000000000000000000000000000000000000000000000000081526004016108ff9190616958565b60405180910390fd5b5f61091f875f015188602001518960400151612e66565b90505f7f000000000000000000000000000000000000000000000000000000000000000073ffffffffffffffffffffffffffffffffffffffff166370a08231306040518263ffffffff1660e01b815260040161097b9190616958565b602060405180830381865afa158015610996573d5f803e3d5ffd5b505050506040513d601f19601f820116820180604052508101906109ba9190616985565b9050610a0088604001515f815181106109d6576109d561691c565b5b602002602001015133845f815181106109f2576109f161691c565b5b60200260200101518d612fa3565b610a148289602001518a6040015130612fdf565b807f000000000000000000000000000000000000000000000000000000000000000073ffffffffffffffffffffffffffffffffffffffff166370a08231306040518263ffffffff1660e01b8152600401610a6e9190616958565b602060405180830381865afa158015610a89573d5f803e3d5ffd5b505050506040513d601f19601f82011682018060405250810190610aad9190616985565b610ab791906169b0565b945084891115610b005788856040517f4feac00c000000000000000000000000000000000000000000000000000000008152600401610af792919061632c565b60405180910390fd5b610b0a8786613613565b5050505095945050505050565b60608180421115610b615780426040517fdae7ca7d000000000000000000000000000000000000000000000000000000008152600401610b5892919061632c565b60405180910390fd5b845f815f0151511480610b7d5750805f01515181602001515114155b80610b9d57508060400151516001825f015151610b9a91906168e9565b14155b15610bd4576040517fb91b4d4d00000000000000000000000000000000000000000000000000000000815260040160405180910390fd5b7f000000000000000000000000000000000000000000000000000000000000000073ffffffffffffffffffffffffffffffffffffffff1686604001515f81518110610c2257610c2161691c565b5b602002602001015173ffffffffffffffffffffffffffffffffffffffff1614610ca05785604001515f81518110610c5c57610c5b61691c565b5b60200260200101516040517fcfec0e01000000000000000000000000000000000000000000000000000000008152600401610c979190616958565b60405180910390fd5b5f610cb7875f015188602001518960400151612e66565b9050610ccd87602001518289604001518b6136b0565b935034845f81518110610ce357610ce261691c565b5b60200260200101511115610d4a5734845f81518110610d0557610d0461691c565b5b60200260200101516040517fca7710c8000000000000000000000000000000000000000000000000000000008152600401610d4192919061632c565b60405180910390fd5b610d88815f81518110610d6057610d5f61691c565b5b6020026020010151855f81518110610d7b57610d7a61691c565b5b6020026020010151613c09565b5f610d9e8289602001518a60400151888b613cde565b905088811015610de75788816040517f4feac00c000000000000000000000000000000000000000000000000000000008152600401610dde92919061632c565b60405180910390fd5b845f81518110610dfa57610df961691c565b5b6020026020010151341115610e3957610e3833865f81518110610e2057610e1f61691c565b5b602002602001015134610e3391906169b0565b6141d9565b5b50505050949350505050565b5f8180421115610e8e5780426040517fdae7ca7d000000000000000000000000000000000000000000000000000000008152600401610e8592919061632c565b60405180910390fd5b845f815f0151511480610eaa5750805f01515181602001515114155b80610eca57508060400151516001825f015151610ec791906168e9565b14155b15610f01576040517fb91b4d4d00000000000000000000000000000000000000000000000000000000815260040160405180910390fd5b5f610f18875f015188602001518960400151612e66565b9050610f5e87604001515f81518110610f3457610f3361691c565b5b602002602001015133835f81518110610f5057610f4f61691c565b5b60200260200101518c612fa3565b610f73898289602001518a604001518a614293565b935083881115610fbc5787846040517f4feac00c000000000000000000000000000000000000000000000000000000008152600401610fb392919061632c565b60405180910390fd5b50505095945050505050565b606081804211156110125780426040517fdae7ca7d00000000000000000000000000000000000000000000000000000000815260040161100992919061632c565b60405180910390fd5b845f815f015151148061102e5750805f01515181602001515114155b8061104e57508060400151516001825f01515161104b91906168e9565b14155b15611085576040517fb91b4d4d00000000000000000000000000000000000000000000000000000000815260040160405180910390fd5b7f000000000000000000000000000000000000000000000000000000000000000073ffffffffffffffffffffffffffffffffffffffff168660400151875f015151815181106110d7576110d661691c565b5b602002602001015173ffffffffffffffffffffffffffffffffffffffff1614611159578560400151865f015151815181106111155761111461691c565b5b60200260200101516040517fcfec0e010000000000000000000000000000000000000000000000000000000081526004016111509190616958565b60405180910390fd5b5f611170875f015188602001518960400151612e66565b905061118687602001518289604001518c6136b0565b935087845f8151811061119c5761119b61691c565b5b602002602001015111156112035787845f815181106111be576111bd61691c565b5b60200260200101516040517fca7710c80000000000000000000000000000000000000000000000000000000081526004016111fa92919061632c565b60405180910390fd5b61126187604001515f8151811061121d5761121c61691c565b5b602002602001015133835f815181106112395761123861691c565b5b6020026020010151875f815181106112545761125361691c565b5b6020026020010151612fa3565b5f6112778289602001518a604001518830613cde565b9050898110156112c05789816040517f4feac00c0000000000000000000000000000000000000000000000000000000081526004016112b792919061632c565b60405180910390fd5b6112ca8782613613565b5050505095945050505050565b5f81804211156113205780426040517fdae7ca7d00000000000000000000000000000000000000000000000000000000815260040161131792919061632c565b60405180910390fd5b845f815f015151148061133c5750805f01515181602001515114155b8061135c57508060400151516001825f01515161135991906168e9565b14155b15611393576040517fb91b4d4d00000000000000000000000000000000000000000000000000000000815260040160405180910390fd5b5f6113aa875f015188602001518960400151612e66565b90505f87604001518251815181106113c5576113c461691c565b5b602002602001015190505f8173ffffffffffffffffffffffffffffffffffffffff166370a08231896040518263ffffffff1660e01b81526004016114099190616958565b602060405180830381865afa158015611424573d5f803e3d5ffd5b505050506040513d601f19601f820116820180604052508101906114489190616985565b905061148e89604001515f815181106114645761146361691c565b5b602002602001015133855f815181106114805761147f61691c565b5b60200260200101518e612fa3565b6114a2838a602001518b604001518b612fdf565b808273ffffffffffffffffffffffffffffffffffffffff166370a082318a6040518263ffffffff1660e01b81526004016114dc9190616958565b602060405180830381865afa1580156114f7573d5f803e3d5ffd5b505050506040513d601f19601f8201168201806040525081019061151b9190616985565b61152591906169b0565b9550858a111561156e5789866040517f4feac00c00000000000000000000000000000000000000000000000000000000815260040161156592919061632c565b60405180910390fd5b505050505095945050505050565b5f7f0000000000000000000000000000000000000000000000000000000000000000905090565b7f000000000000000000000000000000000000000000000000000000000000000073ffffffffffffffffffffffffffffffffffffffff16638da5cb5b6040518163ffffffff1660e01b8152600401602060405180830381865afa15801561160c573d5f803e3d5ffd5b505050506040513d601f19601f8201168201806040525081019061163091906169f7565b73ffffffffffffffffffffffffffffffffffffffff163373ffffffffffffffffffffffffffffffffffffffff1614611694576040517fbb2a2b7200000000000000000000000000000000000000000000000000000000815260040160405180910390fd5b5f73ffffffffffffffffffffffffffffffffffffffff168373ffffffffffffffffffffffffffffffffffffffff1603611707577fffffffffffffffffffffffffffffffffffffffffffffffffffffffffffffffff81146116f457806116f6565b475b905061170282826141d9565b6117db565b7fffffffffffffffffffffffffffffffffffffffffffffffffffffffffffffffff811461173457806117ad565b8273ffffffffffffffffffffffffffffffffffffffff166370a08231306040518263ffffffff1660e01b815260040161176d9190616958565b602060405180830381865afa158015611788573d5f803e3d5ffd5b505050506040513d601f19601f820116820180604052508101906117ac9190616985565b5b90506117da82828573ffffffffffffffffffffffffffffffffffffffff166148359092919063ffffffff16565b5b505050565b5f7f000000000000000000000000000000000000000000000000000000000000000073ffffffffffffffffffffffffffffffffffffffff1663659ac74b868686866040518563ffffffff1660e01b81526004016118409493929190616a51565b6020604051808303815f875af115801561185c573d5f803e3d5ffd5b505050506040513d601f19601f820116820180604052508101906118809190616aa8565b9050949350505050565b5f7f0000000000000000000000000000000000000000000000000000000000000000905090565b5f7f0000000000000000000000000000000000000000000000000000000000000000905090565b5f8082804211156119225780426040517fdae7ca7d00000000000000000000000000000000000000000000000000000000815260040161191992919061632c565b60405180910390fd5b5f6119548c7f00000000000000000000000000000000000000000000000000000000000000008d61ffff1660036148c0565b90505f8173ffffffffffffffffffffffffffffffffffffffff1663da10610c6040518163ffffffff1660e01b8152600401602060405180830381865afa1580156119a0573d5f803e3d5ffd5b505050506040513d601f19601f820116820180604052508101906119c49190616ae7565b73ffffffffffffffffffffffffffffffffffffffff167f000000000000000000000000000000000000000000000000000000000000000073ffffffffffffffffffffffffffffffffffffffff1614905080611a2457898b809b50819c5050505b5f80611a34848e8e8e8e30614b87565b9150915082611a44578082611a47565b81815b8097508198505050505050611a5d8c8786614d10565b611a678684613613565b50509850989650505050505050565b5f7f0000000000000000000000000000000000000000000000000000000000000000905090565b5f805f806060805f611ad9885f016020810190611aba9190616b12565b896020016020810190611acd9190616b12565b8a6040013560036148c0565b90508073ffffffffffffffffffffffffffffffffffffffff166305e8746d6040518163ffffffff1660e01b8152600401602060405180830381865afa158015611b24573d5f803e3d5ffd5b505050506040513d601f19601f82011682018060405250810190611b489190616ae7565b73ffffffffffffffffffffffffffffffffffffffff16885f016020810190611b709190616b12565b73ffffffffffffffffffffffffffffffffffffffff1614611bbd576040517fb33f8ab900000000000000000000000000000000000000000000000000000000815260040160405180910390fd5b7f000000000000000000000000000000000000000000000000000000000000000073ffffffffffffffffffffffffffffffffffffffff16885f016020810190611c069190616b12565b73ffffffffffffffffffffffffffffffffffffffff16148015611c2c5750348860600135145b15611c6257611c53886020016020810190611c479190616b12565b33838b60800135612fa3565b611c5d8134613c09565b611d78565b7f000000000000000000000000000000000000000000000000000000000000000073ffffffffffffffffffffffffffffffffffffffff16886020016020810190611cac9190616b12565b73ffffffffffffffffffffffffffffffffffffffff16148015611cd25750348860800135145b15611d0757611cf8885f016020810190611cec9190616b12565b33838b60600135612fa3565b611d028134613c09565b611d77565b875f016020810190611d199190616b12565b886020016020810190611d2c9190616b12565b89606001358a60800135346040517fd0a4f13b000000000000000000000000000000000000000000000000000000008152600401611d6e959493929190616b3d565b60405180910390fd5b5b611d828882614d49565b809750819850829950839a50849b50859c505050505050505091939550919395565b60608180421115611dee5780426040517fdae7ca7d000000000000000000000000000000000000000000000000000000008152600401611de592919061632c565b60405180910390fd5b845f815f0151511480611e0a5750805f01515181602001515114155b80611e2a57508060400151516001825f015151611e2791906168e9565b14155b15611e61576040517fb91b4d4d00000000000000000000000000000000000000000000000000000000815260040160405180910390fd5b5f611e78875f015188602001518960400151612e66565b9050611e8e87602001518289604001518c6136b0565b935087845f81518110611ea457611ea361691c565b5b60200260200101511115611f0b5787845f81518110611ec657611ec561691c565b5b60200260200101516040517fca7710c8000000000000000000000000000000000000000000000000000000008152600401611f0292919061632c565b60405180910390fd5b611f6987604001515f81518110611f2557611f2461691c565b5b602002602001015133835f81518110611f4157611f4061691c565b5b6020026020010151875f81518110611f5c57611f5b61691c565b5b6020026020010151612fa3565b5f611f7f8289602001518a60400151888b613cde565b905089811015611fc85789816040517f4feac00c000000000000000000000000000000000000000000000000000000008152600401611fbf92919061632c565b60405180910390fd5b5050505095945050505050565b5f805f8573ffffffffffffffffffffffffffffffffffffffff1663abcd783086866040518363ffffffff1660e01b8152600401612013929190616b9d565b606060405180830381865afa15801561202e573d5f803e3d5ffd5b505050506040513d601f19601f820116820180604052508101906120529190616bd8565b80935081945082955050505093509350939050565b5f81804211156120b05780426040517fdae7ca7d0000000000000000000000000000000000000000000000000000000081526004016120a792919061632c565b60405180910390fd5b845f815f01515114806120cc5750805f01515181602001515114155b806120ec57508060400151516001825f0151516120e991906168e9565b14155b15612123576040517fb91b4d4d00000000000000000000000000000000000000000000000000000000815260040160405180910390fd5b7f000000000000000000000000000000000000000000000000000000000000000073ffffffffffffffffffffffffffffffffffffffff168660400151875f015151815181106121755761217461691c565b5b602002602001015173ffffffffffffffffffffffffffffffffffffffff16146121f7578560400151865f015151815181106121b3576121b261691c565b5b60200260200101516040517fcfec0e010000000000000000000000000000000000000000000000000000000081526004016121ee9190616958565b60405180910390fd5b5f61220e875f015188602001518960400151612e66565b905061225487604001515f8151811061222a5761222961691c565b5b602002602001015133835f815181106122465761224561691c565b5b60200260200101518c612fa3565b612269898289602001518a6040015130614293565b9350838811156122b25787846040517f4feac00c0000000000000000000000000000000000000000000000000000000081526004016122a992919061632c565b60405180910390fd5b6122bc8685613613565b50505095945050505050565b5f805f8573ffffffffffffffffffffffffffffffffffffffff1663e77366f886866040518363ffffffff1660e01b8152600401612306929190616b9d565b606060405180830381865afa158015612321573d5f803e3d5ffd5b505050506040513d601f19601f820116820180604052508101906123459190616bd8565b80935081945082955050505093509350939050565b5f805f806060805f612396885f0160208101906123779190616b12565b89602001602081019061238a9190616b12565b8a6040013560036148c0565b90508073ffffffffffffffffffffffffffffffffffffffff166305e8746d6040518163ffffffff1660e01b8152600401602060405180830381865afa1580156123e1573d5f803e3d5ffd5b505050506040513d601f19601f820116820180604052508101906124059190616ae7565b73ffffffffffffffffffffffffffffffffffffffff16885f01602081019061242d9190616b12565b73ffffffffffffffffffffffffffffffffffffffff161461247a576040517fb33f8ab900000000000000000000000000000000000000000000000000000000815260040160405180910390fd5b61249b885f01602081019061248f9190616b12565b33838b60600135612fa3565b6124bd8860200160208101906124b19190616b12565b33838b60800135612fa3565b6124c78882614d49565b809750819850829950839a50849b50859c505050505050505091939550919395565b5f81804211156125325780426040517fdae7ca7d00000000000000000000000000000000000000000000000000000000815260040161252992919061632c565b60405180910390fd5b845f815f015151148061254e5750805f01515181602001515114155b8061256e57508060400151516001825f01515161256b91906168e9565b14155b156125a5576040517fb91b4d4d00000000000000000000000000000000000000000000000000000000815260040160405180910390fd5b7f000000000000000000000000000000000000000000000000000000000000000073ffffffffffffffffffffffffffffffffffffffff1686604001515f815181106125f3576125f261691c565b5b602002602001015173ffffffffffffffffffffffffffffffffffffffff16146126715785604001515f8151811061262d5761262c61691c565b5b60200260200101516040517fcfec0e010000000000000000000000000000000000000000000000000000000081526004016126689190616958565b60405180910390fd5b5f612688875f015188602001518960400151612e66565b90506126ae815f815181106126a05761269f61691c565b5b602002602001015134613c09565b6126c3348289602001518a604001518a614293565b93508388111561270c5787846040517f4feac00c00000000000000000000000000000000000000000000000000000000815260040161270392919061632c565b60405180910390fd5b505050949350505050565b5f7f0000000000000000000000000000000000000000000000000000000000000000905090565b5f7f0000000000000000000000000000000000000000000000000000000000000000905090565b5f8082804211156127af5780426040517fdae7ca7d0000000000000000000000000000000000000000000000000000000081526004016127a692919061632c565b60405180910390fd5b5f6127c18d8d8d61ffff1660036148c0565b90505f8173ffffffffffffffffffffffffffffffffffffffff166305e8746d6040518163ffffffff1660e01b8152600401602060405180830381865afa15801561280d573d5f803e3d5ffd5b505050506040513d601f19601f820116820180604052508101906128319190616ae7565b73ffffffffffffffffffffffffffffffffffffffff168e73ffffffffffffffffffffffffffffffffffffffff1614159050801561287357898b809b50819c5050505b612881828c8c8c8c8c614b87565b8095508196505050801561289a57838580955081965050505b505050995099975050505050505050565b5f8273ffffffffffffffffffffffffffffffffffffffff16634c7cffbd836040518263ffffffff1660e01b81526004016128e591906168a3565b602060405180830381865afa158015612900573d5f803e3d5ffd5b505050506040513d601f19601f820116820180604052508101906129249190616985565b905092915050565b5f81804211156129755780426040517fdae7ca7d00000000000000000000000000000000000000000000000000000000815260040161296c92919061632c565b60405180910390fd5b845f815f01515114806129915750805f01515181602001515114155b806129b157508060400151516001825f0151516129ae91906168e9565b14155b156129e8576040517fb91b4d4d00000000000000000000000000000000000000000000000000000000815260040160405180910390fd5b7f000000000000000000000000000000000000000000000000000000000000000073ffffffffffffffffffffffffffffffffffffffff1686604001515f81518110612a3657612a3561691c565b5b602002602001015173ffffffffffffffffffffffffffffffffffffffff1614612ab45785604001515f81518110612a7057612a6f61691c565b5b60200260200101516040517fcfec0e01000000000000000000000000000000000000000000000000000000008152600401612aab9190616958565b60405180910390fd5b5f612acb875f015188602001518960400151612e66565b90505f8760400151825181518110612ae657612ae561691c565b5b602002602001015190505f8173ffffffffffffffffffffffffffffffffffffffff166370a08231896040518263ffffffff1660e01b8152600401612b2a9190616958565b602060405180830381865afa158015612b45573d5f803e3d5ffd5b505050506040513d601f19601f82011682018060405250810190612b699190616985565b9050612b8f835f81518110612b8157612b8061691c565b5b602002602001015134613c09565b612ba3838a602001518b604001518b612fdf565b808273ffffffffffffffffffffffffffffffffffffffff166370a082318a6040518263ffffffff1660e01b8152600401612bdd9190616958565b602060405180830381865afa158015612bf8573d5f803e3d5ffd5b505050506040513d601f19601f82011682018060405250810190612c1c9190616985565b612c2691906169b0565b9550858a1115612c6f5789866040517f4feac00c000000000000000000000000000000000000000000000000000000008152600401612c6692919061632c565b60405180910390fd5b5050505050949350505050565b7f000000000000000000000000000000000000000000000000000000000000000073ffffffffffffffffffffffffffffffffffffffff16638da5cb5b6040518163ffffffff1660e01b8152600401602060405180830381865afa158015612ce5573d5f803e3d5ffd5b505050506040513d601f19601f82011682018060405250810190612d0991906169f7565b73ffffffffffffffffffffffffffffffffffffffff163373ffffffffffffffffffffffffffffffffffffffff1614612d6d576040517fbb2a2b7200000000000000000000000000000000000000000000000000000000815260040160405180910390fd5b8573ffffffffffffffffffffffffffffffffffffffff166317fad7fc3087878787876040518763ffffffff1660e01b8152600401612db096959493929190616c90565b5f604051808303815f87803b158015612dc7575f80fd5b505af1158015612dd9573d5f803e3d5ffd5b50505050505050505050565b5f8273ffffffffffffffffffffffffffffffffffffffff1663f5e29329836040518263ffffffff1660e01b8152600401612e1f9190615dd4565b602060405180830381865afa158015612e3a573d5f803e3d5ffd5b505050506040513d601f19601f82011682018060405250810190612e5e9190616cf9565b905092915050565b6060835167ffffffffffffffff811115612e8357612e826158f0565b5b604051908082528060200260200182016040528015612eb15781602001602082028036833780820191505090505b5090505f80835f81518110612ec957612ec861691c565b5b602002602001015190505f5b8351811015612f9957819250846001820181518110612ef757612ef661691c565b5b60200260200101519150612f418383898481518110612f1957612f1861691c565b5b6020026020010151898581518110612f3457612f3361691c565b5b6020026020010151615321565b848281518110612f5457612f5361691c565b5b602002602001019073ffffffffffffffffffffffffffffffffffffffff16908173ffffffffffffffffffffffffffffffffffffffff1681525050806001019050612ed5565b5050509392505050565b5f810315612fd957612fd88383838773ffffffffffffffffffffffffffffffffffffffff16615479909392919063ffffffff16565b5b50505050565b5f805f805f865f81518110612ff757612ff661691c565b5b602002602001015190505f5b89518110156136075789818151811061301f5761301e61691c565b5b6020026020010151925088818151811061303c5761303b61691c565b5b6020026020010151945081955087600182018151811061305f5761305e61691c565b5b60200260200101519150895160018201146130975789600182018151811061308a5761308961691c565b5b6020026020010151613099565b865b93505f60038111156130ae576130ad616d24565b5b8560038111156130c1576130c0616d24565b5b0361339d575f808473ffffffffffffffffffffffffffffffffffffffff16630902f1ac6040518163ffffffff1660e01b8152600401606060405180830381865afa158015613111573d5f803e3d5ffd5b505050506040513d601f19601f820116820180604052508101906131359190616dcd565b506dffffffffffffffffffffffffffff1691506dffffffffffffffffffffffffffff1691508373ffffffffffffffffffffffffffffffffffffffff168873ffffffffffffffffffffffffffffffffffffffff161015613294575f828973ffffffffffffffffffffffffffffffffffffffff166370a08231886040518263ffffffff1660e01b81526004016131c99190616958565b602060405180830381865afa1580156131e4573d5f803e3d5ffd5b505050506040513d601f19601f820116820180604052508101906132089190616985565b0390505f6132218484846155079092919063ffffffff16565b90508673ffffffffffffffffffffffffffffffffffffffff1663022c0d9f5f838b6040518463ffffffff1660e01b815260040161326093929190616e89565b5f604051808303815f87803b158015613277575f80fd5b505af1158015613289573d5f803e3d5ffd5b505050505050613396565b5f818973ffffffffffffffffffffffffffffffffffffffff166370a08231886040518263ffffffff1660e01b81526004016132cf9190616958565b602060405180830381865afa1580156132ea573d5f803e3d5ffd5b505050506040513d601f19601f8201168201806040525081019061330e9190616985565b0390505f6133278385846155079092919063ffffffff16565b90508673ffffffffffffffffffffffffffffffffffffffff1663022c0d9f825f8b6040518463ffffffff1660e01b815260040161336693929190616ed1565b5f604051808303815f87803b15801561337d575f80fd5b505af115801561338f573d5f803e3d5ffd5b5050505050505b50506135fc565b600160038111156133b1576133b0616d24565b5b8560038111156133c4576133c3616d24565b5b036134e4578273ffffffffffffffffffffffffffffffffffffffff166353c059a08473ffffffffffffffffffffffffffffffffffffffff1663b7d19fc46040518163ffffffff1660e01b8152600401602060405180830381865afa15801561342e573d5f803e3d5ffd5b505050506040513d601f19601f820116820180604052508101906134529190616ae7565b73ffffffffffffffffffffffffffffffffffffffff168473ffffffffffffffffffffffffffffffffffffffff1614866040518363ffffffff1660e01b815260040161349e929190616f19565b60408051808303815f875af11580156134b9573d5f803e3d5ffd5b505050506040513d601f19601f820116820180604052508101906134dd9190616f40565b50506135fb565b8273ffffffffffffffffffffffffffffffffffffffff166353c059a08473ffffffffffffffffffffffffffffffffffffffff1663da10610c6040518163ffffffff1660e01b8152600401602060405180830381865afa158015613549573d5f803e3d5ffd5b505050506040513d601f19601f8201168201806040525081019061356d9190616ae7565b73ffffffffffffffffffffffffffffffffffffffff168473ffffffffffffffffffffffffffffffffffffffff1614866040518363ffffffff1660e01b81526004016135b9929190616f19565b6020604051808303815f875af11580156135d5573d5f803e3d5ffd5b505050506040513d601f19601f820116820180604052508101906135f99190616fb1565b505b5b806001019050613003565b50505050505050505050565b5f8103156136ac577f000000000000000000000000000000000000000000000000000000000000000073ffffffffffffffffffffffffffffffffffffffff16632e1a7d4d826040518263ffffffff1660e01b81526004016136749190615dd4565b5f604051808303815f87803b15801561368b575f80fd5b505af115801561369d573d5f803e3d5ffd5b505050506136ab82826141d9565b5b5050565b6060825167ffffffffffffffff8111156136cd576136cc6158f0565b5b6040519080825280602002602001820160405280156136fb5781602001602082028036833780820191505090505b50905081818551815181106137135761371261691c565b5b6020026020010181815250505f845190505b5f8114613c00575f8460018361373b91906169b0565b8151811061374c5761374b61691c565b5b602002602001015190505f8760018461376591906169b0565b815181106137765761377561691c565b5b602002602001015190505f8760018561378f91906169b0565b815181106137a05761379f61691c565b5b602002602001015190505f60038111156137bd576137bc616d24565b5b8260038111156137d0576137cf616d24565b5b0361393a575f808273ffffffffffffffffffffffffffffffffffffffff16630902f1ac6040518163ffffffff1660e01b8152600401606060405180830381865afa158015613820573d5f803e3d5ffd5b505050506040513d601f19601f820116820180604052508101906138449190616dcd565b506dffffffffffffffffffffffffffff1691506dffffffffffffffffffffffffffff16915088868151811061387c5761387b61691c565b5b602002602001015173ffffffffffffffffffffffffffffffffffffffff168573ffffffffffffffffffffffffffffffffffffffff1611156138c257808280925081935050505b5f8787815181106138d6576138d561691c565b5b602002602001015190506138f58383836155d99092919063ffffffff16565b6fffffffffffffffffffffffffffffffff168860018961391591906169b0565b815181106139265761392561691c565b5b602002602001018181525050505050613bea565b6001600381111561394e5761394d616d24565b5b82600381111561396157613960616d24565b5b03613ae6577f000000000000000000000000000000000000000000000000000000000000000073ffffffffffffffffffffffffffffffffffffffff16635bdd4b7c828787815181106139b6576139b561691c565b5b60200260200101518673ffffffffffffffffffffffffffffffffffffffff168573ffffffffffffffffffffffffffffffffffffffff166316dc165b6040518163ffffffff1660e01b8152600401602060405180830381865afa158015613a1e573d5f803e3d5ffd5b505050506040513d601f19601f82011682018060405250810190613a429190616ae7565b73ffffffffffffffffffffffffffffffffffffffff16146040518463ffffffff1660e01b8152600401613a779392919061702c565b6040805180830381865afa158015613a91573d5f803e3d5ffd5b505050506040513d601f19601f82011682018060405250810190613ab59190616f40565b5085600186613ac491906169b0565b81518110613ad557613ad461691c565b5b602002602001018181525050613be9565b613ba581868681518110613afd57613afc61691c565b5b60200260200101518573ffffffffffffffffffffffffffffffffffffffff168473ffffffffffffffffffffffffffffffffffffffff166305e8746d6040518163ffffffff1660e01b8152600401602060405180830381865afa158015613b65573d5f803e3d5ffd5b505050506040513d601f19601f82011682018060405250810190613b899190616ae7565b73ffffffffffffffffffffffffffffffffffffffff1614611fd5565b826fffffffffffffffffffffffffffffffff16925090505085600186613bcb91906169b0565b81518110613bdc57613bdb61691c565b5b6020026020010181815250505b5b5050508080613bf890617061565b915050613725565b50949350505050565b5f810315613cda577f000000000000000000000000000000000000000000000000000000000000000073ffffffffffffffffffffffffffffffffffffffff1663d0e30db0826040518263ffffffff1660e01b81526004015f604051808303818588803b158015613c77575f80fd5b505af1158015613c89573d5f803e3d5ffd5b5050505050613cd982827f000000000000000000000000000000000000000000000000000000000000000073ffffffffffffffffffffffffffffffffffffffff166148359092919063ffffffff16565b5b5050565b5f805f805f80885f81518110613cf757613cf661691c565b5b602002602001015190505f5b8b518110156141ca578b8181518110613d1f57613d1e61691c565b5b602002602001015193508a8181518110613d3c57613d3b61691c565b5b60200260200101519250819550896001820181518110613d5f57613d5e61691c565b5b602002602001015191508b516001820114613d97578b6001820181518110613d8a57613d8961691c565b5b6020026020010151613d99565b875b94505f6003811115613dae57613dad616d24565b5b836003811115613dc157613dc0616d24565b5b03613ef957886001820181518110613ddc57613ddb61691c565b5b602002602001015196508173ffffffffffffffffffffffffffffffffffffffff168673ffffffffffffffffffffffffffffffffffffffff161015613e89578373ffffffffffffffffffffffffffffffffffffffff1663022c0d9f5f89886040518463ffffffff1660e01b8152600401613e5793929190616e89565b5f604051808303815f87803b158015613e6e575f80fd5b505af1158015613e80573d5f803e3d5ffd5b50505050613ef4565b8373ffffffffffffffffffffffffffffffffffffffff1663022c0d9f885f886040518463ffffffff1660e01b8152600401613ec693929190616ed1565b5f604051808303815f87803b158015613edd575f80fd5b505af1158015613eef573d5f803e3d5ffd5b505050505b6141bf565b60016003811115613f0d57613f0c616d24565b5b836003811115613f2057613f1f616d24565b5b0361405d575f8473ffffffffffffffffffffffffffffffffffffffff1663b7d19fc46040518163ffffffff1660e01b8152600401602060405180830381865afa158015613f6f573d5f803e3d5ffd5b505050506040513d601f19601f82011682018060405250810190613f939190616ae7565b73ffffffffffffffffffffffffffffffffffffffff168373ffffffffffffffffffffffffffffffffffffffff161490505f808673ffffffffffffffffffffffffffffffffffffffff166353c059a0848a6040518363ffffffff1660e01b8152600401614000929190616f19565b60408051808303815f875af115801561401b573d5f803e3d5ffd5b505050506040513d601f19601f8201168201806040525081019061403f9190616f40565b91509150821561405157809950614055565b8199505b5050506141be565b5f8473ffffffffffffffffffffffffffffffffffffffff1663da10610c6040518163ffffffff1660e01b8152600401602060405180830381865afa1580156140a7573d5f803e3d5ffd5b505050506040513d601f19601f820116820180604052508101906140cb9190616ae7565b73ffffffffffffffffffffffffffffffffffffffff168373ffffffffffffffffffffffffffffffffffffffff161490505f806141808773ffffffffffffffffffffffffffffffffffffffff166353c059a0858b6040518363ffffffff1660e01b815260040161413b929190616f19565b6020604051808303815f875af1158015614157573d5f803e3d5ffd5b505050506040513d601f19601f8201168201806040525081019061417b9190616fb1565b6156b2565b6fffffffffffffffffffffffffffffffff1691506fffffffffffffffffffffffffffffffff16915082156141b6578099506141ba565b8199505b5050505b5b806001019050613d03565b50505050505095945050505050565b5f81031561428f575f8273ffffffffffffffffffffffffffffffffffffffff1682604051614206906170b2565b5f6040518083038185875af1925050503d805f8114614240576040519150601f19603f3d011682016040523d82523d5f602084013e614245565b606091505b505090508061428d5782826040517f47b96f700000000000000000000000000000000000000000000000000000000081526004016142849291906170c6565b60405180910390fd5b505b5050565b5f805f805f80875f815181106142ac576142ab61691c565b5b602002602001015190508a95505f5b8a51811015614826578a81815181106142d7576142d661691c565b5b602002602001015192508981815181106142f4576142f361691c565b5b602002602001015194508195508860018201815181106143175761431661691c565b5b602002602001015191508a51600182011461434f578a60018201815181106143425761434161691c565b5b6020026020010151614351565b875b93505f600381111561436657614365616d24565b5b85600381111561437957614378616d24565b5b03614555575f808473ffffffffffffffffffffffffffffffffffffffff16630902f1ac6040518163ffffffff1660e01b8152600401606060405180830381865afa1580156143c9573d5f803e3d5ffd5b505050506040513d601f19601f820116820180604052508101906143ed9190616dcd565b506dffffffffffffffffffffffffffff1691506dffffffffffffffffffffffffffff1691508373ffffffffffffffffffffffffffffffffffffffff168873ffffffffffffffffffffffffffffffffffffffff1610156144cc5761445b82828b6155079092919063ffffffff16565b98508473ffffffffffffffffffffffffffffffffffffffff1663022c0d9f5f8b896040518463ffffffff1660e01b815260040161449a93929190616e89565b5f604051808303815f87803b1580156144b1575f80fd5b505af11580156144c3573d5f803e3d5ffd5b5050505061454e565b6144e181838b6155079092919063ffffffff16565b98508473ffffffffffffffffffffffffffffffffffffffff1663022c0d9f8a5f896040518463ffffffff1660e01b815260040161452093929190616ed1565b5f604051808303815f87803b158015614537575f80fd5b505af1158015614549573d5f803e3d5ffd5b505050505b505061481b565b6001600381111561456957614568616d24565b5b85600381111561457c5761457b616d24565b5b036146b9575f8373ffffffffffffffffffffffffffffffffffffffff1663b7d19fc46040518163ffffffff1660e01b8152600401602060405180830381865afa1580156145cb573d5f803e3d5ffd5b505050506040513d601f19601f820116820180604052508101906145ef9190616ae7565b73ffffffffffffffffffffffffffffffffffffffff168373ffffffffffffffffffffffffffffffffffffffff161490505f808573ffffffffffffffffffffffffffffffffffffffff166353c059a084896040518363ffffffff1660e01b815260040161465c929190616f19565b60408051808303815f875af1158015614677573d5f803e3d5ffd5b505050506040513d601f19601f8201168201806040525081019061469b9190616f40565b9150915082156146ad578099506146b1565b8199505b50505061481a565b5f8373ffffffffffffffffffffffffffffffffffffffff1663da10610c6040518163ffffffff1660e01b8152600401602060405180830381865afa158015614703573d5f803e3d5ffd5b505050506040513d601f19601f820116820180604052508101906147279190616ae7565b73ffffffffffffffffffffffffffffffffffffffff168373ffffffffffffffffffffffffffffffffffffffff161490505f806147dc8673ffffffffffffffffffffffffffffffffffffffff166353c059a0858a6040518363ffffffff1660e01b8152600401614797929190616f19565b6020604051808303815f875af11580156147b3573d5f803e3d5ffd5b505050506040513d601f19601f820116820180604052508101906147d79190616fb1565b6156b2565b6fffffffffffffffffffffffffffffffff1691506fffffffffffffffffffffffffffffffff169150821561481257809950614816565b8199505b5050505b5b8060010190506142bb565b50505050505095945050505050565b5f63a9059cbb60e01b83836040516024016148519291906170c6565b604051602081830303815290604052907bffffffffffffffffffffffffffffffffffffffffffffffffffffffff19166020820180517bffffffffffffffffffffffffffffffffffffffffffffffffffffffff838183161783525050505090506148ba84826156d4565b50505050565b5f600160038111156148d5576148d4616d24565b5b8260038111156148e8576148e7616d24565b5b03614994577f000000000000000000000000000000000000000000000000000000000000000073ffffffffffffffffffffffffffffffffffffffff1663704037bd8686866040518463ffffffff1660e01b815260040161494a939291906170ed565b608060405180830381865afa158015614965573d5f803e3d5ffd5b505050506040513d601f19601f8201168201806040525081019061498991906171fa565b602001519050614b0b565b600260038111156149a8576149a7616d24565b5b8260038111156149bb576149ba616d24565b5b03614a67577f000000000000000000000000000000000000000000000000000000000000000073ffffffffffffffffffffffffffffffffffffffff1663704037bd8686866040518463ffffffff1660e01b8152600401614a1d939291906170ed565b608060405180830381865afa158015614a38573d5f803e3d5ffd5b505050506040513d601f19601f82011682018060405250810190614a5c919061729a565b602001519050614b0a565b7f000000000000000000000000000000000000000000000000000000000000000073ffffffffffffffffffffffffffffffffffffffff1663704037bd8686866040518463ffffffff1660e01b8152600401614ac4939291906170ed565b608060405180830381865afa158015614adf573d5f803e3d5ffd5b505050506040513d601f19601f82011682018060405250810190614b03919061729a565b6020015190505b5b5f73ffffffffffffffffffffffffffffffffffffffff168173ffffffffffffffffffffffffffffffffffffffff1603614b7f578484846040517fd648e3a2000000000000000000000000000000000000000000000000000000008152600401614b76939291906172c5565b60405180910390fd5b949350505050565b5f805f8873ffffffffffffffffffffffffffffffffffffffff1663c9939f5e338689896040518563ffffffff1660e01b8152600401614bc994939291906172fa565b5f604051808303815f875af1158015614be4573d5f803e3d5ffd5b505050506040513d5f823e3d601f19601f82011682018060405250810190614c0c919061740b565b90505f5b8151811015614cae57614c3c828281518110614c2f57614c2e61691c565b5b602002602001015161575e565b6fffffffffffffffffffffffffffffffff1684614c5991906168e9565b9350614c7e828281518110614c7157614c7061691c565b5b6020026020010151615779565b6fffffffffffffffffffffffffffffffff1683614c9b91906168e9565b925080614ca790617452565b9050614c10565b5087831080614cbc57508682105b15614d0457878388846040517f3199f6ee000000000000000000000000000000000000000000000000000000008152600401614cfb9493929190617499565b60405180910390fd5b50965096945050505050565b5f810315614d4457614d4382828573ffffffffffffffffffffffffffffffffffffffff166148359092919063ffffffff16565b5b505050565b5f805f80606080876101c0013580421115614d9d5780426040517fdae7ca7d000000000000000000000000000000000000000000000000000000008152600401614d9492919061632c565b60405180910390fd5b88806101400190614dae91906174e8565b905089806101200190614dc1919061754a565b9050141580614df4575088806101600190614ddc91906174e8565b905089806101200190614def919061754a565b905014155b15614e2b576040517fb91b4d4d00000000000000000000000000000000000000000000000000000000815260040160405180910390fd5b62ffffff80168960e001351180614e4b575062ffffff8016896101000135115b15614e98578860e001358961010001356040517f32f4ab8e000000000000000000000000000000000000000000000000000000008152600401614e8f92919061632c565b60405180910390fd5b5f89806101200190614eaa919061754a565b905067ffffffffffffffff811115614ec557614ec46158f0565b5b604051908082528060200260200182016040528015614ef35781602001602082028036833780820191505090505b50905089806101200190614f07919061754a565b905067ffffffffffffffff811115614f2257614f216158f0565b5b604051908082528060200260200182016040528015614f505781602001602082028036833780820191505090505b5093505f8973ffffffffffffffffffffffffffffffffffffffff1663dbe65edc6040518163ffffffff1660e01b8152600401602060405180830381865afa158015614f9d573d5f803e3d5ffd5b505050506040513d601f19601f82011682018060405250810190614fc19190616cf9565b62ffffff169050808b61010001358c60e00135011080614feb57508a60e001358b61010001358201105b1561503a578a60e001358b6101000135826040517ffaa1db56000000000000000000000000000000000000000000000000000000008152600401615031939291906175ac565b60405180910390fd5b5f5b825181101561516d575f8c806101200190615057919061754a565b838181106150685761506761691c565b5b90506020020135830190505f811280615085575062ffffff801681115b156150c757806040517fe1505cc20000000000000000000000000000000000000000000000000000000081526004016150be91906175f9565b60405180910390fd5b808783815181106150db576150da61691c565b5b6020026020010181815250506151428d8061014001906150fb91906174e8565b8481811061510c5761510b61691c565b5b905060200201358e80610160019061512491906174e8565b858181106151355761513461691c565b5b9050602002013583615785565b8483815181106151555761515461691c565b5b6020026020010181815250505080600101905061503c565b50505f808a73ffffffffffffffffffffffffffffffffffffffff1663383d15c58d6101800160208101906151a19190617612565b858f6101a00160208101906151b69190617612565b6040518463ffffffff1660e01b81526004016151d4939291906176f4565b5f604051808303815f875af11580156151ef573d5f803e3d5ffd5b505050506040513d5f823e3d601f19601f8201168201806040525081019061521791906177c5565b8097508193508294505050505f615237828461580690919063ffffffff16565b90506152428161575e565b6fffffffffffffffffffffffffffffffff169a5061525f81615779565b6fffffffffffffffffffffffffffffffff1699508c60a001358b108061528857508c60c001358a105b156152d8578c60a001358b8e60c001358c6040517f3199f6ee0000000000000000000000000000000000000000000000000000000081526004016152cf9493929190617499565b60405180910390fd5b6152e18261575e565b6fffffffffffffffffffffffffffffffff1698506152fe82615779565b6fffffffffffffffffffffffffffffffff16975050505050509295509295509295565b5f80600381111561533557615334616d24565b5b82600381111561534857615347616d24565b5b03615462577f000000000000000000000000000000000000000000000000000000000000000073ffffffffffffffffffffffffffffffffffffffff1663e6a4390586866040518363ffffffff1660e01b81526004016153a8929190617831565b602060405180830381865afa1580156153c3573d5f803e3d5ffd5b505050506040513d601f19601f820116820180604052508101906153e791906169f7565b90505f73ffffffffffffffffffffffffffffffffffffffff168173ffffffffffffffffffffffffffffffffffffffff160361545d578484846040517fd648e3a2000000000000000000000000000000000000000000000000000000008152600401615454939291906172c5565b60405180910390fd5b615471565b61546e858585856148c0565b90505b949350505050565b5f6323b872dd60e01b848484604051602401615497939291906172c5565b604051602081830303815290604052907bffffffffffffffffffffffffffffffffffffffffffffffffffffffff19166020820180517bffffffffffffffffffffffffffffffffffffffffffffffffffffffff8381831617835250505050905061550085826156d4565b5050505050565b5f808403615541576040517fb229ed3300000000000000000000000000000000000000000000000000000000815260040160405180910390fd5b5f83148061554e57505f82145b15615585576040517f98c59a2900000000000000000000000000000000000000000000000000000000815260040160405180910390fd5b5f6103e5856155949190617858565b90505f83826155a39190617858565b90505f826103e8876155b59190617858565b6155bf91906168e9565b905080826155cd91906178c6565b93505050509392505050565b5f808403615613576040517fb229ed3300000000000000000000000000000000000000000000000000000000815260040160405180910390fd5b5f83148061562057505f82145b15615657576040517f98c59a2900000000000000000000000000000000000000000000000000000000815260040160405180910390fd5b5f6103e885856156679190617858565b6156719190617858565b90505f6103e5868561568391906169b0565b61568d9190617858565b90506001818361569d91906178c6565b6156a791906168e9565b925050509392505050565b5f806fffffffffffffffffffffffffffffffff831691508260801c9050915091565b5f805f5260205f8351602085015f875af19050805f8114615712573d5f81146157055760015f51148316925061570c565b843b151592505b50615721565b3d15615720573d5f803e3d5ffd5b5b5080615759576040517f32e2717a00000000000000000000000000000000000000000000000000000000815260040160405180910390fd5b505050565b5f6fffffffffffffffffffffffffffffffff82169050919050565b5f8160801c9050919050565b5f6157b08467ffffffffffffffff1667ffffffffffffffff60588461587e909392919063ffffffff16565b90506157dc8367ffffffffffffffff1667ffffffffffffffff60188461587e909392919063ffffffff16565b90506157fd8262ffffff1662ffffff5f8461587e909392919063ffffffff16565b90509392505050565b5f8183039050828111806158415750825f1c6fffffffffffffffffffffffffffffffff16815f1c6fffffffffffffffffffffffffffffffff16115b15615878576040517fe599af5500000000000000000000000000000000000000000000000000000000815260040160405180910390fd5b92915050565b5f82821b1985169050828416821b81179050949350505050565b5f604051905090565b5f80fd5b5f80fd5b5f819050919050565b6158bb816158a9565b81146158c5575f80fd5b50565b5f813590506158d6816158b2565b92915050565b5f80fd5b5f601f19601f8301169050919050565b7f4e487b71000000000000000000000000000000000000000000000000000000005f52604160045260245ffd5b615926826158e0565b810181811067ffffffffffffffff82111715615945576159446158f0565b5b80604052505050565b5f615957615898565b9050615963828261591d565b919050565b5f80fd5b5f80fd5b5f67ffffffffffffffff82111561598a576159896158f0565b5b602082029050602081019050919050565b5f80fd5b5f6159b16159ac84615970565b61594e565b905080838252602082019050602084028301858111156159d4576159d361599b565b5b835b818110156159fd57806159e988826158c8565b8452602084019350506020810190506159d6565b5050509392505050565b5f82601f830112615a1b57615a1a61596c565b5b8135615a2b84826020860161599f565b91505092915050565b5f67ffffffffffffffff821115615a4e57615a4d6158f0565b5b602082029050602081019050919050565b60048110615a6b575f80fd5b50565b5f81359050615a7c81615a5f565b92915050565b5f615a94615a8f84615a34565b61594e565b90508083825260208201905060208402830185811115615ab757615ab661599b565b5b835b81811015615ae05780615acc8882615a6e565b845260208401935050602081019050615ab9565b5050509392505050565b5f82601f830112615afe57615afd61596c565b5b8135615b0e848260208601615a82565b91505092915050565b5f67ffffffffffffffff821115615b3157615b306158f0565b5b602082029050602081019050919050565b5f73ffffffffffffffffffffffffffffffffffffffff82169050919050565b5f615b6b82615b42565b9050919050565b5f615b7c82615b61565b9050919050565b615b8c81615b72565b8114615b96575f80fd5b50565b5f81359050615ba781615b83565b92915050565b5f615bbf615bba84615b17565b61594e565b90508083825260208201905060208402830185811115615be257615be161599b565b5b835b81811015615c0b5780615bf78882615b99565b845260208401935050602081019050615be4565b5050509392505050565b5f82601f830112615c2957615c2861596c565b5b8135615c39848260208601615bad565b91505092915050565b5f60608284031215615c5757615c566158dc565b5b615c61606061594e565b90505f82013567ffffffffffffffff811115615c8057615c7f615968565b5b615c8c84828501615a07565b5f83015250602082013567ffffffffffffffff811115615caf57615cae615968565b5b615cbb84828501615aea565b602083015250604082013567ffffffffffffffff811115615cdf57615cde615968565b5b615ceb84828501615c15565b60408301525092915050565b5f615d0182615b42565b9050919050565b615d1181615cf7565b8114615d1b575f80fd5b50565b5f81359050615d2c81615d08565b92915050565b5f805f805f60a08688031215615d4b57615d4a6158a1565b5b5f615d58888289016158c8565b9550506020615d69888289016158c8565b945050604086013567ffffffffffffffff811115615d8a57615d896158a5565b5b615d9688828901615c42565b9350506060615da788828901615d1e565b9250506080615db8888289016158c8565b9150509295509295909350565b615dce816158a9565b82525050565b5f602082019050615de75f830184615dc5565b92915050565b615df681615b61565b8114615e00575f80fd5b50565b5f81359050615e1181615ded565b92915050565b5f805f8060808587031215615e2f57615e2e6158a1565b5b5f615e3c878288016158c8565b945050602085013567ffffffffffffffff811115615e5d57615e5c6158a5565b5b615e6987828801615c42565b9350506040615e7a87828801615e03565b9250506060615e8b878288016158c8565b91505092959194509250565b5f81519050919050565b5f82825260208201905092915050565b5f819050602082019050919050565b615ec9816158a9565b82525050565b5f615eda8383615ec0565b60208301905092915050565b5f602082019050919050565b5f615efc82615e97565b615f068185615ea1565b9350615f1183615eb1565b805f5b83811015615f41578151615f288882615ecf565b9750615f3383615ee6565b925050600181019050615f14565b5085935050505092915050565b5f6020820190508181035f830152615f668184615ef2565b905092915050565b5f805f805f60a08688031215615f8757615f866158a1565b5b5f615f94888289016158c8565b9550506020615fa5888289016158c8565b945050604086013567ffffffffffffffff811115615fc657615fc56158a5565b5b615fd288828901615c42565b9350506060615fe388828901615e03565b9250506080615ff4888289016158c8565b9150509295509295909350565b5f819050919050565b5f61602461601f61601a84615b42565b616001565b615b42565b9050919050565b5f6160358261600a565b9050919050565b5f6160468261602b565b9050919050565b6160568161603c565b82525050565b5f60208201905061606f5f83018461604d565b92915050565b5f805f6060848603121561608c5761608b6158a1565b5b5f61609986828701615b99565b93505060206160aa86828701615e03565b92505060406160bb868287016158c8565b9150509250925092565b5f62ffffff82169050919050565b6160dc816160c5565b81146160e6575f80fd5b50565b5f813590506160f7816160d3565b92915050565b5f61ffff82169050919050565b616113816160fd565b811461611d575f80fd5b50565b5f8135905061612e8161610a565b92915050565b5f805f806080858703121561614c5761614b6158a1565b5b5f61615987828801615b99565b945050602061616a87828801615b99565b935050604061617b878288016160e9565b925050606061618c87828801616120565b91505092959194509250565b5f6161a28261602b565b9050919050565b6161b281616198565b82525050565b5f6020820190506161cb5f8301846161a9565b92915050565b5f6161db8261602b565b9050919050565b6161eb816161d1565b82525050565b5f6020820190506162045f8301846161e2565b92915050565b5f6162148261602b565b9050919050565b6162248161620a565b82525050565b5f60208201905061623d5f83018461621b565b92915050565b5f805f805f805f80610100898b0312156162605761625f6158a1565b5b5f61626d8b828c01615b99565b985050602061627e8b828c01616120565b975050604061628f8b828c016158c8565b96505060606162a08b828c016158c8565b955050608089013567ffffffffffffffff8111156162c1576162c06158a5565b5b6162cd8b828c01615a07565b94505060a089013567ffffffffffffffff8111156162ee576162ed6158a5565b5b6162fa8b828c01615a07565b93505060c061630b8b828c01615d1e565b92505060e061631c8b828c016158c8565b9150509295985092959890939650565b5f60408201905061633f5f830185615dc5565b61634c6020830184615dc5565b9392505050565b5f80fd5b5f6101e0828403121561636d5761636c616353565b5b81905092915050565b5f6020828403121561638b5761638a6158a1565b5b5f82013567ffffffffffffffff8111156163a8576163a76158a5565b5b6163b484828501616357565b91505092915050565b5f60c0820190506163d05f830189615dc5565b6163dd6020830188615dc5565b6163ea6040830187615dc5565b6163f76060830186615dc5565b81810360808301526164098185615ef2565b905081810360a083015261641d8184615ef2565b9050979650505050505050565b5f61643482615b61565b9050919050565b6164448161642a565b811461644e575f80fd5b50565b5f8135905061645f8161643b565b92915050565b5f6fffffffffffffffffffffffffffffffff82169050919050565b61648981616465565b8114616493575f80fd5b50565b5f813590506164a481616480565b92915050565b5f8115159050919050565b6164be816164aa565b81146164c8575f80fd5b50565b5f813590506164d9816164b5565b92915050565b5f805f606084860312156164f6576164f56158a1565b5b5f61650386828701616451565b935050602061651486828701616496565b9250506040616525868287016164cb565b9150509250925092565b61653881616465565b82525050565b5f6060820190506165515f83018661652f565b61655e602083018561652f565b61656b604083018461652f565b949350505050565b5f61657d8261602b565b9050919050565b61658d81616573565b82525050565b5f6020820190506165a65f830184616584565b92915050565b5f6165b68261602b565b9050919050565b6165c6816165ac565b82525050565b5f6020820190506165df5f8301846165bd565b92915050565b5f805f805f805f805f6101208a8c031215616603576166026158a1565b5b5f6166108c828d01615b99565b99505060206166218c828d01615b99565b98505060406166328c828d01616120565b97505060606166438c828d016158c8565b96505060806166548c828d016158c8565b95505060a08a013567ffffffffffffffff811115616675576166746158a5565b5b6166818c828d01615a07565b94505060c08a013567ffffffffffffffff8111156166a2576166a16158a5565b5b6166ae8c828d01615a07565b93505060e06166bf8c828d01615e03565b9250506101006166d18c828d016158c8565b9150509295985092959850929598565b5f80604083850312156166f7576166f66158a1565b5b5f61670485828601616451565b9250506020616715858286016160e9565b9150509250929050565b5f61672982615b61565b9050919050565b6167398161671f565b8114616743575f80fd5b50565b5f8135905061675481616730565b92915050565b5f80fd5b5f8083601f8401126167735761677261596c565b5b8235905067ffffffffffffffff8111156167905761678f61675a565b5b6020830191508360208202830111156167ac576167ab61599b565b5b9250929050565b5f805f805f80608087890312156167cd576167cc6158a1565b5b5f6167da89828a01616746565b96505060206167eb89828a01615e03565b955050604087013567ffffffffffffffff81111561680c5761680b6158a5565b5b61681889828a0161675e565b9450945050606087013567ffffffffffffffff81111561683b5761683a6158a5565b5b61684789828a0161675e565b92509250509295509295509295565b5f806040838503121561686c5761686b6158a1565b5b5f61687985828601616451565b925050602061688a858286016158c8565b9150509250929050565b61689d816160c5565b82525050565b5f6020820190506168b65f830184616894565b92915050565b7f4e487b71000000000000000000000000000000000000000000000000000000005f52601160045260245ffd5b5f6168f3826158a9565b91506168fe836158a9565b9250828201905080821115616916576169156168bc565b5b92915050565b7f4e487b71000000000000000000000000000000000000000000000000000000005f52603260045260245ffd5b61695281615b61565b82525050565b5f60208201905061696b5f830184616949565b92915050565b5f8151905061697f816158b2565b92915050565b5f6020828403121561699a576169996158a1565b5b5f6169a784828501616971565b91505092915050565b5f6169ba826158a9565b91506169c5836158a9565b92508282039050818111156169dd576169dc6168bc565b5b92915050565b5f815190506169f181615ded565b92915050565b5f60208284031215616a0c57616a0b6158a1565b5b5f616a19848285016169e3565b91505092915050565b5f616a2c8261602b565b9050919050565b616a3c81616a22565b82525050565b616a4b816160fd565b82525050565b5f608082019050616a645f830187616a33565b616a716020830186616a33565b616a7e6040830185616894565b616a8b6060830184616a42565b95945050505050565b5f81519050616aa28161643b565b92915050565b5f60208284031215616abd57616abc6158a1565b5b5f616aca84828501616a94565b91505092915050565b5f81519050616ae181615b83565b92915050565b5f60208284031215616afc57616afb6158a1565b5b5f616b0984828501616ad3565b91505092915050565b5f60208284031215616b2757616b266158a1565b5b5f616b3484828501615b99565b91505092915050565b5f60a082019050616b505f830188616949565b616b5d6020830187616949565b616b6a6040830186615dc5565b616b776060830185615dc5565b616b846080830184615dc5565b9695505050505050565b616b97816164aa565b82525050565b5f604082019050616bb05f83018561652f565b616bbd6020830184616b8e565b9392505050565b5f81519050616bd281616480565b92915050565b5f805f60608486031215616bef57616bee6158a1565b5b5f616bfc86828701616bc4565b9350506020616c0d86828701616bc4565b9250506040616c1e86828701616bc4565b9150509250925092565b5f80fd5b82818337505050565b5f616c408385615ea1565b93507f07ffffffffffffffffffffffffffffffffffffffffffffffffffffffffffffff831115616c7357616c72616c28565b5b602083029250616c84838584616c2c565b82840190509392505050565b5f608082019050616ca35f830189616949565b616cb06020830188616949565b8181036040830152616cc3818688616c35565b90508181036060830152616cd8818486616c35565b9050979650505050505050565b5f81519050616cf3816160d3565b92915050565b5f60208284031215616d0e57616d0d6158a1565b5b5f616d1b84828501616ce5565b91505092915050565b7f4e487b71000000000000000000000000000000000000000000000000000000005f52602160045260245ffd5b5f6dffffffffffffffffffffffffffff82169050919050565b616d7381616d51565b8114616d7d575f80fd5b50565b5f81519050616d8e81616d6a565b92915050565b5f63ffffffff82169050919050565b616dac81616d94565b8114616db6575f80fd5b50565b5f81519050616dc781616da3565b92915050565b5f805f60608486031215616de457616de36158a1565b5b5f616df186828701616d80565b9350506020616e0286828701616d80565b9250506040616e1386828701616db9565b9150509250925092565b5f819050919050565b5f616e40616e3b616e3684616e1d565b616001565b6158a9565b9050919050565b616e5081616e26565b82525050565b5f82825260208201905092915050565b50565b5f616e745f83616e56565b9150616e7f82616e66565b5f82019050919050565b5f608082019050616e9c5f830186616e47565b616ea96020830185615dc5565b616eb66040830184616949565b8181036060830152616ec781616e69565b9050949350505050565b5f608082019050616ee45f830186615dc5565b616ef16020830185616e47565b616efe6040830184616949565b8181036060830152616f0f81616e69565b9050949350505050565b5f604082019050616f2c5f830185616b8e565b616f396020830184616949565b9392505050565b5f8060408385031215616f5657616f556158a1565b5b5f616f6385828601616971565b9250506020616f7485828601616971565b9150509250929050565b5f819050919050565b616f9081616f7e565b8114616f9a575f80fd5b50565b5f81519050616fab81616f87565b92915050565b5f60208284031215616fc657616fc56158a1565b5b5f616fd384828501616f9d565b91505092915050565b5f616fe68261602b565b9050919050565b616ff681616fdc565b82525050565b5f61701661701161700c84616465565b616001565b6158a9565b9050919050565b61702681616ffc565b82525050565b5f60608201905061703f5f830186616fed565b61704c602083018561701d565b6170596040830184616b8e565b949350505050565b5f61706b826158a9565b91505f820361707d5761707c6168bc565b5b600182039050919050565b5f81905092915050565b5f61709d5f83617088565b91506170a882616e66565b5f82019050919050565b5f6170bc82617092565b9150819050919050565b5f6040820190506170d95f830185616949565b6170e66020830184615dc5565b9392505050565b5f6060820190506171005f830186616a33565b61710d6020830185616a33565b61711a6040830184615dc5565b949350505050565b5f815190506171308161610a565b92915050565b5f61714082615b61565b9050919050565b61715081617136565b811461715a575f80fd5b50565b5f8151905061716b81617147565b92915050565b5f8151905061717f816164b5565b92915050565b5f6080828403121561719a576171996158dc565b5b6171a4608061594e565b90505f6171b384828501617122565b5f8301525060206171c68482850161715d565b60208301525060406171da84828501617171565b60408301525060606171ee84828501617171565b60608301525092915050565b5f6080828403121561720f5761720e6158a1565b5b5f61721c84828501617185565b91505092915050565b5f6080828403121561723a576172396158dc565b5b617244608061594e565b90505f61725384828501617122565b5f83015250602061726684828501616a94565b602083015250604061727a84828501617171565b604083015250606061728e84828501617171565b60608301525092915050565b5f608082840312156172af576172ae6158a1565b5b5f6172bc84828501617225565b91505092915050565b5f6060820190506172d85f830186616949565b6172e56020830185616949565b6172f26040830184615dc5565b949350505050565b5f60808201905061730d5f830187616949565b61731a6020830186616949565b818103604083015261732c8185615ef2565b905081810360608301526173408184615ef2565b905095945050505050565b5f67ffffffffffffffff821115617365576173646158f0565b5b602082029050602081019050919050565b5f6173886173838461734b565b61594e565b905080838252602082019050602084028301858111156173ab576173aa61599b565b5b835b818110156173d457806173c08882616f9d565b8452602084019350506020810190506173ad565b5050509392505050565b5f82601f8301126173f2576173f161596c565b5b8151617402848260208601617376565b91505092915050565b5f602082840312156174205761741f6158a1565b5b5f82015167ffffffffffffffff81111561743d5761743c6158a5565b5b617449848285016173de565b91505092915050565b5f61745c826158a9565b91507fffffffffffffffffffffffffffffffffffffffffffffffffffffffffffffffff820361748e5761748d6168bc565b5b600182019050919050565b5f6080820190506174ac5f830187615dc5565b6174b96020830186615dc5565b6174c66040830185615dc5565b6174d36060830184615dc5565b95945050505050565b5f80fd5b5f80fd5b5f80fd5b5f8083356001602003843603038112617504576175036174dc565b5b80840192508235915067ffffffffffffffff821115617526576175256174e0565b5b602083019250602082023603831315617542576175416174e4565b5b509250929050565b5f8083356001602003843603038112617566576175656174dc565b5b80840192508235915067ffffffffffffffff821115617588576175876174e0565b5b6020830192506020820236038313156175a4576175a36174e4565b5b509250929050565b5f6060820190506175bf5f830186615dc5565b6175cc6020830185615dc5565b6175d96040830184615dc5565b949350505050565b5f819050919050565b6175f3816175e1565b82525050565b5f60208201905061760c5f8301846175ea565b92915050565b5f60208284031215617627576176266158a1565b5b5f61763484828501615e03565b91505092915050565b5f81519050919050565b5f82825260208201905092915050565b5f819050602082019050919050565b61766f81616f7e565b82525050565b5f6176808383617666565b60208301905092915050565b5f602082019050919050565b5f6176a28261763d565b6176ac8185617647565b93506176b783617657565b805f5b838110156176e75781516176ce8882617675565b97506176d98361768c565b9250506001810190506176ba565b5085935050505092915050565b5f6060820190506177075f830186616949565b81810360208301526177198185617698565b90506177286040830184616949565b949350505050565b5f61774261773d84615970565b61594e565b905080838252602082019050602084028301858111156177655761776461599b565b5b835b8181101561778e578061777a8882616971565b845260208401935050602081019050617767565b5050509392505050565b5f82601f8301126177ac576177ab61596c565b5b81516177bc848260208601617730565b91505092915050565b5f805f606084860312156177dc576177db6158a1565b5b5f6177e986828701616f9d565b93505060206177fa86828701616f9d565b925050604084015167ffffffffffffffff81111561781b5761781a6158a5565b5b61782786828701617798565b9150509250925092565b5f6040820190506178445f830185616949565b6178516020830184616949565b9392505050565b5f617862826158a9565b915061786d836158a9565b925082820261787b816158a9565b91508282048414831517617892576178916168bc565b5b5092915050565b7f4e487b71000000000000000000000000000000000000000000000000000000005f52601260045260245ffd5b5f6178d0826158a9565b91506178db836158a9565b9250826178eb576178ea617899565b5b82820490509291505056fea264697066735822122015ff779b1f3e06be3f48b2be62e5423313c5f815fb176a2fd491fea47135ef0b64736f6c63430008140033",
			"opcodes": "PUSH2 0x140 PUSH1 0x40 MSTORE CALLVALUE DUP1 ISZERO PUSH3 0x11 JUMPI PUSH0 DUP1 REVERT JUMPDEST POP PUSH1 0x40 MLOAD PUSH3 0x7DB1 CODESIZE SUB DUP1 PUSH3 0x7DB1 DUP4 CODECOPY DUP2 DUP2 ADD PUSH1 0x40 MSTORE DUP2 ADD SWAP1 PUSH3 0x37 SWAP2 SWAP1 PUSH3 0x2FD JUMP JUMPDEST DUP6 PUSH20 0xFFFFFFFFFFFFFFFFFFFFFFFFFFFFFFFFFFFFFFFF AND PUSH1 0x80 DUP2 PUSH20 0xFFFFFFFFFFFFFFFFFFFFFFFFFFFFFFFFFFFFFFFF AND DUP2 MSTORE POP POP DUP2 PUSH20 0xFFFFFFFFFFFFFFFFFFFFFFFFFFFFFFFFFFFFFFFF AND PUSH1 0xA0 DUP2 PUSH20 0xFFFFFFFFFFFFFFFFFFFFFFFFFFFFFFFFFFFFFFFF AND DUP2 MSTORE POP POP DUP5 PUSH20 0xFFFFFFFFFFFFFFFFFFFFFFFFFFFFFFFFFFFFFFFF AND PUSH1 0xC0 DUP2 PUSH20 0xFFFFFFFFFFFFFFFFFFFFFFFFFFFFFFFFFFFFFFFF AND DUP2 MSTORE POP POP DUP4 PUSH20 0xFFFFFFFFFFFFFFFFFFFFFFFFFFFFFFFFFFFFFFFF AND PUSH1 0xE0 DUP2 PUSH20 0xFFFFFFFFFFFFFFFFFFFFFFFFFFFFFFFFFFFFFFFF AND DUP2 MSTORE POP POP DUP3 PUSH20 0xFFFFFFFFFFFFFFFFFFFFFFFFFFFFFFFFFFFFFFFF AND PUSH2 0x100 DUP2 PUSH20 0xFFFFFFFFFFFFFFFFFFFFFFFFFFFFFFFFFFFFFFFF AND DUP2 MSTORE POP POP DUP1 PUSH20 0xFFFFFFFFFFFFFFFFFFFFFFFFFFFFFFFFFFFFFFFF AND PUSH2 0x120 DUP2 PUSH20 0xFFFFFFFFFFFFFFFFFFFFFFFFFFFFFFFFFFFFFFFF AND DUP2 MSTORE POP POP POP POP POP POP POP POP PUSH3 0x395 JUMP JUMPDEST PUSH0 DUP1 REVERT JUMPDEST PUSH0 PUSH20 0xFFFFFFFFFFFFFFFFFFFFFFFFFFFFFFFFFFFFFFFF DUP3 AND SWAP1 POP SWAP2 SWAP1 POP JUMP JUMPDEST PUSH0 PUSH3 0x1AC DUP3 PUSH3 0x181 JUMP JUMPDEST SWAP1 POP SWAP2 SWAP1 POP JUMP JUMPDEST PUSH0 PUSH3 0x1BF DUP3 PUSH3 0x1A0 JUMP JUMPDEST SWAP1 POP SWAP2 SWAP1 POP JUMP JUMPDEST PUSH3 0x1D1 DUP2 PUSH3 0x1B3 JUMP JUMPDEST DUP2 EQ PUSH3 0x1DC JUMPI PUSH0 DUP1 REVERT JUMPDEST POP JUMP JUMPDEST PUSH0 DUP2 MLOAD SWAP1 POP PUSH3 0x1EF DUP2 PUSH3 0x1C6 JUMP JUMPDEST SWAP3 SWAP2 POP POP JUMP JUMPDEST PUSH0 PUSH3 0x201 DUP3 PUSH3 0x1A0 JUMP JUMPDEST SWAP1 POP SWAP2 SWAP1 POP JUMP JUMPDEST PUSH3 0x213 DUP2 PUSH3 0x1F5 JUMP JUMPDEST DUP2 EQ PUSH3 0x21E JUMPI PUSH0 DUP1 REVERT JUMPDEST POP JUMP JUMPDEST PUSH0 DUP2 MLOAD SWAP1 POP PUSH3 0x231 DUP2 PUSH3 0x208 JUMP JUMPDEST SWAP3 SWAP2 POP POP JUMP JUMPDEST PUSH0 PUSH3 0x243 DUP3 PUSH3 0x1A0 JUMP JUMPDEST SWAP1 POP SWAP2 SWAP1 POP JUMP JUMPDEST PUSH3 0x255 DUP2 PUSH3 0x237 JUMP JUMPDEST DUP2 EQ PUSH3 0x260 JUMPI PUSH0 DUP1 REVERT JUMPDEST POP JUMP JUMPDEST PUSH0 DUP2 MLOAD SWAP1 POP PUSH3 0x273 DUP2 PUSH3 0x24A JUMP JUMPDEST SWAP3 SWAP2 POP POP JUMP JUMPDEST PUSH0 PUSH3 0x285 DUP3 PUSH3 0x1A0 JUMP JUMPDEST SWAP1 POP SWAP2 SWAP1 POP JUMP JUMPDEST PUSH3 0x297 DUP2 PUSH3 0x279 JUMP JUMPDEST DUP2 EQ PUSH3 0x2A2 JUMPI PUSH0 DUP1 REVERT JUMPDEST POP JUMP JUMPDEST PUSH0 DUP2 MLOAD SWAP1 POP PUSH3 0x2B5 DUP2 PUSH3 0x28C JUMP JUMPDEST SWAP3 SWAP2 POP POP JUMP JUMPDEST PUSH0 PUSH3 0x2C7 DUP3 PUSH3 0x1A0 JUMP JUMPDEST SWAP1 POP SWAP2 SWAP1 POP JUMP JUMPDEST PUSH3 0x2D9 DUP2 PUSH3 0x2BB JUMP JUMPDEST DUP2 EQ PUSH3 0x2E4 JUMPI PUSH0 DUP1 REVERT JUMPDEST POP JUMP JUMPDEST PUSH0 DUP2 MLOAD SWAP1 POP PUSH3 0x2F7 DUP2 PUSH3 0x2CE JUMP JUMPDEST SWAP3 SWAP2 POP POP JUMP JUMPDEST PUSH0 DUP1 PUSH0 DUP1 PUSH0 DUP1 PUSH1 0xC0 DUP8 DUP10 SUB SLT ISZERO PUSH3 0x31A JUMPI PUSH3 0x319 PUSH3 0x17D JUMP JUMPDEST JUMPDEST PUSH0 PUSH3 0x329 DUP10 DUP3 DUP11 ADD PUSH3 0x1DF JUMP JUMPDEST SWAP7 POP POP PUSH1 0x20 PUSH3 0x33C DUP10 DUP3 DUP11 ADD PUSH3 0x221 JUMP JUMPDEST SWAP6 POP POP PUSH1 0x40 PUSH3 0x34F DUP10 DUP3 DUP11 ADD PUSH3 0x263 JUMP JUMPDEST SWAP5 POP POP PUSH1 0x60 PUSH3 0x362 DUP10 DUP3 DUP11 ADD PUSH3 0x2A5 JUMP JUMPDEST SWAP4 POP POP PUSH1 0x80 PUSH3 0x375 DUP10 DUP3 DUP11 ADD PUSH3 0x1DF JUMP JUMPDEST SWAP3 POP POP PUSH1 0xA0 PUSH3 0x388 DUP10 DUP3 DUP11 ADD PUSH3 0x2E7 JUMP JUMPDEST SWAP2 POP POP SWAP3 SWAP6 POP SWAP3 SWAP6 POP SWAP3 SWAP6 JUMP JUMPDEST PUSH1 0x80 MLOAD PUSH1 0xA0 MLOAD PUSH1 0xC0 MLOAD PUSH1 0xE0 MLOAD PUSH2 0x100 MLOAD PUSH2 0x120 MLOAD PUSH2 0x792C PUSH3 0x485 PUSH0 CODECOPY PUSH0 DUP2 DUP2 PUSH2 0x18B ADD MSTORE DUP2 DUP2 PUSH2 0x836 ADD MSTORE DUP2 DUP2 PUSH2 0x924 ADD MSTORE DUP2 DUP2 PUSH2 0xA17 ADD MSTORE DUP2 DUP2 PUSH2 0xBD6 ADD MSTORE DUP2 DUP2 PUSH2 0x1087 ADD MSTORE DUP2 DUP2 PUSH2 0x188D ADD MSTORE DUP2 DUP2 PUSH2 0x1929 ADD MSTORE DUP2 DUP2 PUSH2 0x19DC ADD MSTORE DUP2 DUP2 PUSH2 0x1BBF ADD MSTORE DUP2 DUP2 PUSH2 0x1C64 ADD MSTORE DUP2 DUP2 PUSH2 0x2125 ADD MSTORE DUP2 DUP2 PUSH2 0x25A7 ADD MSTORE DUP2 DUP2 PUSH2 0x29EA ADD MSTORE DUP2 DUP2 PUSH2 0x361D ADD MSTORE DUP2 DUP2 PUSH2 0x3C13 ADD MSTORE PUSH2 0x3C95 ADD MSTORE PUSH0 DUP2 DUP2 PUSH2 0x271A ADD MSTORE PUSH2 0x3968 ADD MSTORE PUSH0 DUP2 DUP2 PUSH2 0x18B4 ADD MSTORE PUSH2 0x48EF ADD MSTORE PUSH0 DUP2 DUP2 PUSH2 0x2741 ADD MSTORE PUSH2 0x534F ADD MSTORE PUSH0 DUP2 DUP2 PUSH2 0x157F ADD MSTORE PUSH2 0x49C2 ADD MSTORE PUSH0 DUP2 DUP2 PUSH2 0x15A5 ADD MSTORE DUP2 DUP2 PUSH2 0x17E3 ADD MSTORE DUP2 DUP2 PUSH2 0x1A79 ADD MSTORE DUP2 DUP2 PUSH2 0x2C7E ADD MSTORE PUSH2 0x4A69 ADD MSTORE PUSH2 0x792C PUSH0 RETURN INVALID PUSH1 0x80 PUSH1 0x40 MSTORE PUSH1 0x4 CALLDATASIZE LT PUSH2 0x184 JUMPI PUSH0 CALLDATALOAD PUSH1 0xE0 SHR DUP1 PUSH4 0x92FE8E70 GT PUSH2 0xD0 JUMPI DUP1 PUSH4 0xBA846523 GT PUSH2 0x89 JUMPI DUP1 PUSH4 0xD0E380F2 GT PUSH2 0x63 JUMPI DUP1 PUSH4 0xD0E380F2 EQ PUSH2 0x6A8 JUMPI DUP1 PUSH4 0xE038E6DC EQ PUSH2 0x6E4 JUMPI DUP1 PUSH4 0xE9361C08 EQ PUSH2 0x714 JUMPI DUP1 PUSH4 0xF96FE925 EQ PUSH2 0x73C JUMPI PUSH2 0x210 JUMP JUMPDEST DUP1 PUSH4 0xBA846523 EQ PUSH2 0x617 JUMPI DUP1 PUSH4 0xBB558A9F EQ PUSH2 0x641 JUMPI DUP1 PUSH4 0xC22159B6 EQ PUSH2 0x66B JUMPI PUSH2 0x210 JUMP JUMPDEST DUP1 PUSH4 0x92FE8E70 EQ PUSH2 0x4B2 JUMPI DUP1 PUSH4 0x964F987C EQ PUSH2 0x4EE JUMPI DUP1 PUSH4 0x9AB6156B EQ PUSH2 0x52C JUMPI DUP1 PUSH4 0xA0D376CF EQ PUSH2 0x568 JUMPI DUP1 PUSH4 0xA3C7271A EQ PUSH2 0x5A6 JUMPI DUP1 PUSH4 0xB066EA7C EQ PUSH2 0x5E7 JUMPI PUSH2 0x210 JUMP JUMPDEST DUP1 PUSH4 0x62C06767 GT PUSH2 0x13D JUMPI DUP1 PUSH4 0x71D1974A GT PUSH2 0x117 JUMPI DUP1 PUSH4 0x71D1974A EQ PUSH2 0x3EC JUMPI DUP1 PUSH4 0x81C2FDFB EQ PUSH2 0x416 JUMPI DUP1 PUSH4 0x88CC58E4 EQ PUSH2 0x453 JUMPI DUP1 PUSH4 0x8EFC2B2C EQ PUSH2 0x47D JUMPI PUSH2 0x210 JUMP JUMPDEST DUP1 PUSH4 0x62C06767 EQ PUSH2 0x35E JUMPI DUP1 PUSH4 0x659AC74B EQ PUSH2 0x386 JUMPI DUP1 PUSH4 0x6C9C0078 EQ PUSH2 0x3C2 JUMPI PUSH2 0x210 JUMP JUMPDEST DUP1 PUSH4 0x1A24F9A9 EQ PUSH2 0x214 JUMPI DUP1 PUSH4 0x2075AD22 EQ PUSH2 0x250 JUMPI DUP1 PUSH4 0x2A443FAE EQ PUSH2 0x280 JUMPI DUP1 PUSH4 0x3DC8F8EC EQ PUSH2 0x2BC JUMPI DUP1 PUSH4 0x4B801870 EQ PUSH2 0x2F8 JUMPI DUP1 PUSH4 0x5C5035CB EQ PUSH2 0x334 JUMPI PUSH2 0x210 JUMP JUMPDEST CALLDATASIZE PUSH2 0x210 JUMPI PUSH32 0x0 PUSH20 0xFFFFFFFFFFFFFFFFFFFFFFFFFFFFFFFFFFFFFFFF AND CALLER PUSH20 0xFFFFFFFFFFFFFFFFFFFFFFFFFFFFFFFFFFFFFFFF AND EQ PUSH2 0x20E JUMPI PUSH1 0x40 MLOAD PUSH32 0x6C8CB79300000000000000000000000000000000000000000000000000000000 DUP2 MSTORE PUSH1 0x4 ADD PUSH1 0x40 MLOAD DUP1 SWAP2 SUB SWAP1 REVERT JUMPDEST STOP JUMPDEST PUSH0 DUP1 REVERT JUMPDEST CALLVALUE DUP1 ISZERO PUSH2 0x21F JUMPI PUSH0 DUP1 REVERT JUMPDEST POP PUSH2 0x23A PUSH1 0x4 DUP1 CALLDATASIZE SUB DUP2 ADD SWAP1 PUSH2 0x235 SWAP2 SWAP1 PUSH2 0x5D32 JUMP JUMPDEST PUSH2 0x778 JUMP JUMPDEST PUSH1 0x40 MLOAD PUSH2 0x247 SWAP2 SWAP1 PUSH2 0x5DD4 JUMP JUMPDEST PUSH1 0x40 MLOAD DUP1 SWAP2 SUB SWAP1 RETURN JUMPDEST PUSH2 0x26A PUSH1 0x4 DUP1 CALLDATASIZE SUB DUP2 ADD SWAP1 PUSH2 0x265 SWAP2 SWAP1 PUSH2 0x5E17 JUMP JUMPDEST PUSH2 0xB17 JUMP JUMPDEST PUSH1 0x40 MLOAD PUSH2 0x277 SWAP2 SWAP1 PUSH2 0x5F4E JUMP JUMPDEST PUSH1 0x40 MLOAD DUP1 SWAP2 SUB SWAP1 RETURN JUMPDEST CALLVALUE DUP1 ISZERO PUSH2 0x28B JUMPI PUSH0 DUP1 REVERT JUMPDEST POP PUSH2 0x2A6 PUSH1 0x4 DUP1 CALLDATASIZE SUB DUP2 ADD SWAP1 PUSH2 0x2A1 SWAP2 SWAP1 PUSH2 0x5F6E JUMP JUMPDEST PUSH2 0xE45 JUMP JUMPDEST PUSH1 0x40 MLOAD PUSH2 0x2B3 SWAP2 SWAP1 PUSH2 0x5DD4 JUMP JUMPDEST PUSH1 0x40 MLOAD DUP1 SWAP2 SUB SWAP1 RETURN JUMPDEST CALLVALUE DUP1 ISZERO PUSH2 0x2C7 JUMPI PUSH0 DUP1 REVERT JUMPDEST POP PUSH2 0x2E2 PUSH1 0x4 DUP1 CALLDATASIZE SUB DUP2 ADD SWAP1 PUSH2 0x2DD SWAP2 SWAP1 PUSH2 0x5D32 JUMP JUMPDEST PUSH2 0xFC8 JUMP JUMPDEST PUSH1 0x40 MLOAD PUSH2 0x2EF SWAP2 SWAP1 PUSH2 0x5F4E JUMP JUMPDEST PUSH1 0x40 MLOAD DUP1 SWAP2 SUB SWAP1 RETURN JUMPDEST CALLVALUE DUP1 ISZERO PUSH2 0x303 JUMPI PUSH0 DUP1 REVERT JUMPDEST POP PUSH2 0x31E PUSH1 0x4 DUP1 CALLDATASIZE SUB DUP2 ADD SWAP1 PUSH2 0x319 SWAP2 SWAP1 PUSH2 0x5F6E JUMP JUMPDEST PUSH2 0x12D7 JUMP JUMPDEST PUSH1 0x40 MLOAD PUSH2 0x32B SWAP2 SWAP1 PUSH2 0x5DD4 JUMP JUMPDEST PUSH1 0x40 MLOAD DUP1 SWAP2 SUB SWAP1 RETURN JUMPDEST CALLVALUE DUP1 ISZERO PUSH2 0x33F JUMPI PUSH0 DUP1 REVERT JUMPDEST POP PUSH2 0x348 PUSH2 0x157C JUMP JUMPDEST PUSH1 0x40 MLOAD PUSH2 0x355 SWAP2 SWAP1 PUSH2 0x605C JUMP JUMPDEST PUSH1 0x40 MLOAD DUP1 SWAP2 SUB SWAP1 RETURN JUMPDEST CALLVALUE DUP1 ISZERO PUSH2 0x369 JUMPI PUSH0 DUP1 REVERT JUMPDEST POP PUSH2 0x384 PUSH1 0x4 DUP1 CALLDATASIZE SUB DUP2 ADD SWAP1 PUSH2 0x37F SWAP2 SWAP1 PUSH2 0x6075 JUMP JUMPDEST PUSH2 0x15A3 JUMP JUMPDEST STOP JUMPDEST CALLVALUE DUP1 ISZERO PUSH2 0x391 JUMPI PUSH0 DUP1 REVERT JUMPDEST POP PUSH2 0x3AC PUSH1 0x4 DUP1 CALLDATASIZE SUB DUP2 ADD SWAP1 PUSH2 0x3A7 SWAP2 SWAP1 PUSH2 0x6134 JUMP JUMPDEST PUSH2 0x17E0 JUMP JUMPDEST PUSH1 0x40 MLOAD PUSH2 0x3B9 SWAP2 SWAP1 PUSH2 0x61B8 JUMP JUMPDEST PUSH1 0x40 MLOAD DUP1 SWAP2 SUB SWAP1 RETURN JUMPDEST CALLVALUE DUP1 ISZERO PUSH2 0x3CD JUMPI PUSH0 DUP1 REVERT JUMPDEST POP PUSH2 0x3D6 PUSH2 0x188A JUMP JUMPDEST PUSH1 0x40 MLOAD PUSH2 0x3E3 SWAP2 SWAP1 PUSH2 0x61F1 JUMP JUMPDEST PUSH1 0x40 MLOAD DUP1 SWAP2 SUB SWAP1 RETURN JUMPDEST CALLVALUE DUP1 ISZERO PUSH2 0x3F7 JUMPI PUSH0 DUP1 REVERT JUMPDEST POP PUSH2 0x400 PUSH2 0x18B1 JUMP JUMPDEST PUSH1 0x40 MLOAD PUSH2 0x40D SWAP2 SWAP1 PUSH2 0x622A JUMP JUMPDEST PUSH1 0x40 MLOAD DUP1 SWAP2 SUB SWAP1 RETURN JUMPDEST CALLVALUE DUP1 ISZERO PUSH2 0x421 JUMPI PUSH0 DUP1 REVERT JUMPDEST POP PUSH2 0x43C PUSH1 0x4 DUP1 CALLDATASIZE SUB DUP2 ADD SWAP1 PUSH2 0x437 SWAP2 SWAP1 PUSH2 0x6243 JUMP JUMPDEST PUSH2 0x18D8 JUMP JUMPDEST PUSH1 0x40 MLOAD PUSH2 0x44A SWAP3 SWAP2 SWAP1 PUSH2 0x632C JUMP JUMPDEST PUSH1 0x40 MLOAD DUP1 SWAP2 SUB SWAP1 RETURN JUMPDEST CALLVALUE DUP1 ISZERO PUSH2 0x45E JUMPI PUSH0 DUP1 REVERT JUMPDEST POP PUSH2 0x467 PUSH2 0x1A76 JUMP JUMPDEST PUSH1 0x40 MLOAD PUSH2 0x474 SWAP2 SWAP1 PUSH2 0x605C JUMP JUMPDEST PUSH1 0x40 MLOAD DUP1 SWAP2 SUB SWAP1 RETURN JUMPDEST PUSH2 0x497 PUSH1 0x4 DUP1 CALLDATASIZE SUB DUP2 ADD SWAP1 PUSH2 0x492 SWAP2 SWAP1 PUSH2 0x6376 JUMP JUMPDEST PUSH2 0x1A9D JUMP JUMPDEST PUSH1 0x40 MLOAD PUSH2 0x4A9 SWAP7 SWAP6 SWAP5 SWAP4 SWAP3 SWAP2 SWAP1 PUSH2 0x63BD JUMP JUMPDEST PUSH1 0x40 MLOAD DUP1 SWAP2 SUB SWAP1 RETURN JUMPDEST CALLVALUE DUP1 ISZERO PUSH2 0x4BD JUMPI PUSH0 DUP1 REVERT JUMPDEST POP PUSH2 0x4D8 PUSH1 0x4 DUP1 CALLDATASIZE SUB DUP2 ADD SWAP1 PUSH2 0x4D3 SWAP2 SWAP1 PUSH2 0x5F6E JUMP JUMPDEST PUSH2 0x1DA4 JUMP JUMPDEST PUSH1 0x40 MLOAD PUSH2 0x4E5 SWAP2 SWAP1 PUSH2 0x5F4E JUMP JUMPDEST PUSH1 0x40 MLOAD DUP1 SWAP2 SUB SWAP1 RETURN JUMPDEST CALLVALUE DUP1 ISZERO PUSH2 0x4F9 JUMPI PUSH0 DUP1 REVERT JUMPDEST POP PUSH2 0x514 PUSH1 0x4 DUP1 CALLDATASIZE SUB DUP2 ADD SWAP1 PUSH2 0x50F SWAP2 SWAP1 PUSH2 0x64DF JUMP JUMPDEST PUSH2 0x1FD5 JUMP JUMPDEST PUSH1 0x40 MLOAD PUSH2 0x523 SWAP4 SWAP3 SWAP2 SWAP1 PUSH2 0x653E JUMP JUMPDEST PUSH1 0x40 MLOAD DUP1 SWAP2 SUB SWAP1 RETURN JUMPDEST CALLVALUE DUP1 ISZERO PUSH2 0x537 JUMPI PUSH0 DUP1 REVERT JUMPDEST POP PUSH2 0x552 PUSH1 0x4 DUP1 CALLDATASIZE SUB DUP2 ADD SWAP1 PUSH2 0x54D SWAP2 SWAP1 PUSH2 0x5D32 JUMP JUMPDEST PUSH2 0x2067 JUMP JUMPDEST PUSH1 0x40 MLOAD PUSH2 0x55F SWAP2 SWAP1 PUSH2 0x5DD4 JUMP JUMPDEST PUSH1 0x40 MLOAD DUP1 SWAP2 SUB SWAP1 RETURN JUMPDEST CALLVALUE DUP1 ISZERO PUSH2 0x573 JUMPI PUSH0 DUP1 REVERT JUMPDEST POP PUSH2 0x58E PUSH1 0x4 DUP1 CALLDATASIZE SUB DUP2 ADD SWAP1 PUSH2 0x589 SWAP2 SWAP1 PUSH2 0x64DF JUMP JUMPDEST PUSH2 0x22C8 JUMP JUMPDEST PUSH1 0x40 MLOAD PUSH2 0x59D SWAP4 SWAP3 SWAP2 SWAP1 PUSH2 0x653E JUMP JUMPDEST PUSH1 0x40 MLOAD DUP1 SWAP2 SUB SWAP1 RETURN JUMPDEST CALLVALUE DUP1 ISZERO PUSH2 0x5B1 JUMPI PUSH0 DUP1 REVERT JUMPDEST POP PUSH2 0x5CC PUSH1 0x4 DUP1 CALLDATASIZE SUB DUP2 ADD SWAP1 PUSH2 0x5C7 SWAP2 SWAP1 PUSH2 0x6376 JUMP JUMPDEST PUSH2 0x235A JUMP JUMPDEST PUSH1 0x40 MLOAD PUSH2 0x5DE SWAP7 SWAP6 SWAP5 SWAP4 SWAP3 SWAP2 SWAP1 PUSH2 0x63BD JUMP JUMPDEST PUSH1 0x40 MLOAD DUP1 SWAP2 SUB SWAP1 RETURN JUMPDEST PUSH2 0x601 PUSH1 0x4 DUP1 CALLDATASIZE SUB DUP2 ADD SWAP1 PUSH2 0x5FC SWAP2 SWAP1 PUSH2 0x5E17 JUMP JUMPDEST PUSH2 0x24E9 JUMP JUMPDEST PUSH1 0x40 MLOAD PUSH2 0x60E SWAP2 SWAP1 PUSH2 0x5DD4 JUMP JUMPDEST PUSH1 0x40 MLOAD DUP1 SWAP2 SUB SWAP1 RETURN JUMPDEST CALLVALUE DUP1 ISZERO PUSH2 0x622 JUMPI PUSH0 DUP1 REVERT JUMPDEST POP PUSH2 0x62B PUSH2 0x2717 JUMP JUMPDEST PUSH1 0x40 MLOAD PUSH2 0x638 SWAP2 SWAP1 PUSH2 0x6593 JUMP JUMPDEST PUSH1 0x40 MLOAD DUP1 SWAP2 SUB SWAP1 RETURN JUMPDEST CALLVALUE DUP1 ISZERO PUSH2 0x64C JUMPI PUSH0 DUP1 REVERT JUMPDEST POP PUSH2 0x655 PUSH2 0x273E JUMP JUMPDEST PUSH1 0x40 MLOAD PUSH2 0x662 SWAP2 SWAP1 PUSH2 0x65CC JUMP JUMPDEST PUSH1 0x40 MLOAD DUP1 SWAP2 SUB SWAP1 RETURN JUMPDEST CALLVALUE DUP1 ISZERO PUSH2 0x676 JUMPI PUSH0 DUP1 REVERT JUMPDEST POP PUSH2 0x691 PUSH1 0x4 DUP1 CALLDATASIZE SUB DUP2 ADD SWAP1 PUSH2 0x68C SWAP2 SWAP1 PUSH2 0x65E5 JUMP JUMPDEST PUSH2 0x2765 JUMP JUMPDEST PUSH1 0x40 MLOAD PUSH2 0x69F SWAP3 SWAP2 SWAP1 PUSH2 0x632C JUMP JUMPDEST PUSH1 0x40 MLOAD DUP1 SWAP2 SUB SWAP1 RETURN JUMPDEST CALLVALUE DUP1 ISZERO PUSH2 0x6B3 JUMPI PUSH0 DUP1 REVERT JUMPDEST POP PUSH2 0x6CE PUSH1 0x4 DUP1 CALLDATASIZE SUB DUP2 ADD SWAP1 PUSH2 0x6C9 SWAP2 SWAP1 PUSH2 0x66E1 JUMP JUMPDEST PUSH2 0x28AB JUMP JUMPDEST PUSH1 0x40 MLOAD PUSH2 0x6DB SWAP2 SWAP1 PUSH2 0x5DD4 JUMP JUMPDEST PUSH1 0x40 MLOAD DUP1 SWAP2 SUB SWAP1 RETURN JUMPDEST PUSH2 0x6FE PUSH1 0x4 DUP1 CALLDATASIZE SUB DUP2 ADD SWAP1 PUSH2 0x6F9 SWAP2 SWAP1 PUSH2 0x5E17 JUMP JUMPDEST PUSH2 0x292C JUMP JUMPDEST PUSH1 0x40 MLOAD PUSH2 0x70B SWAP2 SWAP1 PUSH2 0x5DD4 JUMP JUMPDEST PUSH1 0x40 MLOAD DUP1 SWAP2 SUB SWAP1 RETURN JUMPDEST CALLVALUE DUP1 ISZERO PUSH2 0x71F JUMPI PUSH0 DUP1 REVERT JUMPDEST POP PUSH2 0x73A PUSH1 0x4 DUP1 CALLDATASIZE SUB DUP2 ADD SWAP1 PUSH2 0x735 SWAP2 SWAP1 PUSH2 0x67B3 JUMP JUMPDEST PUSH2 0x2C7C JUMP JUMPDEST STOP JUMPDEST CALLVALUE DUP1 ISZERO PUSH2 0x747 JUMPI PUSH0 DUP1 REVERT JUMPDEST POP PUSH2 0x762 PUSH1 0x4 DUP1 CALLDATASIZE SUB DUP2 ADD SWAP1 PUSH2 0x75D SWAP2 SWAP1 PUSH2 0x6856 JUMP JUMPDEST PUSH2 0x2DE5 JUMP JUMPDEST PUSH1 0x40 MLOAD PUSH2 0x76F SWAP2 SWAP1 PUSH2 0x68A3 JUMP JUMPDEST PUSH1 0x40 MLOAD DUP1 SWAP2 SUB SWAP1 RETURN JUMPDEST PUSH0 DUP2 DUP1 TIMESTAMP GT ISZERO PUSH2 0x7C1 JUMPI DUP1 TIMESTAMP PUSH1 0x40 MLOAD PUSH32 0xDAE7CA7D00000000000000000000000000000000000000000000000000000000 DUP2 MSTORE PUSH1 0x4 ADD PUSH2 0x7B8 SWAP3 SWAP2 SWAP1 PUSH2 0x632C JUMP JUMPDEST PUSH1 0x40 MLOAD DUP1 SWAP2 SUB SWAP1 REVERT JUMPDEST DUP5 PUSH0 DUP2 PUSH0 ADD MLOAD MLOAD EQ DUP1 PUSH2 0x7DD JUMPI POP DUP1 PUSH0 ADD MLOAD MLOAD DUP2 PUSH1 0x20 ADD MLOAD MLOAD EQ ISZERO JUMPDEST DUP1 PUSH2 0x7FD JUMPI POP DUP1 PUSH1 0x40 ADD MLOAD MLOAD PUSH1 0x1 DUP3 PUSH0 ADD MLOAD MLOAD PUSH2 0x7FA SWAP2 SWAP1 PUSH2 0x68E9 JUMP JUMPDEST EQ ISZERO JUMPDEST ISZERO PUSH2 0x834 JUMPI PUSH1 0x40 MLOAD PUSH32 0xB91B4D4D00000000000000000000000000000000000000000000000000000000 DUP2 MSTORE PUSH1 0x4 ADD PUSH1 0x40 MLOAD DUP1 SWAP2 SUB SWAP1 REVERT JUMPDEST PUSH32 0x0 PUSH20 0xFFFFFFFFFFFFFFFFFFFFFFFFFFFFFFFFFFFFFFFF AND DUP7 PUSH1 0x40 ADD MLOAD DUP8 PUSH0 ADD MLOAD MLOAD DUP2 MLOAD DUP2 LT PUSH2 0x886 JUMPI PUSH2 0x885 PUSH2 0x691C JUMP JUMPDEST JUMPDEST PUSH1 0x20 MUL PUSH1 0x20 ADD ADD MLOAD PUSH20 0xFFFFFFFFFFFFFFFFFFFFFFFFFFFFFFFFFFFFFFFF AND EQ PUSH2 0x908 JUMPI DUP6 PUSH1 0x40 ADD MLOAD DUP7 PUSH0 ADD MLOAD MLOAD DUP2 MLOAD DUP2 LT PUSH2 0x8C4 JUMPI PUSH2 0x8C3 PUSH2 0x691C JUMP JUMPDEST JUMPDEST PUSH1 0x20 MUL PUSH1 0x20 ADD ADD MLOAD PUSH1 0x40 MLOAD PUSH32 0xCFEC0E0100000000000000000000000000000000000000000000000000000000 DUP2 MSTORE PUSH1 0x4 ADD PUSH2 0x8FF SWAP2 SWAP1 PUSH2 0x6958 JUMP JUMPDEST PUSH1 0x40 MLOAD DUP1 SWAP2 SUB SWAP1 REVERT JUMPDEST PUSH0 PUSH2 0x91F DUP8 PUSH0 ADD MLOAD DUP9 PUSH1 0x20 ADD MLOAD DUP10 PUSH1 0x40 ADD MLOAD PUSH2 0x2E66 JUMP JUMPDEST SWAP1 POP PUSH0 PUSH32 0x0 PUSH20 0xFFFFFFFFFFFFFFFFFFFFFFFFFFFFFFFFFFFFFFFF AND PUSH4 0x70A08231 ADDRESS PUSH1 0x40 MLOAD DUP3 PUSH4 0xFFFFFFFF AND PUSH1 0xE0 SHL DUP2 MSTORE PUSH1 0x4 ADD PUSH2 0x97B SWAP2 SWAP1 PUSH2 0x6958 JUMP JUMPDEST PUSH1 0x20 PUSH1 0x40 MLOAD DUP1 DUP4 SUB DUP2 DUP7 GAS STATICCALL ISZERO DUP1 ISZERO PUSH2 0x996 JUMPI RETURNDATASIZE PUSH0 DUP1 RETURNDATACOPY RETURNDATASIZE PUSH0 REVERT JUMPDEST POP POP POP POP PUSH1 0x40 MLOAD RETURNDATASIZE PUSH1 0x1F NOT PUSH1 0x1F DUP3 ADD AND DUP3 ADD DUP1 PUSH1 0x40 MSTORE POP DUP2 ADD SWAP1 PUSH2 0x9BA SWAP2 SWAP1 PUSH2 0x6985 JUMP JUMPDEST SWAP1 POP PUSH2 0xA00 DUP9 PUSH1 0x40 ADD MLOAD PUSH0 DUP2 MLOAD DUP2 LT PUSH2 0x9D6 JUMPI PUSH2 0x9D5 PUSH2 0x691C JUMP JUMPDEST JUMPDEST PUSH1 0x20 MUL PUSH1 0x20 ADD ADD MLOAD CALLER DUP5 PUSH0 DUP2 MLOAD DUP2 LT PUSH2 0x9F2 JUMPI PUSH2 0x9F1 PUSH2 0x691C JUMP JUMPDEST JUMPDEST PUSH1 0x20 MUL PUSH1 0x20 ADD ADD MLOAD DUP14 PUSH2 0x2FA3 JUMP JUMPDEST PUSH2 0xA14 DUP3 DUP10 PUSH1 0x20 ADD MLOAD DUP11 PUSH1 0x40 ADD MLOAD ADDRESS PUSH2 0x2FDF JUMP JUMPDEST DUP1 PUSH32 0x0 PUSH20 0xFFFFFFFFFFFFFFFFFFFFFFFFFFFFFFFFFFFFFFFF AND PUSH4 0x70A08231 ADDRESS PUSH1 0x40 MLOAD DUP3 PUSH4 0xFFFFFFFF AND PUSH1 0xE0 SHL DUP2 MSTORE PUSH1 0x4 ADD PUSH2 0xA6E SWAP2 SWAP1 PUSH2 0x6958 JUMP JUMPDEST PUSH1 0x20 PUSH1 0x40 MLOAD DUP1 DUP4 SUB DUP2 DUP7 GAS STATICCALL ISZERO DUP1 ISZERO PUSH2 0xA89 JUMPI RETURNDATASIZE PUSH0 DUP1 RETURNDATACOPY RETURNDATASIZE PUSH0 REVERT JUMPDEST POP POP POP POP PUSH1 0x40 MLOAD RETURNDATASIZE PUSH1 0x1F NOT PUSH1 0x1F DUP3 ADD AND DUP3 ADD DUP1 PUSH1 0x40 MSTORE POP DUP2 ADD SWAP1 PUSH2 0xAAD SWAP2 SWAP1 PUSH2 0x6985 JUMP JUMPDEST PUSH2 0xAB7 SWAP2 SWAP1 PUSH2 0x69B0 JUMP JUMPDEST SWAP5 POP DUP5 DUP10 GT ISZERO PUSH2 0xB00 JUMPI DUP9 DUP6 PUSH1 0x40 MLOAD PUSH32 0x4FEAC00C00000000000000000000000000000000000000000000000000000000 DUP2 MSTORE PUSH1 0x4 ADD PUSH2 0xAF7 SWAP3 SWAP2 SWAP1 PUSH2 0x632C JUMP JUMPDEST PUSH1 0x40 MLOAD DUP1 SWAP2 SUB SWAP1 REVERT JUMPDEST PUSH2 0xB0A DUP8 DUP7 PUSH2 0x3613 JUMP JUMPDEST POP POP POP POP SWAP6 SWAP5 POP POP POP POP POP JUMP JUMPDEST PUSH1 0x60 DUP2 DUP1 TIMESTAMP GT ISZERO PUSH2 0xB61 JUMPI DUP1 TIMESTAMP PUSH1 0x40 MLOAD PUSH32 0xDAE7CA7D00000000000000000000000000000000000000000000000000000000 DUP2 MSTORE PUSH1 0x4 ADD PUSH2 0xB58 SWAP3 SWAP2 SWAP1 PUSH2 0x632C JUMP JUMPDEST PUSH1 0x40 MLOAD DUP1 SWAP2 SUB SWAP1 REVERT JUMPDEST DUP5 PUSH0 DUP2 PUSH0 ADD MLOAD MLOAD EQ DUP1 PUSH2 0xB7D JUMPI POP DUP1 PUSH0 ADD MLOAD MLOAD DUP2 PUSH1 0x20 ADD MLOAD MLOAD EQ ISZERO JUMPDEST DUP1 PUSH2 0xB9D JUMPI POP DUP1 PUSH1 0x40 ADD MLOAD MLOAD PUSH1 0x1 DUP3 PUSH0 ADD MLOAD MLOAD PUSH2 0xB9A SWAP2 SWAP1 PUSH2 0x68E9 JUMP JUMPDEST EQ ISZERO JUMPDEST ISZERO PUSH2 0xBD4 JUMPI PUSH1 0x40 MLOAD PUSH32 0xB91B4D4D00000000000000000000000000000000000000000000000000000000 DUP2 MSTORE PUSH1 0x4 ADD PUSH1 0x40 MLOAD DUP1 SWAP2 SUB SWAP1 REVERT JUMPDEST PUSH32 0x0 PUSH20 0xFFFFFFFFFFFFFFFFFFFFFFFFFFFFFFFFFFFFFFFF AND DUP7 PUSH1 0x40 ADD MLOAD PUSH0 DUP2 MLOAD DUP2 LT PUSH2 0xC22 JUMPI PUSH2 0xC21 PUSH2 0x691C JUMP JUMPDEST JUMPDEST PUSH1 0x20 MUL PUSH1 0x20 ADD ADD MLOAD PUSH20 0xFFFFFFFFFFFFFFFFFFFFFFFFFFFFFFFFFFFFFFFF AND EQ PUSH2 0xCA0 JUMPI DUP6 PUSH1 0x40 ADD MLOAD PUSH0 DUP2 MLOAD DUP2 LT PUSH2 0xC5C JUMPI PUSH2 0xC5B PUSH2 0x691C JUMP JUMPDEST JUMPDEST PUSH1 0x20 MUL PUSH1 0x20 ADD ADD MLOAD PUSH1 0x40 MLOAD PUSH32 0xCFEC0E0100000000000000000000000000000000000000000000000000000000 DUP2 MSTORE PUSH1 0x4 ADD PUSH2 0xC97 SWAP2 SWAP1 PUSH2 0x6958 JUMP JUMPDEST PUSH1 0x40 MLOAD DUP1 SWAP2 SUB SWAP1 REVERT JUMPDEST PUSH0 PUSH2 0xCB7 DUP8 PUSH0 ADD MLOAD DUP9 PUSH1 0x20 ADD MLOAD DUP10 PUSH1 0x40 ADD MLOAD PUSH2 0x2E66 JUMP JUMPDEST SWAP1 POP PUSH2 0xCCD DUP8 PUSH1 0x20 ADD MLOAD DUP3 DUP10 PUSH1 0x40 ADD MLOAD DUP12 PUSH2 0x36B0 JUMP JUMPDEST SWAP4 POP CALLVALUE DUP5 PUSH0 DUP2 MLOAD DUP2 LT PUSH2 0xCE3 JUMPI PUSH2 0xCE2 PUSH2 0x691C JUMP JUMPDEST JUMPDEST PUSH1 0x20 MUL PUSH1 0x20 ADD ADD MLOAD GT ISZERO PUSH2 0xD4A JUMPI CALLVALUE DUP5 PUSH0 DUP2 MLOAD DUP2 LT PUSH2 0xD05 JUMPI PUSH2 0xD04 PUSH2 0x691C JUMP JUMPDEST JUMPDEST PUSH1 0x20 MUL PUSH1 0x20 ADD ADD MLOAD PUSH1 0x40 MLOAD PUSH32 0xCA7710C800000000000000000000000000000000000000000000000000000000 DUP2 MSTORE PUSH1 0x4 ADD PUSH2 0xD41 SWAP3 SWAP2 SWAP1 PUSH2 0x632C JUMP JUMPDEST PUSH1 0x40 MLOAD DUP1 SWAP2 SUB SWAP1 REVERT JUMPDEST PUSH2 0xD88 DUP2 PUSH0 DUP2 MLOAD DUP2 LT PUSH2 0xD60 JUMPI PUSH2 0xD5F PUSH2 0x691C JUMP JUMPDEST JUMPDEST PUSH1 0x20 MUL PUSH1 0x20 ADD ADD MLOAD DUP6 PUSH0 DUP2 MLOAD DUP2 LT PUSH2 0xD7B JUMPI PUSH2 0xD7A PUSH2 0x691C JUMP JUMPDEST JUMPDEST PUSH1 0x20 MUL PUSH1 0x20 ADD ADD MLOAD PUSH2 0x3C09 JUMP JUMPDEST PUSH0 PUSH2 0xD9E DUP3 DUP10 PUSH1 0x20 ADD MLOAD DUP11 PUSH1 0x40 ADD MLOAD DUP9 DUP12 PUSH2 0x3CDE JUMP JUMPDEST SWAP1 POP DUP9 DUP2 LT ISZERO PUSH2 0xDE7 JUMPI DUP9 DUP2 PUSH1 0x40 MLOAD PUSH32 0x4FEAC00C00000000000000000000000000000000000000000000000000000000 DUP2 MSTORE PUSH1 0x4 ADD PUSH2 0xDDE SWAP3 SWAP2 SWAP1 PUSH2 0x632C JUMP JUMPDEST PUSH1 0x40 MLOAD DUP1 SWAP2 SUB SWAP1 REVERT JUMPDEST DUP5 PUSH0 DUP2 MLOAD DUP2 LT PUSH2 0xDFA JUMPI PUSH2 0xDF9 PUSH2 0x691C JUMP JUMPDEST JUMPDEST PUSH1 0x20 MUL PUSH1 0x20 ADD ADD MLOAD CALLVALUE GT ISZERO PUSH2 0xE39 JUMPI PUSH2 0xE38 CALLER DUP7 PUSH0 DUP2 MLOAD DUP2 LT PUSH2 0xE20 JUMPI PUSH2 0xE1F PUSH2 0x691C JUMP JUMPDEST JUMPDEST PUSH1 0x20 MUL PUSH1 0x20 ADD ADD MLOAD CALLVALUE PUSH2 0xE33 SWAP2 SWAP1 PUSH2 0x69B0 JUMP JUMPDEST PUSH2 0x41D9 JUMP JUMPDEST JUMPDEST POP POP POP POP SWAP5 SWAP4 POP POP POP POP JUMP JUMPDEST PUSH0 DUP2 DUP1 TIMESTAMP GT ISZERO PUSH2 0xE8E JUMPI DUP1 TIMESTAMP PUSH1 0x40 MLOAD PUSH32 0xDAE7CA7D00000000000000000000000000000000000000000000000000000000 DUP2 MSTORE PUSH1 0x4 ADD PUSH2 0xE85 SWAP3 SWAP2 SWAP1 PUSH2 0x632C JUMP JUMPDEST PUSH1 0x40 MLOAD DUP1 SWAP2 SUB SWAP1 REVERT JUMPDEST DUP5 PUSH0 DUP2 PUSH0 ADD MLOAD MLOAD EQ DUP1 PUSH2 0xEAA JUMPI POP DUP1 PUSH0 ADD MLOAD MLOAD DUP2 PUSH1 0x20 ADD MLOAD MLOAD EQ ISZERO JUMPDEST DUP1 PUSH2 0xECA JUMPI POP DUP1 PUSH1 0x40 ADD MLOAD MLOAD PUSH1 0x1 DUP3 PUSH0 ADD MLOAD MLOAD PUSH2 0xEC7 SWAP2 SWAP1 PUSH2 0x68E9 JUMP JUMPDEST EQ ISZERO JUMPDEST ISZERO PUSH2 0xF01 JUMPI PUSH1 0x40 MLOAD PUSH32 0xB91B4D4D00000000000000000000000000000000000000000000000000000000 DUP2 MSTORE PUSH1 0x4 ADD PUSH1 0x40 MLOAD DUP1 SWAP2 SUB SWAP1 REVERT JUMPDEST PUSH0 PUSH2 0xF18 DUP8 PUSH0 ADD MLOAD DUP9 PUSH1 0x20 ADD MLOAD DUP10 PUSH1 0x40 ADD MLOAD PUSH2 0x2E66 JUMP JUMPDEST SWAP1 POP PUSH2 0xF5E DUP8 PUSH1 0x40 ADD MLOAD PUSH0 DUP2 MLOAD DUP2 LT PUSH2 0xF34 JUMPI PUSH2 0xF33 PUSH2 0x691C JUMP JUMPDEST JUMPDEST PUSH1 0x20 MUL PUSH1 0x20 ADD ADD MLOAD CALLER DUP4 PUSH0 DUP2 MLOAD DUP2 LT PUSH2 0xF50 JUMPI PUSH2 0xF4F PUSH2 0x691C JUMP JUMPDEST JUMPDEST PUSH1 0x20 MUL PUSH1 0x20 ADD ADD MLOAD DUP13 PUSH2 0x2FA3 JUMP JUMPDEST PUSH2 0xF73 DUP10 DUP3 DUP10 PUSH1 0x20 ADD MLOAD DUP11 PUSH1 0x40 ADD MLOAD DUP11 PUSH2 0x4293 JUMP JUMPDEST SWAP4 POP DUP4 DUP9 GT ISZERO PUSH2 0xFBC JUMPI DUP8 DUP5 PUSH1 0x40 MLOAD PUSH32 0x4FEAC00C00000000000000000000000000000000000000000000000000000000 DUP2 MSTORE PUSH1 0x4 ADD PUSH2 0xFB3 SWAP3 SWAP2 SWAP1 PUSH2 0x632C JUMP JUMPDEST PUSH1 0x40 MLOAD DUP1 SWAP2 SUB SWAP1 REVERT JUMPDEST POP POP POP SWAP6 SWAP5 POP POP POP POP POP JUMP JUMPDEST PUSH1 0x60 DUP2 DUP1 TIMESTAMP GT ISZERO PUSH2 0x1012 JUMPI DUP1 TIMESTAMP PUSH1 0x40 MLOAD PUSH32 0xDAE7CA7D00000000000000000000000000000000000000000000000000000000 DUP2 MSTORE PUSH1 0x4 ADD PUSH2 0x1009 SWAP3 SWAP2 SWAP1 PUSH2 0x632C JUMP JUMPDEST PUSH1 0x40 MLOAD DUP1 SWAP2 SUB SWAP1 REVERT JUMPDEST DUP5 PUSH0 DUP2 PUSH0 ADD MLOAD MLOAD EQ DUP1 PUSH2 0x102E JUMPI POP DUP1 PUSH0 ADD MLOAD MLOAD DUP2 PUSH1 0x20 ADD MLOAD MLOAD EQ ISZERO JUMPDEST DUP1 PUSH2 0x104E JUMPI POP DUP1 PUSH1 0x40 ADD MLOAD MLOAD PUSH1 0x1 DUP3 PUSH0 ADD MLOAD MLOAD PUSH2 0x104B SWAP2 SWAP1 PUSH2 0x68E9 JUMP JUMPDEST EQ ISZERO JUMPDEST ISZERO PUSH2 0x1085 JUMPI PUSH1 0x40 MLOAD PUSH32 0xB91B4D4D00000000000000000000000000000000000000000000000000000000 DUP2 MSTORE PUSH1 0x4 ADD PUSH1 0x40 MLOAD DUP1 SWAP2 SUB SWAP1 REVERT JUMPDEST PUSH32 0x0 PUSH20 0xFFFFFFFFFFFFFFFFFFFFFFFFFFFFFFFFFFFFFFFF AND DUP7 PUSH1 0x40 ADD MLOAD DUP8 PUSH0 ADD MLOAD MLOAD DUP2 MLOAD DUP2 LT PUSH2 0x10D7 JUMPI PUSH2 0x10D6 PUSH2 0x691C JUMP JUMPDEST JUMPDEST PUSH1 0x20 MUL PUSH1 0x20 ADD ADD MLOAD PUSH20 0xFFFFFFFFFFFFFFFFFFFFFFFFFFFFFFFFFFFFFFFF AND EQ PUSH2 0x1159 JUMPI DUP6 PUSH1 0x40 ADD MLOAD DUP7 PUSH0 ADD MLOAD MLOAD DUP2 MLOAD DUP2 LT PUSH2 0x1115 JUMPI PUSH2 0x1114 PUSH2 0x691C JUMP JUMPDEST JUMPDEST PUSH1 0x20 MUL PUSH1 0x20 ADD ADD MLOAD PUSH1 0x40 MLOAD PUSH32 0xCFEC0E0100000000000000000000000000000000000000000000000000000000 DUP2 MSTORE PUSH1 0x4 ADD PUSH2 0x1150 SWAP2 SWAP1 PUSH2 0x6958 JUMP JUMPDEST PUSH1 0x40 MLOAD DUP1 SWAP2 SUB SWAP1 REVERT JUMPDEST PUSH0 PUSH2 0x1170 DUP8 PUSH0 ADD MLOAD DUP9 PUSH1 0x20 ADD MLOAD DUP10 PUSH1 0x40 ADD MLOAD PUSH2 0x2E66 JUMP JUMPDEST SWAP1 POP PUSH2 0x1186 DUP8 PUSH1 0x20 ADD MLOAD DUP3 DUP10 PUSH1 0x40 ADD MLOAD DUP13 PUSH2 0x36B0 JUMP JUMPDEST SWAP4 POP DUP8 DUP5 PUSH0 DUP2 MLOAD DUP2 LT PUSH2 0x119C JUMPI PUSH2 0x119B PUSH2 0x691C JUMP JUMPDEST JUMPDEST PUSH1 0x20 MUL PUSH1 0x20 ADD ADD MLOAD GT ISZERO PUSH2 0x1203 JUMPI DUP8 DUP5 PUSH0 DUP2 MLOAD DUP2 LT PUSH2 0x11BE JUMPI PUSH2 0x11BD PUSH2 0x691C JUMP JUMPDEST JUMPDEST PUSH1 0x20 MUL PUSH1 0x20 ADD ADD MLOAD PUSH1 0x40 MLOAD PUSH32 0xCA7710C800000000000000000000000000000000000000000000000000000000 DUP2 MSTORE PUSH1 0x4 ADD PUSH2 0x11FA SWAP3 SWAP2 SWAP1 PUSH2 0x632C JUMP JUMPDEST PUSH1 0x40 MLOAD DUP1 SWAP2 SUB SWAP1 REVERT JUMPDEST PUSH2 0x1261 DUP8 PUSH1 0x40 ADD MLOAD PUSH0 DUP2 MLOAD DUP2 LT PUSH2 0x121D JUMPI PUSH2 0x121C PUSH2 0x691C JUMP JUMPDEST JUMPDEST PUSH1 0x20 MUL PUSH1 0x20 ADD ADD MLOAD CALLER DUP4 PUSH0 DUP2 MLOAD DUP2 LT PUSH2 0x1239 JUMPI PUSH2 0x1238 PUSH2 0x691C JUMP JUMPDEST JUMPDEST PUSH1 0x20 MUL PUSH1 0x20 ADD ADD MLOAD DUP8 PUSH0 DUP2 MLOAD DUP2 LT PUSH2 0x1254 JUMPI PUSH2 0x1253 PUSH2 0x691C JUMP JUMPDEST JUMPDEST PUSH1 0x20 MUL PUSH1 0x20 ADD ADD MLOAD PUSH2 0x2FA3 JUMP JUMPDEST PUSH0 PUSH2 0x1277 DUP3 DUP10 PUSH1 0x20 ADD MLOAD DUP11 PUSH1 0x40 ADD MLOAD DUP9 ADDRESS PUSH2 0x3CDE JUMP JUMPDEST SWAP1 POP DUP10 DUP2 LT ISZERO PUSH2 0x12C0 JUMPI DUP10 DUP2 PUSH1 0x40 MLOAD PUSH32 0x4FEAC00C00000000000000000000000000000000000000000000000000000000 DUP2 MSTORE PUSH1 0x4 ADD PUSH2 0x12B7 SWAP3 SWAP2 SWAP1 PUSH2 0x632C JUMP JUMPDEST PUSH1 0x40 MLOAD DUP1 SWAP2 SUB SWAP1 REVERT JUMPDEST PUSH2 0x12CA DUP8 DUP3 PUSH2 0x3613 JUMP JUMPDEST POP POP POP POP SWAP6 SWAP5 POP POP POP POP POP JUMP JUMPDEST PUSH0 DUP2 DUP1 TIMESTAMP GT ISZERO PUSH2 0x1320 JUMPI DUP1 TIMESTAMP PUSH1 0x40 MLOAD PUSH32 0xDAE7CA7D00000000000000000000000000000000000000000000000000000000 DUP2 MSTORE PUSH1 0x4 ADD PUSH2 0x1317 SWAP3 SWAP2 SWAP1 PUSH2 0x632C JUMP JUMPDEST PUSH1 0x40 MLOAD DUP1 SWAP2 SUB SWAP1 REVERT JUMPDEST DUP5 PUSH0 DUP2 PUSH0 ADD MLOAD MLOAD EQ DUP1 PUSH2 0x133C JUMPI POP DUP1 PUSH0 ADD MLOAD MLOAD DUP2 PUSH1 0x20 ADD MLOAD MLOAD EQ ISZERO JUMPDEST DUP1 PUSH2 0x135C JUMPI POP DUP1 PUSH1 0x40 ADD MLOAD MLOAD PUSH1 0x1 DUP3 PUSH0 ADD MLOAD MLOAD PUSH2 0x1359 SWAP2 SWAP1 PUSH2 0x68E9 JUMP JUMPDEST EQ ISZERO JUMPDEST ISZERO PUSH2 0x1393 JUMPI PUSH1 0x40 MLOAD PUSH32 0xB91B4D4D00000000000000000000000000000000000000000000000000000000 DUP2 MSTORE PUSH1 0x4 ADD PUSH1 0x40 MLOAD DUP1 SWAP2 SUB SWAP1 REVERT JUMPDEST PUSH0 PUSH2 0x13AA DUP8 PUSH0 ADD MLOAD DUP9 PUSH1 0x20 ADD MLOAD DUP10 PUSH1 0x40 ADD MLOAD PUSH2 0x2E66 JUMP JUMPDEST SWAP1 POP PUSH0 DUP8 PUSH1 0x40 ADD MLOAD DUP3 MLOAD DUP2 MLOAD DUP2 LT PUSH2 0x13C5 JUMPI PUSH2 0x13C4 PUSH2 0x691C JUMP JUMPDEST JUMPDEST PUSH1 0x20 MUL PUSH1 0x20 ADD ADD MLOAD SWAP1 POP PUSH0 DUP2 PUSH20 0xFFFFFFFFFFFFFFFFFFFFFFFFFFFFFFFFFFFFFFFF AND PUSH4 0x70A08231 DUP10 PUSH1 0x40 MLOAD DUP3 PUSH4 0xFFFFFFFF AND PUSH1 0xE0 SHL DUP2 MSTORE PUSH1 0x4 ADD PUSH2 0x1409 SWAP2 SWAP1 PUSH2 0x6958 JUMP JUMPDEST PUSH1 0x20 PUSH1 0x40 MLOAD DUP1 DUP4 SUB DUP2 DUP7 GAS STATICCALL ISZERO DUP1 ISZERO PUSH2 0x1424 JUMPI RETURNDATASIZE PUSH0 DUP1 RETURNDATACOPY RETURNDATASIZE PUSH0 REVERT JUMPDEST POP POP POP POP PUSH1 0x40 MLOAD RETURNDATASIZE PUSH1 0x1F NOT PUSH1 0x1F DUP3 ADD AND DUP3 ADD DUP1 PUSH1 0x40 MSTORE POP DUP2 ADD SWAP1 PUSH2 0x1448 SWAP2 SWAP1 PUSH2 0x6985 JUMP JUMPDEST SWAP1 POP PUSH2 0x148E DUP10 PUSH1 0x40 ADD MLOAD PUSH0 DUP2 MLOAD DUP2 LT PUSH2 0x1464 JUMPI PUSH2 0x1463 PUSH2 0x691C JUMP JUMPDEST JUMPDEST PUSH1 0x20 MUL PUSH1 0x20 ADD ADD MLOAD CALLER DUP6 PUSH0 DUP2 MLOAD DUP2 LT PUSH2 0x1480 JUMPI PUSH2 0x147F PUSH2 0x691C JUMP JUMPDEST JUMPDEST PUSH1 0x20 MUL PUSH1 0x20 ADD ADD MLOAD DUP15 PUSH2 0x2FA3 JUMP JUMPDEST PUSH2 0x14A2 DUP4 DUP11 PUSH1 0x20 ADD MLOAD DUP12 PUSH1 0x40 ADD MLOAD DUP12 PUSH2 0x2FDF JUMP JUMPDEST DUP1 DUP3 PUSH20 0xFFFFFFFFFFFFFFFFFFFFFFFFFFFFFFFFFFFFFFFF AND PUSH4 0x70A08231 DUP11 PUSH1 0x40 MLOAD DUP3 PUSH4 0xFFFFFFFF AND PUSH1 0xE0 SHL DUP2 MSTORE PUSH1 0x4 ADD PUSH2 0x14DC SWAP2 SWAP1 PUSH2 0x6958 JUMP JUMPDEST PUSH1 0x20 PUSH1 0x40 MLOAD DUP1 DUP4 SUB DUP2 DUP7 GAS STATICCALL ISZERO DUP1 ISZERO PUSH2 0x14F7 JUMPI RETURNDATASIZE PUSH0 DUP1 RETURNDATACOPY RETURNDATASIZE PUSH0 REVERT JUMPDEST POP POP POP POP PUSH1 0x40 MLOAD RETURNDATASIZE PUSH1 0x1F NOT PUSH1 0x1F DUP3 ADD AND DUP3 ADD DUP1 PUSH1 0x40 MSTORE POP DUP2 ADD SWAP1 PUSH2 0x151B SWAP2 SWAP1 PUSH2 0x6985 JUMP JUMPDEST PUSH2 0x1525 SWAP2 SWAP1 PUSH2 0x69B0 JUMP JUMPDEST SWAP6 POP DUP6 DUP11 GT ISZERO PUSH2 0x156E JUMPI DUP10 DUP7 PUSH1 0x40 MLOAD PUSH32 0x4FEAC00C00000000000000000000000000000000000000000000000000000000 DUP2 MSTORE PUSH1 0x4 ADD PUSH2 0x1565 SWAP3 SWAP2 SWAP1 PUSH2 0x632C JUMP JUMPDEST PUSH1 0x40 MLOAD DUP1 SWAP2 SUB SWAP1 REVERT JUMPDEST POP POP POP POP POP SWAP6 SWAP5 POP POP POP POP POP JUMP JUMPDEST PUSH0 PUSH32 0x0 SWAP1 POP SWAP1 JUMP JUMPDEST PUSH32 0x0 PUSH20 0xFFFFFFFFFFFFFFFFFFFFFFFFFFFFFFFFFFFFFFFF AND PUSH4 0x8DA5CB5B PUSH1 0x40 MLOAD DUP2 PUSH4 0xFFFFFFFF AND PUSH1 0xE0 SHL DUP2 MSTORE PUSH1 0x4 ADD PUSH1 0x20 PUSH1 0x40 MLOAD DUP1 DUP4 SUB DUP2 DUP7 GAS STATICCALL ISZERO DUP1 ISZERO PUSH2 0x160C JUMPI RETURNDATASIZE PUSH0 DUP1 RETURNDATACOPY RETURNDATASIZE PUSH0 REVERT JUMPDEST POP POP POP POP PUSH1 0x40 MLOAD RETURNDATASIZE PUSH1 0x1F NOT PUSH1 0x1F DUP3 ADD AND DUP3 ADD DUP1 PUSH1 0x40 MSTORE POP DUP2 ADD SWAP1 PUSH2 0x1630 SWAP2 SWAP1 PUSH2 0x69F7 JUMP JUMPDEST PUSH20 0xFFFFFFFFFFFFFFFFFFFFFFFFFFFFFFFFFFFFFFFF AND CALLER PUSH20 0xFFFFFFFFFFFFFFFFFFFFFFFFFFFFFFFFFFFFFFFF AND EQ PUSH2 0x1694 JUMPI PUSH1 0x40 MLOAD PUSH32 0xBB2A2B7200000000000000000000000000000000000000000000000000000000 DUP2 MSTORE PUSH1 0x4 ADD PUSH1 0x40 MLOAD DUP1 SWAP2 SUB SWAP1 REVERT JUMPDEST PUSH0 PUSH20 0xFFFFFFFFFFFFFFFFFFFFFFFFFFFFFFFFFFFFFFFF AND DUP4 PUSH20 0xFFFFFFFFFFFFFFFFFFFFFFFFFFFFFFFFFFFFFFFF AND SUB PUSH2 0x1707 JUMPI PUSH32 0xFFFFFFFFFFFFFFFFFFFFFFFFFFFFFFFFFFFFFFFFFFFFFFFFFFFFFFFFFFFFFFFF DUP2 EQ PUSH2 0x16F4 JUMPI DUP1 PUSH2 0x16F6 JUMP JUMPDEST SELFBALANCE JUMPDEST SWAP1 POP PUSH2 0x1702 DUP3 DUP3 PUSH2 0x41D9 JUMP JUMPDEST PUSH2 0x17DB JUMP JUMPDEST PUSH32 0xFFFFFFFFFFFFFFFFFFFFFFFFFFFFFFFFFFFFFFFFFFFFFFFFFFFFFFFFFFFFFFFF DUP2 EQ PUSH2 0x1734 JUMPI DUP1 PUSH2 0x17AD JUMP JUMPDEST DUP3 PUSH20 0xFFFFFFFFFFFFFFFFFFFFFFFFFFFFFFFFFFFFFFFF AND PUSH4 0x70A08231 ADDRESS PUSH1 0x40 MLOAD DUP3 PUSH4 0xFFFFFFFF AND PUSH1 0xE0 SHL DUP2 MSTORE PUSH1 0x4 ADD PUSH2 0x176D SWAP2 SWAP1 PUSH2 0x6958 JUMP JUMPDEST PUSH1 0x20 PUSH1 0x40 MLOAD DUP1 DUP4 SUB DUP2 DUP7 GAS STATICCALL ISZERO DUP1 ISZERO PUSH2 0x1788 JUMPI RETURNDATASIZE PUSH0 DUP1 RETURNDATACOPY RETURNDATASIZE PUSH0 REVERT JUMPDEST POP POP POP POP PUSH1 0x40 MLOAD RETURNDATASIZE PUSH1 0x1F NOT PUSH1 0x1F DUP3 ADD AND DUP3 ADD DUP1 PUSH1 0x40 MSTORE POP DUP2 ADD SWAP1 PUSH2 0x17AC SWAP2 SWAP1 PUSH2 0x6985 JUMP JUMPDEST JUMPDEST SWAP1 POP PUSH2 0x17DA DUP3 DUP3 DUP6 PUSH20 0xFFFFFFFFFFFFFFFFFFFFFFFFFFFFFFFFFFFFFFFF AND PUSH2 0x4835 SWAP1 SWAP3 SWAP2 SWAP1 PUSH4 0xFFFFFFFF AND JUMP JUMPDEST JUMPDEST POP POP POP JUMP JUMPDEST PUSH0 PUSH32 0x0 PUSH20 0xFFFFFFFFFFFFFFFFFFFFFFFFFFFFFFFFFFFFFFFF AND PUSH4 0x659AC74B DUP7 DUP7 DUP7 DUP7 PUSH1 0x40 MLOAD DUP6 PUSH4 0xFFFFFFFF AND PUSH1 0xE0 SHL DUP2 MSTORE PUSH1 0x4 ADD PUSH2 0x1840 SWAP5 SWAP4 SWAP3 SWAP2 SWAP1 PUSH2 0x6A51 JUMP JUMPDEST PUSH1 0x20 PUSH1 0x40 MLOAD DUP1 DUP4 SUB DUP2 PUSH0 DUP8 GAS CALL ISZERO DUP1 ISZERO PUSH2 0x185C JUMPI RETURNDATASIZE PUSH0 DUP1 RETURNDATACOPY RETURNDATASIZE PUSH0 REVERT JUMPDEST POP POP POP POP PUSH1 0x40 MLOAD RETURNDATASIZE PUSH1 0x1F NOT PUSH1 0x1F DUP3 ADD AND DUP3 ADD DUP1 PUSH1 0x40 MSTORE POP DUP2 ADD SWAP1 PUSH2 0x1880 SWAP2 SWAP1 PUSH2 0x6AA8 JUMP JUMPDEST SWAP1 POP SWAP5 SWAP4 POP POP POP POP JUMP JUMPDEST PUSH0 PUSH32 0x0 SWAP1 POP SWAP1 JUMP JUMPDEST PUSH0 PUSH32 0x0 SWAP1 POP SWAP1 JUMP JUMPDEST PUSH0 DUP1 DUP3 DUP1 TIMESTAMP GT ISZERO PUSH2 0x1922 JUMPI DUP1 TIMESTAMP PUSH1 0x40 MLOAD PUSH32 0xDAE7CA7D00000000000000000000000000000000000000000000000000000000 DUP2 MSTORE PUSH1 0x4 ADD PUSH2 0x1919 SWAP3 SWAP2 SWAP1 PUSH2 0x632C JUMP JUMPDEST PUSH1 0x40 MLOAD DUP1 SWAP2 SUB SWAP1 REVERT JUMPDEST PUSH0 PUSH2 0x1954 DUP13 PUSH32 0x0 DUP14 PUSH2 0xFFFF AND PUSH1 0x3 PUSH2 0x48C0 JUMP JUMPDEST SWAP1 POP PUSH0 DUP2 PUSH20 0xFFFFFFFFFFFFFFFFFFFFFFFFFFFFFFFFFFFFFFFF AND PUSH4 0xDA10610C PUSH1 0x40 MLOAD DUP2 PUSH4 0xFFFFFFFF AND PUSH1 0xE0 SHL DUP2 MSTORE PUSH1 0x4 ADD PUSH1 0x20 PUSH1 0x40 MLOAD DUP1 DUP4 SUB DUP2 DUP7 GAS STATICCALL ISZERO DUP1 ISZERO PUSH2 0x19A0 JUMPI RETURNDATASIZE PUSH0 DUP1 RETURNDATACOPY RETURNDATASIZE PUSH0 REVERT JUMPDEST POP POP POP POP PUSH1 0x40 MLOAD RETURNDATASIZE PUSH1 0x1F NOT PUSH1 0x1F DUP3 ADD AND DUP3 ADD DUP1 PUSH1 0x40 MSTORE POP DUP2 ADD SWAP1 PUSH2 0x19C4 SWAP2 SWAP1 PUSH2 0x6AE7 JUMP JUMPDEST PUSH20 0xFFFFFFFFFFFFFFFFFFFFFFFFFFFFFFFFFFFFFFFF AND PUSH32 0x0 PUSH20 0xFFFFFFFFFFFFFFFFFFFFFFFFFFFFFFFFFFFFFFFF AND EQ SWAP1 POP DUP1 PUSH2 0x1A24 JUMPI DUP10 DUP12 DUP1 SWAP12 POP DUP2 SWAP13 POP POP POP JUMPDEST PUSH0 DUP1 PUSH2 0x1A34 DUP5 DUP15 DUP15 DUP15 DUP15 ADDRESS PUSH2 0x4B87 JUMP JUMPDEST SWAP2 POP SWAP2 POP DUP3 PUSH2 0x1A44 JUMPI DUP1 DUP3 PUSH2 0x1A47 JUMP JUMPDEST DUP2 DUP2 JUMPDEST DUP1 SWAP8 POP DUP2 SWAP9 POP POP POP POP POP POP PUSH2 0x1A5D DUP13 DUP8 DUP7 PUSH2 0x4D10 JUMP JUMPDEST PUSH2 0x1A67 DUP7 DUP5 PUSH2 0x3613 JUMP JUMPDEST POP POP SWAP9 POP SWAP9 SWAP7 POP POP POP POP POP POP POP JUMP JUMPDEST PUSH0 PUSH32 0x0 SWAP1 POP SWAP1 JUMP JUMPDEST PUSH0 DUP1 PUSH0 DUP1 PUSH1 0x60 DUP1 PUSH0 PUSH2 0x1AD9 DUP9 PUSH0 ADD PUSH1 0x20 DUP2 ADD SWAP1 PUSH2 0x1ABA SWAP2 SWAP1 PUSH2 0x6B12 JUMP JUMPDEST DUP10 PUSH1 0x20 ADD PUSH1 0x20 DUP2 ADD SWAP1 PUSH2 0x1ACD SWAP2 SWAP1 PUSH2 0x6B12 JUMP JUMPDEST DUP11 PUSH1 0x40 ADD CALLDATALOAD PUSH1 0x3 PUSH2 0x48C0 JUMP JUMPDEST SWAP1 POP DUP1 PUSH20 0xFFFFFFFFFFFFFFFFFFFFFFFFFFFFFFFFFFFFFFFF AND PUSH4 0x5E8746D PUSH1 0x40 MLOAD DUP2 PUSH4 0xFFFFFFFF AND PUSH1 0xE0 SHL DUP2 MSTORE PUSH1 0x4 ADD PUSH1 0x20 PUSH1 0x40 MLOAD DUP1 DUP4 SUB DUP2 DUP7 GAS STATICCALL ISZERO DUP1 ISZERO PUSH2 0x1B24 JUMPI RETURNDATASIZE PUSH0 DUP1 RETURNDATACOPY RETURNDATASIZE PUSH0 REVERT JUMPDEST POP POP POP POP PUSH1 0x40 MLOAD RETURNDATASIZE PUSH1 0x1F NOT PUSH1 0x1F DUP3 ADD AND DUP3 ADD DUP1 PUSH1 0x40 MSTORE POP DUP2 ADD SWAP1 PUSH2 0x1B48 SWAP2 SWAP1 PUSH2 0x6AE7 JUMP JUMPDEST PUSH20 0xFFFFFFFFFFFFFFFFFFFFFFFFFFFFFFFFFFFFFFFF AND DUP9 PUSH0 ADD PUSH1 0x20 DUP2 ADD SWAP1 PUSH2 0x1B70 SWAP2 SWAP1 PUSH2 0x6B12 JUMP JUMPDEST PUSH20 0xFFFFFFFFFFFFFFFFFFFFFFFFFFFFFFFFFFFFFFFF AND EQ PUSH2 0x1BBD JUMPI PUSH1 0x40 MLOAD PUSH32 0xB33F8AB900000000000000000000000000000000000000000000000000000000 DUP2 MSTORE PUSH1 0x4 ADD PUSH1 0x40 MLOAD DUP1 SWAP2 SUB SWAP1 REVERT JUMPDEST PUSH32 0x0 PUSH20 0xFFFFFFFFFFFFFFFFFFFFFFFFFFFFFFFFFFFFFFFF AND DUP9 PUSH0 ADD PUSH1 0x20 DUP2 ADD SWAP1 PUSH2 0x1C06 SWAP2 SWAP1 PUSH2 0x6B12 JUMP JUMPDEST PUSH20 0xFFFFFFFFFFFFFFFFFFFFFFFFFFFFFFFFFFFFFFFF AND EQ DUP1 ISZERO PUSH2 0x1C2C JUMPI POP CALLVALUE DUP9 PUSH1 0x60 ADD CALLDATALOAD EQ JUMPDEST ISZERO PUSH2 0x1C62 JUMPI PUSH2 0x1C53 DUP9 PUSH1 0x20 ADD PUSH1 0x20 DUP2 ADD SWAP1 PUSH2 0x1C47 SWAP2 SWAP1 PUSH2 0x6B12 JUMP JUMPDEST CALLER DUP4 DUP12 PUSH1 0x80 ADD CALLDATALOAD PUSH2 0x2FA3 JUMP JUMPDEST PUSH2 0x1C5D DUP2 CALLVALUE PUSH2 0x3C09 JUMP JUMPDEST PUSH2 0x1D78 JUMP JUMPDEST PUSH32 0x0 PUSH20 0xFFFFFFFFFFFFFFFFFFFFFFFFFFFFFFFFFFFFFFFF AND DUP9 PUSH1 0x20 ADD PUSH1 0x20 DUP2 ADD SWAP1 PUSH2 0x1CAC SWAP2 SWAP1 PUSH2 0x6B12 JUMP JUMPDEST PUSH20 0xFFFFFFFFFFFFFFFFFFFFFFFFFFFFFFFFFFFFFFFF AND EQ DUP1 ISZERO PUSH2 0x1CD2 JUMPI POP CALLVALUE DUP9 PUSH1 0x80 ADD CALLDATALOAD EQ JUMPDEST ISZERO PUSH2 0x1D07 JUMPI PUSH2 0x1CF8 DUP9 PUSH0 ADD PUSH1 0x20 DUP2 ADD SWAP1 PUSH2 0x1CEC SWAP2 SWAP1 PUSH2 0x6B12 JUMP JUMPDEST CALLER DUP4 DUP12 PUSH1 0x60 ADD CALLDATALOAD PUSH2 0x2FA3 JUMP JUMPDEST PUSH2 0x1D02 DUP2 CALLVALUE PUSH2 0x3C09 JUMP JUMPDEST PUSH2 0x1D77 JUMP JUMPDEST DUP8 PUSH0 ADD PUSH1 0x20 DUP2 ADD SWAP1 PUSH2 0x1D19 SWAP2 SWAP1 PUSH2 0x6B12 JUMP JUMPDEST DUP9 PUSH1 0x20 ADD PUSH1 0x20 DUP2 ADD SWAP1 PUSH2 0x1D2C SWAP2 SWAP1 PUSH2 0x6B12 JUMP JUMPDEST DUP10 PUSH1 0x60 ADD CALLDATALOAD DUP11 PUSH1 0x80 ADD CALLDATALOAD CALLVALUE PUSH1 0x40 MLOAD PUSH32 0xD0A4F13B00000000000000000000000000000000000000000000000000000000 DUP2 MSTORE PUSH1 0x4 ADD PUSH2 0x1D6E SWAP6 SWAP5 SWAP4 SWAP3 SWAP2 SWAP1 PUSH2 0x6B3D JUMP JUMPDEST PUSH1 0x40 MLOAD DUP1 SWAP2 SUB SWAP1 REVERT JUMPDEST JUMPDEST PUSH2 0x1D82 DUP9 DUP3 PUSH2 0x4D49 JUMP JUMPDEST DUP1 SWAP8 POP DUP2 SWAP9 POP DUP3 SWAP10 POP DUP4 SWAP11 POP DUP5 SWAP12 POP DUP6 SWAP13 POP POP POP POP POP POP POP POP SWAP2 SWAP4 SWAP6 POP SWAP2 SWAP4 SWAP6 JUMP JUMPDEST PUSH1 0x60 DUP2 DUP1 TIMESTAMP GT ISZERO PUSH2 0x1DEE JUMPI DUP1 TIMESTAMP PUSH1 0x40 MLOAD PUSH32 0xDAE7CA7D00000000000000000000000000000000000000000000000000000000 DUP2 MSTORE PUSH1 0x4 ADD PUSH2 0x1DE5 SWAP3 SWAP2 SWAP1 PUSH2 0x632C JUMP JUMPDEST PUSH1 0x40 MLOAD DUP1 SWAP2 SUB SWAP1 REVERT JUMPDEST DUP5 PUSH0 DUP2 PUSH0 ADD MLOAD MLOAD EQ DUP1 PUSH2 0x1E0A JUMPI POP DUP1 PUSH0 ADD MLOAD MLOAD DUP2 PUSH1 0x20 ADD MLOAD MLOAD EQ ISZERO JUMPDEST DUP1 PUSH2 0x1E2A JUMPI POP DUP1 PUSH1 0x40 ADD MLOAD MLOAD PUSH1 0x1 DUP3 PUSH0 ADD MLOAD MLOAD PUSH2 0x1E27 SWAP2 SWAP1 PUSH2 0x68E9 JUMP JUMPDEST EQ ISZERO JUMPDEST ISZERO PUSH2 0x1E61 JUMPI PUSH1 0x40 MLOAD PUSH32 0xB91B4D4D00000000000000000000000000000000000000000000000000000000 DUP2 MSTORE PUSH1 0x4 ADD PUSH1 0x40 MLOAD DUP1 SWAP2 SUB SWAP1 REVERT JUMPDEST PUSH0 PUSH2 0x1E78 DUP8 PUSH0 ADD MLOAD DUP9 PUSH1 0x20 ADD MLOAD DUP10 PUSH1 0x40 ADD MLOAD PUSH2 0x2E66 JUMP JUMPDEST SWAP1 POP PUSH2 0x1E8E DUP8 PUSH1 0x20 ADD MLOAD DUP3 DUP10 PUSH1 0x40 ADD MLOAD DUP13 PUSH2 0x36B0 JUMP JUMPDEST SWAP4 POP DUP8 DUP5 PUSH0 DUP2 MLOAD DUP2 LT PUSH2 0x1EA4 JUMPI PUSH2 0x1EA3 PUSH2 0x691C JUMP JUMPDEST JUMPDEST PUSH1 0x20 MUL PUSH1 0x20 ADD ADD MLOAD GT ISZERO PUSH2 0x1F0B JUMPI DUP8 DUP5 PUSH0 DUP2 MLOAD DUP2 LT PUSH2 0x1EC6 JUMPI PUSH2 0x1EC5 PUSH2 0x691C JUMP JUMPDEST JUMPDEST PUSH1 0x20 MUL PUSH1 0x20 ADD ADD MLOAD PUSH1 0x40 MLOAD PUSH32 0xCA7710C800000000000000000000000000000000000000000000000000000000 DUP2 MSTORE PUSH1 0x4 ADD PUSH2 0x1F02 SWAP3 SWAP2 SWAP1 PUSH2 0x632C JUMP JUMPDEST PUSH1 0x40 MLOAD DUP1 SWAP2 SUB SWAP1 REVERT JUMPDEST PUSH2 0x1F69 DUP8 PUSH1 0x40 ADD MLOAD PUSH0 DUP2 MLOAD DUP2 LT PUSH2 0x1F25 JUMPI PUSH2 0x1F24 PUSH2 0x691C JUMP JUMPDEST JUMPDEST PUSH1 0x20 MUL PUSH1 0x20 ADD ADD MLOAD CALLER DUP4 PUSH0 DUP2 MLOAD DUP2 LT PUSH2 0x1F41 JUMPI PUSH2 0x1F40 PUSH2 0x691C JUMP JUMPDEST JUMPDEST PUSH1 0x20 MUL PUSH1 0x20 ADD ADD MLOAD DUP8 PUSH0 DUP2 MLOAD DUP2 LT PUSH2 0x1F5C JUMPI PUSH2 0x1F5B PUSH2 0x691C JUMP JUMPDEST JUMPDEST PUSH1 0x20 MUL PUSH1 0x20 ADD ADD MLOAD PUSH2 0x2FA3 JUMP JUMPDEST PUSH0 PUSH2 0x1F7F DUP3 DUP10 PUSH1 0x20 ADD MLOAD DUP11 PUSH1 0x40 ADD MLOAD DUP9 DUP12 PUSH2 0x3CDE JUMP JUMPDEST SWAP1 POP DUP10 DUP2 LT ISZERO PUSH2 0x1FC8 JUMPI DUP10 DUP2 PUSH1 0x40 MLOAD PUSH32 0x4FEAC00C00000000000000000000000000000000000000000000000000000000 DUP2 MSTORE PUSH1 0x4 ADD PUSH2 0x1FBF SWAP3 SWAP2 SWAP1 PUSH2 0x632C JUMP JUMPDEST PUSH1 0x40 MLOAD DUP1 SWAP2 SUB SWAP1 REVERT JUMPDEST POP POP POP POP SWAP6 SWAP5 POP POP POP POP POP JUMP JUMPDEST PUSH0 DUP1 PUSH0 DUP6 PUSH20 0xFFFFFFFFFFFFFFFFFFFFFFFFFFFFFFFFFFFFFFFF AND PUSH4 0xABCD7830 DUP7 DUP7 PUSH1 0x40 MLOAD DUP4 PUSH4 0xFFFFFFFF AND PUSH1 0xE0 SHL DUP2 MSTORE PUSH1 0x4 ADD PUSH2 0x2013 SWAP3 SWAP2 SWAP1 PUSH2 0x6B9D JUMP JUMPDEST PUSH1 0x60 PUSH1 0x40 MLOAD DUP1 DUP4 SUB DUP2 DUP7 GAS STATICCALL ISZERO DUP1 ISZERO PUSH2 0x202E JUMPI RETURNDATASIZE PUSH0 DUP1 RETURNDATACOPY RETURNDATASIZE PUSH0 REVERT JUMPDEST POP POP POP POP PUSH1 0x40 MLOAD RETURNDATASIZE PUSH1 0x1F NOT PUSH1 0x1F DUP3 ADD AND DUP3 ADD DUP1 PUSH1 0x40 MSTORE POP DUP2 ADD SWAP1 PUSH2 0x2052 SWAP2 SWAP1 PUSH2 0x6BD8 JUMP JUMPDEST DUP1 SWAP4 POP DUP2 SWAP5 POP DUP3 SWAP6 POP POP POP POP SWAP4 POP SWAP4 POP SWAP4 SWAP1 POP JUMP JUMPDEST PUSH0 DUP2 DUP1 TIMESTAMP GT ISZERO PUSH2 0x20B0 JUMPI DUP1 TIMESTAMP PUSH1 0x40 MLOAD PUSH32 0xDAE7CA7D00000000000000000000000000000000000000000000000000000000 DUP2 MSTORE PUSH1 0x4 ADD PUSH2 0x20A7 SWAP3 SWAP2 SWAP1 PUSH2 0x632C JUMP JUMPDEST PUSH1 0x40 MLOAD DUP1 SWAP2 SUB SWAP1 REVERT JUMPDEST DUP5 PUSH0 DUP2 PUSH0 ADD MLOAD MLOAD EQ DUP1 PUSH2 0x20CC JUMPI POP DUP1 PUSH0 ADD MLOAD MLOAD DUP2 PUSH1 0x20 ADD MLOAD MLOAD EQ ISZERO JUMPDEST DUP1 PUSH2 0x20EC JUMPI POP DUP1 PUSH1 0x40 ADD MLOAD MLOAD PUSH1 0x1 DUP3 PUSH0 ADD MLOAD MLOAD PUSH2 0x20E9 SWAP2 SWAP1 PUSH2 0x68E9 JUMP JUMPDEST EQ ISZERO JUMPDEST ISZERO PUSH2 0x2123 JUMPI PUSH1 0x40 MLOAD PUSH32 0xB91B4D4D00000000000000000000000000000000000000000000000000000000 DUP2 MSTORE PUSH1 0x4 ADD PUSH1 0x40 MLOAD DUP1 SWAP2 SUB SWAP1 REVERT JUMPDEST PUSH32 0x0 PUSH20 0xFFFFFFFFFFFFFFFFFFFFFFFFFFFFFFFFFFFFFFFF AND DUP7 PUSH1 0x40 ADD MLOAD DUP8 PUSH0 ADD MLOAD MLOAD DUP2 MLOAD DUP2 LT PUSH2 0x2175 JUMPI PUSH2 0x2174 PUSH2 0x691C JUMP JUMPDEST JUMPDEST PUSH1 0x20 MUL PUSH1 0x20 ADD ADD MLOAD PUSH20 0xFFFFFFFFFFFFFFFFFFFFFFFFFFFFFFFFFFFFFFFF AND EQ PUSH2 0x21F7 JUMPI DUP6 PUSH1 0x40 ADD MLOAD DUP7 PUSH0 ADD MLOAD MLOAD DUP2 MLOAD DUP2 LT PUSH2 0x21B3 JUMPI PUSH2 0x21B2 PUSH2 0x691C JUMP JUMPDEST JUMPDEST PUSH1 0x20 MUL PUSH1 0x20 ADD ADD MLOAD PUSH1 0x40 MLOAD PUSH32 0xCFEC0E0100000000000000000000000000000000000000000000000000000000 DUP2 MSTORE PUSH1 0x4 ADD PUSH2 0x21EE SWAP2 SWAP1 PUSH2 0x6958 JUMP JUMPDEST PUSH1 0x40 MLOAD DUP1 SWAP2 SUB SWAP1 REVERT JUMPDEST PUSH0 PUSH2 0x220E DUP8 PUSH0 ADD MLOAD DUP9 PUSH1 0x20 ADD MLOAD DUP10 PUSH1 0x40 ADD MLOAD PUSH2 0x2E66 JUMP JUMPDEST SWAP1 POP PUSH2 0x2254 DUP8 PUSH1 0x40 ADD MLOAD PUSH0 DUP2 MLOAD DUP2 LT PUSH2 0x222A JUMPI PUSH2 0x2229 PUSH2 0x691C JUMP JUMPDEST JUMPDEST PUSH1 0x20 MUL PUSH1 0x20 ADD ADD MLOAD CALLER DUP4 PUSH0 DUP2 MLOAD DUP2 LT PUSH2 0x2246 JUMPI PUSH2 0x2245 PUSH2 0x691C JUMP JUMPDEST JUMPDEST PUSH1 0x20 MUL PUSH1 0x20 ADD ADD MLOAD DUP13 PUSH2 0x2FA3 JUMP JUMPDEST PUSH2 0x2269 DUP10 DUP3 DUP10 PUSH1 0x20 ADD MLOAD DUP11 PUSH1 0x40 ADD MLOAD ADDRESS PUSH2 0x4293 JUMP JUMPDEST SWAP4 POP DUP4 DUP9 GT ISZERO PUSH2 0x22B2 JUMPI DUP8 DUP5 PUSH1 0x40 MLOAD PUSH32 0x4FEAC00C00000000000000000000000000000000000000000000000000000000 DUP2 MSTORE PUSH1 0x4 ADD PUSH2 0x22A9 SWAP3 SWAP2 SWAP1 PUSH2 0x632C JUMP JUMPDEST PUSH1 0x40 MLOAD DUP1 SWAP2 SUB SWAP1 REVERT JUMPDEST PUSH2 0x22BC DUP7 DUP6 PUSH2 0x3613 JUMP JUMPDEST POP POP POP SWAP6 SWAP5 POP POP POP POP POP JUMP JUMPDEST PUSH0 DUP1 PUSH0 DUP6 PUSH20 0xFFFFFFFFFFFFFFFFFFFFFFFFFFFFFFFFFFFFFFFF AND PUSH4 0xE77366F8 DUP7 DUP7 PUSH1 0x40 MLOAD DUP4 PUSH4 0xFFFFFFFF AND PUSH1 0xE0 SHL DUP2 MSTORE PUSH1 0x4 ADD PUSH2 0x2306 SWAP3 SWAP2 SWAP1 PUSH2 0x6B9D JUMP JUMPDEST PUSH1 0x60 PUSH1 0x40 MLOAD DUP1 DUP4 SUB DUP2 DUP7 GAS STATICCALL ISZERO DUP1 ISZERO PUSH2 0x2321 JUMPI RETURNDATASIZE PUSH0 DUP1 RETURNDATACOPY RETURNDATASIZE PUSH0 REVERT JUMPDEST POP POP POP POP PUSH1 0x40 MLOAD RETURNDATASIZE PUSH1 0x1F NOT PUSH1 0x1F DUP3 ADD AND DUP3 ADD DUP1 PUSH1 0x40 MSTORE POP DUP2 ADD SWAP1 PUSH2 0x2345 SWAP2 SWAP1 PUSH2 0x6BD8 JUMP JUMPDEST DUP1 SWAP4 POP DUP2 SWAP5 POP DUP3 SWAP6 POP POP POP POP SWAP4 POP SWAP4 POP SWAP4 SWAP1 POP JUMP JUMPDEST PUSH0 DUP1 PUSH0 DUP1 PUSH1 0x60 DUP1 PUSH0 PUSH2 0x2396 DUP9 PUSH0 ADD PUSH1 0x20 DUP2 ADD SWAP1 PUSH2 0x2377 SWAP2 SWAP1 PUSH2 0x6B12 JUMP JUMPDEST DUP10 PUSH1 0x20 ADD PUSH1 0x20 DUP2 ADD SWAP1 PUSH2 0x238A SWAP2 SWAP1 PUSH2 0x6B12 JUMP JUMPDEST DUP11 PUSH1 0x40 ADD CALLDATALOAD PUSH1 0x3 PUSH2 0x48C0 JUMP JUMPDEST SWAP1 POP DUP1 PUSH20 0xFFFFFFFFFFFFFFFFFFFFFFFFFFFFFFFFFFFFFFFF AND PUSH4 0x5E8746D PUSH1 0x40 MLOAD DUP2 PUSH4 0xFFFFFFFF AND PUSH1 0xE0 SHL DUP2 MSTORE PUSH1 0x4 ADD PUSH1 0x20 PUSH1 0x40 MLOAD DUP1 DUP4 SUB DUP2 DUP7 GAS STATICCALL ISZERO DUP1 ISZERO PUSH2 0x23E1 JUMPI RETURNDATASIZE PUSH0 DUP1 RETURNDATACOPY RETURNDATASIZE PUSH0 REVERT JUMPDEST POP POP POP POP PUSH1 0x40 MLOAD RETURNDATASIZE PUSH1 0x1F NOT PUSH1 0x1F DUP3 ADD AND DUP3 ADD DUP1 PUSH1 0x40 MSTORE POP DUP2 ADD SWAP1 PUSH2 0x2405 SWAP2 SWAP1 PUSH2 0x6AE7 JUMP JUMPDEST PUSH20 0xFFFFFFFFFFFFFFFFFFFFFFFFFFFFFFFFFFFFFFFF AND DUP9 PUSH0 ADD PUSH1 0x20 DUP2 ADD SWAP1 PUSH2 0x242D SWAP2 SWAP1 PUSH2 0x6B12 JUMP JUMPDEST PUSH20 0xFFFFFFFFFFFFFFFFFFFFFFFFFFFFFFFFFFFFFFFF AND EQ PUSH2 0x247A JUMPI PUSH1 0x40 MLOAD PUSH32 0xB33F8AB900000000000000000000000000000000000000000000000000000000 DUP2 MSTORE PUSH1 0x4 ADD PUSH1 0x40 MLOAD DUP1 SWAP2 SUB SWAP1 REVERT JUMPDEST PUSH2 0x249B DUP9 PUSH0 ADD PUSH1 0x20 DUP2 ADD SWAP1 PUSH2 0x248F SWAP2 SWAP1 PUSH2 0x6B12 JUMP JUMPDEST CALLER DUP4 DUP12 PUSH1 0x60 ADD CALLDATALOAD PUSH2 0x2FA3 JUMP JUMPDEST PUSH2 0x24BD DUP9 PUSH1 0x20 ADD PUSH1 0x20 DUP2 ADD SWAP1 PUSH2 0x24B1 SWAP2 SWAP1 PUSH2 0x6B12 JUMP JUMPDEST CALLER DUP4 DUP12 PUSH1 0x80 ADD CALLDATALOAD PUSH2 0x2FA3 JUMP JUMPDEST PUSH2 0x24C7 DUP9 DUP3 PUSH2 0x4D49 JUMP JUMPDEST DUP1 SWAP8 POP DUP2 SWAP9 POP DUP3 SWAP10 POP DUP4 SWAP11 POP DUP5 SWAP12 POP DUP6 SWAP13 POP POP POP POP POP POP POP POP SWAP2 SWAP4 SWAP6 POP SWAP2 SWAP4 SWAP6 JUMP JUMPDEST PUSH0 DUP2 DUP1 TIMESTAMP GT ISZERO PUSH2 0x2532 JUMPI DUP1 TIMESTAMP PUSH1 0x40 MLOAD PUSH32 0xDAE7CA7D00000000000000000000000000000000000000000000000000000000 DUP2 MSTORE PUSH1 0x4 ADD PUSH2 0x2529 SWAP3 SWAP2 SWAP1 PUSH2 0x632C JUMP JUMPDEST PUSH1 0x40 MLOAD DUP1 SWAP2 SUB SWAP1 REVERT JUMPDEST DUP5 PUSH0 DUP2 PUSH0 ADD MLOAD MLOAD EQ DUP1 PUSH2 0x254E JUMPI POP DUP1 PUSH0 ADD MLOAD MLOAD DUP2 PUSH1 0x20 ADD MLOAD MLOAD EQ ISZERO JUMPDEST DUP1 PUSH2 0x256E JUMPI POP DUP1 PUSH1 0x40 ADD MLOAD MLOAD PUSH1 0x1 DUP3 PUSH0 ADD MLOAD MLOAD PUSH2 0x256B SWAP2 SWAP1 PUSH2 0x68E9 JUMP JUMPDEST EQ ISZERO JUMPDEST ISZERO PUSH2 0x25A5 JUMPI PUSH1 0x40 MLOAD PUSH32 0xB91B4D4D00000000000000000000000000000000000000000000000000000000 DUP2 MSTORE PUSH1 0x4 ADD PUSH1 0x40 MLOAD DUP1 SWAP2 SUB SWAP1 REVERT JUMPDEST PUSH32 0x0 PUSH20 0xFFFFFFFFFFFFFFFFFFFFFFFFFFFFFFFFFFFFFFFF AND DUP7 PUSH1 0x40 ADD MLOAD PUSH0 DUP2 MLOAD DUP2 LT PUSH2 0x25F3 JUMPI PUSH2 0x25F2 PUSH2 0x691C JUMP JUMPDEST JUMPDEST PUSH1 0x20 MUL PUSH1 0x20 ADD ADD MLOAD PUSH20 0xFFFFFFFFFFFFFFFFFFFFFFFFFFFFFFFFFFFFFFFF AND EQ PUSH2 0x2671 JUMPI DUP6 PUSH1 0x40 ADD MLOAD PUSH0 DUP2 MLOAD DUP2 LT PUSH2 0x262D JUMPI PUSH2 0x262C PUSH2 0x691C JUMP JUMPDEST JUMPDEST PUSH1 0x20 MUL PUSH1 0x20 ADD ADD MLOAD PUSH1 0x40 MLOAD PUSH32 0xCFEC0E0100000000000000000000000000000000000000000000000000000000 DUP2 MSTORE PUSH1 0x4 ADD PUSH2 0x2668 SWAP2 SWAP1 PUSH2 0x6958 JUMP JUMPDEST PUSH1 0x40 MLOAD DUP1 SWAP2 SUB SWAP1 REVERT JUMPDEST PUSH0 PUSH2 0x2688 DUP8 PUSH0 ADD MLOAD DUP9 PUSH1 0x20 ADD MLOAD DUP10 PUSH1 0x40 ADD MLOAD PUSH2 0x2E66 JUMP JUMPDEST SWAP1 POP PUSH2 0x26AE DUP2 PUSH0 DUP2 MLOAD DUP2 LT PUSH2 0x26A0 JUMPI PUSH2 0x269F PUSH2 0x691C JUMP JUMPDEST JUMPDEST PUSH1 0x20 MUL PUSH1 0x20 ADD ADD MLOAD CALLVALUE PUSH2 0x3C09 JUMP JUMPDEST PUSH2 0x26C3 CALLVALUE DUP3 DUP10 PUSH1 0x20 ADD MLOAD DUP11 PUSH1 0x40 ADD MLOAD DUP11 PUSH2 0x4293 JUMP JUMPDEST SWAP4 POP DUP4 DUP9 GT ISZERO PUSH2 0x270C JUMPI DUP8 DUP5 PUSH1 0x40 MLOAD PUSH32 0x4FEAC00C00000000000000000000000000000000000000000000000000000000 DUP2 MSTORE PUSH1 0x4 ADD PUSH2 0x2703 SWAP3 SWAP2 SWAP1 PUSH2 0x632C JUMP JUMPDEST PUSH1 0x40 MLOAD DUP1 SWAP2 SUB SWAP1 REVERT JUMPDEST POP POP POP SWAP5 SWAP4 POP POP POP POP JUMP JUMPDEST PUSH0 PUSH32 0x0 SWAP1 POP SWAP1 JUMP JUMPDEST PUSH0 PUSH32 0x0 SWAP1 POP SWAP1 JUMP JUMPDEST PUSH0 DUP1 DUP3 DUP1 TIMESTAMP GT ISZERO PUSH2 0x27AF JUMPI DUP1 TIMESTAMP PUSH1 0x40 MLOAD PUSH32 0xDAE7CA7D00000000000000000000000000000000000000000000000000000000 DUP2 MSTORE PUSH1 0x4 ADD PUSH2 0x27A6 SWAP3 SWAP2 SWAP1 PUSH2 0x632C JUMP JUMPDEST PUSH1 0x40 MLOAD DUP1 SWAP2 SUB SWAP1 REVERT JUMPDEST PUSH0 PUSH2 0x27C1 DUP14 DUP14 DUP14 PUSH2 0xFFFF AND PUSH1 0x3 PUSH2 0x48C0 JUMP JUMPDEST SWAP1 POP PUSH0 DUP2 PUSH20 0xFFFFFFFFFFFFFFFFFFFFFFFFFFFFFFFFFFFFFFFF AND PUSH4 0x5E8746D PUSH1 0x40 MLOAD DUP2 PUSH4 0xFFFFFFFF AND PUSH1 0xE0 SHL DUP2 MSTORE PUSH1 0x4 ADD PUSH1 0x20 PUSH1 0x40 MLOAD DUP1 DUP4 SUB DUP2 DUP7 GAS STATICCALL ISZERO DUP1 ISZERO PUSH2 0x280D JUMPI RETURNDATASIZE PUSH0 DUP1 RETURNDATACOPY RETURNDATASIZE PUSH0 REVERT JUMPDEST POP POP POP POP PUSH1 0x40 MLOAD RETURNDATASIZE PUSH1 0x1F NOT PUSH1 0x1F DUP3 ADD AND DUP3 ADD DUP1 PUSH1 0x40 MSTORE POP DUP2 ADD SWAP1 PUSH2 0x2831 SWAP2 SWAP1 PUSH2 0x6AE7 JUMP JUMPDEST PUSH20 0xFFFFFFFFFFFFFFFFFFFFFFFFFFFFFFFFFFFFFFFF AND DUP15 PUSH20 0xFFFFFFFFFFFFFFFFFFFFFFFFFFFFFFFFFFFFFFFF AND EQ ISZERO SWAP1 POP DUP1 ISZERO PUSH2 0x2873 JUMPI DUP10 DUP12 DUP1 SWAP12 POP DUP2 SWAP13 POP POP POP JUMPDEST PUSH2 0x2881 DUP3 DUP13 DUP13 DUP13 DUP13 DUP13 PUSH2 0x4B87 JUMP JUMPDEST DUP1 SWAP6 POP DUP2 SWAP7 POP POP POP DUP1 ISZERO PUSH2 0x289A JUMPI DUP4 DUP6 DUP1 SWAP6 POP DUP2 SWAP7 POP POP POP JUMPDEST POP POP POP SWAP10 POP SWAP10 SWAP8 POP POP POP POP POP POP POP POP JUMP JUMPDEST PUSH0 DUP3 PUSH20 0xFFFFFFFFFFFFFFFFFFFFFFFFFFFFFFFFFFFFFFFF AND PUSH4 0x4C7CFFBD DUP4 PUSH1 0x40 MLOAD DUP3 PUSH4 0xFFFFFFFF AND PUSH1 0xE0 SHL DUP2 MSTORE PUSH1 0x4 ADD PUSH2 0x28E5 SWAP2 SWAP1 PUSH2 0x68A3 JUMP JUMPDEST PUSH1 0x20 PUSH1 0x40 MLOAD DUP1 DUP4 SUB DUP2 DUP7 GAS STATICCALL ISZERO DUP1 ISZERO PUSH2 0x2900 JUMPI RETURNDATASIZE PUSH0 DUP1 RETURNDATACOPY RETURNDATASIZE PUSH0 REVERT JUMPDEST POP POP POP POP PUSH1 0x40 MLOAD RETURNDATASIZE PUSH1 0x1F NOT PUSH1 0x1F DUP3 ADD AND DUP3 ADD DUP1 PUSH1 0x40 MSTORE POP DUP2 ADD SWAP1 PUSH2 0x2924 SWAP2 SWAP1 PUSH2 0x6985 JUMP JUMPDEST SWAP1 POP SWAP3 SWAP2 POP POP JUMP JUMPDEST PUSH0 DUP2 DUP1 TIMESTAMP GT ISZERO PUSH2 0x2975 JUMPI DUP1 TIMESTAMP PUSH1 0x40 MLOAD PUSH32 0xDAE7CA7D00000000000000000000000000000000000000000000000000000000 DUP2 MSTORE PUSH1 0x4 ADD PUSH2 0x296C SWAP3 SWAP2 SWAP1 PUSH2 0x632C JUMP JUMPDEST PUSH1 0x40 MLOAD DUP1 SWAP2 SUB SWAP1 REVERT JUMPDEST DUP5 PUSH0 DUP2 PUSH0 ADD MLOAD MLOAD EQ DUP1 PUSH2 0x2991 JUMPI POP DUP1 PUSH0 ADD MLOAD MLOAD DUP2 PUSH1 0x20 ADD MLOAD MLOAD EQ ISZERO JUMPDEST DUP1 PUSH2 0x29B1 JUMPI POP DUP1 PUSH1 0x40 ADD MLOAD MLOAD PUSH1 0x1 DUP3 PUSH0 ADD MLOAD MLOAD PUSH2 0x29AE SWAP2 SWAP1 PUSH2 0x68E9 JUMP JUMPDEST EQ ISZERO JUMPDEST ISZERO PUSH2 0x29E8 JUMPI PUSH1 0x40 MLOAD PUSH32 0xB91B4D4D00000000000000000000000000000000000000000000000000000000 DUP2 MSTORE PUSH1 0x4 ADD PUSH1 0x40 MLOAD DUP1 SWAP2 SUB SWAP1 REVERT JUMPDEST PUSH32 0x0 PUSH20 0xFFFFFFFFFFFFFFFFFFFFFFFFFFFFFFFFFFFFFFFF AND DUP7 PUSH1 0x40 ADD MLOAD PUSH0 DUP2 MLOAD DUP2 LT PUSH2 0x2A36 JUMPI PUSH2 0x2A35 PUSH2 0x691C JUMP JUMPDEST JUMPDEST PUSH1 0x20 MUL PUSH1 0x20 ADD ADD MLOAD PUSH20 0xFFFFFFFFFFFFFFFFFFFFFFFFFFFFFFFFFFFFFFFF AND EQ PUSH2 0x2AB4 JUMPI DUP6 PUSH1 0x40 ADD MLOAD PUSH0 DUP2 MLOAD DUP2 LT PUSH2 0x2A70 JUMPI PUSH2 0x2A6F PUSH2 0x691C JUMP JUMPDEST JUMPDEST PUSH1 0x20 MUL PUSH1 0x20 ADD ADD MLOAD PUSH1 0x40 MLOAD PUSH32 0xCFEC0E0100000000000000000000000000000000000000000000000000000000 DUP2 MSTORE PUSH1 0x4 ADD PUSH2 0x2AAB SWAP2 SWAP1 PUSH2 0x6958 JUMP JUMPDEST PUSH1 0x40 MLOAD DUP1 SWAP2 SUB SWAP1 REVERT JUMPDEST PUSH0 PUSH2 0x2ACB DUP8 PUSH0 ADD MLOAD DUP9 PUSH1 0x20 ADD MLOAD DUP10 PUSH1 0x40 ADD MLOAD PUSH2 0x2E66 JUMP JUMPDEST SWAP1 POP PUSH0 DUP8 PUSH1 0x40 ADD MLOAD DUP3 MLOAD DUP2 MLOAD DUP2 LT PUSH2 0x2AE6 JUMPI PUSH2 0x2AE5 PUSH2 0x691C JUMP JUMPDEST JUMPDEST PUSH1 0x20 MUL PUSH1 0x20 ADD ADD MLOAD SWAP1 POP PUSH0 DUP2 PUSH20 0xFFFFFFFFFFFFFFFFFFFFFFFFFFFFFFFFFFFFFFFF AND PUSH4 0x70A08231 DUP10 PUSH1 0x40 MLOAD DUP3 PUSH4 0xFFFFFFFF AND PUSH1 0xE0 SHL DUP2 MSTORE PUSH1 0x4 ADD PUSH2 0x2B2A SWAP2 SWAP1 PUSH2 0x6958 JUMP JUMPDEST PUSH1 0x20 PUSH1 0x40 MLOAD DUP1 DUP4 SUB DUP2 DUP7 GAS STATICCALL ISZERO DUP1 ISZERO PUSH2 0x2B45 JUMPI RETURNDATASIZE PUSH0 DUP1 RETURNDATACOPY RETURNDATASIZE PUSH0 REVERT JUMPDEST POP POP POP POP PUSH1 0x40 MLOAD RETURNDATASIZE PUSH1 0x1F NOT PUSH1 0x1F DUP3 ADD AND DUP3 ADD DUP1 PUSH1 0x40 MSTORE POP DUP2 ADD SWAP1 PUSH2 0x2B69 SWAP2 SWAP1 PUSH2 0x6985 JUMP JUMPDEST SWAP1 POP PUSH2 0x2B8F DUP4 PUSH0 DUP2 MLOAD DUP2 LT PUSH2 0x2B81 JUMPI PUSH2 0x2B80 PUSH2 0x691C JUMP JUMPDEST JUMPDEST PUSH1 0x20 MUL PUSH1 0x20 ADD ADD MLOAD CALLVALUE PUSH2 0x3C09 JUMP JUMPDEST PUSH2 0x2BA3 DUP4 DUP11 PUSH1 0x20 ADD MLOAD DUP12 PUSH1 0x40 ADD MLOAD DUP12 PUSH2 0x2FDF JUMP JUMPDEST DUP1 DUP3 PUSH20 0xFFFFFFFFFFFFFFFFFFFFFFFFFFFFFFFFFFFFFFFF AND PUSH4 0x70A08231 DUP11 PUSH1 0x40 MLOAD DUP3 PUSH4 0xFFFFFFFF AND PUSH1 0xE0 SHL DUP2 MSTORE PUSH1 0x4 ADD PUSH2 0x2BDD SWAP2 SWAP1 PUSH2 0x6958 JUMP JUMPDEST PUSH1 0x20 PUSH1 0x40 MLOAD DUP1 DUP4 SUB DUP2 DUP7 GAS STATICCALL ISZERO DUP1 ISZERO PUSH2 0x2BF8 JUMPI RETURNDATASIZE PUSH0 DUP1 RETURNDATACOPY RETURNDATASIZE PUSH0 REVERT JUMPDEST POP POP POP POP PUSH1 0x40 MLOAD RETURNDATASIZE PUSH1 0x1F NOT PUSH1 0x1F DUP3 ADD AND DUP3 ADD DUP1 PUSH1 0x40 MSTORE POP DUP2 ADD SWAP1 PUSH2 0x2C1C SWAP2 SWAP1 PUSH2 0x6985 JUMP JUMPDEST PUSH2 0x2C26 SWAP2 SWAP1 PUSH2 0x69B0 JUMP JUMPDEST SWAP6 POP DUP6 DUP11 GT ISZERO PUSH2 0x2C6F JUMPI DUP10 DUP7 PUSH1 0x40 MLOAD PUSH32 0x4FEAC00C00000000000000000000000000000000000000000000000000000000 DUP2 MSTORE PUSH1 0x4 ADD PUSH2 0x2C66 SWAP3 SWAP2 SWAP1 PUSH2 0x632C JUMP JUMPDEST PUSH1 0x40 MLOAD DUP1 SWAP2 SUB SWAP1 REVERT JUMPDEST POP POP POP POP POP SWAP5 SWAP4 POP POP POP POP JUMP JUMPDEST PUSH32 0x0 PUSH20 0xFFFFFFFFFFFFFFFFFFFFFFFFFFFFFFFFFFFFFFFF AND PUSH4 0x8DA5CB5B PUSH1 0x40 MLOAD DUP2 PUSH4 0xFFFFFFFF AND PUSH1 0xE0 SHL DUP2 MSTORE PUSH1 0x4 ADD PUSH1 0x20 PUSH1 0x40 MLOAD DUP1 DUP4 SUB DUP2 DUP7 GAS STATICCALL ISZERO DUP1 ISZERO PUSH2 0x2CE5 JUMPI RETURNDATASIZE PUSH0 DUP1 RETURNDATACOPY RETURNDATASIZE PUSH0 REVERT JUMPDEST POP POP POP POP PUSH1 0x40 MLOAD RETURNDATASIZE PUSH1 0x1F NOT PUSH1 0x1F DUP3 ADD AND DUP3 ADD DUP1 PUSH1 0x40 MSTORE POP DUP2 ADD SWAP1 PUSH2 0x2D09 SWAP2 SWAP1 PUSH2 0x69F7 JUMP JUMPDEST PUSH20 0xFFFFFFFFFFFFFFFFFFFFFFFFFFFFFFFFFFFFFFFF AND CALLER PUSH20 0xFFFFFFFFFFFFFFFFFFFFFFFFFFFFFFFFFFFFFFFF AND EQ PUSH2 0x2D6D JUMPI PUSH1 0x40 MLOAD PUSH32 0xBB2A2B7200000000000000000000000000000000000000000000000000000000 DUP2 MSTORE PUSH1 0x4 ADD PUSH1 0x40 MLOAD DUP1 SWAP2 SUB SWAP1 REVERT JUMPDEST DUP6 PUSH20 0xFFFFFFFFFFFFFFFFFFFFFFFFFFFFFFFFFFFFFFFF AND PUSH4 0x17FAD7FC ADDRESS DUP8 DUP8 DUP8 DUP8 DUP8 PUSH1 0x40 MLOAD DUP8 PUSH4 0xFFFFFFFF AND PUSH1 0xE0 SHL DUP2 MSTORE PUSH1 0x4 ADD PUSH2 0x2DB0 SWAP7 SWAP6 SWAP5 SWAP4 SWAP3 SWAP2 SWAP1 PUSH2 0x6C90 JUMP JUMPDEST PUSH0 PUSH1 0x40 MLOAD DUP1 DUP4 SUB DUP2 PUSH0 DUP8 DUP1 EXTCODESIZE ISZERO DUP1 ISZERO PUSH2 0x2DC7 JUMPI PUSH0 DUP1 REVERT JUMPDEST POP GAS CALL ISZERO DUP1 ISZERO PUSH2 0x2DD9 JUMPI RETURNDATASIZE PUSH0 DUP1 RETURNDATACOPY RETURNDATASIZE PUSH0 REVERT JUMPDEST POP POP POP POP POP POP POP POP POP POP JUMP JUMPDEST PUSH0 DUP3 PUSH20 0xFFFFFFFFFFFFFFFFFFFFFFFFFFFFFFFFFFFFFFFF AND PUSH4 0xF5E29329 DUP4 PUSH1 0x40 MLOAD DUP3 PUSH4 0xFFFFFFFF AND PUSH1 0xE0 SHL DUP2 MSTORE PUSH1 0x4 ADD PUSH2 0x2E1F SWAP2 SWAP1 PUSH2 0x5DD4 JUMP JUMPDEST PUSH1 0x20 PUSH1 0x40 MLOAD DUP1 DUP4 SUB DUP2 DUP7 GAS STATICCALL ISZERO DUP1 ISZERO PUSH2 0x2E3A JUMPI RETURNDATASIZE PUSH0 DUP1 RETURNDATACOPY RETURNDATASIZE PUSH0 REVERT JUMPDEST POP POP POP POP PUSH1 0x40 MLOAD RETURNDATASIZE PUSH1 0x1F NOT PUSH1 0x1F DUP3 ADD AND DUP3 ADD DUP1 PUSH1 0x40 MSTORE POP DUP2 ADD SWAP1 PUSH2 0x2E5E SWAP2 SWAP1 PUSH2 0x6CF9 JUMP JUMPDEST SWAP1 POP SWAP3 SWAP2 POP POP JUMP JUMPDEST PUSH1 0x60 DUP4 MLOAD PUSH8 0xFFFFFFFFFFFFFFFF DUP2 GT ISZERO PUSH2 0x2E83 JUMPI PUSH2 0x2E82 PUSH2 0x58F0 JUMP JUMPDEST JUMPDEST PUSH1 0x40 MLOAD SWAP1 DUP1 DUP3 MSTORE DUP1 PUSH1 0x20 MUL PUSH1 0x20 ADD DUP3 ADD PUSH1 0x40 MSTORE DUP1 ISZERO PUSH2 0x2EB1 JUMPI DUP2 PUSH1 0x20 ADD PUSH1 0x20 DUP3 MUL DUP1 CALLDATASIZE DUP4 CALLDATACOPY DUP1 DUP3 ADD SWAP2 POP POP SWAP1 POP JUMPDEST POP SWAP1 POP PUSH0 DUP1 DUP4 PUSH0 DUP2 MLOAD DUP2 LT PUSH2 0x2EC9 JUMPI PUSH2 0x2EC8 PUSH2 0x691C JUMP JUMPDEST JUMPDEST PUSH1 0x20 MUL PUSH1 0x20 ADD ADD MLOAD SWAP1 POP PUSH0 JUMPDEST DUP4 MLOAD DUP2 LT ISZERO PUSH2 0x2F99 JUMPI DUP2 SWAP3 POP DUP5 PUSH1 0x1 DUP3 ADD DUP2 MLOAD DUP2 LT PUSH2 0x2EF7 JUMPI PUSH2 0x2EF6 PUSH2 0x691C JUMP JUMPDEST JUMPDEST PUSH1 0x20 MUL PUSH1 0x20 ADD ADD MLOAD SWAP2 POP PUSH2 0x2F41 DUP4 DUP4 DUP10 DUP5 DUP2 MLOAD DUP2 LT PUSH2 0x2F19 JUMPI PUSH2 0x2F18 PUSH2 0x691C JUMP JUMPDEST JUMPDEST PUSH1 0x20 MUL PUSH1 0x20 ADD ADD MLOAD DUP10 DUP6 DUP2 MLOAD DUP2 LT PUSH2 0x2F34 JUMPI PUSH2 0x2F33 PUSH2 0x691C JUMP JUMPDEST JUMPDEST PUSH1 0x20 MUL PUSH1 0x20 ADD ADD MLOAD PUSH2 0x5321 JUMP JUMPDEST DUP5 DUP3 DUP2 MLOAD DUP2 LT PUSH2 0x2F54 JUMPI PUSH2 0x2F53 PUSH2 0x691C JUMP JUMPDEST JUMPDEST PUSH1 0x20 MUL PUSH1 0x20 ADD ADD SWAP1 PUSH20 0xFFFFFFFFFFFFFFFFFFFFFFFFFFFFFFFFFFFFFFFF AND SWAP1 DUP2 PUSH20 0xFFFFFFFFFFFFFFFFFFFFFFFFFFFFFFFFFFFFFFFF AND DUP2 MSTORE POP POP DUP1 PUSH1 0x1 ADD SWAP1 POP PUSH2 0x2ED5 JUMP JUMPDEST POP POP POP SWAP4 SWAP3 POP POP POP JUMP JUMPDEST PUSH0 DUP2 SUB ISZERO PUSH2 0x2FD9 JUMPI PUSH2 0x2FD8 DUP4 DUP4 DUP4 DUP8 PUSH20 0xFFFFFFFFFFFFFFFFFFFFFFFFFFFFFFFFFFFFFFFF AND PUSH2 0x5479 SWAP1 SWAP4 SWAP3 SWAP2 SWAP1 PUSH4 0xFFFFFFFF AND JUMP JUMPDEST JUMPDEST POP POP POP POP JUMP JUMPDEST PUSH0 DUP1 PUSH0 DUP1 PUSH0 DUP7 PUSH0 DUP2 MLOAD DUP2 LT PUSH2 0x2FF7 JUMPI PUSH2 0x2FF6 PUSH2 0x691C JUMP JUMPDEST JUMPDEST PUSH1 0x20 MUL PUSH1 0x20 ADD ADD MLOAD SWAP1 POP PUSH0 JUMPDEST DUP10 MLOAD DUP2 LT ISZERO PUSH2 0x3607 JUMPI DUP10 DUP2 DUP2 MLOAD DUP2 LT PUSH2 0x301F JUMPI PUSH2 0x301E PUSH2 0x691C JUMP JUMPDEST JUMPDEST PUSH1 0x20 MUL PUSH1 0x20 ADD ADD MLOAD SWAP3 POP DUP9 DUP2 DUP2 MLOAD DUP2 LT PUSH2 0x303C JUMPI PUSH2 0x303B PUSH2 0x691C JUMP JUMPDEST JUMPDEST PUSH1 0x20 MUL PUSH1 0x20 ADD ADD MLOAD SWAP5 POP DUP2 SWAP6 POP DUP8 PUSH1 0x1 DUP3 ADD DUP2 MLOAD DUP2 LT PUSH2 0x305F JUMPI PUSH2 0x305E PUSH2 0x691C JUMP JUMPDEST JUMPDEST PUSH1 0x20 MUL PUSH1 0x20 ADD ADD MLOAD SWAP2 POP DUP10 MLOAD PUSH1 0x1 DUP3 ADD EQ PUSH2 0x3097 JUMPI DUP10 PUSH1 0x1 DUP3 ADD DUP2 MLOAD DUP2 LT PUSH2 0x308A JUMPI PUSH2 0x3089 PUSH2 0x691C JUMP JUMPDEST JUMPDEST PUSH1 0x20 MUL PUSH1 0x20 ADD ADD MLOAD PUSH2 0x3099 JUMP JUMPDEST DUP7 JUMPDEST SWAP4 POP PUSH0 PUSH1 0x3 DUP2 GT ISZERO PUSH2 0x30AE JUMPI PUSH2 0x30AD PUSH2 0x6D24 JUMP JUMPDEST JUMPDEST DUP6 PUSH1 0x3 DUP2 GT ISZERO PUSH2 0x30C1 JUMPI PUSH2 0x30C0 PUSH2 0x6D24 JUMP JUMPDEST JUMPDEST SUB PUSH2 0x339D JUMPI PUSH0 DUP1 DUP5 PUSH20 0xFFFFFFFFFFFFFFFFFFFFFFFFFFFFFFFFFFFFFFFF AND PUSH4 0x902F1AC PUSH1 0x40 MLOAD DUP2 PUSH4 0xFFFFFFFF AND PUSH1 0xE0 SHL DUP2 MSTORE PUSH1 0x4 ADD PUSH1 0x60 PUSH1 0x40 MLOAD DUP1 DUP4 SUB DUP2 DUP7 GAS STATICCALL ISZERO DUP1 ISZERO PUSH2 0x3111 JUMPI RETURNDATASIZE PUSH0 DUP1 RETURNDATACOPY RETURNDATASIZE PUSH0 REVERT JUMPDEST POP POP POP POP PUSH1 0x40 MLOAD RETURNDATASIZE PUSH1 0x1F NOT PUSH1 0x1F DUP3 ADD AND DUP3 ADD DUP1 PUSH1 0x40 MSTORE POP DUP2 ADD SWAP1 PUSH2 0x3135 SWAP2 SWAP1 PUSH2 0x6DCD JUMP JUMPDEST POP PUSH14 0xFFFFFFFFFFFFFFFFFFFFFFFFFFFF AND SWAP2 POP PUSH14 0xFFFFFFFFFFFFFFFFFFFFFFFFFFFF AND SWAP2 POP DUP4 PUSH20 0xFFFFFFFFFFFFFFFFFFFFFFFFFFFFFFFFFFFFFFFF AND DUP9 PUSH20 0xFFFFFFFFFFFFFFFFFFFFFFFFFFFFFFFFFFFFFFFF AND LT ISZERO PUSH2 0x3294 JUMPI PUSH0 DUP3 DUP10 PUSH20 0xFFFFFFFFFFFFFFFFFFFFFFFFFFFFFFFFFFFFFFFF AND PUSH4 0x70A08231 DUP9 PUSH1 0x40 MLOAD DUP3 PUSH4 0xFFFFFFFF AND PUSH1 0xE0 SHL DUP2 MSTORE PUSH1 0x4 ADD PUSH2 0x31C9 SWAP2 SWAP1 PUSH2 0x6958 JUMP JUMPDEST PUSH1 0x20 PUSH1 0x40 MLOAD DUP1 DUP4 SUB DUP2 DUP7 GAS STATICCALL ISZERO DUP1 ISZERO PUSH2 0x31E4 JUMPI RETURNDATASIZE PUSH0 DUP1 RETURNDATACOPY RETURNDATASIZE PUSH0 REVERT JUMPDEST POP POP POP POP PUSH1 0x40 MLOAD RETURNDATASIZE PUSH1 0x1F NOT PUSH1 0x1F DUP3 ADD AND DUP3 ADD DUP1 PUSH1 0x40 MSTORE POP DUP2 ADD SWAP1 PUSH2 0x3208 SWAP2 SWAP1 PUSH2 0x6985 JUMP JUMPDEST SUB SWAP1 POP PUSH0 PUSH2 0x3221 DUP5 DUP5 DUP5 PUSH2 0x5507 SWAP1 SWAP3 SWAP2 SWAP1 PUSH4 0xFFFFFFFF AND JUMP JUMPDEST SWAP1 POP DUP7 PUSH20 0xFFFFFFFFFFFFFFFFFFFFFFFFFFFFFFFFFFFFFFFF AND PUSH4 0x22C0D9F PUSH0 DUP4 DUP12 PUSH1 0x40 MLOAD DUP5 PUSH4 0xFFFFFFFF AND PUSH1 0xE0 SHL DUP2 MSTORE PUSH1 0x4 ADD PUSH2 0x3260 SWAP4 SWAP3 SWAP2 SWAP1 PUSH2 0x6E89 JUMP JUMPDEST PUSH0 PUSH1 0x40 MLOAD DUP1 DUP4 SUB DUP2 PUSH0 DUP8 DUP1 EXTCODESIZE ISZERO DUP1 ISZERO PUSH2 0x3277 JUMPI PUSH0 DUP1 REVERT JUMPDEST POP GAS CALL ISZERO DUP1 ISZERO PUSH2 0x3289 JUMPI RETURNDATASIZE PUSH0 DUP1 RETURNDATACOPY RETURNDATASIZE PUSH0 REVERT JUMPDEST POP POP POP POP POP POP PUSH2 0x3396 JUMP JUMPDEST PUSH0 DUP2 DUP10 PUSH20 0xFFFFFFFFFFFFFFFFFFFFFFFFFFFFFFFFFFFFFFFF AND PUSH4 0x70A08231 DUP9 PUSH1 0x40 MLOAD DUP3 PUSH4 0xFFFFFFFF AND PUSH1 0xE0 SHL DUP2 MSTORE PUSH1 0x4 ADD PUSH2 0x32CF SWAP2 SWAP1 PUSH2 0x6958 JUMP JUMPDEST PUSH1 0x20 PUSH1 0x40 MLOAD DUP1 DUP4 SUB DUP2 DUP7 GAS STATICCALL ISZERO DUP1 ISZERO PUSH2 0x32EA JUMPI RETURNDATASIZE PUSH0 DUP1 RETURNDATACOPY RETURNDATASIZE PUSH0 REVERT JUMPDEST POP POP POP POP PUSH1 0x40 MLOAD RETURNDATASIZE PUSH1 0x1F NOT PUSH1 0x1F DUP3 ADD AND DUP3 ADD DUP1 PUSH1 0x40 MSTORE POP DUP2 ADD SWAP1 PUSH2 0x330E SWAP2 SWAP1 PUSH2 0x6985 JUMP JUMPDEST SUB SWAP1 POP PUSH0 PUSH2 0x3327 DUP4 DUP6 DUP5 PUSH2 0x5507 SWAP1 SWAP3 SWAP2 SWAP1 PUSH4 0xFFFFFFFF AND JUMP JUMPDEST SWAP1 POP DUP7 PUSH20 0xFFFFFFFFFFFFFFFFFFFFFFFFFFFFFFFFFFFFFFFF AND PUSH4 0x22C0D9F DUP3 PUSH0 DUP12 PUSH1 0x40 MLOAD DUP5 PUSH4 0xFFFFFFFF AND PUSH1 0xE0 SHL DUP2 MSTORE PUSH1 0x4 ADD PUSH2 0x3366 SWAP4 SWAP3 SWAP2 SWAP1 PUSH2 0x6ED1 JUMP JUMPDEST PUSH0 PUSH1 0x40 MLOAD DUP1 DUP4 SUB DUP2 PUSH0 DUP8 DUP1 EXTCODESIZE ISZERO DUP1 ISZERO PUSH2 0x337D JUMPI PUSH0 DUP1 REVERT JUMPDEST POP GAS CALL ISZERO DUP1 ISZERO PUSH2 0x338F JUMPI RETURNDATASIZE PUSH0 DUP1 RETURNDATACOPY RETURNDATASIZE PUSH0 REVERT JUMPDEST POP POP POP POP POP POP JUMPDEST POP POP PUSH2 0x35FC JUMP JUMPDEST PUSH1 0x1 PUSH1 0x3 DUP2 GT ISZERO PUSH2 0x33B1 JUMPI PUSH2 0x33B0 PUSH2 0x6D24 JUMP JUMPDEST JUMPDEST DUP6 PUSH1 0x3 DUP2 GT ISZERO PUSH2 0x33C4 JUMPI PUSH2 0x33C3 PUSH2 0x6D24 JUMP JUMPDEST JUMPDEST SUB PUSH2 0x34E4 JUMPI DUP3 PUSH20 0xFFFFFFFFFFFFFFFFFFFFFFFFFFFFFFFFFFFFFFFF AND PUSH4 0x53C059A0 DUP5 PUSH20 0xFFFFFFFFFFFFFFFFFFFFFFFFFFFFFFFFFFFFFFFF AND PUSH4 0xB7D19FC4 PUSH1 0x40 MLOAD DUP2 PUSH4 0xFFFFFFFF AND PUSH1 0xE0 SHL DUP2 MSTORE PUSH1 0x4 ADD PUSH1 0x20 PUSH1 0x40 MLOAD DUP1 DUP4 SUB DUP2 DUP7 GAS STATICCALL ISZERO DUP1 ISZERO PUSH2 0x342E JUMPI RETURNDATASIZE PUSH0 DUP1 RETURNDATACOPY RETURNDATASIZE PUSH0 REVERT JUMPDEST POP POP POP POP PUSH1 0x40 MLOAD RETURNDATASIZE PUSH1 0x1F NOT PUSH1 0x1F DUP3 ADD AND DUP3 ADD DUP1 PUSH1 0x40 MSTORE POP DUP2 ADD SWAP1 PUSH2 0x3452 SWAP2 SWAP1 PUSH2 0x6AE7 JUMP JUMPDEST PUSH20 0xFFFFFFFFFFFFFFFFFFFFFFFFFFFFFFFFFFFFFFFF AND DUP5 PUSH20 0xFFFFFFFFFFFFFFFFFFFFFFFFFFFFFFFFFFFFFFFF AND EQ DUP7 PUSH1 0x40 MLOAD DUP4 PUSH4 0xFFFFFFFF AND PUSH1 0xE0 SHL DUP2 MSTORE PUSH1 0x4 ADD PUSH2 0x349E SWAP3 SWAP2 SWAP1 PUSH2 0x6F19 JUMP JUMPDEST PUSH1 0x40 DUP1 MLOAD DUP1 DUP4 SUB DUP2 PUSH0 DUP8 GAS CALL ISZERO DUP1 ISZERO PUSH2 0x34B9 JUMPI RETURNDATASIZE PUSH0 DUP1 RETURNDATACOPY RETURNDATASIZE PUSH0 REVERT JUMPDEST POP POP POP POP PUSH1 0x40 MLOAD RETURNDATASIZE PUSH1 0x1F NOT PUSH1 0x1F DUP3 ADD AND DUP3 ADD DUP1 PUSH1 0x40 MSTORE POP DUP2 ADD SWAP1 PUSH2 0x34DD SWAP2 SWAP1 PUSH2 0x6F40 JUMP JUMPDEST POP POP PUSH2 0x35FB JUMP JUMPDEST DUP3 PUSH20 0xFFFFFFFFFFFFFFFFFFFFFFFFFFFFFFFFFFFFFFFF AND PUSH4 0x53C059A0 DUP5 PUSH20 0xFFFFFFFFFFFFFFFFFFFFFFFFFFFFFFFFFFFFFFFF AND PUSH4 0xDA10610C PUSH1 0x40 MLOAD DUP2 PUSH4 0xFFFFFFFF AND PUSH1 0xE0 SHL DUP2 MSTORE PUSH1 0x4 ADD PUSH1 0x20 PUSH1 0x40 MLOAD DUP1 DUP4 SUB DUP2 DUP7 GAS STATICCALL ISZERO DUP1 ISZERO PUSH2 0x3549 JUMPI RETURNDATASIZE PUSH0 DUP1 RETURNDATACOPY RETURNDATASIZE PUSH0 REVERT JUMPDEST POP POP POP POP PUSH1 0x40 MLOAD RETURNDATASIZE PUSH1 0x1F NOT PUSH1 0x1F DUP3 ADD AND DUP3 ADD DUP1 PUSH1 0x40 MSTORE POP DUP2 ADD SWAP1 PUSH2 0x356D SWAP2 SWAP1 PUSH2 0x6AE7 JUMP JUMPDEST PUSH20 0xFFFFFFFFFFFFFFFFFFFFFFFFFFFFFFFFFFFFFFFF AND DUP5 PUSH20 0xFFFFFFFFFFFFFFFFFFFFFFFFFFFFFFFFFFFFFFFF AND EQ DUP7 PUSH1 0x40 MLOAD DUP4 PUSH4 0xFFFFFFFF AND PUSH1 0xE0 SHL DUP2 MSTORE PUSH1 0x4 ADD PUSH2 0x35B9 SWAP3 SWAP2 SWAP1 PUSH2 0x6F19 JUMP JUMPDEST PUSH1 0x20 PUSH1 0x40 MLOAD DUP1 DUP4 SUB DUP2 PUSH0 DUP8 GAS CALL ISZERO DUP1 ISZERO PUSH2 0x35D5 JUMPI RETURNDATASIZE PUSH0 DUP1 RETURNDATACOPY RETURNDATASIZE PUSH0 REVERT JUMPDEST POP POP POP POP PUSH1 0x40 MLOAD RETURNDATASIZE PUSH1 0x1F NOT PUSH1 0x1F DUP3 ADD AND DUP3 ADD DUP1 PUSH1 0x40 MSTORE POP DUP2 ADD SWAP1 PUSH2 0x35F9 SWAP2 SWAP1 PUSH2 0x6FB1 JUMP JUMPDEST POP JUMPDEST JUMPDEST DUP1 PUSH1 0x1 ADD SWAP1 POP PUSH2 0x3003 JUMP JUMPDEST POP POP POP POP POP POP POP POP POP POP JUMP JUMPDEST PUSH0 DUP2 SUB ISZERO PUSH2 0x36AC JUMPI PUSH32 0x0 PUSH20 0xFFFFFFFFFFFFFFFFFFFFFFFFFFFFFFFFFFFFFFFF AND PUSH4 0x2E1A7D4D DUP3 PUSH1 0x40 MLOAD DUP3 PUSH4 0xFFFFFFFF AND PUSH1 0xE0 SHL DUP2 MSTORE PUSH1 0x4 ADD PUSH2 0x3674 SWAP2 SWAP1 PUSH2 0x5DD4 JUMP JUMPDEST PUSH0 PUSH1 0x40 MLOAD DUP1 DUP4 SUB DUP2 PUSH0 DUP8 DUP1 EXTCODESIZE ISZERO DUP1 ISZERO PUSH2 0x368B JUMPI PUSH0 DUP1 REVERT JUMPDEST POP GAS CALL ISZERO DUP1 ISZERO PUSH2 0x369D JUMPI RETURNDATASIZE PUSH0 DUP1 RETURNDATACOPY RETURNDATASIZE PUSH0 REVERT JUMPDEST POP POP POP POP PUSH2 0x36AB DUP3 DUP3 PUSH2 0x41D9 JUMP JUMPDEST JUMPDEST POP POP JUMP JUMPDEST PUSH1 0x60 DUP3 MLOAD PUSH8 0xFFFFFFFFFFFFFFFF DUP2 GT ISZERO PUSH2 0x36CD JUMPI PUSH2 0x36CC PUSH2 0x58F0 JUMP JUMPDEST JUMPDEST PUSH1 0x40 MLOAD SWAP1 DUP1 DUP3 MSTORE DUP1 PUSH1 0x20 MUL PUSH1 0x20 ADD DUP3 ADD PUSH1 0x40 MSTORE DUP1 ISZERO PUSH2 0x36FB JUMPI DUP2 PUSH1 0x20 ADD PUSH1 0x20 DUP3 MUL DUP1 CALLDATASIZE DUP4 CALLDATACOPY DUP1 DUP3 ADD SWAP2 POP POP SWAP1 POP JUMPDEST POP SWAP1 POP DUP2 DUP2 DUP6 MLOAD DUP2 MLOAD DUP2 LT PUSH2 0x3713 JUMPI PUSH2 0x3712 PUSH2 0x691C JUMP JUMPDEST JUMPDEST PUSH1 0x20 MUL PUSH1 0x20 ADD ADD DUP2 DUP2 MSTORE POP POP PUSH0 DUP5 MLOAD SWAP1 POP JUMPDEST PUSH0 DUP2 EQ PUSH2 0x3C00 JUMPI PUSH0 DUP5 PUSH1 0x1 DUP4 PUSH2 0x373B SWAP2 SWAP1 PUSH2 0x69B0 JUMP JUMPDEST DUP2 MLOAD DUP2 LT PUSH2 0x374C JUMPI PUSH2 0x374B PUSH2 0x691C JUMP JUMPDEST JUMPDEST PUSH1 0x20 MUL PUSH1 0x20 ADD ADD MLOAD SWAP1 POP PUSH0 DUP8 PUSH1 0x1 DUP5 PUSH2 0x3765 SWAP2 SWAP1 PUSH2 0x69B0 JUMP JUMPDEST DUP2 MLOAD DUP2 LT PUSH2 0x3776 JUMPI PUSH2 0x3775 PUSH2 0x691C JUMP JUMPDEST JUMPDEST PUSH1 0x20 MUL PUSH1 0x20 ADD ADD MLOAD SWAP1 POP PUSH0 DUP8 PUSH1 0x1 DUP6 PUSH2 0x378F SWAP2 SWAP1 PUSH2 0x69B0 JUMP JUMPDEST DUP2 MLOAD DUP2 LT PUSH2 0x37A0 JUMPI PUSH2 0x379F PUSH2 0x691C JUMP JUMPDEST JUMPDEST PUSH1 0x20 MUL PUSH1 0x20 ADD ADD MLOAD SWAP1 POP PUSH0 PUSH1 0x3 DUP2 GT ISZERO PUSH2 0x37BD JUMPI PUSH2 0x37BC PUSH2 0x6D24 JUMP JUMPDEST JUMPDEST DUP3 PUSH1 0x3 DUP2 GT ISZERO PUSH2 0x37D0 JUMPI PUSH2 0x37CF PUSH2 0x6D24 JUMP JUMPDEST JUMPDEST SUB PUSH2 0x393A JUMPI PUSH0 DUP1 DUP3 PUSH20 0xFFFFFFFFFFFFFFFFFFFFFFFFFFFFFFFFFFFFFFFF AND PUSH4 0x902F1AC PUSH1 0x40 MLOAD DUP2 PUSH4 0xFFFFFFFF AND PUSH1 0xE0 SHL DUP2 MSTORE PUSH1 0x4 ADD PUSH1 0x60 PUSH1 0x40 MLOAD DUP1 DUP4 SUB DUP2 DUP7 GAS STATICCALL ISZERO DUP1 ISZERO PUSH2 0x3820 JUMPI RETURNDATASIZE PUSH0 DUP1 RETURNDATACOPY RETURNDATASIZE PUSH0 REVERT JUMPDEST POP POP POP POP PUSH1 0x40 MLOAD RETURNDATASIZE PUSH1 0x1F NOT PUSH1 0x1F DUP3 ADD AND DUP3 ADD DUP1 PUSH1 0x40 MSTORE POP DUP2 ADD SWAP1 PUSH2 0x3844 SWAP2 SWAP1 PUSH2 0x6DCD JUMP JUMPDEST POP PUSH14 0xFFFFFFFFFFFFFFFFFFFFFFFFFFFF AND SWAP2 POP PUSH14 0xFFFFFFFFFFFFFFFFFFFFFFFFFFFF AND SWAP2 POP DUP9 DUP7 DUP2 MLOAD DUP2 LT PUSH2 0x387C JUMPI PUSH2 0x387B PUSH2 0x691C JUMP JUMPDEST JUMPDEST PUSH1 0x20 MUL PUSH1 0x20 ADD ADD MLOAD PUSH20 0xFFFFFFFFFFFFFFFFFFFFFFFFFFFFFFFFFFFFFFFF AND DUP6 PUSH20 0xFFFFFFFFFFFFFFFFFFFFFFFFFFFFFFFFFFFFFFFF AND GT ISZERO PUSH2 0x38C2 JUMPI DUP1 DUP3 DUP1 SWAP3 POP DUP2 SWAP4 POP POP POP JUMPDEST PUSH0 DUP8 DUP8 DUP2 MLOAD DUP2 LT PUSH2 0x38D6 JUMPI PUSH2 0x38D5 PUSH2 0x691C JUMP JUMPDEST JUMPDEST PUSH1 0x20 MUL PUSH1 0x20 ADD ADD MLOAD SWAP1 POP PUSH2 0x38F5 DUP4 DUP4 DUP4 PUSH2 0x55D9 SWAP1 SWAP3 SWAP2 SWAP1 PUSH4 0xFFFFFFFF AND JUMP JUMPDEST PUSH16 0xFFFFFFFFFFFFFFFFFFFFFFFFFFFFFFFF AND DUP9 PUSH1 0x1 DUP10 PUSH2 0x3915 SWAP2 SWAP1 PUSH2 0x69B0 JUMP JUMPDEST DUP2 MLOAD DUP2 LT PUSH2 0x3926 JUMPI PUSH2 0x3925 PUSH2 0x691C JUMP JUMPDEST JUMPDEST PUSH1 0x20 MUL PUSH1 0x20 ADD ADD DUP2 DUP2 MSTORE POP POP POP POP POP PUSH2 0x3BEA JUMP JUMPDEST PUSH1 0x1 PUSH1 0x3 DUP2 GT ISZERO PUSH2 0x394E JUMPI PUSH2 0x394D PUSH2 0x6D24 JUMP JUMPDEST JUMPDEST DUP3 PUSH1 0x3 DUP2 GT ISZERO PUSH2 0x3961 JUMPI PUSH2 0x3960 PUSH2 0x6D24 JUMP JUMPDEST JUMPDEST SUB PUSH2 0x3AE6 JUMPI PUSH32 0x0 PUSH20 0xFFFFFFFFFFFFFFFFFFFFFFFFFFFFFFFFFFFFFFFF AND PUSH4 0x5BDD4B7C DUP3 DUP8 DUP8 DUP2 MLOAD DUP2 LT PUSH2 0x39B6 JUMPI PUSH2 0x39B5 PUSH2 0x691C JUMP JUMPDEST JUMPDEST PUSH1 0x20 MUL PUSH1 0x20 ADD ADD MLOAD DUP7 PUSH20 0xFFFFFFFFFFFFFFFFFFFFFFFFFFFFFFFFFFFFFFFF AND DUP6 PUSH20 0xFFFFFFFFFFFFFFFFFFFFFFFFFFFFFFFFFFFFFFFF AND PUSH4 0x16DC165B PUSH1 0x40 MLOAD DUP2 PUSH4 0xFFFFFFFF AND PUSH1 0xE0 SHL DUP2 MSTORE PUSH1 0x4 ADD PUSH1 0x20 PUSH1 0x40 MLOAD DUP1 DUP4 SUB DUP2 DUP7 GAS STATICCALL ISZERO DUP1 ISZERO PUSH2 0x3A1E JUMPI RETURNDATASIZE PUSH0 DUP1 RETURNDATACOPY RETURNDATASIZE PUSH0 REVERT JUMPDEST POP POP POP POP PUSH1 0x40 MLOAD RETURNDATASIZE PUSH1 0x1F NOT PUSH1 0x1F DUP3 ADD AND DUP3 ADD DUP1 PUSH1 0x40 MSTORE POP DUP2 ADD SWAP1 PUSH2 0x3A42 SWAP2 SWAP1 PUSH2 0x6AE7 JUMP JUMPDEST PUSH20 0xFFFFFFFFFFFFFFFFFFFFFFFFFFFFFFFFFFFFFFFF AND EQ PUSH1 0x40 MLOAD DUP5 PUSH4 0xFFFFFFFF AND PUSH1 0xE0 SHL DUP2 MSTORE PUSH1 0x4 ADD PUSH2 0x3A77 SWAP4 SWAP3 SWAP2 SWAP1 PUSH2 0x702C JUMP JUMPDEST PUSH1 0x40 DUP1 MLOAD DUP1 DUP4 SUB DUP2 DUP7 GAS STATICCALL ISZERO DUP1 ISZERO PUSH2 0x3A91 JUMPI RETURNDATASIZE PUSH0 DUP1 RETURNDATACOPY RETURNDATASIZE PUSH0 REVERT JUMPDEST POP POP POP POP PUSH1 0x40 MLOAD RETURNDATASIZE PUSH1 0x1F NOT PUSH1 0x1F DUP3 ADD AND DUP3 ADD DUP1 PUSH1 0x40 MSTORE POP DUP2 ADD SWAP1 PUSH2 0x3AB5 SWAP2 SWAP1 PUSH2 0x6F40 JUMP JUMPDEST POP DUP6 PUSH1 0x1 DUP7 PUSH2 0x3AC4 SWAP2 SWAP1 PUSH2 0x69B0 JUMP JUMPDEST DUP2 MLOAD DUP2 LT PUSH2 0x3AD5 JUMPI PUSH2 0x3AD4 PUSH2 0x691C JUMP JUMPDEST JUMPDEST PUSH1 0x20 MUL PUSH1 0x20 ADD ADD DUP2 DUP2 MSTORE POP POP PUSH2 0x3BE9 JUMP JUMPDEST PUSH2 0x3BA5 DUP2 DUP7 DUP7 DUP2 MLOAD DUP2 LT PUSH2 0x3AFD JUMPI PUSH2 0x3AFC PUSH2 0x691C JUMP JUMPDEST JUMPDEST PUSH1 0x20 MUL PUSH1 0x20 ADD ADD MLOAD DUP6 PUSH20 0xFFFFFFFFFFFFFFFFFFFFFFFFFFFFFFFFFFFFFFFF AND DUP5 PUSH20 0xFFFFFFFFFFFFFFFFFFFFFFFFFFFFFFFFFFFFFFFF AND PUSH4 0x5E8746D PUSH1 0x40 MLOAD DUP2 PUSH4 0xFFFFFFFF AND PUSH1 0xE0 SHL DUP2 MSTORE PUSH1 0x4 ADD PUSH1 0x20 PUSH1 0x40 MLOAD DUP1 DUP4 SUB DUP2 DUP7 GAS STATICCALL ISZERO DUP1 ISZERO PUSH2 0x3B65 JUMPI RETURNDATASIZE PUSH0 DUP1 RETURNDATACOPY RETURNDATASIZE PUSH0 REVERT JUMPDEST POP POP POP POP PUSH1 0x40 MLOAD RETURNDATASIZE PUSH1 0x1F NOT PUSH1 0x1F DUP3 ADD AND DUP3 ADD DUP1 PUSH1 0x40 MSTORE POP DUP2 ADD SWAP1 PUSH2 0x3B89 SWAP2 SWAP1 PUSH2 0x6AE7 JUMP JUMPDEST PUSH20 0xFFFFFFFFFFFFFFFFFFFFFFFFFFFFFFFFFFFFFFFF AND EQ PUSH2 0x1FD5 JUMP JUMPDEST DUP3 PUSH16 0xFFFFFFFFFFFFFFFFFFFFFFFFFFFFFFFF AND SWAP3 POP SWAP1 POP POP DUP6 PUSH1 0x1 DUP7 PUSH2 0x3BCB SWAP2 SWAP1 PUSH2 0x69B0 JUMP JUMPDEST DUP2 MLOAD DUP2 LT PUSH2 0x3BDC JUMPI PUSH2 0x3BDB PUSH2 0x691C JUMP JUMPDEST JUMPDEST PUSH1 0x20 MUL PUSH1 0x20 ADD ADD DUP2 DUP2 MSTORE POP POP JUMPDEST JUMPDEST POP POP POP DUP1 DUP1 PUSH2 0x3BF8 SWAP1 PUSH2 0x7061 JUMP JUMPDEST SWAP2 POP POP PUSH2 0x3725 JUMP JUMPDEST POP SWAP5 SWAP4 POP POP POP POP JUMP JUMPDEST PUSH0 DUP2 SUB ISZERO PUSH2 0x3CDA JUMPI PUSH32 0x0 PUSH20 0xFFFFFFFFFFFFFFFFFFFFFFFFFFFFFFFFFFFFFFFF AND PUSH4 0xD0E30DB0 DUP3 PUSH1 0x40 MLOAD DUP3 PUSH4 0xFFFFFFFF AND PUSH1 0xE0 SHL DUP2 MSTORE PUSH1 0x4 ADD PUSH0 PUSH1 0x40 MLOAD DUP1 DUP4 SUB DUP2 DUP6 DUP9 DUP1 EXTCODESIZE ISZERO DUP1 ISZERO PUSH2 0x3C77 JUMPI PUSH0 DUP1 REVERT JUMPDEST POP GAS CALL ISZERO DUP1 ISZERO PUSH2 0x3C89 JUMPI RETURNDATASIZE PUSH0 DUP1 RETURNDATACOPY RETURNDATASIZE PUSH0 REVERT JUMPDEST POP POP POP POP POP PUSH2 0x3CD9 DUP3 DUP3 PUSH32 0x0 PUSH20 0xFFFFFFFFFFFFFFFFFFFFFFFFFFFFFFFFFFFFFFFF AND PUSH2 0x4835 SWAP1 SWAP3 SWAP2 SWAP1 PUSH4 0xFFFFFFFF AND JUMP JUMPDEST JUMPDEST POP POP JUMP JUMPDEST PUSH0 DUP1 PUSH0 DUP1 PUSH0 DUP1 DUP9 PUSH0 DUP2 MLOAD DUP2 LT PUSH2 0x3CF7 JUMPI PUSH2 0x3CF6 PUSH2 0x691C JUMP JUMPDEST JUMPDEST PUSH1 0x20 MUL PUSH1 0x20 ADD ADD MLOAD SWAP1 POP PUSH0 JUMPDEST DUP12 MLOAD DUP2 LT ISZERO PUSH2 0x41CA JUMPI DUP12 DUP2 DUP2 MLOAD DUP2 LT PUSH2 0x3D1F JUMPI PUSH2 0x3D1E PUSH2 0x691C JUMP JUMPDEST JUMPDEST PUSH1 0x20 MUL PUSH1 0x20 ADD ADD MLOAD SWAP4 POP DUP11 DUP2 DUP2 MLOAD DUP2 LT PUSH2 0x3D3C JUMPI PUSH2 0x3D3B PUSH2 0x691C JUMP JUMPDEST JUMPDEST PUSH1 0x20 MUL PUSH1 0x20 ADD ADD MLOAD SWAP3 POP DUP2 SWAP6 POP DUP10 PUSH1 0x1 DUP3 ADD DUP2 MLOAD DUP2 LT PUSH2 0x3D5F JUMPI PUSH2 0x3D5E PUSH2 0x691C JUMP JUMPDEST JUMPDEST PUSH1 0x20 MUL PUSH1 0x20 ADD ADD MLOAD SWAP2 POP DUP12 MLOAD PUSH1 0x1 DUP3 ADD EQ PUSH2 0x3D97 JUMPI DUP12 PUSH1 0x1 DUP3 ADD DUP2 MLOAD DUP2 LT PUSH2 0x3D8A JUMPI PUSH2 0x3D89 PUSH2 0x691C JUMP JUMPDEST JUMPDEST PUSH1 0x20 MUL PUSH1 0x20 ADD ADD MLOAD PUSH2 0x3D99 JUMP JUMPDEST DUP8 JUMPDEST SWAP5 POP PUSH0 PUSH1 0x3 DUP2 GT ISZERO PUSH2 0x3DAE JUMPI PUSH2 0x3DAD PUSH2 0x6D24 JUMP JUMPDEST JUMPDEST DUP4 PUSH1 0x3 DUP2 GT ISZERO PUSH2 0x3DC1 JUMPI PUSH2 0x3DC0 PUSH2 0x6D24 JUMP JUMPDEST JUMPDEST SUB PUSH2 0x3EF9 JUMPI DUP9 PUSH1 0x1 DUP3 ADD DUP2 MLOAD DUP2 LT PUSH2 0x3DDC JUMPI PUSH2 0x3DDB PUSH2 0x691C JUMP JUMPDEST JUMPDEST PUSH1 0x20 MUL PUSH1 0x20 ADD ADD MLOAD SWAP7 POP DUP2 PUSH20 0xFFFFFFFFFFFFFFFFFFFFFFFFFFFFFFFFFFFFFFFF AND DUP7 PUSH20 0xFFFFFFFFFFFFFFFFFFFFFFFFFFFFFFFFFFFFFFFF AND LT ISZERO PUSH2 0x3E89 JUMPI DUP4 PUSH20 0xFFFFFFFFFFFFFFFFFFFFFFFFFFFFFFFFFFFFFFFF AND PUSH4 0x22C0D9F PUSH0 DUP10 DUP9 PUSH1 0x40 MLOAD DUP5 PUSH4 0xFFFFFFFF AND PUSH1 0xE0 SHL DUP2 MSTORE PUSH1 0x4 ADD PUSH2 0x3E57 SWAP4 SWAP3 SWAP2 SWAP1 PUSH2 0x6E89 JUMP JUMPDEST PUSH0 PUSH1 0x40 MLOAD DUP1 DUP4 SUB DUP2 PUSH0 DUP8 DUP1 EXTCODESIZE ISZERO DUP1 ISZERO PUSH2 0x3E6E JUMPI PUSH0 DUP1 REVERT JUMPDEST POP GAS CALL ISZERO DUP1 ISZERO PUSH2 0x3E80 JUMPI RETURNDATASIZE PUSH0 DUP1 RETURNDATACOPY RETURNDATASIZE PUSH0 REVERT JUMPDEST POP POP POP POP PUSH2 0x3EF4 JUMP JUMPDEST DUP4 PUSH20 0xFFFFFFFFFFFFFFFFFFFFFFFFFFFFFFFFFFFFFFFF AND PUSH4 0x22C0D9F DUP9 PUSH0 DUP9 PUSH1 0x40 MLOAD DUP5 PUSH4 0xFFFFFFFF AND PUSH1 0xE0 SHL DUP2 MSTORE PUSH1 0x4 ADD PUSH2 0x3EC6 SWAP4 SWAP3 SWAP2 SWAP1 PUSH2 0x6ED1 JUMP JUMPDEST PUSH0 PUSH1 0x40 MLOAD DUP1 DUP4 SUB DUP2 PUSH0 DUP8 DUP1 EXTCODESIZE ISZERO DUP1 ISZERO PUSH2 0x3EDD JUMPI PUSH0 DUP1 REVERT JUMPDEST POP GAS CALL ISZERO DUP1 ISZERO PUSH2 0x3EEF JUMPI RETURNDATASIZE PUSH0 DUP1 RETURNDATACOPY RETURNDATASIZE PUSH0 REVERT JUMPDEST POP POP POP POP JUMPDEST PUSH2 0x41BF JUMP JUMPDEST PUSH1 0x1 PUSH1 0x3 DUP2 GT ISZERO PUSH2 0x3F0D JUMPI PUSH2 0x3F0C PUSH2 0x6D24 JUMP JUMPDEST JUMPDEST DUP4 PUSH1 0x3 DUP2 GT ISZERO PUSH2 0x3F20 JUMPI PUSH2 0x3F1F PUSH2 0x6D24 JUMP JUMPDEST JUMPDEST SUB PUSH2 0x405D JUMPI PUSH0 DUP5 PUSH20 0xFFFFFFFFFFFFFFFFFFFFFFFFFFFFFFFFFFFFFFFF AND PUSH4 0xB7D19FC4 PUSH1 0x40 MLOAD DUP2 PUSH4 0xFFFFFFFF AND PUSH1 0xE0 SHL DUP2 MSTORE PUSH1 0x4 ADD PUSH1 0x20 PUSH1 0x40 MLOAD DUP1 DUP4 SUB DUP2 DUP7 GAS STATICCALL ISZERO DUP1 ISZERO PUSH2 0x3F6F JUMPI RETURNDATASIZE PUSH0 DUP1 RETURNDATACOPY RETURNDATASIZE PUSH0 REVERT JUMPDEST POP POP POP POP PUSH1 0x40 MLOAD RETURNDATASIZE PUSH1 0x1F NOT PUSH1 0x1F DUP3 ADD AND DUP3 ADD DUP1 PUSH1 0x40 MSTORE POP DUP2 ADD SWAP1 PUSH2 0x3F93 SWAP2 SWAP1 PUSH2 0x6AE7 JUMP JUMPDEST PUSH20 0xFFFFFFFFFFFFFFFFFFFFFFFFFFFFFFFFFFFFFFFF AND DUP4 PUSH20 0xFFFFFFFFFFFFFFFFFFFFFFFFFFFFFFFFFFFFFFFF AND EQ SWAP1 POP PUSH0 DUP1 DUP7 PUSH20 0xFFFFFFFFFFFFFFFFFFFFFFFFFFFFFFFFFFFFFFFF AND PUSH4 0x53C059A0 DUP5 DUP11 PUSH1 0x40 MLOAD DUP4 PUSH4 0xFFFFFFFF AND PUSH1 0xE0 SHL DUP2 MSTORE PUSH1 0x4 ADD PUSH2 0x4000 SWAP3 SWAP2 SWAP1 PUSH2 0x6F19 JUMP JUMPDEST PUSH1 0x40 DUP1 MLOAD DUP1 DUP4 SUB DUP2 PUSH0 DUP8 GAS CALL ISZERO DUP1 ISZERO PUSH2 0x401B JUMPI RETURNDATASIZE PUSH0 DUP1 RETURNDATACOPY RETURNDATASIZE PUSH0 REVERT JUMPDEST POP POP POP POP PUSH1 0x40 MLOAD RETURNDATASIZE PUSH1 0x1F NOT PUSH1 0x1F DUP3 ADD AND DUP3 ADD DUP1 PUSH1 0x40 MSTORE POP DUP2 ADD SWAP1 PUSH2 0x403F SWAP2 SWAP1 PUSH2 0x6F40 JUMP JUMPDEST SWAP2 POP SWAP2 POP DUP3 ISZERO PUSH2 0x4051 JUMPI DUP1 SWAP10 POP PUSH2 0x4055 JUMP JUMPDEST DUP2 SWAP10 POP JUMPDEST POP POP POP PUSH2 0x41BE JUMP JUMPDEST PUSH0 DUP5 PUSH20 0xFFFFFFFFFFFFFFFFFFFFFFFFFFFFFFFFFFFFFFFF AND PUSH4 0xDA10610C PUSH1 0x40 MLOAD DUP2 PUSH4 0xFFFFFFFF AND PUSH1 0xE0 SHL DUP2 MSTORE PUSH1 0x4 ADD PUSH1 0x20 PUSH1 0x40 MLOAD DUP1 DUP4 SUB DUP2 DUP7 GAS STATICCALL ISZERO DUP1 ISZERO PUSH2 0x40A7 JUMPI RETURNDATASIZE PUSH0 DUP1 RETURNDATACOPY RETURNDATASIZE PUSH0 REVERT JUMPDEST POP POP POP POP PUSH1 0x40 MLOAD RETURNDATASIZE PUSH1 0x1F NOT PUSH1 0x1F DUP3 ADD AND DUP3 ADD DUP1 PUSH1 0x40 MSTORE POP DUP2 ADD SWAP1 PUSH2 0x40CB SWAP2 SWAP1 PUSH2 0x6AE7 JUMP JUMPDEST PUSH20 0xFFFFFFFFFFFFFFFFFFFFFFFFFFFFFFFFFFFFFFFF AND DUP4 PUSH20 0xFFFFFFFFFFFFFFFFFFFFFFFFFFFFFFFFFFFFFFFF AND EQ SWAP1 POP PUSH0 DUP1 PUSH2 0x4180 DUP8 PUSH20 0xFFFFFFFFFFFFFFFFFFFFFFFFFFFFFFFFFFFFFFFF AND PUSH4 0x53C059A0 DUP6 DUP12 PUSH1 0x40 MLOAD DUP4 PUSH4 0xFFFFFFFF AND PUSH1 0xE0 SHL DUP2 MSTORE PUSH1 0x4 ADD PUSH2 0x413B SWAP3 SWAP2 SWAP1 PUSH2 0x6F19 JUMP JUMPDEST PUSH1 0x20 PUSH1 0x40 MLOAD DUP1 DUP4 SUB DUP2 PUSH0 DUP8 GAS CALL ISZERO DUP1 ISZERO PUSH2 0x4157 JUMPI RETURNDATASIZE PUSH0 DUP1 RETURNDATACOPY RETURNDATASIZE PUSH0 REVERT JUMPDEST POP POP POP POP PUSH1 0x40 MLOAD RETURNDATASIZE PUSH1 0x1F NOT PUSH1 0x1F DUP3 ADD AND DUP3 ADD DUP1 PUSH1 0x40 MSTORE POP DUP2 ADD SWAP1 PUSH2 0x417B SWAP2 SWAP1 PUSH2 0x6FB1 JUMP JUMPDEST PUSH2 0x56B2 JUMP JUMPDEST PUSH16 0xFFFFFFFFFFFFFFFFFFFFFFFFFFFFFFFF AND SWAP2 POP PUSH16 0xFFFFFFFFFFFFFFFFFFFFFFFFFFFFFFFF AND SWAP2 POP DUP3 ISZERO PUSH2 0x41B6 JUMPI DUP1 SWAP10 POP PUSH2 0x41BA JUMP JUMPDEST DUP2 SWAP10 POP JUMPDEST POP POP POP JUMPDEST JUMPDEST DUP1 PUSH1 0x1 ADD SWAP1 POP PUSH2 0x3D03 JUMP JUMPDEST POP POP POP POP POP POP SWAP6 SWAP5 POP POP POP POP POP JUMP JUMPDEST PUSH0 DUP2 SUB ISZERO PUSH2 0x428F JUMPI PUSH0 DUP3 PUSH20 0xFFFFFFFFFFFFFFFFFFFFFFFFFFFFFFFFFFFFFFFF AND DUP3 PUSH1 0x40 MLOAD PUSH2 0x4206 SWAP1 PUSH2 0x70B2 JUMP JUMPDEST PUSH0 PUSH1 0x40 MLOAD DUP1 DUP4 SUB DUP2 DUP6 DUP8 GAS CALL SWAP3 POP POP POP RETURNDATASIZE DUP1 PUSH0 DUP2 EQ PUSH2 0x4240 JUMPI PUSH1 0x40 MLOAD SWAP2 POP PUSH1 0x1F NOT PUSH1 0x3F RETURNDATASIZE ADD AND DUP3 ADD PUSH1 0x40 MSTORE RETURNDATASIZE DUP3 MSTORE RETURNDATASIZE PUSH0 PUSH1 0x20 DUP5 ADD RETURNDATACOPY PUSH2 0x4245 JUMP JUMPDEST PUSH1 0x60 SWAP2 POP JUMPDEST POP POP SWAP1 POP DUP1 PUSH2 0x428D JUMPI DUP3 DUP3 PUSH1 0x40 MLOAD PUSH32 0x47B96F7000000000000000000000000000000000000000000000000000000000 DUP2 MSTORE PUSH1 0x4 ADD PUSH2 0x4284 SWAP3 SWAP2 SWAP1 PUSH2 0x70C6 JUMP JUMPDEST PUSH1 0x40 MLOAD DUP1 SWAP2 SUB SWAP1 REVERT JUMPDEST POP JUMPDEST POP POP JUMP JUMPDEST PUSH0 DUP1 PUSH0 DUP1 PUSH0 DUP1 DUP8 PUSH0 DUP2 MLOAD DUP2 LT PUSH2 0x42AC JUMPI PUSH2 0x42AB PUSH2 0x691C JUMP JUMPDEST JUMPDEST PUSH1 0x20 MUL PUSH1 0x20 ADD ADD MLOAD SWAP1 POP DUP11 SWAP6 POP PUSH0 JUMPDEST DUP11 MLOAD DUP2 LT ISZERO PUSH2 0x4826 JUMPI DUP11 DUP2 DUP2 MLOAD DUP2 LT PUSH2 0x42D7 JUMPI PUSH2 0x42D6 PUSH2 0x691C JUMP JUMPDEST JUMPDEST PUSH1 0x20 MUL PUSH1 0x20 ADD ADD MLOAD SWAP3 POP DUP10 DUP2 DUP2 MLOAD DUP2 LT PUSH2 0x42F4 JUMPI PUSH2 0x42F3 PUSH2 0x691C JUMP JUMPDEST JUMPDEST PUSH1 0x20 MUL PUSH1 0x20 ADD ADD MLOAD SWAP5 POP DUP2 SWAP6 POP DUP9 PUSH1 0x1 DUP3 ADD DUP2 MLOAD DUP2 LT PUSH2 0x4317 JUMPI PUSH2 0x4316 PUSH2 0x691C JUMP JUMPDEST JUMPDEST PUSH1 0x20 MUL PUSH1 0x20 ADD ADD MLOAD SWAP2 POP DUP11 MLOAD PUSH1 0x1 DUP3 ADD EQ PUSH2 0x434F JUMPI DUP11 PUSH1 0x1 DUP3 ADD DUP2 MLOAD DUP2 LT PUSH2 0x4342 JUMPI PUSH2 0x4341 PUSH2 0x691C JUMP JUMPDEST JUMPDEST PUSH1 0x20 MUL PUSH1 0x20 ADD ADD MLOAD PUSH2 0x4351 JUMP JUMPDEST DUP8 JUMPDEST SWAP4 POP PUSH0 PUSH1 0x3 DUP2 GT ISZERO PUSH2 0x4366 JUMPI PUSH2 0x4365 PUSH2 0x6D24 JUMP JUMPDEST JUMPDEST DUP6 PUSH1 0x3 DUP2 GT ISZERO PUSH2 0x4379 JUMPI PUSH2 0x4378 PUSH2 0x6D24 JUMP JUMPDEST JUMPDEST SUB PUSH2 0x4555 JUMPI PUSH0 DUP1 DUP5 PUSH20 0xFFFFFFFFFFFFFFFFFFFFFFFFFFFFFFFFFFFFFFFF AND PUSH4 0x902F1AC PUSH1 0x40 MLOAD DUP2 PUSH4 0xFFFFFFFF AND PUSH1 0xE0 SHL DUP2 MSTORE PUSH1 0x4 ADD PUSH1 0x60 PUSH1 0x40 MLOAD DUP1 DUP4 SUB DUP2 DUP7 GAS STATICCALL ISZERO DUP1 ISZERO PUSH2 0x43C9 JUMPI RETURNDATASIZE PUSH0 DUP1 RETURNDATACOPY RETURNDATASIZE PUSH0 REVERT JUMPDEST POP POP POP POP PUSH1 0x40 MLOAD RETURNDATASIZE PUSH1 0x1F NOT PUSH1 0x1F DUP3 ADD AND DUP3 ADD DUP1 PUSH1 0x40 MSTORE POP DUP2 ADD SWAP1 PUSH2 0x43ED SWAP2 SWAP1 PUSH2 0x6DCD JUMP JUMPDEST POP PUSH14 0xFFFFFFFFFFFFFFFFFFFFFFFFFFFF AND SWAP2 POP PUSH14 0xFFFFFFFFFFFFFFFFFFFFFFFFFFFF AND SWAP2 POP DUP4 PUSH20 0xFFFFFFFFFFFFFFFFFFFFFFFFFFFFFFFFFFFFFFFF AND DUP9 PUSH20 0xFFFFFFFFFFFFFFFFFFFFFFFFFFFFFFFFFFFFFFFF AND LT ISZERO PUSH2 0x44CC JUMPI PUSH2 0x445B DUP3 DUP3 DUP12 PUSH2 0x5507 SWAP1 SWAP3 SWAP2 SWAP1 PUSH4 0xFFFFFFFF AND JUMP JUMPDEST SWAP9 POP DUP5 PUSH20 0xFFFFFFFFFFFFFFFFFFFFFFFFFFFFFFFFFFFFFFFF AND PUSH4 0x22C0D9F PUSH0 DUP12 DUP10 PUSH1 0x40 MLOAD DUP5 PUSH4 0xFFFFFFFF AND PUSH1 0xE0 SHL DUP2 MSTORE PUSH1 0x4 ADD PUSH2 0x449A SWAP4 SWAP3 SWAP2 SWAP1 PUSH2 0x6E89 JUMP JUMPDEST PUSH0 PUSH1 0x40 MLOAD DUP1 DUP4 SUB DUP2 PUSH0 DUP8 DUP1 EXTCODESIZE ISZERO DUP1 ISZERO PUSH2 0x44B1 JUMPI PUSH0 DUP1 REVERT JUMPDEST POP GAS CALL ISZERO DUP1 ISZERO PUSH2 0x44C3 JUMPI RETURNDATASIZE PUSH0 DUP1 RETURNDATACOPY RETURNDATASIZE PUSH0 REVERT JUMPDEST POP POP POP POP PUSH2 0x454E JUMP JUMPDEST PUSH2 0x44E1 DUP2 DUP4 DUP12 PUSH2 0x5507 SWAP1 SWAP3 SWAP2 SWAP1 PUSH4 0xFFFFFFFF AND JUMP JUMPDEST SWAP9 POP DUP5 PUSH20 0xFFFFFFFFFFFFFFFFFFFFFFFFFFFFFFFFFFFFFFFF AND PUSH4 0x22C0D9F DUP11 PUSH0 DUP10 PUSH1 0x40 MLOAD DUP5 PUSH4 0xFFFFFFFF AND PUSH1 0xE0 SHL DUP2 MSTORE PUSH1 0x4 ADD PUSH2 0x4520 SWAP4 SWAP3 SWAP2 SWAP1 PUSH2 0x6ED1 JUMP JUMPDEST PUSH0 PUSH1 0x40 MLOAD DUP1 DUP4 SUB DUP2 PUSH0 DUP8 DUP1 EXTCODESIZE ISZERO DUP1 ISZERO PUSH2 0x4537 JUMPI PUSH0 DUP1 REVERT JUMPDEST POP GAS CALL ISZERO DUP1 ISZERO PUSH2 0x4549 JUMPI RETURNDATASIZE PUSH0 DUP1 RETURNDATACOPY RETURNDATASIZE PUSH0 REVERT JUMPDEST POP POP POP POP JUMPDEST POP POP PUSH2 0x481B JUMP JUMPDEST PUSH1 0x1 PUSH1 0x3 DUP2 GT ISZERO PUSH2 0x4569 JUMPI PUSH2 0x4568 PUSH2 0x6D24 JUMP JUMPDEST JUMPDEST DUP6 PUSH1 0x3 DUP2 GT ISZERO PUSH2 0x457C JUMPI PUSH2 0x457B PUSH2 0x6D24 JUMP JUMPDEST JUMPDEST SUB PUSH2 0x46B9 JUMPI PUSH0 DUP4 PUSH20 0xFFFFFFFFFFFFFFFFFFFFFFFFFFFFFFFFFFFFFFFF AND PUSH4 0xB7D19FC4 PUSH1 0x40 MLOAD DUP2 PUSH4 0xFFFFFFFF AND PUSH1 0xE0 SHL DUP2 MSTORE PUSH1 0x4 ADD PUSH1 0x20 PUSH1 0x40 MLOAD DUP1 DUP4 SUB DUP2 DUP7 GAS STATICCALL ISZERO DUP1 ISZERO PUSH2 0x45CB JUMPI RETURNDATASIZE PUSH0 DUP1 RETURNDATACOPY RETURNDATASIZE PUSH0 REVERT JUMPDEST POP POP POP POP PUSH1 0x40 MLOAD RETURNDATASIZE PUSH1 0x1F NOT PUSH1 0x1F DUP3 ADD AND DUP3 ADD DUP1 PUSH1 0x40 MSTORE POP DUP2 ADD SWAP1 PUSH2 0x45EF SWAP2 SWAP1 PUSH2 0x6AE7 JUMP JUMPDEST PUSH20 0xFFFFFFFFFFFFFFFFFFFFFFFFFFFFFFFFFFFFFFFF AND DUP4 PUSH20 0xFFFFFFFFFFFFFFFFFFFFFFFFFFFFFFFFFFFFFFFF AND EQ SWAP1 POP PUSH0 DUP1 DUP6 PUSH20 0xFFFFFFFFFFFFFFFFFFFFFFFFFFFFFFFFFFFFFFFF AND PUSH4 0x53C059A0 DUP5 DUP10 PUSH1 0x40 MLOAD DUP4 PUSH4 0xFFFFFFFF AND PUSH1 0xE0 SHL DUP2 MSTORE PUSH1 0x4 ADD PUSH2 0x465C SWAP3 SWAP2 SWAP1 PUSH2 0x6F19 JUMP JUMPDEST PUSH1 0x40 DUP1 MLOAD DUP1 DUP4 SUB DUP2 PUSH0 DUP8 GAS CALL ISZERO DUP1 ISZERO PUSH2 0x4677 JUMPI RETURNDATASIZE PUSH0 DUP1 RETURNDATACOPY RETURNDATASIZE PUSH0 REVERT JUMPDEST POP POP POP POP PUSH1 0x40 MLOAD RETURNDATASIZE PUSH1 0x1F NOT PUSH1 0x1F DUP3 ADD AND DUP3 ADD DUP1 PUSH1 0x40 MSTORE POP DUP2 ADD SWAP1 PUSH2 0x469B SWAP2 SWAP1 PUSH2 0x6F40 JUMP JUMPDEST SWAP2 POP SWAP2 POP DUP3 ISZERO PUSH2 0x46AD JUMPI DUP1 SWAP10 POP PUSH2 0x46B1 JUMP JUMPDEST DUP2 SWAP10 POP JUMPDEST POP POP POP PUSH2 0x481A JUMP JUMPDEST PUSH0 DUP4 PUSH20 0xFFFFFFFFFFFFFFFFFFFFFFFFFFFFFFFFFFFFFFFF AND PUSH4 0xDA10610C PUSH1 0x40 MLOAD DUP2 PUSH4 0xFFFFFFFF AND PUSH1 0xE0 SHL DUP2 MSTORE PUSH1 0x4 ADD PUSH1 0x20 PUSH1 0x40 MLOAD DUP1 DUP4 SUB DUP2 DUP7 GAS STATICCALL ISZERO DUP1 ISZERO PUSH2 0x4703 JUMPI RETURNDATASIZE PUSH0 DUP1 RETURNDATACOPY RETURNDATASIZE PUSH0 REVERT JUMPDEST POP POP POP POP PUSH1 0x40 MLOAD RETURNDATASIZE PUSH1 0x1F NOT PUSH1 0x1F DUP3 ADD AND DUP3 ADD DUP1 PUSH1 0x40 MSTORE POP DUP2 ADD SWAP1 PUSH2 0x4727 SWAP2 SWAP1 PUSH2 0x6AE7 JUMP JUMPDEST PUSH20 0xFFFFFFFFFFFFFFFFFFFFFFFFFFFFFFFFFFFFFFFF AND DUP4 PUSH20 0xFFFFFFFFFFFFFFFFFFFFFFFFFFFFFFFFFFFFFFFF AND EQ SWAP1 POP PUSH0 DUP1 PUSH2 0x47DC DUP7 PUSH20 0xFFFFFFFFFFFFFFFFFFFFFFFFFFFFFFFFFFFFFFFF AND PUSH4 0x53C059A0 DUP6 DUP11 PUSH1 0x40 MLOAD DUP4 PUSH4 0xFFFFFFFF AND PUSH1 0xE0 SHL DUP2 MSTORE PUSH1 0x4 ADD PUSH2 0x4797 SWAP3 SWAP2 SWAP1 PUSH2 0x6F19 JUMP JUMPDEST PUSH1 0x20 PUSH1 0x40 MLOAD DUP1 DUP4 SUB DUP2 PUSH0 DUP8 GAS CALL ISZERO DUP1 ISZERO PUSH2 0x47B3 JUMPI RETURNDATASIZE PUSH0 DUP1 RETURNDATACOPY RETURNDATASIZE PUSH0 REVERT JUMPDEST POP POP POP POP PUSH1 0x40 MLOAD RETURNDATASIZE PUSH1 0x1F NOT PUSH1 0x1F DUP3 ADD AND DUP3 ADD DUP1 PUSH1 0x40 MSTORE POP DUP2 ADD SWAP1 PUSH2 0x47D7 SWAP2 SWAP1 PUSH2 0x6FB1 JUMP JUMPDEST PUSH2 0x56B2 JUMP JUMPDEST PUSH16 0xFFFFFFFFFFFFFFFFFFFFFFFFFFFFFFFF AND SWAP2 POP PUSH16 0xFFFFFFFFFFFFFFFFFFFFFFFFFFFFFFFF AND SWAP2 POP DUP3 ISZERO PUSH2 0x4812 JUMPI DUP1 SWAP10 POP PUSH2 0x4816 JUMP JUMPDEST DUP2 SWAP10 POP JUMPDEST POP POP POP JUMPDEST JUMPDEST DUP1 PUSH1 0x1 ADD SWAP1 POP PUSH2 0x42BB JUMP JUMPDEST POP POP POP POP POP POP SWAP6 SWAP5 POP POP POP POP POP JUMP JUMPDEST PUSH0 PUSH4 0xA9059CBB PUSH1 0xE0 SHL DUP4 DUP4 PUSH1 0x40 MLOAD PUSH1 0x24 ADD PUSH2 0x4851 SWAP3 SWAP2 SWAP1 PUSH2 0x70C6 JUMP JUMPDEST PUSH1 0x40 MLOAD PUSH1 0x20 DUP2 DUP4 SUB SUB DUP2 MSTORE SWAP1 PUSH1 0x40 MSTORE SWAP1 PUSH28 0xFFFFFFFFFFFFFFFFFFFFFFFFFFFFFFFFFFFFFFFFFFFFFFFFFFFFFFFF NOT AND PUSH1 0x20 DUP3 ADD DUP1 MLOAD PUSH28 0xFFFFFFFFFFFFFFFFFFFFFFFFFFFFFFFFFFFFFFFFFFFFFFFFFFFFFFFF DUP4 DUP2 DUP4 AND OR DUP4 MSTORE POP POP POP POP SWAP1 POP PUSH2 0x48BA DUP5 DUP3 PUSH2 0x56D4 JUMP JUMPDEST POP POP POP POP JUMP JUMPDEST PUSH0 PUSH1 0x1 PUSH1 0x3 DUP2 GT ISZERO PUSH2 0x48D5 JUMPI PUSH2 0x48D4 PUSH2 0x6D24 JUMP JUMPDEST JUMPDEST DUP3 PUSH1 0x3 DUP2 GT ISZERO PUSH2 0x48E8 JUMPI PUSH2 0x48E7 PUSH2 0x6D24 JUMP JUMPDEST JUMPDEST SUB PUSH2 0x4994 JUMPI PUSH32 0x0 PUSH20 0xFFFFFFFFFFFFFFFFFFFFFFFFFFFFFFFFFFFFFFFF AND PUSH4 0x704037BD DUP7 DUP7 DUP7 PUSH1 0x40 MLOAD DUP5 PUSH4 0xFFFFFFFF AND PUSH1 0xE0 SHL DUP2 MSTORE PUSH1 0x4 ADD PUSH2 0x494A SWAP4 SWAP3 SWAP2 SWAP1 PUSH2 0x70ED JUMP JUMPDEST PUSH1 0x80 PUSH1 0x40 MLOAD DUP1 DUP4 SUB DUP2 DUP7 GAS STATICCALL ISZERO DUP1 ISZERO PUSH2 0x4965 JUMPI RETURNDATASIZE PUSH0 DUP1 RETURNDATACOPY RETURNDATASIZE PUSH0 REVERT JUMPDEST POP POP POP POP PUSH1 0x40 MLOAD RETURNDATASIZE PUSH1 0x1F NOT PUSH1 0x1F DUP3 ADD AND DUP3 ADD DUP1 PUSH1 0x40 MSTORE POP DUP2 ADD SWAP1 PUSH2 0x4989 SWAP2 SWAP1 PUSH2 0x71FA JUMP JUMPDEST PUSH1 0x20 ADD MLOAD SWAP1 POP PUSH2 0x4B0B JUMP JUMPDEST PUSH1 0x2 PUSH1 0x3 DUP2 GT ISZERO PUSH2 0x49A8 JUMPI PUSH2 0x49A7 PUSH2 0x6D24 JUMP JUMPDEST JUMPDEST DUP3 PUSH1 0x3 DUP2 GT ISZERO PUSH2 0x49BB JUMPI PUSH2 0x49BA PUSH2 0x6D24 JUMP JUMPDEST JUMPDEST SUB PUSH2 0x4A67 JUMPI PUSH32 0x0 PUSH20 0xFFFFFFFFFFFFFFFFFFFFFFFFFFFFFFFFFFFFFFFF AND PUSH4 0x704037BD DUP7 DUP7 DUP7 PUSH1 0x40 MLOAD DUP5 PUSH4 0xFFFFFFFF AND PUSH1 0xE0 SHL DUP2 MSTORE PUSH1 0x4 ADD PUSH2 0x4A1D SWAP4 SWAP3 SWAP2 SWAP1 PUSH2 0x70ED JUMP JUMPDEST PUSH1 0x80 PUSH1 0x40 MLOAD DUP1 DUP4 SUB DUP2 DUP7 GAS STATICCALL ISZERO DUP1 ISZERO PUSH2 0x4A38 JUMPI RETURNDATASIZE PUSH0 DUP1 RETURNDATACOPY RETURNDATASIZE PUSH0 REVERT JUMPDEST POP POP POP POP PUSH1 0x40 MLOAD RETURNDATASIZE PUSH1 0x1F NOT PUSH1 0x1F DUP3 ADD AND DUP3 ADD DUP1 PUSH1 0x40 MSTORE POP DUP2 ADD SWAP1 PUSH2 0x4A5C SWAP2 SWAP1 PUSH2 0x729A JUMP JUMPDEST PUSH1 0x20 ADD MLOAD SWAP1 POP PUSH2 0x4B0A JUMP JUMPDEST PUSH32 0x0 PUSH20 0xFFFFFFFFFFFFFFFFFFFFFFFFFFFFFFFFFFFFFFFF AND PUSH4 0x704037BD DUP7 DUP7 DUP7 PUSH1 0x40 MLOAD DUP5 PUSH4 0xFFFFFFFF AND PUSH1 0xE0 SHL DUP2 MSTORE PUSH1 0x4 ADD PUSH2 0x4AC4 SWAP4 SWAP3 SWAP2 SWAP1 PUSH2 0x70ED JUMP JUMPDEST PUSH1 0x80 PUSH1 0x40 MLOAD DUP1 DUP4 SUB DUP2 DUP7 GAS STATICCALL ISZERO DUP1 ISZERO PUSH2 0x4ADF JUMPI RETURNDATASIZE PUSH0 DUP1 RETURNDATACOPY RETURNDATASIZE PUSH0 REVERT JUMPDEST POP POP POP POP PUSH1 0x40 MLOAD RETURNDATASIZE PUSH1 0x1F NOT PUSH1 0x1F DUP3 ADD AND DUP3 ADD DUP1 PUSH1 0x40 MSTORE POP DUP2 ADD SWAP1 PUSH2 0x4B03 SWAP2 SWAP1 PUSH2 0x729A JUMP JUMPDEST PUSH1 0x20 ADD MLOAD SWAP1 POP JUMPDEST JUMPDEST PUSH0 PUSH20 0xFFFFFFFFFFFFFFFFFFFFFFFFFFFFFFFFFFFFFFFF AND DUP2 PUSH20 0xFFFFFFFFFFFFFFFFFFFFFFFFFFFFFFFFFFFFFFFF AND SUB PUSH2 0x4B7F JUMPI DUP5 DUP5 DUP5 PUSH1 0x40 MLOAD PUSH32 0xD648E3A200000000000000000000000000000000000000000000000000000000 DUP2 MSTORE PUSH1 0x4 ADD PUSH2 0x4B76 SWAP4 SWAP3 SWAP2 SWAP1 PUSH2 0x72C5 JUMP JUMPDEST PUSH1 0x40 MLOAD DUP1 SWAP2 SUB SWAP1 REVERT JUMPDEST SWAP5 SWAP4 POP POP POP POP JUMP JUMPDEST PUSH0 DUP1 PUSH0 DUP9 PUSH20 0xFFFFFFFFFFFFFFFFFFFFFFFFFFFFFFFFFFFFFFFF AND PUSH4 0xC9939F5E CALLER DUP7 DUP10 DUP10 PUSH1 0x40 MLOAD DUP6 PUSH4 0xFFFFFFFF AND PUSH1 0xE0 SHL DUP2 MSTORE PUSH1 0x4 ADD PUSH2 0x4BC9 SWAP5 SWAP4 SWAP3 SWAP2 SWAP1 PUSH2 0x72FA JUMP JUMPDEST PUSH0 PUSH1 0x40 MLOAD DUP1 DUP4 SUB DUP2 PUSH0 DUP8 GAS CALL ISZERO DUP1 ISZERO PUSH2 0x4BE4 JUMPI RETURNDATASIZE PUSH0 DUP1 RETURNDATACOPY RETURNDATASIZE PUSH0 REVERT JUMPDEST POP POP POP POP PUSH1 0x40 MLOAD RETURNDATASIZE PUSH0 DUP3 RETURNDATACOPY RETURNDATASIZE PUSH1 0x1F NOT PUSH1 0x1F DUP3 ADD AND DUP3 ADD DUP1 PUSH1 0x40 MSTORE POP DUP2 ADD SWAP1 PUSH2 0x4C0C SWAP2 SWAP1 PUSH2 0x740B JUMP JUMPDEST SWAP1 POP PUSH0 JUMPDEST DUP2 MLOAD DUP2 LT ISZERO PUSH2 0x4CAE JUMPI PUSH2 0x4C3C DUP3 DUP3 DUP2 MLOAD DUP2 LT PUSH2 0x4C2F JUMPI PUSH2 0x4C2E PUSH2 0x691C JUMP JUMPDEST JUMPDEST PUSH1 0x20 MUL PUSH1 0x20 ADD ADD MLOAD PUSH2 0x575E JUMP JUMPDEST PUSH16 0xFFFFFFFFFFFFFFFFFFFFFFFFFFFFFFFF AND DUP5 PUSH2 0x4C59 SWAP2 SWAP1 PUSH2 0x68E9 JUMP JUMPDEST SWAP4 POP PUSH2 0x4C7E DUP3 DUP3 DUP2 MLOAD DUP2 LT PUSH2 0x4C71 JUMPI PUSH2 0x4C70 PUSH2 0x691C JUMP JUMPDEST JUMPDEST PUSH1 0x20 MUL PUSH1 0x20 ADD ADD MLOAD PUSH2 0x5779 JUMP JUMPDEST PUSH16 0xFFFFFFFFFFFFFFFFFFFFFFFFFFFFFFFF AND DUP4 PUSH2 0x4C9B SWAP2 SWAP1 PUSH2 0x68E9 JUMP JUMPDEST SWAP3 POP DUP1 PUSH2 0x4CA7 SWAP1 PUSH2 0x7452 JUMP JUMPDEST SWAP1 POP PUSH2 0x4C10 JUMP JUMPDEST POP DUP8 DUP4 LT DUP1 PUSH2 0x4CBC JUMPI POP DUP7 DUP3 LT JUMPDEST ISZERO PUSH2 0x4D04 JUMPI DUP8 DUP4 DUP9 DUP5 PUSH1 0x40 MLOAD PUSH32 0x3199F6EE00000000000000000000000000000000000000000000000000000000 DUP2 MSTORE PUSH1 0x4 ADD PUSH2 0x4CFB SWAP5 SWAP4 SWAP3 SWAP2 SWAP1 PUSH2 0x7499 JUMP JUMPDEST PUSH1 0x40 MLOAD DUP1 SWAP2 SUB SWAP1 REVERT JUMPDEST POP SWAP7 POP SWAP7 SWAP5 POP POP POP POP POP JUMP JUMPDEST PUSH0 DUP2 SUB ISZERO PUSH2 0x4D44 JUMPI PUSH2 0x4D43 DUP3 DUP3 DUP6 PUSH20 0xFFFFFFFFFFFFFFFFFFFFFFFFFFFFFFFFFFFFFFFF AND PUSH2 0x4835 SWAP1 SWAP3 SWAP2 SWAP1 PUSH4 0xFFFFFFFF AND JUMP JUMPDEST JUMPDEST POP POP POP JUMP JUMPDEST PUSH0 DUP1 PUSH0 DUP1 PUSH1 0x60 DUP1 DUP8 PUSH2 0x1C0 ADD CALLDATALOAD DUP1 TIMESTAMP GT ISZERO PUSH2 0x4D9D JUMPI DUP1 TIMESTAMP PUSH1 0x40 MLOAD PUSH32 0xDAE7CA7D00000000000000000000000000000000000000000000000000000000 DUP2 MSTORE PUSH1 0x4 ADD PUSH2 0x4D94 SWAP3 SWAP2 SWAP1 PUSH2 0x632C JUMP JUMPDEST PUSH1 0x40 MLOAD DUP1 SWAP2 SUB SWAP1 REVERT JUMPDEST DUP9 DUP1 PUSH2 0x140 ADD SWAP1 PUSH2 0x4DAE SWAP2 SWAP1 PUSH2 0x74E8 JUMP JUMPDEST SWAP1 POP DUP10 DUP1 PUSH2 0x120 ADD SWAP1 PUSH2 0x4DC1 SWAP2 SWAP1 PUSH2 0x754A JUMP JUMPDEST SWAP1 POP EQ ISZERO DUP1 PUSH2 0x4DF4 JUMPI POP DUP9 DUP1 PUSH2 0x160 ADD SWAP1 PUSH2 0x4DDC SWAP2 SWAP1 PUSH2 0x74E8 JUMP JUMPDEST SWAP1 POP DUP10 DUP1 PUSH2 0x120 ADD SWAP1 PUSH2 0x4DEF SWAP2 SWAP1 PUSH2 0x754A JUMP JUMPDEST SWAP1 POP EQ ISZERO JUMPDEST ISZERO PUSH2 0x4E2B JUMPI PUSH1 0x40 MLOAD PUSH32 0xB91B4D4D00000000000000000000000000000000000000000000000000000000 DUP2 MSTORE PUSH1 0x4 ADD PUSH1 0x40 MLOAD DUP1 SWAP2 SUB SWAP1 REVERT JUMPDEST PUSH3 0xFFFFFF DUP1 AND DUP10 PUSH1 0xE0 ADD CALLDATALOAD GT DUP1 PUSH2 0x4E4B JUMPI POP PUSH3 0xFFFFFF DUP1 AND DUP10 PUSH2 0x100 ADD CALLDATALOAD GT JUMPDEST ISZERO PUSH2 0x4E98 JUMPI DUP9 PUSH1 0xE0 ADD CALLDATALOAD DUP10 PUSH2 0x100 ADD CALLDATALOAD PUSH1 0x40 MLOAD PUSH32 0x32F4AB8E00000000000000000000000000000000000000000000000000000000 DUP2 MSTORE PUSH1 0x4 ADD PUSH2 0x4E8F SWAP3 SWAP2 SWAP1 PUSH2 0x632C JUMP JUMPDEST PUSH1 0x40 MLOAD DUP1 SWAP2 SUB SWAP1 REVERT JUMPDEST PUSH0 DUP10 DUP1 PUSH2 0x120 ADD SWAP1 PUSH2 0x4EAA SWAP2 SWAP1 PUSH2 0x754A JUMP JUMPDEST SWAP1 POP PUSH8 0xFFFFFFFFFFFFFFFF DUP2 GT ISZERO PUSH2 0x4EC5 JUMPI PUSH2 0x4EC4 PUSH2 0x58F0 JUMP JUMPDEST JUMPDEST PUSH1 0x40 MLOAD SWAP1 DUP1 DUP3 MSTORE DUP1 PUSH1 0x20 MUL PUSH1 0x20 ADD DUP3 ADD PUSH1 0x40 MSTORE DUP1 ISZERO PUSH2 0x4EF3 JUMPI DUP2 PUSH1 0x20 ADD PUSH1 0x20 DUP3 MUL DUP1 CALLDATASIZE DUP4 CALLDATACOPY DUP1 DUP3 ADD SWAP2 POP POP SWAP1 POP JUMPDEST POP SWAP1 POP DUP10 DUP1 PUSH2 0x120 ADD SWAP1 PUSH2 0x4F07 SWAP2 SWAP1 PUSH2 0x754A JUMP JUMPDEST SWAP1 POP PUSH8 0xFFFFFFFFFFFFFFFF DUP2 GT ISZERO PUSH2 0x4F22 JUMPI PUSH2 0x4F21 PUSH2 0x58F0 JUMP JUMPDEST JUMPDEST PUSH1 0x40 MLOAD SWAP1 DUP1 DUP3 MSTORE DUP1 PUSH1 0x20 MUL PUSH1 0x20 ADD DUP3 ADD PUSH1 0x40 MSTORE DUP1 ISZERO PUSH2 0x4F50 JUMPI DUP2 PUSH1 0x20 ADD PUSH1 0x20 DUP3 MUL DUP1 CALLDATASIZE DUP4 CALLDATACOPY DUP1 DUP3 ADD SWAP2 POP POP SWAP1 POP JUMPDEST POP SWAP4 POP PUSH0 DUP10 PUSH20 0xFFFFFFFFFFFFFFFFFFFFFFFFFFFFFFFFFFFFFFFF AND PUSH4 0xDBE65EDC PUSH1 0x40 MLOAD DUP2 PUSH4 0xFFFFFFFF AND PUSH1 0xE0 SHL DUP2 MSTORE PUSH1 0x4 ADD PUSH1 0x20 PUSH1 0x40 MLOAD DUP1 DUP4 SUB DUP2 DUP7 GAS STATICCALL ISZERO DUP1 ISZERO PUSH2 0x4F9D JUMPI RETURNDATASIZE PUSH0 DUP1 RETURNDATACOPY RETURNDATASIZE PUSH0 REVERT JUMPDEST POP POP POP POP PUSH1 0x40 MLOAD RETURNDATASIZE PUSH1 0x1F NOT PUSH1 0x1F DUP3 ADD AND DUP3 ADD DUP1 PUSH1 0x40 MSTORE POP DUP2 ADD SWAP1 PUSH2 0x4FC1 SWAP2 SWAP1 PUSH2 0x6CF9 JUMP JUMPDEST PUSH3 0xFFFFFF AND SWAP1 POP DUP1 DUP12 PUSH2 0x100 ADD CALLDATALOAD DUP13 PUSH1 0xE0 ADD CALLDATALOAD ADD LT DUP1 PUSH2 0x4FEB JUMPI POP DUP11 PUSH1 0xE0 ADD CALLDATALOAD DUP12 PUSH2 0x100 ADD CALLDATALOAD DUP3 ADD LT JUMPDEST ISZERO PUSH2 0x503A JUMPI DUP11 PUSH1 0xE0 ADD CALLDATALOAD DUP12 PUSH2 0x100 ADD CALLDATALOAD DUP3 PUSH1 0x40 MLOAD PUSH32 0xFAA1DB5600000000000000000000000000000000000000000000000000000000 DUP2 MSTORE PUSH1 0x4 ADD PUSH2 0x5031 SWAP4 SWAP3 SWAP2 SWAP1 PUSH2 0x75AC JUMP JUMPDEST PUSH1 0x40 MLOAD DUP1 SWAP2 SUB SWAP1 REVERT JUMPDEST PUSH0 JUMPDEST DUP3 MLOAD DUP2 LT ISZERO PUSH2 0x516D JUMPI PUSH0 DUP13 DUP1 PUSH2 0x120 ADD SWAP1 PUSH2 0x5057 SWAP2 SWAP1 PUSH2 0x754A JUMP JUMPDEST DUP4 DUP2 DUP2 LT PUSH2 0x5068 JUMPI PUSH2 0x5067 PUSH2 0x691C JUMP JUMPDEST JUMPDEST SWAP1 POP PUSH1 0x20 MUL ADD CALLDATALOAD DUP4 ADD SWAP1 POP PUSH0 DUP2 SLT DUP1 PUSH2 0x5085 JUMPI POP PUSH3 0xFFFFFF DUP1 AND DUP2 GT JUMPDEST ISZERO PUSH2 0x50C7 JUMPI DUP1 PUSH1 0x40 MLOAD PUSH32 0xE1505CC200000000000000000000000000000000000000000000000000000000 DUP2 MSTORE PUSH1 0x4 ADD PUSH2 0x50BE SWAP2 SWAP1 PUSH2 0x75F9 JUMP JUMPDEST PUSH1 0x40 MLOAD DUP1 SWAP2 SUB SWAP1 REVERT JUMPDEST DUP1 DUP8 DUP4 DUP2 MLOAD DUP2 LT PUSH2 0x50DB JUMPI PUSH2 0x50DA PUSH2 0x691C JUMP JUMPDEST JUMPDEST PUSH1 0x20 MUL PUSH1 0x20 ADD ADD DUP2 DUP2 MSTORE POP POP PUSH2 0x5142 DUP14 DUP1 PUSH2 0x140 ADD SWAP1 PUSH2 0x50FB SWAP2 SWAP1 PUSH2 0x74E8 JUMP JUMPDEST DUP5 DUP2 DUP2 LT PUSH2 0x510C JUMPI PUSH2 0x510B PUSH2 0x691C JUMP JUMPDEST JUMPDEST SWAP1 POP PUSH1 0x20 MUL ADD CALLDATALOAD DUP15 DUP1 PUSH2 0x160 ADD SWAP1 PUSH2 0x5124 SWAP2 SWAP1 PUSH2 0x74E8 JUMP JUMPDEST DUP6 DUP2 DUP2 LT PUSH2 0x5135 JUMPI PUSH2 0x5134 PUSH2 0x691C JUMP JUMPDEST JUMPDEST SWAP1 POP PUSH1 0x20 MUL ADD CALLDATALOAD DUP4 PUSH2 0x5785 JUMP JUMPDEST DUP5 DUP4 DUP2 MLOAD DUP2 LT PUSH2 0x5155 JUMPI PUSH2 0x5154 PUSH2 0x691C JUMP JUMPDEST JUMPDEST PUSH1 0x20 MUL PUSH1 0x20 ADD ADD DUP2 DUP2 MSTORE POP POP POP DUP1 PUSH1 0x1 ADD SWAP1 POP PUSH2 0x503C JUMP JUMPDEST POP POP PUSH0 DUP1 DUP11 PUSH20 0xFFFFFFFFFFFFFFFFFFFFFFFFFFFFFFFFFFFFFFFF AND PUSH4 0x383D15C5 DUP14 PUSH2 0x180 ADD PUSH1 0x20 DUP2 ADD SWAP1 PUSH2 0x51A1 SWAP2 SWAP1 PUSH2 0x7612 JUMP JUMPDEST DUP6 DUP16 PUSH2 0x1A0 ADD PUSH1 0x20 DUP2 ADD SWAP1 PUSH2 0x51B6 SWAP2 SWAP1 PUSH2 0x7612 JUMP JUMPDEST PUSH1 0x40 MLOAD DUP5 PUSH4 0xFFFFFFFF AND PUSH1 0xE0 SHL DUP2 MSTORE PUSH1 0x4 ADD PUSH2 0x51D4 SWAP4 SWAP3 SWAP2 SWAP1 PUSH2 0x76F4 JUMP JUMPDEST PUSH0 PUSH1 0x40 MLOAD DUP1 DUP4 SUB DUP2 PUSH0 DUP8 GAS CALL ISZERO DUP1 ISZERO PUSH2 0x51EF JUMPI RETURNDATASIZE PUSH0 DUP1 RETURNDATACOPY RETURNDATASIZE PUSH0 REVERT JUMPDEST POP POP POP POP PUSH1 0x40 MLOAD RETURNDATASIZE PUSH0 DUP3 RETURNDATACOPY RETURNDATASIZE PUSH1 0x1F NOT PUSH1 0x1F DUP3 ADD AND DUP3 ADD DUP1 PUSH1 0x40 MSTORE POP DUP2 ADD SWAP1 PUSH2 0x5217 SWAP2 SWAP1 PUSH2 0x77C5 JUMP JUMPDEST DUP1 SWAP8 POP DUP2 SWAP4 POP DUP3 SWAP5 POP POP POP POP PUSH0 PUSH2 0x5237 DUP3 DUP5 PUSH2 0x5806 SWAP1 SWAP2 SWAP1 PUSH4 0xFFFFFFFF AND JUMP JUMPDEST SWAP1 POP PUSH2 0x5242 DUP2 PUSH2 0x575E JUMP JUMPDEST PUSH16 0xFFFFFFFFFFFFFFFFFFFFFFFFFFFFFFFF AND SWAP11 POP PUSH2 0x525F DUP2 PUSH2 0x5779 JUMP JUMPDEST PUSH16 0xFFFFFFFFFFFFFFFFFFFFFFFFFFFFFFFF AND SWAP10 POP DUP13 PUSH1 0xA0 ADD CALLDATALOAD DUP12 LT DUP1 PUSH2 0x5288 JUMPI POP DUP13 PUSH1 0xC0 ADD CALLDATALOAD DUP11 LT JUMPDEST ISZERO PUSH2 0x52D8 JUMPI DUP13 PUSH1 0xA0 ADD CALLDATALOAD DUP12 DUP15 PUSH1 0xC0 ADD CALLDATALOAD DUP13 PUSH1 0x40 MLOAD PUSH32 0x3199F6EE00000000000000000000000000000000000000000000000000000000 DUP2 MSTORE PUSH1 0x4 ADD PUSH2 0x52CF SWAP5 SWAP4 SWAP3 SWAP2 SWAP1 PUSH2 0x7499 JUMP JUMPDEST PUSH1 0x40 MLOAD DUP1 SWAP2 SUB SWAP1 REVERT JUMPDEST PUSH2 0x52E1 DUP3 PUSH2 0x575E JUMP JUMPDEST PUSH16 0xFFFFFFFFFFFFFFFFFFFFFFFFFFFFFFFF AND SWAP9 POP PUSH2 0x52FE DUP3 PUSH2 0x5779 JUMP JUMPDEST PUSH16 0xFFFFFFFFFFFFFFFFFFFFFFFFFFFFFFFF AND SWAP8 POP POP POP POP POP POP SWAP3 SWAP6 POP SWAP3 SWAP6 POP SWAP3 SWAP6 JUMP JUMPDEST PUSH0 DUP1 PUSH1 0x3 DUP2 GT ISZERO PUSH2 0x5335 JUMPI PUSH2 0x5334 PUSH2 0x6D24 JUMP JUMPDEST JUMPDEST DUP3 PUSH1 0x3 DUP2 GT ISZERO PUSH2 0x5348 JUMPI PUSH2 0x5347 PUSH2 0x6D24 JUMP JUMPDEST JUMPDEST SUB PUSH2 0x5462 JUMPI PUSH32 0x0 PUSH20 0xFFFFFFFFFFFFFFFFFFFFFFFFFFFFFFFFFFFFFFFF AND PUSH4 0xE6A43905 DUP7 DUP7 PUSH1 0x40 MLOAD DUP4 PUSH4 0xFFFFFFFF AND PUSH1 0xE0 SHL DUP2 MSTORE PUSH1 0x4 ADD PUSH2 0x53A8 SWAP3 SWAP2 SWAP1 PUSH2 0x7831 JUMP JUMPDEST PUSH1 0x20 PUSH1 0x40 MLOAD DUP1 DUP4 SUB DUP2 DUP7 GAS STATICCALL ISZERO DUP1 ISZERO PUSH2 0x53C3 JUMPI RETURNDATASIZE PUSH0 DUP1 RETURNDATACOPY RETURNDATASIZE PUSH0 REVERT JUMPDEST POP POP POP POP PUSH1 0x40 MLOAD RETURNDATASIZE PUSH1 0x1F NOT PUSH1 0x1F DUP3 ADD AND DUP3 ADD DUP1 PUSH1 0x40 MSTORE POP DUP2 ADD SWAP1 PUSH2 0x53E7 SWAP2 SWAP1 PUSH2 0x69F7 JUMP JUMPDEST SWAP1 POP PUSH0 PUSH20 0xFFFFFFFFFFFFFFFFFFFFFFFFFFFFFFFFFFFFFFFF AND DUP2 PUSH20 0xFFFFFFFFFFFFFFFFFFFFFFFFFFFFFFFFFFFFFFFF AND SUB PUSH2 0x545D JUMPI DUP5 DUP5 DUP5 PUSH1 0x40 MLOAD PUSH32 0xD648E3A200000000000000000000000000000000000000000000000000000000 DUP2 MSTORE PUSH1 0x4 ADD PUSH2 0x5454 SWAP4 SWAP3 SWAP2 SWAP1 PUSH2 0x72C5 JUMP JUMPDEST PUSH1 0x40 MLOAD DUP1 SWAP2 SUB SWAP1 REVERT JUMPDEST PUSH2 0x5471 JUMP JUMPDEST PUSH2 0x546E DUP6 DUP6 DUP6 DUP6 PUSH2 0x48C0 JUMP JUMPDEST SWAP1 POP JUMPDEST SWAP5 SWAP4 POP POP POP POP JUMP JUMPDEST PUSH0 PUSH4 0x23B872DD PUSH1 0xE0 SHL DUP5 DUP5 DUP5 PUSH1 0x40 MLOAD PUSH1 0x24 ADD PUSH2 0x5497 SWAP4 SWAP3 SWAP2 SWAP1 PUSH2 0x72C5 JUMP JUMPDEST PUSH1 0x40 MLOAD PUSH1 0x20 DUP2 DUP4 SUB SUB DUP2 MSTORE SWAP1 PUSH1 0x40 MSTORE SWAP1 PUSH28 0xFFFFFFFFFFFFFFFFFFFFFFFFFFFFFFFFFFFFFFFFFFFFFFFFFFFFFFFF NOT AND PUSH1 0x20 DUP3 ADD DUP1 MLOAD PUSH28 0xFFFFFFFFFFFFFFFFFFFFFFFFFFFFFFFFFFFFFFFFFFFFFFFFFFFFFFFF DUP4 DUP2 DUP4 AND OR DUP4 MSTORE POP POP POP POP SWAP1 POP PUSH2 0x5500 DUP6 DUP3 PUSH2 0x56D4 JUMP JUMPDEST POP POP POP POP POP JUMP JUMPDEST PUSH0 DUP1 DUP5 SUB PUSH2 0x5541 JUMPI PUSH1 0x40 MLOAD PUSH32 0xB229ED3300000000000000000000000000000000000000000000000000000000 DUP2 MSTORE PUSH1 0x4 ADD PUSH1 0x40 MLOAD DUP1 SWAP2 SUB SWAP1 REVERT JUMPDEST PUSH0 DUP4 EQ DUP1 PUSH2 0x554E JUMPI POP PUSH0 DUP3 EQ JUMPDEST ISZERO PUSH2 0x5585 JUMPI PUSH1 0x40 MLOAD PUSH32 0x98C59A2900000000000000000000000000000000000000000000000000000000 DUP2 MSTORE PUSH1 0x4 ADD PUSH1 0x40 MLOAD DUP1 SWAP2 SUB SWAP1 REVERT JUMPDEST PUSH0 PUSH2 0x3E5 DUP6 PUSH2 0x5594 SWAP2 SWAP1 PUSH2 0x7858 JUMP JUMPDEST SWAP1 POP PUSH0 DUP4 DUP3 PUSH2 0x55A3 SWAP2 SWAP1 PUSH2 0x7858 JUMP JUMPDEST SWAP1 POP PUSH0 DUP3 PUSH2 0x3E8 DUP8 PUSH2 0x55B5 SWAP2 SWAP1 PUSH2 0x7858 JUMP JUMPDEST PUSH2 0x55BF SWAP2 SWAP1 PUSH2 0x68E9 JUMP JUMPDEST SWAP1 POP DUP1 DUP3 PUSH2 0x55CD SWAP2 SWAP1 PUSH2 0x78C6 JUMP JUMPDEST SWAP4 POP POP POP POP SWAP4 SWAP3 POP POP POP JUMP JUMPDEST PUSH0 DUP1 DUP5 SUB PUSH2 0x5613 JUMPI PUSH1 0x40 MLOAD PUSH32 0xB229ED3300000000000000000000000000000000000000000000000000000000 DUP2 MSTORE PUSH1 0x4 ADD PUSH1 0x40 MLOAD DUP1 SWAP2 SUB SWAP1 REVERT JUMPDEST PUSH0 DUP4 EQ DUP1 PUSH2 0x5620 JUMPI POP PUSH0 DUP3 EQ JUMPDEST ISZERO PUSH2 0x5657 JUMPI PUSH1 0x40 MLOAD PUSH32 0x98C59A2900000000000000000000000000000000000000000000000000000000 DUP2 MSTORE PUSH1 0x4 ADD PUSH1 0x40 MLOAD DUP1 SWAP2 SUB SWAP1 REVERT JUMPDEST PUSH0 PUSH2 0x3E8 DUP6 DUP6 PUSH2 0x5667 SWAP2 SWAP1 PUSH2 0x7858 JUMP JUMPDEST PUSH2 0x5671 SWAP2 SWAP1 PUSH2 0x7858 JUMP JUMPDEST SWAP1 POP PUSH0 PUSH2 0x3E5 DUP7 DUP6 PUSH2 0x5683 SWAP2 SWAP1 PUSH2 0x69B0 JUMP JUMPDEST PUSH2 0x568D SWAP2 SWAP1 PUSH2 0x7858 JUMP JUMPDEST SWAP1 POP PUSH1 0x1 DUP2 DUP4 PUSH2 0x569D SWAP2 SWAP1 PUSH2 0x78C6 JUMP JUMPDEST PUSH2 0x56A7 SWAP2 SWAP1 PUSH2 0x68E9 JUMP JUMPDEST SWAP3 POP POP POP SWAP4 SWAP3 POP POP POP JUMP JUMPDEST PUSH0 DUP1 PUSH16 0xFFFFFFFFFFFFFFFFFFFFFFFFFFFFFFFF DUP4 AND SWAP2 POP DUP3 PUSH1 0x80 SHR SWAP1 POP SWAP2 POP SWAP2 JUMP JUMPDEST PUSH0 DUP1 PUSH0 MSTORE PUSH1 0x20 PUSH0 DUP4 MLOAD PUSH1 0x20 DUP6 ADD PUSH0 DUP8 GAS CALL SWAP1 POP DUP1 PUSH0 DUP2 EQ PUSH2 0x5712 JUMPI RETURNDATASIZE PUSH0 DUP2 EQ PUSH2 0x5705 JUMPI PUSH1 0x1 PUSH0 MLOAD EQ DUP4 AND SWAP3 POP PUSH2 0x570C JUMP JUMPDEST DUP5 EXTCODESIZE ISZERO ISZERO SWAP3 POP JUMPDEST POP PUSH2 0x5721 JUMP JUMPDEST RETURNDATASIZE ISZERO PUSH2 0x5720 JUMPI RETURNDATASIZE PUSH0 DUP1 RETURNDATACOPY RETURNDATASIZE PUSH0 REVERT JUMPDEST JUMPDEST POP DUP1 PUSH2 0x5759 JUMPI PUSH1 0x40 MLOAD PUSH32 0x32E2717A00000000000000000000000000000000000000000000000000000000 DUP2 MSTORE PUSH1 0x4 ADD PUSH1 0x40 MLOAD DUP1 SWAP2 SUB SWAP1 REVERT JUMPDEST POP POP POP JUMP JUMPDEST PUSH0 PUSH16 0xFFFFFFFFFFFFFFFFFFFFFFFFFFFFFFFF DUP3 AND SWAP1 POP SWAP2 SWAP1 POP JUMP JUMPDEST PUSH0 DUP2 PUSH1 0x80 SHR SWAP1 POP SWAP2 SWAP1 POP JUMP JUMPDEST PUSH0 PUSH2 0x57B0 DUP5 PUSH8 0xFFFFFFFFFFFFFFFF AND PUSH8 0xFFFFFFFFFFFFFFFF PUSH1 0x58 DUP5 PUSH2 0x587E SWAP1 SWAP4 SWAP3 SWAP2 SWAP1 PUSH4 0xFFFFFFFF AND JUMP JUMPDEST SWAP1 POP PUSH2 0x57DC DUP4 PUSH8 0xFFFFFFFFFFFFFFFF AND PUSH8 0xFFFFFFFFFFFFFFFF PUSH1 0x18 DUP5 PUSH2 0x587E SWAP1 SWAP4 SWAP3 SWAP2 SWAP1 PUSH4 0xFFFFFFFF AND JUMP JUMPDEST SWAP1 POP PUSH2 0x57FD DUP3 PUSH3 0xFFFFFF AND PUSH3 0xFFFFFF PUSH0 DUP5 PUSH2 0x587E SWAP1 SWAP4 SWAP3 SWAP2 SWAP1 PUSH4 0xFFFFFFFF AND JUMP JUMPDEST SWAP1 POP SWAP4 SWAP3 POP POP POP JUMP JUMPDEST PUSH0 DUP2 DUP4 SUB SWAP1 POP DUP3 DUP2 GT DUP1 PUSH2 0x5841 JUMPI POP DUP3 PUSH0 SHR PUSH16 0xFFFFFFFFFFFFFFFFFFFFFFFFFFFFFFFF AND DUP2 PUSH0 SHR PUSH16 0xFFFFFFFFFFFFFFFFFFFFFFFFFFFFFFFF AND GT JUMPDEST ISZERO PUSH2 0x5878 JUMPI PUSH1 0x40 MLOAD PUSH32 0xE599AF5500000000000000000000000000000000000000000000000000000000 DUP2 MSTORE PUSH1 0x4 ADD PUSH1 0x40 MLOAD DUP1 SWAP2 SUB SWAP1 REVERT JUMPDEST SWAP3 SWAP2 POP POP JUMP JUMPDEST PUSH0 DUP3 DUP3 SHL NOT DUP6 AND SWAP1 POP DUP3 DUP5 AND DUP3 SHL DUP2 OR SWAP1 POP SWAP5 SWAP4 POP POP POP POP JUMP JUMPDEST PUSH0 PUSH1 0x40 MLOAD SWAP1 POP SWAP1 JUMP JUMPDEST PUSH0 DUP1 REVERT JUMPDEST PUSH0 DUP1 REVERT JUMPDEST PUSH0 DUP2 SWAP1 POP SWAP2 SWAP1 POP JUMP JUMPDEST PUSH2 0x58BB DUP2 PUSH2 0x58A9 JUMP JUMPDEST DUP2 EQ PUSH2 0x58C5 JUMPI PUSH0 DUP1 REVERT JUMPDEST POP JUMP JUMPDEST PUSH0 DUP2 CALLDATALOAD SWAP1 POP PUSH2 0x58D6 DUP2 PUSH2 0x58B2 JUMP JUMPDEST SWAP3 SWAP2 POP POP JUMP JUMPDEST PUSH0 DUP1 REVERT JUMPDEST PUSH0 PUSH1 0x1F NOT PUSH1 0x1F DUP4 ADD AND SWAP1 POP SWAP2 SWAP1 POP JUMP JUMPDEST PUSH32 0x4E487B7100000000000000000000000000000000000000000000000000000000 PUSH0 MSTORE PUSH1 0x41 PUSH1 0x4 MSTORE PUSH1 0x24 PUSH0 REVERT JUMPDEST PUSH2 0x5926 DUP3 PUSH2 0x58E0 JUMP JUMPDEST DUP2 ADD DUP2 DUP2 LT PUSH8 0xFFFFFFFFFFFFFFFF DUP3 GT OR ISZERO PUSH2 0x5945 JUMPI PUSH2 0x5944 PUSH2 0x58F0 JUMP JUMPDEST JUMPDEST DUP1 PUSH1 0x40 MSTORE POP POP POP JUMP JUMPDEST PUSH0 PUSH2 0x5957 PUSH2 0x5898 JUMP JUMPDEST SWAP1 POP PUSH2 0x5963 DUP3 DUP3 PUSH2 0x591D JUMP JUMPDEST SWAP2 SWAP1 POP JUMP JUMPDEST PUSH0 DUP1 REVERT JUMPDEST PUSH0 DUP1 REVERT JUMPDEST PUSH0 PUSH8 0xFFFFFFFFFFFFFFFF DUP3 GT ISZERO PUSH2 0x598A JUMPI PUSH2 0x5989 PUSH2 0x58F0 JUMP JUMPDEST JUMPDEST PUSH1 0x20 DUP3 MUL SWAP1 POP PUSH1 0x20 DUP2 ADD SWAP1 POP SWAP2 SWAP1 POP JUMP JUMPDEST PUSH0 DUP1 REVERT JUMPDEST PUSH0 PUSH2 0x59B1 PUSH2 0x59AC DUP5 PUSH2 0x5970 JUMP JUMPDEST PUSH2 0x594E JUMP JUMPDEST SWAP1 POP DUP1 DUP4 DUP3 MSTORE PUSH1 0x20 DUP3 ADD SWAP1 POP PUSH1 0x20 DUP5 MUL DUP4 ADD DUP6 DUP2 GT ISZERO PUSH2 0x59D4 JUMPI PUSH2 0x59D3 PUSH2 0x599B JUMP JUMPDEST JUMPDEST DUP4 JUMPDEST DUP2 DUP2 LT ISZERO PUSH2 0x59FD JUMPI DUP1 PUSH2 0x59E9 DUP9 DUP3 PUSH2 0x58C8 JUMP JUMPDEST DUP5 MSTORE PUSH1 0x20 DUP5 ADD SWAP4 POP POP PUSH1 0x20 DUP2 ADD SWAP1 POP PUSH2 0x59D6 JUMP JUMPDEST POP POP POP SWAP4 SWAP3 POP POP POP JUMP JUMPDEST PUSH0 DUP3 PUSH1 0x1F DUP4 ADD SLT PUSH2 0x5A1B JUMPI PUSH2 0x5A1A PUSH2 0x596C JUMP JUMPDEST JUMPDEST DUP2 CALLDATALOAD PUSH2 0x5A2B DUP5 DUP3 PUSH1 0x20 DUP7 ADD PUSH2 0x599F JUMP JUMPDEST SWAP2 POP POP SWAP3 SWAP2 POP POP JUMP JUMPDEST PUSH0 PUSH8 0xFFFFFFFFFFFFFFFF DUP3 GT ISZERO PUSH2 0x5A4E JUMPI PUSH2 0x5A4D PUSH2 0x58F0 JUMP JUMPDEST JUMPDEST PUSH1 0x20 DUP3 MUL SWAP1 POP PUSH1 0x20 DUP2 ADD SWAP1 POP SWAP2 SWAP1 POP JUMP JUMPDEST PUSH1 0x4 DUP2 LT PUSH2 0x5A6B JUMPI PUSH0 DUP1 REVERT JUMPDEST POP JUMP JUMPDEST PUSH0 DUP2 CALLDATALOAD SWAP1 POP PUSH2 0x5A7C DUP2 PUSH2 0x5A5F JUMP JUMPDEST SWAP3 SWAP2 POP POP JUMP JUMPDEST PUSH0 PUSH2 0x5A94 PUSH2 0x5A8F DUP5 PUSH2 0x5A34 JUMP JUMPDEST PUSH2 0x594E JUMP JUMPDEST SWAP1 POP DUP1 DUP4 DUP3 MSTORE PUSH1 0x20 DUP3 ADD SWAP1 POP PUSH1 0x20 DUP5 MUL DUP4 ADD DUP6 DUP2 GT ISZERO PUSH2 0x5AB7 JUMPI PUSH2 0x5AB6 PUSH2 0x599B JUMP JUMPDEST JUMPDEST DUP4 JUMPDEST DUP2 DUP2 LT ISZERO PUSH2 0x5AE0 JUMPI DUP1 PUSH2 0x5ACC DUP9 DUP3 PUSH2 0x5A6E JUMP JUMPDEST DUP5 MSTORE PUSH1 0x20 DUP5 ADD SWAP4 POP POP PUSH1 0x20 DUP2 ADD SWAP1 POP PUSH2 0x5AB9 JUMP JUMPDEST POP POP POP SWAP4 SWAP3 POP POP POP JUMP JUMPDEST PUSH0 DUP3 PUSH1 0x1F DUP4 ADD SLT PUSH2 0x5AFE JUMPI PUSH2 0x5AFD PUSH2 0x596C JUMP JUMPDEST JUMPDEST DUP2 CALLDATALOAD PUSH2 0x5B0E DUP5 DUP3 PUSH1 0x20 DUP7 ADD PUSH2 0x5A82 JUMP JUMPDEST SWAP2 POP POP SWAP3 SWAP2 POP POP JUMP JUMPDEST PUSH0 PUSH8 0xFFFFFFFFFFFFFFFF DUP3 GT ISZERO PUSH2 0x5B31 JUMPI PUSH2 0x5B30 PUSH2 0x58F0 JUMP JUMPDEST JUMPDEST PUSH1 0x20 DUP3 MUL SWAP1 POP PUSH1 0x20 DUP2 ADD SWAP1 POP SWAP2 SWAP1 POP JUMP JUMPDEST PUSH0 PUSH20 0xFFFFFFFFFFFFFFFFFFFFFFFFFFFFFFFFFFFFFFFF DUP3 AND SWAP1 POP SWAP2 SWAP1 POP JUMP JUMPDEST PUSH0 PUSH2 0x5B6B DUP3 PUSH2 0x5B42 JUMP JUMPDEST SWAP1 POP SWAP2 SWAP1 POP JUMP JUMPDEST PUSH0 PUSH2 0x5B7C DUP3 PUSH2 0x5B61 JUMP JUMPDEST SWAP1 POP SWAP2 SWAP1 POP JUMP JUMPDEST PUSH2 0x5B8C DUP2 PUSH2 0x5B72 JUMP JUMPDEST DUP2 EQ PUSH2 0x5B96 JUMPI PUSH0 DUP1 REVERT JUMPDEST POP JUMP JUMPDEST PUSH0 DUP2 CALLDATALOAD SWAP1 POP PUSH2 0x5BA7 DUP2 PUSH2 0x5B83 JUMP JUMPDEST SWAP3 SWAP2 POP POP JUMP JUMPDEST PUSH0 PUSH2 0x5BBF PUSH2 0x5BBA DUP5 PUSH2 0x5B17 JUMP JUMPDEST PUSH2 0x594E JUMP JUMPDEST SWAP1 POP DUP1 DUP4 DUP3 MSTORE PUSH1 0x20 DUP3 ADD SWAP1 POP PUSH1 0x20 DUP5 MUL DUP4 ADD DUP6 DUP2 GT ISZERO PUSH2 0x5BE2 JUMPI PUSH2 0x5BE1 PUSH2 0x599B JUMP JUMPDEST JUMPDEST DUP4 JUMPDEST DUP2 DUP2 LT ISZERO PUSH2 0x5C0B JUMPI DUP1 PUSH2 0x5BF7 DUP9 DUP3 PUSH2 0x5B99 JUMP JUMPDEST DUP5 MSTORE PUSH1 0x20 DUP5 ADD SWAP4 POP POP PUSH1 0x20 DUP2 ADD SWAP1 POP PUSH2 0x5BE4 JUMP JUMPDEST POP POP POP SWAP4 SWAP3 POP POP POP JUMP JUMPDEST PUSH0 DUP3 PUSH1 0x1F DUP4 ADD SLT PUSH2 0x5C29 JUMPI PUSH2 0x5C28 PUSH2 0x596C JUMP JUMPDEST JUMPDEST DUP2 CALLDATALOAD PUSH2 0x5C39 DUP5 DUP3 PUSH1 0x20 DUP7 ADD PUSH2 0x5BAD JUMP JUMPDEST SWAP2 POP POP SWAP3 SWAP2 POP POP JUMP JUMPDEST PUSH0 PUSH1 0x60 DUP3 DUP5 SUB SLT ISZERO PUSH2 0x5C57 JUMPI PUSH2 0x5C56 PUSH2 0x58DC JUMP JUMPDEST JUMPDEST PUSH2 0x5C61 PUSH1 0x60 PUSH2 0x594E JUMP JUMPDEST SWAP1 POP PUSH0 DUP3 ADD CALLDATALOAD PUSH8 0xFFFFFFFFFFFFFFFF DUP2 GT ISZERO PUSH2 0x5C80 JUMPI PUSH2 0x5C7F PUSH2 0x5968 JUMP JUMPDEST JUMPDEST PUSH2 0x5C8C DUP5 DUP3 DUP6 ADD PUSH2 0x5A07 JUMP JUMPDEST PUSH0 DUP4 ADD MSTORE POP PUSH1 0x20 DUP3 ADD CALLDATALOAD PUSH8 0xFFFFFFFFFFFFFFFF DUP2 GT ISZERO PUSH2 0x5CAF JUMPI PUSH2 0x5CAE PUSH2 0x5968 JUMP JUMPDEST JUMPDEST PUSH2 0x5CBB DUP5 DUP3 DUP6 ADD PUSH2 0x5AEA JUMP JUMPDEST PUSH1 0x20 DUP4 ADD MSTORE POP PUSH1 0x40 DUP3 ADD CALLDATALOAD PUSH8 0xFFFFFFFFFFFFFFFF DUP2 GT ISZERO PUSH2 0x5CDF JUMPI PUSH2 0x5CDE PUSH2 0x5968 JUMP JUMPDEST JUMPDEST PUSH2 0x5CEB DUP5 DUP3 DUP6 ADD PUSH2 0x5C15 JUMP JUMPDEST PUSH1 0x40 DUP4 ADD MSTORE POP SWAP3 SWAP2 POP POP JUMP JUMPDEST PUSH0 PUSH2 0x5D01 DUP3 PUSH2 0x5B42 JUMP JUMPDEST SWAP1 POP SWAP2 SWAP1 POP JUMP JUMPDEST PUSH2 0x5D11 DUP2 PUSH2 0x5CF7 JUMP JUMPDEST DUP2 EQ PUSH2 0x5D1B JUMPI PUSH0 DUP1 REVERT JUMPDEST POP JUMP JUMPDEST PUSH0 DUP2 CALLDATALOAD SWAP1 POP PUSH2 0x5D2C DUP2 PUSH2 0x5D08 JUMP JUMPDEST SWAP3 SWAP2 POP POP JUMP JUMPDEST PUSH0 DUP1 PUSH0 DUP1 PUSH0 PUSH1 0xA0 DUP7 DUP9 SUB SLT ISZERO PUSH2 0x5D4B JUMPI PUSH2 0x5D4A PUSH2 0x58A1 JUMP JUMPDEST JUMPDEST PUSH0 PUSH2 0x5D58 DUP9 DUP3 DUP10 ADD PUSH2 0x58C8 JUMP JUMPDEST SWAP6 POP POP PUSH1 0x20 PUSH2 0x5D69 DUP9 DUP3 DUP10 ADD PUSH2 0x58C8 JUMP JUMPDEST SWAP5 POP POP PUSH1 0x40 DUP7 ADD CALLDATALOAD PUSH8 0xFFFFFFFFFFFFFFFF DUP2 GT ISZERO PUSH2 0x5D8A JUMPI PUSH2 0x5D89 PUSH2 0x58A5 JUMP JUMPDEST JUMPDEST PUSH2 0x5D96 DUP9 DUP3 DUP10 ADD PUSH2 0x5C42 JUMP JUMPDEST SWAP4 POP POP PUSH1 0x60 PUSH2 0x5DA7 DUP9 DUP3 DUP10 ADD PUSH2 0x5D1E JUMP JUMPDEST SWAP3 POP POP PUSH1 0x80 PUSH2 0x5DB8 DUP9 DUP3 DUP10 ADD PUSH2 0x58C8 JUMP JUMPDEST SWAP2 POP POP SWAP3 SWAP6 POP SWAP3 SWAP6 SWAP1 SWAP4 POP JUMP JUMPDEST PUSH2 0x5DCE DUP2 PUSH2 0x58A9 JUMP JUMPDEST DUP3 MSTORE POP POP JUMP JUMPDEST PUSH0 PUSH1 0x20 DUP3 ADD SWAP1 POP PUSH2 0x5DE7 PUSH0 DUP4 ADD DUP5 PUSH2 0x5DC5 JUMP JUMPDEST SWAP3 SWAP2 POP POP JUMP JUMPDEST PUSH2 0x5DF6 DUP2 PUSH2 0x5B61 JUMP JUMPDEST DUP2 EQ PUSH2 0x5E00 JUMPI PUSH0 DUP1 REVERT JUMPDEST POP JUMP JUMPDEST PUSH0 DUP2 CALLDATALOAD SWAP1 POP PUSH2 0x5E11 DUP2 PUSH2 0x5DED JUMP JUMPDEST SWAP3 SWAP2 POP POP JUMP JUMPDEST PUSH0 DUP1 PUSH0 DUP1 PUSH1 0x80 DUP6 DUP8 SUB SLT ISZERO PUSH2 0x5E2F JUMPI PUSH2 0x5E2E PUSH2 0x58A1 JUMP JUMPDEST JUMPDEST PUSH0 PUSH2 0x5E3C DUP8 DUP3 DUP9 ADD PUSH2 0x58C8 JUMP JUMPDEST SWAP5 POP POP PUSH1 0x20 DUP6 ADD CALLDATALOAD PUSH8 0xFFFFFFFFFFFFFFFF DUP2 GT ISZERO PUSH2 0x5E5D JUMPI PUSH2 0x5E5C PUSH2 0x58A5 JUMP JUMPDEST JUMPDEST PUSH2 0x5E69 DUP8 DUP3 DUP9 ADD PUSH2 0x5C42 JUMP JUMPDEST SWAP4 POP POP PUSH1 0x40 PUSH2 0x5E7A DUP8 DUP3 DUP9 ADD PUSH2 0x5E03 JUMP JUMPDEST SWAP3 POP POP PUSH1 0x60 PUSH2 0x5E8B DUP8 DUP3 DUP9 ADD PUSH2 0x58C8 JUMP JUMPDEST SWAP2 POP POP SWAP3 SWAP6 SWAP2 SWAP5 POP SWAP3 POP JUMP JUMPDEST PUSH0 DUP2 MLOAD SWAP1 POP SWAP2 SWAP1 POP JUMP JUMPDEST PUSH0 DUP3 DUP3 MSTORE PUSH1 0x20 DUP3 ADD SWAP1 POP SWAP3 SWAP2 POP POP JUMP JUMPDEST PUSH0 DUP2 SWAP1 POP PUSH1 0x20 DUP3 ADD SWAP1 POP SWAP2 SWAP1 POP JUMP JUMPDEST PUSH2 0x5EC9 DUP2 PUSH2 0x58A9 JUMP JUMPDEST DUP3 MSTORE POP POP JUMP JUMPDEST PUSH0 PUSH2 0x5EDA DUP4 DUP4 PUSH2 0x5EC0 JUMP JUMPDEST PUSH1 0x20 DUP4 ADD SWAP1 POP SWAP3 SWAP2 POP POP JUMP JUMPDEST PUSH0 PUSH1 0x20 DUP3 ADD SWAP1 POP SWAP2 SWAP1 POP JUMP JUMPDEST PUSH0 PUSH2 0x5EFC DUP3 PUSH2 0x5E97 JUMP JUMPDEST PUSH2 0x5F06 DUP2 DUP6 PUSH2 0x5EA1 JUMP JUMPDEST SWAP4 POP PUSH2 0x5F11 DUP4 PUSH2 0x5EB1 JUMP JUMPDEST DUP1 PUSH0 JUMPDEST DUP4 DUP2 LT ISZERO PUSH2 0x5F41 JUMPI DUP2 MLOAD PUSH2 0x5F28 DUP9 DUP3 PUSH2 0x5ECF JUMP JUMPDEST SWAP8 POP PUSH2 0x5F33 DUP4 PUSH2 0x5EE6 JUMP JUMPDEST SWAP3 POP POP PUSH1 0x1 DUP2 ADD SWAP1 POP PUSH2 0x5F14 JUMP JUMPDEST POP DUP6 SWAP4 POP POP POP POP SWAP3 SWAP2 POP POP JUMP JUMPDEST PUSH0 PUSH1 0x20 DUP3 ADD SWAP1 POP DUP2 DUP2 SUB PUSH0 DUP4 ADD MSTORE PUSH2 0x5F66 DUP2 DUP5 PUSH2 0x5EF2 JUMP JUMPDEST SWAP1 POP SWAP3 SWAP2 POP POP JUMP JUMPDEST PUSH0 DUP1 PUSH0 DUP1 PUSH0 PUSH1 0xA0 DUP7 DUP9 SUB SLT ISZERO PUSH2 0x5F87 JUMPI PUSH2 0x5F86 PUSH2 0x58A1 JUMP JUMPDEST JUMPDEST PUSH0 PUSH2 0x5F94 DUP9 DUP3 DUP10 ADD PUSH2 0x58C8 JUMP JUMPDEST SWAP6 POP POP PUSH1 0x20 PUSH2 0x5FA5 DUP9 DUP3 DUP10 ADD PUSH2 0x58C8 JUMP JUMPDEST SWAP5 POP POP PUSH1 0x40 DUP7 ADD CALLDATALOAD PUSH8 0xFFFFFFFFFFFFFFFF DUP2 GT ISZERO PUSH2 0x5FC6 JUMPI PUSH2 0x5FC5 PUSH2 0x58A5 JUMP JUMPDEST JUMPDEST PUSH2 0x5FD2 DUP9 DUP3 DUP10 ADD PUSH2 0x5C42 JUMP JUMPDEST SWAP4 POP POP PUSH1 0x60 PUSH2 0x5FE3 DUP9 DUP3 DUP10 ADD PUSH2 0x5E03 JUMP JUMPDEST SWAP3 POP POP PUSH1 0x80 PUSH2 0x5FF4 DUP9 DUP3 DUP10 ADD PUSH2 0x58C8 JUMP JUMPDEST SWAP2 POP POP SWAP3 SWAP6 POP SWAP3 SWAP6 SWAP1 SWAP4 POP JUMP JUMPDEST PUSH0 DUP2 SWAP1 POP SWAP2 SWAP1 POP JUMP JUMPDEST PUSH0 PUSH2 0x6024 PUSH2 0x601F PUSH2 0x601A DUP5 PUSH2 0x5B42 JUMP JUMPDEST PUSH2 0x6001 JUMP JUMPDEST PUSH2 0x5B42 JUMP JUMPDEST SWAP1 POP SWAP2 SWAP1 POP JUMP JUMPDEST PUSH0 PUSH2 0x6035 DUP3 PUSH2 0x600A JUMP JUMPDEST SWAP1 POP SWAP2 SWAP1 POP JUMP JUMPDEST PUSH0 PUSH2 0x6046 DUP3 PUSH2 0x602B JUMP JUMPDEST SWAP1 POP SWAP2 SWAP1 POP JUMP JUMPDEST PUSH2 0x6056 DUP2 PUSH2 0x603C JUMP JUMPDEST DUP3 MSTORE POP POP JUMP JUMPDEST PUSH0 PUSH1 0x20 DUP3 ADD SWAP1 POP PUSH2 0x606F PUSH0 DUP4 ADD DUP5 PUSH2 0x604D JUMP JUMPDEST SWAP3 SWAP2 POP POP JUMP JUMPDEST PUSH0 DUP1 PUSH0 PUSH1 0x60 DUP5 DUP7 SUB SLT ISZERO PUSH2 0x608C JUMPI PUSH2 0x608B PUSH2 0x58A1 JUMP JUMPDEST JUMPDEST PUSH0 PUSH2 0x6099 DUP7 DUP3 DUP8 ADD PUSH2 0x5B99 JUMP JUMPDEST SWAP4 POP POP PUSH1 0x20 PUSH2 0x60AA DUP7 DUP3 DUP8 ADD PUSH2 0x5E03 JUMP JUMPDEST SWAP3 POP POP PUSH1 0x40 PUSH2 0x60BB DUP7 DUP3 DUP8 ADD PUSH2 0x58C8 JUMP JUMPDEST SWAP2 POP POP SWAP3 POP SWAP3 POP SWAP3 JUMP JUMPDEST PUSH0 PUSH3 0xFFFFFF DUP3 AND SWAP1 POP SWAP2 SWAP1 POP JUMP JUMPDEST PUSH2 0x60DC DUP2 PUSH2 0x60C5 JUMP JUMPDEST DUP2 EQ PUSH2 0x60E6 JUMPI PUSH0 DUP1 REVERT JUMPDEST POP JUMP JUMPDEST PUSH0 DUP2 CALLDATALOAD SWAP1 POP PUSH2 0x60F7 DUP2 PUSH2 0x60D3 JUMP JUMPDEST SWAP3 SWAP2 POP POP JUMP JUMPDEST PUSH0 PUSH2 0xFFFF DUP3 AND SWAP1 POP SWAP2 SWAP1 POP JUMP JUMPDEST PUSH2 0x6113 DUP2 PUSH2 0x60FD JUMP JUMPDEST DUP2 EQ PUSH2 0x611D JUMPI PUSH0 DUP1 REVERT JUMPDEST POP JUMP JUMPDEST PUSH0 DUP2 CALLDATALOAD SWAP1 POP PUSH2 0x612E DUP2 PUSH2 0x610A JUMP JUMPDEST SWAP3 SWAP2 POP POP JUMP JUMPDEST PUSH0 DUP1 PUSH0 DUP1 PUSH1 0x80 DUP6 DUP8 SUB SLT ISZERO PUSH2 0x614C JUMPI PUSH2 0x614B PUSH2 0x58A1 JUMP JUMPDEST JUMPDEST PUSH0 PUSH2 0x6159 DUP8 DUP3 DUP9 ADD PUSH2 0x5B99 JUMP JUMPDEST SWAP5 POP POP PUSH1 0x20 PUSH2 0x616A DUP8 DUP3 DUP9 ADD PUSH2 0x5B99 JUMP JUMPDEST SWAP4 POP POP PUSH1 0x40 PUSH2 0x617B DUP8 DUP3 DUP9 ADD PUSH2 0x60E9 JUMP JUMPDEST SWAP3 POP POP PUSH1 0x60 PUSH2 0x618C DUP8 DUP3 DUP9 ADD PUSH2 0x6120 JUMP JUMPDEST SWAP2 POP POP SWAP3 SWAP6 SWAP2 SWAP5 POP SWAP3 POP JUMP JUMPDEST PUSH0 PUSH2 0x61A2 DUP3 PUSH2 0x602B JUMP JUMPDEST SWAP1 POP SWAP2 SWAP1 POP JUMP JUMPDEST PUSH2 0x61B2 DUP2 PUSH2 0x6198 JUMP JUMPDEST DUP3 MSTORE POP POP JUMP JUMPDEST PUSH0 PUSH1 0x20 DUP3 ADD SWAP1 POP PUSH2 0x61CB PUSH0 DUP4 ADD DUP5 PUSH2 0x61A9 JUMP JUMPDEST SWAP3 SWAP2 POP POP JUMP JUMPDEST PUSH0 PUSH2 0x61DB DUP3 PUSH2 0x602B JUMP JUMPDEST SWAP1 POP SWAP2 SWAP1 POP JUMP JUMPDEST PUSH2 0x61EB DUP2 PUSH2 0x61D1 JUMP JUMPDEST DUP3 MSTORE POP POP JUMP JUMPDEST PUSH0 PUSH1 0x20 DUP3 ADD SWAP1 POP PUSH2 0x6204 PUSH0 DUP4 ADD DUP5 PUSH2 0x61E2 JUMP JUMPDEST SWAP3 SWAP2 POP POP JUMP JUMPDEST PUSH0 PUSH2 0x6214 DUP3 PUSH2 0x602B JUMP JUMPDEST SWAP1 POP SWAP2 SWAP1 POP JUMP JUMPDEST PUSH2 0x6224 DUP2 PUSH2 0x620A JUMP JUMPDEST DUP3 MSTORE POP POP JUMP JUMPDEST PUSH0 PUSH1 0x20 DUP3 ADD SWAP1 POP PUSH2 0x623D PUSH0 DUP4 ADD DUP5 PUSH2 0x621B JUMP JUMPDEST SWAP3 SWAP2 POP POP JUMP JUMPDEST PUSH0 DUP1 PUSH0 DUP1 PUSH0 DUP1 PUSH0 DUP1 PUSH2 0x100 DUP10 DUP12 SUB SLT ISZERO PUSH2 0x6260 JUMPI PUSH2 0x625F PUSH2 0x58A1 JUMP JUMPDEST JUMPDEST PUSH0 PUSH2 0x626D DUP12 DUP3 DUP13 ADD PUSH2 0x5B99 JUMP JUMPDEST SWAP9 POP POP PUSH1 0x20 PUSH2 0x627E DUP12 DUP3 DUP13 ADD PUSH2 0x6120 JUMP JUMPDEST SWAP8 POP POP PUSH1 0x40 PUSH2 0x628F DUP12 DUP3 DUP13 ADD PUSH2 0x58C8 JUMP JUMPDEST SWAP7 POP POP PUSH1 0x60 PUSH2 0x62A0 DUP12 DUP3 DUP13 ADD PUSH2 0x58C8 JUMP JUMPDEST SWAP6 POP POP PUSH1 0x80 DUP10 ADD CALLDATALOAD PUSH8 0xFFFFFFFFFFFFFFFF DUP2 GT ISZERO PUSH2 0x62C1 JUMPI PUSH2 0x62C0 PUSH2 0x58A5 JUMP JUMPDEST JUMPDEST PUSH2 0x62CD DUP12 DUP3 DUP13 ADD PUSH2 0x5A07 JUMP JUMPDEST SWAP5 POP POP PUSH1 0xA0 DUP10 ADD CALLDATALOAD PUSH8 0xFFFFFFFFFFFFFFFF DUP2 GT ISZERO PUSH2 0x62EE JUMPI PUSH2 0x62ED PUSH2 0x58A5 JUMP JUMPDEST JUMPDEST PUSH2 0x62FA DUP12 DUP3 DUP13 ADD PUSH2 0x5A07 JUMP JUMPDEST SWAP4 POP POP PUSH1 0xC0 PUSH2 0x630B DUP12 DUP3 DUP13 ADD PUSH2 0x5D1E JUMP JUMPDEST SWAP3 POP POP PUSH1 0xE0 PUSH2 0x631C DUP12 DUP3 DUP13 ADD PUSH2 0x58C8 JUMP JUMPDEST SWAP2 POP POP SWAP3 SWAP6 SWAP9 POP SWAP3 SWAP6 SWAP9 SWAP1 SWAP4 SWAP7 POP JUMP JUMPDEST PUSH0 PUSH1 0x40 DUP3 ADD SWAP1 POP PUSH2 0x633F PUSH0 DUP4 ADD DUP6 PUSH2 0x5DC5 JUMP JUMPDEST PUSH2 0x634C PUSH1 0x20 DUP4 ADD DUP5 PUSH2 0x5DC5 JUMP JUMPDEST SWAP4 SWAP3 POP POP POP JUMP JUMPDEST PUSH0 DUP1 REVERT JUMPDEST PUSH0 PUSH2 0x1E0 DUP3 DUP5 SUB SLT ISZERO PUSH2 0x636D JUMPI PUSH2 0x636C PUSH2 0x6353 JUMP JUMPDEST JUMPDEST DUP2 SWAP1 POP SWAP3 SWAP2 POP POP JUMP JUMPDEST PUSH0 PUSH1 0x20 DUP3 DUP5 SUB SLT ISZERO PUSH2 0x638B JUMPI PUSH2 0x638A PUSH2 0x58A1 JUMP JUMPDEST JUMPDEST PUSH0 DUP3 ADD CALLDATALOAD PUSH8 0xFFFFFFFFFFFFFFFF DUP2 GT ISZERO PUSH2 0x63A8 JUMPI PUSH2 0x63A7 PUSH2 0x58A5 JUMP JUMPDEST JUMPDEST PUSH2 0x63B4 DUP5 DUP3 DUP6 ADD PUSH2 0x6357 JUMP JUMPDEST SWAP2 POP POP SWAP3 SWAP2 POP POP JUMP JUMPDEST PUSH0 PUSH1 0xC0 DUP3 ADD SWAP1 POP PUSH2 0x63D0 PUSH0 DUP4 ADD DUP10 PUSH2 0x5DC5 JUMP JUMPDEST PUSH2 0x63DD PUSH1 0x20 DUP4 ADD DUP9 PUSH2 0x5DC5 JUMP JUMPDEST PUSH2 0x63EA PUSH1 0x40 DUP4 ADD DUP8 PUSH2 0x5DC5 JUMP JUMPDEST PUSH2 0x63F7 PUSH1 0x60 DUP4 ADD DUP7 PUSH2 0x5DC5 JUMP JUMPDEST DUP2 DUP2 SUB PUSH1 0x80 DUP4 ADD MSTORE PUSH2 0x6409 DUP2 DUP6 PUSH2 0x5EF2 JUMP JUMPDEST SWAP1 POP DUP2 DUP2 SUB PUSH1 0xA0 DUP4 ADD MSTORE PUSH2 0x641D DUP2 DUP5 PUSH2 0x5EF2 JUMP JUMPDEST SWAP1 POP SWAP8 SWAP7 POP POP POP POP POP POP POP JUMP JUMPDEST PUSH0 PUSH2 0x6434 DUP3 PUSH2 0x5B61 JUMP JUMPDEST SWAP1 POP SWAP2 SWAP1 POP JUMP JUMPDEST PUSH2 0x6444 DUP2 PUSH2 0x642A JUMP JUMPDEST DUP2 EQ PUSH2 0x644E JUMPI PUSH0 DUP1 REVERT JUMPDEST POP JUMP JUMPDEST PUSH0 DUP2 CALLDATALOAD SWAP1 POP PUSH2 0x645F DUP2 PUSH2 0x643B JUMP JUMPDEST SWAP3 SWAP2 POP POP JUMP JUMPDEST PUSH0 PUSH16 0xFFFFFFFFFFFFFFFFFFFFFFFFFFFFFFFF DUP3 AND SWAP1 POP SWAP2 SWAP1 POP JUMP JUMPDEST PUSH2 0x6489 DUP2 PUSH2 0x6465 JUMP JUMPDEST DUP2 EQ PUSH2 0x6493 JUMPI PUSH0 DUP1 REVERT JUMPDEST POP JUMP JUMPDEST PUSH0 DUP2 CALLDATALOAD SWAP1 POP PUSH2 0x64A4 DUP2 PUSH2 0x6480 JUMP JUMPDEST SWAP3 SWAP2 POP POP JUMP JUMPDEST PUSH0 DUP2 ISZERO ISZERO SWAP1 POP SWAP2 SWAP1 POP JUMP JUMPDEST PUSH2 0x64BE DUP2 PUSH2 0x64AA JUMP JUMPDEST DUP2 EQ PUSH2 0x64C8 JUMPI PUSH0 DUP1 REVERT JUMPDEST POP JUMP JUMPDEST PUSH0 DUP2 CALLDATALOAD SWAP1 POP PUSH2 0x64D9 DUP2 PUSH2 0x64B5 JUMP JUMPDEST SWAP3 SWAP2 POP POP JUMP JUMPDEST PUSH0 DUP1 PUSH0 PUSH1 0x60 DUP5 DUP7 SUB SLT ISZERO PUSH2 0x64F6 JUMPI PUSH2 0x64F5 PUSH2 0x58A1 JUMP JUMPDEST JUMPDEST PUSH0 PUSH2 0x6503 DUP7 DUP3 DUP8 ADD PUSH2 0x6451 JUMP JUMPDEST SWAP4 POP POP PUSH1 0x20 PUSH2 0x6514 DUP7 DUP3 DUP8 ADD PUSH2 0x6496 JUMP JUMPDEST SWAP3 POP POP PUSH1 0x40 PUSH2 0x6525 DUP7 DUP3 DUP8 ADD PUSH2 0x64CB JUMP JUMPDEST SWAP2 POP POP SWAP3 POP SWAP3 POP SWAP3 JUMP JUMPDEST PUSH2 0x6538 DUP2 PUSH2 0x6465 JUMP JUMPDEST DUP3 MSTORE POP POP JUMP JUMPDEST PUSH0 PUSH1 0x60 DUP3 ADD SWAP1 POP PUSH2 0x6551 PUSH0 DUP4 ADD DUP7 PUSH2 0x652F JUMP JUMPDEST PUSH2 0x655E PUSH1 0x20 DUP4 ADD DUP6 PUSH2 0x652F JUMP JUMPDEST PUSH2 0x656B PUSH1 0x40 DUP4 ADD DUP5 PUSH2 0x652F JUMP JUMPDEST SWAP5 SWAP4 POP POP POP POP JUMP JUMPDEST PUSH0 PUSH2 0x657D DUP3 PUSH2 0x602B JUMP JUMPDEST SWAP1 POP SWAP2 SWAP1 POP JUMP JUMPDEST PUSH2 0x658D DUP2 PUSH2 0x6573 JUMP JUMPDEST DUP3 MSTORE POP POP JUMP JUMPDEST PUSH0 PUSH1 0x20 DUP3 ADD SWAP1 POP PUSH2 0x65A6 PUSH0 DUP4 ADD DUP5 PUSH2 0x6584 JUMP JUMPDEST SWAP3 SWAP2 POP POP JUMP JUMPDEST PUSH0 PUSH2 0x65B6 DUP3 PUSH2 0x602B JUMP JUMPDEST SWAP1 POP SWAP2 SWAP1 POP JUMP JUMPDEST PUSH2 0x65C6 DUP2 PUSH2 0x65AC JUMP JUMPDEST DUP3 MSTORE POP POP JUMP JUMPDEST PUSH0 PUSH1 0x20 DUP3 ADD SWAP1 POP PUSH2 0x65DF PUSH0 DUP4 ADD DUP5 PUSH2 0x65BD JUMP JUMPDEST SWAP3 SWAP2 POP POP JUMP JUMPDEST PUSH0 DUP1 PUSH0 DUP1 PUSH0 DUP1 PUSH0 DUP1 PUSH0 PUSH2 0x120 DUP11 DUP13 SUB SLT ISZERO PUSH2 0x6603 JUMPI PUSH2 0x6602 PUSH2 0x58A1 JUMP JUMPDEST JUMPDEST PUSH0 PUSH2 0x6610 DUP13 DUP3 DUP14 ADD PUSH2 0x5B99 JUMP JUMPDEST SWAP10 POP POP PUSH1 0x20 PUSH2 0x6621 DUP13 DUP3 DUP14 ADD PUSH2 0x5B99 JUMP JUMPDEST SWAP9 POP POP PUSH1 0x40 PUSH2 0x6632 DUP13 DUP3 DUP14 ADD PUSH2 0x6120 JUMP JUMPDEST SWAP8 POP POP PUSH1 0x60 PUSH2 0x6643 DUP13 DUP3 DUP14 ADD PUSH2 0x58C8 JUMP JUMPDEST SWAP7 POP POP PUSH1 0x80 PUSH2 0x6654 DUP13 DUP3 DUP14 ADD PUSH2 0x58C8 JUMP JUMPDEST SWAP6 POP POP PUSH1 0xA0 DUP11 ADD CALLDATALOAD PUSH8 0xFFFFFFFFFFFFFFFF DUP2 GT ISZERO PUSH2 0x6675 JUMPI PUSH2 0x6674 PUSH2 0x58A5 JUMP JUMPDEST JUMPDEST PUSH2 0x6681 DUP13 DUP3 DUP14 ADD PUSH2 0x5A07 JUMP JUMPDEST SWAP5 POP POP PUSH1 0xC0 DUP11 ADD CALLDATALOAD PUSH8 0xFFFFFFFFFFFFFFFF DUP2 GT ISZERO PUSH2 0x66A2 JUMPI PUSH2 0x66A1 PUSH2 0x58A5 JUMP JUMPDEST JUMPDEST PUSH2 0x66AE DUP13 DUP3 DUP14 ADD PUSH2 0x5A07 JUMP JUMPDEST SWAP4 POP POP PUSH1 0xE0 PUSH2 0x66BF DUP13 DUP3 DUP14 ADD PUSH2 0x5E03 JUMP JUMPDEST SWAP3 POP POP PUSH2 0x100 PUSH2 0x66D1 DUP13 DUP3 DUP14 ADD PUSH2 0x58C8 JUMP JUMPDEST SWAP2 POP POP SWAP3 SWAP6 SWAP9 POP SWAP3 SWAP6 SWAP9 POP SWAP3 SWAP6 SWAP9 JUMP JUMPDEST PUSH0 DUP1 PUSH1 0x40 DUP4 DUP6 SUB SLT ISZERO PUSH2 0x66F7 JUMPI PUSH2 0x66F6 PUSH2 0x58A1 JUMP JUMPDEST JUMPDEST PUSH0 PUSH2 0x6704 DUP6 DUP3 DUP7 ADD PUSH2 0x6451 JUMP JUMPDEST SWAP3 POP POP PUSH1 0x20 PUSH2 0x6715 DUP6 DUP3 DUP7 ADD PUSH2 0x60E9 JUMP JUMPDEST SWAP2 POP POP SWAP3 POP SWAP3 SWAP1 POP JUMP JUMPDEST PUSH0 PUSH2 0x6729 DUP3 PUSH2 0x5B61 JUMP JUMPDEST SWAP1 POP SWAP2 SWAP1 POP JUMP JUMPDEST PUSH2 0x6739 DUP2 PUSH2 0x671F JUMP JUMPDEST DUP2 EQ PUSH2 0x6743 JUMPI PUSH0 DUP1 REVERT JUMPDEST POP JUMP JUMPDEST PUSH0 DUP2 CALLDATALOAD SWAP1 POP PUSH2 0x6754 DUP2 PUSH2 0x6730 JUMP JUMPDEST SWAP3 SWAP2 POP POP JUMP JUMPDEST PUSH0 DUP1 REVERT JUMPDEST PUSH0 DUP1 DUP4 PUSH1 0x1F DUP5 ADD SLT PUSH2 0x6773 JUMPI PUSH2 0x6772 PUSH2 0x596C JUMP JUMPDEST JUMPDEST DUP3 CALLDATALOAD SWAP1 POP PUSH8 0xFFFFFFFFFFFFFFFF DUP2 GT ISZERO PUSH2 0x6790 JUMPI PUSH2 0x678F PUSH2 0x675A JUMP JUMPDEST JUMPDEST PUSH1 0x20 DUP4 ADD SWAP2 POP DUP4 PUSH1 0x20 DUP3 MUL DUP4 ADD GT ISZERO PUSH2 0x67AC JUMPI PUSH2 0x67AB PUSH2 0x599B JUMP JUMPDEST JUMPDEST SWAP3 POP SWAP3 SWAP1 POP JUMP JUMPDEST PUSH0 DUP1 PUSH0 DUP1 PUSH0 DUP1 PUSH1 0x80 DUP8 DUP10 SUB SLT ISZERO PUSH2 0x67CD JUMPI PUSH2 0x67CC PUSH2 0x58A1 JUMP JUMPDEST JUMPDEST PUSH0 PUSH2 0x67DA DUP10 DUP3 DUP11 ADD PUSH2 0x6746 JUMP JUMPDEST SWAP7 POP POP PUSH1 0x20 PUSH2 0x67EB DUP10 DUP3 DUP11 ADD PUSH2 0x5E03 JUMP JUMPDEST SWAP6 POP POP PUSH1 0x40 DUP8 ADD CALLDATALOAD PUSH8 0xFFFFFFFFFFFFFFFF DUP2 GT ISZERO PUSH2 0x680C JUMPI PUSH2 0x680B PUSH2 0x58A5 JUMP JUMPDEST JUMPDEST PUSH2 0x6818 DUP10 DUP3 DUP11 ADD PUSH2 0x675E JUMP JUMPDEST SWAP5 POP SWAP5 POP POP PUSH1 0x60 DUP8 ADD CALLDATALOAD PUSH8 0xFFFFFFFFFFFFFFFF DUP2 GT ISZERO PUSH2 0x683B JUMPI PUSH2 0x683A PUSH2 0x58A5 JUMP JUMPDEST JUMPDEST PUSH2 0x6847 DUP10 DUP3 DUP11 ADD PUSH2 0x675E JUMP JUMPDEST SWAP3 POP SWAP3 POP POP SWAP3 SWAP6 POP SWAP3 SWAP6 POP SWAP3 SWAP6 JUMP JUMPDEST PUSH0 DUP1 PUSH1 0x40 DUP4 DUP6 SUB SLT ISZERO PUSH2 0x686C JUMPI PUSH2 0x686B PUSH2 0x58A1 JUMP JUMPDEST JUMPDEST PUSH0 PUSH2 0x6879 DUP6 DUP3 DUP7 ADD PUSH2 0x6451 JUMP JUMPDEST SWAP3 POP POP PUSH1 0x20 PUSH2 0x688A DUP6 DUP3 DUP7 ADD PUSH2 0x58C8 JUMP JUMPDEST SWAP2 POP POP SWAP3 POP SWAP3 SWAP1 POP JUMP JUMPDEST PUSH2 0x689D DUP2 PUSH2 0x60C5 JUMP JUMPDEST DUP3 MSTORE POP POP JUMP JUMPDEST PUSH0 PUSH1 0x20 DUP3 ADD SWAP1 POP PUSH2 0x68B6 PUSH0 DUP4 ADD DUP5 PUSH2 0x6894 JUMP JUMPDEST SWAP3 SWAP2 POP POP JUMP JUMPDEST PUSH32 0x4E487B7100000000000000000000000000000000000000000000000000000000 PUSH0 MSTORE PUSH1 0x11 PUSH1 0x4 MSTORE PUSH1 0x24 PUSH0 REVERT JUMPDEST PUSH0 PUSH2 0x68F3 DUP3 PUSH2 0x58A9 JUMP JUMPDEST SWAP2 POP PUSH2 0x68FE DUP4 PUSH2 0x58A9 JUMP JUMPDEST SWAP3 POP DUP3 DUP3 ADD SWAP1 POP DUP1 DUP3 GT ISZERO PUSH2 0x6916 JUMPI PUSH2 0x6915 PUSH2 0x68BC JUMP JUMPDEST JUMPDEST SWAP3 SWAP2 POP POP JUMP JUMPDEST PUSH32 0x4E487B7100000000000000000000000000000000000000000000000000000000 PUSH0 MSTORE PUSH1 0x32 PUSH1 0x4 MSTORE PUSH1 0x24 PUSH0 REVERT JUMPDEST PUSH2 0x6952 DUP2 PUSH2 0x5B61 JUMP JUMPDEST DUP3 MSTORE POP POP JUMP JUMPDEST PUSH0 PUSH1 0x20 DUP3 ADD SWAP1 POP PUSH2 0x696B PUSH0 DUP4 ADD DUP5 PUSH2 0x6949 JUMP JUMPDEST SWAP3 SWAP2 POP POP JUMP JUMPDEST PUSH0 DUP2 MLOAD SWAP1 POP PUSH2 0x697F DUP2 PUSH2 0x58B2 JUMP JUMPDEST SWAP3 SWAP2 POP POP JUMP JUMPDEST PUSH0 PUSH1 0x20 DUP3 DUP5 SUB SLT ISZERO PUSH2 0x699A JUMPI PUSH2 0x6999 PUSH2 0x58A1 JUMP JUMPDEST JUMPDEST PUSH0 PUSH2 0x69A7 DUP5 DUP3 DUP6 ADD PUSH2 0x6971 JUMP JUMPDEST SWAP2 POP POP SWAP3 SWAP2 POP POP JUMP JUMPDEST PUSH0 PUSH2 0x69BA DUP3 PUSH2 0x58A9 JUMP JUMPDEST SWAP2 POP PUSH2 0x69C5 DUP4 PUSH2 0x58A9 JUMP JUMPDEST SWAP3 POP DUP3 DUP3 SUB SWAP1 POP DUP2 DUP2 GT ISZERO PUSH2 0x69DD JUMPI PUSH2 0x69DC PUSH2 0x68BC JUMP JUMPDEST JUMPDEST SWAP3 SWAP2 POP POP JUMP JUMPDEST PUSH0 DUP2 MLOAD SWAP1 POP PUSH2 0x69F1 DUP2 PUSH2 0x5DED JUMP JUMPDEST SWAP3 SWAP2 POP POP JUMP JUMPDEST PUSH0 PUSH1 0x20 DUP3 DUP5 SUB SLT ISZERO PUSH2 0x6A0C JUMPI PUSH2 0x6A0B PUSH2 0x58A1 JUMP JUMPDEST JUMPDEST PUSH0 PUSH2 0x6A19 DUP5 DUP3 DUP6 ADD PUSH2 0x69E3 JUMP JUMPDEST SWAP2 POP POP SWAP3 SWAP2 POP POP JUMP JUMPDEST PUSH0 PUSH2 0x6A2C DUP3 PUSH2 0x602B JUMP JUMPDEST SWAP1 POP SWAP2 SWAP1 POP JUMP JUMPDEST PUSH2 0x6A3C DUP2 PUSH2 0x6A22 JUMP JUMPDEST DUP3 MSTORE POP POP JUMP JUMPDEST PUSH2 0x6A4B DUP2 PUSH2 0x60FD JUMP JUMPDEST DUP3 MSTORE POP POP JUMP JUMPDEST PUSH0 PUSH1 0x80 DUP3 ADD SWAP1 POP PUSH2 0x6A64 PUSH0 DUP4 ADD DUP8 PUSH2 0x6A33 JUMP JUMPDEST PUSH2 0x6A71 PUSH1 0x20 DUP4 ADD DUP7 PUSH2 0x6A33 JUMP JUMPDEST PUSH2 0x6A7E PUSH1 0x40 DUP4 ADD DUP6 PUSH2 0x6894 JUMP JUMPDEST PUSH2 0x6A8B PUSH1 0x60 DUP4 ADD DUP5 PUSH2 0x6A42 JUMP JUMPDEST SWAP6 SWAP5 POP POP POP POP POP JUMP JUMPDEST PUSH0 DUP2 MLOAD SWAP1 POP PUSH2 0x6AA2 DUP2 PUSH2 0x643B JUMP JUMPDEST SWAP3 SWAP2 POP POP JUMP JUMPDEST PUSH0 PUSH1 0x20 DUP3 DUP5 SUB SLT ISZERO PUSH2 0x6ABD JUMPI PUSH2 0x6ABC PUSH2 0x58A1 JUMP JUMPDEST JUMPDEST PUSH0 PUSH2 0x6ACA DUP5 DUP3 DUP6 ADD PUSH2 0x6A94 JUMP JUMPDEST SWAP2 POP POP SWAP3 SWAP2 POP POP JUMP JUMPDEST PUSH0 DUP2 MLOAD SWAP1 POP PUSH2 0x6AE1 DUP2 PUSH2 0x5B83 JUMP JUMPDEST SWAP3 SWAP2 POP POP JUMP JUMPDEST PUSH0 PUSH1 0x20 DUP3 DUP5 SUB SLT ISZERO PUSH2 0x6AFC JUMPI PUSH2 0x6AFB PUSH2 0x58A1 JUMP JUMPDEST JUMPDEST PUSH0 PUSH2 0x6B09 DUP5 DUP3 DUP6 ADD PUSH2 0x6AD3 JUMP JUMPDEST SWAP2 POP POP SWAP3 SWAP2 POP POP JUMP JUMPDEST PUSH0 PUSH1 0x20 DUP3 DUP5 SUB SLT ISZERO PUSH2 0x6B27 JUMPI PUSH2 0x6B26 PUSH2 0x58A1 JUMP JUMPDEST JUMPDEST PUSH0 PUSH2 0x6B34 DUP5 DUP3 DUP6 ADD PUSH2 0x5B99 JUMP JUMPDEST SWAP2 POP POP SWAP3 SWAP2 POP POP JUMP JUMPDEST PUSH0 PUSH1 0xA0 DUP3 ADD SWAP1 POP PUSH2 0x6B50 PUSH0 DUP4 ADD DUP9 PUSH2 0x6949 JUMP JUMPDEST PUSH2 0x6B5D PUSH1 0x20 DUP4 ADD DUP8 PUSH2 0x6949 JUMP JUMPDEST PUSH2 0x6B6A PUSH1 0x40 DUP4 ADD DUP7 PUSH2 0x5DC5 JUMP JUMPDEST PUSH2 0x6B77 PUSH1 0x60 DUP4 ADD DUP6 PUSH2 0x5DC5 JUMP JUMPDEST PUSH2 0x6B84 PUSH1 0x80 DUP4 ADD DUP5 PUSH2 0x5DC5 JUMP JUMPDEST SWAP7 SWAP6 POP POP POP POP POP POP JUMP JUMPDEST PUSH2 0x6B97 DUP2 PUSH2 0x64AA JUMP JUMPDEST DUP3 MSTORE POP POP JUMP JUMPDEST PUSH0 PUSH1 0x40 DUP3 ADD SWAP1 POP PUSH2 0x6BB0 PUSH0 DUP4 ADD DUP6 PUSH2 0x652F JUMP JUMPDEST PUSH2 0x6BBD PUSH1 0x20 DUP4 ADD DUP5 PUSH2 0x6B8E JUMP JUMPDEST SWAP4 SWAP3 POP POP POP JUMP JUMPDEST PUSH0 DUP2 MLOAD SWAP1 POP PUSH2 0x6BD2 DUP2 PUSH2 0x6480 JUMP JUMPDEST SWAP3 SWAP2 POP POP JUMP JUMPDEST PUSH0 DUP1 PUSH0 PUSH1 0x60 DUP5 DUP7 SUB SLT ISZERO PUSH2 0x6BEF JUMPI PUSH2 0x6BEE PUSH2 0x58A1 JUMP JUMPDEST JUMPDEST PUSH0 PUSH2 0x6BFC DUP7 DUP3 DUP8 ADD PUSH2 0x6BC4 JUMP JUMPDEST SWAP4 POP POP PUSH1 0x20 PUSH2 0x6C0D DUP7 DUP3 DUP8 ADD PUSH2 0x6BC4 JUMP JUMPDEST SWAP3 POP POP PUSH1 0x40 PUSH2 0x6C1E DUP7 DUP3 DUP8 ADD PUSH2 0x6BC4 JUMP JUMPDEST SWAP2 POP POP SWAP3 POP SWAP3 POP SWAP3 JUMP JUMPDEST PUSH0 DUP1 REVERT JUMPDEST DUP3 DUP2 DUP4 CALLDATACOPY POP POP POP JUMP JUMPDEST PUSH0 PUSH2 0x6C40 DUP4 DUP6 PUSH2 0x5EA1 JUMP JUMPDEST SWAP4 POP PUSH32 0x7FFFFFFFFFFFFFFFFFFFFFFFFFFFFFFFFFFFFFFFFFFFFFFFFFFFFFFFFFFFFFF DUP4 GT ISZERO PUSH2 0x6C73 JUMPI PUSH2 0x6C72 PUSH2 0x6C28 JUMP JUMPDEST JUMPDEST PUSH1 0x20 DUP4 MUL SWAP3 POP PUSH2 0x6C84 DUP4 DUP6 DUP5 PUSH2 0x6C2C JUMP JUMPDEST DUP3 DUP5 ADD SWAP1 POP SWAP4 SWAP3 POP POP POP JUMP JUMPDEST PUSH0 PUSH1 0x80 DUP3 ADD SWAP1 POP PUSH2 0x6CA3 PUSH0 DUP4 ADD DUP10 PUSH2 0x6949 JUMP JUMPDEST PUSH2 0x6CB0 PUSH1 0x20 DUP4 ADD DUP9 PUSH2 0x6949 JUMP JUMPDEST DUP2 DUP2 SUB PUSH1 0x40 DUP4 ADD MSTORE PUSH2 0x6CC3 DUP2 DUP7 DUP9 PUSH2 0x6C35 JUMP JUMPDEST SWAP1 POP DUP2 DUP2 SUB PUSH1 0x60 DUP4 ADD MSTORE PUSH2 0x6CD8 DUP2 DUP5 DUP7 PUSH2 0x6C35 JUMP JUMPDEST SWAP1 POP SWAP8 SWAP7 POP POP POP POP POP POP POP JUMP JUMPDEST PUSH0 DUP2 MLOAD SWAP1 POP PUSH2 0x6CF3 DUP2 PUSH2 0x60D3 JUMP JUMPDEST SWAP3 SWAP2 POP POP JUMP JUMPDEST PUSH0 PUSH1 0x20 DUP3 DUP5 SUB SLT ISZERO PUSH2 0x6D0E JUMPI PUSH2 0x6D0D PUSH2 0x58A1 JUMP JUMPDEST JUMPDEST PUSH0 PUSH2 0x6D1B DUP5 DUP3 DUP6 ADD PUSH2 0x6CE5 JUMP JUMPDEST SWAP2 POP POP SWAP3 SWAP2 POP POP JUMP JUMPDEST PUSH32 0x4E487B7100000000000000000000000000000000000000000000000000000000 PUSH0 MSTORE PUSH1 0x21 PUSH1 0x4 MSTORE PUSH1 0x24 PUSH0 REVERT JUMPDEST PUSH0 PUSH14 0xFFFFFFFFFFFFFFFFFFFFFFFFFFFF DUP3 AND SWAP1 POP SWAP2 SWAP1 POP JUMP JUMPDEST PUSH2 0x6D73 DUP2 PUSH2 0x6D51 JUMP JUMPDEST DUP2 EQ PUSH2 0x6D7D JUMPI PUSH0 DUP1 REVERT JUMPDEST POP JUMP JUMPDEST PUSH0 DUP2 MLOAD SWAP1 POP PUSH2 0x6D8E DUP2 PUSH2 0x6D6A JUMP JUMPDEST SWAP3 SWAP2 POP POP JUMP JUMPDEST PUSH0 PUSH4 0xFFFFFFFF DUP3 AND SWAP1 POP SWAP2 SWAP1 POP JUMP JUMPDEST PUSH2 0x6DAC DUP2 PUSH2 0x6D94 JUMP JUMPDEST DUP2 EQ PUSH2 0x6DB6 JUMPI PUSH0 DUP1 REVERT JUMPDEST POP JUMP JUMPDEST PUSH0 DUP2 MLOAD SWAP1 POP PUSH2 0x6DC7 DUP2 PUSH2 0x6DA3 JUMP JUMPDEST SWAP3 SWAP2 POP POP JUMP JUMPDEST PUSH0 DUP1 PUSH0 PUSH1 0x60 DUP5 DUP7 SUB SLT ISZERO PUSH2 0x6DE4 JUMPI PUSH2 0x6DE3 PUSH2 0x58A1 JUMP JUMPDEST JUMPDEST PUSH0 PUSH2 0x6DF1 DUP7 DUP3 DUP8 ADD PUSH2 0x6D80 JUMP JUMPDEST SWAP4 POP POP PUSH1 0x20 PUSH2 0x6E02 DUP7 DUP3 DUP8 ADD PUSH2 0x6D80 JUMP JUMPDEST SWAP3 POP POP PUSH1 0x40 PUSH2 0x6E13 DUP7 DUP3 DUP8 ADD PUSH2 0x6DB9 JUMP JUMPDEST SWAP2 POP POP SWAP3 POP SWAP3 POP SWAP3 JUMP JUMPDEST PUSH0 DUP2 SWAP1 POP SWAP2 SWAP1 POP JUMP JUMPDEST PUSH0 PUSH2 0x6E40 PUSH2 0x6E3B PUSH2 0x6E36 DUP5 PUSH2 0x6E1D JUMP JUMPDEST PUSH2 0x6001 JUMP JUMPDEST PUSH2 0x58A9 JUMP JUMPDEST SWAP1 POP SWAP2 SWAP1 POP JUMP JUMPDEST PUSH2 0x6E50 DUP2 PUSH2 0x6E26 JUMP JUMPDEST DUP3 MSTORE POP POP JUMP JUMPDEST PUSH0 DUP3 DUP3 MSTORE PUSH1 0x20 DUP3 ADD SWAP1 POP SWAP3 SWAP2 POP POP JUMP JUMPDEST POP JUMP JUMPDEST PUSH0 PUSH2 0x6E74 PUSH0 DUP4 PUSH2 0x6E56 JUMP JUMPDEST SWAP2 POP PUSH2 0x6E7F DUP3 PUSH2 0x6E66 JUMP JUMPDEST PUSH0 DUP3 ADD SWAP1 POP SWAP2 SWAP1 POP JUMP JUMPDEST PUSH0 PUSH1 0x80 DUP3 ADD SWAP1 POP PUSH2 0x6E9C PUSH0 DUP4 ADD DUP7 PUSH2 0x6E47 JUMP JUMPDEST PUSH2 0x6EA9 PUSH1 0x20 DUP4 ADD DUP6 PUSH2 0x5DC5 JUMP JUMPDEST PUSH2 0x6EB6 PUSH1 0x40 DUP4 ADD DUP5 PUSH2 0x6949 JUMP JUMPDEST DUP2 DUP2 SUB PUSH1 0x60 DUP4 ADD MSTORE PUSH2 0x6EC7 DUP2 PUSH2 0x6E69 JUMP JUMPDEST SWAP1 POP SWAP5 SWAP4 POP POP POP POP JUMP JUMPDEST PUSH0 PUSH1 0x80 DUP3 ADD SWAP1 POP PUSH2 0x6EE4 PUSH0 DUP4 ADD DUP7 PUSH2 0x5DC5 JUMP JUMPDEST PUSH2 0x6EF1 PUSH1 0x20 DUP4 ADD DUP6 PUSH2 0x6E47 JUMP JUMPDEST PUSH2 0x6EFE PUSH1 0x40 DUP4 ADD DUP5 PUSH2 0x6949 JUMP JUMPDEST DUP2 DUP2 SUB PUSH1 0x60 DUP4 ADD MSTORE PUSH2 0x6F0F DUP2 PUSH2 0x6E69 JUMP JUMPDEST SWAP1 POP SWAP5 SWAP4 POP POP POP POP JUMP JUMPDEST PUSH0 PUSH1 0x40 DUP3 ADD SWAP1 POP PUSH2 0x6F2C PUSH0 DUP4 ADD DUP6 PUSH2 0x6B8E JUMP JUMPDEST PUSH2 0x6F39 PUSH1 0x20 DUP4 ADD DUP5 PUSH2 0x6949 JUMP JUMPDEST SWAP4 SWAP3 POP POP POP JUMP JUMPDEST PUSH0 DUP1 PUSH1 0x40 DUP4 DUP6 SUB SLT ISZERO PUSH2 0x6F56 JUMPI PUSH2 0x6F55 PUSH2 0x58A1 JUMP JUMPDEST JUMPDEST PUSH0 PUSH2 0x6F63 DUP6 DUP3 DUP7 ADD PUSH2 0x6971 JUMP JUMPDEST SWAP3 POP POP PUSH1 0x20 PUSH2 0x6F74 DUP6 DUP3 DUP7 ADD PUSH2 0x6971 JUMP JUMPDEST SWAP2 POP POP SWAP3 POP SWAP3 SWAP1 POP JUMP JUMPDEST PUSH0 DUP2 SWAP1 POP SWAP2 SWAP1 POP JUMP JUMPDEST PUSH2 0x6F90 DUP2 PUSH2 0x6F7E JUMP JUMPDEST DUP2 EQ PUSH2 0x6F9A JUMPI PUSH0 DUP1 REVERT JUMPDEST POP JUMP JUMPDEST PUSH0 DUP2 MLOAD SWAP1 POP PUSH2 0x6FAB DUP2 PUSH2 0x6F87 JUMP JUMPDEST SWAP3 SWAP2 POP POP JUMP JUMPDEST PUSH0 PUSH1 0x20 DUP3 DUP5 SUB SLT ISZERO PUSH2 0x6FC6 JUMPI PUSH2 0x6FC5 PUSH2 0x58A1 JUMP JUMPDEST JUMPDEST PUSH0 PUSH2 0x6FD3 DUP5 DUP3 DUP6 ADD PUSH2 0x6F9D JUMP JUMPDEST SWAP2 POP POP SWAP3 SWAP2 POP POP JUMP JUMPDEST PUSH0 PUSH2 0x6FE6 DUP3 PUSH2 0x602B JUMP JUMPDEST SWAP1 POP SWAP2 SWAP1 POP JUMP JUMPDEST PUSH2 0x6FF6 DUP2 PUSH2 0x6FDC JUMP JUMPDEST DUP3 MSTORE POP POP JUMP JUMPDEST PUSH0 PUSH2 0x7016 PUSH2 0x7011 PUSH2 0x700C DUP5 PUSH2 0x6465 JUMP JUMPDEST PUSH2 0x6001 JUMP JUMPDEST PUSH2 0x58A9 JUMP JUMPDEST SWAP1 POP SWAP2 SWAP1 POP JUMP JUMPDEST PUSH2 0x7026 DUP2 PUSH2 0x6FFC JUMP JUMPDEST DUP3 MSTORE POP POP JUMP JUMPDEST PUSH0 PUSH1 0x60 DUP3 ADD SWAP1 POP PUSH2 0x703F PUSH0 DUP4 ADD DUP7 PUSH2 0x6FED JUMP JUMPDEST PUSH2 0x704C PUSH1 0x20 DUP4 ADD DUP6 PUSH2 0x701D JUMP JUMPDEST PUSH2 0x7059 PUSH1 0x40 DUP4 ADD DUP5 PUSH2 0x6B8E JUMP JUMPDEST SWAP5 SWAP4 POP POP POP POP JUMP JUMPDEST PUSH0 PUSH2 0x706B DUP3 PUSH2 0x58A9 JUMP JUMPDEST SWAP2 POP PUSH0 DUP3 SUB PUSH2 0x707D JUMPI PUSH2 0x707C PUSH2 0x68BC JUMP JUMPDEST JUMPDEST PUSH1 0x1 DUP3 SUB SWAP1 POP SWAP2 SWAP1 POP JUMP JUMPDEST PUSH0 DUP2 SWAP1 POP SWAP3 SWAP2 POP POP JUMP JUMPDEST PUSH0 PUSH2 0x709D PUSH0 DUP4 PUSH2 0x7088 JUMP JUMPDEST SWAP2 POP PUSH2 0x70A8 DUP3 PUSH2 0x6E66 JUMP JUMPDEST PUSH0 DUP3 ADD SWAP1 POP SWAP2 SWAP1 POP JUMP JUMPDEST PUSH0 PUSH2 0x70BC DUP3 PUSH2 0x7092 JUMP JUMPDEST SWAP2 POP DUP2 SWAP1 POP SWAP2 SWAP1 POP JUMP JUMPDEST PUSH0 PUSH1 0x40 DUP3 ADD SWAP1 POP PUSH2 0x70D9 PUSH0 DUP4 ADD DUP6 PUSH2 0x6949 JUMP JUMPDEST PUSH2 0x70E6 PUSH1 0x20 DUP4 ADD DUP5 PUSH2 0x5DC5 JUMP JUMPDEST SWAP4 SWAP3 POP POP POP JUMP JUMPDEST PUSH0 PUSH1 0x60 DUP3 ADD SWAP1 POP PUSH2 0x7100 PUSH0 DUP4 ADD DUP7 PUSH2 0x6A33 JUMP JUMPDEST PUSH2 0x710D PUSH1 0x20 DUP4 ADD DUP6 PUSH2 0x6A33 JUMP JUMPDEST PUSH2 0x711A PUSH1 0x40 DUP4 ADD DUP5 PUSH2 0x5DC5 JUMP JUMPDEST SWAP5 SWAP4 POP POP POP POP JUMP JUMPDEST PUSH0 DUP2 MLOAD SWAP1 POP PUSH2 0x7130 DUP2 PUSH2 0x610A JUMP JUMPDEST SWAP3 SWAP2 POP POP JUMP JUMPDEST PUSH0 PUSH2 0x7140 DUP3 PUSH2 0x5B61 JUMP JUMPDEST SWAP1 POP SWAP2 SWAP1 POP JUMP JUMPDEST PUSH2 0x7150 DUP2 PUSH2 0x7136 JUMP JUMPDEST DUP2 EQ PUSH2 0x715A JUMPI PUSH0 DUP1 REVERT JUMPDEST POP JUMP JUMPDEST PUSH0 DUP2 MLOAD SWAP1 POP PUSH2 0x716B DUP2 PUSH2 0x7147 JUMP JUMPDEST SWAP3 SWAP2 POP POP JUMP JUMPDEST PUSH0 DUP2 MLOAD SWAP1 POP PUSH2 0x717F DUP2 PUSH2 0x64B5 JUMP JUMPDEST SWAP3 SWAP2 POP POP JUMP JUMPDEST PUSH0 PUSH1 0x80 DUP3 DUP5 SUB SLT ISZERO PUSH2 0x719A JUMPI PUSH2 0x7199 PUSH2 0x58DC JUMP JUMPDEST JUMPDEST PUSH2 0x71A4 PUSH1 0x80 PUSH2 0x594E JUMP JUMPDEST SWAP1 POP PUSH0 PUSH2 0x71B3 DUP5 DUP3 DUP6 ADD PUSH2 0x7122 JUMP JUMPDEST PUSH0 DUP4 ADD MSTORE POP PUSH1 0x20 PUSH2 0x71C6 DUP5 DUP3 DUP6 ADD PUSH2 0x715D JUMP JUMPDEST PUSH1 0x20 DUP4 ADD MSTORE POP PUSH1 0x40 PUSH2 0x71DA DUP5 DUP3 DUP6 ADD PUSH2 0x7171 JUMP JUMPDEST PUSH1 0x40 DUP4 ADD MSTORE POP PUSH1 0x60 PUSH2 0x71EE DUP5 DUP3 DUP6 ADD PUSH2 0x7171 JUMP JUMPDEST PUSH1 0x60 DUP4 ADD MSTORE POP SWAP3 SWAP2 POP POP JUMP JUMPDEST PUSH0 PUSH1 0x80 DUP3 DUP5 SUB SLT ISZERO PUSH2 0x720F JUMPI PUSH2 0x720E PUSH2 0x58A1 JUMP JUMPDEST JUMPDEST PUSH0 PUSH2 0x721C DUP5 DUP3 DUP6 ADD PUSH2 0x7185 JUMP JUMPDEST SWAP2 POP POP SWAP3 SWAP2 POP POP JUMP JUMPDEST PUSH0 PUSH1 0x80 DUP3 DUP5 SUB SLT ISZERO PUSH2 0x723A JUMPI PUSH2 0x7239 PUSH2 0x58DC JUMP JUMPDEST JUMPDEST PUSH2 0x7244 PUSH1 0x80 PUSH2 0x594E JUMP JUMPDEST SWAP1 POP PUSH0 PUSH2 0x7253 DUP5 DUP3 DUP6 ADD PUSH2 0x7122 JUMP JUMPDEST PUSH0 DUP4 ADD MSTORE POP PUSH1 0x20 PUSH2 0x7266 DUP5 DUP3 DUP6 ADD PUSH2 0x6A94 JUMP JUMPDEST PUSH1 0x20 DUP4 ADD MSTORE POP PUSH1 0x40 PUSH2 0x727A DUP5 DUP3 DUP6 ADD PUSH2 0x7171 JUMP JUMPDEST PUSH1 0x40 DUP4 ADD MSTORE POP PUSH1 0x60 PUSH2 0x728E DUP5 DUP3 DUP6 ADD PUSH2 0x7171 JUMP JUMPDEST PUSH1 0x60 DUP4 ADD MSTORE POP SWAP3 SWAP2 POP POP JUMP JUMPDEST PUSH0 PUSH1 0x80 DUP3 DUP5 SUB SLT ISZERO PUSH2 0x72AF JUMPI PUSH2 0x72AE PUSH2 0x58A1 JUMP JUMPDEST JUMPDEST PUSH0 PUSH2 0x72BC DUP5 DUP3 DUP6 ADD PUSH2 0x7225 JUMP JUMPDEST SWAP2 POP POP SWAP3 SWAP2 POP POP JUMP JUMPDEST PUSH0 PUSH1 0x60 DUP3 ADD SWAP1 POP PUSH2 0x72D8 PUSH0 DUP4 ADD DUP7 PUSH2 0x6949 JUMP JUMPDEST PUSH2 0x72E5 PUSH1 0x20 DUP4 ADD DUP6 PUSH2 0x6949 JUMP JUMPDEST PUSH2 0x72F2 PUSH1 0x40 DUP4 ADD DUP5 PUSH2 0x5DC5 JUMP JUMPDEST SWAP5 SWAP4 POP POP POP POP JUMP JUMPDEST PUSH0 PUSH1 0x80 DUP3 ADD SWAP1 POP PUSH2 0x730D PUSH0 DUP4 ADD DUP8 PUSH2 0x6949 JUMP JUMPDEST PUSH2 0x731A PUSH1 0x20 DUP4 ADD DUP7 PUSH2 0x6949 JUMP JUMPDEST DUP2 DUP2 SUB PUSH1 0x40 DUP4 ADD MSTORE PUSH2 0x732C DUP2 DUP6 PUSH2 0x5EF2 JUMP JUMPDEST SWAP1 POP DUP2 DUP2 SUB PUSH1 0x60 DUP4 ADD MSTORE PUSH2 0x7340 DUP2 DUP5 PUSH2 0x5EF2 JUMP JUMPDEST SWAP1 POP SWAP6 SWAP5 POP POP POP POP POP JUMP JUMPDEST PUSH0 PUSH8 0xFFFFFFFFFFFFFFFF DUP3 GT ISZERO PUSH2 0x7365 JUMPI PUSH2 0x7364 PUSH2 0x58F0 JUMP JUMPDEST JUMPDEST PUSH1 0x20 DUP3 MUL SWAP1 POP PUSH1 0x20 DUP2 ADD SWAP1 POP SWAP2 SWAP1 POP JUMP JUMPDEST PUSH0 PUSH2 0x7388 PUSH2 0x7383 DUP5 PUSH2 0x734B JUMP JUMPDEST PUSH2 0x594E JUMP JUMPDEST SWAP1 POP DUP1 DUP4 DUP3 MSTORE PUSH1 0x20 DUP3 ADD SWAP1 POP PUSH1 0x20 DUP5 MUL DUP4 ADD DUP6 DUP2 GT ISZERO PUSH2 0x73AB JUMPI PUSH2 0x73AA PUSH2 0x599B JUMP JUMPDEST JUMPDEST DUP4 JUMPDEST DUP2 DUP2 LT ISZERO PUSH2 0x73D4 JUMPI DUP1 PUSH2 0x73C0 DUP9 DUP3 PUSH2 0x6F9D JUMP JUMPDEST DUP5 MSTORE PUSH1 0x20 DUP5 ADD SWAP4 POP POP PUSH1 0x20 DUP2 ADD SWAP1 POP PUSH2 0x73AD JUMP JUMPDEST POP POP POP SWAP4 SWAP3 POP POP POP JUMP JUMPDEST PUSH0 DUP3 PUSH1 0x1F DUP4 ADD SLT PUSH2 0x73F2 JUMPI PUSH2 0x73F1 PUSH2 0x596C JUMP JUMPDEST JUMPDEST DUP2 MLOAD PUSH2 0x7402 DUP5 DUP3 PUSH1 0x20 DUP7 ADD PUSH2 0x7376 JUMP JUMPDEST SWAP2 POP POP SWAP3 SWAP2 POP POP JUMP JUMPDEST PUSH0 PUSH1 0x20 DUP3 DUP5 SUB SLT ISZERO PUSH2 0x7420 JUMPI PUSH2 0x741F PUSH2 0x58A1 JUMP JUMPDEST JUMPDEST PUSH0 DUP3 ADD MLOAD PUSH8 0xFFFFFFFFFFFFFFFF DUP2 GT ISZERO PUSH2 0x743D JUMPI PUSH2 0x743C PUSH2 0x58A5 JUMP JUMPDEST JUMPDEST PUSH2 0x7449 DUP5 DUP3 DUP6 ADD PUSH2 0x73DE JUMP JUMPDEST SWAP2 POP POP SWAP3 SWAP2 POP POP JUMP JUMPDEST PUSH0 PUSH2 0x745C DUP3 PUSH2 0x58A9 JUMP JUMPDEST SWAP2 POP PUSH32 0xFFFFFFFFFFFFFFFFFFFFFFFFFFFFFFFFFFFFFFFFFFFFFFFFFFFFFFFFFFFFFFFF DUP3 SUB PUSH2 0x748E JUMPI PUSH2 0x748D PUSH2 0x68BC JUMP JUMPDEST JUMPDEST PUSH1 0x1 DUP3 ADD SWAP1 POP SWAP2 SWAP1 POP JUMP JUMPDEST PUSH0 PUSH1 0x80 DUP3 ADD SWAP1 POP PUSH2 0x74AC PUSH0 DUP4 ADD DUP8 PUSH2 0x5DC5 JUMP JUMPDEST PUSH2 0x74B9 PUSH1 0x20 DUP4 ADD DUP7 PUSH2 0x5DC5 JUMP JUMPDEST PUSH2 0x74C6 PUSH1 0x40 DUP4 ADD DUP6 PUSH2 0x5DC5 JUMP JUMPDEST PUSH2 0x74D3 PUSH1 0x60 DUP4 ADD DUP5 PUSH2 0x5DC5 JUMP JUMPDEST SWAP6 SWAP5 POP POP POP POP POP JUMP JUMPDEST PUSH0 DUP1 REVERT JUMPDEST PUSH0 DUP1 REVERT JUMPDEST PUSH0 DUP1 REVERT JUMPDEST PUSH0 DUP1 DUP4 CALLDATALOAD PUSH1 0x1 PUSH1 0x20 SUB DUP5 CALLDATASIZE SUB SUB DUP2 SLT PUSH2 0x7504 JUMPI PUSH2 0x7503 PUSH2 0x74DC JUMP JUMPDEST JUMPDEST DUP1 DUP5 ADD SWAP3 POP DUP3 CALLDATALOAD SWAP2 POP PUSH8 0xFFFFFFFFFFFFFFFF DUP3 GT ISZERO PUSH2 0x7526 JUMPI PUSH2 0x7525 PUSH2 0x74E0 JUMP JUMPDEST JUMPDEST PUSH1 0x20 DUP4 ADD SWAP3 POP PUSH1 0x20 DUP3 MUL CALLDATASIZE SUB DUP4 SGT ISZERO PUSH2 0x7542 JUMPI PUSH2 0x7541 PUSH2 0x74E4 JUMP JUMPDEST JUMPDEST POP SWAP3 POP SWAP3 SWAP1 POP JUMP JUMPDEST PUSH0 DUP1 DUP4 CALLDATALOAD PUSH1 0x1 PUSH1 0x20 SUB DUP5 CALLDATASIZE SUB SUB DUP2 SLT PUSH2 0x7566 JUMPI PUSH2 0x7565 PUSH2 0x74DC JUMP JUMPDEST JUMPDEST DUP1 DUP5 ADD SWAP3 POP DUP3 CALLDATALOAD SWAP2 POP PUSH8 0xFFFFFFFFFFFFFFFF DUP3 GT ISZERO PUSH2 0x7588 JUMPI PUSH2 0x7587 PUSH2 0x74E0 JUMP JUMPDEST JUMPDEST PUSH1 0x20 DUP4 ADD SWAP3 POP PUSH1 0x20 DUP3 MUL CALLDATASIZE SUB DUP4 SGT ISZERO PUSH2 0x75A4 JUMPI PUSH2 0x75A3 PUSH2 0x74E4 JUMP JUMPDEST JUMPDEST POP SWAP3 POP SWAP3 SWAP1 POP JUMP JUMPDEST PUSH0 PUSH1 0x60 DUP3 ADD SWAP1 POP PUSH2 0x75BF PUSH0 DUP4 ADD DUP7 PUSH2 0x5DC5 JUMP JUMPDEST PUSH2 0x75CC PUSH1 0x20 DUP4 ADD DUP6 PUSH2 0x5DC5 JUMP JUMPDEST PUSH2 0x75D9 PUSH1 0x40 DUP4 ADD DUP5 PUSH2 0x5DC5 JUMP JUMPDEST SWAP5 SWAP4 POP POP POP POP JUMP JUMPDEST PUSH0 DUP2 SWAP1 POP SWAP2 SWAP1 POP JUMP JUMPDEST PUSH2 0x75F3 DUP2 PUSH2 0x75E1 JUMP JUMPDEST DUP3 MSTORE POP POP JUMP JUMPDEST PUSH0 PUSH1 0x20 DUP3 ADD SWAP1 POP PUSH2 0x760C PUSH0 DUP4 ADD DUP5 PUSH2 0x75EA JUMP JUMPDEST SWAP3 SWAP2 POP POP JUMP JUMPDEST PUSH0 PUSH1 0x20 DUP3 DUP5 SUB SLT ISZERO PUSH2 0x7627 JUMPI PUSH2 0x7626 PUSH2 0x58A1 JUMP JUMPDEST JUMPDEST PUSH0 PUSH2 0x7634 DUP5 DUP3 DUP6 ADD PUSH2 0x5E03 JUMP JUMPDEST SWAP2 POP POP SWAP3 SWAP2 POP POP JUMP JUMPDEST PUSH0 DUP2 MLOAD SWAP1 POP SWAP2 SWAP1 POP JUMP JUMPDEST PUSH0 DUP3 DUP3 MSTORE PUSH1 0x20 DUP3 ADD SWAP1 POP SWAP3 SWAP2 POP POP JUMP JUMPDEST PUSH0 DUP2 SWAP1 POP PUSH1 0x20 DUP3 ADD SWAP1 POP SWAP2 SWAP1 POP JUMP JUMPDEST PUSH2 0x766F DUP2 PUSH2 0x6F7E JUMP JUMPDEST DUP3 MSTORE POP POP JUMP JUMPDEST PUSH0 PUSH2 0x7680 DUP4 DUP4 PUSH2 0x7666 JUMP JUMPDEST PUSH1 0x20 DUP4 ADD SWAP1 POP SWAP3 SWAP2 POP POP JUMP JUMPDEST PUSH0 PUSH1 0x20 DUP3 ADD SWAP1 POP SWAP2 SWAP1 POP JUMP JUMPDEST PUSH0 PUSH2 0x76A2 DUP3 PUSH2 0x763D JUMP JUMPDEST PUSH2 0x76AC DUP2 DUP6 PUSH2 0x7647 JUMP JUMPDEST SWAP4 POP PUSH2 0x76B7 DUP4 PUSH2 0x7657 JUMP JUMPDEST DUP1 PUSH0 JUMPDEST DUP4 DUP2 LT ISZERO PUSH2 0x76E7 JUMPI DUP2 MLOAD PUSH2 0x76CE DUP9 DUP3 PUSH2 0x7675 JUMP JUMPDEST SWAP8 POP PUSH2 0x76D9 DUP4 PUSH2 0x768C JUMP JUMPDEST SWAP3 POP POP PUSH1 0x1 DUP2 ADD SWAP1 POP PUSH2 0x76BA JUMP JUMPDEST POP DUP6 SWAP4 POP POP POP POP SWAP3 SWAP2 POP POP JUMP JUMPDEST PUSH0 PUSH1 0x60 DUP3 ADD SWAP1 POP PUSH2 0x7707 PUSH0 DUP4 ADD DUP7 PUSH2 0x6949 JUMP JUMPDEST DUP2 DUP2 SUB PUSH1 0x20 DUP4 ADD MSTORE PUSH2 0x7719 DUP2 DUP6 PUSH2 0x7698 JUMP JUMPDEST SWAP1 POP PUSH2 0x7728 PUSH1 0x40 DUP4 ADD DUP5 PUSH2 0x6949 JUMP JUMPDEST SWAP5 SWAP4 POP POP POP POP JUMP JUMPDEST PUSH0 PUSH2 0x7742 PUSH2 0x773D DUP5 PUSH2 0x5970 JUMP JUMPDEST PUSH2 0x594E JUMP JUMPDEST SWAP1 POP DUP1 DUP4 DUP3 MSTORE PUSH1 0x20 DUP3 ADD SWAP1 POP PUSH1 0x20 DUP5 MUL DUP4 ADD DUP6 DUP2 GT ISZERO PUSH2 0x7765 JUMPI PUSH2 0x7764 PUSH2 0x599B JUMP JUMPDEST JUMPDEST DUP4 JUMPDEST DUP2 DUP2 LT ISZERO PUSH2 0x778E JUMPI DUP1 PUSH2 0x777A DUP9 DUP3 PUSH2 0x6971 JUMP JUMPDEST DUP5 MSTORE PUSH1 0x20 DUP5 ADD SWAP4 POP POP PUSH1 0x20 DUP2 ADD SWAP1 POP PUSH2 0x7767 JUMP JUMPDEST POP POP POP SWAP4 SWAP3 POP POP POP JUMP JUMPDEST PUSH0 DUP3 PUSH1 0x1F DUP4 ADD SLT PUSH2 0x77AC JUMPI PUSH2 0x77AB PUSH2 0x596C JUMP JUMPDEST JUMPDEST DUP2 MLOAD PUSH2 0x77BC DUP5 DUP3 PUSH1 0x20 DUP7 ADD PUSH2 0x7730 JUMP JUMPDEST SWAP2 POP POP SWAP3 SWAP2 POP POP JUMP JUMPDEST PUSH0 DUP1 PUSH0 PUSH1 0x60 DUP5 DUP7 SUB SLT ISZERO PUSH2 0x77DC JUMPI PUSH2 0x77DB PUSH2 0x58A1 JUMP JUMPDEST JUMPDEST PUSH0 PUSH2 0x77E9 DUP7 DUP3 DUP8 ADD PUSH2 0x6F9D JUMP JUMPDEST SWAP4 POP POP PUSH1 0x20 PUSH2 0x77FA DUP7 DUP3 DUP8 ADD PUSH2 0x6F9D JUMP JUMPDEST SWAP3 POP POP PUSH1 0x40 DUP5 ADD MLOAD PUSH8 0xFFFFFFFFFFFFFFFF DUP2 GT ISZERO PUSH2 0x781B JUMPI PUSH2 0x781A PUSH2 0x58A5 JUMP JUMPDEST JUMPDEST PUSH2 0x7827 DUP7 DUP3 DUP8 ADD PUSH2 0x7798 JUMP JUMPDEST SWAP2 POP POP SWAP3 POP SWAP3 POP SWAP3 JUMP JUMPDEST PUSH0 PUSH1 0x40 DUP3 ADD SWAP1 POP PUSH2 0x7844 PUSH0 DUP4 ADD DUP6 PUSH2 0x6949 JUMP JUMPDEST PUSH2 0x7851 PUSH1 0x20 DUP4 ADD DUP5 PUSH2 0x6949 JUMP JUMPDEST SWAP4 SWAP3 POP POP POP JUMP JUMPDEST PUSH0 PUSH2 0x7862 DUP3 PUSH2 0x58A9 JUMP JUMPDEST SWAP2 POP PUSH2 0x786D DUP4 PUSH2 0x58A9 JUMP JUMPDEST SWAP3 POP DUP3 DUP3 MUL PUSH2 0x787B DUP2 PUSH2 0x58A9 JUMP JUMPDEST SWAP2 POP DUP3 DUP3 DIV DUP5 EQ DUP4 ISZERO OR PUSH2 0x7892 JUMPI PUSH2 0x7891 PUSH2 0x68BC JUMP JUMPDEST JUMPDEST POP SWAP3 SWAP2 POP POP JUMP JUMPDEST PUSH32 0x4E487B7100000000000000000000000000000000000000000000000000000000 PUSH0 MSTORE PUSH1 0x12 PUSH1 0x4 MSTORE PUSH1 0x24 PUSH0 REVERT JUMPDEST PUSH0 PUSH2 0x78D0 DUP3 PUSH2 0x58A9 JUMP JUMPDEST SWAP2 POP PUSH2 0x78DB DUP4 PUSH2 0x58A9 JUMP JUMPDEST SWAP3 POP DUP3 PUSH2 0x78EB JUMPI PUSH2 0x78EA PUSH2 0x7899 JUMP JUMPDEST JUMPDEST DUP3 DUP3 DIV SWAP1 POP SWAP3 SWAP2 POP POP JUMP INVALID LOG2 PUSH5 0x6970667358 0x22 SLT KECCAK256 ISZERO SELFDESTRUCT PUSH24 0x9B1F3E06BE3F48B2BE62E5423313C5F815FB176A2FD491FE LOG4 PUSH18 0x35EF0B64736F6C6343000814003300000000 "
		},
		"gasEstimates": {
			"creation": {
				"codeDepositCost": "6204000",
				"executionCost": "infinite",
				"totalCost": "infinite"
			},
			"external": {
				"addLiquidity((address,address,uint256,uint256,uint256,uint256,uint256,uint256,uint256,int256[],uint256[],uint256[],address,address,uint256))": "infinite",
				"addLiquidityNATIVE((address,address,uint256,uint256,uint256,uint256,uint256,uint256,uint256,int256[],uint256[],uint256[],address,address,uint256))": "infinite",
				"createLBPair(address,address,uint24,uint16)": "infinite",
				"getFactory()": "infinite",
				"getFactoryV2_1()": "infinite",
				"getIdFromPrice(address,uint256)": "infinite",
				"getLegacyFactory()": "infinite",
				"getLegacyRouter()": "infinite",
				"getPriceFromId(address,uint24)": "infinite",
				"getSwapIn(address,uint128,bool)": "infinite",
				"getSwapOut(address,uint128,bool)": "infinite",
				"getV1Factory()": "infinite",
				"getWNATIVE()": "infinite",
				"removeLiquidity(address,address,uint16,uint256,uint256,uint256[],uint256[],address,uint256)": "infinite",
				"removeLiquidityNATIVE(address,uint16,uint256,uint256,uint256[],uint256[],address,uint256)": "infinite",
				"swapExactNATIVEForTokens(uint256,(uint256[],uint8[],address[]),address,uint256)": "infinite",
				"swapExactNATIVEForTokensSupportingFeeOnTransferTokens(uint256,(uint256[],uint8[],address[]),address,uint256)": "infinite",
				"swapExactTokensForNATIVE(uint256,uint256,(uint256[],uint8[],address[]),address,uint256)": "infinite",
				"swapExactTokensForNATIVESupportingFeeOnTransferTokens(uint256,uint256,(uint256[],uint8[],address[]),address,uint256)": "infinite",
				"swapExactTokensForTokens(uint256,uint256,(uint256[],uint8[],address[]),address,uint256)": "infinite",
				"swapExactTokensForTokensSupportingFeeOnTransferTokens(uint256,uint256,(uint256[],uint8[],address[]),address,uint256)": "infinite",
				"swapNATIVEForExactTokens(uint256,(uint256[],uint8[],address[]),address,uint256)": "infinite",
				"swapTokensForExactNATIVE(uint256,uint256,(uint256[],uint8[],address[]),address,uint256)": "infinite",
				"swapTokensForExactTokens(uint256,uint256,(uint256[],uint8[],address[]),address,uint256)": "infinite",
				"sweep(address,address,uint256)": "infinite",
				"sweepLBToken(address,address,uint256[],uint256[])": "infinite"
			},
			"internal": {
				"_addLiquidity(struct ILBRouter.LiquidityParameters calldata,contract ILBPair)": "infinite",
				"_getAmountsIn(enum ILBRouter.Version[] memory,address[] memory,contract IERC20[] memory,uint256)": "infinite",
				"_getLBPairInformation(contract IERC20,contract IERC20,uint256,enum ILBRouter.Version)": "infinite",
				"_getPair(contract IERC20,contract IERC20,uint256,enum ILBRouter.Version)": "infinite",
				"_getPairs(uint256[] memory,enum ILBRouter.Version[] memory,contract IERC20[] memory)": "infinite",
				"_removeLiquidity(contract ILBPair,uint256,uint256,uint256[] memory,uint256[] memory,address)": "infinite",
				"_safeTransfer(contract IERC20,address,uint256)": "infinite",
				"_safeTransferFrom(contract IERC20,address,address,uint256)": "infinite",
				"_safeTransferNative(address,uint256)": "infinite",
				"_swapExactTokensForTokens(uint256,address[] memory,enum ILBRouter.Version[] memory,contract IERC20[] memory,address)": "infinite",
				"_swapSupportingFeeOnTransferTokens(address[] memory,enum ILBRouter.Version[] memory,contract IERC20[] memory,address)": "infinite",
				"_swapTokensForExactTokens(address[] memory,enum ILBRouter.Version[] memory,contract IERC20[] memory,uint256[] memory,address)": "infinite",
				"_wNativeDepositAndTransfer(address,uint256)": "infinite",
				"_wNativeWithdrawAndTransfer(address,uint256)": "infinite"
			}
		},
		"methodIdentifiers": {
			"addLiquidity((address,address,uint256,uint256,uint256,uint256,uint256,uint256,uint256,int256[],uint256[],uint256[],address,address,uint256))": "a3c7271a",
			"addLiquidityNATIVE((address,address,uint256,uint256,uint256,uint256,uint256,uint256,uint256,int256[],uint256[],uint256[],address,address,uint256))": "8efc2b2c",
			"createLBPair(address,address,uint24,uint16)": "659ac74b",
			"getFactory()": "88cc58e4",
			"getFactoryV2_1()": "5c5035cb",
			"getIdFromPrice(address,uint256)": "f96fe925",
			"getLegacyFactory()": "71d1974a",
			"getLegacyRouter()": "ba846523",
			"getPriceFromId(address,uint24)": "d0e380f2",
			"getSwapIn(address,uint128,bool)": "964f987c",
			"getSwapOut(address,uint128,bool)": "a0d376cf",
			"getV1Factory()": "bb558a9f",
			"getWNATIVE()": "6c9c0078",
			"removeLiquidity(address,address,uint16,uint256,uint256,uint256[],uint256[],address,uint256)": "c22159b6",
			"removeLiquidityNATIVE(address,uint16,uint256,uint256,uint256[],uint256[],address,uint256)": "81c2fdfb",
			"swapExactNATIVEForTokens(uint256,(uint256[],uint8[],address[]),address,uint256)": "b066ea7c",
			"swapExactNATIVEForTokensSupportingFeeOnTransferTokens(uint256,(uint256[],uint8[],address[]),address,uint256)": "e038e6dc",
			"swapExactTokensForNATIVE(uint256,uint256,(uint256[],uint8[],address[]),address,uint256)": "9ab6156b",
			"swapExactTokensForNATIVESupportingFeeOnTransferTokens(uint256,uint256,(uint256[],uint8[],address[]),address,uint256)": "1a24f9a9",
			"swapExactTokensForTokens(uint256,uint256,(uint256[],uint8[],address[]),address,uint256)": "2a443fae",
			"swapExactTokensForTokensSupportingFeeOnTransferTokens(uint256,uint256,(uint256[],uint8[],address[]),address,uint256)": "4b801870",
			"swapNATIVEForExactTokens(uint256,(uint256[],uint8[],address[]),address,uint256)": "2075ad22",
			"swapTokensForExactNATIVE(uint256,uint256,(uint256[],uint8[],address[]),address,uint256)": "3dc8f8ec",
			"swapTokensForExactTokens(uint256,uint256,(uint256[],uint8[],address[]),address,uint256)": "92fe8e70",
			"sweep(address,address,uint256)": "62c06767",
			"sweepLBToken(address,address,uint256[],uint256[])": "e9361c08"
		}
	},
	"abi": [
		{
			"inputs": [
				{
					"internalType": "contract ILBFactory",
					"name": "factory2_2",
					"type": "address"
				},
				{
					"internalType": "contract IJoeFactory",
					"name": "factoryV1",
					"type": "address"
				},
				{
					"internalType": "contract ILBLegacyFactory",
					"name": "legacyFactory",
					"type": "address"
				},
				{
					"internalType": "contract ILBLegacyRouter",
					"name": "legacyRouter",
					"type": "address"
				},
				{
					"internalType": "contract ILBFactory",
					"name": "factory2_1",
					"type": "address"
				},
				{
					"internalType": "contract IWNATIVE",
					"name": "wnative",
					"type": "address"
				}
			],
			"stateMutability": "nonpayable",
			"type": "constructor"
		},
		{
			"inputs": [],
			"name": "JoeLibrary__InsufficientAmount",
			"type": "error"
		},
		{
			"inputs": [],
			"name": "JoeLibrary__InsufficientLiquidity",
			"type": "error"
		},
		{
			"inputs": [
				{
					"internalType": "uint256",
					"name": "amountSlippage",
					"type": "uint256"
				}
			],
			"name": "LBRouter__AmountSlippageBPTooBig",
			"type": "error"
		},
		{
			"inputs": [
				{
					"internalType": "uint256",
					"name": "amountXMin",
					"type": "uint256"
				},
				{
					"internalType": "uint256",
					"name": "amountX",
					"type": "uint256"
				},
				{
					"internalType": "uint256",
					"name": "amountYMin",
					"type": "uint256"
				},
				{
					"internalType": "uint256",
					"name": "amountY",
					"type": "uint256"
				}
			],
			"name": "LBRouter__AmountSlippageCaught",
			"type": "error"
		},
		{
			"inputs": [
				{
					"internalType": "uint256",
					"name": "id",
					"type": "uint256"
				}
			],
			"name": "LBRouter__BinReserveOverflows",
			"type": "error"
		},
		{
			"inputs": [],
			"name": "LBRouter__BrokenSwapSafetyCheck",
			"type": "error"
		},
		{
			"inputs": [
				{
					"internalType": "uint256",
					"name": "deadline",
					"type": "uint256"
				},
				{
					"internalType": "uint256",
					"name": "currentTimestamp",
					"type": "uint256"
				}
			],
			"name": "LBRouter__DeadlineExceeded",
			"type": "error"
		},
		{
			"inputs": [
				{
					"internalType": "address",
					"name": "recipient",
					"type": "address"
				},
				{
					"internalType": "uint256",
					"name": "amount",
					"type": "uint256"
				}
			],
			"name": "LBRouter__FailedToSendNATIVE",
			"type": "error"
		},
		{
			"inputs": [
				{
					"internalType": "uint256",
					"name": "idDesired",
					"type": "uint256"
				},
				{
					"internalType": "uint256",
					"name": "idSlippage",
					"type": "uint256"
				}
			],
			"name": "LBRouter__IdDesiredOverflows",
			"type": "error"
		},
		{
			"inputs": [
				{
					"internalType": "int256",
					"name": "id",
					"type": "int256"
				}
			],
			"name": "LBRouter__IdOverflows",
			"type": "error"
		},
		{
			"inputs": [
				{
					"internalType": "uint256",
					"name": "activeIdDesired",
					"type": "uint256"
				},
				{
					"internalType": "uint256",
					"name": "idSlippage",
					"type": "uint256"
				},
				{
					"internalType": "uint256",
					"name": "activeId",
					"type": "uint256"
				}
			],
			"name": "LBRouter__IdSlippageCaught",
			"type": "error"
		},
		{
			"inputs": [
				{
					"internalType": "uint256",
					"name": "amountOutMin",
					"type": "uint256"
				},
				{
					"internalType": "uint256",
					"name": "amountOut",
					"type": "uint256"
				}
			],
			"name": "LBRouter__InsufficientAmountOut",
			"type": "error"
		},
		{
			"inputs": [
				{
					"internalType": "address",
					"name": "wrongToken",
					"type": "address"
				}
			],
			"name": "LBRouter__InvalidTokenPath",
			"type": "error"
		},
		{
			"inputs": [
				{
					"internalType": "uint256",
					"name": "version",
					"type": "uint256"
				}
			],
			"name": "LBRouter__InvalidVersion",
			"type": "error"
		},
		{
			"inputs": [],
			"name": "LBRouter__LengthsMismatch",
			"type": "error"
		},
		{
			"inputs": [
				{
					"internalType": "uint256",
					"name": "amountInMax",
					"type": "uint256"
				},
				{
					"internalType": "uint256",
					"name": "amountIn",
					"type": "uint256"
				}
			],
			"name": "LBRouter__MaxAmountInExceeded",
			"type": "error"
		},
		{
			"inputs": [],
			"name": "LBRouter__NotFactoryOwner",
			"type": "error"
		},
		{
			"inputs": [
				{
					"internalType": "address",
					"name": "tokenX",
					"type": "address"
				},
				{
					"internalType": "address",
					"name": "tokenY",
					"type": "address"
				},
				{
					"internalType": "uint256",
					"name": "binStep",
					"type": "uint256"
				}
			],
			"name": "LBRouter__PairNotCreated",
			"type": "error"
		},
		{
			"inputs": [],
			"name": "LBRouter__SenderIsNotWNATIVE",
			"type": "error"
		},
		{
			"inputs": [
				{
					"internalType": "uint256",
					"name": "id",
					"type": "uint256"
				}
			],
			"name": "LBRouter__SwapOverflows",
			"type": "error"
		},
		{
			"inputs": [
				{
					"internalType": "uint256",
					"name": "excess",
					"type": "uint256"
				}
			],
			"name": "LBRouter__TooMuchTokensIn",
			"type": "error"
		},
		{
			"inputs": [
				{
					"internalType": "uint256",
					"name": "amount",
					"type": "uint256"
				},
				{
					"internalType": "uint256",
					"name": "reserve",
					"type": "uint256"
				}
			],
			"name": "LBRouter__WrongAmounts",
			"type": "error"
		},
		{
			"inputs": [
				{
					"internalType": "address",
					"name": "tokenX",
					"type": "address"
				},
				{
					"internalType": "address",
					"name": "tokenY",
					"type": "address"
				},
				{
					"internalType": "uint256",
					"name": "amountX",
					"type": "uint256"
				},
				{
					"internalType": "uint256",
					"name": "amountY",
					"type": "uint256"
				},
				{
					"internalType": "uint256",
					"name": "msgValue",
					"type": "uint256"
				}
			],
			"name": "LBRouter__WrongNativeLiquidityParameters",
			"type": "error"
		},
		{
			"inputs": [],
			"name": "LBRouter__WrongTokenOrder",
			"type": "error"
		},
		{
			"inputs": [],
			"name": "PackedUint128Math__SubUnderflow",
			"type": "error"
		},
		{
			"inputs": [],
			"name": "TokenHelper__TransferFailed",
			"type": "error"
		},
		{
			"inputs": [
				{
					"components": [
						{
							"internalType": "contract IERC20",
							"name": "tokenX",
							"type": "address"
						},
						{
							"internalType": "contract IERC20",
							"name": "tokenY",
							"type": "address"
						},
						{
							"internalType": "uint256",
							"name": "binStep",
							"type": "uint256"
						},
						{
							"internalType": "uint256",
							"name": "amountX",
							"type": "uint256"
						},
						{
							"internalType": "uint256",
							"name": "amountY",
							"type": "uint256"
						},
						{
							"internalType": "uint256",
							"name": "amountXMin",
							"type": "uint256"
						},
						{
							"internalType": "uint256",
							"name": "amountYMin",
							"type": "uint256"
						},
						{
							"internalType": "uint256",
							"name": "activeIdDesired",
							"type": "uint256"
						},
						{
							"internalType": "uint256",
							"name": "idSlippage",
							"type": "uint256"
						},
						{
							"internalType": "int256[]",
							"name": "deltaIds",
							"type": "int256[]"
						},
						{
							"internalType": "uint256[]",
							"name": "distributionX",
							"type": "uint256[]"
						},
						{
							"internalType": "uint256[]",
							"name": "distributionY",
							"type": "uint256[]"
						},
						{
							"internalType": "address",
							"name": "to",
							"type": "address"
						},
						{
							"internalType": "address",
							"name": "refundTo",
							"type": "address"
						},
						{
							"internalType": "uint256",
							"name": "deadline",
							"type": "uint256"
						}
					],
					"internalType": "struct ILBRouter.LiquidityParameters",
					"name": "liquidityParameters",
					"type": "tuple"
				}
			],
			"name": "addLiquidity",
			"outputs": [
				{
					"internalType": "uint256",
					"name": "amountXAdded",
					"type": "uint256"
				},
				{
					"internalType": "uint256",
					"name": "amountYAdded",
					"type": "uint256"
				},
				{
					"internalType": "uint256",
					"name": "amountXLeft",
					"type": "uint256"
				},
				{
					"internalType": "uint256",
					"name": "amountYLeft",
					"type": "uint256"
				},
				{
					"internalType": "uint256[]",
					"name": "depositIds",
					"type": "uint256[]"
				},
				{
					"internalType": "uint256[]",
					"name": "liquidityMinted",
					"type": "uint256[]"
				}
			],
			"stateMutability": "nonpayable",
			"type": "function"
		},
		{
			"inputs": [
				{
					"components": [
						{
							"internalType": "contract IERC20",
							"name": "tokenX",
							"type": "address"
						},
						{
							"internalType": "contract IERC20",
							"name": "tokenY",
							"type": "address"
						},
						{
							"internalType": "uint256",
							"name": "binStep",
							"type": "uint256"
						},
						{
							"internalType": "uint256",
							"name": "amountX",
							"type": "uint256"
						},
						{
							"internalType": "uint256",
							"name": "amountY",
							"type": "uint256"
						},
						{
							"internalType": "uint256",
							"name": "amountXMin",
							"type": "uint256"
						},
						{
							"internalType": "uint256",
							"name": "amountYMin",
							"type": "uint256"
						},
						{
							"internalType": "uint256",
							"name": "activeIdDesired",
							"type": "uint256"
						},
						{
							"internalType": "uint256",
							"name": "idSlippage",
							"type": "uint256"
						},
						{
							"internalType": "int256[]",
							"name": "deltaIds",
							"type": "int256[]"
						},
						{
							"internalType": "uint256[]",
							"name": "distributionX",
							"type": "uint256[]"
						},
						{
							"internalType": "uint256[]",
							"name": "distributionY",
							"type": "uint256[]"
						},
						{
							"internalType": "address",
							"name": "to",
							"type": "address"
						},
						{
							"internalType": "address",
							"name": "refundTo",
							"type": "address"
						},
						{
							"internalType": "uint256",
							"name": "deadline",
							"type": "uint256"
						}
					],
					"internalType": "struct ILBRouter.LiquidityParameters",
					"name": "liquidityParameters",
					"type": "tuple"
				}
			],
			"name": "addLiquidityNATIVE",
			"outputs": [
				{
					"internalType": "uint256",
					"name": "amountXAdded",
					"type": "uint256"
				},
				{
					"internalType": "uint256",
					"name": "amountYAdded",
					"type": "uint256"
				},
				{
					"internalType": "uint256",
					"name": "amountXLeft",
					"type": "uint256"
				},
				{
					"internalType": "uint256",
					"name": "amountYLeft",
					"type": "uint256"
				},
				{
					"internalType": "uint256[]",
					"name": "depositIds",
					"type": "uint256[]"
				},
				{
					"internalType": "uint256[]",
					"name": "liquidityMinted",
					"type": "uint256[]"
				}
			],
			"stateMutability": "payable",
			"type": "function"
		},
		{
			"inputs": [
				{
					"internalType": "contract IERC20",
					"name": "tokenX",
					"type": "address"
				},
				{
					"internalType": "contract IERC20",
					"name": "tokenY",
					"type": "address"
				},
				{
					"internalType": "uint24",
					"name": "activeId",
					"type": "uint24"
				},
				{
					"internalType": "uint16",
					"name": "binStep",
					"type": "uint16"
				}
			],
			"name": "createLBPair",
			"outputs": [
				{
					"internalType": "contract ILBPair",
					"name": "pair",
					"type": "address"
				}
			],
			"stateMutability": "nonpayable",
			"type": "function"
		},
		{
			"inputs": [],
			"name": "getFactory",
			"outputs": [
				{
					"internalType": "contract ILBFactory",
					"name": "lbFactory",
					"type": "address"
				}
			],
			"stateMutability": "view",
			"type": "function"
		},
		{
			"inputs": [],
			"name": "getFactoryV2_1",
			"outputs": [
				{
					"internalType": "contract ILBFactory",
					"name": "lbFactory",
					"type": "address"
				}
			],
			"stateMutability": "view",
			"type": "function"
		},
		{
			"inputs": [
				{
					"internalType": "contract ILBPair",
					"name": "pair",
					"type": "address"
				},
				{
					"internalType": "uint256",
					"name": "price",
					"type": "uint256"
				}
			],
			"name": "getIdFromPrice",
			"outputs": [
				{
					"internalType": "uint24",
					"name": "",
					"type": "uint24"
				}
			],
			"stateMutability": "view",
			"type": "function"
		},
		{
			"inputs": [],
			"name": "getLegacyFactory",
			"outputs": [
				{
					"internalType": "contract ILBLegacyFactory",
					"name": "legacyLBfactory",
					"type": "address"
				}
			],
			"stateMutability": "view",
			"type": "function"
		},
		{
			"inputs": [],
			"name": "getLegacyRouter",
			"outputs": [
				{
					"internalType": "contract ILBLegacyRouter",
					"name": "legacyRouter",
					"type": "address"
				}
			],
			"stateMutability": "view",
			"type": "function"
		},
		{
			"inputs": [
				{
					"internalType": "contract ILBPair",
					"name": "pair",
					"type": "address"
				},
				{
					"internalType": "uint24",
					"name": "id",
					"type": "uint24"
				}
			],
			"name": "getPriceFromId",
			"outputs": [
				{
					"internalType": "uint256",
					"name": "",
					"type": "uint256"
				}
			],
			"stateMutability": "view",
			"type": "function"
		},
		{
			"inputs": [
				{
					"internalType": "contract ILBPair",
					"name": "pair",
					"type": "address"
				},
				{
					"internalType": "uint128",
					"name": "amountOut",
					"type": "uint128"
				},
				{
					"internalType": "bool",
					"name": "swapForY",
					"type": "bool"
				}
			],
			"name": "getSwapIn",
			"outputs": [
				{
					"internalType": "uint128",
					"name": "amountIn",
					"type": "uint128"
				},
				{
					"internalType": "uint128",
					"name": "amountOutLeft",
					"type": "uint128"
				},
				{
					"internalType": "uint128",
					"name": "fee",
					"type": "uint128"
				}
			],
			"stateMutability": "view",
			"type": "function"
		},
		{
			"inputs": [
				{
					"internalType": "contract ILBPair",
					"name": "pair",
					"type": "address"
				},
				{
					"internalType": "uint128",
					"name": "amountIn",
					"type": "uint128"
				},
				{
					"internalType": "bool",
					"name": "swapForY",
					"type": "bool"
				}
			],
			"name": "getSwapOut",
			"outputs": [
				{
					"internalType": "uint128",
					"name": "amountInLeft",
					"type": "uint128"
				},
				{
					"internalType": "uint128",
					"name": "amountOut",
					"type": "uint128"
				},
				{
					"internalType": "uint128",
					"name": "fee",
					"type": "uint128"
				}
			],
			"stateMutability": "view",
			"type": "function"
		},
		{
			"inputs": [],
			"name": "getV1Factory",
			"outputs": [
				{
					"internalType": "contract IJoeFactory",
					"name": "factoryV1",
					"type": "address"
				}
			],
			"stateMutability": "view",
			"type": "function"
		},
		{
			"inputs": [],
			"name": "getWNATIVE",
			"outputs": [
				{
					"internalType": "contract IWNATIVE",
					"name": "wnative",
					"type": "address"
				}
			],
			"stateMutability": "view",
			"type": "function"
		},
		{
			"inputs": [
				{
					"internalType": "contract IERC20",
					"name": "tokenX",
					"type": "address"
				},
				{
					"internalType": "contract IERC20",
					"name": "tokenY",
					"type": "address"
				},
				{
					"internalType": "uint16",
					"name": "binStep",
					"type": "uint16"
				},
				{
					"internalType": "uint256",
					"name": "amountXMin",
					"type": "uint256"
				},
				{
					"internalType": "uint256",
					"name": "amountYMin",
					"type": "uint256"
				},
				{
					"internalType": "uint256[]",
					"name": "ids",
					"type": "uint256[]"
				},
				{
					"internalType": "uint256[]",
					"name": "amounts",
					"type": "uint256[]"
				},
				{
					"internalType": "address",
					"name": "to",
					"type": "address"
				},
				{
					"internalType": "uint256",
					"name": "deadline",
					"type": "uint256"
				}
			],
			"name": "removeLiquidity",
			"outputs": [
				{
					"internalType": "uint256",
					"name": "amountX",
					"type": "uint256"
				},
				{
					"internalType": "uint256",
					"name": "amountY",
					"type": "uint256"
				}
			],
			"stateMutability": "nonpayable",
			"type": "function"
		},
		{
			"inputs": [
				{
					"internalType": "contract IERC20",
					"name": "token",
					"type": "address"
				},
				{
					"internalType": "uint16",
					"name": "binStep",
					"type": "uint16"
				},
				{
					"internalType": "uint256",
					"name": "amountTokenMin",
					"type": "uint256"
				},
				{
					"internalType": "uint256",
					"name": "amountNATIVEMin",
					"type": "uint256"
				},
				{
					"internalType": "uint256[]",
					"name": "ids",
					"type": "uint256[]"
				},
				{
					"internalType": "uint256[]",
					"name": "amounts",
					"type": "uint256[]"
				},
				{
					"internalType": "address payable",
					"name": "to",
					"type": "address"
				},
				{
					"internalType": "uint256",
					"name": "deadline",
					"type": "uint256"
				}
			],
			"name": "removeLiquidityNATIVE",
			"outputs": [
				{
					"internalType": "uint256",
					"name": "amountToken",
					"type": "uint256"
				},
				{
					"internalType": "uint256",
					"name": "amountNATIVE",
					"type": "uint256"
				}
			],
			"stateMutability": "nonpayable",
			"type": "function"
		},
		{
			"inputs": [
				{
					"internalType": "uint256",
					"name": "amountOutMin",
					"type": "uint256"
				},
				{
					"components": [
						{
							"internalType": "uint256[]",
							"name": "pairBinSteps",
							"type": "uint256[]"
						},
						{
							"internalType": "enum ILBRouter.Version[]",
							"name": "versions",
							"type": "uint8[]"
						},
						{
							"internalType": "contract IERC20[]",
							"name": "tokenPath",
							"type": "address[]"
						}
					],
					"internalType": "struct ILBRouter.Path",
					"name": "path",
					"type": "tuple"
				},
				{
					"internalType": "address",
					"name": "to",
					"type": "address"
				},
				{
					"internalType": "uint256",
					"name": "deadline",
					"type": "uint256"
				}
			],
			"name": "swapExactNATIVEForTokens",
			"outputs": [
				{
					"internalType": "uint256",
					"name": "amountOut",
					"type": "uint256"
				}
			],
			"stateMutability": "payable",
			"type": "function"
		},
		{
			"inputs": [
				{
					"internalType": "uint256",
					"name": "amountOutMin",
					"type": "uint256"
				},
				{
					"components": [
						{
							"internalType": "uint256[]",
							"name": "pairBinSteps",
							"type": "uint256[]"
						},
						{
							"internalType": "enum ILBRouter.Version[]",
							"name": "versions",
							"type": "uint8[]"
						},
						{
							"internalType": "contract IERC20[]",
							"name": "tokenPath",
							"type": "address[]"
						}
					],
					"internalType": "struct ILBRouter.Path",
					"name": "path",
					"type": "tuple"
				},
				{
					"internalType": "address",
					"name": "to",
					"type": "address"
				},
				{
					"internalType": "uint256",
					"name": "deadline",
					"type": "uint256"
				}
			],
			"name": "swapExactNATIVEForTokensSupportingFeeOnTransferTokens",
			"outputs": [
				{
					"internalType": "uint256",
					"name": "amountOut",
					"type": "uint256"
				}
			],
			"stateMutability": "payable",
			"type": "function"
		},
		{
			"inputs": [
				{
					"internalType": "uint256",
					"name": "amountIn",
					"type": "uint256"
				},
				{
					"internalType": "uint256",
					"name": "amountOutMinNATIVE",
					"type": "uint256"
				},
				{
					"components": [
						{
							"internalType": "uint256[]",
							"name": "pairBinSteps",
							"type": "uint256[]"
						},
						{
							"internalType": "enum ILBRouter.Version[]",
							"name": "versions",
							"type": "uint8[]"
						},
						{
							"internalType": "contract IERC20[]",
							"name": "tokenPath",
							"type": "address[]"
						}
					],
					"internalType": "struct ILBRouter.Path",
					"name": "path",
					"type": "tuple"
				},
				{
					"internalType": "address payable",
					"name": "to",
					"type": "address"
				},
				{
					"internalType": "uint256",
					"name": "deadline",
					"type": "uint256"
				}
			],
			"name": "swapExactTokensForNATIVE",
			"outputs": [
				{
					"internalType": "uint256",
					"name": "amountOut",
					"type": "uint256"
				}
			],
			"stateMutability": "nonpayable",
			"type": "function"
		},
		{
			"inputs": [
				{
					"internalType": "uint256",
					"name": "amountIn",
					"type": "uint256"
				},
				{
					"internalType": "uint256",
					"name": "amountOutMinNATIVE",
					"type": "uint256"
				},
				{
					"components": [
						{
							"internalType": "uint256[]",
							"name": "pairBinSteps",
							"type": "uint256[]"
						},
						{
							"internalType": "enum ILBRouter.Version[]",
							"name": "versions",
							"type": "uint8[]"
						},
						{
							"internalType": "contract IERC20[]",
							"name": "tokenPath",
							"type": "address[]"
						}
					],
					"internalType": "struct ILBRouter.Path",
					"name": "path",
					"type": "tuple"
				},
				{
					"internalType": "address payable",
					"name": "to",
					"type": "address"
				},
				{
					"internalType": "uint256",
					"name": "deadline",
					"type": "uint256"
				}
			],
			"name": "swapExactTokensForNATIVESupportingFeeOnTransferTokens",
			"outputs": [
				{
					"internalType": "uint256",
					"name": "amountOut",
					"type": "uint256"
				}
			],
			"stateMutability": "nonpayable",
			"type": "function"
		},
		{
			"inputs": [
				{
					"internalType": "uint256",
					"name": "amountIn",
					"type": "uint256"
				},
				{
					"internalType": "uint256",
					"name": "amountOutMin",
					"type": "uint256"
				},
				{
					"components": [
						{
							"internalType": "uint256[]",
							"name": "pairBinSteps",
							"type": "uint256[]"
						},
						{
							"internalType": "enum ILBRouter.Version[]",
							"name": "versions",
							"type": "uint8[]"
						},
						{
							"internalType": "contract IERC20[]",
							"name": "tokenPath",
							"type": "address[]"
						}
					],
					"internalType": "struct ILBRouter.Path",
					"name": "path",
					"type": "tuple"
				},
				{
					"internalType": "address",
					"name": "to",
					"type": "address"
				},
				{
					"internalType": "uint256",
					"name": "deadline",
					"type": "uint256"
				}
			],
			"name": "swapExactTokensForTokens",
			"outputs": [
				{
					"internalType": "uint256",
					"name": "amountOut",
					"type": "uint256"
				}
			],
			"stateMutability": "nonpayable",
			"type": "function"
		},
		{
			"inputs": [
				{
					"internalType": "uint256",
					"name": "amountIn",
					"type": "uint256"
				},
				{
					"internalType": "uint256",
					"name": "amountOutMin",
					"type": "uint256"
				},
				{
					"components": [
						{
							"internalType": "uint256[]",
							"name": "pairBinSteps",
							"type": "uint256[]"
						},
						{
							"internalType": "enum ILBRouter.Version[]",
							"name": "versions",
							"type": "uint8[]"
						},
						{
							"internalType": "contract IERC20[]",
							"name": "tokenPath",
							"type": "address[]"
						}
					],
					"internalType": "struct ILBRouter.Path",
					"name": "path",
					"type": "tuple"
				},
				{
					"internalType": "address",
					"name": "to",
					"type": "address"
				},
				{
					"internalType": "uint256",
					"name": "deadline",
					"type": "uint256"
				}
			],
			"name": "swapExactTokensForTokensSupportingFeeOnTransferTokens",
			"outputs": [
				{
					"internalType": "uint256",
					"name": "amountOut",
					"type": "uint256"
				}
			],
			"stateMutability": "nonpayable",
			"type": "function"
		},
		{
			"inputs": [
				{
					"internalType": "uint256",
					"name": "amountOut",
					"type": "uint256"
				},
				{
					"components": [
						{
							"internalType": "uint256[]",
							"name": "pairBinSteps",
							"type": "uint256[]"
						},
						{
							"internalType": "enum ILBRouter.Version[]",
							"name": "versions",
							"type": "uint8[]"
						},
						{
							"internalType": "contract IERC20[]",
							"name": "tokenPath",
							"type": "address[]"
						}
					],
					"internalType": "struct ILBRouter.Path",
					"name": "path",
					"type": "tuple"
				},
				{
					"internalType": "address",
					"name": "to",
					"type": "address"
				},
				{
					"internalType": "uint256",
					"name": "deadline",
					"type": "uint256"
				}
			],
			"name": "swapNATIVEForExactTokens",
			"outputs": [
				{
					"internalType": "uint256[]",
					"name": "amountsIn",
					"type": "uint256[]"
				}
			],
			"stateMutability": "payable",
			"type": "function"
		},
		{
			"inputs": [
				{
					"internalType": "uint256",
					"name": "amountNATIVEOut",
					"type": "uint256"
				},
				{
					"internalType": "uint256",
					"name": "amountInMax",
					"type": "uint256"
				},
				{
					"components": [
						{
							"internalType": "uint256[]",
							"name": "pairBinSteps",
							"type": "uint256[]"
						},
						{
							"internalType": "enum ILBRouter.Version[]",
							"name": "versions",
							"type": "uint8[]"
						},
						{
							"internalType": "contract IERC20[]",
							"name": "tokenPath",
							"type": "address[]"
						}
					],
					"internalType": "struct ILBRouter.Path",
					"name": "path",
					"type": "tuple"
				},
				{
					"internalType": "address payable",
					"name": "to",
					"type": "address"
				},
				{
					"internalType": "uint256",
					"name": "deadline",
					"type": "uint256"
				}
			],
			"name": "swapTokensForExactNATIVE",
			"outputs": [
				{
					"internalType": "uint256[]",
					"name": "amountsIn",
					"type": "uint256[]"
				}
			],
			"stateMutability": "nonpayable",
			"type": "function"
		},
		{
			"inputs": [
				{
					"internalType": "uint256",
					"name": "amountOut",
					"type": "uint256"
				},
				{
					"internalType": "uint256",
					"name": "amountInMax",
					"type": "uint256"
				},
				{
					"components": [
						{
							"internalType": "uint256[]",
							"name": "pairBinSteps",
							"type": "uint256[]"
						},
						{
							"internalType": "enum ILBRouter.Version[]",
							"name": "versions",
							"type": "uint8[]"
						},
						{
							"internalType": "contract IERC20[]",
							"name": "tokenPath",
							"type": "address[]"
						}
					],
					"internalType": "struct ILBRouter.Path",
					"name": "path",
					"type": "tuple"
				},
				{
					"internalType": "address",
					"name": "to",
					"type": "address"
				},
				{
					"internalType": "uint256",
					"name": "deadline",
					"type": "uint256"
				}
			],
			"name": "swapTokensForExactTokens",
			"outputs": [
				{
					"internalType": "uint256[]",
					"name": "amountsIn",
					"type": "uint256[]"
				}
			],
			"stateMutability": "nonpayable",
			"type": "function"
		},
		{
			"inputs": [
				{
					"internalType": "contract IERC20",
					"name": "token",
					"type": "address"
				},
				{
					"internalType": "address",
					"name": "to",
					"type": "address"
				},
				{
					"internalType": "uint256",
					"name": "amount",
					"type": "uint256"
				}
			],
			"name": "sweep",
			"outputs": [],
			"stateMutability": "nonpayable",
			"type": "function"
		},
		{
			"inputs": [
				{
					"internalType": "contract ILBToken",
					"name": "lbToken",
					"type": "address"
				},
				{
					"internalType": "address",
					"name": "to",
					"type": "address"
				},
				{
					"internalType": "uint256[]",
					"name": "ids",
					"type": "uint256[]"
				},
				{
					"internalType": "uint256[]",
					"name": "amounts",
					"type": "uint256[]"
				}
			],
			"name": "sweepLBToken",
			"outputs": [],
			"stateMutability": "nonpayable",
			"type": "function"
		},
		{
			"stateMutability": "payable",
			"type": "receive"
		}
	]
}