{
	"data": {
		"bytecode": {
			"linkReferences": {},
			"object": "60e060405234801562000010575f80fd5b506040516200750338038062007503833981810160405281019062000036919062000312565b8273ffffffffffffffffffffffffffffffffffffffff1660808173ffffffffffffffffffffffffffffffffffffffff16815250508173ffffffffffffffffffffffffffffffffffffffff1660a08173ffffffffffffffffffffffffffffffffffffffff16815250508073ffffffffffffffffffffffffffffffffffffffff1660c08173ffffffffffffffffffffffffffffffffffffffff1681525050620000e2620000eb60201b60201c565b505050620003aa565b5f620000fc620001ef60201b60201c565b9050805f0160089054906101000a900460ff161562000147576040517ff92ee8a900000000000000000000000000000000000000000000000000000000815260040160405180910390fd5b67ffffffffffffffff8016815f015f9054906101000a900467ffffffffffffffff1667ffffffffffffffff1614620001ec5767ffffffffffffffff815f015f6101000a81548167ffffffffffffffff021916908367ffffffffffffffff1602179055507fc7f505b2f371ae2175ee4913f4499e1f2633a7b5936321eed1cdaeb6115181d267ffffffffffffffff604051620001e391906200038f565b60405180910390a15b50565b5f7ff0c57e16840df040f15088dc2f81fe391c3923bec73e23a9662efc9c229c6a00905090565b5f80fd5b5f73ffffffffffffffffffffffffffffffffffffffff82169050919050565b5f62000245826200021a565b9050919050565b5f620002588262000239565b9050919050565b6200026a816200024c565b811462000275575f80fd5b50565b5f8151905062000288816200025f565b92915050565b5f6200029a8262000239565b9050919050565b620002ac816200028e565b8114620002b7575f80fd5b50565b5f81519050620002ca81620002a1565b92915050565b5f620002dc8262000239565b9050919050565b620002ee81620002d0565b8114620002f9575f80fd5b50565b5f815190506200030c81620002e3565b92915050565b5f805f606084860312156200032c576200032b62000216565b5b5f6200033b8682870162000278565b93505060206200034e86828701620002ba565b92505060406200036186828701620002fc565b9150509250925092565b5f67ffffffffffffffff82169050919050565b62000389816200036b565b82525050565b5f602082019050620003a45f8301846200037e565b92915050565b60805160a05160c05161709b620004685f395f818161015501528181610798015281816108860152818161097901528181610b3801528181610fe9015281816117c8015281816119b401528181611a6501528181611c4601528181611ceb015281816121ac0152818161262c01528181612a46015281816135310152818161397a01526139fc01525f818161279f0152614c6a01525f81816114e00152818161171e01528181611b0201528181612cda0152614387015261709b5ff3fe60806040526004361061014e575f3560e01c806392fe8e70116100b5578063bb558a9f1161006e578063bb558a9f146105a3578063c22159b6146105cd578063d0e380f21461060a578063e038e6dc14610646578063e9361c0814610676578063f96fe9251461069e576101da565b806392fe8e701461043e578063964f987c1461047a5780639ab6156b146104b8578063a0d376cf146104f4578063a3c7271a14610532578063b066ea7c14610573576101da565b8063659ac74b11610107578063659ac74b146103265780636c9c0078146103625780638129fc1c1461038c57806381c2fdfb146103a257806388cc58e4146103df5780638efc2b2c14610409576101da565b80631a24f9a9146101de5780632075ad221461021a5780632a443fae1461024a5780633dc8f8ec146102865780634b801870146102c257806362c06767146102fe576101da565b366101da577f000000000000000000000000000000000000000000000000000000000000000073ffffffffffffffffffffffffffffffffffffffff163373ffffffffffffffffffffffffffffffffffffffff16146101d8576040517f6c8cb79300000000000000000000000000000000000000000000000000000000815260040160405180910390fd5b005b5f80fd5b3480156101e9575f80fd5b5061020460048036038101906101ff919061564c565b6106da565b60405161021191906156ee565b60405180910390f35b610234600480360381019061022f9190615731565b610a79565b6040516102419190615868565b60405180910390f35b348015610255575f80fd5b50610270600480360381019061026b9190615888565b610da7565b60405161027d91906156ee565b60405180910390f35b348015610291575f80fd5b506102ac60048036038101906102a7919061564c565b610f2a565b6040516102b99190615868565b60405180910390f35b3480156102cd575f80fd5b506102e860048036038101906102e39190615888565b611239565b6040516102f591906156ee565b60405180910390f35b348015610309575f80fd5b50610324600480360381019061031f919061591b565b6114de565b005b348015610331575f80fd5b5061034c600480360381019061034791906159da565b61171b565b6040516103599190615a99565b60405180910390f35b34801561036d575f80fd5b506103766117c5565b6040516103839190615ad2565b60405180910390f35b348015610397575f80fd5b506103a06117ec565b005b3480156103ad575f80fd5b506103c860048036038101906103c39190615aeb565b611963565b6040516103d6929190615bd4565b60405180910390f35b3480156103ea575f80fd5b506103f3611aff565b6040516104009190615c1b565b60405180910390f35b610423600480360381019061041e9190615c57565b611b26565b60405161043596959493929190615c9e565b60405180910390f35b348015610449575f80fd5b50610464600480360381019061045f9190615888565b611e2b565b6040516104719190615868565b60405180910390f35b348015610485575f80fd5b506104a0600480360381019061049b9190615dc0565b61205c565b6040516104af93929190615e1f565b60405180910390f35b3480156104c3575f80fd5b506104de60048036038101906104d9919061564c565b6120ee565b6040516104eb91906156ee565b60405180910390f35b3480156104ff575f80fd5b5061051a60048036038101906105159190615dc0565b61234f565b60405161052993929190615e1f565b60405180910390f35b34801561053d575f80fd5b5061055860048036038101906105539190615c57565b6123e1565b60405161056a96959493929190615c9e565b60405180910390f35b61058d60048036038101906105889190615731565b61256e565b60405161059a91906156ee565b60405180910390f35b3480156105ae575f80fd5b506105b761279c565b6040516105c49190615e74565b60405180910390f35b3480156105d8575f80fd5b506105f360048036038101906105ee9190615e8d565b6127c3565b604051610601929190615bd4565b60405180910390f35b348015610615575f80fd5b50610630600480360381019061062b9190615f89565b612907565b60405161063d91906156ee565b60405180910390f35b610660600480360381019061065b9190615731565b612988565b60405161066d91906156ee565b60405180910390f35b348015610681575f80fd5b5061069c6004803603810190610697919061605b565b612cd8565b005b3480156106a9575f80fd5b506106c460048036038101906106bf91906160fe565b612e41565b6040516106d1919061614b565b60405180910390f35b5f81804211156107235780426040517fdae7ca7d00000000000000000000000000000000000000000000000000000000815260040161071a929190615bd4565b60405180910390fd5b845f815f015151148061073f5750805f01515181602001515114155b8061075f57508060400151516001825f01515161075c9190616191565b14155b15610796576040517fb91b4d4d00000000000000000000000000000000000000000000000000000000815260040160405180910390fd5b7f000000000000000000000000000000000000000000000000000000000000000073ffffffffffffffffffffffffffffffffffffffff168660400151875f015151815181106107e8576107e76161c4565b5b602002602001015173ffffffffffffffffffffffffffffffffffffffff161461086a578560400151865f01515181518110610826576108256161c4565b5b60200260200101516040517fcfec0e010000000000000000000000000000000000000000000000000000000081526004016108619190616200565b60405180910390fd5b5f610881875f015188602001518960400151612ec2565b90505f7f000000000000000000000000000000000000000000000000000000000000000073ffffffffffffffffffffffffffffffffffffffff166370a08231306040518263ffffffff1660e01b81526004016108dd9190616200565b602060405180830381865afa1580156108f8573d5f803e3d5ffd5b505050506040513d601f19601f8201168201806040525081019061091c919061622d565b905061096288604001515f81518110610938576109376161c4565b5b602002602001015133845f81518110610954576109536161c4565b5b60200260200101518d612fff565b6109768289602001518a604001513061303b565b807f000000000000000000000000000000000000000000000000000000000000000073ffffffffffffffffffffffffffffffffffffffff166370a08231306040518263ffffffff1660e01b81526004016109d09190616200565b602060405180830381865afa1580156109eb573d5f803e3d5ffd5b505050506040513d601f19601f82011682018060405250810190610a0f919061622d565b610a199190616258565b945084891115610a625788856040517f4feac00c000000000000000000000000000000000000000000000000000000008152600401610a59929190615bd4565b60405180910390fd5b610a6c8786613527565b5050505095945050505050565b60608180421115610ac35780426040517fdae7ca7d000000000000000000000000000000000000000000000000000000008152600401610aba929190615bd4565b60405180910390fd5b845f815f0151511480610adf5750805f01515181602001515114155b80610aff57508060400151516001825f015151610afc9190616191565b14155b15610b36576040517fb91b4d4d00000000000000000000000000000000000000000000000000000000815260040160405180910390fd5b7f000000000000000000000000000000000000000000000000000000000000000073ffffffffffffffffffffffffffffffffffffffff1686604001515f81518110610b8457610b836161c4565b5b602002602001015173ffffffffffffffffffffffffffffffffffffffff1614610c025785604001515f81518110610bbe57610bbd6161c4565b5b60200260200101516040517fcfec0e01000000000000000000000000000000000000000000000000000000008152600401610bf99190616200565b60405180910390fd5b5f610c19875f015188602001518960400151612ec2565b9050610c2f87602001518289604001518b6135c4565b935034845f81518110610c4557610c446161c4565b5b60200260200101511115610cac5734845f81518110610c6757610c666161c4565b5b60200260200101516040517fca7710c8000000000000000000000000000000000000000000000000000000008152600401610ca3929190615bd4565b60405180910390fd5b610cea815f81518110610cc257610cc16161c4565b5b6020026020010151855f81518110610cdd57610cdc6161c4565b5b6020026020010151613970565b5f610d008289602001518a60400151888b613a45565b905088811015610d495788816040517f4feac00c000000000000000000000000000000000000000000000000000000008152600401610d40929190615bd4565b60405180910390fd5b845f81518110610d5c57610d5b6161c4565b5b6020026020010151341115610d9b57610d9a33865f81518110610d8257610d816161c4565b5b602002602001015134610d959190616258565b613ddb565b5b50505050949350505050565b5f8180421115610df05780426040517fdae7ca7d000000000000000000000000000000000000000000000000000000008152600401610de7929190615bd4565b60405180910390fd5b845f815f0151511480610e0c5750805f01515181602001515114155b80610e2c57508060400151516001825f015151610e299190616191565b14155b15610e63576040517fb91b4d4d00000000000000000000000000000000000000000000000000000000815260040160405180910390fd5b5f610e7a875f015188602001518960400151612ec2565b9050610ec087604001515f81518110610e9657610e956161c4565b5b602002602001015133835f81518110610eb257610eb16161c4565b5b60200260200101518c612fff565b610ed5898289602001518a604001518a613e95565b935083881115610f1e5787846040517f4feac00c000000000000000000000000000000000000000000000000000000008152600401610f15929190615bd4565b60405180910390fd5b50505095945050505050565b60608180421115610f745780426040517fdae7ca7d000000000000000000000000000000000000000000000000000000008152600401610f6b929190615bd4565b60405180910390fd5b845f815f0151511480610f905750805f01515181602001515114155b80610fb057508060400151516001825f015151610fad9190616191565b14155b15610fe7576040517fb91b4d4d00000000000000000000000000000000000000000000000000000000815260040160405180910390fd5b7f000000000000000000000000000000000000000000000000000000000000000073ffffffffffffffffffffffffffffffffffffffff168660400151875f01515181518110611039576110386161c4565b5b602002602001015173ffffffffffffffffffffffffffffffffffffffff16146110bb578560400151865f01515181518110611077576110766161c4565b5b60200260200101516040517fcfec0e010000000000000000000000000000000000000000000000000000000081526004016110b29190616200565b60405180910390fd5b5f6110d2875f015188602001518960400151612ec2565b90506110e887602001518289604001518c6135c4565b935087845f815181106110fe576110fd6161c4565b5b602002602001015111156111655787845f815181106111205761111f6161c4565b5b60200260200101516040517fca7710c800000000000000000000000000000000000000000000000000000000815260040161115c929190615bd4565b60405180910390fd5b6111c387604001515f8151811061117f5761117e6161c4565b5b602002602001015133835f8151811061119b5761119a6161c4565b5b6020026020010151875f815181106111b6576111b56161c4565b5b6020026020010151612fff565b5f6111d98289602001518a604001518830613a45565b9050898110156112225789816040517f4feac00c000000000000000000000000000000000000000000000000000000008152600401611219929190615bd4565b60405180910390fd5b61122c8782613527565b5050505095945050505050565b5f81804211156112825780426040517fdae7ca7d000000000000000000000000000000000000000000000000000000008152600401611279929190615bd4565b60405180910390fd5b845f815f015151148061129e5750805f01515181602001515114155b806112be57508060400151516001825f0151516112bb9190616191565b14155b156112f5576040517fb91b4d4d00000000000000000000000000000000000000000000000000000000815260040160405180910390fd5b5f61130c875f015188602001518960400151612ec2565b90505f8760400151825181518110611327576113266161c4565b5b602002602001015190505f8173ffffffffffffffffffffffffffffffffffffffff166370a08231896040518263ffffffff1660e01b815260040161136b9190616200565b602060405180830381865afa158015611386573d5f803e3d5ffd5b505050506040513d601f19601f820116820180604052508101906113aa919061622d565b90506113f089604001515f815181106113c6576113c56161c4565b5b602002602001015133855f815181106113e2576113e16161c4565b5b60200260200101518e612fff565b611404838a602001518b604001518b61303b565b808273ffffffffffffffffffffffffffffffffffffffff166370a082318a6040518263ffffffff1660e01b815260040161143e9190616200565b602060405180830381865afa158015611459573d5f803e3d5ffd5b505050506040513d601f19601f8201168201806040525081019061147d919061622d565b6114879190616258565b9550858a11156114d05789866040517f4feac00c0000000000000000000000000000000000000000000000000000000081526004016114c7929190615bd4565b60405180910390fd5b505050505095945050505050565b7f000000000000000000000000000000000000000000000000000000000000000073ffffffffffffffffffffffffffffffffffffffff16638da5cb5b6040518163ffffffff1660e01b8152600401602060405180830381865afa158015611547573d5f803e3d5ffd5b505050506040513d601f19601f8201168201806040525081019061156b919061629f565b73ffffffffffffffffffffffffffffffffffffffff163373ffffffffffffffffffffffffffffffffffffffff16146115cf576040517fbb2a2b7200000000000000000000000000000000000000000000000000000000815260040160405180910390fd5b5f73ffffffffffffffffffffffffffffffffffffffff168373ffffffffffffffffffffffffffffffffffffffff1603611642577fffffffffffffffffffffffffffffffffffffffffffffffffffffffffffffffff811461162f5780611631565b475b905061163d8282613ddb565b611716565b7fffffffffffffffffffffffffffffffffffffffffffffffffffffffffffffffff811461166f57806116e8565b8273ffffffffffffffffffffffffffffffffffffffff166370a08231306040518263ffffffff1660e01b81526004016116a89190616200565b602060405180830381865afa1580156116c3573d5f803e3d5ffd5b505050506040513d601f19601f820116820180604052508101906116e7919061622d565b5b905061171582828573ffffffffffffffffffffffffffffffffffffffff166142d29092919063ffffffff16565b5b505050565b5f7f000000000000000000000000000000000000000000000000000000000000000073ffffffffffffffffffffffffffffffffffffffff1663659ac74b868686866040518563ffffffff1660e01b815260040161177b94939291906162f9565b6020604051808303815f875af1158015611797573d5f803e3d5ffd5b505050506040513d601f19601f820116820180604052508101906117bb9190616350565b9050949350505050565b5f7f0000000000000000000000000000000000000000000000000000000000000000905090565b5f6117f561435d565b90505f815f0160089054906101000a900460ff161590505f825f015f9054906101000a900467ffffffffffffffff1690505f808267ffffffffffffffff1614801561183d5750825b90505f60018367ffffffffffffffff1614801561187057505f3073ffffffffffffffffffffffffffffffffffffffff163b145b90508115801561187e575080155b156118b5576040517ff92ee8a900000000000000000000000000000000000000000000000000000000815260040160405180910390fd5b6001855f015f6101000a81548167ffffffffffffffff021916908367ffffffffffffffff1602179055508315611902576001855f0160086101000a81548160ff0219169083151502179055505b831561195c575f855f0160086101000a81548160ff0219169083151502179055507fc7f505b2f371ae2175ee4913f4499e1f2633a7b5936321eed1cdaeb6115181d2600160405161195391906163c7565b60405180910390a15b5050505050565b5f8082804211156119ad5780426040517fdae7ca7d0000000000000000000000000000000000000000000000000000000081526004016119a4929190615bd4565b60405180910390fd5b5f6119dd8c7f00000000000000000000000000000000000000000000000000000000000000008d61ffff16614384565b90505f8173ffffffffffffffffffffffffffffffffffffffff1663da10610c6040518163ffffffff1660e01b8152600401602060405180830381865afa158015611a29573d5f803e3d5ffd5b505050506040513d601f19601f82011682018060405250810190611a4d91906163f4565b73ffffffffffffffffffffffffffffffffffffffff167f000000000000000000000000000000000000000000000000000000000000000073ffffffffffffffffffffffffffffffffffffffff1614905080611aad57898b809b50819c5050505b5f80611abd848e8e8e8e306144a2565b9150915082611acd578082611ad0565b81815b8097508198505050505050611ae68c878661462b565b611af08684613527565b50509850989650505050505050565b5f7f0000000000000000000000000000000000000000000000000000000000000000905090565b5f805f806060805f611b60885f016020810190611b43919061641f565b896020016020810190611b56919061641f565b8a60400135614384565b90508073ffffffffffffffffffffffffffffffffffffffff166305e8746d6040518163ffffffff1660e01b8152600401602060405180830381865afa158015611bab573d5f803e3d5ffd5b505050506040513d601f19601f82011682018060405250810190611bcf91906163f4565b73ffffffffffffffffffffffffffffffffffffffff16885f016020810190611bf7919061641f565b73ffffffffffffffffffffffffffffffffffffffff1614611c44576040517fb33f8ab900000000000000000000000000000000000000000000000000000000815260040160405180910390fd5b7f000000000000000000000000000000000000000000000000000000000000000073ffffffffffffffffffffffffffffffffffffffff16885f016020810190611c8d919061641f565b73ffffffffffffffffffffffffffffffffffffffff16148015611cb35750348860600135145b15611ce957611cda886020016020810190611cce919061641f565b33838b60800135612fff565b611ce48134613970565b611dff565b7f000000000000000000000000000000000000000000000000000000000000000073ffffffffffffffffffffffffffffffffffffffff16886020016020810190611d33919061641f565b73ffffffffffffffffffffffffffffffffffffffff16148015611d595750348860800135145b15611d8e57611d7f885f016020810190611d73919061641f565b33838b60600135612fff565b611d898134613970565b611dfe565b875f016020810190611da0919061641f565b886020016020810190611db3919061641f565b89606001358a60800135346040517fd0a4f13b000000000000000000000000000000000000000000000000000000008152600401611df595949392919061644a565b60405180910390fd5b5b611e098882614664565b809750819850829950839a50849b50859c505050505050505091939550919395565b60608180421115611e755780426040517fdae7ca7d000000000000000000000000000000000000000000000000000000008152600401611e6c929190615bd4565b60405180910390fd5b845f815f0151511480611e915750805f01515181602001515114155b80611eb157508060400151516001825f015151611eae9190616191565b14155b15611ee8576040517fb91b4d4d00000000000000000000000000000000000000000000000000000000815260040160405180910390fd5b5f611eff875f015188602001518960400151612ec2565b9050611f1587602001518289604001518c6135c4565b935087845f81518110611f2b57611f2a6161c4565b5b60200260200101511115611f925787845f81518110611f4d57611f4c6161c4565b5b60200260200101516040517fca7710c8000000000000000000000000000000000000000000000000000000008152600401611f89929190615bd4565b60405180910390fd5b611ff087604001515f81518110611fac57611fab6161c4565b5b602002602001015133835f81518110611fc857611fc76161c4565b5b6020026020010151875f81518110611fe357611fe26161c4565b5b6020026020010151612fff565b5f6120068289602001518a60400151888b613a45565b90508981101561204f5789816040517f4feac00c000000000000000000000000000000000000000000000000000000008152600401612046929190615bd4565b60405180910390fd5b5050505095945050505050565b5f805f8573ffffffffffffffffffffffffffffffffffffffff1663abcd783086866040518363ffffffff1660e01b815260040161209a9291906164aa565b606060405180830381865afa1580156120b5573d5f803e3d5ffd5b505050506040513d601f19601f820116820180604052508101906120d991906164e5565b80935081945082955050505093509350939050565b5f81804211156121375780426040517fdae7ca7d00000000000000000000000000000000000000000000000000000000815260040161212e929190615bd4565b60405180910390fd5b845f815f01515114806121535750805f01515181602001515114155b8061217357508060400151516001825f0151516121709190616191565b14155b156121aa576040517fb91b4d4d00000000000000000000000000000000000000000000000000000000815260040160405180910390fd5b7f000000000000000000000000000000000000000000000000000000000000000073ffffffffffffffffffffffffffffffffffffffff168660400151875f015151815181106121fc576121fb6161c4565b5b602002602001015173ffffffffffffffffffffffffffffffffffffffff161461227e578560400151865f0151518151811061223a576122396161c4565b5b60200260200101516040517fcfec0e010000000000000000000000000000000000000000000000000000000081526004016122759190616200565b60405180910390fd5b5f612295875f015188602001518960400151612ec2565b90506122db87604001515f815181106122b1576122b06161c4565b5b602002602001015133835f815181106122cd576122cc6161c4565b5b60200260200101518c612fff565b6122f0898289602001518a6040015130613e95565b9350838811156123395787846040517f4feac00c000000000000000000000000000000000000000000000000000000008152600401612330929190615bd4565b60405180910390fd5b6123438685613527565b50505095945050505050565b5f805f8573ffffffffffffffffffffffffffffffffffffffff1663e77366f886866040518363ffffffff1660e01b815260040161238d9291906164aa565b606060405180830381865afa1580156123a8573d5f803e3d5ffd5b505050506040513d601f19601f820116820180604052508101906123cc91906164e5565b80935081945082955050505093509350939050565b5f805f806060805f61241b885f0160208101906123fe919061641f565b896020016020810190612411919061641f565b8a60400135614384565b90508073ffffffffffffffffffffffffffffffffffffffff166305e8746d6040518163ffffffff1660e01b8152600401602060405180830381865afa158015612466573d5f803e3d5ffd5b505050506040513d601f19601f8201168201806040525081019061248a91906163f4565b73ffffffffffffffffffffffffffffffffffffffff16885f0160208101906124b2919061641f565b73ffffffffffffffffffffffffffffffffffffffff16146124ff576040517fb33f8ab900000000000000000000000000000000000000000000000000000000815260040160405180910390fd5b612520885f016020810190612514919061641f565b33838b60600135612fff565b612542886020016020810190612536919061641f565b33838b60800135612fff565b61254c8882614664565b809750819850829950839a50849b50859c505050505050505091939550919395565b5f81804211156125b75780426040517fdae7ca7d0000000000000000000000000000000000000000000000000000000081526004016125ae929190615bd4565b60405180910390fd5b845f815f01515114806125d35750805f01515181602001515114155b806125f357508060400151516001825f0151516125f09190616191565b14155b1561262a576040517fb91b4d4d00000000000000000000000000000000000000000000000000000000815260040160405180910390fd5b7f000000000000000000000000000000000000000000000000000000000000000073ffffffffffffffffffffffffffffffffffffffff1686604001515f81518110612678576126776161c4565b5b602002602001015173ffffffffffffffffffffffffffffffffffffffff16146126f65785604001515f815181106126b2576126b16161c4565b5b60200260200101516040517fcfec0e010000000000000000000000000000000000000000000000000000000081526004016126ed9190616200565b60405180910390fd5b5f61270d875f015188602001518960400151612ec2565b9050612733815f81518110612725576127246161c4565b5b602002602001015134613970565b612748348289602001518a604001518a613e95565b9350838811156127915787846040517f4feac00c000000000000000000000000000000000000000000000000000000008152600401612788929190615bd4565b60405180910390fd5b505050949350505050565b5f7f0000000000000000000000000000000000000000000000000000000000000000905090565b5f80828042111561280d5780426040517fdae7ca7d000000000000000000000000000000000000000000000000000000008152600401612804929190615bd4565b60405180910390fd5b5f61281d8d8d8d61ffff16614384565b90505f8173ffffffffffffffffffffffffffffffffffffffff166305e8746d6040518163ffffffff1660e01b8152600401602060405180830381865afa158015612869573d5f803e3d5ffd5b505050506040513d601f19601f8201168201806040525081019061288d91906163f4565b73ffffffffffffffffffffffffffffffffffffffff168e73ffffffffffffffffffffffffffffffffffffffff161415905080156128cf57898b809b50819c5050505b6128dd828c8c8c8c8c6144a2565b809550819650505080156128f657838580955081965050505b505050995099975050505050505050565b5f8273ffffffffffffffffffffffffffffffffffffffff16634c7cffbd836040518263ffffffff1660e01b8152600401612941919061614b565b602060405180830381865afa15801561295c573d5f803e3d5ffd5b505050506040513d601f19601f82011682018060405250810190612980919061622d565b905092915050565b5f81804211156129d15780426040517fdae7ca7d0000000000000000000000000000000000000000000000000000000081526004016129c8929190615bd4565b60405180910390fd5b845f815f01515114806129ed5750805f01515181602001515114155b80612a0d57508060400151516001825f015151612a0a9190616191565b14155b15612a44576040517fb91b4d4d00000000000000000000000000000000000000000000000000000000815260040160405180910390fd5b7f000000000000000000000000000000000000000000000000000000000000000073ffffffffffffffffffffffffffffffffffffffff1686604001515f81518110612a9257612a916161c4565b5b602002602001015173ffffffffffffffffffffffffffffffffffffffff1614612b105785604001515f81518110612acc57612acb6161c4565b5b60200260200101516040517fcfec0e01000000000000000000000000000000000000000000000000000000008152600401612b079190616200565b60405180910390fd5b5f612b27875f015188602001518960400151612ec2565b90505f8760400151825181518110612b4257612b416161c4565b5b602002602001015190505f8173ffffffffffffffffffffffffffffffffffffffff166370a08231896040518263ffffffff1660e01b8152600401612b869190616200565b602060405180830381865afa158015612ba1573d5f803e3d5ffd5b505050506040513d601f19601f82011682018060405250810190612bc5919061622d565b9050612beb835f81518110612bdd57612bdc6161c4565b5b602002602001015134613970565b612bff838a602001518b604001518b61303b565b808273ffffffffffffffffffffffffffffffffffffffff166370a082318a6040518263ffffffff1660e01b8152600401612c399190616200565b602060405180830381865afa158015612c54573d5f803e3d5ffd5b505050506040513d601f19601f82011682018060405250810190612c78919061622d565b612c829190616258565b9550858a1115612ccb5789866040517f4feac00c000000000000000000000000000000000000000000000000000000008152600401612cc2929190615bd4565b60405180910390fd5b5050505050949350505050565b7f000000000000000000000000000000000000000000000000000000000000000073ffffffffffffffffffffffffffffffffffffffff16638da5cb5b6040518163ffffffff1660e01b8152600401602060405180830381865afa158015612d41573d5f803e3d5ffd5b505050506040513d601f19601f82011682018060405250810190612d65919061629f565b73ffffffffffffffffffffffffffffffffffffffff163373ffffffffffffffffffffffffffffffffffffffff1614612dc9576040517fbb2a2b7200000000000000000000000000000000000000000000000000000000815260040160405180910390fd5b8573ffffffffffffffffffffffffffffffffffffffff166317fad7fc3087878787876040518763ffffffff1660e01b8152600401612e0c9695949392919061659d565b5f604051808303815f87803b158015612e23575f80fd5b505af1158015612e35573d5f803e3d5ffd5b50505050505050505050565b5f8273ffffffffffffffffffffffffffffffffffffffff1663f5e29329836040518263ffffffff1660e01b8152600401612e7b91906156ee565b602060405180830381865afa158015612e96573d5f803e3d5ffd5b505050506040513d601f19601f82011682018060405250810190612eba9190616606565b905092915050565b6060835167ffffffffffffffff811115612edf57612ede61520a565b5b604051908082528060200260200182016040528015612f0d5781602001602082028036833780820191505090505b5090505f80835f81518110612f2557612f246161c4565b5b602002602001015190505f5b8351811015612ff557819250846001820181518110612f5357612f526161c4565b5b60200260200101519150612f9d8383898481518110612f7557612f746161c4565b5b6020026020010151898581518110612f9057612f8f6161c4565b5b6020026020010151614c3c565b848281518110612fb057612faf6161c4565b5b602002602001019073ffffffffffffffffffffffffffffffffffffffff16908173ffffffffffffffffffffffffffffffffffffffff1681525050806001019050612f31565b5050509392505050565b5f810315613035576130348383838773ffffffffffffffffffffffffffffffffffffffff16614d93909392919063ffffffff16565b5b50505050565b5f805f805f865f81518110613053576130526161c4565b5b602002602001015190505f5b895181101561351b5789818151811061307b5761307a6161c4565b5b60200260200101519250888181518110613098576130976161c4565b5b602002602001015194508195508760018201815181106130bb576130ba6161c4565b5b60200260200101519150895160018201146130f3578960018201815181106130e6576130e56161c4565b5b60200260200101516130f5565b865b93505f600181111561310a57613109616631565b5b85600181111561311d5761311c616631565b5b036133f9575f808473ffffffffffffffffffffffffffffffffffffffff16630902f1ac6040518163ffffffff1660e01b8152600401606060405180830381865afa15801561316d573d5f803e3d5ffd5b505050506040513d601f19601f8201168201806040525081019061319191906166da565b506dffffffffffffffffffffffffffff1691506dffffffffffffffffffffffffffff1691508373ffffffffffffffffffffffffffffffffffffffff168873ffffffffffffffffffffffffffffffffffffffff1610156132f0575f828973ffffffffffffffffffffffffffffffffffffffff166370a08231886040518263ffffffff1660e01b81526004016132259190616200565b602060405180830381865afa158015613240573d5f803e3d5ffd5b505050506040513d601f19601f82011682018060405250810190613264919061622d565b0390505f61327d848484614e219092919063ffffffff16565b90508673ffffffffffffffffffffffffffffffffffffffff1663022c0d9f5f838b6040518463ffffffff1660e01b81526004016132bc93929190616796565b5f604051808303815f87803b1580156132d3575f80fd5b505af11580156132e5573d5f803e3d5ffd5b5050505050506133f2565b5f818973ffffffffffffffffffffffffffffffffffffffff166370a08231886040518263ffffffff1660e01b815260040161332b9190616200565b602060405180830381865afa158015613346573d5f803e3d5ffd5b505050506040513d601f19601f8201168201806040525081019061336a919061622d565b0390505f613383838584614e219092919063ffffffff16565b90508673ffffffffffffffffffffffffffffffffffffffff1663022c0d9f825f8b6040518463ffffffff1660e01b81526004016133c2939291906167de565b5f604051808303815f87803b1580156133d9575f80fd5b505af11580156133eb573d5f803e3d5ffd5b5050505050505b5050613510565b8273ffffffffffffffffffffffffffffffffffffffff166353c059a08473ffffffffffffffffffffffffffffffffffffffff1663da10610c6040518163ffffffff1660e01b8152600401602060405180830381865afa15801561345e573d5f803e3d5ffd5b505050506040513d601f19601f8201168201806040525081019061348291906163f4565b73ffffffffffffffffffffffffffffffffffffffff168473ffffffffffffffffffffffffffffffffffffffff1614866040518363ffffffff1660e01b81526004016134ce929190616826565b6020604051808303815f875af11580156134ea573d5f803e3d5ffd5b505050506040513d601f19601f8201168201806040525081019061350e9190616880565b505b80600101905061305f565b50505050505050505050565b5f8103156135c0577f000000000000000000000000000000000000000000000000000000000000000073ffffffffffffffffffffffffffffffffffffffff16632e1a7d4d826040518263ffffffff1660e01b815260040161358891906156ee565b5f604051808303815f87803b15801561359f575f80fd5b505af11580156135b1573d5f803e3d5ffd5b505050506135bf8282613ddb565b5b5050565b6060825167ffffffffffffffff8111156135e1576135e061520a565b5b60405190808252806020026020018201604052801561360f5781602001602082028036833780820191505090505b5090508181855181518110613627576136266161c4565b5b6020026020010181815250505f845190505b5f8114613967575f8460018361364f9190616258565b815181106136605761365f6161c4565b5b602002602001015190505f876001846136799190616258565b8151811061368a576136896161c4565b5b602002602001015190505f876001856136a39190616258565b815181106136b4576136b36161c4565b5b602002602001015190505f60018111156136d1576136d0616631565b5b8260018111156136e4576136e3616631565b5b0361384e575f808273ffffffffffffffffffffffffffffffffffffffff16630902f1ac6040518163ffffffff1660e01b8152600401606060405180830381865afa158015613734573d5f803e3d5ffd5b505050506040513d601f19601f8201168201806040525081019061375891906166da565b506dffffffffffffffffffffffffffff1691506dffffffffffffffffffffffffffff1691508886815181106137905761378f6161c4565b5b602002602001015173ffffffffffffffffffffffffffffffffffffffff168573ffffffffffffffffffffffffffffffffffffffff1611156137d657808280925081935050505b5f8787815181106137ea576137e96161c4565b5b60200260200101519050613809838383614ef39092919063ffffffff16565b6fffffffffffffffffffffffffffffffff16886001896138299190616258565b8151811061383a576138396161c4565b5b602002602001018181525050505050613951565b61390d81868681518110613865576138646161c4565b5b60200260200101518573ffffffffffffffffffffffffffffffffffffffff168473ffffffffffffffffffffffffffffffffffffffff166305e8746d6040518163ffffffff1660e01b8152600401602060405180830381865afa1580156138cd573d5f803e3d5ffd5b505050506040513d601f19601f820116820180604052508101906138f191906163f4565b73ffffffffffffffffffffffffffffffffffffffff161461205c565b826fffffffffffffffffffffffffffffffff169250905050856001866139339190616258565b81518110613944576139436161c4565b5b6020026020010181815250505b505050808061395f906168ab565b915050613639565b50949350505050565b5f810315613a41577f000000000000000000000000000000000000000000000000000000000000000073ffffffffffffffffffffffffffffffffffffffff1663d0e30db0826040518263ffffffff1660e01b81526004015f604051808303818588803b1580156139de575f80fd5b505af11580156139f0573d5f803e3d5ffd5b5050505050613a4082827f000000000000000000000000000000000000000000000000000000000000000073ffffffffffffffffffffffffffffffffffffffff166142d29092919063ffffffff16565b5b5050565b5f805f805f80885f81518110613a5e57613a5d6161c4565b5b602002602001015190505f5b8b51811015613dcc578b8181518110613a8657613a856161c4565b5b602002602001015193508a8181518110613aa357613aa26161c4565b5b60200260200101519250819550896001820181518110613ac657613ac56161c4565b5b602002602001015191508b516001820114613afe578b6001820181518110613af157613af06161c4565b5b6020026020010151613b00565b875b94505f6001811115613b1557613b14616631565b5b836001811115613b2857613b27616631565b5b03613c6057886001820181518110613b4357613b426161c4565b5b602002602001015196508173ffffffffffffffffffffffffffffffffffffffff168673ffffffffffffffffffffffffffffffffffffffff161015613bf0578373ffffffffffffffffffffffffffffffffffffffff1663022c0d9f5f89886040518463ffffffff1660e01b8152600401613bbe93929190616796565b5f604051808303815f87803b158015613bd5575f80fd5b505af1158015613be7573d5f803e3d5ffd5b50505050613c5b565b8373ffffffffffffffffffffffffffffffffffffffff1663022c0d9f885f886040518463ffffffff1660e01b8152600401613c2d939291906167de565b5f604051808303815f87803b158015613c44575f80fd5b505af1158015613c56573d5f803e3d5ffd5b505050505b613dc1565b5f8473ffffffffffffffffffffffffffffffffffffffff1663da10610c6040518163ffffffff1660e01b8152600401602060405180830381865afa158015613caa573d5f803e3d5ffd5b505050506040513d601f19601f82011682018060405250810190613cce91906163f4565b73ffffffffffffffffffffffffffffffffffffffff168373ffffffffffffffffffffffffffffffffffffffff161490505f80613d838773ffffffffffffffffffffffffffffffffffffffff166353c059a0858b6040518363ffffffff1660e01b8152600401613d3e929190616826565b6020604051808303815f875af1158015613d5a573d5f803e3d5ffd5b505050506040513d601f19601f82011682018060405250810190613d7e9190616880565b614fcc565b6fffffffffffffffffffffffffffffffff1691506fffffffffffffffffffffffffffffffff1691508215613db957809950613dbd565b8199505b5050505b806001019050613a6a565b50505050505095945050505050565b5f810315613e91575f8273ffffffffffffffffffffffffffffffffffffffff1682604051613e08906168fc565b5f6040518083038185875af1925050503d805f8114613e42576040519150601f19603f3d011682016040523d82523d5f602084013e613e47565b606091505b5050905080613e8f5782826040517f47b96f70000000000000000000000000000000000000000000000000000000008152600401613e86929190616910565b60405180910390fd5b505b5050565b5f805f805f80875f81518110613eae57613ead6161c4565b5b602002602001015190508a95505f5b8a518110156142c3578a8181518110613ed957613ed86161c4565b5b60200260200101519250898181518110613ef657613ef56161c4565b5b60200260200101519450819550886001820181518110613f1957613f186161c4565b5b602002602001015191508a516001820114613f51578a6001820181518110613f4457613f436161c4565b5b6020026020010151613f53565b875b93505f6001811115613f6857613f67616631565b5b856001811115613f7b57613f7a616631565b5b03614157575f808473ffffffffffffffffffffffffffffffffffffffff16630902f1ac6040518163ffffffff1660e01b8152600401606060405180830381865afa158015613fcb573d5f803e3d5ffd5b505050506040513d601f19601f82011682018060405250810190613fef91906166da565b506dffffffffffffffffffffffffffff1691506dffffffffffffffffffffffffffff1691508373ffffffffffffffffffffffffffffffffffffffff168873ffffffffffffffffffffffffffffffffffffffff1610156140ce5761405d82828b614e219092919063ffffffff16565b98508473ffffffffffffffffffffffffffffffffffffffff1663022c0d9f5f8b896040518463ffffffff1660e01b815260040161409c93929190616796565b5f604051808303815f87803b1580156140b3575f80fd5b505af11580156140c5573d5f803e3d5ffd5b50505050614150565b6140e381838b614e219092919063ffffffff16565b98508473ffffffffffffffffffffffffffffffffffffffff1663022c0d9f8a5f896040518463ffffffff1660e01b8152600401614122939291906167de565b5f604051808303815f87803b158015614139575f80fd5b505af115801561414b573d5f803e3d5ffd5b505050505b50506142b8565b5f8373ffffffffffffffffffffffffffffffffffffffff1663da10610c6040518163ffffffff1660e01b8152600401602060405180830381865afa1580156141a1573d5f803e3d5ffd5b505050506040513d601f19601f820116820180604052508101906141c591906163f4565b73ffffffffffffffffffffffffffffffffffffffff168373ffffffffffffffffffffffffffffffffffffffff161490505f8061427a8673ffffffffffffffffffffffffffffffffffffffff166353c059a0858a6040518363ffffffff1660e01b8152600401614235929190616826565b6020604051808303815f875af1158015614251573d5f803e3d5ffd5b505050506040513d601f19601f820116820180604052508101906142759190616880565b614fcc565b6fffffffffffffffffffffffffffffffff1691506fffffffffffffffffffffffffffffffff16915082156142b0578099506142b4565b8199505b5050505b806001019050613ebd565b50505050505095945050505050565b5f63a9059cbb60e01b83836040516024016142ee929190616910565b604051602081830303815290604052907bffffffffffffffffffffffffffffffffffffffffffffffffffffffff19166020820180517bffffffffffffffffffffffffffffffffffffffffffffffffffffffff838183161783525050505090506143578482614fee565b50505050565b5f7ff0c57e16840df040f15088dc2f81fe391c3923bec73e23a9662efc9c229c6a00905090565b5f7f000000000000000000000000000000000000000000000000000000000000000073ffffffffffffffffffffffffffffffffffffffff1663704037bd8585856040518463ffffffff1660e01b81526004016143e293929190616937565b608060405180830381865afa1580156143fd573d5f803e3d5ffd5b505050506040513d601f19601f820116820180604052508101906144219190616a09565b6020015190505f73ffffffffffffffffffffffffffffffffffffffff168173ffffffffffffffffffffffffffffffffffffffff160361449b578383836040517fd648e3a200000000000000000000000000000000000000000000000000000000815260040161449293929190616a34565b60405180910390fd5b9392505050565b5f805f8873ffffffffffffffffffffffffffffffffffffffff1663c9939f5e338689896040518563ffffffff1660e01b81526004016144e49493929190616a69565b5f604051808303815f875af11580156144ff573d5f803e3d5ffd5b505050506040513d5f823e3d601f19601f820116820180604052508101906145279190616b7a565b90505f5b81518110156145c95761455782828151811061454a576145496161c4565b5b6020026020010151615078565b6fffffffffffffffffffffffffffffffff16846145749190616191565b935061459982828151811061458c5761458b6161c4565b5b6020026020010151615093565b6fffffffffffffffffffffffffffffffff16836145b69190616191565b9250806145c290616bc1565b905061452b565b50878310806145d757508682105b1561461f57878388846040517f3199f6ee0000000000000000000000000000000000000000000000000000000081526004016146169493929190616c08565b60405180910390fd5b50965096945050505050565b5f81031561465f5761465e82828573ffffffffffffffffffffffffffffffffffffffff166142d29092919063ffffffff16565b5b505050565b5f805f80606080876101c00135804211156146b85780426040517fdae7ca7d0000000000000000000000000000000000000000000000000000000081526004016146af929190615bd4565b60405180910390fd5b888061014001906146c99190616c57565b9050898061012001906146dc9190616cb9565b905014158061470f5750888061016001906146f79190616c57565b90508980610120019061470a9190616cb9565b905014155b15614746576040517fb91b4d4d00000000000000000000000000000000000000000000000000000000815260040160405180910390fd5b62ffffff80168960e001351180614766575062ffffff8016896101000135115b156147b3578860e001358961010001356040517f32f4ab8e0000000000000000000000000000000000000000000000000000000081526004016147aa929190615bd4565b60405180910390fd5b5f898061012001906147c59190616cb9565b905067ffffffffffffffff8111156147e0576147df61520a565b5b60405190808252806020026020018201604052801561480e5781602001602082028036833780820191505090505b509050898061012001906148229190616cb9565b905067ffffffffffffffff81111561483d5761483c61520a565b5b60405190808252806020026020018201604052801561486b5781602001602082028036833780820191505090505b5093505f8973ffffffffffffffffffffffffffffffffffffffff1663dbe65edc6040518163ffffffff1660e01b8152600401602060405180830381865afa1580156148b8573d5f803e3d5ffd5b505050506040513d601f19601f820116820180604052508101906148dc9190616606565b62ffffff169050808b61010001358c60e0013501108061490657508a60e001358b61010001358201105b15614955578a60e001358b6101000135826040517ffaa1db5600000000000000000000000000000000000000000000000000000000815260040161494c93929190616d1b565b60405180910390fd5b5f5b8251811015614a88575f8c8061012001906149729190616cb9565b83818110614983576149826161c4565b5b90506020020135830190505f8112806149a0575062ffffff801681115b156149e257806040517fe1505cc20000000000000000000000000000000000000000000000000000000081526004016149d99190616d68565b60405180910390fd5b808783815181106149f6576149f56161c4565b5b602002602001018181525050614a5d8d806101400190614a169190616c57565b84818110614a2757614a266161c4565b5b905060200201358e806101600190614a3f9190616c57565b85818110614a5057614a4f6161c4565b5b905060200201358361509f565b848381518110614a7057614a6f6161c4565b5b60200260200101818152505050806001019050614957565b50505f808a73ffffffffffffffffffffffffffffffffffffffff1663383d15c58d610180016020810190614abc9190616d81565b858f6101a0016020810190614ad19190616d81565b6040518463ffffffff1660e01b8152600401614aef93929190616e63565b5f604051808303815f875af1158015614b0a573d5f803e3d5ffd5b505050506040513d5f823e3d601f19601f82011682018060405250810190614b329190616f34565b8097508193508294505050505f614b52828461512090919063ffffffff16565b9050614b5d81615078565b6fffffffffffffffffffffffffffffffff169a50614b7a81615093565b6fffffffffffffffffffffffffffffffff1699508c60a001358b1080614ba357508c60c001358a105b15614bf3578c60a001358b8e60c001358c6040517f3199f6ee000000000000000000000000000000000000000000000000000000008152600401614bea9493929190616c08565b60405180910390fd5b614bfc82615078565b6fffffffffffffffffffffffffffffffff169850614c1982615093565b6fffffffffffffffffffffffffffffffff16975050505050509295509295509295565b5f806001811115614c5057614c4f616631565b5b826001811115614c6357614c62616631565b5b03614d7d577f000000000000000000000000000000000000000000000000000000000000000073ffffffffffffffffffffffffffffffffffffffff1663e6a4390586866040518363ffffffff1660e01b8152600401614cc3929190616fa0565b602060405180830381865afa158015614cde573d5f803e3d5ffd5b505050506040513d601f19601f82011682018060405250810190614d02919061629f565b90505f73ffffffffffffffffffffffffffffffffffffffff168173ffffffffffffffffffffffffffffffffffffffff1603614d78578484846040517fd648e3a2000000000000000000000000000000000000000000000000000000008152600401614d6f93929190616a34565b60405180910390fd5b614d8b565b614d88858585614384565b90505b949350505050565b5f6323b872dd60e01b848484604051602401614db193929190616a34565b604051602081830303815290604052907bffffffffffffffffffffffffffffffffffffffffffffffffffffffff19166020820180517bffffffffffffffffffffffffffffffffffffffffffffffffffffffff83818316178352505050509050614e1a8582614fee565b5050505050565b5f808403614e5b576040517fb937356b00000000000000000000000000000000000000000000000000000000815260040160405180910390fd5b5f831480614e6857505f82145b15614e9f576040517f7b03555500000000000000000000000000000000000000000000000000000000815260040160405180910390fd5b5f6103e585614eae9190616fc7565b90505f8382614ebd9190616fc7565b90505f826103e887614ecf9190616fc7565b614ed99190616191565b90508082614ee79190617035565b93505050509392505050565b5f808403614f2d576040517fb937356b00000000000000000000000000000000000000000000000000000000815260040160405180910390fd5b5f831480614f3a57505f82145b15614f71576040517f7b03555500000000000000000000000000000000000000000000000000000000815260040160405180910390fd5b5f6103e88585614f819190616fc7565b614f8b9190616fc7565b90505f6103e58685614f9d9190616258565b614fa79190616fc7565b905060018183614fb79190617035565b614fc19190616191565b925050509392505050565b5f806fffffffffffffffffffffffffffffffff831691508260801c9050915091565b5f805f5260205f8351602085015f875af19050805f811461502c573d5f811461501f5760015f511483169250615026565b843b151592505b5061503b565b3d1561503a573d5f803e3d5ffd5b5b5080615073576040517f32e2717a00000000000000000000000000000000000000000000000000000000815260040160405180910390fd5b505050565b5f6fffffffffffffffffffffffffffffffff82169050919050565b5f8160801c9050919050565b5f6150ca8467ffffffffffffffff1667ffffffffffffffff605884615198909392919063ffffffff16565b90506150f68367ffffffffffffffff1667ffffffffffffffff601884615198909392919063ffffffff16565b90506151178262ffffff1662ffffff5f84615198909392919063ffffffff16565b90509392505050565b5f81830390508281118061515b5750825f1c6fffffffffffffffffffffffffffffffff16815f1c6fffffffffffffffffffffffffffffffff16115b15615192576040517fe599af5500000000000000000000000000000000000000000000000000000000815260040160405180910390fd5b92915050565b5f82821b1985169050828416821b81179050949350505050565b5f604051905090565b5f80fd5b5f80fd5b5f819050919050565b6151d5816151c3565b81146151df575f80fd5b50565b5f813590506151f0816151cc565b92915050565b5f80fd5b5f601f19601f8301169050919050565b7f4e487b71000000000000000000000000000000000000000000000000000000005f52604160045260245ffd5b615240826151fa565b810181811067ffffffffffffffff8211171561525f5761525e61520a565b5b80604052505050565b5f6152716151b2565b905061527d8282615237565b919050565b5f80fd5b5f80fd5b5f67ffffffffffffffff8211156152a4576152a361520a565b5b602082029050602081019050919050565b5f80fd5b5f6152cb6152c68461528a565b615268565b905080838252602082019050602084028301858111156152ee576152ed6152b5565b5b835b81811015615317578061530388826151e2565b8452602084019350506020810190506152f0565b5050509392505050565b5f82601f83011261533557615334615286565b5b81356153458482602086016152b9565b91505092915050565b5f67ffffffffffffffff8211156153685761536761520a565b5b602082029050602081019050919050565b60028110615385575f80fd5b50565b5f8135905061539681615379565b92915050565b5f6153ae6153a98461534e565b615268565b905080838252602082019050602084028301858111156153d1576153d06152b5565b5b835b818110156153fa57806153e68882615388565b8452602084019350506020810190506153d3565b5050509392505050565b5f82601f83011261541857615417615286565b5b813561542884826020860161539c565b91505092915050565b5f67ffffffffffffffff82111561544b5761544a61520a565b5b602082029050602081019050919050565b5f73ffffffffffffffffffffffffffffffffffffffff82169050919050565b5f6154858261545c565b9050919050565b5f6154968261547b565b9050919050565b6154a68161548c565b81146154b0575f80fd5b50565b5f813590506154c18161549d565b92915050565b5f6154d96154d484615431565b615268565b905080838252602082019050602084028301858111156154fc576154fb6152b5565b5b835b81811015615525578061551188826154b3565b8452602084019350506020810190506154fe565b5050509392505050565b5f82601f83011261554357615542615286565b5b81356155538482602086016154c7565b91505092915050565b5f60608284031215615571576155706151f6565b5b61557b6060615268565b90505f82013567ffffffffffffffff81111561559a57615599615282565b5b6155a684828501615321565b5f83015250602082013567ffffffffffffffff8111156155c9576155c8615282565b5b6155d584828501615404565b602083015250604082013567ffffffffffffffff8111156155f9576155f8615282565b5b6156058482850161552f565b60408301525092915050565b5f61561b8261545c565b9050919050565b61562b81615611565b8114615635575f80fd5b50565b5f8135905061564681615622565b92915050565b5f805f805f60a08688031215615665576156646151bb565b5b5f615672888289016151e2565b9550506020615683888289016151e2565b945050604086013567ffffffffffffffff8111156156a4576156a36151bf565b5b6156b08882890161555c565b93505060606156c188828901615638565b92505060806156d2888289016151e2565b9150509295509295909350565b6156e8816151c3565b82525050565b5f6020820190506157015f8301846156df565b92915050565b6157108161547b565b811461571a575f80fd5b50565b5f8135905061572b81615707565b92915050565b5f805f8060808587031215615749576157486151bb565b5b5f615756878288016151e2565b945050602085013567ffffffffffffffff811115615777576157766151bf565b5b6157838782880161555c565b93505060406157948782880161571d565b92505060606157a5878288016151e2565b91505092959194509250565b5f81519050919050565b5f82825260208201905092915050565b5f819050602082019050919050565b6157e3816151c3565b82525050565b5f6157f483836157da565b60208301905092915050565b5f602082019050919050565b5f615816826157b1565b61582081856157bb565b935061582b836157cb565b805f5b8381101561585b57815161584288826157e9565b975061584d83615800565b92505060018101905061582e565b5085935050505092915050565b5f6020820190508181035f830152615880818461580c565b905092915050565b5f805f805f60a086880312156158a1576158a06151bb565b5b5f6158ae888289016151e2565b95505060206158bf888289016151e2565b945050604086013567ffffffffffffffff8111156158e0576158df6151bf565b5b6158ec8882890161555c565b93505060606158fd8882890161571d565b925050608061590e888289016151e2565b9150509295509295909350565b5f805f60608486031215615932576159316151bb565b5b5f61593f868287016154b3565b93505060206159508682870161571d565b9250506040615961868287016151e2565b9150509250925092565b5f62ffffff82169050919050565b6159828161596b565b811461598c575f80fd5b50565b5f8135905061599d81615979565b92915050565b5f61ffff82169050919050565b6159b9816159a3565b81146159c3575f80fd5b50565b5f813590506159d4816159b0565b92915050565b5f805f80608085870312156159f2576159f16151bb565b5b5f6159ff878288016154b3565b9450506020615a10878288016154b3565b9350506040615a218782880161598f565b9250506060615a32878288016159c6565b91505092959194509250565b5f819050919050565b5f615a61615a5c615a578461545c565b615a3e565b61545c565b9050919050565b5f615a7282615a47565b9050919050565b5f615a8382615a68565b9050919050565b615a9381615a79565b82525050565b5f602082019050615aac5f830184615a8a565b92915050565b5f615abc82615a68565b9050919050565b615acc81615ab2565b82525050565b5f602082019050615ae55f830184615ac3565b92915050565b5f805f805f805f80610100898b031215615b0857615b076151bb565b5b5f615b158b828c016154b3565b9850506020615b268b828c016159c6565b9750506040615b378b828c016151e2565b9650506060615b488b828c016151e2565b955050608089013567ffffffffffffffff811115615b6957615b686151bf565b5b615b758b828c01615321565b94505060a089013567ffffffffffffffff811115615b9657615b956151bf565b5b615ba28b828c01615321565b93505060c0615bb38b828c01615638565b92505060e0615bc48b828c016151e2565b9150509295985092959890939650565b5f604082019050615be75f8301856156df565b615bf460208301846156df565b9392505050565b5f615c0582615a68565b9050919050565b615c1581615bfb565b82525050565b5f602082019050615c2e5f830184615c0c565b92915050565b5f80fd5b5f6101e08284031215615c4e57615c4d615c34565b5b81905092915050565b5f60208284031215615c6c57615c6b6151bb565b5b5f82013567ffffffffffffffff811115615c8957615c886151bf565b5b615c9584828501615c38565b91505092915050565b5f60c082019050615cb15f8301896156df565b615cbe60208301886156df565b615ccb60408301876156df565b615cd860608301866156df565b8181036080830152615cea818561580c565b905081810360a0830152615cfe818461580c565b9050979650505050505050565b5f615d158261547b565b9050919050565b615d2581615d0b565b8114615d2f575f80fd5b50565b5f81359050615d4081615d1c565b92915050565b5f6fffffffffffffffffffffffffffffffff82169050919050565b615d6a81615d46565b8114615d74575f80fd5b50565b5f81359050615d8581615d61565b92915050565b5f8115159050919050565b615d9f81615d8b565b8114615da9575f80fd5b50565b5f81359050615dba81615d96565b92915050565b5f805f60608486031215615dd757615dd66151bb565b5b5f615de486828701615d32565b9350506020615df586828701615d77565b9250506040615e0686828701615dac565b9150509250925092565b615e1981615d46565b82525050565b5f606082019050615e325f830186615e10565b615e3f6020830185615e10565b615e4c6040830184615e10565b949350505050565b5f615e5e82615a68565b9050919050565b615e6e81615e54565b82525050565b5f602082019050615e875f830184615e65565b92915050565b5f805f805f805f805f6101208a8c031215615eab57615eaa6151bb565b5b5f615eb88c828d016154b3565b9950506020615ec98c828d016154b3565b9850506040615eda8c828d016159c6565b9750506060615eeb8c828d016151e2565b9650506080615efc8c828d016151e2565b95505060a08a013567ffffffffffffffff811115615f1d57615f1c6151bf565b5b615f298c828d01615321565b94505060c08a013567ffffffffffffffff811115615f4a57615f496151bf565b5b615f568c828d01615321565b93505060e0615f678c828d0161571d565b925050610100615f798c828d016151e2565b9150509295985092959850929598565b5f8060408385031215615f9f57615f9e6151bb565b5b5f615fac85828601615d32565b9250506020615fbd8582860161598f565b9150509250929050565b5f615fd18261547b565b9050919050565b615fe181615fc7565b8114615feb575f80fd5b50565b5f81359050615ffc81615fd8565b92915050565b5f80fd5b5f8083601f84011261601b5761601a615286565b5b8235905067ffffffffffffffff81111561603857616037616002565b5b602083019150836020820283011115616054576160536152b5565b5b9250929050565b5f805f805f8060808789031215616075576160746151bb565b5b5f61608289828a01615fee565b965050602061609389828a0161571d565b955050604087013567ffffffffffffffff8111156160b4576160b36151bf565b5b6160c089828a01616006565b9450945050606087013567ffffffffffffffff8111156160e3576160e26151bf565b5b6160ef89828a01616006565b92509250509295509295509295565b5f8060408385031215616114576161136151bb565b5b5f61612185828601615d32565b9250506020616132858286016151e2565b9150509250929050565b6161458161596b565b82525050565b5f60208201905061615e5f83018461613c565b92915050565b7f4e487b71000000000000000000000000000000000000000000000000000000005f52601160045260245ffd5b5f61619b826151c3565b91506161a6836151c3565b92508282019050808211156161be576161bd616164565b5b92915050565b7f4e487b71000000000000000000000000000000000000000000000000000000005f52603260045260245ffd5b6161fa8161547b565b82525050565b5f6020820190506162135f8301846161f1565b92915050565b5f81519050616227816151cc565b92915050565b5f60208284031215616242576162416151bb565b5b5f61624f84828501616219565b91505092915050565b5f616262826151c3565b915061626d836151c3565b925082820390508181111561628557616284616164565b5b92915050565b5f8151905061629981615707565b92915050565b5f602082840312156162b4576162b36151bb565b5b5f6162c18482850161628b565b91505092915050565b5f6162d482615a68565b9050919050565b6162e4816162ca565b82525050565b6162f3816159a3565b82525050565b5f60808201905061630c5f8301876162db565b61631960208301866162db565b616326604083018561613c565b61633360608301846162ea565b95945050505050565b5f8151905061634a81615d1c565b92915050565b5f60208284031215616365576163646151bb565b5b5f6163728482850161633c565b91505092915050565b5f819050919050565b5f67ffffffffffffffff82169050919050565b5f6163b16163ac6163a78461637b565b615a3e565b616384565b9050919050565b6163c181616397565b82525050565b5f6020820190506163da5f8301846163b8565b92915050565b5f815190506163ee8161549d565b92915050565b5f60208284031215616409576164086151bb565b5b5f616416848285016163e0565b91505092915050565b5f60208284031215616434576164336151bb565b5b5f616441848285016154b3565b91505092915050565b5f60a08201905061645d5f8301886161f1565b61646a60208301876161f1565b61647760408301866156df565b61648460608301856156df565b61649160808301846156df565b9695505050505050565b6164a481615d8b565b82525050565b5f6040820190506164bd5f830185615e10565b6164ca602083018461649b565b9392505050565b5f815190506164df81615d61565b92915050565b5f805f606084860312156164fc576164fb6151bb565b5b5f616509868287016164d1565b935050602061651a868287016164d1565b925050604061652b868287016164d1565b9150509250925092565b5f80fd5b82818337505050565b5f61654d83856157bb565b93507f07ffffffffffffffffffffffffffffffffffffffffffffffffffffffffffffff8311156165805761657f616535565b5b602083029250616591838584616539565b82840190509392505050565b5f6080820190506165b05f8301896161f1565b6165bd60208301886161f1565b81810360408301526165d0818688616542565b905081810360608301526165e5818486616542565b9050979650505050505050565b5f8151905061660081615979565b92915050565b5f6020828403121561661b5761661a6151bb565b5b5f616628848285016165f2565b91505092915050565b7f4e487b71000000000000000000000000000000000000000000000000000000005f52602160045260245ffd5b5f6dffffffffffffffffffffffffffff82169050919050565b6166808161665e565b811461668a575f80fd5b50565b5f8151905061669b81616677565b92915050565b5f63ffffffff82169050919050565b6166b9816166a1565b81146166c3575f80fd5b50565b5f815190506166d4816166b0565b92915050565b5f805f606084860312156166f1576166f06151bb565b5b5f6166fe8682870161668d565b935050602061670f8682870161668d565b9250506040616720868287016166c6565b9150509250925092565b5f819050919050565b5f61674d6167486167438461672a565b615a3e565b6151c3565b9050919050565b61675d81616733565b82525050565b5f82825260208201905092915050565b50565b5f6167815f83616763565b915061678c82616773565b5f82019050919050565b5f6080820190506167a95f830186616754565b6167b660208301856156df565b6167c360408301846161f1565b81810360608301526167d481616776565b9050949350505050565b5f6080820190506167f15f8301866156df565b6167fe6020830185616754565b61680b60408301846161f1565b818103606083015261681c81616776565b9050949350505050565b5f6040820190506168395f83018561649b565b61684660208301846161f1565b9392505050565b5f819050919050565b61685f8161684d565b8114616869575f80fd5b50565b5f8151905061687a81616856565b92915050565b5f60208284031215616895576168946151bb565b5b5f6168a28482850161686c565b91505092915050565b5f6168b5826151c3565b91505f82036168c7576168c6616164565b5b600182039050919050565b5f81905092915050565b5f6168e75f836168d2565b91506168f282616773565b5f82019050919050565b5f616906826168dc565b9150819050919050565b5f6040820190506169235f8301856161f1565b61693060208301846156df565b9392505050565b5f60608201905061694a5f8301866162db565b61695760208301856162db565b61696460408301846156df565b949350505050565b5f8151905061697a816159b0565b92915050565b5f8151905061698e81615d96565b92915050565b5f608082840312156169a9576169a86151f6565b5b6169b36080615268565b90505f6169c28482850161696c565b5f8301525060206169d58482850161633c565b60208301525060406169e984828501616980565b60408301525060606169fd84828501616980565b60608301525092915050565b5f60808284031215616a1e57616a1d6151bb565b5b5f616a2b84828501616994565b91505092915050565b5f606082019050616a475f8301866161f1565b616a5460208301856161f1565b616a6160408301846156df565b949350505050565b5f608082019050616a7c5f8301876161f1565b616a8960208301866161f1565b8181036040830152616a9b818561580c565b90508181036060830152616aaf818461580c565b905095945050505050565b5f67ffffffffffffffff821115616ad457616ad361520a565b5b602082029050602081019050919050565b5f616af7616af284616aba565b615268565b90508083825260208201905060208402830185811115616b1a57616b196152b5565b5b835b81811015616b435780616b2f888261686c565b845260208401935050602081019050616b1c565b5050509392505050565b5f82601f830112616b6157616b60615286565b5b8151616b71848260208601616ae5565b91505092915050565b5f60208284031215616b8f57616b8e6151bb565b5b5f82015167ffffffffffffffff811115616bac57616bab6151bf565b5b616bb884828501616b4d565b91505092915050565b5f616bcb826151c3565b91507fffffffffffffffffffffffffffffffffffffffffffffffffffffffffffffffff8203616bfd57616bfc616164565b5b600182019050919050565b5f608082019050616c1b5f8301876156df565b616c2860208301866156df565b616c3560408301856156df565b616c4260608301846156df565b95945050505050565b5f80fd5b5f80fd5b5f80fd5b5f8083356001602003843603038112616c7357616c72616c4b565b5b80840192508235915067ffffffffffffffff821115616c9557616c94616c4f565b5b602083019250602082023603831315616cb157616cb0616c53565b5b509250929050565b5f8083356001602003843603038112616cd557616cd4616c4b565b5b80840192508235915067ffffffffffffffff821115616cf757616cf6616c4f565b5b602083019250602082023603831315616d1357616d12616c53565b5b509250929050565b5f606082019050616d2e5f8301866156df565b616d3b60208301856156df565b616d4860408301846156df565b949350505050565b5f819050919050565b616d6281616d50565b82525050565b5f602082019050616d7b5f830184616d59565b92915050565b5f60208284031215616d9657616d956151bb565b5b5f616da38482850161571d565b91505092915050565b5f81519050919050565b5f82825260208201905092915050565b5f819050602082019050919050565b616dde8161684d565b82525050565b5f616def8383616dd5565b60208301905092915050565b5f602082019050919050565b5f616e1182616dac565b616e1b8185616db6565b9350616e2683616dc6565b805f5b83811015616e56578151616e3d8882616de4565b9750616e4883616dfb565b925050600181019050616e29565b5085935050505092915050565b5f606082019050616e765f8301866161f1565b8181036020830152616e888185616e07565b9050616e9760408301846161f1565b949350505050565b5f616eb1616eac8461528a565b615268565b90508083825260208201905060208402830185811115616ed457616ed36152b5565b5b835b81811015616efd5780616ee98882616219565b845260208401935050602081019050616ed6565b5050509392505050565b5f82601f830112616f1b57616f1a615286565b5b8151616f2b848260208601616e9f565b91505092915050565b5f805f60608486031215616f4b57616f4a6151bb565b5b5f616f588682870161686c565b9350506020616f698682870161686c565b925050604084015167ffffffffffffffff811115616f8a57616f896151bf565b5b616f9686828701616f07565b9150509250925092565b5f604082019050616fb35f8301856161f1565b616fc060208301846161f1565b9392505050565b5f616fd1826151c3565b9150616fdc836151c3565b9250828202616fea816151c3565b9150828204841483151761700157617000616164565b5b5092915050565b7f4e487b71000000000000000000000000000000000000000000000000000000005f52601260045260245ffd5b5f61703f826151c3565b915061704a836151c3565b92508261705a57617059617008565b5b82820490509291505056fea26469706673582212200e309a78c4164f5b8b6e48c22021a99aca2bb60332bc12d21314fee29f34eefc64736f6c63430008140033",
			"opcodes": "PUSH1 0xE0 PUSH1 0x40 MSTORE CALLVALUE DUP1 ISZERO PUSH3 0x10 JUMPI PUSH0 DUP1 REVERT JUMPDEST POP PUSH1 0x40 MLOAD PUSH3 0x7503 CODESIZE SUB DUP1 PUSH3 0x7503 DUP4 CODECOPY DUP2 DUP2 ADD PUSH1 0x40 MSTORE DUP2 ADD SWAP1 PUSH3 0x36 SWAP2 SWAP1 PUSH3 0x312 JUMP JUMPDEST DUP3 PUSH20 0xFFFFFFFFFFFFFFFFFFFFFFFFFFFFFFFFFFFFFFFF AND PUSH1 0x80 DUP2 PUSH20 0xFFFFFFFFFFFFFFFFFFFFFFFFFFFFFFFFFFFFFFFF AND DUP2 MSTORE POP POP DUP2 PUSH20 0xFFFFFFFFFFFFFFFFFFFFFFFFFFFFFFFFFFFFFFFF AND PUSH1 0xA0 DUP2 PUSH20 0xFFFFFFFFFFFFFFFFFFFFFFFFFFFFFFFFFFFFFFFF AND DUP2 MSTORE POP POP DUP1 PUSH20 0xFFFFFFFFFFFFFFFFFFFFFFFFFFFFFFFFFFFFFFFF AND PUSH1 0xC0 DUP2 PUSH20 0xFFFFFFFFFFFFFFFFFFFFFFFFFFFFFFFFFFFFFFFF AND DUP2 MSTORE POP POP PUSH3 0xE2 PUSH3 0xEB PUSH1 0x20 SHL PUSH1 0x20 SHR JUMP JUMPDEST POP POP POP PUSH3 0x3AA JUMP JUMPDEST PUSH0 PUSH3 0xFC PUSH3 0x1EF PUSH1 0x20 SHL PUSH1 0x20 SHR JUMP JUMPDEST SWAP1 POP DUP1 PUSH0 ADD PUSH1 0x8 SWAP1 SLOAD SWAP1 PUSH2 0x100 EXP SWAP1 DIV PUSH1 0xFF AND ISZERO PUSH3 0x147 JUMPI PUSH1 0x40 MLOAD PUSH32 0xF92EE8A900000000000000000000000000000000000000000000000000000000 DUP2 MSTORE PUSH1 0x4 ADD PUSH1 0x40 MLOAD DUP1 SWAP2 SUB SWAP1 REVERT JUMPDEST PUSH8 0xFFFFFFFFFFFFFFFF DUP1 AND DUP2 PUSH0 ADD PUSH0 SWAP1 SLOAD SWAP1 PUSH2 0x100 EXP SWAP1 DIV PUSH8 0xFFFFFFFFFFFFFFFF AND PUSH8 0xFFFFFFFFFFFFFFFF AND EQ PUSH3 0x1EC JUMPI PUSH8 0xFFFFFFFFFFFFFFFF DUP2 PUSH0 ADD PUSH0 PUSH2 0x100 EXP DUP2 SLOAD DUP2 PUSH8 0xFFFFFFFFFFFFFFFF MUL NOT AND SWAP1 DUP4 PUSH8 0xFFFFFFFFFFFFFFFF AND MUL OR SWAP1 SSTORE POP PUSH32 0xC7F505B2F371AE2175EE4913F4499E1F2633A7B5936321EED1CDAEB6115181D2 PUSH8 0xFFFFFFFFFFFFFFFF PUSH1 0x40 MLOAD PUSH3 0x1E3 SWAP2 SWAP1 PUSH3 0x38F JUMP JUMPDEST PUSH1 0x40 MLOAD DUP1 SWAP2 SUB SWAP1 LOG1 JUMPDEST POP JUMP JUMPDEST PUSH0 PUSH32 0xF0C57E16840DF040F15088DC2F81FE391C3923BEC73E23A9662EFC9C229C6A00 SWAP1 POP SWAP1 JUMP JUMPDEST PUSH0 DUP1 REVERT JUMPDEST PUSH0 PUSH20 0xFFFFFFFFFFFFFFFFFFFFFFFFFFFFFFFFFFFFFFFF DUP3 AND SWAP1 POP SWAP2 SWAP1 POP JUMP JUMPDEST PUSH0 PUSH3 0x245 DUP3 PUSH3 0x21A JUMP JUMPDEST SWAP1 POP SWAP2 SWAP1 POP JUMP JUMPDEST PUSH0 PUSH3 0x258 DUP3 PUSH3 0x239 JUMP JUMPDEST SWAP1 POP SWAP2 SWAP1 POP JUMP JUMPDEST PUSH3 0x26A DUP2 PUSH3 0x24C JUMP JUMPDEST DUP2 EQ PUSH3 0x275 JUMPI PUSH0 DUP1 REVERT JUMPDEST POP JUMP JUMPDEST PUSH0 DUP2 MLOAD SWAP1 POP PUSH3 0x288 DUP2 PUSH3 0x25F JUMP JUMPDEST SWAP3 SWAP2 POP POP JUMP JUMPDEST PUSH0 PUSH3 0x29A DUP3 PUSH3 0x239 JUMP JUMPDEST SWAP1 POP SWAP2 SWAP1 POP JUMP JUMPDEST PUSH3 0x2AC DUP2 PUSH3 0x28E JUMP JUMPDEST DUP2 EQ PUSH3 0x2B7 JUMPI PUSH0 DUP1 REVERT JUMPDEST POP JUMP JUMPDEST PUSH0 DUP2 MLOAD SWAP1 POP PUSH3 0x2CA DUP2 PUSH3 0x2A1 JUMP JUMPDEST SWAP3 SWAP2 POP POP JUMP JUMPDEST PUSH0 PUSH3 0x2DC DUP3 PUSH3 0x239 JUMP JUMPDEST SWAP1 POP SWAP2 SWAP1 POP JUMP JUMPDEST PUSH3 0x2EE DUP2 PUSH3 0x2D0 JUMP JUMPDEST DUP2 EQ PUSH3 0x2F9 JUMPI PUSH0 DUP1 REVERT JUMPDEST POP JUMP JUMPDEST PUSH0 DUP2 MLOAD SWAP1 POP PUSH3 0x30C DUP2 PUSH3 0x2E3 JUMP JUMPDEST SWAP3 SWAP2 POP POP JUMP JUMPDEST PUSH0 DUP1 PUSH0 PUSH1 0x60 DUP5 DUP7 SUB SLT ISZERO PUSH3 0x32C JUMPI PUSH3 0x32B PUSH3 0x216 JUMP JUMPDEST JUMPDEST PUSH0 PUSH3 0x33B DUP7 DUP3 DUP8 ADD PUSH3 0x278 JUMP JUMPDEST SWAP4 POP POP PUSH1 0x20 PUSH3 0x34E DUP7 DUP3 DUP8 ADD PUSH3 0x2BA JUMP JUMPDEST SWAP3 POP POP PUSH1 0x40 PUSH3 0x361 DUP7 DUP3 DUP8 ADD PUSH3 0x2FC JUMP JUMPDEST SWAP2 POP POP SWAP3 POP SWAP3 POP SWAP3 JUMP JUMPDEST PUSH0 PUSH8 0xFFFFFFFFFFFFFFFF DUP3 AND SWAP1 POP SWAP2 SWAP1 POP JUMP JUMPDEST PUSH3 0x389 DUP2 PUSH3 0x36B JUMP JUMPDEST DUP3 MSTORE POP POP JUMP JUMPDEST PUSH0 PUSH1 0x20 DUP3 ADD SWAP1 POP PUSH3 0x3A4 PUSH0 DUP4 ADD DUP5 PUSH3 0x37E JUMP JUMPDEST SWAP3 SWAP2 POP POP JUMP JUMPDEST PUSH1 0x80 MLOAD PUSH1 0xA0 MLOAD PUSH1 0xC0 MLOAD PUSH2 0x709B PUSH3 0x468 PUSH0 CODECOPY PUSH0 DUP2 DUP2 PUSH2 0x155 ADD MSTORE DUP2 DUP2 PUSH2 0x798 ADD MSTORE DUP2 DUP2 PUSH2 0x886 ADD MSTORE DUP2 DUP2 PUSH2 0x979 ADD MSTORE DUP2 DUP2 PUSH2 0xB38 ADD MSTORE DUP2 DUP2 PUSH2 0xFE9 ADD MSTORE DUP2 DUP2 PUSH2 0x17C8 ADD MSTORE DUP2 DUP2 PUSH2 0x19B4 ADD MSTORE DUP2 DUP2 PUSH2 0x1A65 ADD MSTORE DUP2 DUP2 PUSH2 0x1C46 ADD MSTORE DUP2 DUP2 PUSH2 0x1CEB ADD MSTORE DUP2 DUP2 PUSH2 0x21AC ADD MSTORE DUP2 DUP2 PUSH2 0x262C ADD MSTORE DUP2 DUP2 PUSH2 0x2A46 ADD MSTORE DUP2 DUP2 PUSH2 0x3531 ADD MSTORE DUP2 DUP2 PUSH2 0x397A ADD MSTORE PUSH2 0x39FC ADD MSTORE PUSH0 DUP2 DUP2 PUSH2 0x279F ADD MSTORE PUSH2 0x4C6A ADD MSTORE PUSH0 DUP2 DUP2 PUSH2 0x14E0 ADD MSTORE DUP2 DUP2 PUSH2 0x171E ADD MSTORE DUP2 DUP2 PUSH2 0x1B02 ADD MSTORE DUP2 DUP2 PUSH2 0x2CDA ADD MSTORE PUSH2 0x4387 ADD MSTORE PUSH2 0x709B PUSH0 RETURN INVALID PUSH1 0x80 PUSH1 0x40 MSTORE PUSH1 0x4 CALLDATASIZE LT PUSH2 0x14E JUMPI PUSH0 CALLDATALOAD PUSH1 0xE0 SHR DUP1 PUSH4 0x92FE8E70 GT PUSH2 0xB5 JUMPI DUP1 PUSH4 0xBB558A9F GT PUSH2 0x6E JUMPI DUP1 PUSH4 0xBB558A9F EQ PUSH2 0x5A3 JUMPI DUP1 PUSH4 0xC22159B6 EQ PUSH2 0x5CD JUMPI DUP1 PUSH4 0xD0E380F2 EQ PUSH2 0x60A JUMPI DUP1 PUSH4 0xE038E6DC EQ PUSH2 0x646 JUMPI DUP1 PUSH4 0xE9361C08 EQ PUSH2 0x676 JUMPI DUP1 PUSH4 0xF96FE925 EQ PUSH2 0x69E JUMPI PUSH2 0x1DA JUMP JUMPDEST DUP1 PUSH4 0x92FE8E70 EQ PUSH2 0x43E JUMPI DUP1 PUSH4 0x964F987C EQ PUSH2 0x47A JUMPI DUP1 PUSH4 0x9AB6156B EQ PUSH2 0x4B8 JUMPI DUP1 PUSH4 0xA0D376CF EQ PUSH2 0x4F4 JUMPI DUP1 PUSH4 0xA3C7271A EQ PUSH2 0x532 JUMPI DUP1 PUSH4 0xB066EA7C EQ PUSH2 0x573 JUMPI PUSH2 0x1DA JUMP JUMPDEST DUP1 PUSH4 0x659AC74B GT PUSH2 0x107 JUMPI DUP1 PUSH4 0x659AC74B EQ PUSH2 0x326 JUMPI DUP1 PUSH4 0x6C9C0078 EQ PUSH2 0x362 JUMPI DUP1 PUSH4 0x8129FC1C EQ PUSH2 0x38C JUMPI DUP1 PUSH4 0x81C2FDFB EQ PUSH2 0x3A2 JUMPI DUP1 PUSH4 0x88CC58E4 EQ PUSH2 0x3DF JUMPI DUP1 PUSH4 0x8EFC2B2C EQ PUSH2 0x409 JUMPI PUSH2 0x1DA JUMP JUMPDEST DUP1 PUSH4 0x1A24F9A9 EQ PUSH2 0x1DE JUMPI DUP1 PUSH4 0x2075AD22 EQ PUSH2 0x21A JUMPI DUP1 PUSH4 0x2A443FAE EQ PUSH2 0x24A JUMPI DUP1 PUSH4 0x3DC8F8EC EQ PUSH2 0x286 JUMPI DUP1 PUSH4 0x4B801870 EQ PUSH2 0x2C2 JUMPI DUP1 PUSH4 0x62C06767 EQ PUSH2 0x2FE JUMPI PUSH2 0x1DA JUMP JUMPDEST CALLDATASIZE PUSH2 0x1DA JUMPI PUSH32 0x0 PUSH20 0xFFFFFFFFFFFFFFFFFFFFFFFFFFFFFFFFFFFFFFFF AND CALLER PUSH20 0xFFFFFFFFFFFFFFFFFFFFFFFFFFFFFFFFFFFFFFFF AND EQ PUSH2 0x1D8 JUMPI PUSH1 0x40 MLOAD PUSH32 0x6C8CB79300000000000000000000000000000000000000000000000000000000 DUP2 MSTORE PUSH1 0x4 ADD PUSH1 0x40 MLOAD DUP1 SWAP2 SUB SWAP1 REVERT JUMPDEST STOP JUMPDEST PUSH0 DUP1 REVERT JUMPDEST CALLVALUE DUP1 ISZERO PUSH2 0x1E9 JUMPI PUSH0 DUP1 REVERT JUMPDEST POP PUSH2 0x204 PUSH1 0x4 DUP1 CALLDATASIZE SUB DUP2 ADD SWAP1 PUSH2 0x1FF SWAP2 SWAP1 PUSH2 0x564C JUMP JUMPDEST PUSH2 0x6DA JUMP JUMPDEST PUSH1 0x40 MLOAD PUSH2 0x211 SWAP2 SWAP1 PUSH2 0x56EE JUMP JUMPDEST PUSH1 0x40 MLOAD DUP1 SWAP2 SUB SWAP1 RETURN JUMPDEST PUSH2 0x234 PUSH1 0x4 DUP1 CALLDATASIZE SUB DUP2 ADD SWAP1 PUSH2 0x22F SWAP2 SWAP1 PUSH2 0x5731 JUMP JUMPDEST PUSH2 0xA79 JUMP JUMPDEST PUSH1 0x40 MLOAD PUSH2 0x241 SWAP2 SWAP1 PUSH2 0x5868 JUMP JUMPDEST PUSH1 0x40 MLOAD DUP1 SWAP2 SUB SWAP1 RETURN JUMPDEST CALLVALUE DUP1 ISZERO PUSH2 0x255 JUMPI PUSH0 DUP1 REVERT JUMPDEST POP PUSH2 0x270 PUSH1 0x4 DUP1 CALLDATASIZE SUB DUP2 ADD SWAP1 PUSH2 0x26B SWAP2 SWAP1 PUSH2 0x5888 JUMP JUMPDEST PUSH2 0xDA7 JUMP JUMPDEST PUSH1 0x40 MLOAD PUSH2 0x27D SWAP2 SWAP1 PUSH2 0x56EE JUMP JUMPDEST PUSH1 0x40 MLOAD DUP1 SWAP2 SUB SWAP1 RETURN JUMPDEST CALLVALUE DUP1 ISZERO PUSH2 0x291 JUMPI PUSH0 DUP1 REVERT JUMPDEST POP PUSH2 0x2AC PUSH1 0x4 DUP1 CALLDATASIZE SUB DUP2 ADD SWAP1 PUSH2 0x2A7 SWAP2 SWAP1 PUSH2 0x564C JUMP JUMPDEST PUSH2 0xF2A JUMP JUMPDEST PUSH1 0x40 MLOAD PUSH2 0x2B9 SWAP2 SWAP1 PUSH2 0x5868 JUMP JUMPDEST PUSH1 0x40 MLOAD DUP1 SWAP2 SUB SWAP1 RETURN JUMPDEST CALLVALUE DUP1 ISZERO PUSH2 0x2CD JUMPI PUSH0 DUP1 REVERT JUMPDEST POP PUSH2 0x2E8 PUSH1 0x4 DUP1 CALLDATASIZE SUB DUP2 ADD SWAP1 PUSH2 0x2E3 SWAP2 SWAP1 PUSH2 0x5888 JUMP JUMPDEST PUSH2 0x1239 JUMP JUMPDEST PUSH1 0x40 MLOAD PUSH2 0x2F5 SWAP2 SWAP1 PUSH2 0x56EE JUMP JUMPDEST PUSH1 0x40 MLOAD DUP1 SWAP2 SUB SWAP1 RETURN JUMPDEST CALLVALUE DUP1 ISZERO PUSH2 0x309 JUMPI PUSH0 DUP1 REVERT JUMPDEST POP PUSH2 0x324 PUSH1 0x4 DUP1 CALLDATASIZE SUB DUP2 ADD SWAP1 PUSH2 0x31F SWAP2 SWAP1 PUSH2 0x591B JUMP JUMPDEST PUSH2 0x14DE JUMP JUMPDEST STOP JUMPDEST CALLVALUE DUP1 ISZERO PUSH2 0x331 JUMPI PUSH0 DUP1 REVERT JUMPDEST POP PUSH2 0x34C PUSH1 0x4 DUP1 CALLDATASIZE SUB DUP2 ADD SWAP1 PUSH2 0x347 SWAP2 SWAP1 PUSH2 0x59DA JUMP JUMPDEST PUSH2 0x171B JUMP JUMPDEST PUSH1 0x40 MLOAD PUSH2 0x359 SWAP2 SWAP1 PUSH2 0x5A99 JUMP JUMPDEST PUSH1 0x40 MLOAD DUP1 SWAP2 SUB SWAP1 RETURN JUMPDEST CALLVALUE DUP1 ISZERO PUSH2 0x36D JUMPI PUSH0 DUP1 REVERT JUMPDEST POP PUSH2 0x376 PUSH2 0x17C5 JUMP JUMPDEST PUSH1 0x40 MLOAD PUSH2 0x383 SWAP2 SWAP1 PUSH2 0x5AD2 JUMP JUMPDEST PUSH1 0x40 MLOAD DUP1 SWAP2 SUB SWAP1 RETURN JUMPDEST CALLVALUE DUP1 ISZERO PUSH2 0x397 JUMPI PUSH0 DUP1 REVERT JUMPDEST POP PUSH2 0x3A0 PUSH2 0x17EC JUMP JUMPDEST STOP JUMPDEST CALLVALUE DUP1 ISZERO PUSH2 0x3AD JUMPI PUSH0 DUP1 REVERT JUMPDEST POP PUSH2 0x3C8 PUSH1 0x4 DUP1 CALLDATASIZE SUB DUP2 ADD SWAP1 PUSH2 0x3C3 SWAP2 SWAP1 PUSH2 0x5AEB JUMP JUMPDEST PUSH2 0x1963 JUMP JUMPDEST PUSH1 0x40 MLOAD PUSH2 0x3D6 SWAP3 SWAP2 SWAP1 PUSH2 0x5BD4 JUMP JUMPDEST PUSH1 0x40 MLOAD DUP1 SWAP2 SUB SWAP1 RETURN JUMPDEST CALLVALUE DUP1 ISZERO PUSH2 0x3EA JUMPI PUSH0 DUP1 REVERT JUMPDEST POP PUSH2 0x3F3 PUSH2 0x1AFF JUMP JUMPDEST PUSH1 0x40 MLOAD PUSH2 0x400 SWAP2 SWAP1 PUSH2 0x5C1B JUMP JUMPDEST PUSH1 0x40 MLOAD DUP1 SWAP2 SUB SWAP1 RETURN JUMPDEST PUSH2 0x423 PUSH1 0x4 DUP1 CALLDATASIZE SUB DUP2 ADD SWAP1 PUSH2 0x41E SWAP2 SWAP1 PUSH2 0x5C57 JUMP JUMPDEST PUSH2 0x1B26 JUMP JUMPDEST PUSH1 0x40 MLOAD PUSH2 0x435 SWAP7 SWAP6 SWAP5 SWAP4 SWAP3 SWAP2 SWAP1 PUSH2 0x5C9E JUMP JUMPDEST PUSH1 0x40 MLOAD DUP1 SWAP2 SUB SWAP1 RETURN JUMPDEST CALLVALUE DUP1 ISZERO PUSH2 0x449 JUMPI PUSH0 DUP1 REVERT JUMPDEST POP PUSH2 0x464 PUSH1 0x4 DUP1 CALLDATASIZE SUB DUP2 ADD SWAP1 PUSH2 0x45F SWAP2 SWAP1 PUSH2 0x5888 JUMP JUMPDEST PUSH2 0x1E2B JUMP JUMPDEST PUSH1 0x40 MLOAD PUSH2 0x471 SWAP2 SWAP1 PUSH2 0x5868 JUMP JUMPDEST PUSH1 0x40 MLOAD DUP1 SWAP2 SUB SWAP1 RETURN JUMPDEST CALLVALUE DUP1 ISZERO PUSH2 0x485 JUMPI PUSH0 DUP1 REVERT JUMPDEST POP PUSH2 0x4A0 PUSH1 0x4 DUP1 CALLDATASIZE SUB DUP2 ADD SWAP1 PUSH2 0x49B SWAP2 SWAP1 PUSH2 0x5DC0 JUMP JUMPDEST PUSH2 0x205C JUMP JUMPDEST PUSH1 0x40 MLOAD PUSH2 0x4AF SWAP4 SWAP3 SWAP2 SWAP1 PUSH2 0x5E1F JUMP JUMPDEST PUSH1 0x40 MLOAD DUP1 SWAP2 SUB SWAP1 RETURN JUMPDEST CALLVALUE DUP1 ISZERO PUSH2 0x4C3 JUMPI PUSH0 DUP1 REVERT JUMPDEST POP PUSH2 0x4DE PUSH1 0x4 DUP1 CALLDATASIZE SUB DUP2 ADD SWAP1 PUSH2 0x4D9 SWAP2 SWAP1 PUSH2 0x564C JUMP JUMPDEST PUSH2 0x20EE JUMP JUMPDEST PUSH1 0x40 MLOAD PUSH2 0x4EB SWAP2 SWAP1 PUSH2 0x56EE JUMP JUMPDEST PUSH1 0x40 MLOAD DUP1 SWAP2 SUB SWAP1 RETURN JUMPDEST CALLVALUE DUP1 ISZERO PUSH2 0x4FF JUMPI PUSH0 DUP1 REVERT JUMPDEST POP PUSH2 0x51A PUSH1 0x4 DUP1 CALLDATASIZE SUB DUP2 ADD SWAP1 PUSH2 0x515 SWAP2 SWAP1 PUSH2 0x5DC0 JUMP JUMPDEST PUSH2 0x234F JUMP JUMPDEST PUSH1 0x40 MLOAD PUSH2 0x529 SWAP4 SWAP3 SWAP2 SWAP1 PUSH2 0x5E1F JUMP JUMPDEST PUSH1 0x40 MLOAD DUP1 SWAP2 SUB SWAP1 RETURN JUMPDEST CALLVALUE DUP1 ISZERO PUSH2 0x53D JUMPI PUSH0 DUP1 REVERT JUMPDEST POP PUSH2 0x558 PUSH1 0x4 DUP1 CALLDATASIZE SUB DUP2 ADD SWAP1 PUSH2 0x553 SWAP2 SWAP1 PUSH2 0x5C57 JUMP JUMPDEST PUSH2 0x23E1 JUMP JUMPDEST PUSH1 0x40 MLOAD PUSH2 0x56A SWAP7 SWAP6 SWAP5 SWAP4 SWAP3 SWAP2 SWAP1 PUSH2 0x5C9E JUMP JUMPDEST PUSH1 0x40 MLOAD DUP1 SWAP2 SUB SWAP1 RETURN JUMPDEST PUSH2 0x58D PUSH1 0x4 DUP1 CALLDATASIZE SUB DUP2 ADD SWAP1 PUSH2 0x588 SWAP2 SWAP1 PUSH2 0x5731 JUMP JUMPDEST PUSH2 0x256E JUMP JUMPDEST PUSH1 0x40 MLOAD PUSH2 0x59A SWAP2 SWAP1 PUSH2 0x56EE JUMP JUMPDEST PUSH1 0x40 MLOAD DUP1 SWAP2 SUB SWAP1 RETURN JUMPDEST CALLVALUE DUP1 ISZERO PUSH2 0x5AE JUMPI PUSH0 DUP1 REVERT JUMPDEST POP PUSH2 0x5B7 PUSH2 0x279C JUMP JUMPDEST PUSH1 0x40 MLOAD PUSH2 0x5C4 SWAP2 SWAP1 PUSH2 0x5E74 JUMP JUMPDEST PUSH1 0x40 MLOAD DUP1 SWAP2 SUB SWAP1 RETURN JUMPDEST CALLVALUE DUP1 ISZERO PUSH2 0x5D8 JUMPI PUSH0 DUP1 REVERT JUMPDEST POP PUSH2 0x5F3 PUSH1 0x4 DUP1 CALLDATASIZE SUB DUP2 ADD SWAP1 PUSH2 0x5EE SWAP2 SWAP1 PUSH2 0x5E8D JUMP JUMPDEST PUSH2 0x27C3 JUMP JUMPDEST PUSH1 0x40 MLOAD PUSH2 0x601 SWAP3 SWAP2 SWAP1 PUSH2 0x5BD4 JUMP JUMPDEST PUSH1 0x40 MLOAD DUP1 SWAP2 SUB SWAP1 RETURN JUMPDEST CALLVALUE DUP1 ISZERO PUSH2 0x615 JUMPI PUSH0 DUP1 REVERT JUMPDEST POP PUSH2 0x630 PUSH1 0x4 DUP1 CALLDATASIZE SUB DUP2 ADD SWAP1 PUSH2 0x62B SWAP2 SWAP1 PUSH2 0x5F89 JUMP JUMPDEST PUSH2 0x2907 JUMP JUMPDEST PUSH1 0x40 MLOAD PUSH2 0x63D SWAP2 SWAP1 PUSH2 0x56EE JUMP JUMPDEST PUSH1 0x40 MLOAD DUP1 SWAP2 SUB SWAP1 RETURN JUMPDEST PUSH2 0x660 PUSH1 0x4 DUP1 CALLDATASIZE SUB DUP2 ADD SWAP1 PUSH2 0x65B SWAP2 SWAP1 PUSH2 0x5731 JUMP JUMPDEST PUSH2 0x2988 JUMP JUMPDEST PUSH1 0x40 MLOAD PUSH2 0x66D SWAP2 SWAP1 PUSH2 0x56EE JUMP JUMPDEST PUSH1 0x40 MLOAD DUP1 SWAP2 SUB SWAP1 RETURN JUMPDEST CALLVALUE DUP1 ISZERO PUSH2 0x681 JUMPI PUSH0 DUP1 REVERT JUMPDEST POP PUSH2 0x69C PUSH1 0x4 DUP1 CALLDATASIZE SUB DUP2 ADD SWAP1 PUSH2 0x697 SWAP2 SWAP1 PUSH2 0x605B JUMP JUMPDEST PUSH2 0x2CD8 JUMP JUMPDEST STOP JUMPDEST CALLVALUE DUP1 ISZERO PUSH2 0x6A9 JUMPI PUSH0 DUP1 REVERT JUMPDEST POP PUSH2 0x6C4 PUSH1 0x4 DUP1 CALLDATASIZE SUB DUP2 ADD SWAP1 PUSH2 0x6BF SWAP2 SWAP1 PUSH2 0x60FE JUMP JUMPDEST PUSH2 0x2E41 JUMP JUMPDEST PUSH1 0x40 MLOAD PUSH2 0x6D1 SWAP2 SWAP1 PUSH2 0x614B JUMP JUMPDEST PUSH1 0x40 MLOAD DUP1 SWAP2 SUB SWAP1 RETURN JUMPDEST PUSH0 DUP2 DUP1 TIMESTAMP GT ISZERO PUSH2 0x723 JUMPI DUP1 TIMESTAMP PUSH1 0x40 MLOAD PUSH32 0xDAE7CA7D00000000000000000000000000000000000000000000000000000000 DUP2 MSTORE PUSH1 0x4 ADD PUSH2 0x71A SWAP3 SWAP2 SWAP1 PUSH2 0x5BD4 JUMP JUMPDEST PUSH1 0x40 MLOAD DUP1 SWAP2 SUB SWAP1 REVERT JUMPDEST DUP5 PUSH0 DUP2 PUSH0 ADD MLOAD MLOAD EQ DUP1 PUSH2 0x73F JUMPI POP DUP1 PUSH0 ADD MLOAD MLOAD DUP2 PUSH1 0x20 ADD MLOAD MLOAD EQ ISZERO JUMPDEST DUP1 PUSH2 0x75F JUMPI POP DUP1 PUSH1 0x40 ADD MLOAD MLOAD PUSH1 0x1 DUP3 PUSH0 ADD MLOAD MLOAD PUSH2 0x75C SWAP2 SWAP1 PUSH2 0x6191 JUMP JUMPDEST EQ ISZERO JUMPDEST ISZERO PUSH2 0x796 JUMPI PUSH1 0x40 MLOAD PUSH32 0xB91B4D4D00000000000000000000000000000000000000000000000000000000 DUP2 MSTORE PUSH1 0x4 ADD PUSH1 0x40 MLOAD DUP1 SWAP2 SUB SWAP1 REVERT JUMPDEST PUSH32 0x0 PUSH20 0xFFFFFFFFFFFFFFFFFFFFFFFFFFFFFFFFFFFFFFFF AND DUP7 PUSH1 0x40 ADD MLOAD DUP8 PUSH0 ADD MLOAD MLOAD DUP2 MLOAD DUP2 LT PUSH2 0x7E8 JUMPI PUSH2 0x7E7 PUSH2 0x61C4 JUMP JUMPDEST JUMPDEST PUSH1 0x20 MUL PUSH1 0x20 ADD ADD MLOAD PUSH20 0xFFFFFFFFFFFFFFFFFFFFFFFFFFFFFFFFFFFFFFFF AND EQ PUSH2 0x86A JUMPI DUP6 PUSH1 0x40 ADD MLOAD DUP7 PUSH0 ADD MLOAD MLOAD DUP2 MLOAD DUP2 LT PUSH2 0x826 JUMPI PUSH2 0x825 PUSH2 0x61C4 JUMP JUMPDEST JUMPDEST PUSH1 0x20 MUL PUSH1 0x20 ADD ADD MLOAD PUSH1 0x40 MLOAD PUSH32 0xCFEC0E0100000000000000000000000000000000000000000000000000000000 DUP2 MSTORE PUSH1 0x4 ADD PUSH2 0x861 SWAP2 SWAP1 PUSH2 0x6200 JUMP JUMPDEST PUSH1 0x40 MLOAD DUP1 SWAP2 SUB SWAP1 REVERT JUMPDEST PUSH0 PUSH2 0x881 DUP8 PUSH0 ADD MLOAD DUP9 PUSH1 0x20 ADD MLOAD DUP10 PUSH1 0x40 ADD MLOAD PUSH2 0x2EC2 JUMP JUMPDEST SWAP1 POP PUSH0 PUSH32 0x0 PUSH20 0xFFFFFFFFFFFFFFFFFFFFFFFFFFFFFFFFFFFFFFFF AND PUSH4 0x70A08231 ADDRESS PUSH1 0x40 MLOAD DUP3 PUSH4 0xFFFFFFFF AND PUSH1 0xE0 SHL DUP2 MSTORE PUSH1 0x4 ADD PUSH2 0x8DD SWAP2 SWAP1 PUSH2 0x6200 JUMP JUMPDEST PUSH1 0x20 PUSH1 0x40 MLOAD DUP1 DUP4 SUB DUP2 DUP7 GAS STATICCALL ISZERO DUP1 ISZERO PUSH2 0x8F8 JUMPI RETURNDATASIZE PUSH0 DUP1 RETURNDATACOPY RETURNDATASIZE PUSH0 REVERT JUMPDEST POP POP POP POP PUSH1 0x40 MLOAD RETURNDATASIZE PUSH1 0x1F NOT PUSH1 0x1F DUP3 ADD AND DUP3 ADD DUP1 PUSH1 0x40 MSTORE POP DUP2 ADD SWAP1 PUSH2 0x91C SWAP2 SWAP1 PUSH2 0x622D JUMP JUMPDEST SWAP1 POP PUSH2 0x962 DUP9 PUSH1 0x40 ADD MLOAD PUSH0 DUP2 MLOAD DUP2 LT PUSH2 0x938 JUMPI PUSH2 0x937 PUSH2 0x61C4 JUMP JUMPDEST JUMPDEST PUSH1 0x20 MUL PUSH1 0x20 ADD ADD MLOAD CALLER DUP5 PUSH0 DUP2 MLOAD DUP2 LT PUSH2 0x954 JUMPI PUSH2 0x953 PUSH2 0x61C4 JUMP JUMPDEST JUMPDEST PUSH1 0x20 MUL PUSH1 0x20 ADD ADD MLOAD DUP14 PUSH2 0x2FFF JUMP JUMPDEST PUSH2 0x976 DUP3 DUP10 PUSH1 0x20 ADD MLOAD DUP11 PUSH1 0x40 ADD MLOAD ADDRESS PUSH2 0x303B JUMP JUMPDEST DUP1 PUSH32 0x0 PUSH20 0xFFFFFFFFFFFFFFFFFFFFFFFFFFFFFFFFFFFFFFFF AND PUSH4 0x70A08231 ADDRESS PUSH1 0x40 MLOAD DUP3 PUSH4 0xFFFFFFFF AND PUSH1 0xE0 SHL DUP2 MSTORE PUSH1 0x4 ADD PUSH2 0x9D0 SWAP2 SWAP1 PUSH2 0x6200 JUMP JUMPDEST PUSH1 0x20 PUSH1 0x40 MLOAD DUP1 DUP4 SUB DUP2 DUP7 GAS STATICCALL ISZERO DUP1 ISZERO PUSH2 0x9EB JUMPI RETURNDATASIZE PUSH0 DUP1 RETURNDATACOPY RETURNDATASIZE PUSH0 REVERT JUMPDEST POP POP POP POP PUSH1 0x40 MLOAD RETURNDATASIZE PUSH1 0x1F NOT PUSH1 0x1F DUP3 ADD AND DUP3 ADD DUP1 PUSH1 0x40 MSTORE POP DUP2 ADD SWAP1 PUSH2 0xA0F SWAP2 SWAP1 PUSH2 0x622D JUMP JUMPDEST PUSH2 0xA19 SWAP2 SWAP1 PUSH2 0x6258 JUMP JUMPDEST SWAP5 POP DUP5 DUP10 GT ISZERO PUSH2 0xA62 JUMPI DUP9 DUP6 PUSH1 0x40 MLOAD PUSH32 0x4FEAC00C00000000000000000000000000000000000000000000000000000000 DUP2 MSTORE PUSH1 0x4 ADD PUSH2 0xA59 SWAP3 SWAP2 SWAP1 PUSH2 0x5BD4 JUMP JUMPDEST PUSH1 0x40 MLOAD DUP1 SWAP2 SUB SWAP1 REVERT JUMPDEST PUSH2 0xA6C DUP8 DUP7 PUSH2 0x3527 JUMP JUMPDEST POP POP POP POP SWAP6 SWAP5 POP POP POP POP POP JUMP JUMPDEST PUSH1 0x60 DUP2 DUP1 TIMESTAMP GT ISZERO PUSH2 0xAC3 JUMPI DUP1 TIMESTAMP PUSH1 0x40 MLOAD PUSH32 0xDAE7CA7D00000000000000000000000000000000000000000000000000000000 DUP2 MSTORE PUSH1 0x4 ADD PUSH2 0xABA SWAP3 SWAP2 SWAP1 PUSH2 0x5BD4 JUMP JUMPDEST PUSH1 0x40 MLOAD DUP1 SWAP2 SUB SWAP1 REVERT JUMPDEST DUP5 PUSH0 DUP2 PUSH0 ADD MLOAD MLOAD EQ DUP1 PUSH2 0xADF JUMPI POP DUP1 PUSH0 ADD MLOAD MLOAD DUP2 PUSH1 0x20 ADD MLOAD MLOAD EQ ISZERO JUMPDEST DUP1 PUSH2 0xAFF JUMPI POP DUP1 PUSH1 0x40 ADD MLOAD MLOAD PUSH1 0x1 DUP3 PUSH0 ADD MLOAD MLOAD PUSH2 0xAFC SWAP2 SWAP1 PUSH2 0x6191 JUMP JUMPDEST EQ ISZERO JUMPDEST ISZERO PUSH2 0xB36 JUMPI PUSH1 0x40 MLOAD PUSH32 0xB91B4D4D00000000000000000000000000000000000000000000000000000000 DUP2 MSTORE PUSH1 0x4 ADD PUSH1 0x40 MLOAD DUP1 SWAP2 SUB SWAP1 REVERT JUMPDEST PUSH32 0x0 PUSH20 0xFFFFFFFFFFFFFFFFFFFFFFFFFFFFFFFFFFFFFFFF AND DUP7 PUSH1 0x40 ADD MLOAD PUSH0 DUP2 MLOAD DUP2 LT PUSH2 0xB84 JUMPI PUSH2 0xB83 PUSH2 0x61C4 JUMP JUMPDEST JUMPDEST PUSH1 0x20 MUL PUSH1 0x20 ADD ADD MLOAD PUSH20 0xFFFFFFFFFFFFFFFFFFFFFFFFFFFFFFFFFFFFFFFF AND EQ PUSH2 0xC02 JUMPI DUP6 PUSH1 0x40 ADD MLOAD PUSH0 DUP2 MLOAD DUP2 LT PUSH2 0xBBE JUMPI PUSH2 0xBBD PUSH2 0x61C4 JUMP JUMPDEST JUMPDEST PUSH1 0x20 MUL PUSH1 0x20 ADD ADD MLOAD PUSH1 0x40 MLOAD PUSH32 0xCFEC0E0100000000000000000000000000000000000000000000000000000000 DUP2 MSTORE PUSH1 0x4 ADD PUSH2 0xBF9 SWAP2 SWAP1 PUSH2 0x6200 JUMP JUMPDEST PUSH1 0x40 MLOAD DUP1 SWAP2 SUB SWAP1 REVERT JUMPDEST PUSH0 PUSH2 0xC19 DUP8 PUSH0 ADD MLOAD DUP9 PUSH1 0x20 ADD MLOAD DUP10 PUSH1 0x40 ADD MLOAD PUSH2 0x2EC2 JUMP JUMPDEST SWAP1 POP PUSH2 0xC2F DUP8 PUSH1 0x20 ADD MLOAD DUP3 DUP10 PUSH1 0x40 ADD MLOAD DUP12 PUSH2 0x35C4 JUMP JUMPDEST SWAP4 POP CALLVALUE DUP5 PUSH0 DUP2 MLOAD DUP2 LT PUSH2 0xC45 JUMPI PUSH2 0xC44 PUSH2 0x61C4 JUMP JUMPDEST JUMPDEST PUSH1 0x20 MUL PUSH1 0x20 ADD ADD MLOAD GT ISZERO PUSH2 0xCAC JUMPI CALLVALUE DUP5 PUSH0 DUP2 MLOAD DUP2 LT PUSH2 0xC67 JUMPI PUSH2 0xC66 PUSH2 0x61C4 JUMP JUMPDEST JUMPDEST PUSH1 0x20 MUL PUSH1 0x20 ADD ADD MLOAD PUSH1 0x40 MLOAD PUSH32 0xCA7710C800000000000000000000000000000000000000000000000000000000 DUP2 MSTORE PUSH1 0x4 ADD PUSH2 0xCA3 SWAP3 SWAP2 SWAP1 PUSH2 0x5BD4 JUMP JUMPDEST PUSH1 0x40 MLOAD DUP1 SWAP2 SUB SWAP1 REVERT JUMPDEST PUSH2 0xCEA DUP2 PUSH0 DUP2 MLOAD DUP2 LT PUSH2 0xCC2 JUMPI PUSH2 0xCC1 PUSH2 0x61C4 JUMP JUMPDEST JUMPDEST PUSH1 0x20 MUL PUSH1 0x20 ADD ADD MLOAD DUP6 PUSH0 DUP2 MLOAD DUP2 LT PUSH2 0xCDD JUMPI PUSH2 0xCDC PUSH2 0x61C4 JUMP JUMPDEST JUMPDEST PUSH1 0x20 MUL PUSH1 0x20 ADD ADD MLOAD PUSH2 0x3970 JUMP JUMPDEST PUSH0 PUSH2 0xD00 DUP3 DUP10 PUSH1 0x20 ADD MLOAD DUP11 PUSH1 0x40 ADD MLOAD DUP9 DUP12 PUSH2 0x3A45 JUMP JUMPDEST SWAP1 POP DUP9 DUP2 LT ISZERO PUSH2 0xD49 JUMPI DUP9 DUP2 PUSH1 0x40 MLOAD PUSH32 0x4FEAC00C00000000000000000000000000000000000000000000000000000000 DUP2 MSTORE PUSH1 0x4 ADD PUSH2 0xD40 SWAP3 SWAP2 SWAP1 PUSH2 0x5BD4 JUMP JUMPDEST PUSH1 0x40 MLOAD DUP1 SWAP2 SUB SWAP1 REVERT JUMPDEST DUP5 PUSH0 DUP2 MLOAD DUP2 LT PUSH2 0xD5C JUMPI PUSH2 0xD5B PUSH2 0x61C4 JUMP JUMPDEST JUMPDEST PUSH1 0x20 MUL PUSH1 0x20 ADD ADD MLOAD CALLVALUE GT ISZERO PUSH2 0xD9B JUMPI PUSH2 0xD9A CALLER DUP7 PUSH0 DUP2 MLOAD DUP2 LT PUSH2 0xD82 JUMPI PUSH2 0xD81 PUSH2 0x61C4 JUMP JUMPDEST JUMPDEST PUSH1 0x20 MUL PUSH1 0x20 ADD ADD MLOAD CALLVALUE PUSH2 0xD95 SWAP2 SWAP1 PUSH2 0x6258 JUMP JUMPDEST PUSH2 0x3DDB JUMP JUMPDEST JUMPDEST POP POP POP POP SWAP5 SWAP4 POP POP POP POP JUMP JUMPDEST PUSH0 DUP2 DUP1 TIMESTAMP GT ISZERO PUSH2 0xDF0 JUMPI DUP1 TIMESTAMP PUSH1 0x40 MLOAD PUSH32 0xDAE7CA7D00000000000000000000000000000000000000000000000000000000 DUP2 MSTORE PUSH1 0x4 ADD PUSH2 0xDE7 SWAP3 SWAP2 SWAP1 PUSH2 0x5BD4 JUMP JUMPDEST PUSH1 0x40 MLOAD DUP1 SWAP2 SUB SWAP1 REVERT JUMPDEST DUP5 PUSH0 DUP2 PUSH0 ADD MLOAD MLOAD EQ DUP1 PUSH2 0xE0C JUMPI POP DUP1 PUSH0 ADD MLOAD MLOAD DUP2 PUSH1 0x20 ADD MLOAD MLOAD EQ ISZERO JUMPDEST DUP1 PUSH2 0xE2C JUMPI POP DUP1 PUSH1 0x40 ADD MLOAD MLOAD PUSH1 0x1 DUP3 PUSH0 ADD MLOAD MLOAD PUSH2 0xE29 SWAP2 SWAP1 PUSH2 0x6191 JUMP JUMPDEST EQ ISZERO JUMPDEST ISZERO PUSH2 0xE63 JUMPI PUSH1 0x40 MLOAD PUSH32 0xB91B4D4D00000000000000000000000000000000000000000000000000000000 DUP2 MSTORE PUSH1 0x4 ADD PUSH1 0x40 MLOAD DUP1 SWAP2 SUB SWAP1 REVERT JUMPDEST PUSH0 PUSH2 0xE7A DUP8 PUSH0 ADD MLOAD DUP9 PUSH1 0x20 ADD MLOAD DUP10 PUSH1 0x40 ADD MLOAD PUSH2 0x2EC2 JUMP JUMPDEST SWAP1 POP PUSH2 0xEC0 DUP8 PUSH1 0x40 ADD MLOAD PUSH0 DUP2 MLOAD DUP2 LT PUSH2 0xE96 JUMPI PUSH2 0xE95 PUSH2 0x61C4 JUMP JUMPDEST JUMPDEST PUSH1 0x20 MUL PUSH1 0x20 ADD ADD MLOAD CALLER DUP4 PUSH0 DUP2 MLOAD DUP2 LT PUSH2 0xEB2 JUMPI PUSH2 0xEB1 PUSH2 0x61C4 JUMP JUMPDEST JUMPDEST PUSH1 0x20 MUL PUSH1 0x20 ADD ADD MLOAD DUP13 PUSH2 0x2FFF JUMP JUMPDEST PUSH2 0xED5 DUP10 DUP3 DUP10 PUSH1 0x20 ADD MLOAD DUP11 PUSH1 0x40 ADD MLOAD DUP11 PUSH2 0x3E95 JUMP JUMPDEST SWAP4 POP DUP4 DUP9 GT ISZERO PUSH2 0xF1E JUMPI DUP8 DUP5 PUSH1 0x40 MLOAD PUSH32 0x4FEAC00C00000000000000000000000000000000000000000000000000000000 DUP2 MSTORE PUSH1 0x4 ADD PUSH2 0xF15 SWAP3 SWAP2 SWAP1 PUSH2 0x5BD4 JUMP JUMPDEST PUSH1 0x40 MLOAD DUP1 SWAP2 SUB SWAP1 REVERT JUMPDEST POP POP POP SWAP6 SWAP5 POP POP POP POP POP JUMP JUMPDEST PUSH1 0x60 DUP2 DUP1 TIMESTAMP GT ISZERO PUSH2 0xF74 JUMPI DUP1 TIMESTAMP PUSH1 0x40 MLOAD PUSH32 0xDAE7CA7D00000000000000000000000000000000000000000000000000000000 DUP2 MSTORE PUSH1 0x4 ADD PUSH2 0xF6B SWAP3 SWAP2 SWAP1 PUSH2 0x5BD4 JUMP JUMPDEST PUSH1 0x40 MLOAD DUP1 SWAP2 SUB SWAP1 REVERT JUMPDEST DUP5 PUSH0 DUP2 PUSH0 ADD MLOAD MLOAD EQ DUP1 PUSH2 0xF90 JUMPI POP DUP1 PUSH0 ADD MLOAD MLOAD DUP2 PUSH1 0x20 ADD MLOAD MLOAD EQ ISZERO JUMPDEST DUP1 PUSH2 0xFB0 JUMPI POP DUP1 PUSH1 0x40 ADD MLOAD MLOAD PUSH1 0x1 DUP3 PUSH0 ADD MLOAD MLOAD PUSH2 0xFAD SWAP2 SWAP1 PUSH2 0x6191 JUMP JUMPDEST EQ ISZERO JUMPDEST ISZERO PUSH2 0xFE7 JUMPI PUSH1 0x40 MLOAD PUSH32 0xB91B4D4D00000000000000000000000000000000000000000000000000000000 DUP2 MSTORE PUSH1 0x4 ADD PUSH1 0x40 MLOAD DUP1 SWAP2 SUB SWAP1 REVERT JUMPDEST PUSH32 0x0 PUSH20 0xFFFFFFFFFFFFFFFFFFFFFFFFFFFFFFFFFFFFFFFF AND DUP7 PUSH1 0x40 ADD MLOAD DUP8 PUSH0 ADD MLOAD MLOAD DUP2 MLOAD DUP2 LT PUSH2 0x1039 JUMPI PUSH2 0x1038 PUSH2 0x61C4 JUMP JUMPDEST JUMPDEST PUSH1 0x20 MUL PUSH1 0x20 ADD ADD MLOAD PUSH20 0xFFFFFFFFFFFFFFFFFFFFFFFFFFFFFFFFFFFFFFFF AND EQ PUSH2 0x10BB JUMPI DUP6 PUSH1 0x40 ADD MLOAD DUP7 PUSH0 ADD MLOAD MLOAD DUP2 MLOAD DUP2 LT PUSH2 0x1077 JUMPI PUSH2 0x1076 PUSH2 0x61C4 JUMP JUMPDEST JUMPDEST PUSH1 0x20 MUL PUSH1 0x20 ADD ADD MLOAD PUSH1 0x40 MLOAD PUSH32 0xCFEC0E0100000000000000000000000000000000000000000000000000000000 DUP2 MSTORE PUSH1 0x4 ADD PUSH2 0x10B2 SWAP2 SWAP1 PUSH2 0x6200 JUMP JUMPDEST PUSH1 0x40 MLOAD DUP1 SWAP2 SUB SWAP1 REVERT JUMPDEST PUSH0 PUSH2 0x10D2 DUP8 PUSH0 ADD MLOAD DUP9 PUSH1 0x20 ADD MLOAD DUP10 PUSH1 0x40 ADD MLOAD PUSH2 0x2EC2 JUMP JUMPDEST SWAP1 POP PUSH2 0x10E8 DUP8 PUSH1 0x20 ADD MLOAD DUP3 DUP10 PUSH1 0x40 ADD MLOAD DUP13 PUSH2 0x35C4 JUMP JUMPDEST SWAP4 POP DUP8 DUP5 PUSH0 DUP2 MLOAD DUP2 LT PUSH2 0x10FE JUMPI PUSH2 0x10FD PUSH2 0x61C4 JUMP JUMPDEST JUMPDEST PUSH1 0x20 MUL PUSH1 0x20 ADD ADD MLOAD GT ISZERO PUSH2 0x1165 JUMPI DUP8 DUP5 PUSH0 DUP2 MLOAD DUP2 LT PUSH2 0x1120 JUMPI PUSH2 0x111F PUSH2 0x61C4 JUMP JUMPDEST JUMPDEST PUSH1 0x20 MUL PUSH1 0x20 ADD ADD MLOAD PUSH1 0x40 MLOAD PUSH32 0xCA7710C800000000000000000000000000000000000000000000000000000000 DUP2 MSTORE PUSH1 0x4 ADD PUSH2 0x115C SWAP3 SWAP2 SWAP1 PUSH2 0x5BD4 JUMP JUMPDEST PUSH1 0x40 MLOAD DUP1 SWAP2 SUB SWAP1 REVERT JUMPDEST PUSH2 0x11C3 DUP8 PUSH1 0x40 ADD MLOAD PUSH0 DUP2 MLOAD DUP2 LT PUSH2 0x117F JUMPI PUSH2 0x117E PUSH2 0x61C4 JUMP JUMPDEST JUMPDEST PUSH1 0x20 MUL PUSH1 0x20 ADD ADD MLOAD CALLER DUP4 PUSH0 DUP2 MLOAD DUP2 LT PUSH2 0x119B JUMPI PUSH2 0x119A PUSH2 0x61C4 JUMP JUMPDEST JUMPDEST PUSH1 0x20 MUL PUSH1 0x20 ADD ADD MLOAD DUP8 PUSH0 DUP2 MLOAD DUP2 LT PUSH2 0x11B6 JUMPI PUSH2 0x11B5 PUSH2 0x61C4 JUMP JUMPDEST JUMPDEST PUSH1 0x20 MUL PUSH1 0x20 ADD ADD MLOAD PUSH2 0x2FFF JUMP JUMPDEST PUSH0 PUSH2 0x11D9 DUP3 DUP10 PUSH1 0x20 ADD MLOAD DUP11 PUSH1 0x40 ADD MLOAD DUP9 ADDRESS PUSH2 0x3A45 JUMP JUMPDEST SWAP1 POP DUP10 DUP2 LT ISZERO PUSH2 0x1222 JUMPI DUP10 DUP2 PUSH1 0x40 MLOAD PUSH32 0x4FEAC00C00000000000000000000000000000000000000000000000000000000 DUP2 MSTORE PUSH1 0x4 ADD PUSH2 0x1219 SWAP3 SWAP2 SWAP1 PUSH2 0x5BD4 JUMP JUMPDEST PUSH1 0x40 MLOAD DUP1 SWAP2 SUB SWAP1 REVERT JUMPDEST PUSH2 0x122C DUP8 DUP3 PUSH2 0x3527 JUMP JUMPDEST POP POP POP POP SWAP6 SWAP5 POP POP POP POP POP JUMP JUMPDEST PUSH0 DUP2 DUP1 TIMESTAMP GT ISZERO PUSH2 0x1282 JUMPI DUP1 TIMESTAMP PUSH1 0x40 MLOAD PUSH32 0xDAE7CA7D00000000000000000000000000000000000000000000000000000000 DUP2 MSTORE PUSH1 0x4 ADD PUSH2 0x1279 SWAP3 SWAP2 SWAP1 PUSH2 0x5BD4 JUMP JUMPDEST PUSH1 0x40 MLOAD DUP1 SWAP2 SUB SWAP1 REVERT JUMPDEST DUP5 PUSH0 DUP2 PUSH0 ADD MLOAD MLOAD EQ DUP1 PUSH2 0x129E JUMPI POP DUP1 PUSH0 ADD MLOAD MLOAD DUP2 PUSH1 0x20 ADD MLOAD MLOAD EQ ISZERO JUMPDEST DUP1 PUSH2 0x12BE JUMPI POP DUP1 PUSH1 0x40 ADD MLOAD MLOAD PUSH1 0x1 DUP3 PUSH0 ADD MLOAD MLOAD PUSH2 0x12BB SWAP2 SWAP1 PUSH2 0x6191 JUMP JUMPDEST EQ ISZERO JUMPDEST ISZERO PUSH2 0x12F5 JUMPI PUSH1 0x40 MLOAD PUSH32 0xB91B4D4D00000000000000000000000000000000000000000000000000000000 DUP2 MSTORE PUSH1 0x4 ADD PUSH1 0x40 MLOAD DUP1 SWAP2 SUB SWAP1 REVERT JUMPDEST PUSH0 PUSH2 0x130C DUP8 PUSH0 ADD MLOAD DUP9 PUSH1 0x20 ADD MLOAD DUP10 PUSH1 0x40 ADD MLOAD PUSH2 0x2EC2 JUMP JUMPDEST SWAP1 POP PUSH0 DUP8 PUSH1 0x40 ADD MLOAD DUP3 MLOAD DUP2 MLOAD DUP2 LT PUSH2 0x1327 JUMPI PUSH2 0x1326 PUSH2 0x61C4 JUMP JUMPDEST JUMPDEST PUSH1 0x20 MUL PUSH1 0x20 ADD ADD MLOAD SWAP1 POP PUSH0 DUP2 PUSH20 0xFFFFFFFFFFFFFFFFFFFFFFFFFFFFFFFFFFFFFFFF AND PUSH4 0x70A08231 DUP10 PUSH1 0x40 MLOAD DUP3 PUSH4 0xFFFFFFFF AND PUSH1 0xE0 SHL DUP2 MSTORE PUSH1 0x4 ADD PUSH2 0x136B SWAP2 SWAP1 PUSH2 0x6200 JUMP JUMPDEST PUSH1 0x20 PUSH1 0x40 MLOAD DUP1 DUP4 SUB DUP2 DUP7 GAS STATICCALL ISZERO DUP1 ISZERO PUSH2 0x1386 JUMPI RETURNDATASIZE PUSH0 DUP1 RETURNDATACOPY RETURNDATASIZE PUSH0 REVERT JUMPDEST POP POP POP POP PUSH1 0x40 MLOAD RETURNDATASIZE PUSH1 0x1F NOT PUSH1 0x1F DUP3 ADD AND DUP3 ADD DUP1 PUSH1 0x40 MSTORE POP DUP2 ADD SWAP1 PUSH2 0x13AA SWAP2 SWAP1 PUSH2 0x622D JUMP JUMPDEST SWAP1 POP PUSH2 0x13F0 DUP10 PUSH1 0x40 ADD MLOAD PUSH0 DUP2 MLOAD DUP2 LT PUSH2 0x13C6 JUMPI PUSH2 0x13C5 PUSH2 0x61C4 JUMP JUMPDEST JUMPDEST PUSH1 0x20 MUL PUSH1 0x20 ADD ADD MLOAD CALLER DUP6 PUSH0 DUP2 MLOAD DUP2 LT PUSH2 0x13E2 JUMPI PUSH2 0x13E1 PUSH2 0x61C4 JUMP JUMPDEST JUMPDEST PUSH1 0x20 MUL PUSH1 0x20 ADD ADD MLOAD DUP15 PUSH2 0x2FFF JUMP JUMPDEST PUSH2 0x1404 DUP4 DUP11 PUSH1 0x20 ADD MLOAD DUP12 PUSH1 0x40 ADD MLOAD DUP12 PUSH2 0x303B JUMP JUMPDEST DUP1 DUP3 PUSH20 0xFFFFFFFFFFFFFFFFFFFFFFFFFFFFFFFFFFFFFFFF AND PUSH4 0x70A08231 DUP11 PUSH1 0x40 MLOAD DUP3 PUSH4 0xFFFFFFFF AND PUSH1 0xE0 SHL DUP2 MSTORE PUSH1 0x4 ADD PUSH2 0x143E SWAP2 SWAP1 PUSH2 0x6200 JUMP JUMPDEST PUSH1 0x20 PUSH1 0x40 MLOAD DUP1 DUP4 SUB DUP2 DUP7 GAS STATICCALL ISZERO DUP1 ISZERO PUSH2 0x1459 JUMPI RETURNDATASIZE PUSH0 DUP1 RETURNDATACOPY RETURNDATASIZE PUSH0 REVERT JUMPDEST POP POP POP POP PUSH1 0x40 MLOAD RETURNDATASIZE PUSH1 0x1F NOT PUSH1 0x1F DUP3 ADD AND DUP3 ADD DUP1 PUSH1 0x40 MSTORE POP DUP2 ADD SWAP1 PUSH2 0x147D SWAP2 SWAP1 PUSH2 0x622D JUMP JUMPDEST PUSH2 0x1487 SWAP2 SWAP1 PUSH2 0x6258 JUMP JUMPDEST SWAP6 POP DUP6 DUP11 GT ISZERO PUSH2 0x14D0 JUMPI DUP10 DUP7 PUSH1 0x40 MLOAD PUSH32 0x4FEAC00C00000000000000000000000000000000000000000000000000000000 DUP2 MSTORE PUSH1 0x4 ADD PUSH2 0x14C7 SWAP3 SWAP2 SWAP1 PUSH2 0x5BD4 JUMP JUMPDEST PUSH1 0x40 MLOAD DUP1 SWAP2 SUB SWAP1 REVERT JUMPDEST POP POP POP POP POP SWAP6 SWAP5 POP POP POP POP POP JUMP JUMPDEST PUSH32 0x0 PUSH20 0xFFFFFFFFFFFFFFFFFFFFFFFFFFFFFFFFFFFFFFFF AND PUSH4 0x8DA5CB5B PUSH1 0x40 MLOAD DUP2 PUSH4 0xFFFFFFFF AND PUSH1 0xE0 SHL DUP2 MSTORE PUSH1 0x4 ADD PUSH1 0x20 PUSH1 0x40 MLOAD DUP1 DUP4 SUB DUP2 DUP7 GAS STATICCALL ISZERO DUP1 ISZERO PUSH2 0x1547 JUMPI RETURNDATASIZE PUSH0 DUP1 RETURNDATACOPY RETURNDATASIZE PUSH0 REVERT JUMPDEST POP POP POP POP PUSH1 0x40 MLOAD RETURNDATASIZE PUSH1 0x1F NOT PUSH1 0x1F DUP3 ADD AND DUP3 ADD DUP1 PUSH1 0x40 MSTORE POP DUP2 ADD SWAP1 PUSH2 0x156B SWAP2 SWAP1 PUSH2 0x629F JUMP JUMPDEST PUSH20 0xFFFFFFFFFFFFFFFFFFFFFFFFFFFFFFFFFFFFFFFF AND CALLER PUSH20 0xFFFFFFFFFFFFFFFFFFFFFFFFFFFFFFFFFFFFFFFF AND EQ PUSH2 0x15CF JUMPI PUSH1 0x40 MLOAD PUSH32 0xBB2A2B7200000000000000000000000000000000000000000000000000000000 DUP2 MSTORE PUSH1 0x4 ADD PUSH1 0x40 MLOAD DUP1 SWAP2 SUB SWAP1 REVERT JUMPDEST PUSH0 PUSH20 0xFFFFFFFFFFFFFFFFFFFFFFFFFFFFFFFFFFFFFFFF AND DUP4 PUSH20 0xFFFFFFFFFFFFFFFFFFFFFFFFFFFFFFFFFFFFFFFF AND SUB PUSH2 0x1642 JUMPI PUSH32 0xFFFFFFFFFFFFFFFFFFFFFFFFFFFFFFFFFFFFFFFFFFFFFFFFFFFFFFFFFFFFFFFF DUP2 EQ PUSH2 0x162F JUMPI DUP1 PUSH2 0x1631 JUMP JUMPDEST SELFBALANCE JUMPDEST SWAP1 POP PUSH2 0x163D DUP3 DUP3 PUSH2 0x3DDB JUMP JUMPDEST PUSH2 0x1716 JUMP JUMPDEST PUSH32 0xFFFFFFFFFFFFFFFFFFFFFFFFFFFFFFFFFFFFFFFFFFFFFFFFFFFFFFFFFFFFFFFF DUP2 EQ PUSH2 0x166F JUMPI DUP1 PUSH2 0x16E8 JUMP JUMPDEST DUP3 PUSH20 0xFFFFFFFFFFFFFFFFFFFFFFFFFFFFFFFFFFFFFFFF AND PUSH4 0x70A08231 ADDRESS PUSH1 0x40 MLOAD DUP3 PUSH4 0xFFFFFFFF AND PUSH1 0xE0 SHL DUP2 MSTORE PUSH1 0x4 ADD PUSH2 0x16A8 SWAP2 SWAP1 PUSH2 0x6200 JUMP JUMPDEST PUSH1 0x20 PUSH1 0x40 MLOAD DUP1 DUP4 SUB DUP2 DUP7 GAS STATICCALL ISZERO DUP1 ISZERO PUSH2 0x16C3 JUMPI RETURNDATASIZE PUSH0 DUP1 RETURNDATACOPY RETURNDATASIZE PUSH0 REVERT JUMPDEST POP POP POP POP PUSH1 0x40 MLOAD RETURNDATASIZE PUSH1 0x1F NOT PUSH1 0x1F DUP3 ADD AND DUP3 ADD DUP1 PUSH1 0x40 MSTORE POP DUP2 ADD SWAP1 PUSH2 0x16E7 SWAP2 SWAP1 PUSH2 0x622D JUMP JUMPDEST JUMPDEST SWAP1 POP PUSH2 0x1715 DUP3 DUP3 DUP6 PUSH20 0xFFFFFFFFFFFFFFFFFFFFFFFFFFFFFFFFFFFFFFFF AND PUSH2 0x42D2 SWAP1 SWAP3 SWAP2 SWAP1 PUSH4 0xFFFFFFFF AND JUMP JUMPDEST JUMPDEST POP POP POP JUMP JUMPDEST PUSH0 PUSH32 0x0 PUSH20 0xFFFFFFFFFFFFFFFFFFFFFFFFFFFFFFFFFFFFFFFF AND PUSH4 0x659AC74B DUP7 DUP7 DUP7 DUP7 PUSH1 0x40 MLOAD DUP6 PUSH4 0xFFFFFFFF AND PUSH1 0xE0 SHL DUP2 MSTORE PUSH1 0x4 ADD PUSH2 0x177B SWAP5 SWAP4 SWAP3 SWAP2 SWAP1 PUSH2 0x62F9 JUMP JUMPDEST PUSH1 0x20 PUSH1 0x40 MLOAD DUP1 DUP4 SUB DUP2 PUSH0 DUP8 GAS CALL ISZERO DUP1 ISZERO PUSH2 0x1797 JUMPI RETURNDATASIZE PUSH0 DUP1 RETURNDATACOPY RETURNDATASIZE PUSH0 REVERT JUMPDEST POP POP POP POP PUSH1 0x40 MLOAD RETURNDATASIZE PUSH1 0x1F NOT PUSH1 0x1F DUP3 ADD AND DUP3 ADD DUP1 PUSH1 0x40 MSTORE POP DUP2 ADD SWAP1 PUSH2 0x17BB SWAP2 SWAP1 PUSH2 0x6350 JUMP JUMPDEST SWAP1 POP SWAP5 SWAP4 POP POP POP POP JUMP JUMPDEST PUSH0 PUSH32 0x0 SWAP1 POP SWAP1 JUMP JUMPDEST PUSH0 PUSH2 0x17F5 PUSH2 0x435D JUMP JUMPDEST SWAP1 POP PUSH0 DUP2 PUSH0 ADD PUSH1 0x8 SWAP1 SLOAD SWAP1 PUSH2 0x100 EXP SWAP1 DIV PUSH1 0xFF AND ISZERO SWAP1 POP PUSH0 DUP3 PUSH0 ADD PUSH0 SWAP1 SLOAD SWAP1 PUSH2 0x100 EXP SWAP1 DIV PUSH8 0xFFFFFFFFFFFFFFFF AND SWAP1 POP PUSH0 DUP1 DUP3 PUSH8 0xFFFFFFFFFFFFFFFF AND EQ DUP1 ISZERO PUSH2 0x183D JUMPI POP DUP3 JUMPDEST SWAP1 POP PUSH0 PUSH1 0x1 DUP4 PUSH8 0xFFFFFFFFFFFFFFFF AND EQ DUP1 ISZERO PUSH2 0x1870 JUMPI POP PUSH0 ADDRESS PUSH20 0xFFFFFFFFFFFFFFFFFFFFFFFFFFFFFFFFFFFFFFFF AND EXTCODESIZE EQ JUMPDEST SWAP1 POP DUP2 ISZERO DUP1 ISZERO PUSH2 0x187E JUMPI POP DUP1 ISZERO JUMPDEST ISZERO PUSH2 0x18B5 JUMPI PUSH1 0x40 MLOAD PUSH32 0xF92EE8A900000000000000000000000000000000000000000000000000000000 DUP2 MSTORE PUSH1 0x4 ADD PUSH1 0x40 MLOAD DUP1 SWAP2 SUB SWAP1 REVERT JUMPDEST PUSH1 0x1 DUP6 PUSH0 ADD PUSH0 PUSH2 0x100 EXP DUP2 SLOAD DUP2 PUSH8 0xFFFFFFFFFFFFFFFF MUL NOT AND SWAP1 DUP4 PUSH8 0xFFFFFFFFFFFFFFFF AND MUL OR SWAP1 SSTORE POP DUP4 ISZERO PUSH2 0x1902 JUMPI PUSH1 0x1 DUP6 PUSH0 ADD PUSH1 0x8 PUSH2 0x100 EXP DUP2 SLOAD DUP2 PUSH1 0xFF MUL NOT AND SWAP1 DUP4 ISZERO ISZERO MUL OR SWAP1 SSTORE POP JUMPDEST DUP4 ISZERO PUSH2 0x195C JUMPI PUSH0 DUP6 PUSH0 ADD PUSH1 0x8 PUSH2 0x100 EXP DUP2 SLOAD DUP2 PUSH1 0xFF MUL NOT AND SWAP1 DUP4 ISZERO ISZERO MUL OR SWAP1 SSTORE POP PUSH32 0xC7F505B2F371AE2175EE4913F4499E1F2633A7B5936321EED1CDAEB6115181D2 PUSH1 0x1 PUSH1 0x40 MLOAD PUSH2 0x1953 SWAP2 SWAP1 PUSH2 0x63C7 JUMP JUMPDEST PUSH1 0x40 MLOAD DUP1 SWAP2 SUB SWAP1 LOG1 JUMPDEST POP POP POP POP POP JUMP JUMPDEST PUSH0 DUP1 DUP3 DUP1 TIMESTAMP GT ISZERO PUSH2 0x19AD JUMPI DUP1 TIMESTAMP PUSH1 0x40 MLOAD PUSH32 0xDAE7CA7D00000000000000000000000000000000000000000000000000000000 DUP2 MSTORE PUSH1 0x4 ADD PUSH2 0x19A4 SWAP3 SWAP2 SWAP1 PUSH2 0x5BD4 JUMP JUMPDEST PUSH1 0x40 MLOAD DUP1 SWAP2 SUB SWAP1 REVERT JUMPDEST PUSH0 PUSH2 0x19DD DUP13 PUSH32 0x0 DUP14 PUSH2 0xFFFF AND PUSH2 0x4384 JUMP JUMPDEST SWAP1 POP PUSH0 DUP2 PUSH20 0xFFFFFFFFFFFFFFFFFFFFFFFFFFFFFFFFFFFFFFFF AND PUSH4 0xDA10610C PUSH1 0x40 MLOAD DUP2 PUSH4 0xFFFFFFFF AND PUSH1 0xE0 SHL DUP2 MSTORE PUSH1 0x4 ADD PUSH1 0x20 PUSH1 0x40 MLOAD DUP1 DUP4 SUB DUP2 DUP7 GAS STATICCALL ISZERO DUP1 ISZERO PUSH2 0x1A29 JUMPI RETURNDATASIZE PUSH0 DUP1 RETURNDATACOPY RETURNDATASIZE PUSH0 REVERT JUMPDEST POP POP POP POP PUSH1 0x40 MLOAD RETURNDATASIZE PUSH1 0x1F NOT PUSH1 0x1F DUP3 ADD AND DUP3 ADD DUP1 PUSH1 0x40 MSTORE POP DUP2 ADD SWAP1 PUSH2 0x1A4D SWAP2 SWAP1 PUSH2 0x63F4 JUMP JUMPDEST PUSH20 0xFFFFFFFFFFFFFFFFFFFFFFFFFFFFFFFFFFFFFFFF AND PUSH32 0x0 PUSH20 0xFFFFFFFFFFFFFFFFFFFFFFFFFFFFFFFFFFFFFFFF AND EQ SWAP1 POP DUP1 PUSH2 0x1AAD JUMPI DUP10 DUP12 DUP1 SWAP12 POP DUP2 SWAP13 POP POP POP JUMPDEST PUSH0 DUP1 PUSH2 0x1ABD DUP5 DUP15 DUP15 DUP15 DUP15 ADDRESS PUSH2 0x44A2 JUMP JUMPDEST SWAP2 POP SWAP2 POP DUP3 PUSH2 0x1ACD JUMPI DUP1 DUP3 PUSH2 0x1AD0 JUMP JUMPDEST DUP2 DUP2 JUMPDEST DUP1 SWAP8 POP DUP2 SWAP9 POP POP POP POP POP POP PUSH2 0x1AE6 DUP13 DUP8 DUP7 PUSH2 0x462B JUMP JUMPDEST PUSH2 0x1AF0 DUP7 DUP5 PUSH2 0x3527 JUMP JUMPDEST POP POP SWAP9 POP SWAP9 SWAP7 POP POP POP POP POP POP POP JUMP JUMPDEST PUSH0 PUSH32 0x0 SWAP1 POP SWAP1 JUMP JUMPDEST PUSH0 DUP1 PUSH0 DUP1 PUSH1 0x60 DUP1 PUSH0 PUSH2 0x1B60 DUP9 PUSH0 ADD PUSH1 0x20 DUP2 ADD SWAP1 PUSH2 0x1B43 SWAP2 SWAP1 PUSH2 0x641F JUMP JUMPDEST DUP10 PUSH1 0x20 ADD PUSH1 0x20 DUP2 ADD SWAP1 PUSH2 0x1B56 SWAP2 SWAP1 PUSH2 0x641F JUMP JUMPDEST DUP11 PUSH1 0x40 ADD CALLDATALOAD PUSH2 0x4384 JUMP JUMPDEST SWAP1 POP DUP1 PUSH20 0xFFFFFFFFFFFFFFFFFFFFFFFFFFFFFFFFFFFFFFFF AND PUSH4 0x5E8746D PUSH1 0x40 MLOAD DUP2 PUSH4 0xFFFFFFFF AND PUSH1 0xE0 SHL DUP2 MSTORE PUSH1 0x4 ADD PUSH1 0x20 PUSH1 0x40 MLOAD DUP1 DUP4 SUB DUP2 DUP7 GAS STATICCALL ISZERO DUP1 ISZERO PUSH2 0x1BAB JUMPI RETURNDATASIZE PUSH0 DUP1 RETURNDATACOPY RETURNDATASIZE PUSH0 REVERT JUMPDEST POP POP POP POP PUSH1 0x40 MLOAD RETURNDATASIZE PUSH1 0x1F NOT PUSH1 0x1F DUP3 ADD AND DUP3 ADD DUP1 PUSH1 0x40 MSTORE POP DUP2 ADD SWAP1 PUSH2 0x1BCF SWAP2 SWAP1 PUSH2 0x63F4 JUMP JUMPDEST PUSH20 0xFFFFFFFFFFFFFFFFFFFFFFFFFFFFFFFFFFFFFFFF AND DUP9 PUSH0 ADD PUSH1 0x20 DUP2 ADD SWAP1 PUSH2 0x1BF7 SWAP2 SWAP1 PUSH2 0x641F JUMP JUMPDEST PUSH20 0xFFFFFFFFFFFFFFFFFFFFFFFFFFFFFFFFFFFFFFFF AND EQ PUSH2 0x1C44 JUMPI PUSH1 0x40 MLOAD PUSH32 0xB33F8AB900000000000000000000000000000000000000000000000000000000 DUP2 MSTORE PUSH1 0x4 ADD PUSH1 0x40 MLOAD DUP1 SWAP2 SUB SWAP1 REVERT JUMPDEST PUSH32 0x0 PUSH20 0xFFFFFFFFFFFFFFFFFFFFFFFFFFFFFFFFFFFFFFFF AND DUP9 PUSH0 ADD PUSH1 0x20 DUP2 ADD SWAP1 PUSH2 0x1C8D SWAP2 SWAP1 PUSH2 0x641F JUMP JUMPDEST PUSH20 0xFFFFFFFFFFFFFFFFFFFFFFFFFFFFFFFFFFFFFFFF AND EQ DUP1 ISZERO PUSH2 0x1CB3 JUMPI POP CALLVALUE DUP9 PUSH1 0x60 ADD CALLDATALOAD EQ JUMPDEST ISZERO PUSH2 0x1CE9 JUMPI PUSH2 0x1CDA DUP9 PUSH1 0x20 ADD PUSH1 0x20 DUP2 ADD SWAP1 PUSH2 0x1CCE SWAP2 SWAP1 PUSH2 0x641F JUMP JUMPDEST CALLER DUP4 DUP12 PUSH1 0x80 ADD CALLDATALOAD PUSH2 0x2FFF JUMP JUMPDEST PUSH2 0x1CE4 DUP2 CALLVALUE PUSH2 0x3970 JUMP JUMPDEST PUSH2 0x1DFF JUMP JUMPDEST PUSH32 0x0 PUSH20 0xFFFFFFFFFFFFFFFFFFFFFFFFFFFFFFFFFFFFFFFF AND DUP9 PUSH1 0x20 ADD PUSH1 0x20 DUP2 ADD SWAP1 PUSH2 0x1D33 SWAP2 SWAP1 PUSH2 0x641F JUMP JUMPDEST PUSH20 0xFFFFFFFFFFFFFFFFFFFFFFFFFFFFFFFFFFFFFFFF AND EQ DUP1 ISZERO PUSH2 0x1D59 JUMPI POP CALLVALUE DUP9 PUSH1 0x80 ADD CALLDATALOAD EQ JUMPDEST ISZERO PUSH2 0x1D8E JUMPI PUSH2 0x1D7F DUP9 PUSH0 ADD PUSH1 0x20 DUP2 ADD SWAP1 PUSH2 0x1D73 SWAP2 SWAP1 PUSH2 0x641F JUMP JUMPDEST CALLER DUP4 DUP12 PUSH1 0x60 ADD CALLDATALOAD PUSH2 0x2FFF JUMP JUMPDEST PUSH2 0x1D89 DUP2 CALLVALUE PUSH2 0x3970 JUMP JUMPDEST PUSH2 0x1DFE JUMP JUMPDEST DUP8 PUSH0 ADD PUSH1 0x20 DUP2 ADD SWAP1 PUSH2 0x1DA0 SWAP2 SWAP1 PUSH2 0x641F JUMP JUMPDEST DUP9 PUSH1 0x20 ADD PUSH1 0x20 DUP2 ADD SWAP1 PUSH2 0x1DB3 SWAP2 SWAP1 PUSH2 0x641F JUMP JUMPDEST DUP10 PUSH1 0x60 ADD CALLDATALOAD DUP11 PUSH1 0x80 ADD CALLDATALOAD CALLVALUE PUSH1 0x40 MLOAD PUSH32 0xD0A4F13B00000000000000000000000000000000000000000000000000000000 DUP2 MSTORE PUSH1 0x4 ADD PUSH2 0x1DF5 SWAP6 SWAP5 SWAP4 SWAP3 SWAP2 SWAP1 PUSH2 0x644A JUMP JUMPDEST PUSH1 0x40 MLOAD DUP1 SWAP2 SUB SWAP1 REVERT JUMPDEST JUMPDEST PUSH2 0x1E09 DUP9 DUP3 PUSH2 0x4664 JUMP JUMPDEST DUP1 SWAP8 POP DUP2 SWAP9 POP DUP3 SWAP10 POP DUP4 SWAP11 POP DUP5 SWAP12 POP DUP6 SWAP13 POP POP POP POP POP POP POP POP SWAP2 SWAP4 SWAP6 POP SWAP2 SWAP4 SWAP6 JUMP JUMPDEST PUSH1 0x60 DUP2 DUP1 TIMESTAMP GT ISZERO PUSH2 0x1E75 JUMPI DUP1 TIMESTAMP PUSH1 0x40 MLOAD PUSH32 0xDAE7CA7D00000000000000000000000000000000000000000000000000000000 DUP2 MSTORE PUSH1 0x4 ADD PUSH2 0x1E6C SWAP3 SWAP2 SWAP1 PUSH2 0x5BD4 JUMP JUMPDEST PUSH1 0x40 MLOAD DUP1 SWAP2 SUB SWAP1 REVERT JUMPDEST DUP5 PUSH0 DUP2 PUSH0 ADD MLOAD MLOAD EQ DUP1 PUSH2 0x1E91 JUMPI POP DUP1 PUSH0 ADD MLOAD MLOAD DUP2 PUSH1 0x20 ADD MLOAD MLOAD EQ ISZERO JUMPDEST DUP1 PUSH2 0x1EB1 JUMPI POP DUP1 PUSH1 0x40 ADD MLOAD MLOAD PUSH1 0x1 DUP3 PUSH0 ADD MLOAD MLOAD PUSH2 0x1EAE SWAP2 SWAP1 PUSH2 0x6191 JUMP JUMPDEST EQ ISZERO JUMPDEST ISZERO PUSH2 0x1EE8 JUMPI PUSH1 0x40 MLOAD PUSH32 0xB91B4D4D00000000000000000000000000000000000000000000000000000000 DUP2 MSTORE PUSH1 0x4 ADD PUSH1 0x40 MLOAD DUP1 SWAP2 SUB SWAP1 REVERT JUMPDEST PUSH0 PUSH2 0x1EFF DUP8 PUSH0 ADD MLOAD DUP9 PUSH1 0x20 ADD MLOAD DUP10 PUSH1 0x40 ADD MLOAD PUSH2 0x2EC2 JUMP JUMPDEST SWAP1 POP PUSH2 0x1F15 DUP8 PUSH1 0x20 ADD MLOAD DUP3 DUP10 PUSH1 0x40 ADD MLOAD DUP13 PUSH2 0x35C4 JUMP JUMPDEST SWAP4 POP DUP8 DUP5 PUSH0 DUP2 MLOAD DUP2 LT PUSH2 0x1F2B JUMPI PUSH2 0x1F2A PUSH2 0x61C4 JUMP JUMPDEST JUMPDEST PUSH1 0x20 MUL PUSH1 0x20 ADD ADD MLOAD GT ISZERO PUSH2 0x1F92 JUMPI DUP8 DUP5 PUSH0 DUP2 MLOAD DUP2 LT PUSH2 0x1F4D JUMPI PUSH2 0x1F4C PUSH2 0x61C4 JUMP JUMPDEST JUMPDEST PUSH1 0x20 MUL PUSH1 0x20 ADD ADD MLOAD PUSH1 0x40 MLOAD PUSH32 0xCA7710C800000000000000000000000000000000000000000000000000000000 DUP2 MSTORE PUSH1 0x4 ADD PUSH2 0x1F89 SWAP3 SWAP2 SWAP1 PUSH2 0x5BD4 JUMP JUMPDEST PUSH1 0x40 MLOAD DUP1 SWAP2 SUB SWAP1 REVERT JUMPDEST PUSH2 0x1FF0 DUP8 PUSH1 0x40 ADD MLOAD PUSH0 DUP2 MLOAD DUP2 LT PUSH2 0x1FAC JUMPI PUSH2 0x1FAB PUSH2 0x61C4 JUMP JUMPDEST JUMPDEST PUSH1 0x20 MUL PUSH1 0x20 ADD ADD MLOAD CALLER DUP4 PUSH0 DUP2 MLOAD DUP2 LT PUSH2 0x1FC8 JUMPI PUSH2 0x1FC7 PUSH2 0x61C4 JUMP JUMPDEST JUMPDEST PUSH1 0x20 MUL PUSH1 0x20 ADD ADD MLOAD DUP8 PUSH0 DUP2 MLOAD DUP2 LT PUSH2 0x1FE3 JUMPI PUSH2 0x1FE2 PUSH2 0x61C4 JUMP JUMPDEST JUMPDEST PUSH1 0x20 MUL PUSH1 0x20 ADD ADD MLOAD PUSH2 0x2FFF JUMP JUMPDEST PUSH0 PUSH2 0x2006 DUP3 DUP10 PUSH1 0x20 ADD MLOAD DUP11 PUSH1 0x40 ADD MLOAD DUP9 DUP12 PUSH2 0x3A45 JUMP JUMPDEST SWAP1 POP DUP10 DUP2 LT ISZERO PUSH2 0x204F JUMPI DUP10 DUP2 PUSH1 0x40 MLOAD PUSH32 0x4FEAC00C00000000000000000000000000000000000000000000000000000000 DUP2 MSTORE PUSH1 0x4 ADD PUSH2 0x2046 SWAP3 SWAP2 SWAP1 PUSH2 0x5BD4 JUMP JUMPDEST PUSH1 0x40 MLOAD DUP1 SWAP2 SUB SWAP1 REVERT JUMPDEST POP POP POP POP SWAP6 SWAP5 POP POP POP POP POP JUMP JUMPDEST PUSH0 DUP1 PUSH0 DUP6 PUSH20 0xFFFFFFFFFFFFFFFFFFFFFFFFFFFFFFFFFFFFFFFF AND PUSH4 0xABCD7830 DUP7 DUP7 PUSH1 0x40 MLOAD DUP4 PUSH4 0xFFFFFFFF AND PUSH1 0xE0 SHL DUP2 MSTORE PUSH1 0x4 ADD PUSH2 0x209A SWAP3 SWAP2 SWAP1 PUSH2 0x64AA JUMP JUMPDEST PUSH1 0x60 PUSH1 0x40 MLOAD DUP1 DUP4 SUB DUP2 DUP7 GAS STATICCALL ISZERO DUP1 ISZERO PUSH2 0x20B5 JUMPI RETURNDATASIZE PUSH0 DUP1 RETURNDATACOPY RETURNDATASIZE PUSH0 REVERT JUMPDEST POP POP POP POP PUSH1 0x40 MLOAD RETURNDATASIZE PUSH1 0x1F NOT PUSH1 0x1F DUP3 ADD AND DUP3 ADD DUP1 PUSH1 0x40 MSTORE POP DUP2 ADD SWAP1 PUSH2 0x20D9 SWAP2 SWAP1 PUSH2 0x64E5 JUMP JUMPDEST DUP1 SWAP4 POP DUP2 SWAP5 POP DUP3 SWAP6 POP POP POP POP SWAP4 POP SWAP4 POP SWAP4 SWAP1 POP JUMP JUMPDEST PUSH0 DUP2 DUP1 TIMESTAMP GT ISZERO PUSH2 0x2137 JUMPI DUP1 TIMESTAMP PUSH1 0x40 MLOAD PUSH32 0xDAE7CA7D00000000000000000000000000000000000000000000000000000000 DUP2 MSTORE PUSH1 0x4 ADD PUSH2 0x212E SWAP3 SWAP2 SWAP1 PUSH2 0x5BD4 JUMP JUMPDEST PUSH1 0x40 MLOAD DUP1 SWAP2 SUB SWAP1 REVERT JUMPDEST DUP5 PUSH0 DUP2 PUSH0 ADD MLOAD MLOAD EQ DUP1 PUSH2 0x2153 JUMPI POP DUP1 PUSH0 ADD MLOAD MLOAD DUP2 PUSH1 0x20 ADD MLOAD MLOAD EQ ISZERO JUMPDEST DUP1 PUSH2 0x2173 JUMPI POP DUP1 PUSH1 0x40 ADD MLOAD MLOAD PUSH1 0x1 DUP3 PUSH0 ADD MLOAD MLOAD PUSH2 0x2170 SWAP2 SWAP1 PUSH2 0x6191 JUMP JUMPDEST EQ ISZERO JUMPDEST ISZERO PUSH2 0x21AA JUMPI PUSH1 0x40 MLOAD PUSH32 0xB91B4D4D00000000000000000000000000000000000000000000000000000000 DUP2 MSTORE PUSH1 0x4 ADD PUSH1 0x40 MLOAD DUP1 SWAP2 SUB SWAP1 REVERT JUMPDEST PUSH32 0x0 PUSH20 0xFFFFFFFFFFFFFFFFFFFFFFFFFFFFFFFFFFFFFFFF AND DUP7 PUSH1 0x40 ADD MLOAD DUP8 PUSH0 ADD MLOAD MLOAD DUP2 MLOAD DUP2 LT PUSH2 0x21FC JUMPI PUSH2 0x21FB PUSH2 0x61C4 JUMP JUMPDEST JUMPDEST PUSH1 0x20 MUL PUSH1 0x20 ADD ADD MLOAD PUSH20 0xFFFFFFFFFFFFFFFFFFFFFFFFFFFFFFFFFFFFFFFF AND EQ PUSH2 0x227E JUMPI DUP6 PUSH1 0x40 ADD MLOAD DUP7 PUSH0 ADD MLOAD MLOAD DUP2 MLOAD DUP2 LT PUSH2 0x223A JUMPI PUSH2 0x2239 PUSH2 0x61C4 JUMP JUMPDEST JUMPDEST PUSH1 0x20 MUL PUSH1 0x20 ADD ADD MLOAD PUSH1 0x40 MLOAD PUSH32 0xCFEC0E0100000000000000000000000000000000000000000000000000000000 DUP2 MSTORE PUSH1 0x4 ADD PUSH2 0x2275 SWAP2 SWAP1 PUSH2 0x6200 JUMP JUMPDEST PUSH1 0x40 MLOAD DUP1 SWAP2 SUB SWAP1 REVERT JUMPDEST PUSH0 PUSH2 0x2295 DUP8 PUSH0 ADD MLOAD DUP9 PUSH1 0x20 ADD MLOAD DUP10 PUSH1 0x40 ADD MLOAD PUSH2 0x2EC2 JUMP JUMPDEST SWAP1 POP PUSH2 0x22DB DUP8 PUSH1 0x40 ADD MLOAD PUSH0 DUP2 MLOAD DUP2 LT PUSH2 0x22B1 JUMPI PUSH2 0x22B0 PUSH2 0x61C4 JUMP JUMPDEST JUMPDEST PUSH1 0x20 MUL PUSH1 0x20 ADD ADD MLOAD CALLER DUP4 PUSH0 DUP2 MLOAD DUP2 LT PUSH2 0x22CD JUMPI PUSH2 0x22CC PUSH2 0x61C4 JUMP JUMPDEST JUMPDEST PUSH1 0x20 MUL PUSH1 0x20 ADD ADD MLOAD DUP13 PUSH2 0x2FFF JUMP JUMPDEST PUSH2 0x22F0 DUP10 DUP3 DUP10 PUSH1 0x20 ADD MLOAD DUP11 PUSH1 0x40 ADD MLOAD ADDRESS PUSH2 0x3E95 JUMP JUMPDEST SWAP4 POP DUP4 DUP9 GT ISZERO PUSH2 0x2339 JUMPI DUP8 DUP5 PUSH1 0x40 MLOAD PUSH32 0x4FEAC00C00000000000000000000000000000000000000000000000000000000 DUP2 MSTORE PUSH1 0x4 ADD PUSH2 0x2330 SWAP3 SWAP2 SWAP1 PUSH2 0x5BD4 JUMP JUMPDEST PUSH1 0x40 MLOAD DUP1 SWAP2 SUB SWAP1 REVERT JUMPDEST PUSH2 0x2343 DUP7 DUP6 PUSH2 0x3527 JUMP JUMPDEST POP POP POP SWAP6 SWAP5 POP POP POP POP POP JUMP JUMPDEST PUSH0 DUP1 PUSH0 DUP6 PUSH20 0xFFFFFFFFFFFFFFFFFFFFFFFFFFFFFFFFFFFFFFFF AND PUSH4 0xE77366F8 DUP7 DUP7 PUSH1 0x40 MLOAD DUP4 PUSH4 0xFFFFFFFF AND PUSH1 0xE0 SHL DUP2 MSTORE PUSH1 0x4 ADD PUSH2 0x238D SWAP3 SWAP2 SWAP1 PUSH2 0x64AA JUMP JUMPDEST PUSH1 0x60 PUSH1 0x40 MLOAD DUP1 DUP4 SUB DUP2 DUP7 GAS STATICCALL ISZERO DUP1 ISZERO PUSH2 0x23A8 JUMPI RETURNDATASIZE PUSH0 DUP1 RETURNDATACOPY RETURNDATASIZE PUSH0 REVERT JUMPDEST POP POP POP POP PUSH1 0x40 MLOAD RETURNDATASIZE PUSH1 0x1F NOT PUSH1 0x1F DUP3 ADD AND DUP3 ADD DUP1 PUSH1 0x40 MSTORE POP DUP2 ADD SWAP1 PUSH2 0x23CC SWAP2 SWAP1 PUSH2 0x64E5 JUMP JUMPDEST DUP1 SWAP4 POP DUP2 SWAP5 POP DUP3 SWAP6 POP POP POP POP SWAP4 POP SWAP4 POP SWAP4 SWAP1 POP JUMP JUMPDEST PUSH0 DUP1 PUSH0 DUP1 PUSH1 0x60 DUP1 PUSH0 PUSH2 0x241B DUP9 PUSH0 ADD PUSH1 0x20 DUP2 ADD SWAP1 PUSH2 0x23FE SWAP2 SWAP1 PUSH2 0x641F JUMP JUMPDEST DUP10 PUSH1 0x20 ADD PUSH1 0x20 DUP2 ADD SWAP1 PUSH2 0x2411 SWAP2 SWAP1 PUSH2 0x641F JUMP JUMPDEST DUP11 PUSH1 0x40 ADD CALLDATALOAD PUSH2 0x4384 JUMP JUMPDEST SWAP1 POP DUP1 PUSH20 0xFFFFFFFFFFFFFFFFFFFFFFFFFFFFFFFFFFFFFFFF AND PUSH4 0x5E8746D PUSH1 0x40 MLOAD DUP2 PUSH4 0xFFFFFFFF AND PUSH1 0xE0 SHL DUP2 MSTORE PUSH1 0x4 ADD PUSH1 0x20 PUSH1 0x40 MLOAD DUP1 DUP4 SUB DUP2 DUP7 GAS STATICCALL ISZERO DUP1 ISZERO PUSH2 0x2466 JUMPI RETURNDATASIZE PUSH0 DUP1 RETURNDATACOPY RETURNDATASIZE PUSH0 REVERT JUMPDEST POP POP POP POP PUSH1 0x40 MLOAD RETURNDATASIZE PUSH1 0x1F NOT PUSH1 0x1F DUP3 ADD AND DUP3 ADD DUP1 PUSH1 0x40 MSTORE POP DUP2 ADD SWAP1 PUSH2 0x248A SWAP2 SWAP1 PUSH2 0x63F4 JUMP JUMPDEST PUSH20 0xFFFFFFFFFFFFFFFFFFFFFFFFFFFFFFFFFFFFFFFF AND DUP9 PUSH0 ADD PUSH1 0x20 DUP2 ADD SWAP1 PUSH2 0x24B2 SWAP2 SWAP1 PUSH2 0x641F JUMP JUMPDEST PUSH20 0xFFFFFFFFFFFFFFFFFFFFFFFFFFFFFFFFFFFFFFFF AND EQ PUSH2 0x24FF JUMPI PUSH1 0x40 MLOAD PUSH32 0xB33F8AB900000000000000000000000000000000000000000000000000000000 DUP2 MSTORE PUSH1 0x4 ADD PUSH1 0x40 MLOAD DUP1 SWAP2 SUB SWAP1 REVERT JUMPDEST PUSH2 0x2520 DUP9 PUSH0 ADD PUSH1 0x20 DUP2 ADD SWAP1 PUSH2 0x2514 SWAP2 SWAP1 PUSH2 0x641F JUMP JUMPDEST CALLER DUP4 DUP12 PUSH1 0x60 ADD CALLDATALOAD PUSH2 0x2FFF JUMP JUMPDEST PUSH2 0x2542 DUP9 PUSH1 0x20 ADD PUSH1 0x20 DUP2 ADD SWAP1 PUSH2 0x2536 SWAP2 SWAP1 PUSH2 0x641F JUMP JUMPDEST CALLER DUP4 DUP12 PUSH1 0x80 ADD CALLDATALOAD PUSH2 0x2FFF JUMP JUMPDEST PUSH2 0x254C DUP9 DUP3 PUSH2 0x4664 JUMP JUMPDEST DUP1 SWAP8 POP DUP2 SWAP9 POP DUP3 SWAP10 POP DUP4 SWAP11 POP DUP5 SWAP12 POP DUP6 SWAP13 POP POP POP POP POP POP POP POP SWAP2 SWAP4 SWAP6 POP SWAP2 SWAP4 SWAP6 JUMP JUMPDEST PUSH0 DUP2 DUP1 TIMESTAMP GT ISZERO PUSH2 0x25B7 JUMPI DUP1 TIMESTAMP PUSH1 0x40 MLOAD PUSH32 0xDAE7CA7D00000000000000000000000000000000000000000000000000000000 DUP2 MSTORE PUSH1 0x4 ADD PUSH2 0x25AE SWAP3 SWAP2 SWAP1 PUSH2 0x5BD4 JUMP JUMPDEST PUSH1 0x40 MLOAD DUP1 SWAP2 SUB SWAP1 REVERT JUMPDEST DUP5 PUSH0 DUP2 PUSH0 ADD MLOAD MLOAD EQ DUP1 PUSH2 0x25D3 JUMPI POP DUP1 PUSH0 ADD MLOAD MLOAD DUP2 PUSH1 0x20 ADD MLOAD MLOAD EQ ISZERO JUMPDEST DUP1 PUSH2 0x25F3 JUMPI POP DUP1 PUSH1 0x40 ADD MLOAD MLOAD PUSH1 0x1 DUP3 PUSH0 ADD MLOAD MLOAD PUSH2 0x25F0 SWAP2 SWAP1 PUSH2 0x6191 JUMP JUMPDEST EQ ISZERO JUMPDEST ISZERO PUSH2 0x262A JUMPI PUSH1 0x40 MLOAD PUSH32 0xB91B4D4D00000000000000000000000000000000000000000000000000000000 DUP2 MSTORE PUSH1 0x4 ADD PUSH1 0x40 MLOAD DUP1 SWAP2 SUB SWAP1 REVERT JUMPDEST PUSH32 0x0 PUSH20 0xFFFFFFFFFFFFFFFFFFFFFFFFFFFFFFFFFFFFFFFF AND DUP7 PUSH1 0x40 ADD MLOAD PUSH0 DUP2 MLOAD DUP2 LT PUSH2 0x2678 JUMPI PUSH2 0x2677 PUSH2 0x61C4 JUMP JUMPDEST JUMPDEST PUSH1 0x20 MUL PUSH1 0x20 ADD ADD MLOAD PUSH20 0xFFFFFFFFFFFFFFFFFFFFFFFFFFFFFFFFFFFFFFFF AND EQ PUSH2 0x26F6 JUMPI DUP6 PUSH1 0x40 ADD MLOAD PUSH0 DUP2 MLOAD DUP2 LT PUSH2 0x26B2 JUMPI PUSH2 0x26B1 PUSH2 0x61C4 JUMP JUMPDEST JUMPDEST PUSH1 0x20 MUL PUSH1 0x20 ADD ADD MLOAD PUSH1 0x40 MLOAD PUSH32 0xCFEC0E0100000000000000000000000000000000000000000000000000000000 DUP2 MSTORE PUSH1 0x4 ADD PUSH2 0x26ED SWAP2 SWAP1 PUSH2 0x6200 JUMP JUMPDEST PUSH1 0x40 MLOAD DUP1 SWAP2 SUB SWAP1 REVERT JUMPDEST PUSH0 PUSH2 0x270D DUP8 PUSH0 ADD MLOAD DUP9 PUSH1 0x20 ADD MLOAD DUP10 PUSH1 0x40 ADD MLOAD PUSH2 0x2EC2 JUMP JUMPDEST SWAP1 POP PUSH2 0x2733 DUP2 PUSH0 DUP2 MLOAD DUP2 LT PUSH2 0x2725 JUMPI PUSH2 0x2724 PUSH2 0x61C4 JUMP JUMPDEST JUMPDEST PUSH1 0x20 MUL PUSH1 0x20 ADD ADD MLOAD CALLVALUE PUSH2 0x3970 JUMP JUMPDEST PUSH2 0x2748 CALLVALUE DUP3 DUP10 PUSH1 0x20 ADD MLOAD DUP11 PUSH1 0x40 ADD MLOAD DUP11 PUSH2 0x3E95 JUMP JUMPDEST SWAP4 POP DUP4 DUP9 GT ISZERO PUSH2 0x2791 JUMPI DUP8 DUP5 PUSH1 0x40 MLOAD PUSH32 0x4FEAC00C00000000000000000000000000000000000000000000000000000000 DUP2 MSTORE PUSH1 0x4 ADD PUSH2 0x2788 SWAP3 SWAP2 SWAP1 PUSH2 0x5BD4 JUMP JUMPDEST PUSH1 0x40 MLOAD DUP1 SWAP2 SUB SWAP1 REVERT JUMPDEST POP POP POP SWAP5 SWAP4 POP POP POP POP JUMP JUMPDEST PUSH0 PUSH32 0x0 SWAP1 POP SWAP1 JUMP JUMPDEST PUSH0 DUP1 DUP3 DUP1 TIMESTAMP GT ISZERO PUSH2 0x280D JUMPI DUP1 TIMESTAMP PUSH1 0x40 MLOAD PUSH32 0xDAE7CA7D00000000000000000000000000000000000000000000000000000000 DUP2 MSTORE PUSH1 0x4 ADD PUSH2 0x2804 SWAP3 SWAP2 SWAP1 PUSH2 0x5BD4 JUMP JUMPDEST PUSH1 0x40 MLOAD DUP1 SWAP2 SUB SWAP1 REVERT JUMPDEST PUSH0 PUSH2 0x281D DUP14 DUP14 DUP14 PUSH2 0xFFFF AND PUSH2 0x4384 JUMP JUMPDEST SWAP1 POP PUSH0 DUP2 PUSH20 0xFFFFFFFFFFFFFFFFFFFFFFFFFFFFFFFFFFFFFFFF AND PUSH4 0x5E8746D PUSH1 0x40 MLOAD DUP2 PUSH4 0xFFFFFFFF AND PUSH1 0xE0 SHL DUP2 MSTORE PUSH1 0x4 ADD PUSH1 0x20 PUSH1 0x40 MLOAD DUP1 DUP4 SUB DUP2 DUP7 GAS STATICCALL ISZERO DUP1 ISZERO PUSH2 0x2869 JUMPI RETURNDATASIZE PUSH0 DUP1 RETURNDATACOPY RETURNDATASIZE PUSH0 REVERT JUMPDEST POP POP POP POP PUSH1 0x40 MLOAD RETURNDATASIZE PUSH1 0x1F NOT PUSH1 0x1F DUP3 ADD AND DUP3 ADD DUP1 PUSH1 0x40 MSTORE POP DUP2 ADD SWAP1 PUSH2 0x288D SWAP2 SWAP1 PUSH2 0x63F4 JUMP JUMPDEST PUSH20 0xFFFFFFFFFFFFFFFFFFFFFFFFFFFFFFFFFFFFFFFF AND DUP15 PUSH20 0xFFFFFFFFFFFFFFFFFFFFFFFFFFFFFFFFFFFFFFFF AND EQ ISZERO SWAP1 POP DUP1 ISZERO PUSH2 0x28CF JUMPI DUP10 DUP12 DUP1 SWAP12 POP DUP2 SWAP13 POP POP POP JUMPDEST PUSH2 0x28DD DUP3 DUP13 DUP13 DUP13 DUP13 DUP13 PUSH2 0x44A2 JUMP JUMPDEST DUP1 SWAP6 POP DUP2 SWAP7 POP POP POP DUP1 ISZERO PUSH2 0x28F6 JUMPI DUP4 DUP6 DUP1 SWAP6 POP DUP2 SWAP7 POP POP POP JUMPDEST POP POP POP SWAP10 POP SWAP10 SWAP8 POP POP POP POP POP POP POP POP JUMP JUMPDEST PUSH0 DUP3 PUSH20 0xFFFFFFFFFFFFFFFFFFFFFFFFFFFFFFFFFFFFFFFF AND PUSH4 0x4C7CFFBD DUP4 PUSH1 0x40 MLOAD DUP3 PUSH4 0xFFFFFFFF AND PUSH1 0xE0 SHL DUP2 MSTORE PUSH1 0x4 ADD PUSH2 0x2941 SWAP2 SWAP1 PUSH2 0x614B JUMP JUMPDEST PUSH1 0x20 PUSH1 0x40 MLOAD DUP1 DUP4 SUB DUP2 DUP7 GAS STATICCALL ISZERO DUP1 ISZERO PUSH2 0x295C JUMPI RETURNDATASIZE PUSH0 DUP1 RETURNDATACOPY RETURNDATASIZE PUSH0 REVERT JUMPDEST POP POP POP POP PUSH1 0x40 MLOAD RETURNDATASIZE PUSH1 0x1F NOT PUSH1 0x1F DUP3 ADD AND DUP3 ADD DUP1 PUSH1 0x40 MSTORE POP DUP2 ADD SWAP1 PUSH2 0x2980 SWAP2 SWAP1 PUSH2 0x622D JUMP JUMPDEST SWAP1 POP SWAP3 SWAP2 POP POP JUMP JUMPDEST PUSH0 DUP2 DUP1 TIMESTAMP GT ISZERO PUSH2 0x29D1 JUMPI DUP1 TIMESTAMP PUSH1 0x40 MLOAD PUSH32 0xDAE7CA7D00000000000000000000000000000000000000000000000000000000 DUP2 MSTORE PUSH1 0x4 ADD PUSH2 0x29C8 SWAP3 SWAP2 SWAP1 PUSH2 0x5BD4 JUMP JUMPDEST PUSH1 0x40 MLOAD DUP1 SWAP2 SUB SWAP1 REVERT JUMPDEST DUP5 PUSH0 DUP2 PUSH0 ADD MLOAD MLOAD EQ DUP1 PUSH2 0x29ED JUMPI POP DUP1 PUSH0 ADD MLOAD MLOAD DUP2 PUSH1 0x20 ADD MLOAD MLOAD EQ ISZERO JUMPDEST DUP1 PUSH2 0x2A0D JUMPI POP DUP1 PUSH1 0x40 ADD MLOAD MLOAD PUSH1 0x1 DUP3 PUSH0 ADD MLOAD MLOAD PUSH2 0x2A0A SWAP2 SWAP1 PUSH2 0x6191 JUMP JUMPDEST EQ ISZERO JUMPDEST ISZERO PUSH2 0x2A44 JUMPI PUSH1 0x40 MLOAD PUSH32 0xB91B4D4D00000000000000000000000000000000000000000000000000000000 DUP2 MSTORE PUSH1 0x4 ADD PUSH1 0x40 MLOAD DUP1 SWAP2 SUB SWAP1 REVERT JUMPDEST PUSH32 0x0 PUSH20 0xFFFFFFFFFFFFFFFFFFFFFFFFFFFFFFFFFFFFFFFF AND DUP7 PUSH1 0x40 ADD MLOAD PUSH0 DUP2 MLOAD DUP2 LT PUSH2 0x2A92 JUMPI PUSH2 0x2A91 PUSH2 0x61C4 JUMP JUMPDEST JUMPDEST PUSH1 0x20 MUL PUSH1 0x20 ADD ADD MLOAD PUSH20 0xFFFFFFFFFFFFFFFFFFFFFFFFFFFFFFFFFFFFFFFF AND EQ PUSH2 0x2B10 JUMPI DUP6 PUSH1 0x40 ADD MLOAD PUSH0 DUP2 MLOAD DUP2 LT PUSH2 0x2ACC JUMPI PUSH2 0x2ACB PUSH2 0x61C4 JUMP JUMPDEST JUMPDEST PUSH1 0x20 MUL PUSH1 0x20 ADD ADD MLOAD PUSH1 0x40 MLOAD PUSH32 0xCFEC0E0100000000000000000000000000000000000000000000000000000000 DUP2 MSTORE PUSH1 0x4 ADD PUSH2 0x2B07 SWAP2 SWAP1 PUSH2 0x6200 JUMP JUMPDEST PUSH1 0x40 MLOAD DUP1 SWAP2 SUB SWAP1 REVERT JUMPDEST PUSH0 PUSH2 0x2B27 DUP8 PUSH0 ADD MLOAD DUP9 PUSH1 0x20 ADD MLOAD DUP10 PUSH1 0x40 ADD MLOAD PUSH2 0x2EC2 JUMP JUMPDEST SWAP1 POP PUSH0 DUP8 PUSH1 0x40 ADD MLOAD DUP3 MLOAD DUP2 MLOAD DUP2 LT PUSH2 0x2B42 JUMPI PUSH2 0x2B41 PUSH2 0x61C4 JUMP JUMPDEST JUMPDEST PUSH1 0x20 MUL PUSH1 0x20 ADD ADD MLOAD SWAP1 POP PUSH0 DUP2 PUSH20 0xFFFFFFFFFFFFFFFFFFFFFFFFFFFFFFFFFFFFFFFF AND PUSH4 0x70A08231 DUP10 PUSH1 0x40 MLOAD DUP3 PUSH4 0xFFFFFFFF AND PUSH1 0xE0 SHL DUP2 MSTORE PUSH1 0x4 ADD PUSH2 0x2B86 SWAP2 SWAP1 PUSH2 0x6200 JUMP JUMPDEST PUSH1 0x20 PUSH1 0x40 MLOAD DUP1 DUP4 SUB DUP2 DUP7 GAS STATICCALL ISZERO DUP1 ISZERO PUSH2 0x2BA1 JUMPI RETURNDATASIZE PUSH0 DUP1 RETURNDATACOPY RETURNDATASIZE PUSH0 REVERT JUMPDEST POP POP POP POP PUSH1 0x40 MLOAD RETURNDATASIZE PUSH1 0x1F NOT PUSH1 0x1F DUP3 ADD AND DUP3 ADD DUP1 PUSH1 0x40 MSTORE POP DUP2 ADD SWAP1 PUSH2 0x2BC5 SWAP2 SWAP1 PUSH2 0x622D JUMP JUMPDEST SWAP1 POP PUSH2 0x2BEB DUP4 PUSH0 DUP2 MLOAD DUP2 LT PUSH2 0x2BDD JUMPI PUSH2 0x2BDC PUSH2 0x61C4 JUMP JUMPDEST JUMPDEST PUSH1 0x20 MUL PUSH1 0x20 ADD ADD MLOAD CALLVALUE PUSH2 0x3970 JUMP JUMPDEST PUSH2 0x2BFF DUP4 DUP11 PUSH1 0x20 ADD MLOAD DUP12 PUSH1 0x40 ADD MLOAD DUP12 PUSH2 0x303B JUMP JUMPDEST DUP1 DUP3 PUSH20 0xFFFFFFFFFFFFFFFFFFFFFFFFFFFFFFFFFFFFFFFF AND PUSH4 0x70A08231 DUP11 PUSH1 0x40 MLOAD DUP3 PUSH4 0xFFFFFFFF AND PUSH1 0xE0 SHL DUP2 MSTORE PUSH1 0x4 ADD PUSH2 0x2C39 SWAP2 SWAP1 PUSH2 0x6200 JUMP JUMPDEST PUSH1 0x20 PUSH1 0x40 MLOAD DUP1 DUP4 SUB DUP2 DUP7 GAS STATICCALL ISZERO DUP1 ISZERO PUSH2 0x2C54 JUMPI RETURNDATASIZE PUSH0 DUP1 RETURNDATACOPY RETURNDATASIZE PUSH0 REVERT JUMPDEST POP POP POP POP PUSH1 0x40 MLOAD RETURNDATASIZE PUSH1 0x1F NOT PUSH1 0x1F DUP3 ADD AND DUP3 ADD DUP1 PUSH1 0x40 MSTORE POP DUP2 ADD SWAP1 PUSH2 0x2C78 SWAP2 SWAP1 PUSH2 0x622D JUMP JUMPDEST PUSH2 0x2C82 SWAP2 SWAP1 PUSH2 0x6258 JUMP JUMPDEST SWAP6 POP DUP6 DUP11 GT ISZERO PUSH2 0x2CCB JUMPI DUP10 DUP7 PUSH1 0x40 MLOAD PUSH32 0x4FEAC00C00000000000000000000000000000000000000000000000000000000 DUP2 MSTORE PUSH1 0x4 ADD PUSH2 0x2CC2 SWAP3 SWAP2 SWAP1 PUSH2 0x5BD4 JUMP JUMPDEST PUSH1 0x40 MLOAD DUP1 SWAP2 SUB SWAP1 REVERT JUMPDEST POP POP POP POP POP SWAP5 SWAP4 POP POP POP POP JUMP JUMPDEST PUSH32 0x0 PUSH20 0xFFFFFFFFFFFFFFFFFFFFFFFFFFFFFFFFFFFFFFFF AND PUSH4 0x8DA5CB5B PUSH1 0x40 MLOAD DUP2 PUSH4 0xFFFFFFFF AND PUSH1 0xE0 SHL DUP2 MSTORE PUSH1 0x4 ADD PUSH1 0x20 PUSH1 0x40 MLOAD DUP1 DUP4 SUB DUP2 DUP7 GAS STATICCALL ISZERO DUP1 ISZERO PUSH2 0x2D41 JUMPI RETURNDATASIZE PUSH0 DUP1 RETURNDATACOPY RETURNDATASIZE PUSH0 REVERT JUMPDEST POP POP POP POP PUSH1 0x40 MLOAD RETURNDATASIZE PUSH1 0x1F NOT PUSH1 0x1F DUP3 ADD AND DUP3 ADD DUP1 PUSH1 0x40 MSTORE POP DUP2 ADD SWAP1 PUSH2 0x2D65 SWAP2 SWAP1 PUSH2 0x629F JUMP JUMPDEST PUSH20 0xFFFFFFFFFFFFFFFFFFFFFFFFFFFFFFFFFFFFFFFF AND CALLER PUSH20 0xFFFFFFFFFFFFFFFFFFFFFFFFFFFFFFFFFFFFFFFF AND EQ PUSH2 0x2DC9 JUMPI PUSH1 0x40 MLOAD PUSH32 0xBB2A2B7200000000000000000000000000000000000000000000000000000000 DUP2 MSTORE PUSH1 0x4 ADD PUSH1 0x40 MLOAD DUP1 SWAP2 SUB SWAP1 REVERT JUMPDEST DUP6 PUSH20 0xFFFFFFFFFFFFFFFFFFFFFFFFFFFFFFFFFFFFFFFF AND PUSH4 0x17FAD7FC ADDRESS DUP8 DUP8 DUP8 DUP8 DUP8 PUSH1 0x40 MLOAD DUP8 PUSH4 0xFFFFFFFF AND PUSH1 0xE0 SHL DUP2 MSTORE PUSH1 0x4 ADD PUSH2 0x2E0C SWAP7 SWAP6 SWAP5 SWAP4 SWAP3 SWAP2 SWAP1 PUSH2 0x659D JUMP JUMPDEST PUSH0 PUSH1 0x40 MLOAD DUP1 DUP4 SUB DUP2 PUSH0 DUP8 DUP1 EXTCODESIZE ISZERO DUP1 ISZERO PUSH2 0x2E23 JUMPI PUSH0 DUP1 REVERT JUMPDEST POP GAS CALL ISZERO DUP1 ISZERO PUSH2 0x2E35 JUMPI RETURNDATASIZE PUSH0 DUP1 RETURNDATACOPY RETURNDATASIZE PUSH0 REVERT JUMPDEST POP POP POP POP POP POP POP POP POP POP JUMP JUMPDEST PUSH0 DUP3 PUSH20 0xFFFFFFFFFFFFFFFFFFFFFFFFFFFFFFFFFFFFFFFF AND PUSH4 0xF5E29329 DUP4 PUSH1 0x40 MLOAD DUP3 PUSH4 0xFFFFFFFF AND PUSH1 0xE0 SHL DUP2 MSTORE PUSH1 0x4 ADD PUSH2 0x2E7B SWAP2 SWAP1 PUSH2 0x56EE JUMP JUMPDEST PUSH1 0x20 PUSH1 0x40 MLOAD DUP1 DUP4 SUB DUP2 DUP7 GAS STATICCALL ISZERO DUP1 ISZERO PUSH2 0x2E96 JUMPI RETURNDATASIZE PUSH0 DUP1 RETURNDATACOPY RETURNDATASIZE PUSH0 REVERT JUMPDEST POP POP POP POP PUSH1 0x40 MLOAD RETURNDATASIZE PUSH1 0x1F NOT PUSH1 0x1F DUP3 ADD AND DUP3 ADD DUP1 PUSH1 0x40 MSTORE POP DUP2 ADD SWAP1 PUSH2 0x2EBA SWAP2 SWAP1 PUSH2 0x6606 JUMP JUMPDEST SWAP1 POP SWAP3 SWAP2 POP POP JUMP JUMPDEST PUSH1 0x60 DUP4 MLOAD PUSH8 0xFFFFFFFFFFFFFFFF DUP2 GT ISZERO PUSH2 0x2EDF JUMPI PUSH2 0x2EDE PUSH2 0x520A JUMP JUMPDEST JUMPDEST PUSH1 0x40 MLOAD SWAP1 DUP1 DUP3 MSTORE DUP1 PUSH1 0x20 MUL PUSH1 0x20 ADD DUP3 ADD PUSH1 0x40 MSTORE DUP1 ISZERO PUSH2 0x2F0D JUMPI DUP2 PUSH1 0x20 ADD PUSH1 0x20 DUP3 MUL DUP1 CALLDATASIZE DUP4 CALLDATACOPY DUP1 DUP3 ADD SWAP2 POP POP SWAP1 POP JUMPDEST POP SWAP1 POP PUSH0 DUP1 DUP4 PUSH0 DUP2 MLOAD DUP2 LT PUSH2 0x2F25 JUMPI PUSH2 0x2F24 PUSH2 0x61C4 JUMP JUMPDEST JUMPDEST PUSH1 0x20 MUL PUSH1 0x20 ADD ADD MLOAD SWAP1 POP PUSH0 JUMPDEST DUP4 MLOAD DUP2 LT ISZERO PUSH2 0x2FF5 JUMPI DUP2 SWAP3 POP DUP5 PUSH1 0x1 DUP3 ADD DUP2 MLOAD DUP2 LT PUSH2 0x2F53 JUMPI PUSH2 0x2F52 PUSH2 0x61C4 JUMP JUMPDEST JUMPDEST PUSH1 0x20 MUL PUSH1 0x20 ADD ADD MLOAD SWAP2 POP PUSH2 0x2F9D DUP4 DUP4 DUP10 DUP5 DUP2 MLOAD DUP2 LT PUSH2 0x2F75 JUMPI PUSH2 0x2F74 PUSH2 0x61C4 JUMP JUMPDEST JUMPDEST PUSH1 0x20 MUL PUSH1 0x20 ADD ADD MLOAD DUP10 DUP6 DUP2 MLOAD DUP2 LT PUSH2 0x2F90 JUMPI PUSH2 0x2F8F PUSH2 0x61C4 JUMP JUMPDEST JUMPDEST PUSH1 0x20 MUL PUSH1 0x20 ADD ADD MLOAD PUSH2 0x4C3C JUMP JUMPDEST DUP5 DUP3 DUP2 MLOAD DUP2 LT PUSH2 0x2FB0 JUMPI PUSH2 0x2FAF PUSH2 0x61C4 JUMP JUMPDEST JUMPDEST PUSH1 0x20 MUL PUSH1 0x20 ADD ADD SWAP1 PUSH20 0xFFFFFFFFFFFFFFFFFFFFFFFFFFFFFFFFFFFFFFFF AND SWAP1 DUP2 PUSH20 0xFFFFFFFFFFFFFFFFFFFFFFFFFFFFFFFFFFFFFFFF AND DUP2 MSTORE POP POP DUP1 PUSH1 0x1 ADD SWAP1 POP PUSH2 0x2F31 JUMP JUMPDEST POP POP POP SWAP4 SWAP3 POP POP POP JUMP JUMPDEST PUSH0 DUP2 SUB ISZERO PUSH2 0x3035 JUMPI PUSH2 0x3034 DUP4 DUP4 DUP4 DUP8 PUSH20 0xFFFFFFFFFFFFFFFFFFFFFFFFFFFFFFFFFFFFFFFF AND PUSH2 0x4D93 SWAP1 SWAP4 SWAP3 SWAP2 SWAP1 PUSH4 0xFFFFFFFF AND JUMP JUMPDEST JUMPDEST POP POP POP POP JUMP JUMPDEST PUSH0 DUP1 PUSH0 DUP1 PUSH0 DUP7 PUSH0 DUP2 MLOAD DUP2 LT PUSH2 0x3053 JUMPI PUSH2 0x3052 PUSH2 0x61C4 JUMP JUMPDEST JUMPDEST PUSH1 0x20 MUL PUSH1 0x20 ADD ADD MLOAD SWAP1 POP PUSH0 JUMPDEST DUP10 MLOAD DUP2 LT ISZERO PUSH2 0x351B JUMPI DUP10 DUP2 DUP2 MLOAD DUP2 LT PUSH2 0x307B JUMPI PUSH2 0x307A PUSH2 0x61C4 JUMP JUMPDEST JUMPDEST PUSH1 0x20 MUL PUSH1 0x20 ADD ADD MLOAD SWAP3 POP DUP9 DUP2 DUP2 MLOAD DUP2 LT PUSH2 0x3098 JUMPI PUSH2 0x3097 PUSH2 0x61C4 JUMP JUMPDEST JUMPDEST PUSH1 0x20 MUL PUSH1 0x20 ADD ADD MLOAD SWAP5 POP DUP2 SWAP6 POP DUP8 PUSH1 0x1 DUP3 ADD DUP2 MLOAD DUP2 LT PUSH2 0x30BB JUMPI PUSH2 0x30BA PUSH2 0x61C4 JUMP JUMPDEST JUMPDEST PUSH1 0x20 MUL PUSH1 0x20 ADD ADD MLOAD SWAP2 POP DUP10 MLOAD PUSH1 0x1 DUP3 ADD EQ PUSH2 0x30F3 JUMPI DUP10 PUSH1 0x1 DUP3 ADD DUP2 MLOAD DUP2 LT PUSH2 0x30E6 JUMPI PUSH2 0x30E5 PUSH2 0x61C4 JUMP JUMPDEST JUMPDEST PUSH1 0x20 MUL PUSH1 0x20 ADD ADD MLOAD PUSH2 0x30F5 JUMP JUMPDEST DUP7 JUMPDEST SWAP4 POP PUSH0 PUSH1 0x1 DUP2 GT ISZERO PUSH2 0x310A JUMPI PUSH2 0x3109 PUSH2 0x6631 JUMP JUMPDEST JUMPDEST DUP6 PUSH1 0x1 DUP2 GT ISZERO PUSH2 0x311D JUMPI PUSH2 0x311C PUSH2 0x6631 JUMP JUMPDEST JUMPDEST SUB PUSH2 0x33F9 JUMPI PUSH0 DUP1 DUP5 PUSH20 0xFFFFFFFFFFFFFFFFFFFFFFFFFFFFFFFFFFFFFFFF AND PUSH4 0x902F1AC PUSH1 0x40 MLOAD DUP2 PUSH4 0xFFFFFFFF AND PUSH1 0xE0 SHL DUP2 MSTORE PUSH1 0x4 ADD PUSH1 0x60 PUSH1 0x40 MLOAD DUP1 DUP4 SUB DUP2 DUP7 GAS STATICCALL ISZERO DUP1 ISZERO PUSH2 0x316D JUMPI RETURNDATASIZE PUSH0 DUP1 RETURNDATACOPY RETURNDATASIZE PUSH0 REVERT JUMPDEST POP POP POP POP PUSH1 0x40 MLOAD RETURNDATASIZE PUSH1 0x1F NOT PUSH1 0x1F DUP3 ADD AND DUP3 ADD DUP1 PUSH1 0x40 MSTORE POP DUP2 ADD SWAP1 PUSH2 0x3191 SWAP2 SWAP1 PUSH2 0x66DA JUMP JUMPDEST POP PUSH14 0xFFFFFFFFFFFFFFFFFFFFFFFFFFFF AND SWAP2 POP PUSH14 0xFFFFFFFFFFFFFFFFFFFFFFFFFFFF AND SWAP2 POP DUP4 PUSH20 0xFFFFFFFFFFFFFFFFFFFFFFFFFFFFFFFFFFFFFFFF AND DUP9 PUSH20 0xFFFFFFFFFFFFFFFFFFFFFFFFFFFFFFFFFFFFFFFF AND LT ISZERO PUSH2 0x32F0 JUMPI PUSH0 DUP3 DUP10 PUSH20 0xFFFFFFFFFFFFFFFFFFFFFFFFFFFFFFFFFFFFFFFF AND PUSH4 0x70A08231 DUP9 PUSH1 0x40 MLOAD DUP3 PUSH4 0xFFFFFFFF AND PUSH1 0xE0 SHL DUP2 MSTORE PUSH1 0x4 ADD PUSH2 0x3225 SWAP2 SWAP1 PUSH2 0x6200 JUMP JUMPDEST PUSH1 0x20 PUSH1 0x40 MLOAD DUP1 DUP4 SUB DUP2 DUP7 GAS STATICCALL ISZERO DUP1 ISZERO PUSH2 0x3240 JUMPI RETURNDATASIZE PUSH0 DUP1 RETURNDATACOPY RETURNDATASIZE PUSH0 REVERT JUMPDEST POP POP POP POP PUSH1 0x40 MLOAD RETURNDATASIZE PUSH1 0x1F NOT PUSH1 0x1F DUP3 ADD AND DUP3 ADD DUP1 PUSH1 0x40 MSTORE POP DUP2 ADD SWAP1 PUSH2 0x3264 SWAP2 SWAP1 PUSH2 0x622D JUMP JUMPDEST SUB SWAP1 POP PUSH0 PUSH2 0x327D DUP5 DUP5 DUP5 PUSH2 0x4E21 SWAP1 SWAP3 SWAP2 SWAP1 PUSH4 0xFFFFFFFF AND JUMP JUMPDEST SWAP1 POP DUP7 PUSH20 0xFFFFFFFFFFFFFFFFFFFFFFFFFFFFFFFFFFFFFFFF AND PUSH4 0x22C0D9F PUSH0 DUP4 DUP12 PUSH1 0x40 MLOAD DUP5 PUSH4 0xFFFFFFFF AND PUSH1 0xE0 SHL DUP2 MSTORE PUSH1 0x4 ADD PUSH2 0x32BC SWAP4 SWAP3 SWAP2 SWAP1 PUSH2 0x6796 JUMP JUMPDEST PUSH0 PUSH1 0x40 MLOAD DUP1 DUP4 SUB DUP2 PUSH0 DUP8 DUP1 EXTCODESIZE ISZERO DUP1 ISZERO PUSH2 0x32D3 JUMPI PUSH0 DUP1 REVERT JUMPDEST POP GAS CALL ISZERO DUP1 ISZERO PUSH2 0x32E5 JUMPI RETURNDATASIZE PUSH0 DUP1 RETURNDATACOPY RETURNDATASIZE PUSH0 REVERT JUMPDEST POP POP POP POP POP POP PUSH2 0x33F2 JUMP JUMPDEST PUSH0 DUP2 DUP10 PUSH20 0xFFFFFFFFFFFFFFFFFFFFFFFFFFFFFFFFFFFFFFFF AND PUSH4 0x70A08231 DUP9 PUSH1 0x40 MLOAD DUP3 PUSH4 0xFFFFFFFF AND PUSH1 0xE0 SHL DUP2 MSTORE PUSH1 0x4 ADD PUSH2 0x332B SWAP2 SWAP1 PUSH2 0x6200 JUMP JUMPDEST PUSH1 0x20 PUSH1 0x40 MLOAD DUP1 DUP4 SUB DUP2 DUP7 GAS STATICCALL ISZERO DUP1 ISZERO PUSH2 0x3346 JUMPI RETURNDATASIZE PUSH0 DUP1 RETURNDATACOPY RETURNDATASIZE PUSH0 REVERT JUMPDEST POP POP POP POP PUSH1 0x40 MLOAD RETURNDATASIZE PUSH1 0x1F NOT PUSH1 0x1F DUP3 ADD AND DUP3 ADD DUP1 PUSH1 0x40 MSTORE POP DUP2 ADD SWAP1 PUSH2 0x336A SWAP2 SWAP1 PUSH2 0x622D JUMP JUMPDEST SUB SWAP1 POP PUSH0 PUSH2 0x3383 DUP4 DUP6 DUP5 PUSH2 0x4E21 SWAP1 SWAP3 SWAP2 SWAP1 PUSH4 0xFFFFFFFF AND JUMP JUMPDEST SWAP1 POP DUP7 PUSH20 0xFFFFFFFFFFFFFFFFFFFFFFFFFFFFFFFFFFFFFFFF AND PUSH4 0x22C0D9F DUP3 PUSH0 DUP12 PUSH1 0x40 MLOAD DUP5 PUSH4 0xFFFFFFFF AND PUSH1 0xE0 SHL DUP2 MSTORE PUSH1 0x4 ADD PUSH2 0x33C2 SWAP4 SWAP3 SWAP2 SWAP1 PUSH2 0x67DE JUMP JUMPDEST PUSH0 PUSH1 0x40 MLOAD DUP1 DUP4 SUB DUP2 PUSH0 DUP8 DUP1 EXTCODESIZE ISZERO DUP1 ISZERO PUSH2 0x33D9 JUMPI PUSH0 DUP1 REVERT JUMPDEST POP GAS CALL ISZERO DUP1 ISZERO PUSH2 0x33EB JUMPI RETURNDATASIZE PUSH0 DUP1 RETURNDATACOPY RETURNDATASIZE PUSH0 REVERT JUMPDEST POP POP POP POP POP POP JUMPDEST POP POP PUSH2 0x3510 JUMP JUMPDEST DUP3 PUSH20 0xFFFFFFFFFFFFFFFFFFFFFFFFFFFFFFFFFFFFFFFF AND PUSH4 0x53C059A0 DUP5 PUSH20 0xFFFFFFFFFFFFFFFFFFFFFFFFFFFFFFFFFFFFFFFF AND PUSH4 0xDA10610C PUSH1 0x40 MLOAD DUP2 PUSH4 0xFFFFFFFF AND PUSH1 0xE0 SHL DUP2 MSTORE PUSH1 0x4 ADD PUSH1 0x20 PUSH1 0x40 MLOAD DUP1 DUP4 SUB DUP2 DUP7 GAS STATICCALL ISZERO DUP1 ISZERO PUSH2 0x345E JUMPI RETURNDATASIZE PUSH0 DUP1 RETURNDATACOPY RETURNDATASIZE PUSH0 REVERT JUMPDEST POP POP POP POP PUSH1 0x40 MLOAD RETURNDATASIZE PUSH1 0x1F NOT PUSH1 0x1F DUP3 ADD AND DUP3 ADD DUP1 PUSH1 0x40 MSTORE POP DUP2 ADD SWAP1 PUSH2 0x3482 SWAP2 SWAP1 PUSH2 0x63F4 JUMP JUMPDEST PUSH20 0xFFFFFFFFFFFFFFFFFFFFFFFFFFFFFFFFFFFFFFFF AND DUP5 PUSH20 0xFFFFFFFFFFFFFFFFFFFFFFFFFFFFFFFFFFFFFFFF AND EQ DUP7 PUSH1 0x40 MLOAD DUP4 PUSH4 0xFFFFFFFF AND PUSH1 0xE0 SHL DUP2 MSTORE PUSH1 0x4 ADD PUSH2 0x34CE SWAP3 SWAP2 SWAP1 PUSH2 0x6826 JUMP JUMPDEST PUSH1 0x20 PUSH1 0x40 MLOAD DUP1 DUP4 SUB DUP2 PUSH0 DUP8 GAS CALL ISZERO DUP1 ISZERO PUSH2 0x34EA JUMPI RETURNDATASIZE PUSH0 DUP1 RETURNDATACOPY RETURNDATASIZE PUSH0 REVERT JUMPDEST POP POP POP POP PUSH1 0x40 MLOAD RETURNDATASIZE PUSH1 0x1F NOT PUSH1 0x1F DUP3 ADD AND DUP3 ADD DUP1 PUSH1 0x40 MSTORE POP DUP2 ADD SWAP1 PUSH2 0x350E SWAP2 SWAP1 PUSH2 0x6880 JUMP JUMPDEST POP JUMPDEST DUP1 PUSH1 0x1 ADD SWAP1 POP PUSH2 0x305F JUMP JUMPDEST POP POP POP POP POP POP POP POP POP POP JUMP JUMPDEST PUSH0 DUP2 SUB ISZERO PUSH2 0x35C0 JUMPI PUSH32 0x0 PUSH20 0xFFFFFFFFFFFFFFFFFFFFFFFFFFFFFFFFFFFFFFFF AND PUSH4 0x2E1A7D4D DUP3 PUSH1 0x40 MLOAD DUP3 PUSH4 0xFFFFFFFF AND PUSH1 0xE0 SHL DUP2 MSTORE PUSH1 0x4 ADD PUSH2 0x3588 SWAP2 SWAP1 PUSH2 0x56EE JUMP JUMPDEST PUSH0 PUSH1 0x40 MLOAD DUP1 DUP4 SUB DUP2 PUSH0 DUP8 DUP1 EXTCODESIZE ISZERO DUP1 ISZERO PUSH2 0x359F JUMPI PUSH0 DUP1 REVERT JUMPDEST POP GAS CALL ISZERO DUP1 ISZERO PUSH2 0x35B1 JUMPI RETURNDATASIZE PUSH0 DUP1 RETURNDATACOPY RETURNDATASIZE PUSH0 REVERT JUMPDEST POP POP POP POP PUSH2 0x35BF DUP3 DUP3 PUSH2 0x3DDB JUMP JUMPDEST JUMPDEST POP POP JUMP JUMPDEST PUSH1 0x60 DUP3 MLOAD PUSH8 0xFFFFFFFFFFFFFFFF DUP2 GT ISZERO PUSH2 0x35E1 JUMPI PUSH2 0x35E0 PUSH2 0x520A JUMP JUMPDEST JUMPDEST PUSH1 0x40 MLOAD SWAP1 DUP1 DUP3 MSTORE DUP1 PUSH1 0x20 MUL PUSH1 0x20 ADD DUP3 ADD PUSH1 0x40 MSTORE DUP1 ISZERO PUSH2 0x360F JUMPI DUP2 PUSH1 0x20 ADD PUSH1 0x20 DUP3 MUL DUP1 CALLDATASIZE DUP4 CALLDATACOPY DUP1 DUP3 ADD SWAP2 POP POP SWAP1 POP JUMPDEST POP SWAP1 POP DUP2 DUP2 DUP6 MLOAD DUP2 MLOAD DUP2 LT PUSH2 0x3627 JUMPI PUSH2 0x3626 PUSH2 0x61C4 JUMP JUMPDEST JUMPDEST PUSH1 0x20 MUL PUSH1 0x20 ADD ADD DUP2 DUP2 MSTORE POP POP PUSH0 DUP5 MLOAD SWAP1 POP JUMPDEST PUSH0 DUP2 EQ PUSH2 0x3967 JUMPI PUSH0 DUP5 PUSH1 0x1 DUP4 PUSH2 0x364F SWAP2 SWAP1 PUSH2 0x6258 JUMP JUMPDEST DUP2 MLOAD DUP2 LT PUSH2 0x3660 JUMPI PUSH2 0x365F PUSH2 0x61C4 JUMP JUMPDEST JUMPDEST PUSH1 0x20 MUL PUSH1 0x20 ADD ADD MLOAD SWAP1 POP PUSH0 DUP8 PUSH1 0x1 DUP5 PUSH2 0x3679 SWAP2 SWAP1 PUSH2 0x6258 JUMP JUMPDEST DUP2 MLOAD DUP2 LT PUSH2 0x368A JUMPI PUSH2 0x3689 PUSH2 0x61C4 JUMP JUMPDEST JUMPDEST PUSH1 0x20 MUL PUSH1 0x20 ADD ADD MLOAD SWAP1 POP PUSH0 DUP8 PUSH1 0x1 DUP6 PUSH2 0x36A3 SWAP2 SWAP1 PUSH2 0x6258 JUMP JUMPDEST DUP2 MLOAD DUP2 LT PUSH2 0x36B4 JUMPI PUSH2 0x36B3 PUSH2 0x61C4 JUMP JUMPDEST JUMPDEST PUSH1 0x20 MUL PUSH1 0x20 ADD ADD MLOAD SWAP1 POP PUSH0 PUSH1 0x1 DUP2 GT ISZERO PUSH2 0x36D1 JUMPI PUSH2 0x36D0 PUSH2 0x6631 JUMP JUMPDEST JUMPDEST DUP3 PUSH1 0x1 DUP2 GT ISZERO PUSH2 0x36E4 JUMPI PUSH2 0x36E3 PUSH2 0x6631 JUMP JUMPDEST JUMPDEST SUB PUSH2 0x384E JUMPI PUSH0 DUP1 DUP3 PUSH20 0xFFFFFFFFFFFFFFFFFFFFFFFFFFFFFFFFFFFFFFFF AND PUSH4 0x902F1AC PUSH1 0x40 MLOAD DUP2 PUSH4 0xFFFFFFFF AND PUSH1 0xE0 SHL DUP2 MSTORE PUSH1 0x4 ADD PUSH1 0x60 PUSH1 0x40 MLOAD DUP1 DUP4 SUB DUP2 DUP7 GAS STATICCALL ISZERO DUP1 ISZERO PUSH2 0x3734 JUMPI RETURNDATASIZE PUSH0 DUP1 RETURNDATACOPY RETURNDATASIZE PUSH0 REVERT JUMPDEST POP POP POP POP PUSH1 0x40 MLOAD RETURNDATASIZE PUSH1 0x1F NOT PUSH1 0x1F DUP3 ADD AND DUP3 ADD DUP1 PUSH1 0x40 MSTORE POP DUP2 ADD SWAP1 PUSH2 0x3758 SWAP2 SWAP1 PUSH2 0x66DA JUMP JUMPDEST POP PUSH14 0xFFFFFFFFFFFFFFFFFFFFFFFFFFFF AND SWAP2 POP PUSH14 0xFFFFFFFFFFFFFFFFFFFFFFFFFFFF AND SWAP2 POP DUP9 DUP7 DUP2 MLOAD DUP2 LT PUSH2 0x3790 JUMPI PUSH2 0x378F PUSH2 0x61C4 JUMP JUMPDEST JUMPDEST PUSH1 0x20 MUL PUSH1 0x20 ADD ADD MLOAD PUSH20 0xFFFFFFFFFFFFFFFFFFFFFFFFFFFFFFFFFFFFFFFF AND DUP6 PUSH20 0xFFFFFFFFFFFFFFFFFFFFFFFFFFFFFFFFFFFFFFFF AND GT ISZERO PUSH2 0x37D6 JUMPI DUP1 DUP3 DUP1 SWAP3 POP DUP2 SWAP4 POP POP POP JUMPDEST PUSH0 DUP8 DUP8 DUP2 MLOAD DUP2 LT PUSH2 0x37EA JUMPI PUSH2 0x37E9 PUSH2 0x61C4 JUMP JUMPDEST JUMPDEST PUSH1 0x20 MUL PUSH1 0x20 ADD ADD MLOAD SWAP1 POP PUSH2 0x3809 DUP4 DUP4 DUP4 PUSH2 0x4EF3 SWAP1 SWAP3 SWAP2 SWAP1 PUSH4 0xFFFFFFFF AND JUMP JUMPDEST PUSH16 0xFFFFFFFFFFFFFFFFFFFFFFFFFFFFFFFF AND DUP9 PUSH1 0x1 DUP10 PUSH2 0x3829 SWAP2 SWAP1 PUSH2 0x6258 JUMP JUMPDEST DUP2 MLOAD DUP2 LT PUSH2 0x383A JUMPI PUSH2 0x3839 PUSH2 0x61C4 JUMP JUMPDEST JUMPDEST PUSH1 0x20 MUL PUSH1 0x20 ADD ADD DUP2 DUP2 MSTORE POP POP POP POP POP PUSH2 0x3951 JUMP JUMPDEST PUSH2 0x390D DUP2 DUP7 DUP7 DUP2 MLOAD DUP2 LT PUSH2 0x3865 JUMPI PUSH2 0x3864 PUSH2 0x61C4 JUMP JUMPDEST JUMPDEST PUSH1 0x20 MUL PUSH1 0x20 ADD ADD MLOAD DUP6 PUSH20 0xFFFFFFFFFFFFFFFFFFFFFFFFFFFFFFFFFFFFFFFF AND DUP5 PUSH20 0xFFFFFFFFFFFFFFFFFFFFFFFFFFFFFFFFFFFFFFFF AND PUSH4 0x5E8746D PUSH1 0x40 MLOAD DUP2 PUSH4 0xFFFFFFFF AND PUSH1 0xE0 SHL DUP2 MSTORE PUSH1 0x4 ADD PUSH1 0x20 PUSH1 0x40 MLOAD DUP1 DUP4 SUB DUP2 DUP7 GAS STATICCALL ISZERO DUP1 ISZERO PUSH2 0x38CD JUMPI RETURNDATASIZE PUSH0 DUP1 RETURNDATACOPY RETURNDATASIZE PUSH0 REVERT JUMPDEST POP POP POP POP PUSH1 0x40 MLOAD RETURNDATASIZE PUSH1 0x1F NOT PUSH1 0x1F DUP3 ADD AND DUP3 ADD DUP1 PUSH1 0x40 MSTORE POP DUP2 ADD SWAP1 PUSH2 0x38F1 SWAP2 SWAP1 PUSH2 0x63F4 JUMP JUMPDEST PUSH20 0xFFFFFFFFFFFFFFFFFFFFFFFFFFFFFFFFFFFFFFFF AND EQ PUSH2 0x205C JUMP JUMPDEST DUP3 PUSH16 0xFFFFFFFFFFFFFFFFFFFFFFFFFFFFFFFF AND SWAP3 POP SWAP1 POP POP DUP6 PUSH1 0x1 DUP7 PUSH2 0x3933 SWAP2 SWAP1 PUSH2 0x6258 JUMP JUMPDEST DUP2 MLOAD DUP2 LT PUSH2 0x3944 JUMPI PUSH2 0x3943 PUSH2 0x61C4 JUMP JUMPDEST JUMPDEST PUSH1 0x20 MUL PUSH1 0x20 ADD ADD DUP2 DUP2 MSTORE POP POP JUMPDEST POP POP POP DUP1 DUP1 PUSH2 0x395F SWAP1 PUSH2 0x68AB JUMP JUMPDEST SWAP2 POP POP PUSH2 0x3639 JUMP JUMPDEST POP SWAP5 SWAP4 POP POP POP POP JUMP JUMPDEST PUSH0 DUP2 SUB ISZERO PUSH2 0x3A41 JUMPI PUSH32 0x0 PUSH20 0xFFFFFFFFFFFFFFFFFFFFFFFFFFFFFFFFFFFFFFFF AND PUSH4 0xD0E30DB0 DUP3 PUSH1 0x40 MLOAD DUP3 PUSH4 0xFFFFFFFF AND PUSH1 0xE0 SHL DUP2 MSTORE PUSH1 0x4 ADD PUSH0 PUSH1 0x40 MLOAD DUP1 DUP4 SUB DUP2 DUP6 DUP9 DUP1 EXTCODESIZE ISZERO DUP1 ISZERO PUSH2 0x39DE JUMPI PUSH0 DUP1 REVERT JUMPDEST POP GAS CALL ISZERO DUP1 ISZERO PUSH2 0x39F0 JUMPI RETURNDATASIZE PUSH0 DUP1 RETURNDATACOPY RETURNDATASIZE PUSH0 REVERT JUMPDEST POP POP POP POP POP PUSH2 0x3A40 DUP3 DUP3 PUSH32 0x0 PUSH20 0xFFFFFFFFFFFFFFFFFFFFFFFFFFFFFFFFFFFFFFFF AND PUSH2 0x42D2 SWAP1 SWAP3 SWAP2 SWAP1 PUSH4 0xFFFFFFFF AND JUMP JUMPDEST JUMPDEST POP POP JUMP JUMPDEST PUSH0 DUP1 PUSH0 DUP1 PUSH0 DUP1 DUP9 PUSH0 DUP2 MLOAD DUP2 LT PUSH2 0x3A5E JUMPI PUSH2 0x3A5D PUSH2 0x61C4 JUMP JUMPDEST JUMPDEST PUSH1 0x20 MUL PUSH1 0x20 ADD ADD MLOAD SWAP1 POP PUSH0 JUMPDEST DUP12 MLOAD DUP2 LT ISZERO PUSH2 0x3DCC JUMPI DUP12 DUP2 DUP2 MLOAD DUP2 LT PUSH2 0x3A86 JUMPI PUSH2 0x3A85 PUSH2 0x61C4 JUMP JUMPDEST JUMPDEST PUSH1 0x20 MUL PUSH1 0x20 ADD ADD MLOAD SWAP4 POP DUP11 DUP2 DUP2 MLOAD DUP2 LT PUSH2 0x3AA3 JUMPI PUSH2 0x3AA2 PUSH2 0x61C4 JUMP JUMPDEST JUMPDEST PUSH1 0x20 MUL PUSH1 0x20 ADD ADD MLOAD SWAP3 POP DUP2 SWAP6 POP DUP10 PUSH1 0x1 DUP3 ADD DUP2 MLOAD DUP2 LT PUSH2 0x3AC6 JUMPI PUSH2 0x3AC5 PUSH2 0x61C4 JUMP JUMPDEST JUMPDEST PUSH1 0x20 MUL PUSH1 0x20 ADD ADD MLOAD SWAP2 POP DUP12 MLOAD PUSH1 0x1 DUP3 ADD EQ PUSH2 0x3AFE JUMPI DUP12 PUSH1 0x1 DUP3 ADD DUP2 MLOAD DUP2 LT PUSH2 0x3AF1 JUMPI PUSH2 0x3AF0 PUSH2 0x61C4 JUMP JUMPDEST JUMPDEST PUSH1 0x20 MUL PUSH1 0x20 ADD ADD MLOAD PUSH2 0x3B00 JUMP JUMPDEST DUP8 JUMPDEST SWAP5 POP PUSH0 PUSH1 0x1 DUP2 GT ISZERO PUSH2 0x3B15 JUMPI PUSH2 0x3B14 PUSH2 0x6631 JUMP JUMPDEST JUMPDEST DUP4 PUSH1 0x1 DUP2 GT ISZERO PUSH2 0x3B28 JUMPI PUSH2 0x3B27 PUSH2 0x6631 JUMP JUMPDEST JUMPDEST SUB PUSH2 0x3C60 JUMPI DUP9 PUSH1 0x1 DUP3 ADD DUP2 MLOAD DUP2 LT PUSH2 0x3B43 JUMPI PUSH2 0x3B42 PUSH2 0x61C4 JUMP JUMPDEST JUMPDEST PUSH1 0x20 MUL PUSH1 0x20 ADD ADD MLOAD SWAP7 POP DUP2 PUSH20 0xFFFFFFFFFFFFFFFFFFFFFFFFFFFFFFFFFFFFFFFF AND DUP7 PUSH20 0xFFFFFFFFFFFFFFFFFFFFFFFFFFFFFFFFFFFFFFFF AND LT ISZERO PUSH2 0x3BF0 JUMPI DUP4 PUSH20 0xFFFFFFFFFFFFFFFFFFFFFFFFFFFFFFFFFFFFFFFF AND PUSH4 0x22C0D9F PUSH0 DUP10 DUP9 PUSH1 0x40 MLOAD DUP5 PUSH4 0xFFFFFFFF AND PUSH1 0xE0 SHL DUP2 MSTORE PUSH1 0x4 ADD PUSH2 0x3BBE SWAP4 SWAP3 SWAP2 SWAP1 PUSH2 0x6796 JUMP JUMPDEST PUSH0 PUSH1 0x40 MLOAD DUP1 DUP4 SUB DUP2 PUSH0 DUP8 DUP1 EXTCODESIZE ISZERO DUP1 ISZERO PUSH2 0x3BD5 JUMPI PUSH0 DUP1 REVERT JUMPDEST POP GAS CALL ISZERO DUP1 ISZERO PUSH2 0x3BE7 JUMPI RETURNDATASIZE PUSH0 DUP1 RETURNDATACOPY RETURNDATASIZE PUSH0 REVERT JUMPDEST POP POP POP POP PUSH2 0x3C5B JUMP JUMPDEST DUP4 PUSH20 0xFFFFFFFFFFFFFFFFFFFFFFFFFFFFFFFFFFFFFFFF AND PUSH4 0x22C0D9F DUP9 PUSH0 DUP9 PUSH1 0x40 MLOAD DUP5 PUSH4 0xFFFFFFFF AND PUSH1 0xE0 SHL DUP2 MSTORE PUSH1 0x4 ADD PUSH2 0x3C2D SWAP4 SWAP3 SWAP2 SWAP1 PUSH2 0x67DE JUMP JUMPDEST PUSH0 PUSH1 0x40 MLOAD DUP1 DUP4 SUB DUP2 PUSH0 DUP8 DUP1 EXTCODESIZE ISZERO DUP1 ISZERO PUSH2 0x3C44 JUMPI PUSH0 DUP1 REVERT JUMPDEST POP GAS CALL ISZERO DUP1 ISZERO PUSH2 0x3C56 JUMPI RETURNDATASIZE PUSH0 DUP1 RETURNDATACOPY RETURNDATASIZE PUSH0 REVERT JUMPDEST POP POP POP POP JUMPDEST PUSH2 0x3DC1 JUMP JUMPDEST PUSH0 DUP5 PUSH20 0xFFFFFFFFFFFFFFFFFFFFFFFFFFFFFFFFFFFFFFFF AND PUSH4 0xDA10610C PUSH1 0x40 MLOAD DUP2 PUSH4 0xFFFFFFFF AND PUSH1 0xE0 SHL DUP2 MSTORE PUSH1 0x4 ADD PUSH1 0x20 PUSH1 0x40 MLOAD DUP1 DUP4 SUB DUP2 DUP7 GAS STATICCALL ISZERO DUP1 ISZERO PUSH2 0x3CAA JUMPI RETURNDATASIZE PUSH0 DUP1 RETURNDATACOPY RETURNDATASIZE PUSH0 REVERT JUMPDEST POP POP POP POP PUSH1 0x40 MLOAD RETURNDATASIZE PUSH1 0x1F NOT PUSH1 0x1F DUP3 ADD AND DUP3 ADD DUP1 PUSH1 0x40 MSTORE POP DUP2 ADD SWAP1 PUSH2 0x3CCE SWAP2 SWAP1 PUSH2 0x63F4 JUMP JUMPDEST PUSH20 0xFFFFFFFFFFFFFFFFFFFFFFFFFFFFFFFFFFFFFFFF AND DUP4 PUSH20 0xFFFFFFFFFFFFFFFFFFFFFFFFFFFFFFFFFFFFFFFF AND EQ SWAP1 POP PUSH0 DUP1 PUSH2 0x3D83 DUP8 PUSH20 0xFFFFFFFFFFFFFFFFFFFFFFFFFFFFFFFFFFFFFFFF AND PUSH4 0x53C059A0 DUP6 DUP12 PUSH1 0x40 MLOAD DUP4 PUSH4 0xFFFFFFFF AND PUSH1 0xE0 SHL DUP2 MSTORE PUSH1 0x4 ADD PUSH2 0x3D3E SWAP3 SWAP2 SWAP1 PUSH2 0x6826 JUMP JUMPDEST PUSH1 0x20 PUSH1 0x40 MLOAD DUP1 DUP4 SUB DUP2 PUSH0 DUP8 GAS CALL ISZERO DUP1 ISZERO PUSH2 0x3D5A JUMPI RETURNDATASIZE PUSH0 DUP1 RETURNDATACOPY RETURNDATASIZE PUSH0 REVERT JUMPDEST POP POP POP POP PUSH1 0x40 MLOAD RETURNDATASIZE PUSH1 0x1F NOT PUSH1 0x1F DUP3 ADD AND DUP3 ADD DUP1 PUSH1 0x40 MSTORE POP DUP2 ADD SWAP1 PUSH2 0x3D7E SWAP2 SWAP1 PUSH2 0x6880 JUMP JUMPDEST PUSH2 0x4FCC JUMP JUMPDEST PUSH16 0xFFFFFFFFFFFFFFFFFFFFFFFFFFFFFFFF AND SWAP2 POP PUSH16 0xFFFFFFFFFFFFFFFFFFFFFFFFFFFFFFFF AND SWAP2 POP DUP3 ISZERO PUSH2 0x3DB9 JUMPI DUP1 SWAP10 POP PUSH2 0x3DBD JUMP JUMPDEST DUP2 SWAP10 POP JUMPDEST POP POP POP JUMPDEST DUP1 PUSH1 0x1 ADD SWAP1 POP PUSH2 0x3A6A JUMP JUMPDEST POP POP POP POP POP POP SWAP6 SWAP5 POP POP POP POP POP JUMP JUMPDEST PUSH0 DUP2 SUB ISZERO PUSH2 0x3E91 JUMPI PUSH0 DUP3 PUSH20 0xFFFFFFFFFFFFFFFFFFFFFFFFFFFFFFFFFFFFFFFF AND DUP3 PUSH1 0x40 MLOAD PUSH2 0x3E08 SWAP1 PUSH2 0x68FC JUMP JUMPDEST PUSH0 PUSH1 0x40 MLOAD DUP1 DUP4 SUB DUP2 DUP6 DUP8 GAS CALL SWAP3 POP POP POP RETURNDATASIZE DUP1 PUSH0 DUP2 EQ PUSH2 0x3E42 JUMPI PUSH1 0x40 MLOAD SWAP2 POP PUSH1 0x1F NOT PUSH1 0x3F RETURNDATASIZE ADD AND DUP3 ADD PUSH1 0x40 MSTORE RETURNDATASIZE DUP3 MSTORE RETURNDATASIZE PUSH0 PUSH1 0x20 DUP5 ADD RETURNDATACOPY PUSH2 0x3E47 JUMP JUMPDEST PUSH1 0x60 SWAP2 POP JUMPDEST POP POP SWAP1 POP DUP1 PUSH2 0x3E8F JUMPI DUP3 DUP3 PUSH1 0x40 MLOAD PUSH32 0x47B96F7000000000000000000000000000000000000000000000000000000000 DUP2 MSTORE PUSH1 0x4 ADD PUSH2 0x3E86 SWAP3 SWAP2 SWAP1 PUSH2 0x6910 JUMP JUMPDEST PUSH1 0x40 MLOAD DUP1 SWAP2 SUB SWAP1 REVERT JUMPDEST POP JUMPDEST POP POP JUMP JUMPDEST PUSH0 DUP1 PUSH0 DUP1 PUSH0 DUP1 DUP8 PUSH0 DUP2 MLOAD DUP2 LT PUSH2 0x3EAE JUMPI PUSH2 0x3EAD PUSH2 0x61C4 JUMP JUMPDEST JUMPDEST PUSH1 0x20 MUL PUSH1 0x20 ADD ADD MLOAD SWAP1 POP DUP11 SWAP6 POP PUSH0 JUMPDEST DUP11 MLOAD DUP2 LT ISZERO PUSH2 0x42C3 JUMPI DUP11 DUP2 DUP2 MLOAD DUP2 LT PUSH2 0x3ED9 JUMPI PUSH2 0x3ED8 PUSH2 0x61C4 JUMP JUMPDEST JUMPDEST PUSH1 0x20 MUL PUSH1 0x20 ADD ADD MLOAD SWAP3 POP DUP10 DUP2 DUP2 MLOAD DUP2 LT PUSH2 0x3EF6 JUMPI PUSH2 0x3EF5 PUSH2 0x61C4 JUMP JUMPDEST JUMPDEST PUSH1 0x20 MUL PUSH1 0x20 ADD ADD MLOAD SWAP5 POP DUP2 SWAP6 POP DUP9 PUSH1 0x1 DUP3 ADD DUP2 MLOAD DUP2 LT PUSH2 0x3F19 JUMPI PUSH2 0x3F18 PUSH2 0x61C4 JUMP JUMPDEST JUMPDEST PUSH1 0x20 MUL PUSH1 0x20 ADD ADD MLOAD SWAP2 POP DUP11 MLOAD PUSH1 0x1 DUP3 ADD EQ PUSH2 0x3F51 JUMPI DUP11 PUSH1 0x1 DUP3 ADD DUP2 MLOAD DUP2 LT PUSH2 0x3F44 JUMPI PUSH2 0x3F43 PUSH2 0x61C4 JUMP JUMPDEST JUMPDEST PUSH1 0x20 MUL PUSH1 0x20 ADD ADD MLOAD PUSH2 0x3F53 JUMP JUMPDEST DUP8 JUMPDEST SWAP4 POP PUSH0 PUSH1 0x1 DUP2 GT ISZERO PUSH2 0x3F68 JUMPI PUSH2 0x3F67 PUSH2 0x6631 JUMP JUMPDEST JUMPDEST DUP6 PUSH1 0x1 DUP2 GT ISZERO PUSH2 0x3F7B JUMPI PUSH2 0x3F7A PUSH2 0x6631 JUMP JUMPDEST JUMPDEST SUB PUSH2 0x4157 JUMPI PUSH0 DUP1 DUP5 PUSH20 0xFFFFFFFFFFFFFFFFFFFFFFFFFFFFFFFFFFFFFFFF AND PUSH4 0x902F1AC PUSH1 0x40 MLOAD DUP2 PUSH4 0xFFFFFFFF AND PUSH1 0xE0 SHL DUP2 MSTORE PUSH1 0x4 ADD PUSH1 0x60 PUSH1 0x40 MLOAD DUP1 DUP4 SUB DUP2 DUP7 GAS STATICCALL ISZERO DUP1 ISZERO PUSH2 0x3FCB JUMPI RETURNDATASIZE PUSH0 DUP1 RETURNDATACOPY RETURNDATASIZE PUSH0 REVERT JUMPDEST POP POP POP POP PUSH1 0x40 MLOAD RETURNDATASIZE PUSH1 0x1F NOT PUSH1 0x1F DUP3 ADD AND DUP3 ADD DUP1 PUSH1 0x40 MSTORE POP DUP2 ADD SWAP1 PUSH2 0x3FEF SWAP2 SWAP1 PUSH2 0x66DA JUMP JUMPDEST POP PUSH14 0xFFFFFFFFFFFFFFFFFFFFFFFFFFFF AND SWAP2 POP PUSH14 0xFFFFFFFFFFFFFFFFFFFFFFFFFFFF AND SWAP2 POP DUP4 PUSH20 0xFFFFFFFFFFFFFFFFFFFFFFFFFFFFFFFFFFFFFFFF AND DUP9 PUSH20 0xFFFFFFFFFFFFFFFFFFFFFFFFFFFFFFFFFFFFFFFF AND LT ISZERO PUSH2 0x40CE JUMPI PUSH2 0x405D DUP3 DUP3 DUP12 PUSH2 0x4E21 SWAP1 SWAP3 SWAP2 SWAP1 PUSH4 0xFFFFFFFF AND JUMP JUMPDEST SWAP9 POP DUP5 PUSH20 0xFFFFFFFFFFFFFFFFFFFFFFFFFFFFFFFFFFFFFFFF AND PUSH4 0x22C0D9F PUSH0 DUP12 DUP10 PUSH1 0x40 MLOAD DUP5 PUSH4 0xFFFFFFFF AND PUSH1 0xE0 SHL DUP2 MSTORE PUSH1 0x4 ADD PUSH2 0x409C SWAP4 SWAP3 SWAP2 SWAP1 PUSH2 0x6796 JUMP JUMPDEST PUSH0 PUSH1 0x40 MLOAD DUP1 DUP4 SUB DUP2 PUSH0 DUP8 DUP1 EXTCODESIZE ISZERO DUP1 ISZERO PUSH2 0x40B3 JUMPI PUSH0 DUP1 REVERT JUMPDEST POP GAS CALL ISZERO DUP1 ISZERO PUSH2 0x40C5 JUMPI RETURNDATASIZE PUSH0 DUP1 RETURNDATACOPY RETURNDATASIZE PUSH0 REVERT JUMPDEST POP POP POP POP PUSH2 0x4150 JUMP JUMPDEST PUSH2 0x40E3 DUP2 DUP4 DUP12 PUSH2 0x4E21 SWAP1 SWAP3 SWAP2 SWAP1 PUSH4 0xFFFFFFFF AND JUMP JUMPDEST SWAP9 POP DUP5 PUSH20 0xFFFFFFFFFFFFFFFFFFFFFFFFFFFFFFFFFFFFFFFF AND PUSH4 0x22C0D9F DUP11 PUSH0 DUP10 PUSH1 0x40 MLOAD DUP5 PUSH4 0xFFFFFFFF AND PUSH1 0xE0 SHL DUP2 MSTORE PUSH1 0x4 ADD PUSH2 0x4122 SWAP4 SWAP3 SWAP2 SWAP1 PUSH2 0x67DE JUMP JUMPDEST PUSH0 PUSH1 0x40 MLOAD DUP1 DUP4 SUB DUP2 PUSH0 DUP8 DUP1 EXTCODESIZE ISZERO DUP1 ISZERO PUSH2 0x4139 JUMPI PUSH0 DUP1 REVERT JUMPDEST POP GAS CALL ISZERO DUP1 ISZERO PUSH2 0x414B JUMPI RETURNDATASIZE PUSH0 DUP1 RETURNDATACOPY RETURNDATASIZE PUSH0 REVERT JUMPDEST POP POP POP POP JUMPDEST POP POP PUSH2 0x42B8 JUMP JUMPDEST PUSH0 DUP4 PUSH20 0xFFFFFFFFFFFFFFFFFFFFFFFFFFFFFFFFFFFFFFFF AND PUSH4 0xDA10610C PUSH1 0x40 MLOAD DUP2 PUSH4 0xFFFFFFFF AND PUSH1 0xE0 SHL DUP2 MSTORE PUSH1 0x4 ADD PUSH1 0x20 PUSH1 0x40 MLOAD DUP1 DUP4 SUB DUP2 DUP7 GAS STATICCALL ISZERO DUP1 ISZERO PUSH2 0x41A1 JUMPI RETURNDATASIZE PUSH0 DUP1 RETURNDATACOPY RETURNDATASIZE PUSH0 REVERT JUMPDEST POP POP POP POP PUSH1 0x40 MLOAD RETURNDATASIZE PUSH1 0x1F NOT PUSH1 0x1F DUP3 ADD AND DUP3 ADD DUP1 PUSH1 0x40 MSTORE POP DUP2 ADD SWAP1 PUSH2 0x41C5 SWAP2 SWAP1 PUSH2 0x63F4 JUMP JUMPDEST PUSH20 0xFFFFFFFFFFFFFFFFFFFFFFFFFFFFFFFFFFFFFFFF AND DUP4 PUSH20 0xFFFFFFFFFFFFFFFFFFFFFFFFFFFFFFFFFFFFFFFF AND EQ SWAP1 POP PUSH0 DUP1 PUSH2 0x427A DUP7 PUSH20 0xFFFFFFFFFFFFFFFFFFFFFFFFFFFFFFFFFFFFFFFF AND PUSH4 0x53C059A0 DUP6 DUP11 PUSH1 0x40 MLOAD DUP4 PUSH4 0xFFFFFFFF AND PUSH1 0xE0 SHL DUP2 MSTORE PUSH1 0x4 ADD PUSH2 0x4235 SWAP3 SWAP2 SWAP1 PUSH2 0x6826 JUMP JUMPDEST PUSH1 0x20 PUSH1 0x40 MLOAD DUP1 DUP4 SUB DUP2 PUSH0 DUP8 GAS CALL ISZERO DUP1 ISZERO PUSH2 0x4251 JUMPI RETURNDATASIZE PUSH0 DUP1 RETURNDATACOPY RETURNDATASIZE PUSH0 REVERT JUMPDEST POP POP POP POP PUSH1 0x40 MLOAD RETURNDATASIZE PUSH1 0x1F NOT PUSH1 0x1F DUP3 ADD AND DUP3 ADD DUP1 PUSH1 0x40 MSTORE POP DUP2 ADD SWAP1 PUSH2 0x4275 SWAP2 SWAP1 PUSH2 0x6880 JUMP JUMPDEST PUSH2 0x4FCC JUMP JUMPDEST PUSH16 0xFFFFFFFFFFFFFFFFFFFFFFFFFFFFFFFF AND SWAP2 POP PUSH16 0xFFFFFFFFFFFFFFFFFFFFFFFFFFFFFFFF AND SWAP2 POP DUP3 ISZERO PUSH2 0x42B0 JUMPI DUP1 SWAP10 POP PUSH2 0x42B4 JUMP JUMPDEST DUP2 SWAP10 POP JUMPDEST POP POP POP JUMPDEST DUP1 PUSH1 0x1 ADD SWAP1 POP PUSH2 0x3EBD JUMP JUMPDEST POP POP POP POP POP POP SWAP6 SWAP5 POP POP POP POP POP JUMP JUMPDEST PUSH0 PUSH4 0xA9059CBB PUSH1 0xE0 SHL DUP4 DUP4 PUSH1 0x40 MLOAD PUSH1 0x24 ADD PUSH2 0x42EE SWAP3 SWAP2 SWAP1 PUSH2 0x6910 JUMP JUMPDEST PUSH1 0x40 MLOAD PUSH1 0x20 DUP2 DUP4 SUB SUB DUP2 MSTORE SWAP1 PUSH1 0x40 MSTORE SWAP1 PUSH28 0xFFFFFFFFFFFFFFFFFFFFFFFFFFFFFFFFFFFFFFFFFFFFFFFFFFFFFFFF NOT AND PUSH1 0x20 DUP3 ADD DUP1 MLOAD PUSH28 0xFFFFFFFFFFFFFFFFFFFFFFFFFFFFFFFFFFFFFFFFFFFFFFFFFFFFFFFF DUP4 DUP2 DUP4 AND OR DUP4 MSTORE POP POP POP POP SWAP1 POP PUSH2 0x4357 DUP5 DUP3 PUSH2 0x4FEE JUMP JUMPDEST POP POP POP POP JUMP JUMPDEST PUSH0 PUSH32 0xF0C57E16840DF040F15088DC2F81FE391C3923BEC73E23A9662EFC9C229C6A00 SWAP1 POP SWAP1 JUMP JUMPDEST PUSH0 PUSH32 0x0 PUSH20 0xFFFFFFFFFFFFFFFFFFFFFFFFFFFFFFFFFFFFFFFF AND PUSH4 0x704037BD DUP6 DUP6 DUP6 PUSH1 0x40 MLOAD DUP5 PUSH4 0xFFFFFFFF AND PUSH1 0xE0 SHL DUP2 MSTORE PUSH1 0x4 ADD PUSH2 0x43E2 SWAP4 SWAP3 SWAP2 SWAP1 PUSH2 0x6937 JUMP JUMPDEST PUSH1 0x80 PUSH1 0x40 MLOAD DUP1 DUP4 SUB DUP2 DUP7 GAS STATICCALL ISZERO DUP1 ISZERO PUSH2 0x43FD JUMPI RETURNDATASIZE PUSH0 DUP1 RETURNDATACOPY RETURNDATASIZE PUSH0 REVERT JUMPDEST POP POP POP POP PUSH1 0x40 MLOAD RETURNDATASIZE PUSH1 0x1F NOT PUSH1 0x1F DUP3 ADD AND DUP3 ADD DUP1 PUSH1 0x40 MSTORE POP DUP2 ADD SWAP1 PUSH2 0x4421 SWAP2 SWAP1 PUSH2 0x6A09 JUMP JUMPDEST PUSH1 0x20 ADD MLOAD SWAP1 POP PUSH0 PUSH20 0xFFFFFFFFFFFFFFFFFFFFFFFFFFFFFFFFFFFFFFFF AND DUP2 PUSH20 0xFFFFFFFFFFFFFFFFFFFFFFFFFFFFFFFFFFFFFFFF AND SUB PUSH2 0x449B JUMPI DUP4 DUP4 DUP4 PUSH1 0x40 MLOAD PUSH32 0xD648E3A200000000000000000000000000000000000000000000000000000000 DUP2 MSTORE PUSH1 0x4 ADD PUSH2 0x4492 SWAP4 SWAP3 SWAP2 SWAP1 PUSH2 0x6A34 JUMP JUMPDEST PUSH1 0x40 MLOAD DUP1 SWAP2 SUB SWAP1 REVERT JUMPDEST SWAP4 SWAP3 POP POP POP JUMP JUMPDEST PUSH0 DUP1 PUSH0 DUP9 PUSH20 0xFFFFFFFFFFFFFFFFFFFFFFFFFFFFFFFFFFFFFFFF AND PUSH4 0xC9939F5E CALLER DUP7 DUP10 DUP10 PUSH1 0x40 MLOAD DUP6 PUSH4 0xFFFFFFFF AND PUSH1 0xE0 SHL DUP2 MSTORE PUSH1 0x4 ADD PUSH2 0x44E4 SWAP5 SWAP4 SWAP3 SWAP2 SWAP1 PUSH2 0x6A69 JUMP JUMPDEST PUSH0 PUSH1 0x40 MLOAD DUP1 DUP4 SUB DUP2 PUSH0 DUP8 GAS CALL ISZERO DUP1 ISZERO PUSH2 0x44FF JUMPI RETURNDATASIZE PUSH0 DUP1 RETURNDATACOPY RETURNDATASIZE PUSH0 REVERT JUMPDEST POP POP POP POP PUSH1 0x40 MLOAD RETURNDATASIZE PUSH0 DUP3 RETURNDATACOPY RETURNDATASIZE PUSH1 0x1F NOT PUSH1 0x1F DUP3 ADD AND DUP3 ADD DUP1 PUSH1 0x40 MSTORE POP DUP2 ADD SWAP1 PUSH2 0x4527 SWAP2 SWAP1 PUSH2 0x6B7A JUMP JUMPDEST SWAP1 POP PUSH0 JUMPDEST DUP2 MLOAD DUP2 LT ISZERO PUSH2 0x45C9 JUMPI PUSH2 0x4557 DUP3 DUP3 DUP2 MLOAD DUP2 LT PUSH2 0x454A JUMPI PUSH2 0x4549 PUSH2 0x61C4 JUMP JUMPDEST JUMPDEST PUSH1 0x20 MUL PUSH1 0x20 ADD ADD MLOAD PUSH2 0x5078 JUMP JUMPDEST PUSH16 0xFFFFFFFFFFFFFFFFFFFFFFFFFFFFFFFF AND DUP5 PUSH2 0x4574 SWAP2 SWAP1 PUSH2 0x6191 JUMP JUMPDEST SWAP4 POP PUSH2 0x4599 DUP3 DUP3 DUP2 MLOAD DUP2 LT PUSH2 0x458C JUMPI PUSH2 0x458B PUSH2 0x61C4 JUMP JUMPDEST JUMPDEST PUSH1 0x20 MUL PUSH1 0x20 ADD ADD MLOAD PUSH2 0x5093 JUMP JUMPDEST PUSH16 0xFFFFFFFFFFFFFFFFFFFFFFFFFFFFFFFF AND DUP4 PUSH2 0x45B6 SWAP2 SWAP1 PUSH2 0x6191 JUMP JUMPDEST SWAP3 POP DUP1 PUSH2 0x45C2 SWAP1 PUSH2 0x6BC1 JUMP JUMPDEST SWAP1 POP PUSH2 0x452B JUMP JUMPDEST POP DUP8 DUP4 LT DUP1 PUSH2 0x45D7 JUMPI POP DUP7 DUP3 LT JUMPDEST ISZERO PUSH2 0x461F JUMPI DUP8 DUP4 DUP9 DUP5 PUSH1 0x40 MLOAD PUSH32 0x3199F6EE00000000000000000000000000000000000000000000000000000000 DUP2 MSTORE PUSH1 0x4 ADD PUSH2 0x4616 SWAP5 SWAP4 SWAP3 SWAP2 SWAP1 PUSH2 0x6C08 JUMP JUMPDEST PUSH1 0x40 MLOAD DUP1 SWAP2 SUB SWAP1 REVERT JUMPDEST POP SWAP7 POP SWAP7 SWAP5 POP POP POP POP POP JUMP JUMPDEST PUSH0 DUP2 SUB ISZERO PUSH2 0x465F JUMPI PUSH2 0x465E DUP3 DUP3 DUP6 PUSH20 0xFFFFFFFFFFFFFFFFFFFFFFFFFFFFFFFFFFFFFFFF AND PUSH2 0x42D2 SWAP1 SWAP3 SWAP2 SWAP1 PUSH4 0xFFFFFFFF AND JUMP JUMPDEST JUMPDEST POP POP POP JUMP JUMPDEST PUSH0 DUP1 PUSH0 DUP1 PUSH1 0x60 DUP1 DUP8 PUSH2 0x1C0 ADD CALLDATALOAD DUP1 TIMESTAMP GT ISZERO PUSH2 0x46B8 JUMPI DUP1 TIMESTAMP PUSH1 0x40 MLOAD PUSH32 0xDAE7CA7D00000000000000000000000000000000000000000000000000000000 DUP2 MSTORE PUSH1 0x4 ADD PUSH2 0x46AF SWAP3 SWAP2 SWAP1 PUSH2 0x5BD4 JUMP JUMPDEST PUSH1 0x40 MLOAD DUP1 SWAP2 SUB SWAP1 REVERT JUMPDEST DUP9 DUP1 PUSH2 0x140 ADD SWAP1 PUSH2 0x46C9 SWAP2 SWAP1 PUSH2 0x6C57 JUMP JUMPDEST SWAP1 POP DUP10 DUP1 PUSH2 0x120 ADD SWAP1 PUSH2 0x46DC SWAP2 SWAP1 PUSH2 0x6CB9 JUMP JUMPDEST SWAP1 POP EQ ISZERO DUP1 PUSH2 0x470F JUMPI POP DUP9 DUP1 PUSH2 0x160 ADD SWAP1 PUSH2 0x46F7 SWAP2 SWAP1 PUSH2 0x6C57 JUMP JUMPDEST SWAP1 POP DUP10 DUP1 PUSH2 0x120 ADD SWAP1 PUSH2 0x470A SWAP2 SWAP1 PUSH2 0x6CB9 JUMP JUMPDEST SWAP1 POP EQ ISZERO JUMPDEST ISZERO PUSH2 0x4746 JUMPI PUSH1 0x40 MLOAD PUSH32 0xB91B4D4D00000000000000000000000000000000000000000000000000000000 DUP2 MSTORE PUSH1 0x4 ADD PUSH1 0x40 MLOAD DUP1 SWAP2 SUB SWAP1 REVERT JUMPDEST PUSH3 0xFFFFFF DUP1 AND DUP10 PUSH1 0xE0 ADD CALLDATALOAD GT DUP1 PUSH2 0x4766 JUMPI POP PUSH3 0xFFFFFF DUP1 AND DUP10 PUSH2 0x100 ADD CALLDATALOAD GT JUMPDEST ISZERO PUSH2 0x47B3 JUMPI DUP9 PUSH1 0xE0 ADD CALLDATALOAD DUP10 PUSH2 0x100 ADD CALLDATALOAD PUSH1 0x40 MLOAD PUSH32 0x32F4AB8E00000000000000000000000000000000000000000000000000000000 DUP2 MSTORE PUSH1 0x4 ADD PUSH2 0x47AA SWAP3 SWAP2 SWAP1 PUSH2 0x5BD4 JUMP JUMPDEST PUSH1 0x40 MLOAD DUP1 SWAP2 SUB SWAP1 REVERT JUMPDEST PUSH0 DUP10 DUP1 PUSH2 0x120 ADD SWAP1 PUSH2 0x47C5 SWAP2 SWAP1 PUSH2 0x6CB9 JUMP JUMPDEST SWAP1 POP PUSH8 0xFFFFFFFFFFFFFFFF DUP2 GT ISZERO PUSH2 0x47E0 JUMPI PUSH2 0x47DF PUSH2 0x520A JUMP JUMPDEST JUMPDEST PUSH1 0x40 MLOAD SWAP1 DUP1 DUP3 MSTORE DUP1 PUSH1 0x20 MUL PUSH1 0x20 ADD DUP3 ADD PUSH1 0x40 MSTORE DUP1 ISZERO PUSH2 0x480E JUMPI DUP2 PUSH1 0x20 ADD PUSH1 0x20 DUP3 MUL DUP1 CALLDATASIZE DUP4 CALLDATACOPY DUP1 DUP3 ADD SWAP2 POP POP SWAP1 POP JUMPDEST POP SWAP1 POP DUP10 DUP1 PUSH2 0x120 ADD SWAP1 PUSH2 0x4822 SWAP2 SWAP1 PUSH2 0x6CB9 JUMP JUMPDEST SWAP1 POP PUSH8 0xFFFFFFFFFFFFFFFF DUP2 GT ISZERO PUSH2 0x483D JUMPI PUSH2 0x483C PUSH2 0x520A JUMP JUMPDEST JUMPDEST PUSH1 0x40 MLOAD SWAP1 DUP1 DUP3 MSTORE DUP1 PUSH1 0x20 MUL PUSH1 0x20 ADD DUP3 ADD PUSH1 0x40 MSTORE DUP1 ISZERO PUSH2 0x486B JUMPI DUP2 PUSH1 0x20 ADD PUSH1 0x20 DUP3 MUL DUP1 CALLDATASIZE DUP4 CALLDATACOPY DUP1 DUP3 ADD SWAP2 POP POP SWAP1 POP JUMPDEST POP SWAP4 POP PUSH0 DUP10 PUSH20 0xFFFFFFFFFFFFFFFFFFFFFFFFFFFFFFFFFFFFFFFF AND PUSH4 0xDBE65EDC PUSH1 0x40 MLOAD DUP2 PUSH4 0xFFFFFFFF AND PUSH1 0xE0 SHL DUP2 MSTORE PUSH1 0x4 ADD PUSH1 0x20 PUSH1 0x40 MLOAD DUP1 DUP4 SUB DUP2 DUP7 GAS STATICCALL ISZERO DUP1 ISZERO PUSH2 0x48B8 JUMPI RETURNDATASIZE PUSH0 DUP1 RETURNDATACOPY RETURNDATASIZE PUSH0 REVERT JUMPDEST POP POP POP POP PUSH1 0x40 MLOAD RETURNDATASIZE PUSH1 0x1F NOT PUSH1 0x1F DUP3 ADD AND DUP3 ADD DUP1 PUSH1 0x40 MSTORE POP DUP2 ADD SWAP1 PUSH2 0x48DC SWAP2 SWAP1 PUSH2 0x6606 JUMP JUMPDEST PUSH3 0xFFFFFF AND SWAP1 POP DUP1 DUP12 PUSH2 0x100 ADD CALLDATALOAD DUP13 PUSH1 0xE0 ADD CALLDATALOAD ADD LT DUP1 PUSH2 0x4906 JUMPI POP DUP11 PUSH1 0xE0 ADD CALLDATALOAD DUP12 PUSH2 0x100 ADD CALLDATALOAD DUP3 ADD LT JUMPDEST ISZERO PUSH2 0x4955 JUMPI DUP11 PUSH1 0xE0 ADD CALLDATALOAD DUP12 PUSH2 0x100 ADD CALLDATALOAD DUP3 PUSH1 0x40 MLOAD PUSH32 0xFAA1DB5600000000000000000000000000000000000000000000000000000000 DUP2 MSTORE PUSH1 0x4 ADD PUSH2 0x494C SWAP4 SWAP3 SWAP2 SWAP1 PUSH2 0x6D1B JUMP JUMPDEST PUSH1 0x40 MLOAD DUP1 SWAP2 SUB SWAP1 REVERT JUMPDEST PUSH0 JUMPDEST DUP3 MLOAD DUP2 LT ISZERO PUSH2 0x4A88 JUMPI PUSH0 DUP13 DUP1 PUSH2 0x120 ADD SWAP1 PUSH2 0x4972 SWAP2 SWAP1 PUSH2 0x6CB9 JUMP JUMPDEST DUP4 DUP2 DUP2 LT PUSH2 0x4983 JUMPI PUSH2 0x4982 PUSH2 0x61C4 JUMP JUMPDEST JUMPDEST SWAP1 POP PUSH1 0x20 MUL ADD CALLDATALOAD DUP4 ADD SWAP1 POP PUSH0 DUP2 SLT DUP1 PUSH2 0x49A0 JUMPI POP PUSH3 0xFFFFFF DUP1 AND DUP2 GT JUMPDEST ISZERO PUSH2 0x49E2 JUMPI DUP1 PUSH1 0x40 MLOAD PUSH32 0xE1505CC200000000000000000000000000000000000000000000000000000000 DUP2 MSTORE PUSH1 0x4 ADD PUSH2 0x49D9 SWAP2 SWAP1 PUSH2 0x6D68 JUMP JUMPDEST PUSH1 0x40 MLOAD DUP1 SWAP2 SUB SWAP1 REVERT JUMPDEST DUP1 DUP8 DUP4 DUP2 MLOAD DUP2 LT PUSH2 0x49F6 JUMPI PUSH2 0x49F5 PUSH2 0x61C4 JUMP JUMPDEST JUMPDEST PUSH1 0x20 MUL PUSH1 0x20 ADD ADD DUP2 DUP2 MSTORE POP POP PUSH2 0x4A5D DUP14 DUP1 PUSH2 0x140 ADD SWAP1 PUSH2 0x4A16 SWAP2 SWAP1 PUSH2 0x6C57 JUMP JUMPDEST DUP5 DUP2 DUP2 LT PUSH2 0x4A27 JUMPI PUSH2 0x4A26 PUSH2 0x61C4 JUMP JUMPDEST JUMPDEST SWAP1 POP PUSH1 0x20 MUL ADD CALLDATALOAD DUP15 DUP1 PUSH2 0x160 ADD SWAP1 PUSH2 0x4A3F SWAP2 SWAP1 PUSH2 0x6C57 JUMP JUMPDEST DUP6 DUP2 DUP2 LT PUSH2 0x4A50 JUMPI PUSH2 0x4A4F PUSH2 0x61C4 JUMP JUMPDEST JUMPDEST SWAP1 POP PUSH1 0x20 MUL ADD CALLDATALOAD DUP4 PUSH2 0x509F JUMP JUMPDEST DUP5 DUP4 DUP2 MLOAD DUP2 LT PUSH2 0x4A70 JUMPI PUSH2 0x4A6F PUSH2 0x61C4 JUMP JUMPDEST JUMPDEST PUSH1 0x20 MUL PUSH1 0x20 ADD ADD DUP2 DUP2 MSTORE POP POP POP DUP1 PUSH1 0x1 ADD SWAP1 POP PUSH2 0x4957 JUMP JUMPDEST POP POP PUSH0 DUP1 DUP11 PUSH20 0xFFFFFFFFFFFFFFFFFFFFFFFFFFFFFFFFFFFFFFFF AND PUSH4 0x383D15C5 DUP14 PUSH2 0x180 ADD PUSH1 0x20 DUP2 ADD SWAP1 PUSH2 0x4ABC SWAP2 SWAP1 PUSH2 0x6D81 JUMP JUMPDEST DUP6 DUP16 PUSH2 0x1A0 ADD PUSH1 0x20 DUP2 ADD SWAP1 PUSH2 0x4AD1 SWAP2 SWAP1 PUSH2 0x6D81 JUMP JUMPDEST PUSH1 0x40 MLOAD DUP5 PUSH4 0xFFFFFFFF AND PUSH1 0xE0 SHL DUP2 MSTORE PUSH1 0x4 ADD PUSH2 0x4AEF SWAP4 SWAP3 SWAP2 SWAP1 PUSH2 0x6E63 JUMP JUMPDEST PUSH0 PUSH1 0x40 MLOAD DUP1 DUP4 SUB DUP2 PUSH0 DUP8 GAS CALL ISZERO DUP1 ISZERO PUSH2 0x4B0A JUMPI RETURNDATASIZE PUSH0 DUP1 RETURNDATACOPY RETURNDATASIZE PUSH0 REVERT JUMPDEST POP POP POP POP PUSH1 0x40 MLOAD RETURNDATASIZE PUSH0 DUP3 RETURNDATACOPY RETURNDATASIZE PUSH1 0x1F NOT PUSH1 0x1F DUP3 ADD AND DUP3 ADD DUP1 PUSH1 0x40 MSTORE POP DUP2 ADD SWAP1 PUSH2 0x4B32 SWAP2 SWAP1 PUSH2 0x6F34 JUMP JUMPDEST DUP1 SWAP8 POP DUP2 SWAP4 POP DUP3 SWAP5 POP POP POP POP PUSH0 PUSH2 0x4B52 DUP3 DUP5 PUSH2 0x5120 SWAP1 SWAP2 SWAP1 PUSH4 0xFFFFFFFF AND JUMP JUMPDEST SWAP1 POP PUSH2 0x4B5D DUP2 PUSH2 0x5078 JUMP JUMPDEST PUSH16 0xFFFFFFFFFFFFFFFFFFFFFFFFFFFFFFFF AND SWAP11 POP PUSH2 0x4B7A DUP2 PUSH2 0x5093 JUMP JUMPDEST PUSH16 0xFFFFFFFFFFFFFFFFFFFFFFFFFFFFFFFF AND SWAP10 POP DUP13 PUSH1 0xA0 ADD CALLDATALOAD DUP12 LT DUP1 PUSH2 0x4BA3 JUMPI POP DUP13 PUSH1 0xC0 ADD CALLDATALOAD DUP11 LT JUMPDEST ISZERO PUSH2 0x4BF3 JUMPI DUP13 PUSH1 0xA0 ADD CALLDATALOAD DUP12 DUP15 PUSH1 0xC0 ADD CALLDATALOAD DUP13 PUSH1 0x40 MLOAD PUSH32 0x3199F6EE00000000000000000000000000000000000000000000000000000000 DUP2 MSTORE PUSH1 0x4 ADD PUSH2 0x4BEA SWAP5 SWAP4 SWAP3 SWAP2 SWAP1 PUSH2 0x6C08 JUMP JUMPDEST PUSH1 0x40 MLOAD DUP1 SWAP2 SUB SWAP1 REVERT JUMPDEST PUSH2 0x4BFC DUP3 PUSH2 0x5078 JUMP JUMPDEST PUSH16 0xFFFFFFFFFFFFFFFFFFFFFFFFFFFFFFFF AND SWAP9 POP PUSH2 0x4C19 DUP3 PUSH2 0x5093 JUMP JUMPDEST PUSH16 0xFFFFFFFFFFFFFFFFFFFFFFFFFFFFFFFF AND SWAP8 POP POP POP POP POP POP SWAP3 SWAP6 POP SWAP3 SWAP6 POP SWAP3 SWAP6 JUMP JUMPDEST PUSH0 DUP1 PUSH1 0x1 DUP2 GT ISZERO PUSH2 0x4C50 JUMPI PUSH2 0x4C4F PUSH2 0x6631 JUMP JUMPDEST JUMPDEST DUP3 PUSH1 0x1 DUP2 GT ISZERO PUSH2 0x4C63 JUMPI PUSH2 0x4C62 PUSH2 0x6631 JUMP JUMPDEST JUMPDEST SUB PUSH2 0x4D7D JUMPI PUSH32 0x0 PUSH20 0xFFFFFFFFFFFFFFFFFFFFFFFFFFFFFFFFFFFFFFFF AND PUSH4 0xE6A43905 DUP7 DUP7 PUSH1 0x40 MLOAD DUP4 PUSH4 0xFFFFFFFF AND PUSH1 0xE0 SHL DUP2 MSTORE PUSH1 0x4 ADD PUSH2 0x4CC3 SWAP3 SWAP2 SWAP1 PUSH2 0x6FA0 JUMP JUMPDEST PUSH1 0x20 PUSH1 0x40 MLOAD DUP1 DUP4 SUB DUP2 DUP7 GAS STATICCALL ISZERO DUP1 ISZERO PUSH2 0x4CDE JUMPI RETURNDATASIZE PUSH0 DUP1 RETURNDATACOPY RETURNDATASIZE PUSH0 REVERT JUMPDEST POP POP POP POP PUSH1 0x40 MLOAD RETURNDATASIZE PUSH1 0x1F NOT PUSH1 0x1F DUP3 ADD AND DUP3 ADD DUP1 PUSH1 0x40 MSTORE POP DUP2 ADD SWAP1 PUSH2 0x4D02 SWAP2 SWAP1 PUSH2 0x629F JUMP JUMPDEST SWAP1 POP PUSH0 PUSH20 0xFFFFFFFFFFFFFFFFFFFFFFFFFFFFFFFFFFFFFFFF AND DUP2 PUSH20 0xFFFFFFFFFFFFFFFFFFFFFFFFFFFFFFFFFFFFFFFF AND SUB PUSH2 0x4D78 JUMPI DUP5 DUP5 DUP5 PUSH1 0x40 MLOAD PUSH32 0xD648E3A200000000000000000000000000000000000000000000000000000000 DUP2 MSTORE PUSH1 0x4 ADD PUSH2 0x4D6F SWAP4 SWAP3 SWAP2 SWAP1 PUSH2 0x6A34 JUMP JUMPDEST PUSH1 0x40 MLOAD DUP1 SWAP2 SUB SWAP1 REVERT JUMPDEST PUSH2 0x4D8B JUMP JUMPDEST PUSH2 0x4D88 DUP6 DUP6 DUP6 PUSH2 0x4384 JUMP JUMPDEST SWAP1 POP JUMPDEST SWAP5 SWAP4 POP POP POP POP JUMP JUMPDEST PUSH0 PUSH4 0x23B872DD PUSH1 0xE0 SHL DUP5 DUP5 DUP5 PUSH1 0x40 MLOAD PUSH1 0x24 ADD PUSH2 0x4DB1 SWAP4 SWAP3 SWAP2 SWAP1 PUSH2 0x6A34 JUMP JUMPDEST PUSH1 0x40 MLOAD PUSH1 0x20 DUP2 DUP4 SUB SUB DUP2 MSTORE SWAP1 PUSH1 0x40 MSTORE SWAP1 PUSH28 0xFFFFFFFFFFFFFFFFFFFFFFFFFFFFFFFFFFFFFFFFFFFFFFFFFFFFFFFF NOT AND PUSH1 0x20 DUP3 ADD DUP1 MLOAD PUSH28 0xFFFFFFFFFFFFFFFFFFFFFFFFFFFFFFFFFFFFFFFFFFFFFFFFFFFFFFFF DUP4 DUP2 DUP4 AND OR DUP4 MSTORE POP POP POP POP SWAP1 POP PUSH2 0x4E1A DUP6 DUP3 PUSH2 0x4FEE JUMP JUMPDEST POP POP POP POP POP JUMP JUMPDEST PUSH0 DUP1 DUP5 SUB PUSH2 0x4E5B JUMPI PUSH1 0x40 MLOAD PUSH32 0xB937356B00000000000000000000000000000000000000000000000000000000 DUP2 MSTORE PUSH1 0x4 ADD PUSH1 0x40 MLOAD DUP1 SWAP2 SUB SWAP1 REVERT JUMPDEST PUSH0 DUP4 EQ DUP1 PUSH2 0x4E68 JUMPI POP PUSH0 DUP3 EQ JUMPDEST ISZERO PUSH2 0x4E9F JUMPI PUSH1 0x40 MLOAD PUSH32 0x7B03555500000000000000000000000000000000000000000000000000000000 DUP2 MSTORE PUSH1 0x4 ADD PUSH1 0x40 MLOAD DUP1 SWAP2 SUB SWAP1 REVERT JUMPDEST PUSH0 PUSH2 0x3E5 DUP6 PUSH2 0x4EAE SWAP2 SWAP1 PUSH2 0x6FC7 JUMP JUMPDEST SWAP1 POP PUSH0 DUP4 DUP3 PUSH2 0x4EBD SWAP2 SWAP1 PUSH2 0x6FC7 JUMP JUMPDEST SWAP1 POP PUSH0 DUP3 PUSH2 0x3E8 DUP8 PUSH2 0x4ECF SWAP2 SWAP1 PUSH2 0x6FC7 JUMP JUMPDEST PUSH2 0x4ED9 SWAP2 SWAP1 PUSH2 0x6191 JUMP JUMPDEST SWAP1 POP DUP1 DUP3 PUSH2 0x4EE7 SWAP2 SWAP1 PUSH2 0x7035 JUMP JUMPDEST SWAP4 POP POP POP POP SWAP4 SWAP3 POP POP POP JUMP JUMPDEST PUSH0 DUP1 DUP5 SUB PUSH2 0x4F2D JUMPI PUSH1 0x40 MLOAD PUSH32 0xB937356B00000000000000000000000000000000000000000000000000000000 DUP2 MSTORE PUSH1 0x4 ADD PUSH1 0x40 MLOAD DUP1 SWAP2 SUB SWAP1 REVERT JUMPDEST PUSH0 DUP4 EQ DUP1 PUSH2 0x4F3A JUMPI POP PUSH0 DUP3 EQ JUMPDEST ISZERO PUSH2 0x4F71 JUMPI PUSH1 0x40 MLOAD PUSH32 0x7B03555500000000000000000000000000000000000000000000000000000000 DUP2 MSTORE PUSH1 0x4 ADD PUSH1 0x40 MLOAD DUP1 SWAP2 SUB SWAP1 REVERT JUMPDEST PUSH0 PUSH2 0x3E8 DUP6 DUP6 PUSH2 0x4F81 SWAP2 SWAP1 PUSH2 0x6FC7 JUMP JUMPDEST PUSH2 0x4F8B SWAP2 SWAP1 PUSH2 0x6FC7 JUMP JUMPDEST SWAP1 POP PUSH0 PUSH2 0x3E5 DUP7 DUP6 PUSH2 0x4F9D SWAP2 SWAP1 PUSH2 0x6258 JUMP JUMPDEST PUSH2 0x4FA7 SWAP2 SWAP1 PUSH2 0x6FC7 JUMP JUMPDEST SWAP1 POP PUSH1 0x1 DUP2 DUP4 PUSH2 0x4FB7 SWAP2 SWAP1 PUSH2 0x7035 JUMP JUMPDEST PUSH2 0x4FC1 SWAP2 SWAP1 PUSH2 0x6191 JUMP JUMPDEST SWAP3 POP POP POP SWAP4 SWAP3 POP POP POP JUMP JUMPDEST PUSH0 DUP1 PUSH16 0xFFFFFFFFFFFFFFFFFFFFFFFFFFFFFFFF DUP4 AND SWAP2 POP DUP3 PUSH1 0x80 SHR SWAP1 POP SWAP2 POP SWAP2 JUMP JUMPDEST PUSH0 DUP1 PUSH0 MSTORE PUSH1 0x20 PUSH0 DUP4 MLOAD PUSH1 0x20 DUP6 ADD PUSH0 DUP8 GAS CALL SWAP1 POP DUP1 PUSH0 DUP2 EQ PUSH2 0x502C JUMPI RETURNDATASIZE PUSH0 DUP2 EQ PUSH2 0x501F JUMPI PUSH1 0x1 PUSH0 MLOAD EQ DUP4 AND SWAP3 POP PUSH2 0x5026 JUMP JUMPDEST DUP5 EXTCODESIZE ISZERO ISZERO SWAP3 POP JUMPDEST POP PUSH2 0x503B JUMP JUMPDEST RETURNDATASIZE ISZERO PUSH2 0x503A JUMPI RETURNDATASIZE PUSH0 DUP1 RETURNDATACOPY RETURNDATASIZE PUSH0 REVERT JUMPDEST JUMPDEST POP DUP1 PUSH2 0x5073 JUMPI PUSH1 0x40 MLOAD PUSH32 0x32E2717A00000000000000000000000000000000000000000000000000000000 DUP2 MSTORE PUSH1 0x4 ADD PUSH1 0x40 MLOAD DUP1 SWAP2 SUB SWAP1 REVERT JUMPDEST POP POP POP JUMP JUMPDEST PUSH0 PUSH16 0xFFFFFFFFFFFFFFFFFFFFFFFFFFFFFFFF DUP3 AND SWAP1 POP SWAP2 SWAP1 POP JUMP JUMPDEST PUSH0 DUP2 PUSH1 0x80 SHR SWAP1 POP SWAP2 SWAP1 POP JUMP JUMPDEST PUSH0 PUSH2 0x50CA DUP5 PUSH8 0xFFFFFFFFFFFFFFFF AND PUSH8 0xFFFFFFFFFFFFFFFF PUSH1 0x58 DUP5 PUSH2 0x5198 SWAP1 SWAP4 SWAP3 SWAP2 SWAP1 PUSH4 0xFFFFFFFF AND JUMP JUMPDEST SWAP1 POP PUSH2 0x50F6 DUP4 PUSH8 0xFFFFFFFFFFFFFFFF AND PUSH8 0xFFFFFFFFFFFFFFFF PUSH1 0x18 DUP5 PUSH2 0x5198 SWAP1 SWAP4 SWAP3 SWAP2 SWAP1 PUSH4 0xFFFFFFFF AND JUMP JUMPDEST SWAP1 POP PUSH2 0x5117 DUP3 PUSH3 0xFFFFFF AND PUSH3 0xFFFFFF PUSH0 DUP5 PUSH2 0x5198 SWAP1 SWAP4 SWAP3 SWAP2 SWAP1 PUSH4 0xFFFFFFFF AND JUMP JUMPDEST SWAP1 POP SWAP4 SWAP3 POP POP POP JUMP JUMPDEST PUSH0 DUP2 DUP4 SUB SWAP1 POP DUP3 DUP2 GT DUP1 PUSH2 0x515B JUMPI POP DUP3 PUSH0 SHR PUSH16 0xFFFFFFFFFFFFFFFFFFFFFFFFFFFFFFFF AND DUP2 PUSH0 SHR PUSH16 0xFFFFFFFFFFFFFFFFFFFFFFFFFFFFFFFF AND GT JUMPDEST ISZERO PUSH2 0x5192 JUMPI PUSH1 0x40 MLOAD PUSH32 0xE599AF5500000000000000000000000000000000000000000000000000000000 DUP2 MSTORE PUSH1 0x4 ADD PUSH1 0x40 MLOAD DUP1 SWAP2 SUB SWAP1 REVERT JUMPDEST SWAP3 SWAP2 POP POP JUMP JUMPDEST PUSH0 DUP3 DUP3 SHL NOT DUP6 AND SWAP1 POP DUP3 DUP5 AND DUP3 SHL DUP2 OR SWAP1 POP SWAP5 SWAP4 POP POP POP POP JUMP JUMPDEST PUSH0 PUSH1 0x40 MLOAD SWAP1 POP SWAP1 JUMP JUMPDEST PUSH0 DUP1 REVERT JUMPDEST PUSH0 DUP1 REVERT JUMPDEST PUSH0 DUP2 SWAP1 POP SWAP2 SWAP1 POP JUMP JUMPDEST PUSH2 0x51D5 DUP2 PUSH2 0x51C3 JUMP JUMPDEST DUP2 EQ PUSH2 0x51DF JUMPI PUSH0 DUP1 REVERT JUMPDEST POP JUMP JUMPDEST PUSH0 DUP2 CALLDATALOAD SWAP1 POP PUSH2 0x51F0 DUP2 PUSH2 0x51CC JUMP JUMPDEST SWAP3 SWAP2 POP POP JUMP JUMPDEST PUSH0 DUP1 REVERT JUMPDEST PUSH0 PUSH1 0x1F NOT PUSH1 0x1F DUP4 ADD AND SWAP1 POP SWAP2 SWAP1 POP JUMP JUMPDEST PUSH32 0x4E487B7100000000000000000000000000000000000000000000000000000000 PUSH0 MSTORE PUSH1 0x41 PUSH1 0x4 MSTORE PUSH1 0x24 PUSH0 REVERT JUMPDEST PUSH2 0x5240 DUP3 PUSH2 0x51FA JUMP JUMPDEST DUP2 ADD DUP2 DUP2 LT PUSH8 0xFFFFFFFFFFFFFFFF DUP3 GT OR ISZERO PUSH2 0x525F JUMPI PUSH2 0x525E PUSH2 0x520A JUMP JUMPDEST JUMPDEST DUP1 PUSH1 0x40 MSTORE POP POP POP JUMP JUMPDEST PUSH0 PUSH2 0x5271 PUSH2 0x51B2 JUMP JUMPDEST SWAP1 POP PUSH2 0x527D DUP3 DUP3 PUSH2 0x5237 JUMP JUMPDEST SWAP2 SWAP1 POP JUMP JUMPDEST PUSH0 DUP1 REVERT JUMPDEST PUSH0 DUP1 REVERT JUMPDEST PUSH0 PUSH8 0xFFFFFFFFFFFFFFFF DUP3 GT ISZERO PUSH2 0x52A4 JUMPI PUSH2 0x52A3 PUSH2 0x520A JUMP JUMPDEST JUMPDEST PUSH1 0x20 DUP3 MUL SWAP1 POP PUSH1 0x20 DUP2 ADD SWAP1 POP SWAP2 SWAP1 POP JUMP JUMPDEST PUSH0 DUP1 REVERT JUMPDEST PUSH0 PUSH2 0x52CB PUSH2 0x52C6 DUP5 PUSH2 0x528A JUMP JUMPDEST PUSH2 0x5268 JUMP JUMPDEST SWAP1 POP DUP1 DUP4 DUP3 MSTORE PUSH1 0x20 DUP3 ADD SWAP1 POP PUSH1 0x20 DUP5 MUL DUP4 ADD DUP6 DUP2 GT ISZERO PUSH2 0x52EE JUMPI PUSH2 0x52ED PUSH2 0x52B5 JUMP JUMPDEST JUMPDEST DUP4 JUMPDEST DUP2 DUP2 LT ISZERO PUSH2 0x5317 JUMPI DUP1 PUSH2 0x5303 DUP9 DUP3 PUSH2 0x51E2 JUMP JUMPDEST DUP5 MSTORE PUSH1 0x20 DUP5 ADD SWAP4 POP POP PUSH1 0x20 DUP2 ADD SWAP1 POP PUSH2 0x52F0 JUMP JUMPDEST POP POP POP SWAP4 SWAP3 POP POP POP JUMP JUMPDEST PUSH0 DUP3 PUSH1 0x1F DUP4 ADD SLT PUSH2 0x5335 JUMPI PUSH2 0x5334 PUSH2 0x5286 JUMP JUMPDEST JUMPDEST DUP2 CALLDATALOAD PUSH2 0x5345 DUP5 DUP3 PUSH1 0x20 DUP7 ADD PUSH2 0x52B9 JUMP JUMPDEST SWAP2 POP POP SWAP3 SWAP2 POP POP JUMP JUMPDEST PUSH0 PUSH8 0xFFFFFFFFFFFFFFFF DUP3 GT ISZERO PUSH2 0x5368 JUMPI PUSH2 0x5367 PUSH2 0x520A JUMP JUMPDEST JUMPDEST PUSH1 0x20 DUP3 MUL SWAP1 POP PUSH1 0x20 DUP2 ADD SWAP1 POP SWAP2 SWAP1 POP JUMP JUMPDEST PUSH1 0x2 DUP2 LT PUSH2 0x5385 JUMPI PUSH0 DUP1 REVERT JUMPDEST POP JUMP JUMPDEST PUSH0 DUP2 CALLDATALOAD SWAP1 POP PUSH2 0x5396 DUP2 PUSH2 0x5379 JUMP JUMPDEST SWAP3 SWAP2 POP POP JUMP JUMPDEST PUSH0 PUSH2 0x53AE PUSH2 0x53A9 DUP5 PUSH2 0x534E JUMP JUMPDEST PUSH2 0x5268 JUMP JUMPDEST SWAP1 POP DUP1 DUP4 DUP3 MSTORE PUSH1 0x20 DUP3 ADD SWAP1 POP PUSH1 0x20 DUP5 MUL DUP4 ADD DUP6 DUP2 GT ISZERO PUSH2 0x53D1 JUMPI PUSH2 0x53D0 PUSH2 0x52B5 JUMP JUMPDEST JUMPDEST DUP4 JUMPDEST DUP2 DUP2 LT ISZERO PUSH2 0x53FA JUMPI DUP1 PUSH2 0x53E6 DUP9 DUP3 PUSH2 0x5388 JUMP JUMPDEST DUP5 MSTORE PUSH1 0x20 DUP5 ADD SWAP4 POP POP PUSH1 0x20 DUP2 ADD SWAP1 POP PUSH2 0x53D3 JUMP JUMPDEST POP POP POP SWAP4 SWAP3 POP POP POP JUMP JUMPDEST PUSH0 DUP3 PUSH1 0x1F DUP4 ADD SLT PUSH2 0x5418 JUMPI PUSH2 0x5417 PUSH2 0x5286 JUMP JUMPDEST JUMPDEST DUP2 CALLDATALOAD PUSH2 0x5428 DUP5 DUP3 PUSH1 0x20 DUP7 ADD PUSH2 0x539C JUMP JUMPDEST SWAP2 POP POP SWAP3 SWAP2 POP POP JUMP JUMPDEST PUSH0 PUSH8 0xFFFFFFFFFFFFFFFF DUP3 GT ISZERO PUSH2 0x544B JUMPI PUSH2 0x544A PUSH2 0x520A JUMP JUMPDEST JUMPDEST PUSH1 0x20 DUP3 MUL SWAP1 POP PUSH1 0x20 DUP2 ADD SWAP1 POP SWAP2 SWAP1 POP JUMP JUMPDEST PUSH0 PUSH20 0xFFFFFFFFFFFFFFFFFFFFFFFFFFFFFFFFFFFFFFFF DUP3 AND SWAP1 POP SWAP2 SWAP1 POP JUMP JUMPDEST PUSH0 PUSH2 0x5485 DUP3 PUSH2 0x545C JUMP JUMPDEST SWAP1 POP SWAP2 SWAP1 POP JUMP JUMPDEST PUSH0 PUSH2 0x5496 DUP3 PUSH2 0x547B JUMP JUMPDEST SWAP1 POP SWAP2 SWAP1 POP JUMP JUMPDEST PUSH2 0x54A6 DUP2 PUSH2 0x548C JUMP JUMPDEST DUP2 EQ PUSH2 0x54B0 JUMPI PUSH0 DUP1 REVERT JUMPDEST POP JUMP JUMPDEST PUSH0 DUP2 CALLDATALOAD SWAP1 POP PUSH2 0x54C1 DUP2 PUSH2 0x549D JUMP JUMPDEST SWAP3 SWAP2 POP POP JUMP JUMPDEST PUSH0 PUSH2 0x54D9 PUSH2 0x54D4 DUP5 PUSH2 0x5431 JUMP JUMPDEST PUSH2 0x5268 JUMP JUMPDEST SWAP1 POP DUP1 DUP4 DUP3 MSTORE PUSH1 0x20 DUP3 ADD SWAP1 POP PUSH1 0x20 DUP5 MUL DUP4 ADD DUP6 DUP2 GT ISZERO PUSH2 0x54FC JUMPI PUSH2 0x54FB PUSH2 0x52B5 JUMP JUMPDEST JUMPDEST DUP4 JUMPDEST DUP2 DUP2 LT ISZERO PUSH2 0x5525 JUMPI DUP1 PUSH2 0x5511 DUP9 DUP3 PUSH2 0x54B3 JUMP JUMPDEST DUP5 MSTORE PUSH1 0x20 DUP5 ADD SWAP4 POP POP PUSH1 0x20 DUP2 ADD SWAP1 POP PUSH2 0x54FE JUMP JUMPDEST POP POP POP SWAP4 SWAP3 POP POP POP JUMP JUMPDEST PUSH0 DUP3 PUSH1 0x1F DUP4 ADD SLT PUSH2 0x5543 JUMPI PUSH2 0x5542 PUSH2 0x5286 JUMP JUMPDEST JUMPDEST DUP2 CALLDATALOAD PUSH2 0x5553 DUP5 DUP3 PUSH1 0x20 DUP7 ADD PUSH2 0x54C7 JUMP JUMPDEST SWAP2 POP POP SWAP3 SWAP2 POP POP JUMP JUMPDEST PUSH0 PUSH1 0x60 DUP3 DUP5 SUB SLT ISZERO PUSH2 0x5571 JUMPI PUSH2 0x5570 PUSH2 0x51F6 JUMP JUMPDEST JUMPDEST PUSH2 0x557B PUSH1 0x60 PUSH2 0x5268 JUMP JUMPDEST SWAP1 POP PUSH0 DUP3 ADD CALLDATALOAD PUSH8 0xFFFFFFFFFFFFFFFF DUP2 GT ISZERO PUSH2 0x559A JUMPI PUSH2 0x5599 PUSH2 0x5282 JUMP JUMPDEST JUMPDEST PUSH2 0x55A6 DUP5 DUP3 DUP6 ADD PUSH2 0x5321 JUMP JUMPDEST PUSH0 DUP4 ADD MSTORE POP PUSH1 0x20 DUP3 ADD CALLDATALOAD PUSH8 0xFFFFFFFFFFFFFFFF DUP2 GT ISZERO PUSH2 0x55C9 JUMPI PUSH2 0x55C8 PUSH2 0x5282 JUMP JUMPDEST JUMPDEST PUSH2 0x55D5 DUP5 DUP3 DUP6 ADD PUSH2 0x5404 JUMP JUMPDEST PUSH1 0x20 DUP4 ADD MSTORE POP PUSH1 0x40 DUP3 ADD CALLDATALOAD PUSH8 0xFFFFFFFFFFFFFFFF DUP2 GT ISZERO PUSH2 0x55F9 JUMPI PUSH2 0x55F8 PUSH2 0x5282 JUMP JUMPDEST JUMPDEST PUSH2 0x5605 DUP5 DUP3 DUP6 ADD PUSH2 0x552F JUMP JUMPDEST PUSH1 0x40 DUP4 ADD MSTORE POP SWAP3 SWAP2 POP POP JUMP JUMPDEST PUSH0 PUSH2 0x561B DUP3 PUSH2 0x545C JUMP JUMPDEST SWAP1 POP SWAP2 SWAP1 POP JUMP JUMPDEST PUSH2 0x562B DUP2 PUSH2 0x5611 JUMP JUMPDEST DUP2 EQ PUSH2 0x5635 JUMPI PUSH0 DUP1 REVERT JUMPDEST POP JUMP JUMPDEST PUSH0 DUP2 CALLDATALOAD SWAP1 POP PUSH2 0x5646 DUP2 PUSH2 0x5622 JUMP JUMPDEST SWAP3 SWAP2 POP POP JUMP JUMPDEST PUSH0 DUP1 PUSH0 DUP1 PUSH0 PUSH1 0xA0 DUP7 DUP9 SUB SLT ISZERO PUSH2 0x5665 JUMPI PUSH2 0x5664 PUSH2 0x51BB JUMP JUMPDEST JUMPDEST PUSH0 PUSH2 0x5672 DUP9 DUP3 DUP10 ADD PUSH2 0x51E2 JUMP JUMPDEST SWAP6 POP POP PUSH1 0x20 PUSH2 0x5683 DUP9 DUP3 DUP10 ADD PUSH2 0x51E2 JUMP JUMPDEST SWAP5 POP POP PUSH1 0x40 DUP7 ADD CALLDATALOAD PUSH8 0xFFFFFFFFFFFFFFFF DUP2 GT ISZERO PUSH2 0x56A4 JUMPI PUSH2 0x56A3 PUSH2 0x51BF JUMP JUMPDEST JUMPDEST PUSH2 0x56B0 DUP9 DUP3 DUP10 ADD PUSH2 0x555C JUMP JUMPDEST SWAP4 POP POP PUSH1 0x60 PUSH2 0x56C1 DUP9 DUP3 DUP10 ADD PUSH2 0x5638 JUMP JUMPDEST SWAP3 POP POP PUSH1 0x80 PUSH2 0x56D2 DUP9 DUP3 DUP10 ADD PUSH2 0x51E2 JUMP JUMPDEST SWAP2 POP POP SWAP3 SWAP6 POP SWAP3 SWAP6 SWAP1 SWAP4 POP JUMP JUMPDEST PUSH2 0x56E8 DUP2 PUSH2 0x51C3 JUMP JUMPDEST DUP3 MSTORE POP POP JUMP JUMPDEST PUSH0 PUSH1 0x20 DUP3 ADD SWAP1 POP PUSH2 0x5701 PUSH0 DUP4 ADD DUP5 PUSH2 0x56DF JUMP JUMPDEST SWAP3 SWAP2 POP POP JUMP JUMPDEST PUSH2 0x5710 DUP2 PUSH2 0x547B JUMP JUMPDEST DUP2 EQ PUSH2 0x571A JUMPI PUSH0 DUP1 REVERT JUMPDEST POP JUMP JUMPDEST PUSH0 DUP2 CALLDATALOAD SWAP1 POP PUSH2 0x572B DUP2 PUSH2 0x5707 JUMP JUMPDEST SWAP3 SWAP2 POP POP JUMP JUMPDEST PUSH0 DUP1 PUSH0 DUP1 PUSH1 0x80 DUP6 DUP8 SUB SLT ISZERO PUSH2 0x5749 JUMPI PUSH2 0x5748 PUSH2 0x51BB JUMP JUMPDEST JUMPDEST PUSH0 PUSH2 0x5756 DUP8 DUP3 DUP9 ADD PUSH2 0x51E2 JUMP JUMPDEST SWAP5 POP POP PUSH1 0x20 DUP6 ADD CALLDATALOAD PUSH8 0xFFFFFFFFFFFFFFFF DUP2 GT ISZERO PUSH2 0x5777 JUMPI PUSH2 0x5776 PUSH2 0x51BF JUMP JUMPDEST JUMPDEST PUSH2 0x5783 DUP8 DUP3 DUP9 ADD PUSH2 0x555C JUMP JUMPDEST SWAP4 POP POP PUSH1 0x40 PUSH2 0x5794 DUP8 DUP3 DUP9 ADD PUSH2 0x571D JUMP JUMPDEST SWAP3 POP POP PUSH1 0x60 PUSH2 0x57A5 DUP8 DUP3 DUP9 ADD PUSH2 0x51E2 JUMP JUMPDEST SWAP2 POP POP SWAP3 SWAP6 SWAP2 SWAP5 POP SWAP3 POP JUMP JUMPDEST PUSH0 DUP2 MLOAD SWAP1 POP SWAP2 SWAP1 POP JUMP JUMPDEST PUSH0 DUP3 DUP3 MSTORE PUSH1 0x20 DUP3 ADD SWAP1 POP SWAP3 SWAP2 POP POP JUMP JUMPDEST PUSH0 DUP2 SWAP1 POP PUSH1 0x20 DUP3 ADD SWAP1 POP SWAP2 SWAP1 POP JUMP JUMPDEST PUSH2 0x57E3 DUP2 PUSH2 0x51C3 JUMP JUMPDEST DUP3 MSTORE POP POP JUMP JUMPDEST PUSH0 PUSH2 0x57F4 DUP4 DUP4 PUSH2 0x57DA JUMP JUMPDEST PUSH1 0x20 DUP4 ADD SWAP1 POP SWAP3 SWAP2 POP POP JUMP JUMPDEST PUSH0 PUSH1 0x20 DUP3 ADD SWAP1 POP SWAP2 SWAP1 POP JUMP JUMPDEST PUSH0 PUSH2 0x5816 DUP3 PUSH2 0x57B1 JUMP JUMPDEST PUSH2 0x5820 DUP2 DUP6 PUSH2 0x57BB JUMP JUMPDEST SWAP4 POP PUSH2 0x582B DUP4 PUSH2 0x57CB JUMP JUMPDEST DUP1 PUSH0 JUMPDEST DUP4 DUP2 LT ISZERO PUSH2 0x585B JUMPI DUP2 MLOAD PUSH2 0x5842 DUP9 DUP3 PUSH2 0x57E9 JUMP JUMPDEST SWAP8 POP PUSH2 0x584D DUP4 PUSH2 0x5800 JUMP JUMPDEST SWAP3 POP POP PUSH1 0x1 DUP2 ADD SWAP1 POP PUSH2 0x582E JUMP JUMPDEST POP DUP6 SWAP4 POP POP POP POP SWAP3 SWAP2 POP POP JUMP JUMPDEST PUSH0 PUSH1 0x20 DUP3 ADD SWAP1 POP DUP2 DUP2 SUB PUSH0 DUP4 ADD MSTORE PUSH2 0x5880 DUP2 DUP5 PUSH2 0x580C JUMP JUMPDEST SWAP1 POP SWAP3 SWAP2 POP POP JUMP JUMPDEST PUSH0 DUP1 PUSH0 DUP1 PUSH0 PUSH1 0xA0 DUP7 DUP9 SUB SLT ISZERO PUSH2 0x58A1 JUMPI PUSH2 0x58A0 PUSH2 0x51BB JUMP JUMPDEST JUMPDEST PUSH0 PUSH2 0x58AE DUP9 DUP3 DUP10 ADD PUSH2 0x51E2 JUMP JUMPDEST SWAP6 POP POP PUSH1 0x20 PUSH2 0x58BF DUP9 DUP3 DUP10 ADD PUSH2 0x51E2 JUMP JUMPDEST SWAP5 POP POP PUSH1 0x40 DUP7 ADD CALLDATALOAD PUSH8 0xFFFFFFFFFFFFFFFF DUP2 GT ISZERO PUSH2 0x58E0 JUMPI PUSH2 0x58DF PUSH2 0x51BF JUMP JUMPDEST JUMPDEST PUSH2 0x58EC DUP9 DUP3 DUP10 ADD PUSH2 0x555C JUMP JUMPDEST SWAP4 POP POP PUSH1 0x60 PUSH2 0x58FD DUP9 DUP3 DUP10 ADD PUSH2 0x571D JUMP JUMPDEST SWAP3 POP POP PUSH1 0x80 PUSH2 0x590E DUP9 DUP3 DUP10 ADD PUSH2 0x51E2 JUMP JUMPDEST SWAP2 POP POP SWAP3 SWAP6 POP SWAP3 SWAP6 SWAP1 SWAP4 POP JUMP JUMPDEST PUSH0 DUP1 PUSH0 PUSH1 0x60 DUP5 DUP7 SUB SLT ISZERO PUSH2 0x5932 JUMPI PUSH2 0x5931 PUSH2 0x51BB JUMP JUMPDEST JUMPDEST PUSH0 PUSH2 0x593F DUP7 DUP3 DUP8 ADD PUSH2 0x54B3 JUMP JUMPDEST SWAP4 POP POP PUSH1 0x20 PUSH2 0x5950 DUP7 DUP3 DUP8 ADD PUSH2 0x571D JUMP JUMPDEST SWAP3 POP POP PUSH1 0x40 PUSH2 0x5961 DUP7 DUP3 DUP8 ADD PUSH2 0x51E2 JUMP JUMPDEST SWAP2 POP POP SWAP3 POP SWAP3 POP SWAP3 JUMP JUMPDEST PUSH0 PUSH3 0xFFFFFF DUP3 AND SWAP1 POP SWAP2 SWAP1 POP JUMP JUMPDEST PUSH2 0x5982 DUP2 PUSH2 0x596B JUMP JUMPDEST DUP2 EQ PUSH2 0x598C JUMPI PUSH0 DUP1 REVERT JUMPDEST POP JUMP JUMPDEST PUSH0 DUP2 CALLDATALOAD SWAP1 POP PUSH2 0x599D DUP2 PUSH2 0x5979 JUMP JUMPDEST SWAP3 SWAP2 POP POP JUMP JUMPDEST PUSH0 PUSH2 0xFFFF DUP3 AND SWAP1 POP SWAP2 SWAP1 POP JUMP JUMPDEST PUSH2 0x59B9 DUP2 PUSH2 0x59A3 JUMP JUMPDEST DUP2 EQ PUSH2 0x59C3 JUMPI PUSH0 DUP1 REVERT JUMPDEST POP JUMP JUMPDEST PUSH0 DUP2 CALLDATALOAD SWAP1 POP PUSH2 0x59D4 DUP2 PUSH2 0x59B0 JUMP JUMPDEST SWAP3 SWAP2 POP POP JUMP JUMPDEST PUSH0 DUP1 PUSH0 DUP1 PUSH1 0x80 DUP6 DUP8 SUB SLT ISZERO PUSH2 0x59F2 JUMPI PUSH2 0x59F1 PUSH2 0x51BB JUMP JUMPDEST JUMPDEST PUSH0 PUSH2 0x59FF DUP8 DUP3 DUP9 ADD PUSH2 0x54B3 JUMP JUMPDEST SWAP5 POP POP PUSH1 0x20 PUSH2 0x5A10 DUP8 DUP3 DUP9 ADD PUSH2 0x54B3 JUMP JUMPDEST SWAP4 POP POP PUSH1 0x40 PUSH2 0x5A21 DUP8 DUP3 DUP9 ADD PUSH2 0x598F JUMP JUMPDEST SWAP3 POP POP PUSH1 0x60 PUSH2 0x5A32 DUP8 DUP3 DUP9 ADD PUSH2 0x59C6 JUMP JUMPDEST SWAP2 POP POP SWAP3 SWAP6 SWAP2 SWAP5 POP SWAP3 POP JUMP JUMPDEST PUSH0 DUP2 SWAP1 POP SWAP2 SWAP1 POP JUMP JUMPDEST PUSH0 PUSH2 0x5A61 PUSH2 0x5A5C PUSH2 0x5A57 DUP5 PUSH2 0x545C JUMP JUMPDEST PUSH2 0x5A3E JUMP JUMPDEST PUSH2 0x545C JUMP JUMPDEST SWAP1 POP SWAP2 SWAP1 POP JUMP JUMPDEST PUSH0 PUSH2 0x5A72 DUP3 PUSH2 0x5A47 JUMP JUMPDEST SWAP1 POP SWAP2 SWAP1 POP JUMP JUMPDEST PUSH0 PUSH2 0x5A83 DUP3 PUSH2 0x5A68 JUMP JUMPDEST SWAP1 POP SWAP2 SWAP1 POP JUMP JUMPDEST PUSH2 0x5A93 DUP2 PUSH2 0x5A79 JUMP JUMPDEST DUP3 MSTORE POP POP JUMP JUMPDEST PUSH0 PUSH1 0x20 DUP3 ADD SWAP1 POP PUSH2 0x5AAC PUSH0 DUP4 ADD DUP5 PUSH2 0x5A8A JUMP JUMPDEST SWAP3 SWAP2 POP POP JUMP JUMPDEST PUSH0 PUSH2 0x5ABC DUP3 PUSH2 0x5A68 JUMP JUMPDEST SWAP1 POP SWAP2 SWAP1 POP JUMP JUMPDEST PUSH2 0x5ACC DUP2 PUSH2 0x5AB2 JUMP JUMPDEST DUP3 MSTORE POP POP JUMP JUMPDEST PUSH0 PUSH1 0x20 DUP3 ADD SWAP1 POP PUSH2 0x5AE5 PUSH0 DUP4 ADD DUP5 PUSH2 0x5AC3 JUMP JUMPDEST SWAP3 SWAP2 POP POP JUMP JUMPDEST PUSH0 DUP1 PUSH0 DUP1 PUSH0 DUP1 PUSH0 DUP1 PUSH2 0x100 DUP10 DUP12 SUB SLT ISZERO PUSH2 0x5B08 JUMPI PUSH2 0x5B07 PUSH2 0x51BB JUMP JUMPDEST JUMPDEST PUSH0 PUSH2 0x5B15 DUP12 DUP3 DUP13 ADD PUSH2 0x54B3 JUMP JUMPDEST SWAP9 POP POP PUSH1 0x20 PUSH2 0x5B26 DUP12 DUP3 DUP13 ADD PUSH2 0x59C6 JUMP JUMPDEST SWAP8 POP POP PUSH1 0x40 PUSH2 0x5B37 DUP12 DUP3 DUP13 ADD PUSH2 0x51E2 JUMP JUMPDEST SWAP7 POP POP PUSH1 0x60 PUSH2 0x5B48 DUP12 DUP3 DUP13 ADD PUSH2 0x51E2 JUMP JUMPDEST SWAP6 POP POP PUSH1 0x80 DUP10 ADD CALLDATALOAD PUSH8 0xFFFFFFFFFFFFFFFF DUP2 GT ISZERO PUSH2 0x5B69 JUMPI PUSH2 0x5B68 PUSH2 0x51BF JUMP JUMPDEST JUMPDEST PUSH2 0x5B75 DUP12 DUP3 DUP13 ADD PUSH2 0x5321 JUMP JUMPDEST SWAP5 POP POP PUSH1 0xA0 DUP10 ADD CALLDATALOAD PUSH8 0xFFFFFFFFFFFFFFFF DUP2 GT ISZERO PUSH2 0x5B96 JUMPI PUSH2 0x5B95 PUSH2 0x51BF JUMP JUMPDEST JUMPDEST PUSH2 0x5BA2 DUP12 DUP3 DUP13 ADD PUSH2 0x5321 JUMP JUMPDEST SWAP4 POP POP PUSH1 0xC0 PUSH2 0x5BB3 DUP12 DUP3 DUP13 ADD PUSH2 0x5638 JUMP JUMPDEST SWAP3 POP POP PUSH1 0xE0 PUSH2 0x5BC4 DUP12 DUP3 DUP13 ADD PUSH2 0x51E2 JUMP JUMPDEST SWAP2 POP POP SWAP3 SWAP6 SWAP9 POP SWAP3 SWAP6 SWAP9 SWAP1 SWAP4 SWAP7 POP JUMP JUMPDEST PUSH0 PUSH1 0x40 DUP3 ADD SWAP1 POP PUSH2 0x5BE7 PUSH0 DUP4 ADD DUP6 PUSH2 0x56DF JUMP JUMPDEST PUSH2 0x5BF4 PUSH1 0x20 DUP4 ADD DUP5 PUSH2 0x56DF JUMP JUMPDEST SWAP4 SWAP3 POP POP POP JUMP JUMPDEST PUSH0 PUSH2 0x5C05 DUP3 PUSH2 0x5A68 JUMP JUMPDEST SWAP1 POP SWAP2 SWAP1 POP JUMP JUMPDEST PUSH2 0x5C15 DUP2 PUSH2 0x5BFB JUMP JUMPDEST DUP3 MSTORE POP POP JUMP JUMPDEST PUSH0 PUSH1 0x20 DUP3 ADD SWAP1 POP PUSH2 0x5C2E PUSH0 DUP4 ADD DUP5 PUSH2 0x5C0C JUMP JUMPDEST SWAP3 SWAP2 POP POP JUMP JUMPDEST PUSH0 DUP1 REVERT JUMPDEST PUSH0 PUSH2 0x1E0 DUP3 DUP5 SUB SLT ISZERO PUSH2 0x5C4E JUMPI PUSH2 0x5C4D PUSH2 0x5C34 JUMP JUMPDEST JUMPDEST DUP2 SWAP1 POP SWAP3 SWAP2 POP POP JUMP JUMPDEST PUSH0 PUSH1 0x20 DUP3 DUP5 SUB SLT ISZERO PUSH2 0x5C6C JUMPI PUSH2 0x5C6B PUSH2 0x51BB JUMP JUMPDEST JUMPDEST PUSH0 DUP3 ADD CALLDATALOAD PUSH8 0xFFFFFFFFFFFFFFFF DUP2 GT ISZERO PUSH2 0x5C89 JUMPI PUSH2 0x5C88 PUSH2 0x51BF JUMP JUMPDEST JUMPDEST PUSH2 0x5C95 DUP5 DUP3 DUP6 ADD PUSH2 0x5C38 JUMP JUMPDEST SWAP2 POP POP SWAP3 SWAP2 POP POP JUMP JUMPDEST PUSH0 PUSH1 0xC0 DUP3 ADD SWAP1 POP PUSH2 0x5CB1 PUSH0 DUP4 ADD DUP10 PUSH2 0x56DF JUMP JUMPDEST PUSH2 0x5CBE PUSH1 0x20 DUP4 ADD DUP9 PUSH2 0x56DF JUMP JUMPDEST PUSH2 0x5CCB PUSH1 0x40 DUP4 ADD DUP8 PUSH2 0x56DF JUMP JUMPDEST PUSH2 0x5CD8 PUSH1 0x60 DUP4 ADD DUP7 PUSH2 0x56DF JUMP JUMPDEST DUP2 DUP2 SUB PUSH1 0x80 DUP4 ADD MSTORE PUSH2 0x5CEA DUP2 DUP6 PUSH2 0x580C JUMP JUMPDEST SWAP1 POP DUP2 DUP2 SUB PUSH1 0xA0 DUP4 ADD MSTORE PUSH2 0x5CFE DUP2 DUP5 PUSH2 0x580C JUMP JUMPDEST SWAP1 POP SWAP8 SWAP7 POP POP POP POP POP POP POP JUMP JUMPDEST PUSH0 PUSH2 0x5D15 DUP3 PUSH2 0x547B JUMP JUMPDEST SWAP1 POP SWAP2 SWAP1 POP JUMP JUMPDEST PUSH2 0x5D25 DUP2 PUSH2 0x5D0B JUMP JUMPDEST DUP2 EQ PUSH2 0x5D2F JUMPI PUSH0 DUP1 REVERT JUMPDEST POP JUMP JUMPDEST PUSH0 DUP2 CALLDATALOAD SWAP1 POP PUSH2 0x5D40 DUP2 PUSH2 0x5D1C JUMP JUMPDEST SWAP3 SWAP2 POP POP JUMP JUMPDEST PUSH0 PUSH16 0xFFFFFFFFFFFFFFFFFFFFFFFFFFFFFFFF DUP3 AND SWAP1 POP SWAP2 SWAP1 POP JUMP JUMPDEST PUSH2 0x5D6A DUP2 PUSH2 0x5D46 JUMP JUMPDEST DUP2 EQ PUSH2 0x5D74 JUMPI PUSH0 DUP1 REVERT JUMPDEST POP JUMP JUMPDEST PUSH0 DUP2 CALLDATALOAD SWAP1 POP PUSH2 0x5D85 DUP2 PUSH2 0x5D61 JUMP JUMPDEST SWAP3 SWAP2 POP POP JUMP JUMPDEST PUSH0 DUP2 ISZERO ISZERO SWAP1 POP SWAP2 SWAP1 POP JUMP JUMPDEST PUSH2 0x5D9F DUP2 PUSH2 0x5D8B JUMP JUMPDEST DUP2 EQ PUSH2 0x5DA9 JUMPI PUSH0 DUP1 REVERT JUMPDEST POP JUMP JUMPDEST PUSH0 DUP2 CALLDATALOAD SWAP1 POP PUSH2 0x5DBA DUP2 PUSH2 0x5D96 JUMP JUMPDEST SWAP3 SWAP2 POP POP JUMP JUMPDEST PUSH0 DUP1 PUSH0 PUSH1 0x60 DUP5 DUP7 SUB SLT ISZERO PUSH2 0x5DD7 JUMPI PUSH2 0x5DD6 PUSH2 0x51BB JUMP JUMPDEST JUMPDEST PUSH0 PUSH2 0x5DE4 DUP7 DUP3 DUP8 ADD PUSH2 0x5D32 JUMP JUMPDEST SWAP4 POP POP PUSH1 0x20 PUSH2 0x5DF5 DUP7 DUP3 DUP8 ADD PUSH2 0x5D77 JUMP JUMPDEST SWAP3 POP POP PUSH1 0x40 PUSH2 0x5E06 DUP7 DUP3 DUP8 ADD PUSH2 0x5DAC JUMP JUMPDEST SWAP2 POP POP SWAP3 POP SWAP3 POP SWAP3 JUMP JUMPDEST PUSH2 0x5E19 DUP2 PUSH2 0x5D46 JUMP JUMPDEST DUP3 MSTORE POP POP JUMP JUMPDEST PUSH0 PUSH1 0x60 DUP3 ADD SWAP1 POP PUSH2 0x5E32 PUSH0 DUP4 ADD DUP7 PUSH2 0x5E10 JUMP JUMPDEST PUSH2 0x5E3F PUSH1 0x20 DUP4 ADD DUP6 PUSH2 0x5E10 JUMP JUMPDEST PUSH2 0x5E4C PUSH1 0x40 DUP4 ADD DUP5 PUSH2 0x5E10 JUMP JUMPDEST SWAP5 SWAP4 POP POP POP POP JUMP JUMPDEST PUSH0 PUSH2 0x5E5E DUP3 PUSH2 0x5A68 JUMP JUMPDEST SWAP1 POP SWAP2 SWAP1 POP JUMP JUMPDEST PUSH2 0x5E6E DUP2 PUSH2 0x5E54 JUMP JUMPDEST DUP3 MSTORE POP POP JUMP JUMPDEST PUSH0 PUSH1 0x20 DUP3 ADD SWAP1 POP PUSH2 0x5E87 PUSH0 DUP4 ADD DUP5 PUSH2 0x5E65 JUMP JUMPDEST SWAP3 SWAP2 POP POP JUMP JUMPDEST PUSH0 DUP1 PUSH0 DUP1 PUSH0 DUP1 PUSH0 DUP1 PUSH0 PUSH2 0x120 DUP11 DUP13 SUB SLT ISZERO PUSH2 0x5EAB JUMPI PUSH2 0x5EAA PUSH2 0x51BB JUMP JUMPDEST JUMPDEST PUSH0 PUSH2 0x5EB8 DUP13 DUP3 DUP14 ADD PUSH2 0x54B3 JUMP JUMPDEST SWAP10 POP POP PUSH1 0x20 PUSH2 0x5EC9 DUP13 DUP3 DUP14 ADD PUSH2 0x54B3 JUMP JUMPDEST SWAP9 POP POP PUSH1 0x40 PUSH2 0x5EDA DUP13 DUP3 DUP14 ADD PUSH2 0x59C6 JUMP JUMPDEST SWAP8 POP POP PUSH1 0x60 PUSH2 0x5EEB DUP13 DUP3 DUP14 ADD PUSH2 0x51E2 JUMP JUMPDEST SWAP7 POP POP PUSH1 0x80 PUSH2 0x5EFC DUP13 DUP3 DUP14 ADD PUSH2 0x51E2 JUMP JUMPDEST SWAP6 POP POP PUSH1 0xA0 DUP11 ADD CALLDATALOAD PUSH8 0xFFFFFFFFFFFFFFFF DUP2 GT ISZERO PUSH2 0x5F1D JUMPI PUSH2 0x5F1C PUSH2 0x51BF JUMP JUMPDEST JUMPDEST PUSH2 0x5F29 DUP13 DUP3 DUP14 ADD PUSH2 0x5321 JUMP JUMPDEST SWAP5 POP POP PUSH1 0xC0 DUP11 ADD CALLDATALOAD PUSH8 0xFFFFFFFFFFFFFFFF DUP2 GT ISZERO PUSH2 0x5F4A JUMPI PUSH2 0x5F49 PUSH2 0x51BF JUMP JUMPDEST JUMPDEST PUSH2 0x5F56 DUP13 DUP3 DUP14 ADD PUSH2 0x5321 JUMP JUMPDEST SWAP4 POP POP PUSH1 0xE0 PUSH2 0x5F67 DUP13 DUP3 DUP14 ADD PUSH2 0x571D JUMP JUMPDEST SWAP3 POP POP PUSH2 0x100 PUSH2 0x5F79 DUP13 DUP3 DUP14 ADD PUSH2 0x51E2 JUMP JUMPDEST SWAP2 POP POP SWAP3 SWAP6 SWAP9 POP SWAP3 SWAP6 SWAP9 POP SWAP3 SWAP6 SWAP9 JUMP JUMPDEST PUSH0 DUP1 PUSH1 0x40 DUP4 DUP6 SUB SLT ISZERO PUSH2 0x5F9F JUMPI PUSH2 0x5F9E PUSH2 0x51BB JUMP JUMPDEST JUMPDEST PUSH0 PUSH2 0x5FAC DUP6 DUP3 DUP7 ADD PUSH2 0x5D32 JUMP JUMPDEST SWAP3 POP POP PUSH1 0x20 PUSH2 0x5FBD DUP6 DUP3 DUP7 ADD PUSH2 0x598F JUMP JUMPDEST SWAP2 POP POP SWAP3 POP SWAP3 SWAP1 POP JUMP JUMPDEST PUSH0 PUSH2 0x5FD1 DUP3 PUSH2 0x547B JUMP JUMPDEST SWAP1 POP SWAP2 SWAP1 POP JUMP JUMPDEST PUSH2 0x5FE1 DUP2 PUSH2 0x5FC7 JUMP JUMPDEST DUP2 EQ PUSH2 0x5FEB JUMPI PUSH0 DUP1 REVERT JUMPDEST POP JUMP JUMPDEST PUSH0 DUP2 CALLDATALOAD SWAP1 POP PUSH2 0x5FFC DUP2 PUSH2 0x5FD8 JUMP JUMPDEST SWAP3 SWAP2 POP POP JUMP JUMPDEST PUSH0 DUP1 REVERT JUMPDEST PUSH0 DUP1 DUP4 PUSH1 0x1F DUP5 ADD SLT PUSH2 0x601B JUMPI PUSH2 0x601A PUSH2 0x5286 JUMP JUMPDEST JUMPDEST DUP3 CALLDATALOAD SWAP1 POP PUSH8 0xFFFFFFFFFFFFFFFF DUP2 GT ISZERO PUSH2 0x6038 JUMPI PUSH2 0x6037 PUSH2 0x6002 JUMP JUMPDEST JUMPDEST PUSH1 0x20 DUP4 ADD SWAP2 POP DUP4 PUSH1 0x20 DUP3 MUL DUP4 ADD GT ISZERO PUSH2 0x6054 JUMPI PUSH2 0x6053 PUSH2 0x52B5 JUMP JUMPDEST JUMPDEST SWAP3 POP SWAP3 SWAP1 POP JUMP JUMPDEST PUSH0 DUP1 PUSH0 DUP1 PUSH0 DUP1 PUSH1 0x80 DUP8 DUP10 SUB SLT ISZERO PUSH2 0x6075 JUMPI PUSH2 0x6074 PUSH2 0x51BB JUMP JUMPDEST JUMPDEST PUSH0 PUSH2 0x6082 DUP10 DUP3 DUP11 ADD PUSH2 0x5FEE JUMP JUMPDEST SWAP7 POP POP PUSH1 0x20 PUSH2 0x6093 DUP10 DUP3 DUP11 ADD PUSH2 0x571D JUMP JUMPDEST SWAP6 POP POP PUSH1 0x40 DUP8 ADD CALLDATALOAD PUSH8 0xFFFFFFFFFFFFFFFF DUP2 GT ISZERO PUSH2 0x60B4 JUMPI PUSH2 0x60B3 PUSH2 0x51BF JUMP JUMPDEST JUMPDEST PUSH2 0x60C0 DUP10 DUP3 DUP11 ADD PUSH2 0x6006 JUMP JUMPDEST SWAP5 POP SWAP5 POP POP PUSH1 0x60 DUP8 ADD CALLDATALOAD PUSH8 0xFFFFFFFFFFFFFFFF DUP2 GT ISZERO PUSH2 0x60E3 JUMPI PUSH2 0x60E2 PUSH2 0x51BF JUMP JUMPDEST JUMPDEST PUSH2 0x60EF DUP10 DUP3 DUP11 ADD PUSH2 0x6006 JUMP JUMPDEST SWAP3 POP SWAP3 POP POP SWAP3 SWAP6 POP SWAP3 SWAP6 POP SWAP3 SWAP6 JUMP JUMPDEST PUSH0 DUP1 PUSH1 0x40 DUP4 DUP6 SUB SLT ISZERO PUSH2 0x6114 JUMPI PUSH2 0x6113 PUSH2 0x51BB JUMP JUMPDEST JUMPDEST PUSH0 PUSH2 0x6121 DUP6 DUP3 DUP7 ADD PUSH2 0x5D32 JUMP JUMPDEST SWAP3 POP POP PUSH1 0x20 PUSH2 0x6132 DUP6 DUP3 DUP7 ADD PUSH2 0x51E2 JUMP JUMPDEST SWAP2 POP POP SWAP3 POP SWAP3 SWAP1 POP JUMP JUMPDEST PUSH2 0x6145 DUP2 PUSH2 0x596B JUMP JUMPDEST DUP3 MSTORE POP POP JUMP JUMPDEST PUSH0 PUSH1 0x20 DUP3 ADD SWAP1 POP PUSH2 0x615E PUSH0 DUP4 ADD DUP5 PUSH2 0x613C JUMP JUMPDEST SWAP3 SWAP2 POP POP JUMP JUMPDEST PUSH32 0x4E487B7100000000000000000000000000000000000000000000000000000000 PUSH0 MSTORE PUSH1 0x11 PUSH1 0x4 MSTORE PUSH1 0x24 PUSH0 REVERT JUMPDEST PUSH0 PUSH2 0x619B DUP3 PUSH2 0x51C3 JUMP JUMPDEST SWAP2 POP PUSH2 0x61A6 DUP4 PUSH2 0x51C3 JUMP JUMPDEST SWAP3 POP DUP3 DUP3 ADD SWAP1 POP DUP1 DUP3 GT ISZERO PUSH2 0x61BE JUMPI PUSH2 0x61BD PUSH2 0x6164 JUMP JUMPDEST JUMPDEST SWAP3 SWAP2 POP POP JUMP JUMPDEST PUSH32 0x4E487B7100000000000000000000000000000000000000000000000000000000 PUSH0 MSTORE PUSH1 0x32 PUSH1 0x4 MSTORE PUSH1 0x24 PUSH0 REVERT JUMPDEST PUSH2 0x61FA DUP2 PUSH2 0x547B JUMP JUMPDEST DUP3 MSTORE POP POP JUMP JUMPDEST PUSH0 PUSH1 0x20 DUP3 ADD SWAP1 POP PUSH2 0x6213 PUSH0 DUP4 ADD DUP5 PUSH2 0x61F1 JUMP JUMPDEST SWAP3 SWAP2 POP POP JUMP JUMPDEST PUSH0 DUP2 MLOAD SWAP1 POP PUSH2 0x6227 DUP2 PUSH2 0x51CC JUMP JUMPDEST SWAP3 SWAP2 POP POP JUMP JUMPDEST PUSH0 PUSH1 0x20 DUP3 DUP5 SUB SLT ISZERO PUSH2 0x6242 JUMPI PUSH2 0x6241 PUSH2 0x51BB JUMP JUMPDEST JUMPDEST PUSH0 PUSH2 0x624F DUP5 DUP3 DUP6 ADD PUSH2 0x6219 JUMP JUMPDEST SWAP2 POP POP SWAP3 SWAP2 POP POP JUMP JUMPDEST PUSH0 PUSH2 0x6262 DUP3 PUSH2 0x51C3 JUMP JUMPDEST SWAP2 POP PUSH2 0x626D DUP4 PUSH2 0x51C3 JUMP JUMPDEST SWAP3 POP DUP3 DUP3 SUB SWAP1 POP DUP2 DUP2 GT ISZERO PUSH2 0x6285 JUMPI PUSH2 0x6284 PUSH2 0x6164 JUMP JUMPDEST JUMPDEST SWAP3 SWAP2 POP POP JUMP JUMPDEST PUSH0 DUP2 MLOAD SWAP1 POP PUSH2 0x6299 DUP2 PUSH2 0x5707 JUMP JUMPDEST SWAP3 SWAP2 POP POP JUMP JUMPDEST PUSH0 PUSH1 0x20 DUP3 DUP5 SUB SLT ISZERO PUSH2 0x62B4 JUMPI PUSH2 0x62B3 PUSH2 0x51BB JUMP JUMPDEST JUMPDEST PUSH0 PUSH2 0x62C1 DUP5 DUP3 DUP6 ADD PUSH2 0x628B JUMP JUMPDEST SWAP2 POP POP SWAP3 SWAP2 POP POP JUMP JUMPDEST PUSH0 PUSH2 0x62D4 DUP3 PUSH2 0x5A68 JUMP JUMPDEST SWAP1 POP SWAP2 SWAP1 POP JUMP JUMPDEST PUSH2 0x62E4 DUP2 PUSH2 0x62CA JUMP JUMPDEST DUP3 MSTORE POP POP JUMP JUMPDEST PUSH2 0x62F3 DUP2 PUSH2 0x59A3 JUMP JUMPDEST DUP3 MSTORE POP POP JUMP JUMPDEST PUSH0 PUSH1 0x80 DUP3 ADD SWAP1 POP PUSH2 0x630C PUSH0 DUP4 ADD DUP8 PUSH2 0x62DB JUMP JUMPDEST PUSH2 0x6319 PUSH1 0x20 DUP4 ADD DUP7 PUSH2 0x62DB JUMP JUMPDEST PUSH2 0x6326 PUSH1 0x40 DUP4 ADD DUP6 PUSH2 0x613C JUMP JUMPDEST PUSH2 0x6333 PUSH1 0x60 DUP4 ADD DUP5 PUSH2 0x62EA JUMP JUMPDEST SWAP6 SWAP5 POP POP POP POP POP JUMP JUMPDEST PUSH0 DUP2 MLOAD SWAP1 POP PUSH2 0x634A DUP2 PUSH2 0x5D1C JUMP JUMPDEST SWAP3 SWAP2 POP POP JUMP JUMPDEST PUSH0 PUSH1 0x20 DUP3 DUP5 SUB SLT ISZERO PUSH2 0x6365 JUMPI PUSH2 0x6364 PUSH2 0x51BB JUMP JUMPDEST JUMPDEST PUSH0 PUSH2 0x6372 DUP5 DUP3 DUP6 ADD PUSH2 0x633C JUMP JUMPDEST SWAP2 POP POP SWAP3 SWAP2 POP POP JUMP JUMPDEST PUSH0 DUP2 SWAP1 POP SWAP2 SWAP1 POP JUMP JUMPDEST PUSH0 PUSH8 0xFFFFFFFFFFFFFFFF DUP3 AND SWAP1 POP SWAP2 SWAP1 POP JUMP JUMPDEST PUSH0 PUSH2 0x63B1 PUSH2 0x63AC PUSH2 0x63A7 DUP5 PUSH2 0x637B JUMP JUMPDEST PUSH2 0x5A3E JUMP JUMPDEST PUSH2 0x6384 JUMP JUMPDEST SWAP1 POP SWAP2 SWAP1 POP JUMP JUMPDEST PUSH2 0x63C1 DUP2 PUSH2 0x6397 JUMP JUMPDEST DUP3 MSTORE POP POP JUMP JUMPDEST PUSH0 PUSH1 0x20 DUP3 ADD SWAP1 POP PUSH2 0x63DA PUSH0 DUP4 ADD DUP5 PUSH2 0x63B8 JUMP JUMPDEST SWAP3 SWAP2 POP POP JUMP JUMPDEST PUSH0 DUP2 MLOAD SWAP1 POP PUSH2 0x63EE DUP2 PUSH2 0x549D JUMP JUMPDEST SWAP3 SWAP2 POP POP JUMP JUMPDEST PUSH0 PUSH1 0x20 DUP3 DUP5 SUB SLT ISZERO PUSH2 0x6409 JUMPI PUSH2 0x6408 PUSH2 0x51BB JUMP JUMPDEST JUMPDEST PUSH0 PUSH2 0x6416 DUP5 DUP3 DUP6 ADD PUSH2 0x63E0 JUMP JUMPDEST SWAP2 POP POP SWAP3 SWAP2 POP POP JUMP JUMPDEST PUSH0 PUSH1 0x20 DUP3 DUP5 SUB SLT ISZERO PUSH2 0x6434 JUMPI PUSH2 0x6433 PUSH2 0x51BB JUMP JUMPDEST JUMPDEST PUSH0 PUSH2 0x6441 DUP5 DUP3 DUP6 ADD PUSH2 0x54B3 JUMP JUMPDEST SWAP2 POP POP SWAP3 SWAP2 POP POP JUMP JUMPDEST PUSH0 PUSH1 0xA0 DUP3 ADD SWAP1 POP PUSH2 0x645D PUSH0 DUP4 ADD DUP9 PUSH2 0x61F1 JUMP JUMPDEST PUSH2 0x646A PUSH1 0x20 DUP4 ADD DUP8 PUSH2 0x61F1 JUMP JUMPDEST PUSH2 0x6477 PUSH1 0x40 DUP4 ADD DUP7 PUSH2 0x56DF JUMP JUMPDEST PUSH2 0x6484 PUSH1 0x60 DUP4 ADD DUP6 PUSH2 0x56DF JUMP JUMPDEST PUSH2 0x6491 PUSH1 0x80 DUP4 ADD DUP5 PUSH2 0x56DF JUMP JUMPDEST SWAP7 SWAP6 POP POP POP POP POP POP JUMP JUMPDEST PUSH2 0x64A4 DUP2 PUSH2 0x5D8B JUMP JUMPDEST DUP3 MSTORE POP POP JUMP JUMPDEST PUSH0 PUSH1 0x40 DUP3 ADD SWAP1 POP PUSH2 0x64BD PUSH0 DUP4 ADD DUP6 PUSH2 0x5E10 JUMP JUMPDEST PUSH2 0x64CA PUSH1 0x20 DUP4 ADD DUP5 PUSH2 0x649B JUMP JUMPDEST SWAP4 SWAP3 POP POP POP JUMP JUMPDEST PUSH0 DUP2 MLOAD SWAP1 POP PUSH2 0x64DF DUP2 PUSH2 0x5D61 JUMP JUMPDEST SWAP3 SWAP2 POP POP JUMP JUMPDEST PUSH0 DUP1 PUSH0 PUSH1 0x60 DUP5 DUP7 SUB SLT ISZERO PUSH2 0x64FC JUMPI PUSH2 0x64FB PUSH2 0x51BB JUMP JUMPDEST JUMPDEST PUSH0 PUSH2 0x6509 DUP7 DUP3 DUP8 ADD PUSH2 0x64D1 JUMP JUMPDEST SWAP4 POP POP PUSH1 0x20 PUSH2 0x651A DUP7 DUP3 DUP8 ADD PUSH2 0x64D1 JUMP JUMPDEST SWAP3 POP POP PUSH1 0x40 PUSH2 0x652B DUP7 DUP3 DUP8 ADD PUSH2 0x64D1 JUMP JUMPDEST SWAP2 POP POP SWAP3 POP SWAP3 POP SWAP3 JUMP JUMPDEST PUSH0 DUP1 REVERT JUMPDEST DUP3 DUP2 DUP4 CALLDATACOPY POP POP POP JUMP JUMPDEST PUSH0 PUSH2 0x654D DUP4 DUP6 PUSH2 0x57BB JUMP JUMPDEST SWAP4 POP PUSH32 0x7FFFFFFFFFFFFFFFFFFFFFFFFFFFFFFFFFFFFFFFFFFFFFFFFFFFFFFFFFFFFFF DUP4 GT ISZERO PUSH2 0x6580 JUMPI PUSH2 0x657F PUSH2 0x6535 JUMP JUMPDEST JUMPDEST PUSH1 0x20 DUP4 MUL SWAP3 POP PUSH2 0x6591 DUP4 DUP6 DUP5 PUSH2 0x6539 JUMP JUMPDEST DUP3 DUP5 ADD SWAP1 POP SWAP4 SWAP3 POP POP POP JUMP JUMPDEST PUSH0 PUSH1 0x80 DUP3 ADD SWAP1 POP PUSH2 0x65B0 PUSH0 DUP4 ADD DUP10 PUSH2 0x61F1 JUMP JUMPDEST PUSH2 0x65BD PUSH1 0x20 DUP4 ADD DUP9 PUSH2 0x61F1 JUMP JUMPDEST DUP2 DUP2 SUB PUSH1 0x40 DUP4 ADD MSTORE PUSH2 0x65D0 DUP2 DUP7 DUP9 PUSH2 0x6542 JUMP JUMPDEST SWAP1 POP DUP2 DUP2 SUB PUSH1 0x60 DUP4 ADD MSTORE PUSH2 0x65E5 DUP2 DUP5 DUP7 PUSH2 0x6542 JUMP JUMPDEST SWAP1 POP SWAP8 SWAP7 POP POP POP POP POP POP POP JUMP JUMPDEST PUSH0 DUP2 MLOAD SWAP1 POP PUSH2 0x6600 DUP2 PUSH2 0x5979 JUMP JUMPDEST SWAP3 SWAP2 POP POP JUMP JUMPDEST PUSH0 PUSH1 0x20 DUP3 DUP5 SUB SLT ISZERO PUSH2 0x661B JUMPI PUSH2 0x661A PUSH2 0x51BB JUMP JUMPDEST JUMPDEST PUSH0 PUSH2 0x6628 DUP5 DUP3 DUP6 ADD PUSH2 0x65F2 JUMP JUMPDEST SWAP2 POP POP SWAP3 SWAP2 POP POP JUMP JUMPDEST PUSH32 0x4E487B7100000000000000000000000000000000000000000000000000000000 PUSH0 MSTORE PUSH1 0x21 PUSH1 0x4 MSTORE PUSH1 0x24 PUSH0 REVERT JUMPDEST PUSH0 PUSH14 0xFFFFFFFFFFFFFFFFFFFFFFFFFFFF DUP3 AND SWAP1 POP SWAP2 SWAP1 POP JUMP JUMPDEST PUSH2 0x6680 DUP2 PUSH2 0x665E JUMP JUMPDEST DUP2 EQ PUSH2 0x668A JUMPI PUSH0 DUP1 REVERT JUMPDEST POP JUMP JUMPDEST PUSH0 DUP2 MLOAD SWAP1 POP PUSH2 0x669B DUP2 PUSH2 0x6677 JUMP JUMPDEST SWAP3 SWAP2 POP POP JUMP JUMPDEST PUSH0 PUSH4 0xFFFFFFFF DUP3 AND SWAP1 POP SWAP2 SWAP1 POP JUMP JUMPDEST PUSH2 0x66B9 DUP2 PUSH2 0x66A1 JUMP JUMPDEST DUP2 EQ PUSH2 0x66C3 JUMPI PUSH0 DUP1 REVERT JUMPDEST POP JUMP JUMPDEST PUSH0 DUP2 MLOAD SWAP1 POP PUSH2 0x66D4 DUP2 PUSH2 0x66B0 JUMP JUMPDEST SWAP3 SWAP2 POP POP JUMP JUMPDEST PUSH0 DUP1 PUSH0 PUSH1 0x60 DUP5 DUP7 SUB SLT ISZERO PUSH2 0x66F1 JUMPI PUSH2 0x66F0 PUSH2 0x51BB JUMP JUMPDEST JUMPDEST PUSH0 PUSH2 0x66FE DUP7 DUP3 DUP8 ADD PUSH2 0x668D JUMP JUMPDEST SWAP4 POP POP PUSH1 0x20 PUSH2 0x670F DUP7 DUP3 DUP8 ADD PUSH2 0x668D JUMP JUMPDEST SWAP3 POP POP PUSH1 0x40 PUSH2 0x6720 DUP7 DUP3 DUP8 ADD PUSH2 0x66C6 JUMP JUMPDEST SWAP2 POP POP SWAP3 POP SWAP3 POP SWAP3 JUMP JUMPDEST PUSH0 DUP2 SWAP1 POP SWAP2 SWAP1 POP JUMP JUMPDEST PUSH0 PUSH2 0x674D PUSH2 0x6748 PUSH2 0x6743 DUP5 PUSH2 0x672A JUMP JUMPDEST PUSH2 0x5A3E JUMP JUMPDEST PUSH2 0x51C3 JUMP JUMPDEST SWAP1 POP SWAP2 SWAP1 POP JUMP JUMPDEST PUSH2 0x675D DUP2 PUSH2 0x6733 JUMP JUMPDEST DUP3 MSTORE POP POP JUMP JUMPDEST PUSH0 DUP3 DUP3 MSTORE PUSH1 0x20 DUP3 ADD SWAP1 POP SWAP3 SWAP2 POP POP JUMP JUMPDEST POP JUMP JUMPDEST PUSH0 PUSH2 0x6781 PUSH0 DUP4 PUSH2 0x6763 JUMP JUMPDEST SWAP2 POP PUSH2 0x678C DUP3 PUSH2 0x6773 JUMP JUMPDEST PUSH0 DUP3 ADD SWAP1 POP SWAP2 SWAP1 POP JUMP JUMPDEST PUSH0 PUSH1 0x80 DUP3 ADD SWAP1 POP PUSH2 0x67A9 PUSH0 DUP4 ADD DUP7 PUSH2 0x6754 JUMP JUMPDEST PUSH2 0x67B6 PUSH1 0x20 DUP4 ADD DUP6 PUSH2 0x56DF JUMP JUMPDEST PUSH2 0x67C3 PUSH1 0x40 DUP4 ADD DUP5 PUSH2 0x61F1 JUMP JUMPDEST DUP2 DUP2 SUB PUSH1 0x60 DUP4 ADD MSTORE PUSH2 0x67D4 DUP2 PUSH2 0x6776 JUMP JUMPDEST SWAP1 POP SWAP5 SWAP4 POP POP POP POP JUMP JUMPDEST PUSH0 PUSH1 0x80 DUP3 ADD SWAP1 POP PUSH2 0x67F1 PUSH0 DUP4 ADD DUP7 PUSH2 0x56DF JUMP JUMPDEST PUSH2 0x67FE PUSH1 0x20 DUP4 ADD DUP6 PUSH2 0x6754 JUMP JUMPDEST PUSH2 0x680B PUSH1 0x40 DUP4 ADD DUP5 PUSH2 0x61F1 JUMP JUMPDEST DUP2 DUP2 SUB PUSH1 0x60 DUP4 ADD MSTORE PUSH2 0x681C DUP2 PUSH2 0x6776 JUMP JUMPDEST SWAP1 POP SWAP5 SWAP4 POP POP POP POP JUMP JUMPDEST PUSH0 PUSH1 0x40 DUP3 ADD SWAP1 POP PUSH2 0x6839 PUSH0 DUP4 ADD DUP6 PUSH2 0x649B JUMP JUMPDEST PUSH2 0x6846 PUSH1 0x20 DUP4 ADD DUP5 PUSH2 0x61F1 JUMP JUMPDEST SWAP4 SWAP3 POP POP POP JUMP JUMPDEST PUSH0 DUP2 SWAP1 POP SWAP2 SWAP1 POP JUMP JUMPDEST PUSH2 0x685F DUP2 PUSH2 0x684D JUMP JUMPDEST DUP2 EQ PUSH2 0x6869 JUMPI PUSH0 DUP1 REVERT JUMPDEST POP JUMP JUMPDEST PUSH0 DUP2 MLOAD SWAP1 POP PUSH2 0x687A DUP2 PUSH2 0x6856 JUMP JUMPDEST SWAP3 SWAP2 POP POP JUMP JUMPDEST PUSH0 PUSH1 0x20 DUP3 DUP5 SUB SLT ISZERO PUSH2 0x6895 JUMPI PUSH2 0x6894 PUSH2 0x51BB JUMP JUMPDEST JUMPDEST PUSH0 PUSH2 0x68A2 DUP5 DUP3 DUP6 ADD PUSH2 0x686C JUMP JUMPDEST SWAP2 POP POP SWAP3 SWAP2 POP POP JUMP JUMPDEST PUSH0 PUSH2 0x68B5 DUP3 PUSH2 0x51C3 JUMP JUMPDEST SWAP2 POP PUSH0 DUP3 SUB PUSH2 0x68C7 JUMPI PUSH2 0x68C6 PUSH2 0x6164 JUMP JUMPDEST JUMPDEST PUSH1 0x1 DUP3 SUB SWAP1 POP SWAP2 SWAP1 POP JUMP JUMPDEST PUSH0 DUP2 SWAP1 POP SWAP3 SWAP2 POP POP JUMP JUMPDEST PUSH0 PUSH2 0x68E7 PUSH0 DUP4 PUSH2 0x68D2 JUMP JUMPDEST SWAP2 POP PUSH2 0x68F2 DUP3 PUSH2 0x6773 JUMP JUMPDEST PUSH0 DUP3 ADD SWAP1 POP SWAP2 SWAP1 POP JUMP JUMPDEST PUSH0 PUSH2 0x6906 DUP3 PUSH2 0x68DC JUMP JUMPDEST SWAP2 POP DUP2 SWAP1 POP SWAP2 SWAP1 POP JUMP JUMPDEST PUSH0 PUSH1 0x40 DUP3 ADD SWAP1 POP PUSH2 0x6923 PUSH0 DUP4 ADD DUP6 PUSH2 0x61F1 JUMP JUMPDEST PUSH2 0x6930 PUSH1 0x20 DUP4 ADD DUP5 PUSH2 0x56DF JUMP JUMPDEST SWAP4 SWAP3 POP POP POP JUMP JUMPDEST PUSH0 PUSH1 0x60 DUP3 ADD SWAP1 POP PUSH2 0x694A PUSH0 DUP4 ADD DUP7 PUSH2 0x62DB JUMP JUMPDEST PUSH2 0x6957 PUSH1 0x20 DUP4 ADD DUP6 PUSH2 0x62DB JUMP JUMPDEST PUSH2 0x6964 PUSH1 0x40 DUP4 ADD DUP5 PUSH2 0x56DF JUMP JUMPDEST SWAP5 SWAP4 POP POP POP POP JUMP JUMPDEST PUSH0 DUP2 MLOAD SWAP1 POP PUSH2 0x697A DUP2 PUSH2 0x59B0 JUMP JUMPDEST SWAP3 SWAP2 POP POP JUMP JUMPDEST PUSH0 DUP2 MLOAD SWAP1 POP PUSH2 0x698E DUP2 PUSH2 0x5D96 JUMP JUMPDEST SWAP3 SWAP2 POP POP JUMP JUMPDEST PUSH0 PUSH1 0x80 DUP3 DUP5 SUB SLT ISZERO PUSH2 0x69A9 JUMPI PUSH2 0x69A8 PUSH2 0x51F6 JUMP JUMPDEST JUMPDEST PUSH2 0x69B3 PUSH1 0x80 PUSH2 0x5268 JUMP JUMPDEST SWAP1 POP PUSH0 PUSH2 0x69C2 DUP5 DUP3 DUP6 ADD PUSH2 0x696C JUMP JUMPDEST PUSH0 DUP4 ADD MSTORE POP PUSH1 0x20 PUSH2 0x69D5 DUP5 DUP3 DUP6 ADD PUSH2 0x633C JUMP JUMPDEST PUSH1 0x20 DUP4 ADD MSTORE POP PUSH1 0x40 PUSH2 0x69E9 DUP5 DUP3 DUP6 ADD PUSH2 0x6980 JUMP JUMPDEST PUSH1 0x40 DUP4 ADD MSTORE POP PUSH1 0x60 PUSH2 0x69FD DUP5 DUP3 DUP6 ADD PUSH2 0x6980 JUMP JUMPDEST PUSH1 0x60 DUP4 ADD MSTORE POP SWAP3 SWAP2 POP POP JUMP JUMPDEST PUSH0 PUSH1 0x80 DUP3 DUP5 SUB SLT ISZERO PUSH2 0x6A1E JUMPI PUSH2 0x6A1D PUSH2 0x51BB JUMP JUMPDEST JUMPDEST PUSH0 PUSH2 0x6A2B DUP5 DUP3 DUP6 ADD PUSH2 0x6994 JUMP JUMPDEST SWAP2 POP POP SWAP3 SWAP2 POP POP JUMP JUMPDEST PUSH0 PUSH1 0x60 DUP3 ADD SWAP1 POP PUSH2 0x6A47 PUSH0 DUP4 ADD DUP7 PUSH2 0x61F1 JUMP JUMPDEST PUSH2 0x6A54 PUSH1 0x20 DUP4 ADD DUP6 PUSH2 0x61F1 JUMP JUMPDEST PUSH2 0x6A61 PUSH1 0x40 DUP4 ADD DUP5 PUSH2 0x56DF JUMP JUMPDEST SWAP5 SWAP4 POP POP POP POP JUMP JUMPDEST PUSH0 PUSH1 0x80 DUP3 ADD SWAP1 POP PUSH2 0x6A7C PUSH0 DUP4 ADD DUP8 PUSH2 0x61F1 JUMP JUMPDEST PUSH2 0x6A89 PUSH1 0x20 DUP4 ADD DUP7 PUSH2 0x61F1 JUMP JUMPDEST DUP2 DUP2 SUB PUSH1 0x40 DUP4 ADD MSTORE PUSH2 0x6A9B DUP2 DUP6 PUSH2 0x580C JUMP JUMPDEST SWAP1 POP DUP2 DUP2 SUB PUSH1 0x60 DUP4 ADD MSTORE PUSH2 0x6AAF DUP2 DUP5 PUSH2 0x580C JUMP JUMPDEST SWAP1 POP SWAP6 SWAP5 POP POP POP POP POP JUMP JUMPDEST PUSH0 PUSH8 0xFFFFFFFFFFFFFFFF DUP3 GT ISZERO PUSH2 0x6AD4 JUMPI PUSH2 0x6AD3 PUSH2 0x520A JUMP JUMPDEST JUMPDEST PUSH1 0x20 DUP3 MUL SWAP1 POP PUSH1 0x20 DUP2 ADD SWAP1 POP SWAP2 SWAP1 POP JUMP JUMPDEST PUSH0 PUSH2 0x6AF7 PUSH2 0x6AF2 DUP5 PUSH2 0x6ABA JUMP JUMPDEST PUSH2 0x5268 JUMP JUMPDEST SWAP1 POP DUP1 DUP4 DUP3 MSTORE PUSH1 0x20 DUP3 ADD SWAP1 POP PUSH1 0x20 DUP5 MUL DUP4 ADD DUP6 DUP2 GT ISZERO PUSH2 0x6B1A JUMPI PUSH2 0x6B19 PUSH2 0x52B5 JUMP JUMPDEST JUMPDEST DUP4 JUMPDEST DUP2 DUP2 LT ISZERO PUSH2 0x6B43 JUMPI DUP1 PUSH2 0x6B2F DUP9 DUP3 PUSH2 0x686C JUMP JUMPDEST DUP5 MSTORE PUSH1 0x20 DUP5 ADD SWAP4 POP POP PUSH1 0x20 DUP2 ADD SWAP1 POP PUSH2 0x6B1C JUMP JUMPDEST POP POP POP SWAP4 SWAP3 POP POP POP JUMP JUMPDEST PUSH0 DUP3 PUSH1 0x1F DUP4 ADD SLT PUSH2 0x6B61 JUMPI PUSH2 0x6B60 PUSH2 0x5286 JUMP JUMPDEST JUMPDEST DUP2 MLOAD PUSH2 0x6B71 DUP5 DUP3 PUSH1 0x20 DUP7 ADD PUSH2 0x6AE5 JUMP JUMPDEST SWAP2 POP POP SWAP3 SWAP2 POP POP JUMP JUMPDEST PUSH0 PUSH1 0x20 DUP3 DUP5 SUB SLT ISZERO PUSH2 0x6B8F JUMPI PUSH2 0x6B8E PUSH2 0x51BB JUMP JUMPDEST JUMPDEST PUSH0 DUP3 ADD MLOAD PUSH8 0xFFFFFFFFFFFFFFFF DUP2 GT ISZERO PUSH2 0x6BAC JUMPI PUSH2 0x6BAB PUSH2 0x51BF JUMP JUMPDEST JUMPDEST PUSH2 0x6BB8 DUP5 DUP3 DUP6 ADD PUSH2 0x6B4D JUMP JUMPDEST SWAP2 POP POP SWAP3 SWAP2 POP POP JUMP JUMPDEST PUSH0 PUSH2 0x6BCB DUP3 PUSH2 0x51C3 JUMP JUMPDEST SWAP2 POP PUSH32 0xFFFFFFFFFFFFFFFFFFFFFFFFFFFFFFFFFFFFFFFFFFFFFFFFFFFFFFFFFFFFFFFF DUP3 SUB PUSH2 0x6BFD JUMPI PUSH2 0x6BFC PUSH2 0x6164 JUMP JUMPDEST JUMPDEST PUSH1 0x1 DUP3 ADD SWAP1 POP SWAP2 SWAP1 POP JUMP JUMPDEST PUSH0 PUSH1 0x80 DUP3 ADD SWAP1 POP PUSH2 0x6C1B PUSH0 DUP4 ADD DUP8 PUSH2 0x56DF JUMP JUMPDEST PUSH2 0x6C28 PUSH1 0x20 DUP4 ADD DUP7 PUSH2 0x56DF JUMP JUMPDEST PUSH2 0x6C35 PUSH1 0x40 DUP4 ADD DUP6 PUSH2 0x56DF JUMP JUMPDEST PUSH2 0x6C42 PUSH1 0x60 DUP4 ADD DUP5 PUSH2 0x56DF JUMP JUMPDEST SWAP6 SWAP5 POP POP POP POP POP JUMP JUMPDEST PUSH0 DUP1 REVERT JUMPDEST PUSH0 DUP1 REVERT JUMPDEST PUSH0 DUP1 REVERT JUMPDEST PUSH0 DUP1 DUP4 CALLDATALOAD PUSH1 0x1 PUSH1 0x20 SUB DUP5 CALLDATASIZE SUB SUB DUP2 SLT PUSH2 0x6C73 JUMPI PUSH2 0x6C72 PUSH2 0x6C4B JUMP JUMPDEST JUMPDEST DUP1 DUP5 ADD SWAP3 POP DUP3 CALLDATALOAD SWAP2 POP PUSH8 0xFFFFFFFFFFFFFFFF DUP3 GT ISZERO PUSH2 0x6C95 JUMPI PUSH2 0x6C94 PUSH2 0x6C4F JUMP JUMPDEST JUMPDEST PUSH1 0x20 DUP4 ADD SWAP3 POP PUSH1 0x20 DUP3 MUL CALLDATASIZE SUB DUP4 SGT ISZERO PUSH2 0x6CB1 JUMPI PUSH2 0x6CB0 PUSH2 0x6C53 JUMP JUMPDEST JUMPDEST POP SWAP3 POP SWAP3 SWAP1 POP JUMP JUMPDEST PUSH0 DUP1 DUP4 CALLDATALOAD PUSH1 0x1 PUSH1 0x20 SUB DUP5 CALLDATASIZE SUB SUB DUP2 SLT PUSH2 0x6CD5 JUMPI PUSH2 0x6CD4 PUSH2 0x6C4B JUMP JUMPDEST JUMPDEST DUP1 DUP5 ADD SWAP3 POP DUP3 CALLDATALOAD SWAP2 POP PUSH8 0xFFFFFFFFFFFFFFFF DUP3 GT ISZERO PUSH2 0x6CF7 JUMPI PUSH2 0x6CF6 PUSH2 0x6C4F JUMP JUMPDEST JUMPDEST PUSH1 0x20 DUP4 ADD SWAP3 POP PUSH1 0x20 DUP3 MUL CALLDATASIZE SUB DUP4 SGT ISZERO PUSH2 0x6D13 JUMPI PUSH2 0x6D12 PUSH2 0x6C53 JUMP JUMPDEST JUMPDEST POP SWAP3 POP SWAP3 SWAP1 POP JUMP JUMPDEST PUSH0 PUSH1 0x60 DUP3 ADD SWAP1 POP PUSH2 0x6D2E PUSH0 DUP4 ADD DUP7 PUSH2 0x56DF JUMP JUMPDEST PUSH2 0x6D3B PUSH1 0x20 DUP4 ADD DUP6 PUSH2 0x56DF JUMP JUMPDEST PUSH2 0x6D48 PUSH1 0x40 DUP4 ADD DUP5 PUSH2 0x56DF JUMP JUMPDEST SWAP5 SWAP4 POP POP POP POP JUMP JUMPDEST PUSH0 DUP2 SWAP1 POP SWAP2 SWAP1 POP JUMP JUMPDEST PUSH2 0x6D62 DUP2 PUSH2 0x6D50 JUMP JUMPDEST DUP3 MSTORE POP POP JUMP JUMPDEST PUSH0 PUSH1 0x20 DUP3 ADD SWAP1 POP PUSH2 0x6D7B PUSH0 DUP4 ADD DUP5 PUSH2 0x6D59 JUMP JUMPDEST SWAP3 SWAP2 POP POP JUMP JUMPDEST PUSH0 PUSH1 0x20 DUP3 DUP5 SUB SLT ISZERO PUSH2 0x6D96 JUMPI PUSH2 0x6D95 PUSH2 0x51BB JUMP JUMPDEST JUMPDEST PUSH0 PUSH2 0x6DA3 DUP5 DUP3 DUP6 ADD PUSH2 0x571D JUMP JUMPDEST SWAP2 POP POP SWAP3 SWAP2 POP POP JUMP JUMPDEST PUSH0 DUP2 MLOAD SWAP1 POP SWAP2 SWAP1 POP JUMP JUMPDEST PUSH0 DUP3 DUP3 MSTORE PUSH1 0x20 DUP3 ADD SWAP1 POP SWAP3 SWAP2 POP POP JUMP JUMPDEST PUSH0 DUP2 SWAP1 POP PUSH1 0x20 DUP3 ADD SWAP1 POP SWAP2 SWAP1 POP JUMP JUMPDEST PUSH2 0x6DDE DUP2 PUSH2 0x684D JUMP JUMPDEST DUP3 MSTORE POP POP JUMP JUMPDEST PUSH0 PUSH2 0x6DEF DUP4 DUP4 PUSH2 0x6DD5 JUMP JUMPDEST PUSH1 0x20 DUP4 ADD SWAP1 POP SWAP3 SWAP2 POP POP JUMP JUMPDEST PUSH0 PUSH1 0x20 DUP3 ADD SWAP1 POP SWAP2 SWAP1 POP JUMP JUMPDEST PUSH0 PUSH2 0x6E11 DUP3 PUSH2 0x6DAC JUMP JUMPDEST PUSH2 0x6E1B DUP2 DUP6 PUSH2 0x6DB6 JUMP JUMPDEST SWAP4 POP PUSH2 0x6E26 DUP4 PUSH2 0x6DC6 JUMP JUMPDEST DUP1 PUSH0 JUMPDEST DUP4 DUP2 LT ISZERO PUSH2 0x6E56 JUMPI DUP2 MLOAD PUSH2 0x6E3D DUP9 DUP3 PUSH2 0x6DE4 JUMP JUMPDEST SWAP8 POP PUSH2 0x6E48 DUP4 PUSH2 0x6DFB JUMP JUMPDEST SWAP3 POP POP PUSH1 0x1 DUP2 ADD SWAP1 POP PUSH2 0x6E29 JUMP JUMPDEST POP DUP6 SWAP4 POP POP POP POP SWAP3 SWAP2 POP POP JUMP JUMPDEST PUSH0 PUSH1 0x60 DUP3 ADD SWAP1 POP PUSH2 0x6E76 PUSH0 DUP4 ADD DUP7 PUSH2 0x61F1 JUMP JUMPDEST DUP2 DUP2 SUB PUSH1 0x20 DUP4 ADD MSTORE PUSH2 0x6E88 DUP2 DUP6 PUSH2 0x6E07 JUMP JUMPDEST SWAP1 POP PUSH2 0x6E97 PUSH1 0x40 DUP4 ADD DUP5 PUSH2 0x61F1 JUMP JUMPDEST SWAP5 SWAP4 POP POP POP POP JUMP JUMPDEST PUSH0 PUSH2 0x6EB1 PUSH2 0x6EAC DUP5 PUSH2 0x528A JUMP JUMPDEST PUSH2 0x5268 JUMP JUMPDEST SWAP1 POP DUP1 DUP4 DUP3 MSTORE PUSH1 0x20 DUP3 ADD SWAP1 POP PUSH1 0x20 DUP5 MUL DUP4 ADD DUP6 DUP2 GT ISZERO PUSH2 0x6ED4 JUMPI PUSH2 0x6ED3 PUSH2 0x52B5 JUMP JUMPDEST JUMPDEST DUP4 JUMPDEST DUP2 DUP2 LT ISZERO PUSH2 0x6EFD JUMPI DUP1 PUSH2 0x6EE9 DUP9 DUP3 PUSH2 0x6219 JUMP JUMPDEST DUP5 MSTORE PUSH1 0x20 DUP5 ADD SWAP4 POP POP PUSH1 0x20 DUP2 ADD SWAP1 POP PUSH2 0x6ED6 JUMP JUMPDEST POP POP POP SWAP4 SWAP3 POP POP POP JUMP JUMPDEST PUSH0 DUP3 PUSH1 0x1F DUP4 ADD SLT PUSH2 0x6F1B JUMPI PUSH2 0x6F1A PUSH2 0x5286 JUMP JUMPDEST JUMPDEST DUP2 MLOAD PUSH2 0x6F2B DUP5 DUP3 PUSH1 0x20 DUP7 ADD PUSH2 0x6E9F JUMP JUMPDEST SWAP2 POP POP SWAP3 SWAP2 POP POP JUMP JUMPDEST PUSH0 DUP1 PUSH0 PUSH1 0x60 DUP5 DUP7 SUB SLT ISZERO PUSH2 0x6F4B JUMPI PUSH2 0x6F4A PUSH2 0x51BB JUMP JUMPDEST JUMPDEST PUSH0 PUSH2 0x6F58 DUP7 DUP3 DUP8 ADD PUSH2 0x686C JUMP JUMPDEST SWAP4 POP POP PUSH1 0x20 PUSH2 0x6F69 DUP7 DUP3 DUP8 ADD PUSH2 0x686C JUMP JUMPDEST SWAP3 POP POP PUSH1 0x40 DUP5 ADD MLOAD PUSH8 0xFFFFFFFFFFFFFFFF DUP2 GT ISZERO PUSH2 0x6F8A JUMPI PUSH2 0x6F89 PUSH2 0x51BF JUMP JUMPDEST JUMPDEST PUSH2 0x6F96 DUP7 DUP3 DUP8 ADD PUSH2 0x6F07 JUMP JUMPDEST SWAP2 POP POP SWAP3 POP SWAP3 POP SWAP3 JUMP JUMPDEST PUSH0 PUSH1 0x40 DUP3 ADD SWAP1 POP PUSH2 0x6FB3 PUSH0 DUP4 ADD DUP6 PUSH2 0x61F1 JUMP JUMPDEST PUSH2 0x6FC0 PUSH1 0x20 DUP4 ADD DUP5 PUSH2 0x61F1 JUMP JUMPDEST SWAP4 SWAP3 POP POP POP JUMP JUMPDEST PUSH0 PUSH2 0x6FD1 DUP3 PUSH2 0x51C3 JUMP JUMPDEST SWAP2 POP PUSH2 0x6FDC DUP4 PUSH2 0x51C3 JUMP JUMPDEST SWAP3 POP DUP3 DUP3 MUL PUSH2 0x6FEA DUP2 PUSH2 0x51C3 JUMP JUMPDEST SWAP2 POP DUP3 DUP3 DIV DUP5 EQ DUP4 ISZERO OR PUSH2 0x7001 JUMPI PUSH2 0x7000 PUSH2 0x6164 JUMP JUMPDEST JUMPDEST POP SWAP3 SWAP2 POP POP JUMP JUMPDEST PUSH32 0x4E487B7100000000000000000000000000000000000000000000000000000000 PUSH0 MSTORE PUSH1 0x12 PUSH1 0x4 MSTORE PUSH1 0x24 PUSH0 REVERT JUMPDEST PUSH0 PUSH2 0x703F DUP3 PUSH2 0x51C3 JUMP JUMPDEST SWAP2 POP PUSH2 0x704A DUP4 PUSH2 0x51C3 JUMP JUMPDEST SWAP3 POP DUP3 PUSH2 0x705A JUMPI PUSH2 0x7059 PUSH2 0x7008 JUMP JUMPDEST JUMPDEST DUP3 DUP3 DIV SWAP1 POP SWAP3 SWAP2 POP POP JUMP INVALID LOG2 PUSH5 0x6970667358 0x22 SLT KECCAK256 0xE ADDRESS SWAP11 PUSH25 0xC4164F5B8B6E48C22021A99ACA2BB60332BC12D21314FEE29F CALLVALUE 0xEE 0xFC PUSH5 0x736F6C6343 STOP ADDMOD EQ STOP CALLER "
		},
		"gasEstimates": {
			"creation": {
				"codeDepositCost": "5765400",
				"executionCost": "infinite",
				"totalCost": "infinite"
			},
			"external": {
				"addLiquidity((address,address,uint256,uint256,uint256,uint256,uint256,uint256,uint256,int256[],uint256[],uint256[],address,address,uint256))": "infinite",
				"addLiquidityNATIVE((address,address,uint256,uint256,uint256,uint256,uint256,uint256,uint256,int256[],uint256[],uint256[],address,address,uint256))": "infinite",
				"createLBPair(address,address,uint24,uint16)": "infinite",
				"getFactory()": "infinite",
				"getIdFromPrice(address,uint256)": "infinite",
				"getPriceFromId(address,uint24)": "infinite",
				"getSwapIn(address,uint128,bool)": "infinite",
				"getSwapOut(address,uint128,bool)": "infinite",
				"getV1Factory()": "infinite",
				"getWNATIVE()": "infinite",
				"initialize()": "81647",
				"removeLiquidity(address,address,uint16,uint256,uint256,uint256[],uint256[],address,uint256)": "infinite",
				"removeLiquidityNATIVE(address,uint16,uint256,uint256,uint256[],uint256[],address,uint256)": "infinite",
				"swapExactNATIVEForTokens(uint256,(uint256[],uint8[],address[]),address,uint256)": "infinite",
				"swapExactNATIVEForTokensSupportingFeeOnTransferTokens(uint256,(uint256[],uint8[],address[]),address,uint256)": "infinite",
				"swapExactTokensForNATIVE(uint256,uint256,(uint256[],uint8[],address[]),address,uint256)": "infinite",
				"swapExactTokensForNATIVESupportingFeeOnTransferTokens(uint256,uint256,(uint256[],uint8[],address[]),address,uint256)": "infinite",
				"swapExactTokensForTokens(uint256,uint256,(uint256[],uint8[],address[]),address,uint256)": "infinite",
				"swapExactTokensForTokensSupportingFeeOnTransferTokens(uint256,uint256,(uint256[],uint8[],address[]),address,uint256)": "infinite",
				"swapNATIVEForExactTokens(uint256,(uint256[],uint8[],address[]),address,uint256)": "infinite",
				"swapTokensForExactNATIVE(uint256,uint256,(uint256[],uint8[],address[]),address,uint256)": "infinite",
				"swapTokensForExactTokens(uint256,uint256,(uint256[],uint8[],address[]),address,uint256)": "infinite",
				"sweep(address,address,uint256)": "infinite",
				"sweepLBToken(address,address,uint256[],uint256[])": "infinite"
			},
			"internal": {
				"_addLiquidity(struct ILBRouter.LiquidityParameters calldata,contract ILBPair)": "infinite",
				"_getAmountsIn(enum ILBRouter.Version[] memory,address[] memory,contract IERC20[] memory,uint256)": "infinite",
				"_getLBPairInformation(contract IERC20,contract IERC20,uint256)": "infinite",
				"_getPair(contract IERC20,contract IERC20,uint256,enum ILBRouter.Version)": "infinite",
				"_getPairs(uint256[] memory,enum ILBRouter.Version[] memory,contract IERC20[] memory)": "infinite",
				"_removeLiquidity(contract ILBPair,uint256,uint256,uint256[] memory,uint256[] memory,address)": "infinite",
				"_safeTransfer(contract IERC20,address,uint256)": "infinite",
				"_safeTransferFrom(contract IERC20,address,address,uint256)": "infinite",
				"_safeTransferNative(address,uint256)": "infinite",
				"_swapExactTokensForTokens(uint256,address[] memory,enum ILBRouter.Version[] memory,contract IERC20[] memory,address)": "infinite",
				"_swapSupportingFeeOnTransferTokens(address[] memory,enum ILBRouter.Version[] memory,contract IERC20[] memory,address)": "infinite",
				"_swapTokensForExactTokens(address[] memory,enum ILBRouter.Version[] memory,contract IERC20[] memory,uint256[] memory,address)": "infinite",
				"_wNativeDepositAndTransfer(address,uint256)": "infinite",
				"_wNativeWithdrawAndTransfer(address,uint256)": "infinite"
			}
		},
		"methodIdentifiers": {
			"addLiquidity((address,address,uint256,uint256,uint256,uint256,uint256,uint256,uint256,int256[],uint256[],uint256[],address,address,uint256))": "a3c7271a",
			"addLiquidityNATIVE((address,address,uint256,uint256,uint256,uint256,uint256,uint256,uint256,int256[],uint256[],uint256[],address,address,uint256))": "8efc2b2c",
			"createLBPair(address,address,uint24,uint16)": "659ac74b",
			"getFactory()": "88cc58e4",
			"getIdFromPrice(address,uint256)": "f96fe925",
			"getPriceFromId(address,uint24)": "d0e380f2",
			"getSwapIn(address,uint128,bool)": "964f987c",
			"getSwapOut(address,uint128,bool)": "a0d376cf",
			"getV1Factory()": "bb558a9f",
			"getWNATIVE()": "6c9c0078",
			"initialize()": "8129fc1c",
			"removeLiquidity(address,address,uint16,uint256,uint256,uint256[],uint256[],address,uint256)": "c22159b6",
			"removeLiquidityNATIVE(address,uint16,uint256,uint256,uint256[],uint256[],address,uint256)": "81c2fdfb",
			"swapExactNATIVEForTokens(uint256,(uint256[],uint8[],address[]),address,uint256)": "b066ea7c",
			"swapExactNATIVEForTokensSupportingFeeOnTransferTokens(uint256,(uint256[],uint8[],address[]),address,uint256)": "e038e6dc",
			"swapExactTokensForNATIVE(uint256,uint256,(uint256[],uint8[],address[]),address,uint256)": "9ab6156b",
			"swapExactTokensForNATIVESupportingFeeOnTransferTokens(uint256,uint256,(uint256[],uint8[],address[]),address,uint256)": "1a24f9a9",
			"swapExactTokensForTokens(uint256,uint256,(uint256[],uint8[],address[]),address,uint256)": "2a443fae",
			"swapExactTokensForTokensSupportingFeeOnTransferTokens(uint256,uint256,(uint256[],uint8[],address[]),address,uint256)": "4b801870",
			"swapNATIVEForExactTokens(uint256,(uint256[],uint8[],address[]),address,uint256)": "2075ad22",
			"swapTokensForExactNATIVE(uint256,uint256,(uint256[],uint8[],address[]),address,uint256)": "3dc8f8ec",
			"swapTokensForExactTokens(uint256,uint256,(uint256[],uint8[],address[]),address,uint256)": "92fe8e70",
			"sweep(address,address,uint256)": "62c06767",
			"sweepLBToken(address,address,uint256[],uint256[])": "e9361c08"
		}
	},
	"abi": [
		{
			"inputs": [
				{
					"internalType": "contract ILBFactory",
					"name": "factory2",
					"type": "address"
				},
				{
					"internalType": "contract ISovrynLBFactoryV1",
					"name": "factoryV1",
					"type": "address"
				},
				{
					"internalType": "contract IWNATIVE",
					"name": "wnative",
					"type": "address"
				}
			],
			"stateMutability": "nonpayable",
			"type": "constructor"
		},
		{
			"inputs": [],
			"name": "InvalidInitialization",
			"type": "error"
		},
		{
			"inputs": [
				{
					"internalType": "uint256",
					"name": "amountSlippage",
					"type": "uint256"
				}
			],
			"name": "LBRouter__AmountSlippageBPTooBig",
			"type": "error"
		},
		{
			"inputs": [
				{
					"internalType": "uint256",
					"name": "amountXMin",
					"type": "uint256"
				},
				{
					"internalType": "uint256",
					"name": "amountX",
					"type": "uint256"
				},
				{
					"internalType": "uint256",
					"name": "amountYMin",
					"type": "uint256"
				},
				{
					"internalType": "uint256",
					"name": "amountY",
					"type": "uint256"
				}
			],
			"name": "LBRouter__AmountSlippageCaught",
			"type": "error"
		},
		{
			"inputs": [
				{
					"internalType": "uint256",
					"name": "id",
					"type": "uint256"
				}
			],
			"name": "LBRouter__BinReserveOverflows",
			"type": "error"
		},
		{
			"inputs": [],
			"name": "LBRouter__BrokenSwapSafetyCheck",
			"type": "error"
		},
		{
			"inputs": [
				{
					"internalType": "uint256",
					"name": "deadline",
					"type": "uint256"
				},
				{
					"internalType": "uint256",
					"name": "currentTimestamp",
					"type": "uint256"
				}
			],
			"name": "LBRouter__DeadlineExceeded",
			"type": "error"
		},
		{
			"inputs": [
				{
					"internalType": "address",
					"name": "recipient",
					"type": "address"
				},
				{
					"internalType": "uint256",
					"name": "amount",
					"type": "uint256"
				}
			],
			"name": "LBRouter__FailedToSendNATIVE",
			"type": "error"
		},
		{
			"inputs": [
				{
					"internalType": "uint256",
					"name": "idDesired",
					"type": "uint256"
				},
				{
					"internalType": "uint256",
					"name": "idSlippage",
					"type": "uint256"
				}
			],
			"name": "LBRouter__IdDesiredOverflows",
			"type": "error"
		},
		{
			"inputs": [
				{
					"internalType": "int256",
					"name": "id",
					"type": "int256"
				}
			],
			"name": "LBRouter__IdOverflows",
			"type": "error"
		},
		{
			"inputs": [
				{
					"internalType": "uint256",
					"name": "activeIdDesired",
					"type": "uint256"
				},
				{
					"internalType": "uint256",
					"name": "idSlippage",
					"type": "uint256"
				},
				{
					"internalType": "uint256",
					"name": "activeId",
					"type": "uint256"
				}
			],
			"name": "LBRouter__IdSlippageCaught",
			"type": "error"
		},
		{
			"inputs": [
				{
					"internalType": "uint256",
					"name": "amountOutMin",
					"type": "uint256"
				},
				{
					"internalType": "uint256",
					"name": "amountOut",
					"type": "uint256"
				}
			],
			"name": "LBRouter__InsufficientAmountOut",
			"type": "error"
		},
		{
			"inputs": [
				{
					"internalType": "address",
					"name": "wrongToken",
					"type": "address"
				}
			],
			"name": "LBRouter__InvalidTokenPath",
			"type": "error"
		},
		{
			"inputs": [
				{
					"internalType": "uint256",
					"name": "version",
					"type": "uint256"
				}
			],
			"name": "LBRouter__InvalidVersion",
			"type": "error"
		},
		{
			"inputs": [],
			"name": "LBRouter__LengthsMismatch",
			"type": "error"
		},
		{
			"inputs": [
				{
					"internalType": "uint256",
					"name": "amountInMax",
					"type": "uint256"
				},
				{
					"internalType": "uint256",
					"name": "amountIn",
					"type": "uint256"
				}
			],
			"name": "LBRouter__MaxAmountInExceeded",
			"type": "error"
		},
		{
			"inputs": [],
			"name": "LBRouter__NotFactoryOwner",
			"type": "error"
		},
		{
			"inputs": [
				{
					"internalType": "address",
					"name": "tokenX",
					"type": "address"
				},
				{
					"internalType": "address",
					"name": "tokenY",
					"type": "address"
				},
				{
					"internalType": "uint256",
					"name": "binStep",
					"type": "uint256"
				}
			],
			"name": "LBRouter__PairNotCreated",
			"type": "error"
		},
		{
			"inputs": [],
			"name": "LBRouter__SenderIsNotWNATIVE",
			"type": "error"
		},
		{
			"inputs": [
				{
					"internalType": "uint256",
					"name": "id",
					"type": "uint256"
				}
			],
			"name": "LBRouter__SwapOverflows",
			"type": "error"
		},
		{
			"inputs": [
				{
					"internalType": "uint256",
					"name": "excess",
					"type": "uint256"
				}
			],
			"name": "LBRouter__TooMuchTokensIn",
			"type": "error"
		},
		{
			"inputs": [
				{
					"internalType": "uint256",
					"name": "amount",
					"type": "uint256"
				},
				{
					"internalType": "uint256",
					"name": "reserve",
					"type": "uint256"
				}
			],
			"name": "LBRouter__WrongAmounts",
			"type": "error"
		},
		{
			"inputs": [
				{
					"internalType": "address",
					"name": "tokenX",
					"type": "address"
				},
				{
					"internalType": "address",
					"name": "tokenY",
					"type": "address"
				},
				{
					"internalType": "uint256",
					"name": "amountX",
					"type": "uint256"
				},
				{
					"internalType": "uint256",
					"name": "amountY",
					"type": "uint256"
				},
				{
					"internalType": "uint256",
					"name": "msgValue",
					"type": "uint256"
				}
			],
			"name": "LBRouter__WrongNativeLiquidityParameters",
			"type": "error"
		},
		{
			"inputs": [],
			"name": "LBRouter__WrongTokenOrder",
			"type": "error"
		},
		{
			"inputs": [],
			"name": "NotInitializing",
			"type": "error"
		},
		{
			"inputs": [],
			"name": "PackedUint128Math__SubUnderflow",
			"type": "error"
		},
		{
			"inputs": [],
			"name": "SovrynLBLibrary__InsufficientAmount",
			"type": "error"
		},
		{
			"inputs": [],
			"name": "SovrynLBLibrary__InsufficientLiquidity",
			"type": "error"
		},
		{
			"inputs": [],
			"name": "TokenHelper__TransferFailed",
			"type": "error"
		},
		{
			"anonymous": false,
			"inputs": [
				{
					"indexed": false,
					"internalType": "uint64",
					"name": "version",
					"type": "uint64"
				}
			],
			"name": "Initialized",
			"type": "event"
		},
		{
			"inputs": [
				{
					"components": [
						{
							"internalType": "contract IERC20",
							"name": "tokenX",
							"type": "address"
						},
						{
							"internalType": "contract IERC20",
							"name": "tokenY",
							"type": "address"
						},
						{
							"internalType": "uint256",
							"name": "binStep",
							"type": "uint256"
						},
						{
							"internalType": "uint256",
							"name": "amountX",
							"type": "uint256"
						},
						{
							"internalType": "uint256",
							"name": "amountY",
							"type": "uint256"
						},
						{
							"internalType": "uint256",
							"name": "amountXMin",
							"type": "uint256"
						},
						{
							"internalType": "uint256",
							"name": "amountYMin",
							"type": "uint256"
						},
						{
							"internalType": "uint256",
							"name": "activeIdDesired",
							"type": "uint256"
						},
						{
							"internalType": "uint256",
							"name": "idSlippage",
							"type": "uint256"
						},
						{
							"internalType": "int256[]",
							"name": "deltaIds",
							"type": "int256[]"
						},
						{
							"internalType": "uint256[]",
							"name": "distributionX",
							"type": "uint256[]"
						},
						{
							"internalType": "uint256[]",
							"name": "distributionY",
							"type": "uint256[]"
						},
						{
							"internalType": "address",
							"name": "to",
							"type": "address"
						},
						{
							"internalType": "address",
							"name": "refundTo",
							"type": "address"
						},
						{
							"internalType": "uint256",
							"name": "deadline",
							"type": "uint256"
						}
					],
					"internalType": "struct ILBRouter.LiquidityParameters",
					"name": "liquidityParameters",
					"type": "tuple"
				}
			],
			"name": "addLiquidity",
			"outputs": [
				{
					"internalType": "uint256",
					"name": "amountXAdded",
					"type": "uint256"
				},
				{
					"internalType": "uint256",
					"name": "amountYAdded",
					"type": "uint256"
				},
				{
					"internalType": "uint256",
					"name": "amountXLeft",
					"type": "uint256"
				},
				{
					"internalType": "uint256",
					"name": "amountYLeft",
					"type": "uint256"
				},
				{
					"internalType": "uint256[]",
					"name": "depositIds",
					"type": "uint256[]"
				},
				{
					"internalType": "uint256[]",
					"name": "liquidityMinted",
					"type": "uint256[]"
				}
			],
			"stateMutability": "nonpayable",
			"type": "function"
		},
		{
			"inputs": [
				{
					"components": [
						{
							"internalType": "contract IERC20",
							"name": "tokenX",
							"type": "address"
						},
						{
							"internalType": "contract IERC20",
							"name": "tokenY",
							"type": "address"
						},
						{
							"internalType": "uint256",
							"name": "binStep",
							"type": "uint256"
						},
						{
							"internalType": "uint256",
							"name": "amountX",
							"type": "uint256"
						},
						{
							"internalType": "uint256",
							"name": "amountY",
							"type": "uint256"
						},
						{
							"internalType": "uint256",
							"name": "amountXMin",
							"type": "uint256"
						},
						{
							"internalType": "uint256",
							"name": "amountYMin",
							"type": "uint256"
						},
						{
							"internalType": "uint256",
							"name": "activeIdDesired",
							"type": "uint256"
						},
						{
							"internalType": "uint256",
							"name": "idSlippage",
							"type": "uint256"
						},
						{
							"internalType": "int256[]",
							"name": "deltaIds",
							"type": "int256[]"
						},
						{
							"internalType": "uint256[]",
							"name": "distributionX",
							"type": "uint256[]"
						},
						{
							"internalType": "uint256[]",
							"name": "distributionY",
							"type": "uint256[]"
						},
						{
							"internalType": "address",
							"name": "to",
							"type": "address"
						},
						{
							"internalType": "address",
							"name": "refundTo",
							"type": "address"
						},
						{
							"internalType": "uint256",
							"name": "deadline",
							"type": "uint256"
						}
					],
					"internalType": "struct ILBRouter.LiquidityParameters",
					"name": "liquidityParameters",
					"type": "tuple"
				}
			],
			"name": "addLiquidityNATIVE",
			"outputs": [
				{
					"internalType": "uint256",
					"name": "amountXAdded",
					"type": "uint256"
				},
				{
					"internalType": "uint256",
					"name": "amountYAdded",
					"type": "uint256"
				},
				{
					"internalType": "uint256",
					"name": "amountXLeft",
					"type": "uint256"
				},
				{
					"internalType": "uint256",
					"name": "amountYLeft",
					"type": "uint256"
				},
				{
					"internalType": "uint256[]",
					"name": "depositIds",
					"type": "uint256[]"
				},
				{
					"internalType": "uint256[]",
					"name": "liquidityMinted",
					"type": "uint256[]"
				}
			],
			"stateMutability": "payable",
			"type": "function"
		},
		{
			"inputs": [
				{
					"internalType": "contract IERC20",
					"name": "tokenX",
					"type": "address"
				},
				{
					"internalType": "contract IERC20",
					"name": "tokenY",
					"type": "address"
				},
				{
					"internalType": "uint24",
					"name": "activeId",
					"type": "uint24"
				},
				{
					"internalType": "uint16",
					"name": "binStep",
					"type": "uint16"
				}
			],
			"name": "createLBPair",
			"outputs": [
				{
					"internalType": "contract ILBPair",
					"name": "pair",
					"type": "address"
				}
			],
			"stateMutability": "nonpayable",
			"type": "function"
		},
		{
			"inputs": [],
			"name": "getFactory",
			"outputs": [
				{
					"internalType": "contract ILBFactory",
					"name": "lbFactory",
					"type": "address"
				}
			],
			"stateMutability": "view",
			"type": "function"
		},
		{
			"inputs": [
				{
					"internalType": "contract ILBPair",
					"name": "pair",
					"type": "address"
				},
				{
					"internalType": "uint256",
					"name": "price",
					"type": "uint256"
				}
			],
			"name": "getIdFromPrice",
			"outputs": [
				{
					"internalType": "uint24",
					"name": "",
					"type": "uint24"
				}
			],
			"stateMutability": "view",
			"type": "function"
		},
		{
			"inputs": [
				{
					"internalType": "contract ILBPair",
					"name": "pair",
					"type": "address"
				},
				{
					"internalType": "uint24",
					"name": "id",
					"type": "uint24"
				}
			],
			"name": "getPriceFromId",
			"outputs": [
				{
					"internalType": "uint256",
					"name": "",
					"type": "uint256"
				}
			],
			"stateMutability": "view",
			"type": "function"
		},
		{
			"inputs": [
				{
					"internalType": "contract ILBPair",
					"name": "pair",
					"type": "address"
				},
				{
					"internalType": "uint128",
					"name": "amountOut",
					"type": "uint128"
				},
				{
					"internalType": "bool",
					"name": "swapForY",
					"type": "bool"
				}
			],
			"name": "getSwapIn",
			"outputs": [
				{
					"internalType": "uint128",
					"name": "amountIn",
					"type": "uint128"
				},
				{
					"internalType": "uint128",
					"name": "amountOutLeft",
					"type": "uint128"
				},
				{
					"internalType": "uint128",
					"name": "fee",
					"type": "uint128"
				}
			],
			"stateMutability": "view",
			"type": "function"
		},
		{
			"inputs": [
				{
					"internalType": "contract ILBPair",
					"name": "pair",
					"type": "address"
				},
				{
					"internalType": "uint128",
					"name": "amountIn",
					"type": "uint128"
				},
				{
					"internalType": "bool",
					"name": "swapForY",
					"type": "bool"
				}
			],
			"name": "getSwapOut",
			"outputs": [
				{
					"internalType": "uint128",
					"name": "amountInLeft",
					"type": "uint128"
				},
				{
					"internalType": "uint128",
					"name": "amountOut",
					"type": "uint128"
				},
				{
					"internalType": "uint128",
					"name": "fee",
					"type": "uint128"
				}
			],
			"stateMutability": "view",
			"type": "function"
		},
		{
			"inputs": [],
			"name": "getV1Factory",
			"outputs": [
				{
					"internalType": "contract ISovrynLBFactoryV1",
					"name": "factoryV1",
					"type": "address"
				}
			],
			"stateMutability": "view",
			"type": "function"
		},
		{
			"inputs": [],
			"name": "getWNATIVE",
			"outputs": [
				{
					"internalType": "contract IWNATIVE",
					"name": "wnative",
					"type": "address"
				}
			],
			"stateMutability": "view",
			"type": "function"
		},
		{
			"inputs": [],
			"name": "initialize",
			"outputs": [],
			"stateMutability": "nonpayable",
			"type": "function"
		},
		{
			"inputs": [
				{
					"internalType": "contract IERC20",
					"name": "tokenX",
					"type": "address"
				},
				{
					"internalType": "contract IERC20",
					"name": "tokenY",
					"type": "address"
				},
				{
					"internalType": "uint16",
					"name": "binStep",
					"type": "uint16"
				},
				{
					"internalType": "uint256",
					"name": "amountXMin",
					"type": "uint256"
				},
				{
					"internalType": "uint256",
					"name": "amountYMin",
					"type": "uint256"
				},
				{
					"internalType": "uint256[]",
					"name": "ids",
					"type": "uint256[]"
				},
				{
					"internalType": "uint256[]",
					"name": "amounts",
					"type": "uint256[]"
				},
				{
					"internalType": "address",
					"name": "to",
					"type": "address"
				},
				{
					"internalType": "uint256",
					"name": "deadline",
					"type": "uint256"
				}
			],
			"name": "removeLiquidity",
			"outputs": [
				{
					"internalType": "uint256",
					"name": "amountX",
					"type": "uint256"
				},
				{
					"internalType": "uint256",
					"name": "amountY",
					"type": "uint256"
				}
			],
			"stateMutability": "nonpayable",
			"type": "function"
		},
		{
			"inputs": [
				{
					"internalType": "contract IERC20",
					"name": "token",
					"type": "address"
				},
				{
					"internalType": "uint16",
					"name": "binStep",
					"type": "uint16"
				},
				{
					"internalType": "uint256",
					"name": "amountTokenMin",
					"type": "uint256"
				},
				{
					"internalType": "uint256",
					"name": "amountNATIVEMin",
					"type": "uint256"
				},
				{
					"internalType": "uint256[]",
					"name": "ids",
					"type": "uint256[]"
				},
				{
					"internalType": "uint256[]",
					"name": "amounts",
					"type": "uint256[]"
				},
				{
					"internalType": "address payable",
					"name": "to",
					"type": "address"
				},
				{
					"internalType": "uint256",
					"name": "deadline",
					"type": "uint256"
				}
			],
			"name": "removeLiquidityNATIVE",
			"outputs": [
				{
					"internalType": "uint256",
					"name": "amountToken",
					"type": "uint256"
				},
				{
					"internalType": "uint256",
					"name": "amountNATIVE",
					"type": "uint256"
				}
			],
			"stateMutability": "nonpayable",
			"type": "function"
		},
		{
			"inputs": [
				{
					"internalType": "uint256",
					"name": "amountOutMin",
					"type": "uint256"
				},
				{
					"components": [
						{
							"internalType": "uint256[]",
							"name": "pairBinSteps",
							"type": "uint256[]"
						},
						{
							"internalType": "enum ILBRouter.Version[]",
							"name": "versions",
							"type": "uint8[]"
						},
						{
							"internalType": "contract IERC20[]",
							"name": "tokenPath",
							"type": "address[]"
						}
					],
					"internalType": "struct ILBRouter.Path",
					"name": "path",
					"type": "tuple"
				},
				{
					"internalType": "address",
					"name": "to",
					"type": "address"
				},
				{
					"internalType": "uint256",
					"name": "deadline",
					"type": "uint256"
				}
			],
			"name": "swapExactNATIVEForTokens",
			"outputs": [
				{
					"internalType": "uint256",
					"name": "amountOut",
					"type": "uint256"
				}
			],
			"stateMutability": "payable",
			"type": "function"
		},
		{
			"inputs": [
				{
					"internalType": "uint256",
					"name": "amountOutMin",
					"type": "uint256"
				},
				{
					"components": [
						{
							"internalType": "uint256[]",
							"name": "pairBinSteps",
							"type": "uint256[]"
						},
						{
							"internalType": "enum ILBRouter.Version[]",
							"name": "versions",
							"type": "uint8[]"
						},
						{
							"internalType": "contract IERC20[]",
							"name": "tokenPath",
							"type": "address[]"
						}
					],
					"internalType": "struct ILBRouter.Path",
					"name": "path",
					"type": "tuple"
				},
				{
					"internalType": "address",
					"name": "to",
					"type": "address"
				},
				{
					"internalType": "uint256",
					"name": "deadline",
					"type": "uint256"
				}
			],
			"name": "swapExactNATIVEForTokensSupportingFeeOnTransferTokens",
			"outputs": [
				{
					"internalType": "uint256",
					"name": "amountOut",
					"type": "uint256"
				}
			],
			"stateMutability": "payable",
			"type": "function"
		},
		{
			"inputs": [
				{
					"internalType": "uint256",
					"name": "amountIn",
					"type": "uint256"
				},
				{
					"internalType": "uint256",
					"name": "amountOutMinNATIVE",
					"type": "uint256"
				},
				{
					"components": [
						{
							"internalType": "uint256[]",
							"name": "pairBinSteps",
							"type": "uint256[]"
						},
						{
							"internalType": "enum ILBRouter.Version[]",
							"name": "versions",
							"type": "uint8[]"
						},
						{
							"internalType": "contract IERC20[]",
							"name": "tokenPath",
							"type": "address[]"
						}
					],
					"internalType": "struct ILBRouter.Path",
					"name": "path",
					"type": "tuple"
				},
				{
					"internalType": "address payable",
					"name": "to",
					"type": "address"
				},
				{
					"internalType": "uint256",
					"name": "deadline",
					"type": "uint256"
				}
			],
			"name": "swapExactTokensForNATIVE",
			"outputs": [
				{
					"internalType": "uint256",
					"name": "amountOut",
					"type": "uint256"
				}
			],
			"stateMutability": "nonpayable",
			"type": "function"
		},
		{
			"inputs": [
				{
					"internalType": "uint256",
					"name": "amountIn",
					"type": "uint256"
				},
				{
					"internalType": "uint256",
					"name": "amountOutMinNATIVE",
					"type": "uint256"
				},
				{
					"components": [
						{
							"internalType": "uint256[]",
							"name": "pairBinSteps",
							"type": "uint256[]"
						},
						{
							"internalType": "enum ILBRouter.Version[]",
							"name": "versions",
							"type": "uint8[]"
						},
						{
							"internalType": "contract IERC20[]",
							"name": "tokenPath",
							"type": "address[]"
						}
					],
					"internalType": "struct ILBRouter.Path",
					"name": "path",
					"type": "tuple"
				},
				{
					"internalType": "address payable",
					"name": "to",
					"type": "address"
				},
				{
					"internalType": "uint256",
					"name": "deadline",
					"type": "uint256"
				}
			],
			"name": "swapExactTokensForNATIVESupportingFeeOnTransferTokens",
			"outputs": [
				{
					"internalType": "uint256",
					"name": "amountOut",
					"type": "uint256"
				}
			],
			"stateMutability": "nonpayable",
			"type": "function"
		},
		{
			"inputs": [
				{
					"internalType": "uint256",
					"name": "amountIn",
					"type": "uint256"
				},
				{
					"internalType": "uint256",
					"name": "amountOutMin",
					"type": "uint256"
				},
				{
					"components": [
						{
							"internalType": "uint256[]",
							"name": "pairBinSteps",
							"type": "uint256[]"
						},
						{
							"internalType": "enum ILBRouter.Version[]",
							"name": "versions",
							"type": "uint8[]"
						},
						{
							"internalType": "contract IERC20[]",
							"name": "tokenPath",
							"type": "address[]"
						}
					],
					"internalType": "struct ILBRouter.Path",
					"name": "path",
					"type": "tuple"
				},
				{
					"internalType": "address",
					"name": "to",
					"type": "address"
				},
				{
					"internalType": "uint256",
					"name": "deadline",
					"type": "uint256"
				}
			],
			"name": "swapExactTokensForTokens",
			"outputs": [
				{
					"internalType": "uint256",
					"name": "amountOut",
					"type": "uint256"
				}
			],
			"stateMutability": "nonpayable",
			"type": "function"
		},
		{
			"inputs": [
				{
					"internalType": "uint256",
					"name": "amountIn",
					"type": "uint256"
				},
				{
					"internalType": "uint256",
					"name": "amountOutMin",
					"type": "uint256"
				},
				{
					"components": [
						{
							"internalType": "uint256[]",
							"name": "pairBinSteps",
							"type": "uint256[]"
						},
						{
							"internalType": "enum ILBRouter.Version[]",
							"name": "versions",
							"type": "uint8[]"
						},
						{
							"internalType": "contract IERC20[]",
							"name": "tokenPath",
							"type": "address[]"
						}
					],
					"internalType": "struct ILBRouter.Path",
					"name": "path",
					"type": "tuple"
				},
				{
					"internalType": "address",
					"name": "to",
					"type": "address"
				},
				{
					"internalType": "uint256",
					"name": "deadline",
					"type": "uint256"
				}
			],
			"name": "swapExactTokensForTokensSupportingFeeOnTransferTokens",
			"outputs": [
				{
					"internalType": "uint256",
					"name": "amountOut",
					"type": "uint256"
				}
			],
			"stateMutability": "nonpayable",
			"type": "function"
		},
		{
			"inputs": [
				{
					"internalType": "uint256",
					"name": "amountOut",
					"type": "uint256"
				},
				{
					"components": [
						{
							"internalType": "uint256[]",
							"name": "pairBinSteps",
							"type": "uint256[]"
						},
						{
							"internalType": "enum ILBRouter.Version[]",
							"name": "versions",
							"type": "uint8[]"
						},
						{
							"internalType": "contract IERC20[]",
							"name": "tokenPath",
							"type": "address[]"
						}
					],
					"internalType": "struct ILBRouter.Path",
					"name": "path",
					"type": "tuple"
				},
				{
					"internalType": "address",
					"name": "to",
					"type": "address"
				},
				{
					"internalType": "uint256",
					"name": "deadline",
					"type": "uint256"
				}
			],
			"name": "swapNATIVEForExactTokens",
			"outputs": [
				{
					"internalType": "uint256[]",
					"name": "amountsIn",
					"type": "uint256[]"
				}
			],
			"stateMutability": "payable",
			"type": "function"
		},
		{
			"inputs": [
				{
					"internalType": "uint256",
					"name": "amountNATIVEOut",
					"type": "uint256"
				},
				{
					"internalType": "uint256",
					"name": "amountInMax",
					"type": "uint256"
				},
				{
					"components": [
						{
							"internalType": "uint256[]",
							"name": "pairBinSteps",
							"type": "uint256[]"
						},
						{
							"internalType": "enum ILBRouter.Version[]",
							"name": "versions",
							"type": "uint8[]"
						},
						{
							"internalType": "contract IERC20[]",
							"name": "tokenPath",
							"type": "address[]"
						}
					],
					"internalType": "struct ILBRouter.Path",
					"name": "path",
					"type": "tuple"
				},
				{
					"internalType": "address payable",
					"name": "to",
					"type": "address"
				},
				{
					"internalType": "uint256",
					"name": "deadline",
					"type": "uint256"
				}
			],
			"name": "swapTokensForExactNATIVE",
			"outputs": [
				{
					"internalType": "uint256[]",
					"name": "amountsIn",
					"type": "uint256[]"
				}
			],
			"stateMutability": "nonpayable",
			"type": "function"
		},
		{
			"inputs": [
				{
					"internalType": "uint256",
					"name": "amountOut",
					"type": "uint256"
				},
				{
					"internalType": "uint256",
					"name": "amountInMax",
					"type": "uint256"
				},
				{
					"components": [
						{
							"internalType": "uint256[]",
							"name": "pairBinSteps",
							"type": "uint256[]"
						},
						{
							"internalType": "enum ILBRouter.Version[]",
							"name": "versions",
							"type": "uint8[]"
						},
						{
							"internalType": "contract IERC20[]",
							"name": "tokenPath",
							"type": "address[]"
						}
					],
					"internalType": "struct ILBRouter.Path",
					"name": "path",
					"type": "tuple"
				},
				{
					"internalType": "address",
					"name": "to",
					"type": "address"
				},
				{
					"internalType": "uint256",
					"name": "deadline",
					"type": "uint256"
				}
			],
			"name": "swapTokensForExactTokens",
			"outputs": [
				{
					"internalType": "uint256[]",
					"name": "amountsIn",
					"type": "uint256[]"
				}
			],
			"stateMutability": "nonpayable",
			"type": "function"
		},
		{
			"inputs": [
				{
					"internalType": "contract IERC20",
					"name": "token",
					"type": "address"
				},
				{
					"internalType": "address",
					"name": "to",
					"type": "address"
				},
				{
					"internalType": "uint256",
					"name": "amount",
					"type": "uint256"
				}
			],
			"name": "sweep",
			"outputs": [],
			"stateMutability": "nonpayable",
			"type": "function"
		},
		{
			"inputs": [
				{
					"internalType": "contract ILBToken",
					"name": "lbToken",
					"type": "address"
				},
				{
					"internalType": "address",
					"name": "to",
					"type": "address"
				},
				{
					"internalType": "uint256[]",
					"name": "ids",
					"type": "uint256[]"
				},
				{
					"internalType": "uint256[]",
					"name": "amounts",
					"type": "uint256[]"
				}
			],
			"name": "sweepLBToken",
			"outputs": [],
			"stateMutability": "nonpayable",
			"type": "function"
		},
		{
			"stateMutability": "payable",
			"type": "receive"
		}
	]
}