{
  "abi": [
    {
      "inputs": [
        {
          "internalType": "address",
          "name": "_beaconAddress",
          "type": "address"
        },
        {
          "internalType": "address",
          "name": "_tokenX",
          "type": "address"
        },
        {
          "internalType": "address",
          "name": "_tokenY",
          "type": "address"
        },
        {
          "internalType": "uint16",
          "name": "_binStep",
          "type": "uint16"
        },
        {
          "internalType": "bytes",
          "name": "_data",
          "type": "bytes"
        }
      ],
      "stateMutability": "payable",
      "type": "constructor"
    },
    {
      "inputs": [
        {
          "internalType": "address",
          "name": "target",
          "type": "address"
        }
      ],
      "name": "AddressEmptyCode",
      "type": "error"
    },
    {
      "inputs": [
        {
          "internalType": "address",
          "name": "beacon",
          "type": "address"
        }
      ],
      "name": "ERC1967InvalidBeacon",
      "type": "error"
    },
    {
      "inputs": [
        {
          "internalType": "address",
          "name": "implementation",
          "type": "address"
        }
      ],
      "name": "ERC1967InvalidImplementation",
      "type": "error"
    },
    {
      "inputs": [],
      "name": "ERC1967NonPayable",
      "type": "error"
    },
    {
      "inputs": [],
      "name": "FailedInnerCall",
      "type": "error"
    },
    {
      "anonymous": false,
      "inputs": [
        {
          "indexed": true,
          "internalType": "address",
          "name": "beacon",
          "type": "address"
        }
      ],
      "name": "BeaconUpgraded",
      "type": "event"
    },
    {
      "stateMutability": "payable",
      "type": "fallback"
    },
    {
      "inputs": [],
      "name": "getBeacon",
      "outputs": [
        {
          "internalType": "address",
          "name": "",
          "type": "address"
        }
      ],
      "stateMutability": "view",
      "type": "function"
    },
    {
      "stateMutability": "payable",
      "type": "receive"
    }
  ],
  "bytecode": {
    "object": "0x60a0604052604051610800380380610800833981016040819052610022916104c4565b604080516020810190915260008152859061003d8282610179565b506001600160a01b0316608052600061007760017f73ef95b1b141b4aeb11976757a225324c423bf4634f4361553b9b059a82050bb6105bf565b60405160200161008991815260200190565b60408051601f198184030181529190528051602090910120905060006100d060017f039c6157caeca9b57df712b1365b48c637c526ae0a75b2c95cd3622e6ffda4fd6105bf565b6040516020016100e291815260200190565b60408051601f1981840301815291905280516020909101209050600061012960017fd1a1c4c8365fed7323947e7cb6a7be46aba18d67bc4a4c5418b50b8bbf5a31856105bf565b60405160200161013b91815260200190565b60405160208183030381529060405280519060200120905086835585825584815561016c888561017960201b60201c565b5050505050505050610617565b61018282610239565b6040516001600160a01b038316907f1cf3b03a6cf19fa2baba4df148e9dcabedea7f8a5c07840e207e5c089be95d3e90600090a280511561022d57610228826001600160a01b0316635c60da1b6040518163ffffffff1660e01b8152600401602060405180830381865afa1580156101fe573d6000803e3d6000fd5b505050506040513d601f19601f8201168201806040525081019061022291906105e0565b8261034c565b505050565b6102356103c5565b5050565b806001600160a01b03163b60000361027457604051631933b43b60e21b81526001600160a01b03821660048201526024015b60405180910390fd5b807fa3f0ad74e5423aebfd80d3ef4346578335a9a72aeaee59ff6cb3582b35133d5080546001600160a01b0319166001600160a01b0392831617905560408051635c60da1b60e01b81529051600092841691635c60da1b9160048083019260209291908290030181865afa1580156102f0573d6000803e3d6000fd5b505050506040513d601f19601f8201168201806040525081019061031491906105e0565b9050806001600160a01b03163b60000361023557604051634c9c8ce360e01b81526001600160a01b038216600482015260240161026b565b6060600080846001600160a01b03168460405161036991906105fb565b600060405180830381855af49150503d80600081146103a4576040519150601f19603f3d011682016040523d82523d6000602084013e6103a9565b606091505b5090925090506103ba8583836103e6565b925050505b92915050565b34156103e45760405163b398979f60e01b815260040160405180910390fd5b565b6060826103fb576103f682610445565b61043e565b815115801561041257506001600160a01b0384163b155b1561043b57604051639996b31560e01b81526001600160a01b038516600482015260240161026b565b50805b9392505050565b8051156104555780518082602001fd5b604051630a12f52160e11b815260040160405180910390fd5b80516001600160a01b038116811461048557600080fd5b919050565b634e487b7160e01b600052604160045260246000fd5b60005b838110156104bb5781810151838201526020016104a3565b50506000910152565b600080600080600060a086880312156104dc57600080fd5b6104e58661046e565b94506104f36020870161046e565b93506105016040870161046e565b9250606086015161ffff8116811461051857600080fd5b60808701519092506001600160401b038082111561053557600080fd5b818801915088601f83011261054957600080fd5b81518181111561055b5761055b61048a565b604051601f8201601f19908116603f011681019083821181831017156105835761058361048a565b816040528281528b602084870101111561059c57600080fd5b6105ad8360208301602088016104a0565b80955050505050509295509295909350565b818103818111156103bf57634e487b7160e01b600052601160045260246000fd5b6000602082840312156105f257600080fd5b61043e8261046e565b6000825161060d8184602087016104a0565b9190910192915050565b6080516101c9610637600039600081816042015260a501526101c96000f3fe6080604052600436106100225760003560e01c80632d6b3a6b1461003357610029565b3661002957005b61003161008a565b005b34801561003f57600080fd5b507f000000000000000000000000000000000000000000000000000000000000000060405173ffffffffffffffffffffffffffffffffffffffff909116815260200160405180910390f35b61009a6100956100a1565b610132565b565b905090565b60007f000000000000000000000000000000000000000000000000000000000000000073ffffffffffffffffffffffffffffffffffffffff16635c60da1b6040518163ffffffff1660e01b8152600401602060405180830381865afa15801561010e573d6000803e3d6000fd5b505050506040513d601f19601f8201168201806040525081019061009c9190610156565b3660008037600080366000845af43d6000803e808015610151573d6000f35b3d6000fd5b60006020828403121561016857600080fd5b815173ffffffffffffffffffffffffffffffffffffffff8116811461018c57600080fd5b939250505056fea26469706673582212209029a9df93b38c5180757e442cdfa31315e1d88c491e45a5c6e2b787c153fbd564736f6c63430008140033",
    "linkReferences": {}
  },
  "methodIdentifiers": {
    "getBeacon()": "2d6b3a6b"
  },
  "id": 59
}