{
  "abi": [
    {
      "inputs": [
        {
          "internalType": "address",
          "name": "caller",
          "type": "address"
        }
      ],
      "name": "LBBaseHooks__InvalidCaller",
      "type": "error"
    },
    {
      "inputs": [],
      "name": "LBBaseHooks__NotLinked",
      "type": "error"
    },
    {
      "inputs": [
        {
          "internalType": "address",
          "name": "sender",
          "type": "address"
        },
        {
          "internalType": "address",
          "name": "from",
          "type": "address"
        },
        {
          "internalType": "address",
          "name": "to",
          "type": "address"
        },
        {
          "internalType": "uint256[]",
          "name": "ids",
          "type": "uint256[]"
        },
        {
          "internalType": "uint256[]",
          "name": "amounts",
          "type": "uint256[]"
        }
      ],
      "name": "afterBatchTransferFrom",
      "outputs": [
        {
          "internalType": "bytes4",
          "name": "",
          "type": "bytes4"
        }
      ],
      "stateMutability": "nonpayable",
      "type": "function"
    },
    {
      "inputs": [
        {
          "internalType": "address",
          "name": "sender",
          "type": "address"
        },
        {
          "internalType": "address",
          "name": "from",
          "type": "address"
        },
        {
          "internalType": "address",
          "name": "to",
          "type": "address"
        },
        {
          "internalType": "uint256[]",
          "name": "ids",
          "type": "uint256[]"
        },
        {
          "internalType": "uint256[]",
          "name": "amountsToBurn",
          "type": "uint256[]"
        }
      ],
      "name": "afterBurn",
      "outputs": [
        {
          "internalType": "bytes4",
          "name": "",
          "type": "bytes4"
        }
      ],
      "stateMutability": "nonpayable",
      "type": "function"
    },
    {
      "inputs": [],
      "name": "afterData",
      "outputs": [
        {
          "internalType": "bytes",
          "name": "",
          "type": "bytes"
        }
      ],
      "stateMutability": "view",
      "type": "function"
    },
    {
      "inputs": [
        {
          "internalType": "address",
          "name": "sender",
          "type": "address"
        },
        {
          "internalType": "address",
          "name": "to",
          "type": "address"
        },
        {
          "internalType": "bytes32",
          "name": "fees",
          "type": "bytes32"
        },
        {
          "internalType": "bytes32",
          "name": "feesReceived",
          "type": "bytes32"
        }
      ],
      "name": "afterFlashLoan",
      "outputs": [
        {
          "internalType": "bytes4",
          "name": "",
          "type": "bytes4"
        }
      ],
      "stateMutability": "nonpayable",
      "type": "function"
    },
    {
      "inputs": [
        {
          "internalType": "address",
          "name": "sender",
          "type": "address"
        },
        {
          "internalType": "address",
          "name": "to",
          "type": "address"
        },
        {
          "internalType": "bytes32[]",
          "name": "liquidityConfigs",
          "type": "bytes32[]"
        },
        {
          "internalType": "bytes32",
          "name": "amountsIn",
          "type": "bytes32"
        }
      ],
      "name": "afterMint",
      "outputs": [
        {
          "internalType": "bytes4",
          "name": "",
          "type": "bytes4"
        }
      ],
      "stateMutability": "nonpayable",
      "type": "function"
    },
    {
      "inputs": [
        {
          "internalType": "address",
          "name": "sender",
          "type": "address"
        },
        {
          "internalType": "address",
          "name": "to",
          "type": "address"
        },
        {
          "internalType": "bool",
          "name": "swapForY",
          "type": "bool"
        },
        {
          "internalType": "bytes32",
          "name": "amountsOut",
          "type": "bytes32"
        }
      ],
      "name": "afterSwap",
      "outputs": [
        {
          "internalType": "bytes4",
          "name": "",
          "type": "bytes4"
        }
      ],
      "stateMutability": "nonpayable",
      "type": "function"
    },
    {
      "inputs": [
        {
          "internalType": "address",
          "name": "sender",
          "type": "address"
        },
        {
          "internalType": "address",
          "name": "from",
          "type": "address"
        },
        {
          "internalType": "address",
          "name": "to",
          "type": "address"
        },
        {
          "internalType": "uint256[]",
          "name": "ids",
          "type": "uint256[]"
        },
        {
          "internalType": "uint256[]",
          "name": "amounts",
          "type": "uint256[]"
        }
      ],
      "name": "beforeBatchTransferFrom",
      "outputs": [
        {
          "internalType": "bytes4",
          "name": "",
          "type": "bytes4"
        }
      ],
      "stateMutability": "nonpayable",
      "type": "function"
    },
    {
      "inputs": [
        {
          "internalType": "address",
          "name": "sender",
          "type": "address"
        },
        {
          "internalType": "address",
          "name": "from",
          "type": "address"
        },
        {
          "internalType": "address",
          "name": "to",
          "type": "address"
        },
        {
          "internalType": "uint256[]",
          "name": "ids",
          "type": "uint256[]"
        },
        {
          "internalType": "uint256[]",
          "name": "amountsToBurn",
          "type": "uint256[]"
        }
      ],
      "name": "beforeBurn",
      "outputs": [
        {
          "internalType": "bytes4",
          "name": "",
          "type": "bytes4"
        }
      ],
      "stateMutability": "nonpayable",
      "type": "function"
    },
    {
      "inputs": [],
      "name": "beforeData",
      "outputs": [
        {
          "internalType": "bytes",
          "name": "",
          "type": "bytes"
        }
      ],
      "stateMutability": "view",
      "type": "function"
    },
    {
      "inputs": [
        {
          "internalType": "address",
          "name": "sender",
          "type": "address"
        },
        {
          "internalType": "address",
          "name": "to",
          "type": "address"
        },
        {
          "internalType": "bytes32",
          "name": "amounts",
          "type": "bytes32"
        }
      ],
      "name": "beforeFlashLoan",
      "outputs": [
        {
          "internalType": "bytes4",
          "name": "",
          "type": "bytes4"
        }
      ],
      "stateMutability": "nonpayable",
      "type": "function"
    },
    {
      "inputs": [
        {
          "internalType": "address",
          "name": "sender",
          "type": "address"
        },
        {
          "internalType": "address",
          "name": "to",
          "type": "address"
        },
        {
          "internalType": "bytes32[]",
          "name": "liquidityConfigs",
          "type": "bytes32[]"
        },
        {
          "internalType": "bytes32",
          "name": "amountsReceived",
          "type": "bytes32"
        }
      ],
      "name": "beforeMint",
      "outputs": [
        {
          "internalType": "bytes4",
          "name": "",
          "type": "bytes4"
        }
      ],
      "stateMutability": "nonpayable",
      "type": "function"
    },
    {
      "inputs": [
        {
          "internalType": "address",
          "name": "sender",
          "type": "address"
        },
        {
          "internalType": "address",
          "name": "to",
          "type": "address"
        },
        {
          "internalType": "bool",
          "name": "swapForY",
          "type": "bool"
        },
        {
          "internalType": "bytes32",
          "name": "amountsIn",
          "type": "bytes32"
        }
      ],
      "name": "beforeSwap",
      "outputs": [
        {
          "internalType": "bytes4",
          "name": "",
          "type": "bytes4"
        }
      ],
      "stateMutability": "nonpayable",
      "type": "function"
    },
    {
      "inputs": [],
      "name": "getLBPair",
      "outputs": [
        {
          "internalType": "contract ILBPair",
          "name": "",
          "type": "address"
        }
      ],
      "stateMutability": "view",
      "type": "function"
    },
    {
      "inputs": [],
      "name": "isLinked",
      "outputs": [
        {
          "internalType": "bool",
          "name": "",
          "type": "bool"
        }
      ],
      "stateMutability": "view",
      "type": "function"
    },
    {
      "inputs": [
        {
          "internalType": "bytes32",
          "name": "hooksParameters",
          "type": "bytes32"
        },
        {
          "internalType": "bytes",
          "name": "onHooksSetData",
          "type": "bytes"
        }
      ],
      "name": "onHooksSet",
      "outputs": [
        {
          "internalType": "bytes4",
          "name": "",
          "type": "bytes4"
        }
      ],
      "stateMutability": "nonpayable",
      "type": "function"
    },
    {
      "inputs": [],
      "name": "pair",
      "outputs": [
        {
          "internalType": "address",
          "name": "",
          "type": "address"
        }
      ],
      "stateMutability": "view",
      "type": "function"
    },
    {
      "inputs": [],
      "name": "reset",
      "outputs": [],
      "stateMutability": "nonpayable",
      "type": "function"
    },
    {
      "inputs": [
        {
          "internalType": "address",
          "name": "_pair",
          "type": "address"
        }
      ],
      "name": "setPair",
      "outputs": [],
      "stateMutability": "nonpayable",
      "type": "function"
    }
  ],
  "bytecode": {
    "object": "0x608060405234801561001057600080fd5b50610c27806100206000396000f3fe608060405234801561001057600080fd5b50600436106101365760003560e01c806379c8ccf7116100b2578063c2fb5a6411610081578063ea9db9d311610066578063ea9db9d3146102c3578063fdc27257146102d6578063feee3735146102e957600080fd5b8063c2fb5a64146102b3578063d826f88f146102bb57600080fd5b806379c8ccf7146102305780637a51a4c6146102435780638187f51614610256578063a8aa1b31146102a057600080fd5b806353e8079b116101095780635f9c01b1116100ee5780635f9c01b1146101ea57806360bed5f31461020a57806367ddb2781461021d57600080fd5b806353e8079b146101c2578063571eed37146101d557600080fd5b806309fa1f901461013b5780630d4abdb3146101585780634e430b5a1461019c578063505d9033146101af575b600080fd5b6101436102fc565b60405190151581526020015b60405180910390f35b61016b6101663660046107b6565b61030b565b6040517fffffffff00000000000000000000000000000000000000000000000000000000909116815260200161014f565b61016b6101aa36600461081f565b610334565b61016b6101bd36600461089b565b61037e565b61016b6101d03660046108d7565b6103a3565b6101dd6103ca565b60405161014f9190610929565b6101f2610458565b6040516001600160a01b03909116815260200161014f565b61016b610218366004610977565b61046c565b61016b61022b3660046109b9565b610493565b61016b61023e3660046109b9565b6104c0565b61016b6102513660046107b6565b6104ed565b61029e610264366004610a5b565b600280547fffffffffffffffffffffffff0000000000000000000000000000000000000000166001600160a01b0392909216919091179055565b005b6002546101f2906001600160a01b031681565b6101dd610516565b61029e610523565b61016b6102d13660046109b9565b61053c565b61016b6102e43660046109b9565b610569565b61016b6102f73660046108d7565b610596565b60006103066105bd565b905090565b600061031561064a565b610322868686868661067b565b50630d4abdb360e01b95945050505050565b600061033e61064a565b6103466105bd565b61036357604051632def67a360e21b815260040160405180910390fd5b61036e848484610690565b5063272185ad60e11b9392505050565b600061038861064a565b610393848484610690565b5063505d903360e01b9392505050565b60006103ad61064a565b6103b9858585856106a3565b506353e8079b60e01b949350505050565b600080546103d790610a7d565b80601f016020809104026020016040519081016040528092919081815260200182805461040390610a7d565b80156104505780601f1061042557610100808354040283529160200191610450565b820191906000526020600020905b81548152906001019060200180831161043357829003601f168201915b505050505081565b60006103066002546001600160a01b031690565b600061047661064a565b610482858585856106a3565b506360bed5f360e01b949350505050565b600061049d61064a565b6104ac888888888888886106b8565b50630cfbb64f60e31b979650505050505050565b60006104ca61064a565b6104d9888888888888886106d0565b506379c8ccf760e01b979650505050505050565b60006104f761064a565b61050486868686866106dd565b50633d28d26360e11b95945050505050565b600180546103d790610a7d565b61052e6000806106f8565b61053a600160006106f8565b565b600061054661064a565b610555888888888888886106d0565b5063ea9db9d360e01b979650505050505050565b600061057361064a565b610582888888888888886106b8565b5063fdc2725760e01b979650505050505050565b60006105a061064a565b6105ac858585856106eb565b5063feee373560e01b949350505050565b6000806106396105d56002546001600160a01b031690565b6001600160a01b031663781a89156040518163ffffffff1660e01b8152600401602060405180830381865afa158015610612573d6000803e3d6000fd5b505050506040513d601f19601f820116820180604052508101906106369190610ab7565b90565b6001600160a01b0316301492915050565b6002546001600160a01b0316331461053a57604051634a27038360e01b815233600482015260240160405180910390fd5b6000610688368280610b31565b505050505050565b600061069d368280610b31565b50505050565b60016106b136600083610b31565b5050505050565b60016106c636600083610b31565b5050505050505050565b60006106c6368280610b31565b600161068836600083610b31565b60006106b1368280610b31565b50805461070490610a7d565b6000825580601f10610714575050565b601f0160209004906000526020600020908101906107329190610735565b50565b5b8082111561074a5760008155600101610736565b5090565b80356001600160a01b038116811461076557600080fd5b919050565b60008083601f84011261077c57600080fd5b50813567ffffffffffffffff81111561079457600080fd5b6020830191508360208260051b85010111156107af57600080fd5b9250929050565b6000806000806000608086880312156107ce57600080fd5b6107d78661074e565b94506107e56020870161074e565b9350604086013567ffffffffffffffff81111561080157600080fd5b61080d8882890161076a565b96999598509660600135949350505050565b60008060006040848603121561083457600080fd5b83359250602084013567ffffffffffffffff8082111561085357600080fd5b818601915086601f83011261086757600080fd5b81358181111561087657600080fd5b87602082850101111561088857600080fd5b6020830194508093505050509250925092565b6000806000606084860312156108b057600080fd5b6108b98461074e565b92506108c76020850161074e565b9150604084013590509250925092565b600080600080608085870312156108ed57600080fd5b6108f68561074e565b93506109046020860161074e565b92506040850135801515811461091957600080fd5b9396929550929360600135925050565b600060208083528351808285015260005b818110156109565785810183015185820160400152820161093a565b506000604082860101526040601f19601f8301168501019250505092915050565b6000806000806080858703121561098d57600080fd5b6109968561074e565b93506109a46020860161074e565b93969395505050506040820135916060013590565b600080600080600080600060a0888a0312156109d457600080fd5b6109dd8861074e565b96506109eb6020890161074e565b95506109f96040890161074e565b9450606088013567ffffffffffffffff80821115610a1657600080fd5b610a228b838c0161076a565b909650945060808a0135915080821115610a3b57600080fd5b50610a488a828b0161076a565b989b979a50959850939692959293505050565b600060208284031215610a6d57600080fd5b610a768261074e565b9392505050565b600181811c90821680610a9157607f821691505b602082108103610ab157634e487b7160e01b600052602260045260246000fd5b50919050565b600060208284031215610ac957600080fd5b5051919050565b634e487b7160e01b600052604160045260246000fd5b601f821115610b2c57600081815260208120601f850160051c81016020861015610b0d5750805b601f850160051c820191505b8181101561068857828155600101610b19565b505050565b67ffffffffffffffff831115610b4957610b49610ad0565b610b5d83610b578354610a7d565b83610ae6565b6000601f841160018114610b915760008515610b795750838201355b600019600387901b1c1916600186901b1783556106b1565b600083815260209020601f19861690835b82811015610bc25786850135825560209485019460019092019101610ba2565b5086821015610bdf5760001960f88860031b161c19848701351681555b505060018560011b018355505050505056fea26469706673582212203a068035098145938eb91833f9a7bb63d20563dfc0dbd24fef9da6615b728d7664736f6c63430008140033",
    "linkReferences": {}
  },
  "methodIdentifiers": {
    "afterBatchTransferFrom(address,address,address,uint256[],uint256[])": "67ddb278",
    "afterBurn(address,address,address,uint256[],uint256[])": "fdc27257",
    "afterData()": "c2fb5a64",
    "afterFlashLoan(address,address,bytes32,bytes32)": "60bed5f3",
    "afterMint(address,address,bytes32[],bytes32)": "7a51a4c6",
    "afterSwap(address,address,bool,bytes32)": "53e8079b",
    "beforeBatchTransferFrom(address,address,address,uint256[],uint256[])": "79c8ccf7",
    "beforeBurn(address,address,address,uint256[],uint256[])": "ea9db9d3",
    "beforeData()": "571eed37",
    "beforeFlashLoan(address,address,bytes32)": "505d9033",
    "beforeMint(address,address,bytes32[],bytes32)": "0d4abdb3",
    "beforeSwap(address,address,bool,bytes32)": "feee3735",
    "getLBPair()": "5f9c01b1",
    "isLinked()": "09fa1f90",
    "onHooksSet(bytes32,bytes)": "4e430b5a",
    "pair()": "a8aa1b31",
    "reset()": "d826f88f",
    "setPair(address)": "8187f516"
  },
  "id": 167
}