{"abi":[{"type":"constructor","inputs":[{"name":"lender_","type":"address","internalType":"contract ILBPair"}],"stateMutability":"nonpayable"},{"type":"function","name":"LBFlashLoanCallback","inputs":[{"name":"","type":"address","internalType":"address"},{"name":"tokenX","type":"address","internalType":"contract IERC20"},{"name":"tokenY","type":"address","internalType":"contract IERC20"},{"name":"amounts","type":"bytes32","internalType":"bytes32"},{"name":"totalFees","type":"bytes32","internalType":"bytes32"},{"name":"data","type":"bytes","internalType":"bytes"}],"outputs":[{"name":"","type":"bytes32","internalType":"bytes32"}],"stateMutability":"nonpayable"},{"type":"error","name":"AddressEmptyCode","inputs":[{"name":"target","type":"address","internalType":"address"}]},{"type":"error","name":"AddressInsufficientBalance","inputs":[{"name":"account","type":"address","internalType":"address"}]},{"type":"error","name":"FailedInnerCall","inputs":[]},{"type":"error","name":"FlashBorrower__UntrustedLender","inputs":[]},{"type":"error","name":"FlashBorrower__UntrustedLoanInitiator","inputs":[]},{"type":"error","name":"SafeERC20FailedOperation","inputs":[{"name":"token","type":"address","internalType":"address"}]}],"bytecode":{"object":"0x60a060405234801561001057600080fd5b506040516106a83803806106a883398101604081905261002f91610040565b6001600160a01b0316608052610070565b60006020828403121561005257600080fd5b81516001600160a01b038116811461006957600080fd5b9392505050565b60805161061e61008a600039600060b4015261061e6000f3fe608060405234801561001057600080fd5b506004361061002b5760003560e01c80631faa6b8714610030575b600080fd5b61004361003e36600461041f565b610055565b60405190815260200160405180910390f35b600080808080610067868801886104f9565b9296509094509250905060018160018111156100855761008561054c565b036101195760405163ea3446bf60e01b8152306004820152602481018a905260606044820152600060648201527f00000000000000000000000000000000000000000000000000000000000000006001600160a01b03169063ea3446bf90608401600060405180830381600087803b15801561010057600080fd5b505af1158015610114573d6000803e3d6000fd5b505050505b6ffffffffffffffffffffffffffffffffe196001600160801b03851601610153576101506001600160801b03898116908b16610562565b93505b6ffffffffffffffffffffffffffffffffe196001600160801b038416016101955761017e8860801c90565b6101888a60801c90565b6101929190610562565b92505b6001600160801b038416156101c1576101c16001600160a01b038c16336001600160801b0387166101fc565b6001600160801b038316156101ed576101ed6001600160a01b038b16336001600160801b0386166101fc565b509a9950505050505050505050565b604080516001600160a01b038416602482015260448082018490528251808303909101815260649091019091526020810180517bffffffffffffffffffffffffffffffffffffffffffffffffffffffff1663a9059cbb60e01b179052610263908490610268565b505050565b600061027d6001600160a01b038416836102d0565b905080516000141580156102a25750808060200190518101906102a09190610597565b155b1561026357604051635274afe760e01b81526001600160a01b03841660048201526024015b60405180910390fd5b60606102de838360006102e5565b9392505050565b60608147101561030a5760405163cd78605960e01b81523060048201526024016102c7565b600080856001600160a01b0316848660405161032691906105b9565b60006040518083038185875af1925050503d8060008114610363576040519150601f19603f3d011682016040523d82523d6000602084013e610368565b606091505b5091509150610378868383610382565b9695505050505050565b60608261039757610392826103de565b6102de565b81511580156103ae57506001600160a01b0384163b155b156103d757604051639996b31560e01b81526001600160a01b03851660048201526024016102c7565b50806102de565b8051156103ee5780518082602001fd5b604051630a12f52160e11b815260040160405180910390fd5b50565b6001600160a01b038116811461040757600080fd5b600080600080600080600060c0888a03121561043a57600080fd5b87356104458161040a565b965060208801356104558161040a565b955060408801356104658161040a565b9450606088013593506080880135925060a088013567ffffffffffffffff8082111561049057600080fd5b818a0191508a601f8301126104a457600080fd5b8135818111156104b357600080fd5b8b60208285010111156104c557600080fd5b60208301945080935050505092959891949750929550565b80356001600160801b03811681146104f457600080fd5b919050565b6000806000806080858703121561050f57600080fd5b610518856104dd565b9350610526602086016104dd565b92506040850135915060608501356002811061054157600080fd5b939692955090935050565b634e487b7160e01b600052602160045260246000fd5b6001600160801b0381811683821601908082111561059057634e487b7160e01b600052601160045260246000fd5b5092915050565b6000602082840312156105a957600080fd5b815180151581146102de57600080fd5b6000825160005b818110156105da57602081860181015185830152016105c0565b50600092019182525091905056fea2646970667358221220d7d527434590d9bb3ab00f02826b007b85b043b4e0d97edf547c1b576403448a64736f6c63430008140033","linkReferences":{}},"methodIdentifiers":{"LBFlashLoanCallback(address,address,address,bytes32,bytes32,bytes)":"1faa6b87"},"id":145}