{
  "abi": [
    {
      "inputs": [
        {
          "internalType": "contract ILBFactory",
          "name": "factory2",
          "type": "address"
        },
        {
          "internalType": "contract ISovrynLBFactoryV1",
          "name": "factoryV1",
          "type": "address"
        },
        {
          "internalType": "contract IWNATIVE",
          "name": "wnative",
          "type": "address"
        }
      ],
      "stateMutability": "nonpayable",
      "type": "constructor"
    },
    {
      "inputs": [],
      "name": "InvalidInitialization",
      "type": "error"
    },
    {
      "inputs": [
        {
          "internalType": "uint256",
          "name": "amountSlippage",
          "type": "uint256"
        }
      ],
      "name": "LBRouter__AmountSlippageBPTooBig",
      "type": "error"
    },
    {
      "inputs": [
        {
          "internalType": "uint256",
          "name": "amountXMin",
          "type": "uint256"
        },
        {
          "internalType": "uint256",
          "name": "amountX",
          "type": "uint256"
        },
        {
          "internalType": "uint256",
          "name": "amountYMin",
          "type": "uint256"
        },
        {
          "internalType": "uint256",
          "name": "amountY",
          "type": "uint256"
        }
      ],
      "name": "LBRouter__AmountSlippageCaught",
      "type": "error"
    },
    {
      "inputs": [
        {
          "internalType": "uint256",
          "name": "id",
          "type": "uint256"
        }
      ],
      "name": "LBRouter__BinReserveOverflows",
      "type": "error"
    },
    {
      "inputs": [],
      "name": "LBRouter__BrokenSwapSafetyCheck",
      "type": "error"
    },
    {
      "inputs": [
        {
          "internalType": "uint256",
          "name": "deadline",
          "type": "uint256"
        },
        {
          "internalType": "uint256",
          "name": "currentTimestamp",
          "type": "uint256"
        }
      ],
      "name": "LBRouter__DeadlineExceeded",
      "type": "error"
    },
    {
      "inputs": [
        {
          "internalType": "address",
          "name": "recipient",
          "type": "address"
        },
        {
          "internalType": "uint256",
          "name": "amount",
          "type": "uint256"
        }
      ],
      "name": "LBRouter__FailedToSendNATIVE",
      "type": "error"
    },
    {
      "inputs": [
        {
          "internalType": "uint256",
          "name": "idDesired",
          "type": "uint256"
        },
        {
          "internalType": "uint256",
          "name": "idSlippage",
          "type": "uint256"
        }
      ],
      "name": "LBRouter__IdDesiredOverflows",
      "type": "error"
    },
    {
      "inputs": [
        {
          "internalType": "int256",
          "name": "id",
          "type": "int256"
        }
      ],
      "name": "LBRouter__IdOverflows",
      "type": "error"
    },
    {
      "inputs": [
        {
          "internalType": "uint256",
          "name": "activeIdDesired",
          "type": "uint256"
        },
        {
          "internalType": "uint256",
          "name": "idSlippage",
          "type": "uint256"
        },
        {
          "internalType": "uint256",
          "name": "activeId",
          "type": "uint256"
        }
      ],
      "name": "LBRouter__IdSlippageCaught",
      "type": "error"
    },
    {
      "inputs": [
        {
          "internalType": "uint256",
          "name": "amountOutMin",
          "type": "uint256"
        },
        {
          "internalType": "uint256",
          "name": "amountOut",
          "type": "uint256"
        }
      ],
      "name": "LBRouter__InsufficientAmountOut",
      "type": "error"
    },
    {
      "inputs": [
        {
          "internalType": "address",
          "name": "wrongToken",
          "type": "address"
        }
      ],
      "name": "LBRouter__InvalidTokenPath",
      "type": "error"
    },
    {
      "inputs": [
        {
          "internalType": "uint256",
          "name": "version",
          "type": "uint256"
        }
      ],
      "name": "LBRouter__InvalidVersion",
      "type": "error"
    },
    {
      "inputs": [],
      "name": "LBRouter__LengthsMismatch",
      "type": "error"
    },
    {
      "inputs": [
        {
          "internalType": "uint256",
          "name": "amountInMax",
          "type": "uint256"
        },
        {
          "internalType": "uint256",
          "name": "amountIn",
          "type": "uint256"
        }
      ],
      "name": "LBRouter__MaxAmountInExceeded",
      "type": "error"
    },
    {
      "inputs": [],
      "name": "LBRouter__NotFactoryOwner",
      "type": "error"
    },
    {
      "inputs": [
        {
          "internalType": "address",
          "name": "tokenX",
          "type": "address"
        },
        {
          "internalType": "address",
          "name": "tokenY",
          "type": "address"
        },
        {
          "internalType": "uint256",
          "name": "binStep",
          "type": "uint256"
        }
      ],
      "name": "LBRouter__PairNotCreated",
      "type": "error"
    },
    {
      "inputs": [],
      "name": "LBRouter__SenderIsNotWNATIVE",
      "type": "error"
    },
    {
      "inputs": [
        {
          "internalType": "uint256",
          "name": "id",
          "type": "uint256"
        }
      ],
      "name": "LBRouter__SwapOverflows",
      "type": "error"
    },
    {
      "inputs": [
        {
          "internalType": "uint256",
          "name": "excess",
          "type": "uint256"
        }
      ],
      "name": "LBRouter__TooMuchTokensIn",
      "type": "error"
    },
    {
      "inputs": [
        {
          "internalType": "uint256",
          "name": "amount",
          "type": "uint256"
        },
        {
          "internalType": "uint256",
          "name": "reserve",
          "type": "uint256"
        }
      ],
      "name": "LBRouter__WrongAmounts",
      "type": "error"
    },
    {
      "inputs": [
        {
          "internalType": "address",
          "name": "tokenX",
          "type": "address"
        },
        {
          "internalType": "address",
          "name": "tokenY",
          "type": "address"
        },
        {
          "internalType": "uint256",
          "name": "amountX",
          "type": "uint256"
        },
        {
          "internalType": "uint256",
          "name": "amountY",
          "type": "uint256"
        },
        {
          "internalType": "uint256",
          "name": "msgValue",
          "type": "uint256"
        }
      ],
      "name": "LBRouter__WrongNativeLiquidityParameters",
      "type": "error"
    },
    {
      "inputs": [],
      "name": "LBRouter__WrongTokenOrder",
      "type": "error"
    },
    {
      "inputs": [],
      "name": "NotInitializing",
      "type": "error"
    },
    {
      "inputs": [],
      "name": "PackedUint128Math__SubUnderflow",
      "type": "error"
    },
    {
      "inputs": [],
      "name": "SovrynLBLibrary__InsufficientAmount",
      "type": "error"
    },
    {
      "inputs": [],
      "name": "SovrynLBLibrary__InsufficientLiquidity",
      "type": "error"
    },
    {
      "inputs": [],
      "name": "TokenHelper__TransferFailed",
      "type": "error"
    },
    {
      "anonymous": false,
      "inputs": [
        {
          "indexed": false,
          "internalType": "uint64",
          "name": "version",
          "type": "uint64"
        }
      ],
      "name": "Initialized",
      "type": "event"
    },
    {
      "inputs": [
        {
          "components": [
            {
              "internalType": "contract IERC20",
              "name": "tokenX",
              "type": "address"
            },
            {
              "internalType": "contract IERC20",
              "name": "tokenY",
              "type": "address"
            },
            {
              "internalType": "uint256",
              "name": "binStep",
              "type": "uint256"
            },
            {
              "internalType": "uint256",
              "name": "amountX",
              "type": "uint256"
            },
            {
              "internalType": "uint256",
              "name": "amountY",
              "type": "uint256"
            },
            {
              "internalType": "uint256",
              "name": "amountXMin",
              "type": "uint256"
            },
            {
              "internalType": "uint256",
              "name": "amountYMin",
              "type": "uint256"
            },
            {
              "internalType": "uint256",
              "name": "activeIdDesired",
              "type": "uint256"
            },
            {
              "internalType": "uint256",
              "name": "idSlippage",
              "type": "uint256"
            },
            {
              "internalType": "int256[]",
              "name": "deltaIds",
              "type": "int256[]"
            },
            {
              "internalType": "uint256[]",
              "name": "distributionX",
              "type": "uint256[]"
            },
            {
              "internalType": "uint256[]",
              "name": "distributionY",
              "type": "uint256[]"
            },
            {
              "internalType": "address",
              "name": "to",
              "type": "address"
            },
            {
              "internalType": "address",
              "name": "refundTo",
              "type": "address"
            },
            {
              "internalType": "uint256",
              "name": "deadline",
              "type": "uint256"
            }
          ],
          "internalType": "struct ILBRouter.LiquidityParameters",
          "name": "liquidityParameters",
          "type": "tuple"
        }
      ],
      "name": "addLiquidity",
      "outputs": [
        {
          "internalType": "uint256",
          "name": "amountXAdded",
          "type": "uint256"
        },
        {
          "internalType": "uint256",
          "name": "amountYAdded",
          "type": "uint256"
        },
        {
          "internalType": "uint256",
          "name": "amountXLeft",
          "type": "uint256"
        },
        {
          "internalType": "uint256",
          "name": "amountYLeft",
          "type": "uint256"
        },
        {
          "internalType": "uint256[]",
          "name": "depositIds",
          "type": "uint256[]"
        },
        {
          "internalType": "uint256[]",
          "name": "liquidityMinted",
          "type": "uint256[]"
        }
      ],
      "stateMutability": "nonpayable",
      "type": "function"
    },
    {
      "inputs": [
        {
          "components": [
            {
              "internalType": "contract IERC20",
              "name": "tokenX",
              "type": "address"
            },
            {
              "internalType": "contract IERC20",
              "name": "tokenY",
              "type": "address"
            },
            {
              "internalType": "uint256",
              "name": "binStep",
              "type": "uint256"
            },
            {
              "internalType": "uint256",
              "name": "amountX",
              "type": "uint256"
            },
            {
              "internalType": "uint256",
              "name": "amountY",
              "type": "uint256"
            },
            {
              "internalType": "uint256",
              "name": "amountXMin",
              "type": "uint256"
            },
            {
              "internalType": "uint256",
              "name": "amountYMin",
              "type": "uint256"
            },
            {
              "internalType": "uint256",
              "name": "activeIdDesired",
              "type": "uint256"
            },
            {
              "internalType": "uint256",
              "name": "idSlippage",
              "type": "uint256"
            },
            {
              "internalType": "int256[]",
              "name": "deltaIds",
              "type": "int256[]"
            },
            {
              "internalType": "uint256[]",
              "name": "distributionX",
              "type": "uint256[]"
            },
            {
              "internalType": "uint256[]",
              "name": "distributionY",
              "type": "uint256[]"
            },
            {
              "internalType": "address",
              "name": "to",
              "type": "address"
            },
            {
              "internalType": "address",
              "name": "refundTo",
              "type": "address"
            },
            {
              "internalType": "uint256",
              "name": "deadline",
              "type": "uint256"
            }
          ],
          "internalType": "struct ILBRouter.LiquidityParameters",
          "name": "liquidityParameters",
          "type": "tuple"
        }
      ],
      "name": "addLiquidityNATIVE",
      "outputs": [
        {
          "internalType": "uint256",
          "name": "amountXAdded",
          "type": "uint256"
        },
        {
          "internalType": "uint256",
          "name": "amountYAdded",
          "type": "uint256"
        },
        {
          "internalType": "uint256",
          "name": "amountXLeft",
          "type": "uint256"
        },
        {
          "internalType": "uint256",
          "name": "amountYLeft",
          "type": "uint256"
        },
        {
          "internalType": "uint256[]",
          "name": "depositIds",
          "type": "uint256[]"
        },
        {
          "internalType": "uint256[]",
          "name": "liquidityMinted",
          "type": "uint256[]"
        }
      ],
      "stateMutability": "payable",
      "type": "function"
    },
    {
      "inputs": [
        {
          "internalType": "contract IERC20",
          "name": "tokenX",
          "type": "address"
        },
        {
          "internalType": "contract IERC20",
          "name": "tokenY",
          "type": "address"
        },
        {
          "internalType": "uint24",
          "name": "activeId",
          "type": "uint24"
        },
        {
          "internalType": "uint16",
          "name": "binStep",
          "type": "uint16"
        }
      ],
      "name": "createLBPair",
      "outputs": [
        {
          "internalType": "contract ILBPair",
          "name": "pair",
          "type": "address"
        }
      ],
      "stateMutability": "nonpayable",
      "type": "function"
    },
    {
      "inputs": [],
      "name": "getFactory",
      "outputs": [
        {
          "internalType": "contract ILBFactory",
          "name": "lbFactory",
          "type": "address"
        }
      ],
      "stateMutability": "view",
      "type": "function"
    },
    {
      "inputs": [
        {
          "internalType": "contract ILBPair",
          "name": "pair",
          "type": "address"
        },
        {
          "internalType": "uint256",
          "name": "price",
          "type": "uint256"
        }
      ],
      "name": "getIdFromPrice",
      "outputs": [
        {
          "internalType": "uint24",
          "name": "",
          "type": "uint24"
        }
      ],
      "stateMutability": "view",
      "type": "function"
    },
    {
      "inputs": [
        {
          "internalType": "contract ILBPair",
          "name": "pair",
          "type": "address"
        },
        {
          "internalType": "uint24",
          "name": "id",
          "type": "uint24"
        }
      ],
      "name": "getPriceFromId",
      "outputs": [
        {
          "internalType": "uint256",
          "name": "",
          "type": "uint256"
        }
      ],
      "stateMutability": "view",
      "type": "function"
    },
    {
      "inputs": [
        {
          "internalType": "contract ILBPair",
          "name": "pair",
          "type": "address"
        },
        {
          "internalType": "uint128",
          "name": "amountOut",
          "type": "uint128"
        },
        {
          "internalType": "bool",
          "name": "swapForY",
          "type": "bool"
        }
      ],
      "name": "getSwapIn",
      "outputs": [
        {
          "internalType": "uint128",
          "name": "amountIn",
          "type": "uint128"
        },
        {
          "internalType": "uint128",
          "name": "amountOutLeft",
          "type": "uint128"
        },
        {
          "internalType": "uint128",
          "name": "fee",
          "type": "uint128"
        }
      ],
      "stateMutability": "view",
      "type": "function"
    },
    {
      "inputs": [
        {
          "internalType": "contract ILBPair",
          "name": "pair",
          "type": "address"
        },
        {
          "internalType": "uint128",
          "name": "amountIn",
          "type": "uint128"
        },
        {
          "internalType": "bool",
          "name": "swapForY",
          "type": "bool"
        }
      ],
      "name": "getSwapOut",
      "outputs": [
        {
          "internalType": "uint128",
          "name": "amountInLeft",
          "type": "uint128"
        },
        {
          "internalType": "uint128",
          "name": "amountOut",
          "type": "uint128"
        },
        {
          "internalType": "uint128",
          "name": "fee",
          "type": "uint128"
        }
      ],
      "stateMutability": "view",
      "type": "function"
    },
    {
      "inputs": [],
      "name": "getV1Factory",
      "outputs": [
        {
          "internalType": "contract ISovrynLBFactoryV1",
          "name": "factoryV1",
          "type": "address"
        }
      ],
      "stateMutability": "view",
      "type": "function"
    },
    {
      "inputs": [],
      "name": "getWNATIVE",
      "outputs": [
        {
          "internalType": "contract IWNATIVE",
          "name": "wnative",
          "type": "address"
        }
      ],
      "stateMutability": "view",
      "type": "function"
    },
    {
      "inputs": [],
      "name": "initialize",
      "outputs": [],
      "stateMutability": "nonpayable",
      "type": "function"
    },
    {
      "inputs": [
        {
          "internalType": "contract IERC20",
          "name": "tokenX",
          "type": "address"
        },
        {
          "internalType": "contract IERC20",
          "name": "tokenY",
          "type": "address"
        },
        {
          "internalType": "uint16",
          "name": "binStep",
          "type": "uint16"
        },
        {
          "internalType": "uint256",
          "name": "amountXMin",
          "type": "uint256"
        },
        {
          "internalType": "uint256",
          "name": "amountYMin",
          "type": "uint256"
        },
        {
          "internalType": "uint256[]",
          "name": "ids",
          "type": "uint256[]"
        },
        {
          "internalType": "uint256[]",
          "name": "amounts",
          "type": "uint256[]"
        },
        {
          "internalType": "address",
          "name": "to",
          "type": "address"
        },
        {
          "internalType": "uint256",
          "name": "deadline",
          "type": "uint256"
        }
      ],
      "name": "removeLiquidity",
      "outputs": [
        {
          "internalType": "uint256",
          "name": "amountX",
          "type": "uint256"
        },
        {
          "internalType": "uint256",
          "name": "amountY",
          "type": "uint256"
        }
      ],
      "stateMutability": "nonpayable",
      "type": "function"
    },
    {
      "inputs": [
        {
          "internalType": "contract IERC20",
          "name": "token",
          "type": "address"
        },
        {
          "internalType": "uint16",
          "name": "binStep",
          "type": "uint16"
        },
        {
          "internalType": "uint256",
          "name": "amountTokenMin",
          "type": "uint256"
        },
        {
          "internalType": "uint256",
          "name": "amountNATIVEMin",
          "type": "uint256"
        },
        {
          "internalType": "uint256[]",
          "name": "ids",
          "type": "uint256[]"
        },
        {
          "internalType": "uint256[]",
          "name": "amounts",
          "type": "uint256[]"
        },
        {
          "internalType": "address payable",
          "name": "to",
          "type": "address"
        },
        {
          "internalType": "uint256",
          "name": "deadline",
          "type": "uint256"
        }
      ],
      "name": "removeLiquidityNATIVE",
      "outputs": [
        {
          "internalType": "uint256",
          "name": "amountToken",
          "type": "uint256"
        },
        {
          "internalType": "uint256",
          "name": "amountNATIVE",
          "type": "uint256"
        }
      ],
      "stateMutability": "nonpayable",
      "type": "function"
    },
    {
      "inputs": [
        {
          "internalType": "uint256",
          "name": "amountOutMin",
          "type": "uint256"
        },
        {
          "components": [
            {
              "internalType": "uint256[]",
              "name": "pairBinSteps",
              "type": "uint256[]"
            },
            {
              "internalType": "enum ILBRouter.Version[]",
              "name": "versions",
              "type": "uint8[]"
            },
            {
              "internalType": "contract IERC20[]",
              "name": "tokenPath",
              "type": "address[]"
            }
          ],
          "internalType": "struct ILBRouter.Path",
          "name": "path",
          "type": "tuple"
        },
        {
          "internalType": "address",
          "name": "to",
          "type": "address"
        },
        {
          "internalType": "uint256",
          "name": "deadline",
          "type": "uint256"
        }
      ],
      "name": "swapExactNATIVEForTokens",
      "outputs": [
        {
          "internalType": "uint256",
          "name": "amountOut",
          "type": "uint256"
        }
      ],
      "stateMutability": "payable",
      "type": "function"
    },
    {
      "inputs": [
        {
          "internalType": "uint256",
          "name": "amountOutMin",
          "type": "uint256"
        },
        {
          "components": [
            {
              "internalType": "uint256[]",
              "name": "pairBinSteps",
              "type": "uint256[]"
            },
            {
              "internalType": "enum ILBRouter.Version[]",
              "name": "versions",
              "type": "uint8[]"
            },
            {
              "internalType": "contract IERC20[]",
              "name": "tokenPath",
              "type": "address[]"
            }
          ],
          "internalType": "struct ILBRouter.Path",
          "name": "path",
          "type": "tuple"
        },
        {
          "internalType": "address",
          "name": "to",
          "type": "address"
        },
        {
          "internalType": "uint256",
          "name": "deadline",
          "type": "uint256"
        }
      ],
      "name": "swapExactNATIVEForTokensSupportingFeeOnTransferTokens",
      "outputs": [
        {
          "internalType": "uint256",
          "name": "amountOut",
          "type": "uint256"
        }
      ],
      "stateMutability": "payable",
      "type": "function"
    },
    {
      "inputs": [
        {
          "internalType": "uint256",
          "name": "amountIn",
          "type": "uint256"
        },
        {
          "internalType": "uint256",
          "name": "amountOutMinNATIVE",
          "type": "uint256"
        },
        {
          "components": [
            {
              "internalType": "uint256[]",
              "name": "pairBinSteps",
              "type": "uint256[]"
            },
            {
              "internalType": "enum ILBRouter.Version[]",
              "name": "versions",
              "type": "uint8[]"
            },
            {
              "internalType": "contract IERC20[]",
              "name": "tokenPath",
              "type": "address[]"
            }
          ],
          "internalType": "struct ILBRouter.Path",
          "name": "path",
          "type": "tuple"
        },
        {
          "internalType": "address payable",
          "name": "to",
          "type": "address"
        },
        {
          "internalType": "uint256",
          "name": "deadline",
          "type": "uint256"
        }
      ],
      "name": "swapExactTokensForNATIVE",
      "outputs": [
        {
          "internalType": "uint256",
          "name": "amountOut",
          "type": "uint256"
        }
      ],
      "stateMutability": "nonpayable",
      "type": "function"
    },
    {
      "inputs": [
        {
          "internalType": "uint256",
          "name": "amountIn",
          "type": "uint256"
        },
        {
          "internalType": "uint256",
          "name": "amountOutMinNATIVE",
          "type": "uint256"
        },
        {
          "components": [
            {
              "internalType": "uint256[]",
              "name": "pairBinSteps",
              "type": "uint256[]"
            },
            {
              "internalType": "enum ILBRouter.Version[]",
              "name": "versions",
              "type": "uint8[]"
            },
            {
              "internalType": "contract IERC20[]",
              "name": "tokenPath",
              "type": "address[]"
            }
          ],
          "internalType": "struct ILBRouter.Path",
          "name": "path",
          "type": "tuple"
        },
        {
          "internalType": "address payable",
          "name": "to",
          "type": "address"
        },
        {
          "internalType": "uint256",
          "name": "deadline",
          "type": "uint256"
        }
      ],
      "name": "swapExactTokensForNATIVESupportingFeeOnTransferTokens",
      "outputs": [
        {
          "internalType": "uint256",
          "name": "amountOut",
          "type": "uint256"
        }
      ],
      "stateMutability": "nonpayable",
      "type": "function"
    },
    {
      "inputs": [
        {
          "internalType": "uint256",
          "name": "amountIn",
          "type": "uint256"
        },
        {
          "internalType": "uint256",
          "name": "amountOutMin",
          "type": "uint256"
        },
        {
          "components": [
            {
              "internalType": "uint256[]",
              "name": "pairBinSteps",
              "type": "uint256[]"
            },
            {
              "internalType": "enum ILBRouter.Version[]",
              "name": "versions",
              "type": "uint8[]"
            },
            {
              "internalType": "contract IERC20[]",
              "name": "tokenPath",
              "type": "address[]"
            }
          ],
          "internalType": "struct ILBRouter.Path",
          "name": "path",
          "type": "tuple"
        },
        {
          "internalType": "address",
          "name": "to",
          "type": "address"
        },
        {
          "internalType": "uint256",
          "name": "deadline",
          "type": "uint256"
        }
      ],
      "name": "swapExactTokensForTokens",
      "outputs": [
        {
          "internalType": "uint256",
          "name": "amountOut",
          "type": "uint256"
        }
      ],
      "stateMutability": "nonpayable",
      "type": "function"
    },
    {
      "inputs": [
        {
          "internalType": "uint256",
          "name": "amountIn",
          "type": "uint256"
        },
        {
          "internalType": "uint256",
          "name": "amountOutMin",
          "type": "uint256"
        },
        {
          "components": [
            {
              "internalType": "uint256[]",
              "name": "pairBinSteps",
              "type": "uint256[]"
            },
            {
              "internalType": "enum ILBRouter.Version[]",
              "name": "versions",
              "type": "uint8[]"
            },
            {
              "internalType": "contract IERC20[]",
              "name": "tokenPath",
              "type": "address[]"
            }
          ],
          "internalType": "struct ILBRouter.Path",
          "name": "path",
          "type": "tuple"
        },
        {
          "internalType": "address",
          "name": "to",
          "type": "address"
        },
        {
          "internalType": "uint256",
          "name": "deadline",
          "type": "uint256"
        }
      ],
      "name": "swapExactTokensForTokensSupportingFeeOnTransferTokens",
      "outputs": [
        {
          "internalType": "uint256",
          "name": "amountOut",
          "type": "uint256"
        }
      ],
      "stateMutability": "nonpayable",
      "type": "function"
    },
    {
      "inputs": [
        {
          "internalType": "uint256",
          "name": "amountOut",
          "type": "uint256"
        },
        {
          "components": [
            {
              "internalType": "uint256[]",
              "name": "pairBinSteps",
              "type": "uint256[]"
            },
            {
              "internalType": "enum ILBRouter.Version[]",
              "name": "versions",
              "type": "uint8[]"
            },
            {
              "internalType": "contract IERC20[]",
              "name": "tokenPath",
              "type": "address[]"
            }
          ],
          "internalType": "struct ILBRouter.Path",
          "name": "path",
          "type": "tuple"
        },
        {
          "internalType": "address",
          "name": "to",
          "type": "address"
        },
        {
          "internalType": "uint256",
          "name": "deadline",
          "type": "uint256"
        }
      ],
      "name": "swapNATIVEForExactTokens",
      "outputs": [
        {
          "internalType": "uint256[]",
          "name": "amountsIn",
          "type": "uint256[]"
        }
      ],
      "stateMutability": "payable",
      "type": "function"
    },
    {
      "inputs": [
        {
          "internalType": "uint256",
          "name": "amountNATIVEOut",
          "type": "uint256"
        },
        {
          "internalType": "uint256",
          "name": "amountInMax",
          "type": "uint256"
        },
        {
          "components": [
            {
              "internalType": "uint256[]",
              "name": "pairBinSteps",
              "type": "uint256[]"
            },
            {
              "internalType": "enum ILBRouter.Version[]",
              "name": "versions",
              "type": "uint8[]"
            },
            {
              "internalType": "contract IERC20[]",
              "name": "tokenPath",
              "type": "address[]"
            }
          ],
          "internalType": "struct ILBRouter.Path",
          "name": "path",
          "type": "tuple"
        },
        {
          "internalType": "address payable",
          "name": "to",
          "type": "address"
        },
        {
          "internalType": "uint256",
          "name": "deadline",
          "type": "uint256"
        }
      ],
      "name": "swapTokensForExactNATIVE",
      "outputs": [
        {
          "internalType": "uint256[]",
          "name": "amountsIn",
          "type": "uint256[]"
        }
      ],
      "stateMutability": "nonpayable",
      "type": "function"
    },
    {
      "inputs": [
        {
          "internalType": "uint256",
          "name": "amountOut",
          "type": "uint256"
        },
        {
          "internalType": "uint256",
          "name": "amountInMax",
          "type": "uint256"
        },
        {
          "components": [
            {
              "internalType": "uint256[]",
              "name": "pairBinSteps",
              "type": "uint256[]"
            },
            {
              "internalType": "enum ILBRouter.Version[]",
              "name": "versions",
              "type": "uint8[]"
            },
            {
              "internalType": "contract IERC20[]",
              "name": "tokenPath",
              "type": "address[]"
            }
          ],
          "internalType": "struct ILBRouter.Path",
          "name": "path",
          "type": "tuple"
        },
        {
          "internalType": "address",
          "name": "to",
          "type": "address"
        },
        {
          "internalType": "uint256",
          "name": "deadline",
          "type": "uint256"
        }
      ],
      "name": "swapTokensForExactTokens",
      "outputs": [
        {
          "internalType": "uint256[]",
          "name": "amountsIn",
          "type": "uint256[]"
        }
      ],
      "stateMutability": "nonpayable",
      "type": "function"
    },
    {
      "inputs": [
        {
          "internalType": "contract IERC20",
          "name": "token",
          "type": "address"
        },
        {
          "internalType": "address",
          "name": "to",
          "type": "address"
        },
        {
          "internalType": "uint256",
          "name": "amount",
          "type": "uint256"
        }
      ],
      "name": "sweep",
      "outputs": [],
      "stateMutability": "nonpayable",
      "type": "function"
    },
    {
      "inputs": [
        {
          "internalType": "contract ILBToken",
          "name": "lbToken",
          "type": "address"
        },
        {
          "internalType": "address",
          "name": "to",
          "type": "address"
        },
        {
          "internalType": "uint256[]",
          "name": "ids",
          "type": "uint256[]"
        },
        {
          "internalType": "uint256[]",
          "name": "amounts",
          "type": "uint256[]"
        }
      ],
      "name": "sweepLBToken",
      "outputs": [],
      "stateMutability": "nonpayable",
      "type": "function"
    },
    {
      "stateMutability": "payable",
      "type": "receive"
    }
  ],
  "bytecode": {
    "object": "0x60e06040523480156200001157600080fd5b5060405162004e7238038062004e7283398101604081905262000034916200012a565b6001600160a01b0380841660805282811660a052811660c0526200005762000060565b5050506200017e565b7ff0c57e16840df040f15088dc2f81fe391c3923bec73e23a9662efc9c229c6a00805468010000000000000000900460ff1615620000b15760405163f92ee8a960e01b815260040160405180910390fd5b80546001600160401b0390811614620001115780546001600160401b0319166001600160401b0390811782556040519081527fc7f505b2f371ae2175ee4913f4499e1f2633a7b5936321eed1cdaeb6115181d29060200160405180910390a15b50565b6001600160a01b03811681146200011157600080fd5b6000806000606084860312156200014057600080fd5b83516200014d8162000114565b6020850151909350620001608162000114565b6040850151909250620001738162000114565b809150509250925092565b60805160a05160c051614c31620002416000396000818161019f015281816102fe01528181610602015281816106e0015281816107bc015281816108ff01528181610c8c015281816113c20152818161145e015281816115c5015281816116480152818161198b01528181611c2001528181611f090152818161286201528181612c010152612c7f0152600081816104b00152613b8101526000818161037b0152818161104d015281816111fa01528181612103015261345d0152614c316000f3fe60806040526004361061018f5760003560e01c806392fe8e70116100d6578063bb558a9f1161007f578063e038e6dc11610059578063e038e6dc14610514578063e9361c0814610527578063f96fe9251461054757600080fd5b8063bb558a9f146104a1578063c22159b6146104d4578063d0e380f2146104f457600080fd5b8063a0d376cf116100b0578063a0d376cf1461044e578063a3c7271a1461046e578063b066ea7c1461048e57600080fd5b806392fe8e70146103c4578063964f987c146103e45780639ab6156b1461042e57600080fd5b8063659ac74b1161013857806381c2fdfb1161011257806381c2fdfb1461033757806388cc58e41461036c5780638efc2b2c1461039f57600080fd5b8063659ac74b146102b75780636c9c0078146102ef5780638129fc1c1461032257600080fd5b80633dc8f8ec116101695780633dc8f8ec146102575780634b8018701461027757806362c067671461029757600080fd5b80631a24f9a9146101e45780632075ad22146102175780632a443fae1461023757600080fd5b366101df57336001600160a01b037f000000000000000000000000000000000000000000000000000000000000000016146101dd57604051636c8cb79360e01b815260040160405180910390fd5b005b600080fd5b3480156101f057600080fd5b506102046101ff36600461414d565b61057b565b6040519081526020015b60405180910390f35b61022a6102253660046141b8565b61087d565b60405161020e9190614254565b34801561024357600080fd5b5061020461025236600461414d565b610add565b34801561026357600080fd5b5061022a61027236600461414d565b610c0a565b34801561028357600080fd5b5061020461029236600461414d565b610e10565b3480156102a357600080fd5b506101dd6102b2366004614267565b61104b565b3480156102c357600080fd5b506102d76102d23660046142d4565b6111bb565b6040516001600160a01b03909116815260200161020e565b3480156102fb57600080fd5b507f00000000000000000000000000000000000000000000000000000000000000006102d7565b34801561032e57600080fd5b506101dd611272565b34801561034357600080fd5b50610357610352366004614330565b61138c565b6040805192835260208301919091520161020e565b34801561037857600080fd5b507f00000000000000000000000000000000000000000000000000000000000000006102d7565b6103b26103ad3660046143eb565b6114e5565b60405161020e9695949392919061442e565b3480156103d057600080fd5b5061022a6103df36600461414d565b611734565b3480156103f057600080fd5b506104046103ff36600461449b565b611879565b604080516001600160801b039485168152928416602084015292169181019190915260600161020e565b34801561043a57600080fd5b5061020461044936600461414d565b611909565b34801561045a57600080fd5b5061040461046936600461449b565b611a7d565b34801561047a57600080fd5b506103b26104893660046143eb565b611ac1565b61020461049c3660046141b8565b611b9e565b3480156104ad57600080fd5b507f00000000000000000000000000000000000000000000000000000000000000006102d7565b3480156104e057600080fd5b506103576104ef3660046144e6565b611d18565b34801561050057600080fd5b5061020461050f3660046145ae565b611e0e565b6102046105223660046141b8565b611e87565b34801561053357600080fd5b506101dd610542366004614633565b612101565b34801561055357600080fd5b506105676105623660046146c8565b612224565b60405162ffffff909116815260200161020e565b600081804211156105ad5760405163dae7ca7d60e01b8152600481018290524260248201526044015b60405180910390fd5b845151859015806105c5575080515160208201515114155b806105e257506040810151518151516105df90600161470a565b14155b156106005760405163b91b4d4d60e01b815260040160405180910390fd5b7f00000000000000000000000000000000000000000000000000000000000000006001600160a01b03168660400151876000015151815181106106455761064561471d565b60200260200101516001600160a01b0316146106a4576040860151865151815181106106735761067361471d565b602002602001015160405163cfec0e0160e01b81526004016105a491906001600160a01b0391909116815260200190565b60006106bd876000015188602001518960400151612290565b6040516370a0823160e01b81523060048201529091506000906001600160a01b037f000000000000000000000000000000000000000000000000000000000000000016906370a0823190602401602060405180830381865afa158015610727573d6000803e3d6000fd5b505050506040513d601f19601f8201168201806040525081019061074b9190614733565b905061079188604001516000815181106107675761076761471d565b602002602001015133846000815181106107835761078361471d565b60200260200101518d6123a0565b6107a58289602001518a60400151306123c1565b6040516370a0823160e01b815230600482015281907f00000000000000000000000000000000000000000000000000000000000000006001600160a01b0316906370a0823190602401602060405180830381865afa15801561080b573d6000803e3d6000fd5b505050506040513d601f19601f8201168201806040525081019061082f9190614733565b610839919061474c565b945084891115610866576040516313fab00360e21b8152600481018a9052602481018690526044016105a4565b6108708786612840565b5050505095945050505050565b606081804211156108aa5760405163dae7ca7d60e01b8152600481018290524260248201526044016105a4565b845151859015806108c2575080515160208201515114155b806108df57506040810151518151516108dc90600161470a565b14155b156108fd5760405163b91b4d4d60e01b815260040160405180910390fd5b7f00000000000000000000000000000000000000000000000000000000000000006001600160a01b0316866040015160008151811061093e5761093e61471d565b60200260200101516001600160a01b03161461096b5785604001516000815181106106735761067361471d565b6000610984876000015188602001518960400151612290565b905061099a87602001518289604001518b6128d4565b935034846000815181106109b0576109b061471d565b602002602001015111156109fe5734846000815181106109d2576109d261471d565b602002602001015160405163194ee21960e31b81526004016105a4929190918252602082015260400190565b610a3c81600081518110610a1457610a1461471d565b602002602001015185600081518110610a2f57610a2f61471d565b6020026020010151612bf3565b6000610a538289602001518a60400151888b612caa565b905088811015610a80576040516313fab00360e21b8152600481018a9052602481018290526044016105a4565b84600081518110610a9357610a9361471d565b6020026020010151341115610ad157610ad13386600081518110610ab957610ab961471d565b602002602001015134610acc919061474c565b612fc7565b50505050949350505050565b60008180421115610b0a5760405163dae7ca7d60e01b8152600481018290524260248201526044016105a4565b84515185901580610b22575080515160208201515114155b80610b3f5750604081015151815151610b3c90600161470a565b14155b15610b5d5760405163b91b4d4d60e01b815260040160405180910390fd5b6000610b76876000015188602001518960400151612290565b9050610bbc8760400151600081518110610b9257610b9261471d565b60200260200101513383600081518110610bae57610bae61471d565b60200260200101518c6123a0565b610bd1898289602001518a604001518a613059565b935083881115610bfe576040516313fab00360e21b815260048101899052602481018590526044016105a4565b50505095945050505050565b60608180421115610c375760405163dae7ca7d60e01b8152600481018290524260248201526044016105a4565b84515185901580610c4f575080515160208201515114155b80610c6c5750604081015151815151610c6990600161470a565b14155b15610c8a5760405163b91b4d4d60e01b815260040160405180910390fd5b7f00000000000000000000000000000000000000000000000000000000000000006001600160a01b0316866040015187600001515181518110610ccf57610ccf61471d565b60200260200101516001600160a01b031614610cfd576040860151865151815181106106735761067361471d565b6000610d16876000015188602001518960400151612290565b9050610d2c87602001518289604001518c6128d4565b93508784600081518110610d4257610d4261471d565b60200260200101511115610d645787846000815181106109d2576109d261471d565b610dc28760400151600081518110610d7e57610d7e61471d565b60200260200101513383600081518110610d9a57610d9a61471d565b602002602001015187600081518110610db557610db561471d565b60200260200101516123a0565b6000610dd98289602001518a604001518830612caa565b905089811015610e06576040516313fab00360e21b8152600481018b9052602481018290526044016105a4565b6108708782612840565b60008180421115610e3d5760405163dae7ca7d60e01b8152600481018290524260248201526044016105a4565b84515185901580610e55575080515160208201515114155b80610e725750604081015151815151610e6f90600161470a565b14155b15610e905760405163b91b4d4d60e01b815260040160405180910390fd5b6000610ea9876000015188602001518960400151612290565b905060008760400151825181518110610ec457610ec461471d565b60209081029190910101516040516370a0823160e01b81526001600160a01b0389811660048301529192506000918316906370a0823190602401602060405180830381865afa158015610f1b573d6000803e3d6000fd5b505050506040513d601f19601f82011682018060405250810190610f3f9190614733565b9050610f858960400151600081518110610f5b57610f5b61471d565b60200260200101513385600081518110610f7757610f7761471d565b60200260200101518e6123a0565b610f99838a602001518b604001518b6123c1565b6040516370a0823160e01b81526001600160a01b0389811660048301528291908416906370a0823190602401602060405180830381865afa158015610fe2573d6000803e3d6000fd5b505050506040513d601f19601f820116820180604052508101906110069190614733565b611010919061474c565b9550858a111561103d576040516313fab00360e21b8152600481018b9052602481018790526044016105a4565b505050505095945050505050565b7f00000000000000000000000000000000000000000000000000000000000000006001600160a01b0316638da5cb5b6040518163ffffffff1660e01b8152600401602060405180830381865afa1580156110a9573d6000803e3d6000fd5b505050506040513d601f19601f820116820180604052508101906110cd919061475f565b6001600160a01b0316336001600160a01b0316146110fe57604051635d9515b960e11b815260040160405180910390fd5b6001600160a01b03831661112e57600019811461111b578061111d565b475b90506111298282612fc7565b505050565b600019811461113d57806111a5565b6040516370a0823160e01b81523060048201526001600160a01b038416906370a0823190602401602060405180830381865afa158015611181573d6000803e3d6000fd5b505050506040513d601f19601f820116820180604052508101906111a59190614733565b90506111296001600160a01b03841683836133c6565b60405163659ac74b60e01b81526001600160a01b038581166004830152848116602483015262ffffff8416604483015261ffff831660648301526000917f00000000000000000000000000000000000000000000000000000000000000009091169063659ac74b906084016020604051808303816000875af1158015611245573d6000803e3d6000fd5b505050506040513d601f19601f82011682018060405250810190611269919061475f565b95945050505050565b7ff0c57e16840df040f15088dc2f81fe391c3923bec73e23a9662efc9c229c6a00805468010000000000000000810460ff16159067ffffffffffffffff166000811580156112bd5750825b905060008267ffffffffffffffff1660011480156112da5750303b155b9050811580156112e8575080155b156113065760405163f92ee8a960e01b815260040160405180910390fd5b845467ffffffffffffffff19166001178555831561133a57845468ff00000000000000001916680100000000000000001785555b831561138557845468ff000000000000000019168555604051600181527fc7f505b2f371ae2175ee4913f4499e1f2633a7b5936321eed1cdaeb6115181d29060200160405180910390a15b5050505050565b60008082804211156113ba5760405163dae7ca7d60e01b8152600481018290524260248201526044016105a4565b60006113ed8c7f00000000000000000000000000000000000000000000000000000000000000008d61ffff16600161342c565b90506000816001600160a01b031663da10610c6040518163ffffffff1660e01b8152600401602060405180830381865afa15801561142f573d6000803e3d6000fd5b505050506040513d601f19601f82011682018060405250810190611453919061475f565b6001600160a01b03167f00000000000000000000000000000000000000000000000000000000000000006001600160a01b031614905080611492579899985b6000806114a3848e8e8e8e30613519565b91509150826114b35780826114b6565b81815b80975081985050505050506114cc8c878661367b565b6114d68684612840565b50509850989650505050505050565b60008080806060808261151a6114fe60208a018a61477c565b61150e60408b0160208c0161477c565b8a60400135600161342c565b9050806001600160a01b03166305e8746d6040518163ffffffff1660e01b8152600401602060405180830381865afa15801561155a573d6000803e3d6000fd5b505050506040513d601f19601f8201168201806040525081019061157e919061475f565b6001600160a01b031661159460208a018a61477c565b6001600160a01b0316146115bb5760405163b33f8ab960e01b815260040160405180910390fd5b6001600160a01b037f0000000000000000000000000000000000000000000000000000000000000000166115f260208a018a61477c565b6001600160a01b031614801561160b5750348860600135145b1561163e5761162f61162360408a0160208b0161477c565b33838b608001356123a0565b6116398134612bf3565b611715565b6001600160a01b037f00000000000000000000000000000000000000000000000000000000000000001661167860408a0160208b0161477c565b6001600160a01b03161480156116915750348860800135145b156116b25761162f6116a660208a018a61477c565b33838b606001356123a0565b6116bf602089018961477c565b6116cf60408a0160208b0161477c565b60405163d0a4f13b60e01b81526001600160a01b03928316600482015291166024820152606089013560448201526080890135606482015234608482015260a4016105a4565b61171f888261369c565b949d939c50919a509850965090945092505050565b606081804211156117615760405163dae7ca7d60e01b8152600481018290524260248201526044016105a4565b84515185901580611779575080515160208201515114155b80611796575060408101515181515161179390600161470a565b14155b156117b45760405163b91b4d4d60e01b815260040160405180910390fd5b60006117cd876000015188602001518960400151612290565b90506117e387602001518289604001518c6128d4565b935087846000815181106117f9576117f961471d565b6020026020010151111561181b5787846000815181106109d2576109d261471d565b6118358760400151600081518110610d7e57610d7e61471d565b600061184c8289602001518a60400151888b612caa565b905089811015610870576040516313fab00360e21b8152600481018b9052602481018290526044016105a4565b604051630abcd78360e41b81526001600160801b03831660048201528115156024820152600090819081906001600160a01b0387169063abcd7830906044015b606060405180830381865afa1580156118d6573d6000803e3d6000fd5b505050506040513d601f19601f820116820180604052508101906118fa9190614799565b91989097509095509350505050565b600081804211156119365760405163dae7ca7d60e01b8152600481018290524260248201526044016105a4565b8451518590158061194e575080515160208201515114155b8061196b575060408101515181515161196890600161470a565b14155b156119895760405163b91b4d4d60e01b815260040160405180910390fd5b7f00000000000000000000000000000000000000000000000000000000000000006001600160a01b03168660400151876000015151815181106119ce576119ce61471d565b60200260200101516001600160a01b0316146119fc576040860151865151815181106106735761067361471d565b6000611a15876000015188602001518960400151612290565b9050611a318760400151600081518110610b9257610b9261471d565b611a46898289602001518a6040015130613059565b935083881115611a73576040516313fab00360e21b815260048101899052602481018590526044016105a4565b610bfe8685612840565b604051631cee6cdf60e31b81526001600160801b03831660048201528115156024820152600090819081906001600160a01b0387169063e77366f8906044016118b9565b600080808060608082611ada6114fe60208a018a61477c565b9050806001600160a01b03166305e8746d6040518163ffffffff1660e01b8152600401602060405180830381865afa158015611b1a573d6000803e3d6000fd5b505050506040513d601f19601f82011682018060405250810190611b3e919061475f565b6001600160a01b0316611b5460208a018a61477c565b6001600160a01b031614611b7b5760405163b33f8ab960e01b815260040160405180910390fd5b611b8b6116a660208a018a61477c565b61171561162360408a0160208b0161477c565b60008180421115611bcb5760405163dae7ca7d60e01b8152600481018290524260248201526044016105a4565b84515185901580611be3575080515160208201515114155b80611c005750604081015151815151611bfd90600161470a565b14155b15611c1e5760405163b91b4d4d60e01b815260040160405180910390fd5b7f00000000000000000000000000000000000000000000000000000000000000006001600160a01b03168660400151600081518110611c5f57611c5f61471d565b60200260200101516001600160a01b031614611c8c5785604001516000815181106106735761067361471d565b6000611ca5876000015188602001518960400151612290565b9050611ccb81600081518110611cbd57611cbd61471d565b602002602001015134612bf3565b611ce0348289602001518a604001518a613059565b935083881115611d0d576040516313fab00360e21b815260048101899052602481018590526044016105a4565b505050949350505050565b6000808280421115611d465760405163dae7ca7d60e01b8152600481018290524260248201526044016105a4565b6000611d598d8d8d61ffff16600161342c565b90506000816001600160a01b03166305e8746d6040518163ffffffff1660e01b8152600401602060405180830381865afa158015611d9b573d6000803e3d6000fd5b505050506040513d601f19601f82011682018060405250810190611dbf919061475f565b6001600160a01b03168e6001600160a01b0316141590508015611de0579899985b611dee828c8c8c8c8c613519565b90955093508015611dfd579293925b505050995099975050505050505050565b604051634c7cffbd60e01b815262ffffff821660048201526000906001600160a01b03841690634c7cffbd90602401602060405180830381865afa158015611e5a573d6000803e3d6000fd5b505050506040513d601f19601f82011682018060405250810190611e7e9190614733565b90505b92915050565b60008180421115611eb45760405163dae7ca7d60e01b8152600481018290524260248201526044016105a4565b84515185901580611ecc575080515160208201515114155b80611ee95750604081015151815151611ee690600161470a565b14155b15611f075760405163b91b4d4d60e01b815260040160405180910390fd5b7f00000000000000000000000000000000000000000000000000000000000000006001600160a01b03168660400151600081518110611f4857611f4861471d565b60200260200101516001600160a01b031614611f755785604001516000815181106106735761067361471d565b6000611f8e876000015188602001518960400151612290565b905060008760400151825181518110611fa957611fa961471d565b60209081029190910101516040516370a0823160e01b81526001600160a01b0389811660048301529192506000918316906370a0823190602401602060405180830381865afa158015612000573d6000803e3d6000fd5b505050506040513d601f19601f820116820180604052508101906120249190614733565b905061203c83600081518110611cbd57611cbd61471d565b612050838a602001518b604001518b6123c1565b6040516370a0823160e01b81526001600160a01b0389811660048301528291908416906370a0823190602401602060405180830381865afa158015612099573d6000803e3d6000fd5b505050506040513d601f19601f820116820180604052508101906120bd9190614733565b6120c7919061474c565b9550858a11156120f4576040516313fab00360e21b8152600481018b9052602481018790526044016105a4565b5050505050949350505050565b7f00000000000000000000000000000000000000000000000000000000000000006001600160a01b0316638da5cb5b6040518163ffffffff1660e01b8152600401602060405180830381865afa15801561215f573d6000803e3d6000fd5b505050506040513d601f19601f82011682018060405250810190612183919061475f565b6001600160a01b0316336001600160a01b0316146121b457604051635d9515b960e11b815260040160405180910390fd5b6040516305feb5ff60e21b81526001600160a01b038716906317fad7fc906121ea90309089908990899089908990600401614826565b600060405180830381600087803b15801561220457600080fd5b505af1158015612218573d6000803e3d6000fd5b50505050505050505050565b60405163f5e2932960e01b8152600481018290526000906001600160a01b0384169063f5e2932990602401602060405180830381865afa15801561226c573d6000803e3d6000fd5b505050506040513d601f19601f82011682018060405250810190611e7e9190614866565b6060835167ffffffffffffffff8111156122ac576122ac613ecb565b6040519080825280602002602001820160405280156122d5578160200160208202803683370190505b509050600080836000815181106122ee576122ee61471d565b6020026020010151905060005b83518110156123965781925084816001018151811061231c5761231c61471d565b60200260200101519150612364838389848151811061233d5761233d61471d565b60200260200101518985815181106123575761235761471d565b6020026020010151613b40565b8482815181106123765761237661471d565b6001600160a01b03909216602092830291909101909101526001016122fb565b5050509392505050565b80156123bb576123bb6001600160a01b038516848484613c40565b50505050565b6000806000806000866000815181106123dc576123dc61471d565b6020026020010151905060005b8951811015612218578981815181106124045761240461471d565b602002602001015192508881815181106124205761242061471d565b602002602001015194508195508781600101815181106124425761244261471d565b60200260200101519150895181600101146124795789816001018151811061246c5761246c61471d565b602002602001015161247b565b865b9350600085600181111561249157612491614883565b0361273757600080846001600160a01b0316630902f1ac6040518163ffffffff1660e01b8152600401606060405180830381865afa1580156124d7573d6000803e3d6000fd5b505050506040513d601f19601f820116820180604052508101906124fb91906148b0565b506001600160701b031691506001600160701b03169150836001600160a01b0316886001600160a01b03161015612630576040516370a0823160e01b81526001600160a01b03868116600483015260009184918b16906370a0823190602401602060405180830381865afa158015612577573d6000803e3d6000fd5b505050506040513d601f19601f8201168201806040525081019061259b9190614733565b03905060006125ab828585613cae565b60405163022c0d9f60e01b8152600060048201819052602482018390526001600160a01b038b811660448401526080606484015260848301919091529192509088169063022c0d9f9060a401600060405180830381600087803b15801561261157600080fd5b505af1158015612625573d6000803e3d6000fd5b505050505050612730565b6040516370a0823160e01b81526001600160a01b03868116600483015260009183918b16906370a0823190602401602060405180830381865afa15801561267b573d6000803e3d6000fd5b505050506040513d601f19601f8201168201806040525081019061269f9190614733565b03905060006126af828486613cae565b60405163022c0d9f60e01b8152600481018290526000602482018190526001600160a01b038b811660448401526080606484015260848301919091529192509088169063022c0d9f9060a401600060405180830381600087803b15801561271557600080fd5b505af1158015612729573d6000803e3d6000fd5b5050505050505b5050612838565b826001600160a01b03166353c059a0846001600160a01b031663da10610c6040518163ffffffff1660e01b8152600401602060405180830381865afa158015612784573d6000803e3d6000fd5b505050506040513d601f19601f820116820180604052508101906127a8919061475f565b60405160e083901b7fffffffff000000000000000000000000000000000000000000000000000000001681526001600160a01b0391821686831614600482015290871660248201526044016020604051808303816000875af1158015612812573d6000803e3d6000fd5b505050506040513d601f19601f820116820180604052508101906128369190614733565b505b6001016123e9565b8060000361284c575050565b604051632e1a7d4d60e01b8152600481018290527f00000000000000000000000000000000000000000000000000000000000000006001600160a01b031690632e1a7d4d90602401600060405180830381600087803b1580156128ae57600080fd5b505af11580156128c2573d6000803e3d6000fd5b505050506128d08282612fc7565b5050565b6060825167ffffffffffffffff8111156128f0576128f0613ecb565b604051908082528060200260200182016040528015612919578160200160208202803683370190505b50905081818551815181106129305761293061471d565b602090810291909101015283515b8015612bea5760008461295260018461474c565b815181106129625761296261471d565b6020026020010151905060008760018461297c919061474c565b8151811061298c5761298c61471d565b602002602001015190506000876001856129a6919061474c565b815181106129b6576129b661471d565b60200260200101519050600060018111156129d3576129d3614883565b8260018111156129e5576129e5614883565b03612b0757600080826001600160a01b0316630902f1ac6040518163ffffffff1660e01b8152600401606060405180830381865afa158015612a2b573d6000803e3d6000fd5b505050506040513d601f19601f82011682018060405250810190612a4f91906148b0565b506001600160701b031691506001600160701b03169150888681518110612a7857612a7861471d565b60200260200101516001600160a01b0316856001600160a01b03161115612a9b57905b6000878781518110612aaf57612aaf61471d565b60200260200101519050612ace838383613d489092919063ffffffff16565b6001600160801b031688612ae360018a61474c565b81518110612af357612af361471d565b602002602001018181525050505050612bd4565b612ba081868681518110612b1d57612b1d61471d565b6020026020010151856001600160a01b0316846001600160a01b03166305e8746d6040518163ffffffff1660e01b8152600401602060405180830381865afa158015612b6d573d6000803e3d6000fd5b505050506040513d601f19601f82011682018060405250810190612b91919061475f565b6001600160a01b031614611879565b50506001600160801b031685612bb760018761474c565b81518110612bc757612bc761471d565b6020026020010181815250505b5050508080612be2906148f5565b91505061293e565b50949350505050565b80600003612bff575050565b7f00000000000000000000000000000000000000000000000000000000000000006001600160a01b031663d0e30db0826040518263ffffffff1660e01b81526004016000604051808303818588803b158015612c5a57600080fd5b505af1158015612c6e573d6000803e3d6000fd5b506128d09350506001600160a01b037f0000000000000000000000000000000000000000000000000000000000000000169150849050836133c6565b60008060008060008088600081518110612cc657612cc661471d565b6020026020010151905060005b8b51811015612fb8578b8181518110612cee57612cee61471d565b602002602001015193508a8181518110612d0a57612d0a61471d565b60200260200101519250819550898160010181518110612d2c57612d2c61471d565b602002602001015191508b518160010114612d63578b8160010181518110612d5657612d5661471d565b6020026020010151612d65565b875b94506000836001811115612d7b57612d7b614883565b03612e8657888160010181518110612d9557612d9561471d565b60200260200101519650816001600160a01b0316866001600160a01b03161015612e395760405163022c0d9f60e01b8152600060048201819052602482018990526001600160a01b03878116604484015260806064840152608483019190915285169063022c0d9f9060a4015b600060405180830381600087803b158015612e1c57600080fd5b505af1158015612e30573d6000803e3d6000fd5b50505050612fb0565b60405163022c0d9f60e01b8152600481018890526000602482018190526001600160a01b03878116604484015260806064840152608483019190915285169063022c0d9f9060a401612e02565b6000846001600160a01b031663da10610c6040518163ffffffff1660e01b8152600401602060405180830381865afa158015612ec6573d6000803e3d6000fd5b505050506040513d601f19601f82011682018060405250810190612eea919061475f565b60405163029e02cd60e51b81526001600160a01b039182168583161460048201819052888316602483015292506000918291612f84918916906353c059a0906044015b6020604051808303816000875af1158015612f4c573d6000803e3d6000fd5b505050506040513d601f19601f82011682018060405250810190612f709190614733565b6001600160801b0381169160809190911c90565b6001600160801b031691506001600160801b031691508215612fa857809950612fac565b8199505b5050505b600101612cd3565b50505050505095945050505050565b80600003612fd3575050565b6000826001600160a01b03168260405160006040518083038185875af1925050503d8060008114613020576040519150601f19603f3d011682016040523d82523d6000602084013e613025565b606091505b50509050806111295760405163047b96f760e41b81526001600160a01b0384166004820152602481018390526044016105a4565b600080600080600080876000815181106130755761307561471d565b602002602001015190508a955060005b8a51811015612fb8578a81815181106130a0576130a061471d565b602002602001015192508981815181106130bc576130bc61471d565b602002602001015194508195508881600101815181106130de576130de61471d565b602002602001015191508a518160010114613115578a81600101815181106131085761310861471d565b6020026020010151613117565b875b9350600085600181111561312d5761312d614883565b036132e757600080846001600160a01b0316630902f1ac6040518163ffffffff1660e01b8152600401606060405180830381865afa158015613173573d6000803e3d6000fd5b505050506040513d601f19601f8201168201806040525081019061319791906148b0565b506001600160701b031691506001600160701b03169150836001600160a01b0316886001600160a01b03161015613256576131d3898383613cae565b60405163022c0d9f60e01b8152600060048201819052602482018390526001600160a01b038981166044840152608060648401526084830191909152919a509086169063022c0d9f9060a401600060405180830381600087803b15801561323957600080fd5b505af115801561324d573d6000803e3d6000fd5b505050506132e0565b613261898284613cae565b60405163022c0d9f60e01b8152600481018290526000602482018190526001600160a01b038981166044840152608060648401526084830191909152919a509086169063022c0d9f9060a401600060405180830381600087803b1580156132c757600080fd5b505af11580156132db573d6000803e3d6000fd5b505050505b50506133be565b6000836001600160a01b031663da10610c6040518163ffffffff1660e01b8152600401602060405180830381865afa158015613327573d6000803e3d6000fd5b505050506040513d601f19601f8201168201806040525081019061334b919061475f565b60405163029e02cd60e51b81526001600160a01b039182168583161460048201819052878316602483015292506000918291613392918816906353c059a090604401612f2d565b6001600160801b031691506001600160801b0316915082156133b6578099506133ba565b8199505b5050505b600101613085565b604080516001600160a01b038416602482015260448082018490528251808303909101815260649091019091526020810180517bffffffffffffffffffffffffffffffffffffffffffffffffffffffff1663a9059cbb60e01b1790526123bb8482613de7565b60405163704037bd60e01b81526001600160a01b0385811660048301528481166024830152604482018490526000917f00000000000000000000000000000000000000000000000000000000000000009091169063704037bd90606401608060405180830381865afa1580156134a6573d6000803e3d6000fd5b505050506040513d601f19601f820116820180604052508101906134ca919061490c565b6020015190506001600160a01b03811661351157604051636b2471d160e11b81526001600160a01b03808716600483015285166024820152604481018490526064016105a4565b949350505050565b6000806000886001600160a01b031663c9939f5e338689896040518563ffffffff1660e01b81526004016135509493929190614991565b6000604051808303816000875af115801561356f573d6000803e3d6000fd5b505050506040513d6000823e601f3d908101601f1916820160405261359791908101906149cf565b905060005b815181101561362b576135ce8282815181106135ba576135ba61471d565b60200260200101516001600160801b031690565b6135e1906001600160801b03168561470a565b93506136068282815181106135f8576135f861471d565b602002602001015160801c90565b613619906001600160801b03168461470a565b925061362481614a55565b905061359c565b508783108061363957508682105b1561366f576040516318ccfb7760e11b8152600481018990526024810184905260448101889052606481018390526084016105a4565b50965096945050505050565b8060000361368857505050565b6111296001600160a01b03841683836133c6565b600080600080606080876101c00135804211156136d55760405163dae7ca7d60e01b8152600481018290524260248201526044016105a4565b6136e36101408a018a614a6e565b90506136f36101208b018b614a6e565b9050141580613720575061370b6101608a018a614a6e565b905061371b6101208b018b614a6e565b905014155b1561373e5760405163b91b4d4d60e01b815260040160405180910390fd5b62ffffff60e08a0135118061375a575062ffffff6101008a0135115b156137895760405163197a55c760e11b815260e08a013560048201526101008a013560248201526044016105a4565b60006137996101208b018b614a6e565b905067ffffffffffffffff8111156137b3576137b3613ecb565b6040519080825280602002602001820160405280156137dc578160200160208202803683370190505b5090506137ed6101208b018b614a6e565b905067ffffffffffffffff81111561380757613807613ecb565b604051908082528060200260200182016040528015613830578160200160208202803683370190505b5093506000896001600160a01b031663dbe65edc6040518163ffffffff1660e01b8152600401602060405180830381865afa158015613873573d6000803e3d6000fd5b505050506040513d601f19601f820116820180604052508101906138979190614866565b62ffffff169050808b61010001358c60e001350110806138c157508a60e001358b61010001358201105b156138f757604051637d50edab60e11b815260e08c013560048201526101008c01356024820152604481018290526064016105a4565b60005b82518110156139fa5760006139136101208e018e614a6e565b838181106139235761392361471d565b9050602002013583019050600081128061393f575062ffffff81115b15613960576040516370a82e6160e11b8152600481018290526024016105a4565b808783815181106139735761397361471d565b60209081029190910101526139d461398f6101408f018f614a6e565b8481811061399f5761399f61471d565b905060200201358e8061016001906139b79190614a6e565b858181106139c7576139c761471d565b9050602002013583613e57565b8483815181106139e6576139e661471d565b6020908102919091010152506001016138fa565b50506000808a6001600160a01b031663383d15c58d610180016020810190613a22919061477c565b858f6101a0016020810190613a37919061477c565b6040518463ffffffff1660e01b8152600401613a5593929190614ab8565b6000604051808303816000875af1158015613a74573d6000803e3d6000fd5b505050506040513d6000823e601f3d908101601f19168201604052613a9c9190810190614b1c565b965090925090506000613aaf8383613e91565b6001600160801b0381169b50608081901c9a50905060a08d01358b1080613ad957508c60c001358a105b15613b15576040516318ccfb7760e11b815260a08e01356004820152602481018c905260c08e01356044820152606481018b90526084016105a4565b6001600160801b0382169850608082901c6001600160801b0316975050505050509295509295509295565b600080826001811115613b5557613b55614883565b03613c345760405163e6a4390560e01b81526001600160a01b03868116600483015285811660248301527f0000000000000000000000000000000000000000000000000000000000000000169063e6a4390590604401602060405180830381865afa158015613bc8573d6000803e3d6000fd5b505050506040513d601f19601f82011682018060405250810190613bec919061475f565b90506001600160a01b038116613c2f57604051636b2471d160e11b81526001600160a01b03808716600483015285166024820152604481018490526064016105a4565b613511565b6112698585858561342c565b604080516001600160a01b0385811660248301528416604482015260648082018490528251808303909101815260849091019091526020810180517bffffffffffffffffffffffffffffffffffffffffffffffffffffffff166323b872dd60e01b1790526113858582613de7565b600083600003613cd15760405163b937356b60e01b815260040160405180910390fd5b821580613cdc575081155b15613cfa57604051637b03555560e01b815260040160405180910390fd5b6000613d08856103e5614bc2565b90506000613d168483614bc2565b9050600082613d27876103e8614bc2565b613d31919061470a565b9050613d3d8183614bd9565b979650505050505050565b600083600003613d6b5760405163b937356b60e01b815260040160405180910390fd5b821580613d76575081155b15613d9457604051637b03555560e01b815260040160405180910390fd5b6000613da08585614bc2565b613dac906103e8614bc2565b90506000613dba868561474c565b613dc6906103e5614bc2565b9050613dd28183614bd9565b613ddd90600161470a565b9695505050505050565b600080600052602060008351602085016000875af19050808015613e28573d8015613e1b5760016000511483169250613e22565b843b151592505b50613e38565b3d15613e38573d6000803e3d6000fd5b50806111295760405163197138bd60e11b815260040160405180910390fd5b601882901b6affffffffffffffff00000016605884901b72ffffffffffffffff0000000000000000000000161762ffffff82168117613511565b80820382811180613ead57506001600160801b03808416908216115b15611e815760405163e599af5560e01b815260040160405180910390fd5b634e487b7160e01b600052604160045260246000fd5b6040516060810167ffffffffffffffff81118282101715613f0457613f04613ecb565b60405290565b604051601f8201601f1916810167ffffffffffffffff81118282101715613f3357613f33613ecb565b604052919050565b600067ffffffffffffffff821115613f5557613f55613ecb565b5060051b60200190565b600082601f830112613f7057600080fd5b81356020613f85613f8083613f3b565b613f0a565b82815260059290921b84018101918181019086841115613fa457600080fd5b8286015b84811015613fbf5780358352918301918301613fa8565b509695505050505050565b6001600160a01b0381168114613fdf57600080fd5b50565b8035613fed81613fca565b919050565b600082601f83011261400357600080fd5b81356020614013613f8083613f3b565b82815260059290921b8401810191818101908684111561403257600080fd5b8286015b84811015613fbf57803561404981613fca565b8352918301918301614036565b60006060828403121561406857600080fd5b614070613ee1565b9050813567ffffffffffffffff8082111561408a57600080fd5b61409685838601613f5f565b83526020915081840135818111156140ad57600080fd5b8401601f810186136140be57600080fd5b80356140cc613f8082613f3b565b81815260059190911b820184019084810190888311156140eb57600080fd5b928501925b82841015614117578335600281106141085760008081fd5b825292850192908501906140f0565b808688015250505050604084013591508082111561413457600080fd5b5061414184828501613ff2565b60408301525092915050565b600080600080600060a0868803121561416557600080fd5b8535945060208601359350604086013567ffffffffffffffff81111561418a57600080fd5b61419688828901614056565b93505060608601356141a781613fca565b949793965091946080013592915050565b600080600080608085870312156141ce57600080fd5b84359350602085013567ffffffffffffffff8111156141ec57600080fd5b6141f887828801614056565b935050604085013561420981613fca565b9396929550929360600135925050565b600081518084526020808501945080840160005b838110156142495781518752958201959082019060010161422d565b509495945050505050565b602081526000611e7e6020830184614219565b60008060006060848603121561427c57600080fd5b833561428781613fca565b9250602084013561429781613fca565b929592945050506040919091013590565b62ffffff81168114613fdf57600080fd5b61ffff81168114613fdf57600080fd5b8035613fed816142b9565b600080600080608085870312156142ea57600080fd5b84356142f581613fca565b9350602085013561430581613fca565b92506040850135614315816142a8565b91506060850135614325816142b9565b939692955090935050565b600080600080600080600080610100898b03121561434d57600080fd5b883561435881613fca565b97506020890135614368816142b9565b96506040890135955060608901359450608089013567ffffffffffffffff8082111561439357600080fd5b61439f8c838d01613f5f565b955060a08b01359150808211156143b557600080fd5b506143c28b828c01613f5f565b93505060c08901356143d381613fca565b8092505060e089013590509295985092959890939650565b6000602082840312156143fd57600080fd5b813567ffffffffffffffff81111561441457600080fd5b82016101e0818503121561442757600080fd5b9392505050565b86815285602082015284604082015283606082015260c06080820152600061445960c0830185614219565b82810360a084015261446b8185614219565b9998505050505050505050565b6001600160801b0381168114613fdf57600080fd5b8015158114613fdf57600080fd5b6000806000606084860312156144b057600080fd5b83356144bb81613fca565b925060208401356144cb81614478565b915060408401356144db8161448d565b809150509250925092565b60008060008060008060008060006101208a8c03121561450557600080fd5b893561451081613fca565b985060208a013561452081613fca565b975061452e60408b016142c9565b965060608a0135955060808a0135945060a08a013567ffffffffffffffff8082111561455957600080fd5b6145658d838e01613f5f565b955060c08c013591508082111561457b57600080fd5b506145888c828d01613f5f565b93505061459760e08b01613fe2565b91506101008a013590509295985092959850929598565b600080604083850312156145c157600080fd5b82356145cc81613fca565b915060208301356145dc816142a8565b809150509250929050565b60008083601f8401126145f957600080fd5b50813567ffffffffffffffff81111561461157600080fd5b6020830191508360208260051b850101111561462c57600080fd5b9250929050565b6000806000806000806080878903121561464c57600080fd5b863561465781613fca565b9550602087013561466781613fca565b9450604087013567ffffffffffffffff8082111561468457600080fd5b6146908a838b016145e7565b909650945060608901359150808211156146a957600080fd5b506146b689828a016145e7565b979a9699509497509295939492505050565b600080604083850312156146db57600080fd5b82356146e681613fca565b946020939093013593505050565b634e487b7160e01b600052601160045260246000fd5b80820180821115611e8157611e816146f4565b634e487b7160e01b600052603260045260246000fd5b60006020828403121561474557600080fd5b5051919050565b81810381811115611e8157611e816146f4565b60006020828403121561477157600080fd5b815161442781613fca565b60006020828403121561478e57600080fd5b813561442781613fca565b6000806000606084860312156147ae57600080fd5b83516147b981614478565b60208501519093506147ca81614478565b60408501519092506144db81614478565b81835260007f07ffffffffffffffffffffffffffffffffffffffffffffffffffffffffffffff83111561480d57600080fd5b8260051b80836020870137939093016020019392505050565b60006001600160a01b038089168352808816602084015250608060408301526148536080830186886147db565b828103606084015261446b8185876147db565b60006020828403121561487857600080fd5b8151614427816142a8565b634e487b7160e01b600052602160045260246000fd5b80516001600160701b0381168114613fed57600080fd5b6000806000606084860312156148c557600080fd5b6148ce84614899565b92506148dc60208501614899565b9150604084015163ffffffff811681146144db57600080fd5b600081614904576149046146f4565b506000190190565b60006080828403121561491e57600080fd5b6040516080810181811067ffffffffffffffff8211171561494157614941613ecb565b604052825161494f816142b9565b8152602083015161495f81613fca565b602082015260408301516149728161448d565b604082015260608301516149858161448d565b60608201529392505050565b60006001600160a01b038087168352808616602084015250608060408301526149bd6080830185614219565b8281036060840152613d3d8185614219565b600060208083850312156149e257600080fd5b825167ffffffffffffffff8111156149f957600080fd5b8301601f81018513614a0a57600080fd5b8051614a18613f8082613f3b565b81815260059190911b82018301908381019087831115614a3757600080fd5b928401925b82841015613d3d57835182529284019290840190614a3c565b600060018201614a6757614a676146f4565b5060010190565b6000808335601e19843603018112614a8557600080fd5b83018035915067ffffffffffffffff821115614aa057600080fd5b6020019150600581901b360382131561462c57600080fd5b6000606082016001600160a01b0380871684526020606081860152828751808552608087019150828901945060005b81811015614b0357855183529483019491830191600101614ae7565b5050809450505080851660408501525050949350505050565b600080600060608486031215614b3157600080fd5b835192506020808501519250604085015167ffffffffffffffff811115614b5757600080fd5b8501601f81018713614b6857600080fd5b8051614b76613f8082613f3b565b81815260059190911b82018301908381019089831115614b9557600080fd5b928401925b82841015614bb357835182529284019290840190614b9a565b80955050505050509250925092565b8082028115828204841417611e8157611e816146f4565b600082614bf657634e487b7160e01b600052601260045260246000fd5b50049056fea26469706673582212207e9d01fc860e5f66611c55f5d328d5c94eed1101c3e84e9bdd64b7604c76cfab64736f6c63430008140033",
    "linkReferences": {}
  },
  "methodIdentifiers": {
    "addLiquidity((address,address,uint256,uint256,uint256,uint256,uint256,uint256,uint256,int256[],uint256[],uint256[],address,address,uint256))": "a3c7271a",
    "addLiquidityNATIVE((address,address,uint256,uint256,uint256,uint256,uint256,uint256,uint256,int256[],uint256[],uint256[],address,address,uint256))": "8efc2b2c",
    "createLBPair(address,address,uint24,uint16)": "659ac74b",
    "getFactory()": "88cc58e4",
    "getIdFromPrice(address,uint256)": "f96fe925",
    "getPriceFromId(address,uint24)": "d0e380f2",
    "getSwapIn(address,uint128,bool)": "964f987c",
    "getSwapOut(address,uint128,bool)": "a0d376cf",
    "getV1Factory()": "bb558a9f",
    "getWNATIVE()": "6c9c0078",
    "initialize()": "8129fc1c",
    "removeLiquidity(address,address,uint16,uint256,uint256,uint256[],uint256[],address,uint256)": "c22159b6",
    "removeLiquidityNATIVE(address,uint16,uint256,uint256,uint256[],uint256[],address,uint256)": "81c2fdfb",
    "swapExactNATIVEForTokens(uint256,(uint256[],uint8[],address[]),address,uint256)": "b066ea7c",
    "swapExactNATIVEForTokensSupportingFeeOnTransferTokens(uint256,(uint256[],uint8[],address[]),address,uint256)": "e038e6dc",
    "swapExactTokensForNATIVE(uint256,uint256,(uint256[],uint8[],address[]),address,uint256)": "9ab6156b",
    "swapExactTokensForNATIVESupportingFeeOnTransferTokens(uint256,uint256,(uint256[],uint8[],address[]),address,uint256)": "1a24f9a9",
    "swapExactTokensForTokens(uint256,uint256,(uint256[],uint8[],address[]),address,uint256)": "2a443fae",
    "swapExactTokensForTokensSupportingFeeOnTransferTokens(uint256,uint256,(uint256[],uint8[],address[]),address,uint256)": "4b801870",
    "swapNATIVEForExactTokens(uint256,(uint256[],uint8[],address[]),address,uint256)": "2075ad22",
    "swapTokensForExactNATIVE(uint256,uint256,(uint256[],uint8[],address[]),address,uint256)": "3dc8f8ec",
    "swapTokensForExactTokens(uint256,uint256,(uint256[],uint8[],address[]),address,uint256)": "92fe8e70",
    "sweep(address,address,uint256)": "62c06767",
    "sweepLBToken(address,address,uint256[],uint256[])": "e9361c08"
  },
  "id": 85
}