{
  "abi": [
    {
      "inputs": [
        {
          "internalType": "contract ILBFactory",
          "name": "factory2_2",
          "type": "address"
        },
        {
          "internalType": "contract IJoeFactory",
          "name": "factoryV1",
          "type": "address"
        },
        {
          "internalType": "contract IWNATIVE",
          "name": "wnative",
          "type": "address"
        }
      ],
      "stateMutability": "nonpayable",
      "type": "constructor"
    },
    {
      "inputs": [],
      "name": "JoeLibrary__InsufficientAmount",
      "type": "error"
    },
    {
      "inputs": [],
      "name": "JoeLibrary__InsufficientLiquidity",
      "type": "error"
    },
    {
      "inputs": [
        {
          "internalType": "uint256",
          "name": "amountSlippage",
          "type": "uint256"
        }
      ],
      "name": "LBRouter__AmountSlippageBPTooBig",
      "type": "error"
    },
    {
      "inputs": [
        {
          "internalType": "uint256",
          "name": "amountXMin",
          "type": "uint256"
        },
        {
          "internalType": "uint256",
          "name": "amountX",
          "type": "uint256"
        },
        {
          "internalType": "uint256",
          "name": "amountYMin",
          "type": "uint256"
        },
        {
          "internalType": "uint256",
          "name": "amountY",
          "type": "uint256"
        }
      ],
      "name": "LBRouter__AmountSlippageCaught",
      "type": "error"
    },
    {
      "inputs": [
        {
          "internalType": "uint256",
          "name": "id",
          "type": "uint256"
        }
      ],
      "name": "LBRouter__BinReserveOverflows",
      "type": "error"
    },
    {
      "inputs": [],
      "name": "LBRouter__BrokenSwapSafetyCheck",
      "type": "error"
    },
    {
      "inputs": [
        {
          "internalType": "uint256",
          "name": "deadline",
          "type": "uint256"
        },
        {
          "internalType": "uint256",
          "name": "currentTimestamp",
          "type": "uint256"
        }
      ],
      "name": "LBRouter__DeadlineExceeded",
      "type": "error"
    },
    {
      "inputs": [
        {
          "internalType": "address",
          "name": "recipient",
          "type": "address"
        },
        {
          "internalType": "uint256",
          "name": "amount",
          "type": "uint256"
        }
      ],
      "name": "LBRouter__FailedToSendNATIVE",
      "type": "error"
    },
    {
      "inputs": [
        {
          "internalType": "uint256",
          "name": "idDesired",
          "type": "uint256"
        },
        {
          "internalType": "uint256",
          "name": "idSlippage",
          "type": "uint256"
        }
      ],
      "name": "LBRouter__IdDesiredOverflows",
      "type": "error"
    },
    {
      "inputs": [
        {
          "internalType": "int256",
          "name": "id",
          "type": "int256"
        }
      ],
      "name": "LBRouter__IdOverflows",
      "type": "error"
    },
    {
      "inputs": [
        {
          "internalType": "uint256",
          "name": "activeIdDesired",
          "type": "uint256"
        },
        {
          "internalType": "uint256",
          "name": "idSlippage",
          "type": "uint256"
        },
        {
          "internalType": "uint256",
          "name": "activeId",
          "type": "uint256"
        }
      ],
      "name": "LBRouter__IdSlippageCaught",
      "type": "error"
    },
    {
      "inputs": [
        {
          "internalType": "uint256",
          "name": "amountOutMin",
          "type": "uint256"
        },
        {
          "internalType": "uint256",
          "name": "amountOut",
          "type": "uint256"
        }
      ],
      "name": "LBRouter__InsufficientAmountOut",
      "type": "error"
    },
    {
      "inputs": [
        {
          "internalType": "address",
          "name": "wrongToken",
          "type": "address"
        }
      ],
      "name": "LBRouter__InvalidTokenPath",
      "type": "error"
    },
    {
      "inputs": [
        {
          "internalType": "uint256",
          "name": "version",
          "type": "uint256"
        }
      ],
      "name": "LBRouter__InvalidVersion",
      "type": "error"
    },
    {
      "inputs": [],
      "name": "LBRouter__LengthsMismatch",
      "type": "error"
    },
    {
      "inputs": [
        {
          "internalType": "uint256",
          "name": "amountInMax",
          "type": "uint256"
        },
        {
          "internalType": "uint256",
          "name": "amountIn",
          "type": "uint256"
        }
      ],
      "name": "LBRouter__MaxAmountInExceeded",
      "type": "error"
    },
    {
      "inputs": [],
      "name": "LBRouter__NotFactoryOwner",
      "type": "error"
    },
    {
      "inputs": [
        {
          "internalType": "address",
          "name": "tokenX",
          "type": "address"
        },
        {
          "internalType": "address",
          "name": "tokenY",
          "type": "address"
        },
        {
          "internalType": "uint256",
          "name": "binStep",
          "type": "uint256"
        }
      ],
      "name": "LBRouter__PairNotCreated",
      "type": "error"
    },
    {
      "inputs": [],
      "name": "LBRouter__SenderIsNotWNATIVE",
      "type": "error"
    },
    {
      "inputs": [
        {
          "internalType": "uint256",
          "name": "id",
          "type": "uint256"
        }
      ],
      "name": "LBRouter__SwapOverflows",
      "type": "error"
    },
    {
      "inputs": [
        {
          "internalType": "uint256",
          "name": "excess",
          "type": "uint256"
        }
      ],
      "name": "LBRouter__TooMuchTokensIn",
      "type": "error"
    },
    {
      "inputs": [
        {
          "internalType": "uint256",
          "name": "amount",
          "type": "uint256"
        },
        {
          "internalType": "uint256",
          "name": "reserve",
          "type": "uint256"
        }
      ],
      "name": "LBRouter__WrongAmounts",
      "type": "error"
    },
    {
      "inputs": [
        {
          "internalType": "address",
          "name": "tokenX",
          "type": "address"
        },
        {
          "internalType": "address",
          "name": "tokenY",
          "type": "address"
        },
        {
          "internalType": "uint256",
          "name": "amountX",
          "type": "uint256"
        },
        {
          "internalType": "uint256",
          "name": "amountY",
          "type": "uint256"
        },
        {
          "internalType": "uint256",
          "name": "msgValue",
          "type": "uint256"
        }
      ],
      "name": "LBRouter__WrongNativeLiquidityParameters",
      "type": "error"
    },
    {
      "inputs": [],
      "name": "LBRouter__WrongTokenOrder",
      "type": "error"
    },
    {
      "inputs": [],
      "name": "PackedUint128Math__SubUnderflow",
      "type": "error"
    },
    {
      "inputs": [],
      "name": "TokenHelper__TransferFailed",
      "type": "error"
    },
    {
      "inputs": [
        {
          "components": [
            {
              "internalType": "contract IERC20",
              "name": "tokenX",
              "type": "address"
            },
            {
              "internalType": "contract IERC20",
              "name": "tokenY",
              "type": "address"
            },
            {
              "internalType": "uint256",
              "name": "binStep",
              "type": "uint256"
            },
            {
              "internalType": "uint256",
              "name": "amountX",
              "type": "uint256"
            },
            {
              "internalType": "uint256",
              "name": "amountY",
              "type": "uint256"
            },
            {
              "internalType": "uint256",
              "name": "amountXMin",
              "type": "uint256"
            },
            {
              "internalType": "uint256",
              "name": "amountYMin",
              "type": "uint256"
            },
            {
              "internalType": "uint256",
              "name": "activeIdDesired",
              "type": "uint256"
            },
            {
              "internalType": "uint256",
              "name": "idSlippage",
              "type": "uint256"
            },
            {
              "internalType": "int256[]",
              "name": "deltaIds",
              "type": "int256[]"
            },
            {
              "internalType": "uint256[]",
              "name": "distributionX",
              "type": "uint256[]"
            },
            {
              "internalType": "uint256[]",
              "name": "distributionY",
              "type": "uint256[]"
            },
            {
              "internalType": "address",
              "name": "to",
              "type": "address"
            },
            {
              "internalType": "address",
              "name": "refundTo",
              "type": "address"
            },
            {
              "internalType": "uint256",
              "name": "deadline",
              "type": "uint256"
            }
          ],
          "internalType": "struct ILBRouter.LiquidityParameters",
          "name": "liquidityParameters",
          "type": "tuple"
        }
      ],
      "name": "addLiquidity",
      "outputs": [
        {
          "internalType": "uint256",
          "name": "amountXAdded",
          "type": "uint256"
        },
        {
          "internalType": "uint256",
          "name": "amountYAdded",
          "type": "uint256"
        },
        {
          "internalType": "uint256",
          "name": "amountXLeft",
          "type": "uint256"
        },
        {
          "internalType": "uint256",
          "name": "amountYLeft",
          "type": "uint256"
        },
        {
          "internalType": "uint256[]",
          "name": "depositIds",
          "type": "uint256[]"
        },
        {
          "internalType": "uint256[]",
          "name": "liquidityMinted",
          "type": "uint256[]"
        }
      ],
      "stateMutability": "nonpayable",
      "type": "function"
    },
    {
      "inputs": [
        {
          "components": [
            {
              "internalType": "contract IERC20",
              "name": "tokenX",
              "type": "address"
            },
            {
              "internalType": "contract IERC20",
              "name": "tokenY",
              "type": "address"
            },
            {
              "internalType": "uint256",
              "name": "binStep",
              "type": "uint256"
            },
            {
              "internalType": "uint256",
              "name": "amountX",
              "type": "uint256"
            },
            {
              "internalType": "uint256",
              "name": "amountY",
              "type": "uint256"
            },
            {
              "internalType": "uint256",
              "name": "amountXMin",
              "type": "uint256"
            },
            {
              "internalType": "uint256",
              "name": "amountYMin",
              "type": "uint256"
            },
            {
              "internalType": "uint256",
              "name": "activeIdDesired",
              "type": "uint256"
            },
            {
              "internalType": "uint256",
              "name": "idSlippage",
              "type": "uint256"
            },
            {
              "internalType": "int256[]",
              "name": "deltaIds",
              "type": "int256[]"
            },
            {
              "internalType": "uint256[]",
              "name": "distributionX",
              "type": "uint256[]"
            },
            {
              "internalType": "uint256[]",
              "name": "distributionY",
              "type": "uint256[]"
            },
            {
              "internalType": "address",
              "name": "to",
              "type": "address"
            },
            {
              "internalType": "address",
              "name": "refundTo",
              "type": "address"
            },
            {
              "internalType": "uint256",
              "name": "deadline",
              "type": "uint256"
            }
          ],
          "internalType": "struct ILBRouter.LiquidityParameters",
          "name": "liquidityParameters",
          "type": "tuple"
        }
      ],
      "name": "addLiquidityNATIVE",
      "outputs": [
        {
          "internalType": "uint256",
          "name": "amountXAdded",
          "type": "uint256"
        },
        {
          "internalType": "uint256",
          "name": "amountYAdded",
          "type": "uint256"
        },
        {
          "internalType": "uint256",
          "name": "amountXLeft",
          "type": "uint256"
        },
        {
          "internalType": "uint256",
          "name": "amountYLeft",
          "type": "uint256"
        },
        {
          "internalType": "uint256[]",
          "name": "depositIds",
          "type": "uint256[]"
        },
        {
          "internalType": "uint256[]",
          "name": "liquidityMinted",
          "type": "uint256[]"
        }
      ],
      "stateMutability": "payable",
      "type": "function"
    },
    {
      "inputs": [
        {
          "internalType": "contract IERC20",
          "name": "tokenX",
          "type": "address"
        },
        {
          "internalType": "contract IERC20",
          "name": "tokenY",
          "type": "address"
        },
        {
          "internalType": "uint24",
          "name": "activeId",
          "type": "uint24"
        },
        {
          "internalType": "uint16",
          "name": "binStep",
          "type": "uint16"
        }
      ],
      "name": "createLBPair",
      "outputs": [
        {
          "internalType": "contract ILBPair",
          "name": "pair",
          "type": "address"
        }
      ],
      "stateMutability": "nonpayable",
      "type": "function"
    },
    {
      "inputs": [],
      "name": "getFactory",
      "outputs": [
        {
          "internalType": "contract ILBFactory",
          "name": "lbFactory",
          "type": "address"
        }
      ],
      "stateMutability": "view",
      "type": "function"
    },
    {
      "inputs": [
        {
          "internalType": "contract ILBPair",
          "name": "pair",
          "type": "address"
        },
        {
          "internalType": "uint256",
          "name": "price",
          "type": "uint256"
        }
      ],
      "name": "getIdFromPrice",
      "outputs": [
        {
          "internalType": "uint24",
          "name": "",
          "type": "uint24"
        }
      ],
      "stateMutability": "view",
      "type": "function"
    },
    {
      "inputs": [
        {
          "internalType": "contract ILBPair",
          "name": "pair",
          "type": "address"
        },
        {
          "internalType": "uint24",
          "name": "id",
          "type": "uint24"
        }
      ],
      "name": "getPriceFromId",
      "outputs": [
        {
          "internalType": "uint256",
          "name": "",
          "type": "uint256"
        }
      ],
      "stateMutability": "view",
      "type": "function"
    },
    {
      "inputs": [
        {
          "internalType": "contract ILBPair",
          "name": "pair",
          "type": "address"
        },
        {
          "internalType": "uint128",
          "name": "amountOut",
          "type": "uint128"
        },
        {
          "internalType": "bool",
          "name": "swapForY",
          "type": "bool"
        }
      ],
      "name": "getSwapIn",
      "outputs": [
        {
          "internalType": "uint128",
          "name": "amountIn",
          "type": "uint128"
        },
        {
          "internalType": "uint128",
          "name": "amountOutLeft",
          "type": "uint128"
        },
        {
          "internalType": "uint128",
          "name": "fee",
          "type": "uint128"
        }
      ],
      "stateMutability": "view",
      "type": "function"
    },
    {
      "inputs": [
        {
          "internalType": "contract ILBPair",
          "name": "pair",
          "type": "address"
        },
        {
          "internalType": "uint128",
          "name": "amountIn",
          "type": "uint128"
        },
        {
          "internalType": "bool",
          "name": "swapForY",
          "type": "bool"
        }
      ],
      "name": "getSwapOut",
      "outputs": [
        {
          "internalType": "uint128",
          "name": "amountInLeft",
          "type": "uint128"
        },
        {
          "internalType": "uint128",
          "name": "amountOut",
          "type": "uint128"
        },
        {
          "internalType": "uint128",
          "name": "fee",
          "type": "uint128"
        }
      ],
      "stateMutability": "view",
      "type": "function"
    },
    {
      "inputs": [],
      "name": "getV1Factory",
      "outputs": [
        {
          "internalType": "contract IJoeFactory",
          "name": "factoryV1",
          "type": "address"
        }
      ],
      "stateMutability": "view",
      "type": "function"
    },
    {
      "inputs": [],
      "name": "getWNATIVE",
      "outputs": [
        {
          "internalType": "contract IWNATIVE",
          "name": "wnative",
          "type": "address"
        }
      ],
      "stateMutability": "view",
      "type": "function"
    },
    {
      "inputs": [
        {
          "internalType": "contract IERC20",
          "name": "tokenX",
          "type": "address"
        },
        {
          "internalType": "contract IERC20",
          "name": "tokenY",
          "type": "address"
        },
        {
          "internalType": "uint16",
          "name": "binStep",
          "type": "uint16"
        },
        {
          "internalType": "uint256",
          "name": "amountXMin",
          "type": "uint256"
        },
        {
          "internalType": "uint256",
          "name": "amountYMin",
          "type": "uint256"
        },
        {
          "internalType": "uint256[]",
          "name": "ids",
          "type": "uint256[]"
        },
        {
          "internalType": "uint256[]",
          "name": "amounts",
          "type": "uint256[]"
        },
        {
          "internalType": "address",
          "name": "to",
          "type": "address"
        },
        {
          "internalType": "uint256",
          "name": "deadline",
          "type": "uint256"
        }
      ],
      "name": "removeLiquidity",
      "outputs": [
        {
          "internalType": "uint256",
          "name": "amountX",
          "type": "uint256"
        },
        {
          "internalType": "uint256",
          "name": "amountY",
          "type": "uint256"
        }
      ],
      "stateMutability": "nonpayable",
      "type": "function"
    },
    {
      "inputs": [
        {
          "internalType": "contract IERC20",
          "name": "token",
          "type": "address"
        },
        {
          "internalType": "uint16",
          "name": "binStep",
          "type": "uint16"
        },
        {
          "internalType": "uint256",
          "name": "amountTokenMin",
          "type": "uint256"
        },
        {
          "internalType": "uint256",
          "name": "amountNATIVEMin",
          "type": "uint256"
        },
        {
          "internalType": "uint256[]",
          "name": "ids",
          "type": "uint256[]"
        },
        {
          "internalType": "uint256[]",
          "name": "amounts",
          "type": "uint256[]"
        },
        {
          "internalType": "address payable",
          "name": "to",
          "type": "address"
        },
        {
          "internalType": "uint256",
          "name": "deadline",
          "type": "uint256"
        }
      ],
      "name": "removeLiquidityNATIVE",
      "outputs": [
        {
          "internalType": "uint256",
          "name": "amountToken",
          "type": "uint256"
        },
        {
          "internalType": "uint256",
          "name": "amountNATIVE",
          "type": "uint256"
        }
      ],
      "stateMutability": "nonpayable",
      "type": "function"
    },
    {
      "inputs": [
        {
          "internalType": "uint256",
          "name": "amountOutMin",
          "type": "uint256"
        },
        {
          "components": [
            {
              "internalType": "uint256[]",
              "name": "pairBinSteps",
              "type": "uint256[]"
            },
            {
              "internalType": "enum ILBRouter.Version[]",
              "name": "versions",
              "type": "uint8[]"
            },
            {
              "internalType": "contract IERC20[]",
              "name": "tokenPath",
              "type": "address[]"
            }
          ],
          "internalType": "struct ILBRouter.Path",
          "name": "path",
          "type": "tuple"
        },
        {
          "internalType": "address",
          "name": "to",
          "type": "address"
        },
        {
          "internalType": "uint256",
          "name": "deadline",
          "type": "uint256"
        }
      ],
      "name": "swapExactNATIVEForTokens",
      "outputs": [
        {
          "internalType": "uint256",
          "name": "amountOut",
          "type": "uint256"
        }
      ],
      "stateMutability": "payable",
      "type": "function"
    },
    {
      "inputs": [
        {
          "internalType": "uint256",
          "name": "amountOutMin",
          "type": "uint256"
        },
        {
          "components": [
            {
              "internalType": "uint256[]",
              "name": "pairBinSteps",
              "type": "uint256[]"
            },
            {
              "internalType": "enum ILBRouter.Version[]",
              "name": "versions",
              "type": "uint8[]"
            },
            {
              "internalType": "contract IERC20[]",
              "name": "tokenPath",
              "type": "address[]"
            }
          ],
          "internalType": "struct ILBRouter.Path",
          "name": "path",
          "type": "tuple"
        },
        {
          "internalType": "address",
          "name": "to",
          "type": "address"
        },
        {
          "internalType": "uint256",
          "name": "deadline",
          "type": "uint256"
        }
      ],
      "name": "swapExactNATIVEForTokensSupportingFeeOnTransferTokens",
      "outputs": [
        {
          "internalType": "uint256",
          "name": "amountOut",
          "type": "uint256"
        }
      ],
      "stateMutability": "payable",
      "type": "function"
    },
    {
      "inputs": [
        {
          "internalType": "uint256",
          "name": "amountIn",
          "type": "uint256"
        },
        {
          "internalType": "uint256",
          "name": "amountOutMinNATIVE",
          "type": "uint256"
        },
        {
          "components": [
            {
              "internalType": "uint256[]",
              "name": "pairBinSteps",
              "type": "uint256[]"
            },
            {
              "internalType": "enum ILBRouter.Version[]",
              "name": "versions",
              "type": "uint8[]"
            },
            {
              "internalType": "contract IERC20[]",
              "name": "tokenPath",
              "type": "address[]"
            }
          ],
          "internalType": "struct ILBRouter.Path",
          "name": "path",
          "type": "tuple"
        },
        {
          "internalType": "address payable",
          "name": "to",
          "type": "address"
        },
        {
          "internalType": "uint256",
          "name": "deadline",
          "type": "uint256"
        }
      ],
      "name": "swapExactTokensForNATIVE",
      "outputs": [
        {
          "internalType": "uint256",
          "name": "amountOut",
          "type": "uint256"
        }
      ],
      "stateMutability": "nonpayable",
      "type": "function"
    },
    {
      "inputs": [
        {
          "internalType": "uint256",
          "name": "amountIn",
          "type": "uint256"
        },
        {
          "internalType": "uint256",
          "name": "amountOutMinNATIVE",
          "type": "uint256"
        },
        {
          "components": [
            {
              "internalType": "uint256[]",
              "name": "pairBinSteps",
              "type": "uint256[]"
            },
            {
              "internalType": "enum ILBRouter.Version[]",
              "name": "versions",
              "type": "uint8[]"
            },
            {
              "internalType": "contract IERC20[]",
              "name": "tokenPath",
              "type": "address[]"
            }
          ],
          "internalType": "struct ILBRouter.Path",
          "name": "path",
          "type": "tuple"
        },
        {
          "internalType": "address payable",
          "name": "to",
          "type": "address"
        },
        {
          "internalType": "uint256",
          "name": "deadline",
          "type": "uint256"
        }
      ],
      "name": "swapExactTokensForNATIVESupportingFeeOnTransferTokens",
      "outputs": [
        {
          "internalType": "uint256",
          "name": "amountOut",
          "type": "uint256"
        }
      ],
      "stateMutability": "nonpayable",
      "type": "function"
    },
    {
      "inputs": [
        {
          "internalType": "uint256",
          "name": "amountIn",
          "type": "uint256"
        },
        {
          "internalType": "uint256",
          "name": "amountOutMin",
          "type": "uint256"
        },
        {
          "components": [
            {
              "internalType": "uint256[]",
              "name": "pairBinSteps",
              "type": "uint256[]"
            },
            {
              "internalType": "enum ILBRouter.Version[]",
              "name": "versions",
              "type": "uint8[]"
            },
            {
              "internalType": "contract IERC20[]",
              "name": "tokenPath",
              "type": "address[]"
            }
          ],
          "internalType": "struct ILBRouter.Path",
          "name": "path",
          "type": "tuple"
        },
        {
          "internalType": "address",
          "name": "to",
          "type": "address"
        },
        {
          "internalType": "uint256",
          "name": "deadline",
          "type": "uint256"
        }
      ],
      "name": "swapExactTokensForTokens",
      "outputs": [
        {
          "internalType": "uint256",
          "name": "amountOut",
          "type": "uint256"
        }
      ],
      "stateMutability": "nonpayable",
      "type": "function"
    },
    {
      "inputs": [
        {
          "internalType": "uint256",
          "name": "amountIn",
          "type": "uint256"
        },
        {
          "internalType": "uint256",
          "name": "amountOutMin",
          "type": "uint256"
        },
        {
          "components": [
            {
              "internalType": "uint256[]",
              "name": "pairBinSteps",
              "type": "uint256[]"
            },
            {
              "internalType": "enum ILBRouter.Version[]",
              "name": "versions",
              "type": "uint8[]"
            },
            {
              "internalType": "contract IERC20[]",
              "name": "tokenPath",
              "type": "address[]"
            }
          ],
          "internalType": "struct ILBRouter.Path",
          "name": "path",
          "type": "tuple"
        },
        {
          "internalType": "address",
          "name": "to",
          "type": "address"
        },
        {
          "internalType": "uint256",
          "name": "deadline",
          "type": "uint256"
        }
      ],
      "name": "swapExactTokensForTokensSupportingFeeOnTransferTokens",
      "outputs": [
        {
          "internalType": "uint256",
          "name": "amountOut",
          "type": "uint256"
        }
      ],
      "stateMutability": "nonpayable",
      "type": "function"
    },
    {
      "inputs": [
        {
          "internalType": "uint256",
          "name": "amountOut",
          "type": "uint256"
        },
        {
          "components": [
            {
              "internalType": "uint256[]",
              "name": "pairBinSteps",
              "type": "uint256[]"
            },
            {
              "internalType": "enum ILBRouter.Version[]",
              "name": "versions",
              "type": "uint8[]"
            },
            {
              "internalType": "contract IERC20[]",
              "name": "tokenPath",
              "type": "address[]"
            }
          ],
          "internalType": "struct ILBRouter.Path",
          "name": "path",
          "type": "tuple"
        },
        {
          "internalType": "address",
          "name": "to",
          "type": "address"
        },
        {
          "internalType": "uint256",
          "name": "deadline",
          "type": "uint256"
        }
      ],
      "name": "swapNATIVEForExactTokens",
      "outputs": [
        {
          "internalType": "uint256[]",
          "name": "amountsIn",
          "type": "uint256[]"
        }
      ],
      "stateMutability": "payable",
      "type": "function"
    },
    {
      "inputs": [
        {
          "internalType": "uint256",
          "name": "amountNATIVEOut",
          "type": "uint256"
        },
        {
          "internalType": "uint256",
          "name": "amountInMax",
          "type": "uint256"
        },
        {
          "components": [
            {
              "internalType": "uint256[]",
              "name": "pairBinSteps",
              "type": "uint256[]"
            },
            {
              "internalType": "enum ILBRouter.Version[]",
              "name": "versions",
              "type": "uint8[]"
            },
            {
              "internalType": "contract IERC20[]",
              "name": "tokenPath",
              "type": "address[]"
            }
          ],
          "internalType": "struct ILBRouter.Path",
          "name": "path",
          "type": "tuple"
        },
        {
          "internalType": "address payable",
          "name": "to",
          "type": "address"
        },
        {
          "internalType": "uint256",
          "name": "deadline",
          "type": "uint256"
        }
      ],
      "name": "swapTokensForExactNATIVE",
      "outputs": [
        {
          "internalType": "uint256[]",
          "name": "amountsIn",
          "type": "uint256[]"
        }
      ],
      "stateMutability": "nonpayable",
      "type": "function"
    },
    {
      "inputs": [
        {
          "internalType": "uint256",
          "name": "amountOut",
          "type": "uint256"
        },
        {
          "internalType": "uint256",
          "name": "amountInMax",
          "type": "uint256"
        },
        {
          "components": [
            {
              "internalType": "uint256[]",
              "name": "pairBinSteps",
              "type": "uint256[]"
            },
            {
              "internalType": "enum ILBRouter.Version[]",
              "name": "versions",
              "type": "uint8[]"
            },
            {
              "internalType": "contract IERC20[]",
              "name": "tokenPath",
              "type": "address[]"
            }
          ],
          "internalType": "struct ILBRouter.Path",
          "name": "path",
          "type": "tuple"
        },
        {
          "internalType": "address",
          "name": "to",
          "type": "address"
        },
        {
          "internalType": "uint256",
          "name": "deadline",
          "type": "uint256"
        }
      ],
      "name": "swapTokensForExactTokens",
      "outputs": [
        {
          "internalType": "uint256[]",
          "name": "amountsIn",
          "type": "uint256[]"
        }
      ],
      "stateMutability": "nonpayable",
      "type": "function"
    },
    {
      "inputs": [
        {
          "internalType": "contract IERC20",
          "name": "token",
          "type": "address"
        },
        {
          "internalType": "address",
          "name": "to",
          "type": "address"
        },
        {
          "internalType": "uint256",
          "name": "amount",
          "type": "uint256"
        }
      ],
      "name": "sweep",
      "outputs": [],
      "stateMutability": "nonpayable",
      "type": "function"
    },
    {
      "inputs": [
        {
          "internalType": "contract ILBToken",
          "name": "lbToken",
          "type": "address"
        },
        {
          "internalType": "address",
          "name": "to",
          "type": "address"
        },
        {
          "internalType": "uint256[]",
          "name": "ids",
          "type": "uint256[]"
        },
        {
          "internalType": "uint256[]",
          "name": "amounts",
          "type": "uint256[]"
        }
      ],
      "name": "sweepLBToken",
      "outputs": [],
      "stateMutability": "nonpayable",
      "type": "function"
    },
    {
      "stateMutability": "payable",
      "type": "receive"
    }
  ],
  "bytecode": {
    "object": "0x60e06040523480156200001157600080fd5b5060405162004c8038038062004c8083398101604081905262000034916200006b565b6001600160a01b0392831660805290821660a0521660c052620000bf565b6001600160a01b03811681146200006857600080fd5b50565b6000806000606084860312156200008157600080fd5b83516200008e8162000052565b6020850151909350620000a18162000052565b6040850151909250620000b48162000052565b809150509250925092565b60805160a05160c051614afe6200018260003960008181610194015281816102f3015281816105e2015281816106c00152818161079c015281816108df01528181610c6c01528181611288015281816113240152818161148b0152818161150e0152818161185101528181611ae601528181611dcf0152818161272801528181612ac70152612b450152600081816104900152613a4701526000818161035b0152818161102d015281816111da01528181611fc901526133230152614afe6000f3fe6080604052600436106101845760003560e01c806392fe8e70116100d6578063bb558a9f1161007f578063e038e6dc11610059578063e038e6dc146104f4578063e9361c0814610507578063f96fe9251461052757600080fd5b8063bb558a9f14610481578063c22159b6146104b4578063d0e380f2146104d457600080fd5b8063a0d376cf116100b0578063a0d376cf1461042e578063a3c7271a1461044e578063b066ea7c1461046e57600080fd5b806392fe8e70146103a4578063964f987c146103c45780639ab6156b1461040e57600080fd5b806362c067671161013857806381c2fdfb1161011257806381c2fdfb1461031757806388cc58e41461034c5780638efc2b2c1461037f57600080fd5b806362c067671461028c578063659ac74b146102ac5780636c9c0078146102e457600080fd5b80632a443fae116101695780632a443fae1461022c5780633dc8f8ec1461024c5780634b8018701461026c57600080fd5b80631a24f9a9146101d95780632075ad221461020c57600080fd5b366101d457336001600160a01b037f000000000000000000000000000000000000000000000000000000000000000016146101d257604051636c8cb79360e01b815260040160405180910390fd5b005b600080fd5b3480156101e557600080fd5b506101f96101f436600461401a565b61055b565b6040519081526020015b60405180910390f35b61021f61021a366004614085565b61085d565b6040516102039190614121565b34801561023857600080fd5b506101f961024736600461401a565b610abd565b34801561025857600080fd5b5061021f61026736600461401a565b610bea565b34801561027857600080fd5b506101f961028736600461401a565b610df0565b34801561029857600080fd5b506101d26102a7366004614134565b61102b565b3480156102b857600080fd5b506102cc6102c73660046141a1565b61119b565b6040516001600160a01b039091168152602001610203565b3480156102f057600080fd5b507f00000000000000000000000000000000000000000000000000000000000000006102cc565b34801561032357600080fd5b506103376103323660046141fd565b611252565b60408051928352602083019190915201610203565b34801561035857600080fd5b507f00000000000000000000000000000000000000000000000000000000000000006102cc565b61039261038d3660046142b8565b6113ab565b604051610203969594939291906142fb565b3480156103b057600080fd5b5061021f6103bf36600461401a565b6115fa565b3480156103d057600080fd5b506103e46103df366004614368565b61173f565b604080516001600160801b0394851681529284166020840152921691810191909152606001610203565b34801561041a57600080fd5b506101f961042936600461401a565b6117cf565b34801561043a57600080fd5b506103e4610449366004614368565b611943565b34801561045a57600080fd5b506103926104693660046142b8565b611987565b6101f961047c366004614085565b611a64565b34801561048d57600080fd5b507f00000000000000000000000000000000000000000000000000000000000000006102cc565b3480156104c057600080fd5b506103376104cf3660046143b3565b611bde565b3480156104e057600080fd5b506101f96104ef36600461447b565b611cd4565b6101f9610502366004614085565b611d4d565b34801561051357600080fd5b506101d2610522366004614500565b611fc7565b34801561053357600080fd5b50610547610542366004614595565b6120ea565b60405162ffffff9091168152602001610203565b6000818042111561058d5760405163dae7ca7d60e01b8152600481018290524260248201526044015b60405180910390fd5b845151859015806105a5575080515160208201515114155b806105c257506040810151518151516105bf9060016145d7565b14155b156105e05760405163b91b4d4d60e01b815260040160405180910390fd5b7f00000000000000000000000000000000000000000000000000000000000000006001600160a01b0316866040015187600001515181518110610625576106256145ea565b60200260200101516001600160a01b03161461068457604086015186515181518110610653576106536145ea565b602002602001015160405163cfec0e0160e01b815260040161058491906001600160a01b0391909116815260200190565b600061069d876000015188602001518960400151612156565b6040516370a0823160e01b81523060048201529091506000906001600160a01b037f000000000000000000000000000000000000000000000000000000000000000016906370a0823190602401602060405180830381865afa158015610707573d6000803e3d6000fd5b505050506040513d601f19601f8201168201806040525081019061072b9190614600565b90506107718860400151600081518110610747576107476145ea565b60200260200101513384600081518110610763576107636145ea565b60200260200101518d612266565b6107858289602001518a6040015130612287565b6040516370a0823160e01b815230600482015281907f00000000000000000000000000000000000000000000000000000000000000006001600160a01b0316906370a0823190602401602060405180830381865afa1580156107eb573d6000803e3d6000fd5b505050506040513d601f19601f8201168201806040525081019061080f9190614600565b6108199190614619565b945084891115610846576040516313fab00360e21b8152600481018a905260248101869052604401610584565b6108508786612706565b5050505095945050505050565b6060818042111561088a5760405163dae7ca7d60e01b815260048101829052426024820152604401610584565b845151859015806108a2575080515160208201515114155b806108bf57506040810151518151516108bc9060016145d7565b14155b156108dd5760405163b91b4d4d60e01b815260040160405180910390fd5b7f00000000000000000000000000000000000000000000000000000000000000006001600160a01b0316866040015160008151811061091e5761091e6145ea565b60200260200101516001600160a01b03161461094b578560400151600081518110610653576106536145ea565b6000610964876000015188602001518960400151612156565b905061097a87602001518289604001518b61279a565b93503484600081518110610990576109906145ea565b602002602001015111156109de5734846000815181106109b2576109b26145ea565b602002602001015160405163194ee21960e31b8152600401610584929190918252602082015260400190565b610a1c816000815181106109f4576109f46145ea565b602002602001015185600081518110610a0f57610a0f6145ea565b6020026020010151612ab9565b6000610a338289602001518a60400151888b612b70565b905088811015610a60576040516313fab00360e21b8152600481018a905260248101829052604401610584565b84600081518110610a7357610a736145ea565b6020026020010151341115610ab157610ab13386600081518110610a9957610a996145ea565b602002602001015134610aac9190614619565b612e8d565b50505050949350505050565b60008180421115610aea5760405163dae7ca7d60e01b815260048101829052426024820152604401610584565b84515185901580610b02575080515160208201515114155b80610b1f5750604081015151815151610b1c9060016145d7565b14155b15610b3d5760405163b91b4d4d60e01b815260040160405180910390fd5b6000610b56876000015188602001518960400151612156565b9050610b9c8760400151600081518110610b7257610b726145ea565b60200260200101513383600081518110610b8e57610b8e6145ea565b60200260200101518c612266565b610bb1898289602001518a604001518a612f1f565b935083881115610bde576040516313fab00360e21b81526004810189905260248101859052604401610584565b50505095945050505050565b60608180421115610c175760405163dae7ca7d60e01b815260048101829052426024820152604401610584565b84515185901580610c2f575080515160208201515114155b80610c4c5750604081015151815151610c499060016145d7565b14155b15610c6a5760405163b91b4d4d60e01b815260040160405180910390fd5b7f00000000000000000000000000000000000000000000000000000000000000006001600160a01b0316866040015187600001515181518110610caf57610caf6145ea565b60200260200101516001600160a01b031614610cdd57604086015186515181518110610653576106536145ea565b6000610cf6876000015188602001518960400151612156565b9050610d0c87602001518289604001518c61279a565b93508784600081518110610d2257610d226145ea565b60200260200101511115610d445787846000815181106109b2576109b26145ea565b610da28760400151600081518110610d5e57610d5e6145ea565b60200260200101513383600081518110610d7a57610d7a6145ea565b602002602001015187600081518110610d9557610d956145ea565b6020026020010151612266565b6000610db98289602001518a604001518830612b70565b905089811015610de6576040516313fab00360e21b8152600481018b905260248101829052604401610584565b6108508782612706565b60008180421115610e1d5760405163dae7ca7d60e01b815260048101829052426024820152604401610584565b84515185901580610e35575080515160208201515114155b80610e525750604081015151815151610e4f9060016145d7565b14155b15610e705760405163b91b4d4d60e01b815260040160405180910390fd5b6000610e89876000015188602001518960400151612156565b905060008760400151825181518110610ea457610ea46145ea565b60209081029190910101516040516370a0823160e01b81526001600160a01b0389811660048301529192506000918316906370a0823190602401602060405180830381865afa158015610efb573d6000803e3d6000fd5b505050506040513d601f19601f82011682018060405250810190610f1f9190614600565b9050610f658960400151600081518110610f3b57610f3b6145ea565b60200260200101513385600081518110610f5757610f576145ea565b60200260200101518e612266565b610f79838a602001518b604001518b612287565b6040516370a0823160e01b81526001600160a01b0389811660048301528291908416906370a0823190602401602060405180830381865afa158015610fc2573d6000803e3d6000fd5b505050506040513d601f19601f82011682018060405250810190610fe69190614600565b610ff09190614619565b9550858a111561101d576040516313fab00360e21b8152600481018b905260248101879052604401610584565b505050505095945050505050565b7f00000000000000000000000000000000000000000000000000000000000000006001600160a01b0316638da5cb5b6040518163ffffffff1660e01b8152600401602060405180830381865afa158015611089573d6000803e3d6000fd5b505050506040513d601f19601f820116820180604052508101906110ad919061462c565b6001600160a01b0316336001600160a01b0316146110de57604051635d9515b960e11b815260040160405180910390fd5b6001600160a01b03831661110e5760001981146110fb57806110fd565b475b90506111098282612e8d565b505050565b600019811461111d5780611185565b6040516370a0823160e01b81523060048201526001600160a01b038416906370a0823190602401602060405180830381865afa158015611161573d6000803e3d6000fd5b505050506040513d601f19601f820116820180604052508101906111859190614600565b90506111096001600160a01b038416838361328c565b60405163659ac74b60e01b81526001600160a01b038581166004830152848116602483015262ffffff8416604483015261ffff831660648301526000917f00000000000000000000000000000000000000000000000000000000000000009091169063659ac74b906084016020604051808303816000875af1158015611225573d6000803e3d6000fd5b505050506040513d601f19601f82011682018060405250810190611249919061462c565b95945050505050565b60008082804211156112805760405163dae7ca7d60e01b815260048101829052426024820152604401610584565b60006112b38c7f00000000000000000000000000000000000000000000000000000000000000008d61ffff1660016132f2565b90506000816001600160a01b031663da10610c6040518163ffffffff1660e01b8152600401602060405180830381865afa1580156112f5573d6000803e3d6000fd5b505050506040513d601f19601f82011682018060405250810190611319919061462c565b6001600160a01b03167f00000000000000000000000000000000000000000000000000000000000000006001600160a01b031614905080611358579899985b600080611369848e8e8e8e306133df565b915091508261137957808261137c565b81815b80975081985050505050506113928c8786613541565b61139c8684612706565b50509850989650505050505050565b6000808080606080826113e06113c460208a018a614649565b6113d460408b0160208c01614649565b8a6040013560016132f2565b9050806001600160a01b03166305e8746d6040518163ffffffff1660e01b8152600401602060405180830381865afa158015611420573d6000803e3d6000fd5b505050506040513d601f19601f82011682018060405250810190611444919061462c565b6001600160a01b031661145a60208a018a614649565b6001600160a01b0316146114815760405163b33f8ab960e01b815260040160405180910390fd5b6001600160a01b037f0000000000000000000000000000000000000000000000000000000000000000166114b860208a018a614649565b6001600160a01b03161480156114d15750348860600135145b15611504576114f56114e960408a0160208b01614649565b33838b60800135612266565b6114ff8134612ab9565b6115db565b6001600160a01b037f00000000000000000000000000000000000000000000000000000000000000001661153e60408a0160208b01614649565b6001600160a01b03161480156115575750348860800135145b15611578576114f561156c60208a018a614649565b33838b60600135612266565b6115856020890189614649565b61159560408a0160208b01614649565b60405163d0a4f13b60e01b81526001600160a01b03928316600482015291166024820152606089013560448201526080890135606482015234608482015260a401610584565b6115e58882613562565b949d939c50919a509850965090945092505050565b606081804211156116275760405163dae7ca7d60e01b815260048101829052426024820152604401610584565b8451518590158061163f575080515160208201515114155b8061165c57506040810151518151516116599060016145d7565b14155b1561167a5760405163b91b4d4d60e01b815260040160405180910390fd5b6000611693876000015188602001518960400151612156565b90506116a987602001518289604001518c61279a565b935087846000815181106116bf576116bf6145ea565b602002602001015111156116e15787846000815181106109b2576109b26145ea565b6116fb8760400151600081518110610d5e57610d5e6145ea565b60006117128289602001518a60400151888b612b70565b905089811015610850576040516313fab00360e21b8152600481018b905260248101829052604401610584565b604051630abcd78360e41b81526001600160801b03831660048201528115156024820152600090819081906001600160a01b0387169063abcd7830906044015b606060405180830381865afa15801561179c573d6000803e3d6000fd5b505050506040513d601f19601f820116820180604052508101906117c09190614666565b91989097509095509350505050565b600081804211156117fc5760405163dae7ca7d60e01b815260048101829052426024820152604401610584565b84515185901580611814575080515160208201515114155b80611831575060408101515181515161182e9060016145d7565b14155b1561184f5760405163b91b4d4d60e01b815260040160405180910390fd5b7f00000000000000000000000000000000000000000000000000000000000000006001600160a01b0316866040015187600001515181518110611894576118946145ea565b60200260200101516001600160a01b0316146118c257604086015186515181518110610653576106536145ea565b60006118db876000015188602001518960400151612156565b90506118f78760400151600081518110610b7257610b726145ea565b61190c898289602001518a6040015130612f1f565b935083881115611939576040516313fab00360e21b81526004810189905260248101859052604401610584565b610bde8685612706565b604051631cee6cdf60e31b81526001600160801b03831660048201528115156024820152600090819081906001600160a01b0387169063e77366f89060440161177f565b6000808080606080826119a06113c460208a018a614649565b9050806001600160a01b03166305e8746d6040518163ffffffff1660e01b8152600401602060405180830381865afa1580156119e0573d6000803e3d6000fd5b505050506040513d601f19601f82011682018060405250810190611a04919061462c565b6001600160a01b0316611a1a60208a018a614649565b6001600160a01b031614611a415760405163b33f8ab960e01b815260040160405180910390fd5b611a5161156c60208a018a614649565b6115db6114e960408a0160208b01614649565b60008180421115611a915760405163dae7ca7d60e01b815260048101829052426024820152604401610584565b84515185901580611aa9575080515160208201515114155b80611ac65750604081015151815151611ac39060016145d7565b14155b15611ae45760405163b91b4d4d60e01b815260040160405180910390fd5b7f00000000000000000000000000000000000000000000000000000000000000006001600160a01b03168660400151600081518110611b2557611b256145ea565b60200260200101516001600160a01b031614611b52578560400151600081518110610653576106536145ea565b6000611b6b876000015188602001518960400151612156565b9050611b9181600081518110611b8357611b836145ea565b602002602001015134612ab9565b611ba6348289602001518a604001518a612f1f565b935083881115611bd3576040516313fab00360e21b81526004810189905260248101859052604401610584565b505050949350505050565b6000808280421115611c0c5760405163dae7ca7d60e01b815260048101829052426024820152604401610584565b6000611c1f8d8d8d61ffff1660016132f2565b90506000816001600160a01b03166305e8746d6040518163ffffffff1660e01b8152600401602060405180830381865afa158015611c61573d6000803e3d6000fd5b505050506040513d601f19601f82011682018060405250810190611c85919061462c565b6001600160a01b03168e6001600160a01b0316141590508015611ca6579899985b611cb4828c8c8c8c8c6133df565b90955093508015611cc3579293925b505050995099975050505050505050565b604051634c7cffbd60e01b815262ffffff821660048201526000906001600160a01b03841690634c7cffbd90602401602060405180830381865afa158015611d20573d6000803e3d6000fd5b505050506040513d601f19601f82011682018060405250810190611d449190614600565b90505b92915050565b60008180421115611d7a5760405163dae7ca7d60e01b815260048101829052426024820152604401610584565b84515185901580611d92575080515160208201515114155b80611daf5750604081015151815151611dac9060016145d7565b14155b15611dcd5760405163b91b4d4d60e01b815260040160405180910390fd5b7f00000000000000000000000000000000000000000000000000000000000000006001600160a01b03168660400151600081518110611e0e57611e0e6145ea565b60200260200101516001600160a01b031614611e3b578560400151600081518110610653576106536145ea565b6000611e54876000015188602001518960400151612156565b905060008760400151825181518110611e6f57611e6f6145ea565b60209081029190910101516040516370a0823160e01b81526001600160a01b0389811660048301529192506000918316906370a0823190602401602060405180830381865afa158015611ec6573d6000803e3d6000fd5b505050506040513d601f19601f82011682018060405250810190611eea9190614600565b9050611f0283600081518110611b8357611b836145ea565b611f16838a602001518b604001518b612287565b6040516370a0823160e01b81526001600160a01b0389811660048301528291908416906370a0823190602401602060405180830381865afa158015611f5f573d6000803e3d6000fd5b505050506040513d601f19601f82011682018060405250810190611f839190614600565b611f8d9190614619565b9550858a1115611fba576040516313fab00360e21b8152600481018b905260248101879052604401610584565b5050505050949350505050565b7f00000000000000000000000000000000000000000000000000000000000000006001600160a01b0316638da5cb5b6040518163ffffffff1660e01b8152600401602060405180830381865afa158015612025573d6000803e3d6000fd5b505050506040513d601f19601f82011682018060405250810190612049919061462c565b6001600160a01b0316336001600160a01b03161461207a57604051635d9515b960e11b815260040160405180910390fd5b6040516305feb5ff60e21b81526001600160a01b038716906317fad7fc906120b0903090899089908990899089906004016146f3565b600060405180830381600087803b1580156120ca57600080fd5b505af11580156120de573d6000803e3d6000fd5b50505050505050505050565b60405163f5e2932960e01b8152600481018290526000906001600160a01b0384169063f5e2932990602401602060405180830381865afa158015612132573d6000803e3d6000fd5b505050506040513d601f19601f82011682018060405250810190611d449190614733565b6060835167ffffffffffffffff81111561217257612172613d98565b60405190808252806020026020018201604052801561219b578160200160208202803683370190505b509050600080836000815181106121b4576121b46145ea565b6020026020010151905060005b835181101561225c578192508481600101815181106121e2576121e26145ea565b6020026020010151915061222a8383898481518110612203576122036145ea565b602002602001015189858151811061221d5761221d6145ea565b6020026020010151613a06565b84828151811061223c5761223c6145ea565b6001600160a01b03909216602092830291909101909101526001016121c1565b5050509392505050565b8015612281576122816001600160a01b038516848484613b06565b50505050565b6000806000806000866000815181106122a2576122a26145ea565b6020026020010151905060005b89518110156120de578981815181106122ca576122ca6145ea565b602002602001015192508881815181106122e6576122e66145ea565b60200260200101519450819550878160010181518110612308576123086145ea565b602002602001015191508951816001011461233f57898160010181518110612332576123326145ea565b6020026020010151612341565b865b9350600085600181111561235757612357614750565b036125fd57600080846001600160a01b0316630902f1ac6040518163ffffffff1660e01b8152600401606060405180830381865afa15801561239d573d6000803e3d6000fd5b505050506040513d601f19601f820116820180604052508101906123c1919061477d565b506001600160701b031691506001600160701b03169150836001600160a01b0316886001600160a01b031610156124f6576040516370a0823160e01b81526001600160a01b03868116600483015260009184918b16906370a0823190602401602060405180830381865afa15801561243d573d6000803e3d6000fd5b505050506040513d601f19601f820116820180604052508101906124619190614600565b0390506000612471828585613b7b565b60405163022c0d9f60e01b8152600060048201819052602482018390526001600160a01b038b811660448401526080606484015260848301919091529192509088169063022c0d9f9060a401600060405180830381600087803b1580156124d757600080fd5b505af11580156124eb573d6000803e3d6000fd5b5050505050506125f6565b6040516370a0823160e01b81526001600160a01b03868116600483015260009183918b16906370a0823190602401602060405180830381865afa158015612541573d6000803e3d6000fd5b505050506040513d601f19601f820116820180604052508101906125659190614600565b0390506000612575828486613b7b565b60405163022c0d9f60e01b8152600481018290526000602482018190526001600160a01b038b811660448401526080606484015260848301919091529192509088169063022c0d9f9060a401600060405180830381600087803b1580156125db57600080fd5b505af11580156125ef573d6000803e3d6000fd5b5050505050505b50506126fe565b826001600160a01b03166353c059a0846001600160a01b031663da10610c6040518163ffffffff1660e01b8152600401602060405180830381865afa15801561264a573d6000803e3d6000fd5b505050506040513d601f19601f8201168201806040525081019061266e919061462c565b60405160e083901b7fffffffff000000000000000000000000000000000000000000000000000000001681526001600160a01b0391821686831614600482015290871660248201526044016020604051808303816000875af11580156126d8573d6000803e3d6000fd5b505050506040513d601f19601f820116820180604052508101906126fc9190614600565b505b6001016122af565b80600003612712575050565b604051632e1a7d4d60e01b8152600481018290527f00000000000000000000000000000000000000000000000000000000000000006001600160a01b031690632e1a7d4d90602401600060405180830381600087803b15801561277457600080fd5b505af1158015612788573d6000803e3d6000fd5b505050506127968282612e8d565b5050565b6060825167ffffffffffffffff8111156127b6576127b6613d98565b6040519080825280602002602001820160405280156127df578160200160208202803683370190505b50905081818551815181106127f6576127f66145ea565b602090810291909101015283515b8015612ab057600084612818600184614619565b81518110612828576128286145ea565b602002602001015190506000876001846128429190614619565b81518110612852576128526145ea565b6020026020010151905060008760018561286c9190614619565b8151811061287c5761287c6145ea565b602002602001015190506000600181111561289957612899614750565b8260018111156128ab576128ab614750565b036129cd57600080826001600160a01b0316630902f1ac6040518163ffffffff1660e01b8152600401606060405180830381865afa1580156128f1573d6000803e3d6000fd5b505050506040513d601f19601f82011682018060405250810190612915919061477d565b506001600160701b031691506001600160701b0316915088868151811061293e5761293e6145ea565b60200260200101516001600160a01b0316856001600160a01b0316111561296157905b6000878781518110612975576129756145ea565b60200260200101519050612994838383613c159092919063ffffffff16565b6001600160801b0316886129a960018a614619565b815181106129b9576129b96145ea565b602002602001018181525050505050612a9a565b612a66818686815181106129e3576129e36145ea565b6020026020010151856001600160a01b0316846001600160a01b03166305e8746d6040518163ffffffff1660e01b8152600401602060405180830381865afa158015612a33573d6000803e3d6000fd5b505050506040513d601f19601f82011682018060405250810190612a57919061462c565b6001600160a01b03161461173f565b50506001600160801b031685612a7d600187614619565b81518110612a8d57612a8d6145ea565b6020026020010181815250505b5050508080612aa8906147c2565b915050612804565b50949350505050565b80600003612ac5575050565b7f00000000000000000000000000000000000000000000000000000000000000006001600160a01b031663d0e30db0826040518263ffffffff1660e01b81526004016000604051808303818588803b158015612b2057600080fd5b505af1158015612b34573d6000803e3d6000fd5b506127969350506001600160a01b037f00000000000000000000000000000000000000000000000000000000000000001691508490508361328c565b60008060008060008088600081518110612b8c57612b8c6145ea565b6020026020010151905060005b8b51811015612e7e578b8181518110612bb457612bb46145ea565b602002602001015193508a8181518110612bd057612bd06145ea565b60200260200101519250819550898160010181518110612bf257612bf26145ea565b602002602001015191508b518160010114612c29578b8160010181518110612c1c57612c1c6145ea565b6020026020010151612c2b565b875b94506000836001811115612c4157612c41614750565b03612d4c57888160010181518110612c5b57612c5b6145ea565b60200260200101519650816001600160a01b0316866001600160a01b03161015612cff5760405163022c0d9f60e01b8152600060048201819052602482018990526001600160a01b03878116604484015260806064840152608483019190915285169063022c0d9f9060a4015b600060405180830381600087803b158015612ce257600080fd5b505af1158015612cf6573d6000803e3d6000fd5b50505050612e76565b60405163022c0d9f60e01b8152600481018890526000602482018190526001600160a01b03878116604484015260806064840152608483019190915285169063022c0d9f9060a401612cc8565b6000846001600160a01b031663da10610c6040518163ffffffff1660e01b8152600401602060405180830381865afa158015612d8c573d6000803e3d6000fd5b505050506040513d601f19601f82011682018060405250810190612db0919061462c565b60405163029e02cd60e51b81526001600160a01b039182168583161460048201819052888316602483015292506000918291612e4a918916906353c059a0906044015b6020604051808303816000875af1158015612e12573d6000803e3d6000fd5b505050506040513d601f19601f82011682018060405250810190612e369190614600565b6001600160801b0381169160809190911c90565b6001600160801b031691506001600160801b031691508215612e6e57809950612e72565b8199505b5050505b600101612b99565b50505050505095945050505050565b80600003612e99575050565b6000826001600160a01b03168260405160006040518083038185875af1925050503d8060008114612ee6576040519150601f19603f3d011682016040523d82523d6000602084013e612eeb565b606091505b50509050806111095760405163047b96f760e41b81526001600160a01b038416600482015260248101839052604401610584565b60008060008060008087600081518110612f3b57612f3b6145ea565b602002602001015190508a955060005b8a51811015612e7e578a8181518110612f6657612f666145ea565b60200260200101519250898181518110612f8257612f826145ea565b60200260200101519450819550888160010181518110612fa457612fa46145ea565b602002602001015191508a518160010114612fdb578a8160010181518110612fce57612fce6145ea565b6020026020010151612fdd565b875b93506000856001811115612ff357612ff3614750565b036131ad57600080846001600160a01b0316630902f1ac6040518163ffffffff1660e01b8152600401606060405180830381865afa158015613039573d6000803e3d6000fd5b505050506040513d601f19601f8201168201806040525081019061305d919061477d565b506001600160701b031691506001600160701b03169150836001600160a01b0316886001600160a01b0316101561311c57613099898383613b7b565b60405163022c0d9f60e01b8152600060048201819052602482018390526001600160a01b038981166044840152608060648401526084830191909152919a509086169063022c0d9f9060a401600060405180830381600087803b1580156130ff57600080fd5b505af1158015613113573d6000803e3d6000fd5b505050506131a6565b613127898284613b7b565b60405163022c0d9f60e01b8152600481018290526000602482018190526001600160a01b038981166044840152608060648401526084830191909152919a509086169063022c0d9f9060a401600060405180830381600087803b15801561318d57600080fd5b505af11580156131a1573d6000803e3d6000fd5b505050505b5050613284565b6000836001600160a01b031663da10610c6040518163ffffffff1660e01b8152600401602060405180830381865afa1580156131ed573d6000803e3d6000fd5b505050506040513d601f19601f82011682018060405250810190613211919061462c565b60405163029e02cd60e51b81526001600160a01b039182168583161460048201819052878316602483015292506000918291613258918816906353c059a090604401612df3565b6001600160801b031691506001600160801b03169150821561327c57809950613280565b8199505b5050505b600101612f4b565b604080516001600160a01b038416602482015260448082018490528251808303909101815260649091019091526020810180517bffffffffffffffffffffffffffffffffffffffffffffffffffffffff1663a9059cbb60e01b1790526122818482613cb4565b60405163704037bd60e01b81526001600160a01b0385811660048301528481166024830152604482018490526000917f00000000000000000000000000000000000000000000000000000000000000009091169063704037bd90606401608060405180830381865afa15801561336c573d6000803e3d6000fd5b505050506040513d601f19601f8201168201806040525081019061339091906147d9565b6020015190506001600160a01b0381166133d757604051636b2471d160e11b81526001600160a01b0380871660048301528516602482015260448101849052606401610584565b949350505050565b6000806000886001600160a01b031663c9939f5e338689896040518563ffffffff1660e01b8152600401613416949392919061485e565b6000604051808303816000875af1158015613435573d6000803e3d6000fd5b505050506040513d6000823e601f3d908101601f1916820160405261345d919081019061489c565b905060005b81518110156134f157613494828281518110613480576134806145ea565b60200260200101516001600160801b031690565b6134a7906001600160801b0316856145d7565b93506134cc8282815181106134be576134be6145ea565b602002602001015160801c90565b6134df906001600160801b0316846145d7565b92506134ea81614922565b9050613462565b50878310806134ff57508682105b15613535576040516318ccfb7760e11b815260048101899052602481018490526044810188905260648101839052608401610584565b50965096945050505050565b8060000361354e57505050565b6111096001600160a01b038416838361328c565b600080600080606080876101c001358042111561359b5760405163dae7ca7d60e01b815260048101829052426024820152604401610584565b6135a96101408a018a61493b565b90506135b96101208b018b61493b565b90501415806135e657506135d16101608a018a61493b565b90506135e16101208b018b61493b565b905014155b156136045760405163b91b4d4d60e01b815260040160405180910390fd5b62ffffff60e08a01351180613620575062ffffff6101008a0135115b1561364f5760405163197a55c760e11b815260e08a013560048201526101008a01356024820152604401610584565b600061365f6101208b018b61493b565b905067ffffffffffffffff81111561367957613679613d98565b6040519080825280602002602001820160405280156136a2578160200160208202803683370190505b5090506136b36101208b018b61493b565b905067ffffffffffffffff8111156136cd576136cd613d98565b6040519080825280602002602001820160405280156136f6578160200160208202803683370190505b5093506000896001600160a01b031663dbe65edc6040518163ffffffff1660e01b8152600401602060405180830381865afa158015613739573d6000803e3d6000fd5b505050506040513d601f19601f8201168201806040525081019061375d9190614733565b62ffffff169050808b61010001358c60e0013501108061378757508a60e001358b61010001358201105b156137bd57604051637d50edab60e11b815260e08c013560048201526101008c0135602482015260448101829052606401610584565b60005b82518110156138c05760006137d96101208e018e61493b565b838181106137e9576137e96145ea565b90506020020135830190506000811280613805575062ffffff81115b15613826576040516370a82e6160e11b815260048101829052602401610584565b80878381518110613839576138396145ea565b602090810291909101015261389a6138556101408f018f61493b565b84818110613865576138656145ea565b905060200201358e80610160019061387d919061493b565b8581811061388d5761388d6145ea565b9050602002013583613d24565b8483815181106138ac576138ac6145ea565b6020908102919091010152506001016137c0565b50506000808a6001600160a01b031663383d15c58d6101800160208101906138e89190614649565b858f6101a00160208101906138fd9190614649565b6040518463ffffffff1660e01b815260040161391b93929190614985565b6000604051808303816000875af115801561393a573d6000803e3d6000fd5b505050506040513d6000823e601f3d908101601f1916820160405261396291908101906149e9565b9650909250905060006139758383613d5e565b6001600160801b0381169b50608081901c9a50905060a08d01358b108061399f57508c60c001358a105b156139db576040516318ccfb7760e11b815260a08e01356004820152602481018c905260c08e01356044820152606481018b9052608401610584565b6001600160801b0382169850608082901c6001600160801b0316975050505050509295509295509295565b600080826001811115613a1b57613a1b614750565b03613afa5760405163e6a4390560e01b81526001600160a01b03868116600483015285811660248301527f0000000000000000000000000000000000000000000000000000000000000000169063e6a4390590604401602060405180830381865afa158015613a8e573d6000803e3d6000fd5b505050506040513d601f19601f82011682018060405250810190613ab2919061462c565b90506001600160a01b038116613af557604051636b2471d160e11b81526001600160a01b0380871660048301528516602482015260448101849052606401610584565b6133d7565b611249858585856132f2565b604080516001600160a01b0385811660248301528416604482015260648082018490528251808303909101815260849091019091526020810180517bffffffffffffffffffffffffffffffffffffffffffffffffffffffff166323b872dd60e01b179052613b748582613cb4565b5050505050565b600083600003613b9e5760405163b229ed3360e01b815260040160405180910390fd5b821580613ba9575081155b15613bc7576040516398c59a2960e01b815260040160405180910390fd5b6000613bd5856103e5614a8f565b90506000613be38483614a8f565b9050600082613bf4876103e8614a8f565b613bfe91906145d7565b9050613c0a8183614aa6565b979650505050505050565b600083600003613c385760405163b229ed3360e01b815260040160405180910390fd5b821580613c43575081155b15613c61576040516398c59a2960e01b815260040160405180910390fd5b6000613c6d8585614a8f565b613c79906103e8614a8f565b90506000613c878685614619565b613c93906103e5614a8f565b9050613c9f8183614aa6565b613caa9060016145d7565b9695505050505050565b600080600052602060008351602085016000875af19050808015613cf5573d8015613ce85760016000511483169250613cef565b843b151592505b50613d05565b3d15613d05573d6000803e3d6000fd5b50806111095760405163197138bd60e11b815260040160405180910390fd5b601882901b6affffffffffffffff00000016605884901b72ffffffffffffffff0000000000000000000000161762ffffff821681176133d7565b80820382811180613d7a57506001600160801b03808416908216115b15611d475760405163e599af5560e01b815260040160405180910390fd5b634e487b7160e01b600052604160045260246000fd5b6040516060810167ffffffffffffffff81118282101715613dd157613dd1613d98565b60405290565b604051601f8201601f1916810167ffffffffffffffff81118282101715613e0057613e00613d98565b604052919050565b600067ffffffffffffffff821115613e2257613e22613d98565b5060051b60200190565b600082601f830112613e3d57600080fd5b81356020613e52613e4d83613e08565b613dd7565b82815260059290921b84018101918181019086841115613e7157600080fd5b8286015b84811015613e8c5780358352918301918301613e75565b509695505050505050565b6001600160a01b0381168114613eac57600080fd5b50565b8035613eba81613e97565b919050565b600082601f830112613ed057600080fd5b81356020613ee0613e4d83613e08565b82815260059290921b84018101918181019086841115613eff57600080fd5b8286015b84811015613e8c578035613f1681613e97565b8352918301918301613f03565b600060608284031215613f3557600080fd5b613f3d613dae565b9050813567ffffffffffffffff80821115613f5757600080fd5b613f6385838601613e2c565b8352602091508184013581811115613f7a57600080fd5b8401601f81018613613f8b57600080fd5b8035613f99613e4d82613e08565b81815260059190911b82018401908481019088831115613fb857600080fd5b928501925b82841015613fe457833560028110613fd55760008081fd5b82529285019290850190613fbd565b808688015250505050604084013591508082111561400157600080fd5b5061400e84828501613ebf565b60408301525092915050565b600080600080600060a0868803121561403257600080fd5b8535945060208601359350604086013567ffffffffffffffff81111561405757600080fd5b61406388828901613f23565b935050606086013561407481613e97565b949793965091946080013592915050565b6000806000806080858703121561409b57600080fd5b84359350602085013567ffffffffffffffff8111156140b957600080fd5b6140c587828801613f23565b93505060408501356140d681613e97565b9396929550929360600135925050565b600081518084526020808501945080840160005b83811015614116578151875295820195908201906001016140fa565b509495945050505050565b602081526000611d4460208301846140e6565b60008060006060848603121561414957600080fd5b833561415481613e97565b9250602084013561416481613e97565b929592945050506040919091013590565b62ffffff81168114613eac57600080fd5b61ffff81168114613eac57600080fd5b8035613eba81614186565b600080600080608085870312156141b757600080fd5b84356141c281613e97565b935060208501356141d281613e97565b925060408501356141e281614175565b915060608501356141f281614186565b939692955090935050565b600080600080600080600080610100898b03121561421a57600080fd5b883561422581613e97565b9750602089013561423581614186565b96506040890135955060608901359450608089013567ffffffffffffffff8082111561426057600080fd5b61426c8c838d01613e2c565b955060a08b013591508082111561428257600080fd5b5061428f8b828c01613e2c565b93505060c08901356142a081613e97565b8092505060e089013590509295985092959890939650565b6000602082840312156142ca57600080fd5b813567ffffffffffffffff8111156142e157600080fd5b82016101e081850312156142f457600080fd5b9392505050565b86815285602082015284604082015283606082015260c06080820152600061432660c08301856140e6565b82810360a084015261433881856140e6565b9998505050505050505050565b6001600160801b0381168114613eac57600080fd5b8015158114613eac57600080fd5b60008060006060848603121561437d57600080fd5b833561438881613e97565b9250602084013561439881614345565b915060408401356143a88161435a565b809150509250925092565b60008060008060008060008060006101208a8c0312156143d257600080fd5b89356143dd81613e97565b985060208a01356143ed81613e97565b97506143fb60408b01614196565b965060608a0135955060808a0135945060a08a013567ffffffffffffffff8082111561442657600080fd5b6144328d838e01613e2c565b955060c08c013591508082111561444857600080fd5b506144558c828d01613e2c565b93505061446460e08b01613eaf565b91506101008a013590509295985092959850929598565b6000806040838503121561448e57600080fd5b823561449981613e97565b915060208301356144a981614175565b809150509250929050565b60008083601f8401126144c657600080fd5b50813567ffffffffffffffff8111156144de57600080fd5b6020830191508360208260051b85010111156144f957600080fd5b9250929050565b6000806000806000806080878903121561451957600080fd5b863561452481613e97565b9550602087013561453481613e97565b9450604087013567ffffffffffffffff8082111561455157600080fd5b61455d8a838b016144b4565b9096509450606089013591508082111561457657600080fd5b5061458389828a016144b4565b979a9699509497509295939492505050565b600080604083850312156145a857600080fd5b82356145b381613e97565b946020939093013593505050565b634e487b7160e01b600052601160045260246000fd5b80820180821115611d4757611d476145c1565b634e487b7160e01b600052603260045260246000fd5b60006020828403121561461257600080fd5b5051919050565b81810381811115611d4757611d476145c1565b60006020828403121561463e57600080fd5b81516142f481613e97565b60006020828403121561465b57600080fd5b81356142f481613e97565b60008060006060848603121561467b57600080fd5b835161468681614345565b602085015190935061469781614345565b60408501519092506143a881614345565b81835260007f07ffffffffffffffffffffffffffffffffffffffffffffffffffffffffffffff8311156146da57600080fd5b8260051b80836020870137939093016020019392505050565b60006001600160a01b038089168352808816602084015250608060408301526147206080830186886146a8565b82810360608401526143388185876146a8565b60006020828403121561474557600080fd5b81516142f481614175565b634e487b7160e01b600052602160045260246000fd5b80516001600160701b0381168114613eba57600080fd5b60008060006060848603121561479257600080fd5b61479b84614766565b92506147a960208501614766565b9150604084015163ffffffff811681146143a857600080fd5b6000816147d1576147d16145c1565b506000190190565b6000608082840312156147eb57600080fd5b6040516080810181811067ffffffffffffffff8211171561480e5761480e613d98565b604052825161481c81614186565b8152602083015161482c81613e97565b6020820152604083015161483f8161435a565b604082015260608301516148528161435a565b60608201529392505050565b60006001600160a01b0380871683528086166020840152506080604083015261488a60808301856140e6565b8281036060840152613c0a81856140e6565b600060208083850312156148af57600080fd5b825167ffffffffffffffff8111156148c657600080fd5b8301601f810185136148d757600080fd5b80516148e5613e4d82613e08565b81815260059190911b8201830190838101908783111561490457600080fd5b928401925b82841015613c0a57835182529284019290840190614909565b600060018201614934576149346145c1565b5060010190565b6000808335601e1984360301811261495257600080fd5b83018035915067ffffffffffffffff82111561496d57600080fd5b6020019150600581901b36038213156144f957600080fd5b6000606082016001600160a01b0380871684526020606081860152828751808552608087019150828901945060005b818110156149d0578551835294830194918301916001016149b4565b5050809450505080851660408501525050949350505050565b6000806000606084860312156149fe57600080fd5b835192506020808501519250604085015167ffffffffffffffff811115614a2457600080fd5b8501601f81018713614a3557600080fd5b8051614a43613e4d82613e08565b81815260059190911b82018301908381019089831115614a6257600080fd5b928401925b82841015614a8057835182529284019290840190614a67565b80955050505050509250925092565b8082028115828204841417611d4757611d476145c1565b600082614ac357634e487b7160e01b600052601260045260246000fd5b50049056fea2646970667358221220a75566c1a48ecb1a59038963081bd2fb270830ebc578f6dde060037597b3b38d64736f6c63430008140033",
    "linkReferences": {}
  },
  "methodIdentifiers": {
    "addLiquidity((address,address,uint256,uint256,uint256,uint256,uint256,uint256,uint256,int256[],uint256[],uint256[],address,address,uint256))": "a3c7271a",
    "addLiquidityNATIVE((address,address,uint256,uint256,uint256,uint256,uint256,uint256,uint256,int256[],uint256[],uint256[],address,address,uint256))": "8efc2b2c",
    "createLBPair(address,address,uint24,uint16)": "659ac74b",
    "getFactory()": "88cc58e4",
    "getIdFromPrice(address,uint256)": "f96fe925",
    "getPriceFromId(address,uint24)": "d0e380f2",
    "getSwapIn(address,uint128,bool)": "964f987c",
    "getSwapOut(address,uint128,bool)": "a0d376cf",
    "getV1Factory()": "bb558a9f",
    "getWNATIVE()": "6c9c0078",
    "removeLiquidity(address,address,uint16,uint256,uint256,uint256[],uint256[],address,uint256)": "c22159b6",
    "removeLiquidityNATIVE(address,uint16,uint256,uint256,uint256[],uint256[],address,uint256)": "81c2fdfb",
    "swapExactNATIVEForTokens(uint256,(uint256[],uint8[],address[]),address,uint256)": "b066ea7c",
    "swapExactNATIVEForTokensSupportingFeeOnTransferTokens(uint256,(uint256[],uint8[],address[]),address,uint256)": "e038e6dc",
    "swapExactTokensForNATIVE(uint256,uint256,(uint256[],uint8[],address[]),address,uint256)": "9ab6156b",
    "swapExactTokensForNATIVESupportingFeeOnTransferTokens(uint256,uint256,(uint256[],uint8[],address[]),address,uint256)": "1a24f9a9",
    "swapExactTokensForTokens(uint256,uint256,(uint256[],uint8[],address[]),address,uint256)": "2a443fae",
    "swapExactTokensForTokensSupportingFeeOnTransferTokens(uint256,uint256,(uint256[],uint8[],address[]),address,uint256)": "4b801870",
    "swapNATIVEForExactTokens(uint256,(uint256[],uint8[],address[]),address,uint256)": "2075ad22",
    "swapTokensForExactNATIVE(uint256,uint256,(uint256[],uint8[],address[]),address,uint256)": "3dc8f8ec",
    "swapTokensForExactTokens(uint256,uint256,(uint256[],uint8[],address[]),address,uint256)": "92fe8e70",
    "sweep(address,address,uint256)": "62c06767",
    "sweepLBToken(address,address,uint256[],uint256[])": "e9361c08"
  },
  "id": 49
}