{"abi":[{"type":"constructor","inputs":[],"stateMutability":"nonpayable"},{"type":"function","name":"DEFAULT_ADMIN_ROLE","inputs":[],"outputs":[{"name":"","type":"bytes32","internalType":"bytes32"}],"stateMutability":"view"},{"type":"function","name":"LB_HOOKS_MANAGER_ROLE","inputs":[],"outputs":[{"name":"","type":"bytes32","internalType":"bytes32"}],"stateMutability":"view"},{"type":"function","name":"acceptOwnership","inputs":[],"outputs":[],"stateMutability":"nonpayable"},{"type":"function","name":"addQuoteAsset","inputs":[{"name":"quoteAsset","type":"address","internalType":"contract IERC20"}],"outputs":[],"stateMutability":"nonpayable"},{"type":"function","name":"createLBPair","inputs":[{"name":"tokenX","type":"address","internalType":"contract IERC20"},{"name":"tokenY","type":"address","internalType":"contract IERC20"},{"name":"activeId","type":"uint24","internalType":"uint24"},{"name":"binStep","type":"uint16","internalType":"uint16"}],"outputs":[{"name":"pair","type":"address","internalType":"contract ILBPair"}],"stateMutability":"nonpayable"},{"type":"function","name":"forceDecay","inputs":[{"name":"pair","type":"address","internalType":"contract ILBPair"}],"outputs":[],"stateMutability":"nonpayable"},{"type":"function","name":"getAdmin","inputs":[],"outputs":[{"name":"","type":"address","internalType":"address"}],"stateMutability":"view"},{"type":"function","name":"getAllBinSteps","inputs":[],"outputs":[{"name":"binStepWithPreset","type":"uint256[]","internalType":"uint256[]"}],"stateMutability":"view"},{"type":"function","name":"getAllLBPairs","inputs":[{"name":"tokenX","type":"address","internalType":"contract IERC20"},{"name":"tokenY","type":"address","internalType":"contract IERC20"}],"outputs":[{"name":"lbPairsAvailable","type":"tuple[]","internalType":"struct ILBFactory.LBPairInformation[]","components":[{"name":"binStep","type":"uint16","internalType":"uint16"},{"name":"LBPair","type":"address","internalType":"contract ILBPair"},{"name":"createdByOwner","type":"bool","internalType":"bool"},{"name":"ignoredForRouting","type":"bool","internalType":"bool"}]}],"stateMutability":"view"},{"type":"function","name":"getFeeRecipient","inputs":[],"outputs":[{"name":"feeRecipient","type":"address","internalType":"address"}],"stateMutability":"view"},{"type":"function","name":"getFlashLoanFee","inputs":[],"outputs":[{"name":"flashLoanFee","type":"uint256","internalType":"uint256"}],"stateMutability":"view"},{"type":"function","name":"getLBPairAtIndex","inputs":[{"name":"index","type":"uint256","internalType":"uint256"}],"outputs":[{"name":"lbPair","type":"address","internalType":"contract ILBPair"}],"stateMutability":"view"},{"type":"function","name":"getLBPairImplementation","inputs":[],"outputs":[{"name":"lbPairImplementation","type":"address","internalType":"address"}],"stateMutability":"view"},{"type":"function","name":"getLBPairInformation","inputs":[{"name":"tokenA","type":"address","internalType":"contract IERC20"},{"name":"tokenB","type":"address","internalType":"contract IERC20"},{"name":"binStep","type":"uint256","internalType":"uint256"}],"outputs":[{"name":"lbPairInformation","type":"tuple","internalType":"struct ILBFactory.LBPairInformation","components":[{"name":"binStep","type":"uint16","internalType":"uint16"},{"name":"LBPair","type":"address","internalType":"contract ILBPair"},{"name":"createdByOwner","type":"bool","internalType":"bool"},{"name":"ignoredForRouting","type":"bool","internalType":"bool"}]}],"stateMutability":"view"},{"type":"function","name":"getMaxFlashLoanFee","inputs":[],"outputs":[{"name":"maxFee","type":"uint256","internalType":"uint256"}],"stateMutability":"pure"},{"type":"function","name":"getMinBinStep","inputs":[],"outputs":[{"name":"minBinStep","type":"uint256","internalType":"uint256"}],"stateMutability":"pure"},{"type":"function","name":"getNumberOfLBPairs","inputs":[],"outputs":[{"name":"lbPairNumber","type":"uint256","internalType":"uint256"}],"stateMutability":"view"},{"type":"function","name":"getNumberOfQuoteAssets","inputs":[],"outputs":[{"name":"numberOfQuoteAssets","type":"uint256","internalType":"uint256"}],"stateMutability":"view"},{"type":"function","name":"getOpenBinSteps","inputs":[],"outputs":[{"name":"openBinStep","type":"uint256[]","internalType":"uint256[]"}],"stateMutability":"view"},{"type":"function","name":"getPreset","inputs":[{"name":"binStep","type":"uint256","internalType":"uint256"}],"outputs":[{"name":"baseFactor","type":"uint256","internalType":"uint256"},{"name":"filterPeriod","type":"uint256","internalType":"uint256"},{"name":"decayPeriod","type":"uint256","internalType":"uint256"},{"name":"reductionFactor","type":"uint256","internalType":"uint256"},{"name":"variableFeeControl","type":"uint256","internalType":"uint256"},{"name":"protocolShare","type":"uint256","internalType":"uint256"},{"name":"maxVolatilityAccumulator","type":"uint256","internalType":"uint256"},{"name":"isOpen","type":"bool","internalType":"bool"}],"stateMutability":"view"},{"type":"function","name":"getQuoteAssetAtIndex","inputs":[{"name":"index","type":"uint256","internalType":"uint256"}],"outputs":[{"name":"asset","type":"address","internalType":"contract IERC20"}],"stateMutability":"view"},{"type":"function","name":"getRoleAdmin","inputs":[{"name":"role","type":"bytes32","internalType":"bytes32"}],"outputs":[{"name":"","type":"bytes32","internalType":"bytes32"}],"stateMutability":"view"},{"type":"function","name":"grantRole","inputs":[{"name":"role","type":"bytes32","internalType":"bytes32"},{"name":"account","type":"address","internalType":"address"}],"outputs":[],"stateMutability":"nonpayable"},{"type":"function","name":"hasRole","inputs":[{"name":"role","type":"bytes32","internalType":"bytes32"},{"name":"account","type":"address","internalType":"address"}],"outputs":[{"name":"","type":"bool","internalType":"bool"}],"stateMutability":"view"},{"type":"function","name":"initialize","inputs":[{"name":"feeRecipient","type":"address","internalType":"address"},{"name":"initialOwner","type":"address","internalType":"address"},{"name":"flashLoanFee","type":"uint256","internalType":"uint256"},{"name":"lbPairBeaconAddress","type":"address","internalType":"address"}],"outputs":[],"stateMutability":"nonpayable"},{"type":"function","name":"isQuoteAsset","inputs":[{"name":"token","type":"address","internalType":"contract IERC20"}],"outputs":[{"name":"isQuote","type":"bool","internalType":"bool"}],"stateMutability":"view"},{"type":"function","name":"owner","inputs":[],"outputs":[{"name":"","type":"address","internalType":"address"}],"stateMutability":"view"},{"type":"function","name":"pendingOwner","inputs":[],"outputs":[{"name":"","type":"address","internalType":"address"}],"stateMutability":"view"},{"type":"function","name":"removeLBHooksOnPair","inputs":[{"name":"tokenX","type":"address","internalType":"contract IERC20"},{"name":"tokenY","type":"address","internalType":"contract IERC20"},{"name":"binStep","type":"uint16","internalType":"uint16"}],"outputs":[],"stateMutability":"nonpayable"},{"type":"function","name":"removePreset","inputs":[{"name":"binStep","type":"uint16","internalType":"uint16"}],"outputs":[],"stateMutability":"nonpayable"},{"type":"function","name":"removeQuoteAsset","inputs":[{"name":"quoteAsset","type":"address","internalType":"contract IERC20"}],"outputs":[],"stateMutability":"nonpayable"},{"type":"function","name":"renounceOwnership","inputs":[],"outputs":[],"stateMutability":"nonpayable"},{"type":"function","name":"renounceRole","inputs":[{"name":"role","type":"bytes32","internalType":"bytes32"},{"name":"callerConfirmation","type":"address","internalType":"address"}],"outputs":[],"stateMutability":"nonpayable"},{"type":"function","name":"revokeRole","inputs":[{"name":"role","type":"bytes32","internalType":"bytes32"},{"name":"account","type":"address","internalType":"address"}],"outputs":[],"stateMutability":"nonpayable"},{"type":"function","name":"setAdmin","inputs":[{"name":"newAdminAddr","type":"address","internalType":"address"}],"outputs":[],"stateMutability":"nonpayable"},{"type":"function","name":"setFeeRecipient","inputs":[{"name":"feeRecipient","type":"address","internalType":"address"}],"outputs":[],"stateMutability":"nonpayable"},{"type":"function","name":"setFeesParametersOnPair","inputs":[{"name":"tokenX","type":"address","internalType":"contract IERC20"},{"name":"tokenY","type":"address","internalType":"contract IERC20"},{"name":"binStep","type":"uint16","internalType":"uint16"},{"name":"baseFactor","type":"uint16","internalType":"uint16"},{"name":"filterPeriod","type":"uint16","internalType":"uint16"},{"name":"decayPeriod","type":"uint16","internalType":"uint16"},{"name":"reductionFactor","type":"uint16","internalType":"uint16"},{"name":"variableFeeControl","type":"uint24","internalType":"uint24"},{"name":"protocolShare","type":"uint16","internalType":"uint16"},{"name":"maxVolatilityAccumulator","type":"uint24","internalType":"uint24"}],"outputs":[],"stateMutability":"nonpayable"},{"type":"function","name":"setFlashLoanFee","inputs":[{"name":"flashLoanFee","type":"uint256","internalType":"uint256"}],"outputs":[],"stateMutability":"nonpayable"},{"type":"function","name":"setLBHooksParametersOnPair","inputs":[{"name":"tokenX","type":"address","internalType":"contract IERC20"},{"name":"tokenY","type":"address","internalType":"contract IERC20"},{"name":"binStep","type":"uint16","internalType":"uint16"},{"name":"hooksParameters","type":"bytes32","internalType":"bytes32"},{"name":"onHooksSetData","type":"bytes","internalType":"bytes"}],"outputs":[],"stateMutability":"nonpayable"},{"type":"function","name":"setLBPairIgnored","inputs":[{"name":"tokenX","type":"address","internalType":"contract IERC20"},{"name":"tokenY","type":"address","internalType":"contract IERC20"},{"name":"binStep","type":"uint16","internalType":"uint16"},{"name":"ignored","type":"bool","internalType":"bool"}],"outputs":[],"stateMutability":"nonpayable"},{"type":"function","name":"setLBPairImplementation","inputs":[{"name":"newLBPairImplementation","type":"address","internalType":"address"}],"outputs":[],"stateMutability":"nonpayable"},{"type":"function","name":"setPreset","inputs":[{"name":"binStep","type":"uint16","internalType":"uint16"},{"name":"baseFactor","type":"uint16","internalType":"uint16"},{"name":"filterPeriod","type":"uint16","internalType":"uint16"},{"name":"decayPeriod","type":"uint16","internalType":"uint16"},{"name":"reductionFactor","type":"uint16","internalType":"uint16"},{"name":"variableFeeControl","type":"uint24","internalType":"uint24"},{"name":"protocolShare","type":"uint16","internalType":"uint16"},{"name":"maxVolatilityAccumulator","type":"uint24","internalType":"uint24"},{"name":"isOpen","type":"bool","internalType":"bool"}],"outputs":[],"stateMutability":"nonpayable"},{"type":"function","name":"setPresetOpenState","inputs":[{"name":"binStep","type":"uint16","internalType":"uint16"},{"name":"isOpen","type":"bool","internalType":"bool"}],"outputs":[],"stateMutability":"nonpayable"},{"type":"function","name":"supportsInterface","inputs":[{"name":"interfaceId","type":"bytes4","internalType":"bytes4"}],"outputs":[{"name":"","type":"bool","internalType":"bool"}],"stateMutability":"view"},{"type":"function","name":"transferOwnership","inputs":[{"name":"newOwner","type":"address","internalType":"address"}],"outputs":[],"stateMutability":"nonpayable"},{"type":"event","name":"AdminSet","inputs":[{"name":"sender","type":"address","indexed":true,"internalType":"address"},{"name":"oldAdmin","type":"address","indexed":true,"internalType":"address"},{"name":"newAdmin","type":"address","indexed":true,"internalType":"address"}],"anonymous":false},{"type":"event","name":"FeeRecipientSet","inputs":[{"name":"oldRecipient","type":"address","indexed":false,"internalType":"address"},{"name":"newRecipient","type":"address","indexed":false,"internalType":"address"}],"anonymous":false},{"type":"event","name":"FlashLoanFeeSet","inputs":[{"name":"oldFlashLoanFee","type":"uint256","indexed":false,"internalType":"uint256"},{"name":"newFlashLoanFee","type":"uint256","indexed":false,"internalType":"uint256"}],"anonymous":false},{"type":"event","name":"Initialized","inputs":[{"name":"version","type":"uint64","indexed":false,"internalType":"uint64"}],"anonymous":false},{"type":"event","name":"LBPairCreated","inputs":[{"name":"tokenX","type":"address","indexed":true,"internalType":"contract IERC20"},{"name":"tokenY","type":"address","indexed":true,"internalType":"contract IERC20"},{"name":"binStep","type":"uint256","indexed":true,"internalType":"uint256"},{"name":"LBPair","type":"address","indexed":false,"internalType":"contract ILBPair"},{"name":"pid","type":"uint256","indexed":false,"internalType":"uint256"}],"anonymous":false},{"type":"event","name":"LBPairIgnoredStateChanged","inputs":[{"name":"LBPair","type":"address","indexed":true,"internalType":"contract ILBPair"},{"name":"ignored","type":"bool","indexed":false,"internalType":"bool"}],"anonymous":false},{"type":"event","name":"LBPairImplementationSet","inputs":[{"name":"oldLBPairImplementation","type":"address","indexed":false,"internalType":"address"},{"name":"LBPairImplementation","type":"address","indexed":false,"internalType":"address"}],"anonymous":false},{"type":"event","name":"OwnershipTransferStarted","inputs":[{"name":"previousOwner","type":"address","indexed":true,"internalType":"address"},{"name":"newOwner","type":"address","indexed":true,"internalType":"address"}],"anonymous":false},{"type":"event","name":"OwnershipTransferred","inputs":[{"name":"previousOwner","type":"address","indexed":true,"internalType":"address"},{"name":"newOwner","type":"address","indexed":true,"internalType":"address"}],"anonymous":false},{"type":"event","name":"PresetOpenStateChanged","inputs":[{"name":"binStep","type":"uint256","indexed":true,"internalType":"uint256"},{"name":"isOpen","type":"bool","indexed":true,"internalType":"bool"}],"anonymous":false},{"type":"event","name":"PresetRemoved","inputs":[{"name":"binStep","type":"uint256","indexed":true,"internalType":"uint256"}],"anonymous":false},{"type":"event","name":"PresetSet","inputs":[{"name":"binStep","type":"uint256","indexed":true,"internalType":"uint256"},{"name":"baseFactor","type":"uint256","indexed":false,"internalType":"uint256"},{"name":"filterPeriod","type":"uint256","indexed":false,"internalType":"uint256"},{"name":"decayPeriod","type":"uint256","indexed":false,"internalType":"uint256"},{"name":"reductionFactor","type":"uint256","indexed":false,"internalType":"uint256"},{"name":"variableFeeControl","type":"uint256","indexed":false,"internalType":"uint256"},{"name":"protocolShare","type":"uint256","indexed":false,"internalType":"uint256"},{"name":"maxVolatilityAccumulator","type":"uint256","indexed":false,"internalType":"uint256"}],"anonymous":false},{"type":"event","name":"QuoteAssetAdded","inputs":[{"name":"quoteAsset","type":"address","indexed":true,"internalType":"contract IERC20"}],"anonymous":false},{"type":"event","name":"QuoteAssetRemoved","inputs":[{"name":"quoteAsset","type":"address","indexed":true,"internalType":"contract IERC20"}],"anonymous":false},{"type":"event","name":"RoleAdminChanged","inputs":[{"name":"role","type":"bytes32","indexed":true,"internalType":"bytes32"},{"name":"previousAdminRole","type":"bytes32","indexed":true,"internalType":"bytes32"},{"name":"newAdminRole","type":"bytes32","indexed":true,"internalType":"bytes32"}],"anonymous":false},{"type":"event","name":"RoleGranted","inputs":[{"name":"role","type":"bytes32","indexed":true,"internalType":"bytes32"},{"name":"account","type":"address","indexed":true,"internalType":"address"},{"name":"sender","type":"address","indexed":true,"internalType":"address"}],"anonymous":false},{"type":"event","name":"RoleRevoked","inputs":[{"name":"role","type":"bytes32","indexed":true,"internalType":"bytes32"},{"name":"account","type":"address","indexed":true,"internalType":"address"},{"name":"sender","type":"address","indexed":true,"internalType":"address"}],"anonymous":false},{"type":"error","name":"AccessControlBadConfirmation","inputs":[]},{"type":"error","name":"AccessControlUnauthorizedAccount","inputs":[{"name":"account","type":"address","internalType":"address"},{"name":"neededRole","type":"bytes32","internalType":"bytes32"}]},{"type":"error","name":"EnumerableMapNonexistentKey","inputs":[{"name":"key","type":"bytes32","internalType":"bytes32"}]},{"type":"error","name":"InvalidInitialization","inputs":[]},{"type":"error","name":"LBFactory__AddressZero","inputs":[]},{"type":"error","name":"LBFactory__AdminExists","inputs":[{"name":"admin","type":"address","internalType":"address"}]},{"type":"error","name":"LBFactory__AdminNotExists","inputs":[{"name":"admin","type":"address","internalType":"address"}]},{"type":"error","name":"LBFactory__BinStepHasNoPreset","inputs":[{"name":"binStep","type":"uint256","internalType":"uint256"}]},{"type":"error","name":"LBFactory__BinStepTooLow","inputs":[{"name":"binStep","type":"uint256","internalType":"uint256"}]},{"type":"error","name":"LBFactory__CannotGrantDefaultAdminRole","inputs":[]},{"type":"error","name":"LBFactory__FlashLoanFeeAboveMax","inputs":[{"name":"fees","type":"uint256","internalType":"uint256"},{"name":"maxFees","type":"uint256","internalType":"uint256"}]},{"type":"error","name":"LBFactory__IdenticalAddresses","inputs":[{"name":"token","type":"address","internalType":"contract IERC20"}]},{"type":"error","name":"LBFactory__ImplementationNotSet","inputs":[]},{"type":"error","name":"LBFactory__InvalidHooksParameters","inputs":[]},{"type":"error","name":"LBFactory__LBPairAlreadyExists","inputs":[{"name":"tokenX","type":"address","internalType":"contract IERC20"},{"name":"tokenY","type":"address","internalType":"contract IERC20"},{"name":"_binStep","type":"uint256","internalType":"uint256"}]},{"type":"error","name":"LBFactory__LBPairDoesNotExist","inputs":[{"name":"tokenX","type":"address","internalType":"contract IERC20"},{"name":"tokenY","type":"address","internalType":"contract IERC20"},{"name":"binStep","type":"uint256","internalType":"uint256"}]},{"type":"error","name":"LBFactory__LBPairIgnoredIsAlreadyInTheSameState","inputs":[]},{"type":"error","name":"LBFactory__LBPairNotCreated","inputs":[{"name":"tokenX","type":"address","internalType":"contract IERC20"},{"name":"tokenY","type":"address","internalType":"contract IERC20"},{"name":"binStep","type":"uint256","internalType":"uint256"}]},{"type":"error","name":"LBFactory__LBPairSafetyCheckFailed","inputs":[{"name":"LBPairImplementation","type":"address","internalType":"address"}]},{"type":"error","name":"LBFactory__PresetIsLockedForUsers","inputs":[{"name":"user","type":"address","internalType":"address"},{"name":"binStep","type":"uint256","internalType":"uint256"}]},{"type":"error","name":"LBFactory__PresetOpenStateIsAlreadyInTheSameState","inputs":[]},{"type":"error","name":"LBFactory__QuoteAssetAlreadyWhitelisted","inputs":[{"name":"quoteAsset","type":"address","internalType":"contract IERC20"}]},{"type":"error","name":"LBFactory__QuoteAssetNotWhitelisted","inputs":[{"name":"quoteAsset","type":"address","internalType":"contract IERC20"}]},{"type":"error","name":"LBFactory__SameFeeRecipient","inputs":[{"name":"feeRecipient","type":"address","internalType":"address"}]},{"type":"error","name":"LBFactory__SameFlashLoanFee","inputs":[{"name":"flashLoanFee","type":"uint256","internalType":"uint256"}]},{"type":"error","name":"LBFactory__SameHooksImplementation","inputs":[{"name":"hooksImplementation","type":"address","internalType":"address"}]},{"type":"error","name":"LBFactory__SameHooksParameters","inputs":[{"name":"hooksParameters","type":"bytes32","internalType":"bytes32"}]},{"type":"error","name":"LBFactory__SameImplementation","inputs":[{"name":"LBPairImplementation","type":"address","internalType":"address"}]},{"type":"error","name":"NotInitializing","inputs":[]},{"type":"error","name":"OwnableInvalidOwner","inputs":[{"name":"owner","type":"address","internalType":"address"}]},{"type":"error","name":"OwnableUnauthorizedAccount","inputs":[{"name":"account","type":"address","internalType":"address"}]},{"type":"error","name":"PairParametersHelper__InvalidParameter","inputs":[]},{"type":"error","name":"SafeCast__Exceeds16Bits","inputs":[]},{"type":"error","name":"Uint128x128Math__PowUnderflow","inputs":[{"name":"x","type":"uint256","internalType":"uint256"},{"name":"y","type":"int256","internalType":"int256"}]}],"bytecode":{"object":"0x60806040523480156200001157600080fd5b506200001c62000022565b620000d6565b7ff0c57e16840df040f15088dc2f81fe391c3923bec73e23a9662efc9c229c6a00805468010000000000000000900460ff1615620000735760405163f92ee8a960e01b815260040160405180910390fd5b80546001600160401b0390811614620000d35780546001600160401b0319166001600160401b0390811782556040519081527fc7f505b2f371ae2175ee4913f4499e1f2633a7b5936321eed1cdaeb6115181d29060200160405180910390a15b50565b61452180620000e66000396000f3fe60806040523480156200001157600080fd5b50600436106200033d5760003560e01c8063701ab8c111620001bd578063aabc4b3c1162000101578063e203a31f11620000a3578063e92d0d5d116200007a578063e92d0d5d1462000754578063f2fde38b146200076b578063fd90c2be146200078257600080fd5b8063e203a31f146200071c578063e30c39781462000733578063e74b981b146200073d57600080fd5b8063be20309411620000d8578063be20309414620006d7578063d547741f14620006ee578063ddbfd941146200070557600080fd5b8063aabc4b3c1462000659578063af37106514620006ae578063b038478114620006c057600080fd5b80637daf5d66116200016b5780638da5cb5b11620001425780638da5cb5b146200062f57806391d148541462000639578063a217fddf146200065057600080fd5b80637daf5d6614620005ff57806380c5061e14620006165780638ce9aa1c146200062057600080fd5b8063704b6c0211620001a0578063704b6c0214620005d4578063715018a614620005eb57806379ba509714620005f557600080fd5b8063701ab8c114620005a6578063704037bd14620005ae57600080fd5b80633a2f1a9111620002855780635a44092311620002335780636622e0d7116200020a5780636622e0d7146200055757806369d56ea3146200057d5780636e9960c3146200059457600080fd5b80635a440923146200051f5780635b35875c1462000536578063659ac74b146200054057600080fd5b80634ccb20c011620002685780634ccb20c014620004ed5780634cd161d314620004ff5780634e937c3a146200051657600080fd5b80633a2f1a9114620004bf5780633c78a94114620004d657600080fd5b8063248a9ca311620002ef5780632f2ff15d11620002c65780632f2ff15d146200047a57806336568abe1462000491578063379ee80314620004a857600080fd5b8063248a9ca3146200040757806327721842146200044c5780632cc06b8c146200046357600080fd5b80630752092b11620003245780630752092b1462000387578063093ff76914620003b75780631af5bacc14620003d057600080fd5b806301ffc9a714620003425780630282c9c1146200036e575b600080fd5b620003596200035336600462002e88565b6200078b565b60405190151581526020015b60405180910390f35b62000378620007c3565b60405162000365919062002eb4565b6200039e6200039836600462002efa565b620008b3565b6040516001600160a01b03909116815260200162000365565b620003ce620003c836600462002f51565b620008c2565b005b620003f87fdcf4465aa60d92459eb361fac2489220ae3c524301cc0433c30a5d83e8fb0fa981565b60405190815260200162000365565b620003f86200041836600462002efa565b60009081527f02dd7bc7dec4dceedda775e58dd541e08a116c6c53815c0bd028192f7b626800602052604090206001015490565b620003596200045d36600462003024565b620009cf565b620003ce6200047436600462003044565b620009de565b620003ce6200048b36600462003092565b62000a31565b620003ce620004a236600462003092565b62000a79565b620003ce620004b9366004620030d6565b62000ab4565b620003ce620004d036600462003191565b62000bdb565b620003ce620004e736600462003024565b62000c93565b6000546001600160a01b03166200039e565b620003ce620005103660046200324d565b62000cf5565b600354620003f8565b620003ce6200053036600462003024565b62000dcd565b6200037862000e45565b6200039e6200055136600462003285565b62000e58565b6200056e62000568366004620032e6565b620013e7565b60405162000365919062003319565b620003ce6200058e36600462003390565b62001592565b600b546001600160a01b03166200039e565b6001620003f8565b620005c5620005bf366004620033e6565b6200173f565b6040516200036591906200342c565b620003ce620005e536600462003024565b62001778565b620003ce620017e0565b620003ce620017f8565b6200039e6200061036600462002efa565b62001846565b620003f862001879565b67016345785d8a0000620003f8565b6200039e62001887565b620003596200064a36600462003092565b620018bc565b620003f8600081565b620006706200066a36600462002efa565b62001937565b604080519889526020890197909752958701949094526060860192909252608085015260a084015260c0830152151560e08201526101000162000365565b6002546001600160a01b03166200039e565b620003ce620006d136600462003024565b62001a0c565b620003ce620006e836600462003469565b62001b56565b620003ce620006ff36600462003092565b62001d26565b620003ce6200071636600462003024565b62001d6e565b620003ce6200072d366004620034c3565b62001de6565b6200039e62001e58565b620003ce6200074e36600462003024565b62001e82565b620003ce6200076536600462002efa565b62001e97565b620003ce6200077c36600462003024565b62001f41565b600154620003f8565b60006001600160e01b03198216637965db0b60e01b1480620007bd57506301ffc9a760e01b6001600160e01b03198316145b92915050565b60606000620007d3600562001fca565b90508015620008af578067ffffffffffffffff811115620007f857620007f8620034e1565b60405190808252806020026020018201604052801562000822578160200160208202803683370190505b5091506000805b828110156200089f576000806200084260058462001fd7565b9092509050620008528162001ff5565b156200088957818685815181106200086e576200086e620034f7565b602090810291909101015283620008858162003523565b9450505b505080620008979062003523565b905062000829565b5081811015620008ad578083525b505b5090565b6000620007bd60088362002002565b620008cc62002010565b6000620008df8b8b8b61ffff1662002046565b6020015190506001600160a01b0381166200092f5760405163b65ee95360e01b81526001600160a01b03808d1660048301528b16602482015261ffff8a1660448201526064015b60405180910390fd5b604051633329c28d60e11b815261ffff808a16600483015280891660248301528088166044830152808716606483015262ffffff808716608484015290851660a4830152831660c48201526001600160a01b03821690636653851a9060e401600060405180830381600087803b158015620009a957600080fd5b505af1158015620009be573d6000803e3d6000fd5b505050505050505050505050505050565b6000620007bd600883620020f2565b7fdcf4465aa60d92459eb361fac2489220ae3c524301cc0433c30a5d83e8fb0fa962000a0a8162002115565b6040805160008082526020820190925262000a2b9186918691869162002121565b50505050565b60008281527f02dd7bc7dec4dceedda775e58dd541e08a116c6c53815c0bd028192f7b626800602052604090206001015462000a6d8162002115565b62000a2b838362002275565b6001600160a01b038116331462000aa35760405163334bd91960e11b815260040160405180910390fd5b62000aaf8282620022a2565b505050565b62000abe62002010565b60018961ffff16101562000aec57604051634f958e7160e01b815261ffff8a16600482015260240162000926565b600062000b00818a8a8a8a8a8a8a6200233f565b9050811562000b1b5762000b1881600160ff62002444565b90505b62000b2d600561ffff8c16836200246e565b506040805161ffff8b811682528a8116602083015289811682840152888116606083015262ffffff888116608084015287821660a0840152861660c08301529151918c16917f839844a256a87f87c9c835117d9a1c40be013954064c937072acb32d36db6a289181900360e00190a26040518215159061ffff8c16907f58a8b6a02b964cca2712e5a71d7b0d564a56b4a0f573b4c47f389341ade14cfd90600090a350505050505050505050565b7fdcf4465aa60d92459eb361fac2489220ae3c524301cc0433c30a5d83e8fb0fa962000c078162002115565b6001600160a01b038416158062000c265750836001600160a01b031916155b1562000c455760405163d43a15d160e01b815260040160405180910390fd5b62000c8a8787878787878080601f0160208091040260200160405190810160405280939291908181526020018383808284376000920191909152506200212192505050565b50505050505050565b62000c9d62002010565b806001600160a01b031663d3b9fbe46040518163ffffffff1660e01b8152600401600060405180830381600087803b15801562000cd957600080fd5b505af115801562000cee573d6000803e3d6000fd5b5050505050565b62000cff62002010565b62000d10600561ffff84166200247d565b62000d3557604051637d9160bf60e11b815261ffff8316600482015260240162000926565b600062000d48600561ffff85166200248b565b905081151560ff82901c15150362000d73576040516311be38db60e11b815260040160405180910390fd5b62000d9461ffff841662000d8a838560ff62002444565b600591906200246e565b506040518215159061ffff8516907f58a8b6a02b964cca2712e5a71d7b0d564a56b4a0f573b4c47f389341ade14cfd90600090a3505050565b62000dd762002010565b62000de460088262002499565b62000e0e576040516303ce0ad960e01b81526001600160a01b038216600482015260240162000926565b6040516001600160a01b038216907f84cc2115995684dcb0cd3d3a9565e3d32f075de81db70c8dc3a719b2a47af67e90600090a250565b606062000e536005620024b0565b905090565b600062000e6b600561ffff84166200247d565b62000e9057604051637d9160bf60e11b815261ffff8316600482015260240162000926565b600062000ea3600561ffff85166200248b565b9050600062000eb162001887565b6001600160a01b0316336001600160a01b031614905062000ed28262001ff5565b15801562000ede575080155b1562000f0a576040516304fc2fe760e11b815233600482015261ffff8516602482015260440162000926565b62000f17600887620020f2565b62000f4157604051638e888ef360e01b81526001600160a01b038716600482015260240162000926565b856001600160a01b0316876001600160a01b03160362000f8057604051632f9b185360e01b81526001600160a01b038816600482015260240162000926565b62000f8c8585620024bf565b5060008062000f9c898962002505565b90925090506001600160a01b03821662000fc957604051632573cfb960e21b815260040160405180910390fd5b6001600160a01b0382811660009081526004602090815260408083208585168452825280832061ffff8b1684529091529020546201000090041615620010405760405163cb27a43560e01b81526001600160a01b03808b1660048301528916602482015261ffff8716604482015260640162000926565b6002546001600160a01b0316806200106b576040516328b4fcf960e21b815260040160405180910390fd5b600062001078866200252f565b62001083876200253c565b6200108e886200254d565b62001099896200255e565b620010a48a6200256f565b620010af8b62002581565b620010ba8c62002592565b60405161ffff978816602482015295871660448701529386166064860152918516608485015262ffffff90811660a4850152931660c4830152821660e4820152908a166101048201526101240160408051601f198184030181529181526020820180517bffffffffffffffffffffffffffffffffffffffffffffffffffffffff166347973bff60e01b179052600c5490519192506001600160a01b0316908c908c908b9085906200116b9062002e7a565b6200117b95949392919062003587565b604051809103906000f08015801562001198573d6000803e3d6000fd5b509650505060405180608001604052808761ffff168152602001866001600160a01b0316815260200184151581526020016000151581525060046000846001600160a01b03166001600160a01b031681526020019081526020016000206000836001600160a01b03166001600160a01b0316815260200190815260200160002060008861ffff16815260200190815260200160002060008201518160000160006101000a81548161ffff021916908361ffff16021790555060208201518160000160026101000a8154816001600160a01b0302191690836001600160a01b0316021790555060408201518160000160166101000a81548160ff02191690831515021790555060608201518160000160176101000a81548160ff0219169083151502179055509050506003859080600181540180825580915050600190039060005260206000200160009091909190916101000a8154816001600160a01b0302191690836001600160a01b03160217905550620013698661ffff16600a6000856001600160a01b03166001600160a01b031681526020019081526020016000206000846001600160a01b03166001600160a01b03168152602001908152602001600020620025a490919063ffffffff16565b508561ffff16886001600160a01b03168a6001600160a01b03167f2c8d104b27c6b7f4492017a6f5cf3803043688934ebcaa6a03540beeaf976aff886001600380549050620013b99190620035d2565b604080516001600160a01b03909316835260208301919091520160405180910390a450505050949350505050565b6060600080620013f8858562002505565b6001600160a01b038083166000908152600a6020908152604080832093851683529290529081209294509092506200143082620025b2565b9050801562001588578067ffffffffffffffff811115620014555762001455620034e1565b604051908082528060200260200182016040528015620014a957816020015b604080516080810182526000808252602080830182905292820181905260608201528252600019909201910181620014745790505b506001600160a01b03808616600090815260046020908152604080832093881683529290529081209196505b8281101562001585576000620014f6620014f0868462002002565b620025bd565b6040805160808101825261ffff831680825260008181526020888152848220546001600160a01b03620100008204168286015260ff600160b01b8204811615159686019690965292909152879052600160b81b900490911615156060820152895191925090899084908110620015705762001570620034f7565b602090810291909101015250600101620014d5565b50505b5050505092915050565b6200159c62002010565b600080620015ab868662002505565b6001600160a01b0380831660009081526004602090815260408083208486168452825280832061ffff808c1685529083529281902081516080810183529054938416815262010000840490941691840182905260ff600160b01b84048116151591850191909152600160b81b9092049091161515606083015292945090925090620016675760405163102a919160e21b81526001600160a01b0380891660048301528716602482015261ffff8616604482015260640162000926565b83151581606001511515036200168f57604051626ee66560e11b815260040160405180910390fd5b6001600160a01b0380841660009081526004602090815260408083208685168452825280832061ffff8a1684528252918290208054881515600160b81b027fffffffffffffffff00ffffffffffffffffffffffffffffffffffffffffffffff90911617905583015190519116907f44cf35361c9ff3c8c1397ec6410d5495cc481feaef35c9af11da1a637107de4f906200172e90871515815260200190565b60405180910390a250505050505050565b6040805160808101825260008082526020820181905291810182905260608101919091526200177084848462002046565b949350505050565b6200178262002010565b600b546040516001600160a01b0380841692169033907fc8f43f4684a00b4a775029428464ae7e7aba78c77e7aaf3e1b30179237fdf28190600090a4600b80546001600160a01b0319166001600160a01b0392909216919091179055565b620017ea62002010565b620017f66000620025e8565b565b33806200180462001e58565b6001600160a01b031614620018385760405163118cdaa760e01b81526001600160a01b038216600482015260240162000926565b6200184381620025e8565b50565b6000600382815481106200185e576200185e620034f7565b6000918252602090912001546001600160a01b031692915050565b600062000e536008620025b2565b6000807f9016d09d72d40fdae2fd8ceac6b6234c7706214fd39c1cd1e609a0528c1993005b546001600160a01b031692915050565b600082620018ea57620018ce62001887565b6001600160a01b0316826001600160a01b0316149050620007bd565b60008381527f02dd7bc7dec4dceedda775e58dd541e08a116c6c53815c0bd028192f7b626800602090815260408083206001600160a01b038616845290915290205460ff165b9392505050565b6000808080808080806200194d60058a6200247d565b6200196f57604051637d9160bf60e11b8152600481018a905260240162000926565b60006200197e60058b6200248b565b90506200198b816200252f565b61ffff1698506200199c816200253c565b61ffff169750620019ad816200254d565b61ffff169650620019be816200255e565b61ffff169550620019cf816200256f565b62ffffff169450620019e18162002581565b61ffff169350620019f28162002592565b62ffffff16925060ff81901c915050919395975091939597565b62001a1662002010565b306001600160a01b0316816001600160a01b03166388cc58e46040518163ffffffff1660e01b8152600401602060405180830381865afa15801562001a5f573d6000803e3d6000fd5b505050506040513d601f19601f8201168201806040525081019062001a859190620035e8565b6001600160a01b03161462001ab957604051630a3e70af60e11b81526001600160a01b038216600482015260240162000926565b6002546001600160a01b03908116908216810362001af657604051630ded3b9560e31b81526001600160a01b038316600482015260240162000926565b600280546001600160a01b0319166001600160a01b0384811691821790925560408051928416835260208301919091527f900d0e3d359f50e4f923ecdc06b401e07dbb9f485e17b07bcfc91a13000b277e91015b60405180910390a15050565b7ff0c57e16840df040f15088dc2f81fe391c3923bec73e23a9662efc9c229c6a00805468010000000000000000810460ff16159067ffffffffffffffff1660008115801562001ba25750825b905060008267ffffffffffffffff16600114801562001bc05750303b155b90508115801562001bcf575080155b1562001bee5760405163f92ee8a960e01b815260040160405180910390fd5b845467ffffffffffffffff19166001178555831562001c2357845468ff00000000000000001916680100000000000000001785555b62001c2e8862002626565b67016345785d8a000087111562001c6a57604051635e8988c160e01b81526004810188905267016345785d8a0000602482015260440162000926565b62001c75896200263b565b6001879055600c80546001600160a01b0319166001600160a01b0388161790556040805160008152602081018990527f5c34e91c94c78b662a45d0bd4a25a4e32c584c54a45a76e4a4d43be27ba40e50910160405180910390a1831562001d1b57845468ff000000000000000019168555604051600181527fc7f505b2f371ae2175ee4913f4499e1f2633a7b5936321eed1cdaeb6115181d29060200160405180910390a15b505050505050505050565b60008281527f02dd7bc7dec4dceedda775e58dd541e08a116c6c53815c0bd028192f7b626800602052604090206001015462001d628162002115565b62000a2b8383620022a2565b62001d7862002010565b62001d85600882620026fd565b62001daf57604051638e888ef360e01b81526001600160a01b038216600482015260240162000926565b6040516001600160a01b038216907f0b767739217755d8af5a2ba75b181a19fa1750f8bb701f09311cb19a90140cb390600090a250565b62001df062002010565b62001e01600561ffff831662002714565b62001e2657604051637d9160bf60e11b815261ffff8216600482015260240162000926565b60405161ffff8216907fdd86b848bb56ff540caa68683fa467d0e7eb5f8b2d44e4ee435742eeeae9be1390600090a250565b6000807f237e158222e3e6968b72b9db0d8043aacf074ad9f650f0d1606b4d82ee432c00620018ac565b62001e8c62002010565b62001843816200263b565b62001ea162002010565b60015481810362001ec957604051631baa31e960e21b81526004810183905260240162000926565b67016345785d8a000082111562001f0557604051635e8988c160e01b81526004810183905267016345785d8a0000602482015260440162000926565b600182905560408051828152602081018490527f5c34e91c94c78b662a45d0bd4a25a4e32c584c54a45a76e4a4d43be27ba40e50910162001b4a565b62001f4b62002010565b7f237e158222e3e6968b72b9db0d8043aacf074ad9f650f0d1606b4d82ee432c0080546001600160a01b0319166001600160a01b038316908117825562001f9162001887565b6001600160a01b03167f38d16b8cac22d99fc7c124b9cd0de2d3fa1faef420bfe791d8c362d765e2270060405160405180910390a35050565b6000620007bd8262002722565b600080808062001fe886866200272f565b9097909650945050505050565b600060ff82901c620007bd565b60006200193083836200275c565b336200201b62001887565b6001600160a01b031614620017f65760405163118cdaa760e01b815233600482015260240162000926565b60408051608081018252600080825260208201819052918101829052606081019190915262002076848462002505565b6001600160a01b03918216600090815260046020908152604080832093851683529281528282209582529485528190208151608081018352905461ffff811682526201000081049093169481019490945260ff600160b01b83048116151591850191909152600160b81b90910416151560608301525092915050565b6001600160a01b0381166000908152600183016020526040812054151562001930565b62001843813362002789565b60006200213486868661ffff1662002046565b6020015190506001600160a01b038116620021805760405163b65ee95360e01b81526001600160a01b0380881660048301528616602482015261ffff8516604482015260640162000926565b82816001600160a01b031663781a89156040518163ffffffff1660e01b8152600401602060405180830381865afa158015620021c0573d6000803e3d6000fd5b505050506040513d601f19601f82011682018060405250810190620021e6919062003608565b03620022095760405163b70cd0db60e01b81526004810184905260240162000926565b604051631b057f6d60e01b81526001600160a01b03821690631b057f6d9062002239908690869060040162003622565b600060405180830381600087803b1580156200225457600080fd5b505af115801562002269573d6000803e3d6000fd5b50505050505050505050565b6000826200229657604051633e3253cf60e11b815260040160405180910390fd5b620019308383620027c6565b60007f02dd7bc7dec4dceedda775e58dd541e08a116c6c53815c0bd028192f7b626800620022d18484620018bc565b1562002334576000848152602082815260408083206001600160a01b0387168085529252808320805460ff1916905551339287917ff6391f5c32d9c69d2a47ea670b442974b53935d1edc7fd64eb21e047a839171b9190a46001915050620007bd565b6000915050620007bd565b60008561ffff168761ffff1611806200235d5750610fff8661ffff16115b806200236e57506127108561ffff16115b806200237f57506109c48361ffff16115b80620023925750620fffff8262ffffff16115b15620023b157604051631c07203f60e01b815260040160405180910390fd5b5060109590951b630fff00001661ffff9690961695909517601c9390931b64fff0000000169290921760289190911b663fff0000000000161760369190911b693fffffc00000000000001617604e9290921b6b0fffc00000000000000000001691909117605c9190911b6dfffff0000000000000000000000016176dffffffffffffffffffffffffffff19919091161790565b6000620017708484620024595760006200245c565b60015b600180861b19929092169116841b1790565b60006200177084848462002878565b600062001930838362002897565b6000620019308383620028a5565b600062001930836001600160a01b038416620028f1565b60606000620019308362002943565b600061271071ffff00000000000000000000000000000000608084901b1604600160801b0162ffffff8416627fffff1901620024fc828262002950565b95945050505050565b600080826001600160a01b0316846001600160a01b0316111562002527579192915b509192909150565b600061ffff8216620007bd565b6000620007bd8260101c610fff1690565b6000620007bd82601c1c610fff1690565b6000620007bd8260281c613fff1690565b6000620007bd8260361c62ffffff1690565b6000620007bd82604e1c613fff1690565b6000620007bd82605c1c620fffff1690565b6000620019308383620028f1565b6000620007bd825490565b8061ffff81168114620025e3576040516364ae406d60e01b815260040160405180910390fd5b919050565b7f237e158222e3e6968b72b9db0d8043aacf074ad9f650f0d1606b4d82ee432c0080546001600160a01b0319168155620026228262002bd8565b5050565b6200263062002c49565b620018438162002c98565b6001600160a01b0381166200266357604051632573cfb960e21b815260040160405180910390fd5b6000546001600160a01b039081169082168103620026a457600054604051634fcea97160e01b81526001600160a01b03909116600482015260240162000926565b600080546001600160a01b0319166001600160a01b0384811691821790925560408051928416835260208301919091527f15d80a013f22151bc7246e3bc132e12828cde19de98870475e3fa70840152721910162001b4a565b600062001930836001600160a01b03841662002cce565b600062001930838362002dc7565b6000620007bd82620025b2565b600080806200273f858562002002565b600081815260029690960160205260409095205494959350505050565b6000826000018281548110620027765762002776620034f7565b9060005260206000200154905092915050565b620027958282620018bc565b620026225760405163e2517d3f60e01b81526001600160a01b03821660048201526024810183905260440162000926565b60007f02dd7bc7dec4dceedda775e58dd541e08a116c6c53815c0bd028192f7b626800620027f58484620018bc565b62002334576000848152602082815260408083206001600160a01b03871684529091529020805460ff191660011790556200282d3390565b6001600160a01b0316836001600160a01b0316857f2f8788117e7eff1d82e926ec794901d17c78024a50270940304540a733656f0d60405160405180910390a46001915050620007bd565b60008281526002840160205260408120829055620017708484620025a4565b600062001930838362002de6565b600081815260028301602052604081205480158015620028ce5750620028cc848462002897565b155b15620019305760405163015ab34360e11b81526004810184905260240162000926565b60008181526001830160205260408120546200293a57508154600181810184556000848152602080822090930184905584548482528286019093526040902091909155620007bd565b506000620007bd565b6060620007bd8262002dff565b6000806000836000036200296e5750600160801b9150620007bd9050565b5082600081121562002981579015906000035b6210000081101562002b9057600160801b9250846fffffffffffffffffffffffffffffffff811115620029b657911591600019045b6001821615620029c85792830260801c925b800260801c6002821615620029df5792830260801c925b800260801c6004821615620029f65792830260801c925b800260801c600882161562002a0d5792830260801c925b800260801c601082161562002a245792830260801c925b800260801c602082161562002a3b5792830260801c925b800260801c604082161562002a525792830260801c925b8002608090811c9082161562002a6a5792830260801c925b800260801c61010082161562002a825792830260801c925b800260801c61020082161562002a9a5792830260801c925b800260801c61040082161562002ab25792830260801c925b800260801c61080082161562002aca5792830260801c925b800260801c61100082161562002ae25792830260801c925b800260801c61200082161562002afa5792830260801c925b800260801c61400082161562002b125792830260801c925b800260801c61800082161562002b2a5792830260801c925b800260801c6201000082161562002b435792830260801c925b800260801c6202000082161562002b5c5792830260801c925b800260801c6204000082161562002b755792830260801c925b800260801c6208000082161562002b8e5792830260801c925b505b8260000362002bbd57604051631dba598d60e11b8152600481018690526024810185905260440162000926565b8162002bca5782620024fc565b620024fc836000196200363d565b7f9016d09d72d40fdae2fd8ceac6b6234c7706214fd39c1cd1e609a0528c19930080546001600160a01b031981166001600160a01b03848116918217845560405192169182907f8be0079c531659141344cd1fd0a4f28419497f9722a3daafe3b4186f6b6457e090600090a3505050565b7ff0c57e16840df040f15088dc2f81fe391c3923bec73e23a9662efc9c229c6a005468010000000000000000900460ff16620017f657604051631afcd79f60e31b815260040160405180910390fd5b62002ca262002c49565b6001600160a01b0381166200183857604051631e4fbdf760e01b81526000600482015260240162000926565b600081815260018301602052604081205480156200233457600062002cf5600183620035d2565b855490915060009062002d0b90600190620035d2565b905080821462002d7757600086600001828154811062002d2f5762002d2f620034f7565b906000526020600020015490508087600001848154811062002d555762002d55620034f7565b6000918252602080832090910192909255918252600188019052604090208390555b855486908062002d8b5762002d8b62003660565b600190038181906000526020600020016000905590558560010160008681526020019081526020016000206000905560019350505050620007bd565b6000818152600283016020526040812081905562001930838362002e0e565b6000818152600183016020526040812054151562001930565b60606000620019308362002e1c565b600062001930838362002cce565b60608160000180548060200260200160405190810160405280929190818152602001828054801562002e6e57602002820191906000526020600020905b81548152602001906001019080831162002e59575b50505050509050919050565b610e75806200367783390190565b60006020828403121562002e9b57600080fd5b81356001600160e01b0319811681146200193057600080fd5b6020808252825182820181905260009190848201906040850190845b8181101562002eee5783518352928401929184019160010162002ed0565b50909695505050505050565b60006020828403121562002f0d57600080fd5b5035919050565b6001600160a01b03811681146200184357600080fd5b803561ffff81168114620025e357600080fd5b803562ffffff81168114620025e357600080fd5b6000806000806000806000806000806101408b8d03121562002f7257600080fd5b8a3562002f7f8162002f14565b995060208b013562002f918162002f14565b985062002fa160408c0162002f2a565b975062002fb160608c0162002f2a565b965062002fc160808c0162002f2a565b955062002fd160a08c0162002f2a565b945062002fe160c08c0162002f2a565b935062002ff160e08c0162002f3d565b9250620030026101008c0162002f2a565b9150620030136101208c0162002f3d565b90509295989b9194979a5092959850565b6000602082840312156200303757600080fd5b8135620019308162002f14565b6000806000606084860312156200305a57600080fd5b8335620030678162002f14565b92506020840135620030798162002f14565b9150620030896040850162002f2a565b90509250925092565b60008060408385031215620030a657600080fd5b823591506020830135620030ba8162002f14565b809150509250929050565b80358015158114620025e357600080fd5b60008060008060008060008060006101208a8c031215620030f657600080fd5b620031018a62002f2a565b98506200311160208b0162002f2a565b97506200312160408b0162002f2a565b96506200313160608b0162002f2a565b95506200314160808b0162002f2a565b94506200315160a08b0162002f3d565b93506200316160c08b0162002f2a565b92506200317160e08b0162002f3d565b9150620031826101008b01620030c5565b90509295985092959850929598565b60008060008060008060a08789031215620031ab57600080fd5b8635620031b88162002f14565b95506020870135620031ca8162002f14565b9450620031da6040880162002f2a565b935060608701359250608087013567ffffffffffffffff80821115620031ff57600080fd5b818901915089601f8301126200321457600080fd5b8135818111156200322457600080fd5b8a60208285010111156200323757600080fd5b6020830194508093505050509295509295509295565b600080604083850312156200326157600080fd5b6200326c8362002f2a565b91506200327c60208401620030c5565b90509250929050565b600080600080608085870312156200329c57600080fd5b8435620032a98162002f14565b93506020850135620032bb8162002f14565b9250620032cb6040860162002f3d565b9150620032db6060860162002f2a565b905092959194509250565b60008060408385031215620032fa57600080fd5b8235620033078162002f14565b91506020830135620030ba8162002f14565b6020808252825182820181905260009190848201906040850190845b8181101562002eee576200337c83855161ffff81511682526001600160a01b0360208201511660208301526040810151151560408301526060810151151560608301525050565b928401926080929092019160010162003335565b60008060008060808587031215620033a757600080fd5b8435620033b48162002f14565b93506020850135620033c68162002f14565b9250620033d66040860162002f2a565b9150620032db60608601620030c5565b600080600060608486031215620033fc57600080fd5b8335620034098162002f14565b925060208401356200341b8162002f14565b929592945050506040919091013590565b815161ffff1681526020808301516001600160a01b03169082015260408083015115159082015260608083015115159082015260808101620007bd565b600080600080608085870312156200348057600080fd5b84356200348d8162002f14565b935060208501356200349f8162002f14565b9250604085013591506060850135620034b88162002f14565b939692955090935050565b600060208284031215620034d657600080fd5b620019308262002f2a565b634e487b7160e01b600052604160045260246000fd5b634e487b7160e01b600052603260045260246000fd5b634e487b7160e01b600052601160045260246000fd5b6000600182016200353857620035386200350d565b5060010190565b6000815180845260005b81811015620035675760208185018101518683018201520162003549565b506000602082860101526020601f19601f83011685010191505092915050565b60006001600160a01b038088168352808716602084015280861660408401525061ffff8416606083015260a06080830152620035c760a08301846200353f565b979650505050505050565b81810381811115620007bd57620007bd6200350d565b600060208284031215620035fb57600080fd5b8151620019308162002f14565b6000602082840312156200361b57600080fd5b5051919050565b8281526040602082015260006200177060408301846200353f565b6000826200365b57634e487b7160e01b600052601260045260246000fd5b500490565b634e487b7160e01b600052603160045260246000fdfe60a060405260405162000e7538038062000e758339810160408190526200002691620006b4565b6040805160208101909152600081528590620000438282620002cb565b506001600160a01b031660805260006200007f60017f73ef95b1b141b4aeb11976757a225324c423bf4634f4361553b9b059a82050bb6200075d565b6040516020016200009291815260200190565b60408051601f19818403018152919052805160209091012090506000620000db60017f039c6157caeca9b57df712b1365b48c637c526ae0a75b2c95cd3622e6ffda4fd6200075d565b604051602001620000ee91815260200190565b60408051601f198184030181529190528051602090910120905060006200013760017fd1a1c4c8365fed7323947e7cb6a7be46aba18d67bc4a4c5418b50b8bbf5a31856200075d565b6040516020016200014a91815260200190565b6040516020818303038152906040528051906020012090506000876001600160a01b03166395d89b416040518163ffffffff1660e01b8152600401600060405180830381865afa158015620001a3573d6000803e3d6000fd5b505050506040513d6000823e601f3d908101601f19168201604052620001cd91908101906200077f565b90506000876001600160a01b03166395d89b416040518163ffffffff1660e01b8152600401600060405180830381865afa15801562000210573d6000803e3d6000fd5b505050506040513d6000823e601f3d908101601f191682016040526200023a91908101906200077f565b9050818160405160200162000251929190620007d4565b60405160208183030381529060405260009081620002709190620008cd565b5081816040516020016200028692919062000999565b60405160208183030381529060405260019081620002a59190620008cd565b50888555878455868355620002bb8a87620002cb565b5050505050505050505062000a25565b620002d68262000395565b6040516001600160a01b038316907f1cf3b03a6cf19fa2baba4df148e9dcabedea7f8a5c07840e207e5c089be95d3e90600090a2805115620003875762000382826001600160a01b0316635c60da1b6040518163ffffffff1660e01b8152600401602060405180830381865afa15801562000355573d6000803e3d6000fd5b505050506040513d601f19601f820116820180604052508101906200037b9190620009e9565b82620004ae565b505050565b620003916200052d565b5050565b806001600160a01b03163b600003620003d157604051631933b43b60e21b81526001600160a01b03821660048201526024015b60405180910390fd5b807fa3f0ad74e5423aebfd80d3ef4346578335a9a72aeaee59ff6cb3582b35133d5080546001600160a01b0319166001600160a01b0392831617905560408051635c60da1b60e01b81529051600092841691635c60da1b9160048083019260209291908290030181865afa1580156200044e573d6000803e3d6000fd5b505050506040513d601f19601f82011682018060405250810190620004749190620009e9565b9050806001600160a01b03163b6000036200039157604051634c9c8ce360e01b81526001600160a01b0382166004820152602401620003c8565b6060600080846001600160a01b031684604051620004cd919062000a07565b600060405180830381855af49150503d80600081146200050a576040519150601f19603f3d011682016040523d82523d6000602084013e6200050f565b606091505b509092509050620005228583836200054f565b925050505b92915050565b34156200054d5760405163b398979f60e01b815260040160405180910390fd5b565b60608262000568576200056282620005b5565b620005ae565b81511580156200058057506001600160a01b0384163b155b15620005ab57604051639996b31560e01b81526001600160a01b0385166004820152602401620003c8565b50805b9392505050565b805115620005c65780518082602001fd5b604051630a12f52160e11b815260040160405180910390fd5b80516001600160a01b0381168114620005f757600080fd5b919050565b634e487b7160e01b600052604160045260246000fd5b60005b838110156200062f57818101518382015260200162000615565b50506000910152565b60006001600160401b0380841115620006555762000655620005fc565b604051601f8501601f19908116603f01168101908282118183101715620006805762000680620005fc565b816040528093508581528686860111156200069a57600080fd5b620006aa86602083018762000612565b5050509392505050565b600080600080600060a08688031215620006cd57600080fd5b620006d886620005df565b9450620006e860208701620005df565b9350620006f860408701620005df565b9250606086015161ffff811681146200071057600080fd5b60808701519092506001600160401b038111156200072d57600080fd5b8601601f810188136200073f57600080fd5b620007508882516020840162000638565b9150509295509295909350565b818103818111156200052757634e487b7160e01b600052601160045260246000fd5b6000602082840312156200079257600080fd5b81516001600160401b03811115620007a957600080fd5b8201601f81018413620007bb57600080fd5b620007cc8482516020840162000638565b949350505050565b7f4c697175696469747920426f6f6b20546f6b656e2000000000000000000000008152600083516200080e81601585016020880162000612565b6201016960ed1b60159184019182015283516200083381601884016020880162000612565b01601801949350505050565b600181811c908216806200085457607f821691505b6020821081036200087557634e487b7160e01b600052602260045260246000fd5b50919050565b601f8211156200038257600081815260208120601f850160051c81016020861015620008a45750805b601f850160051c820191505b81811015620008c557828155600101620008b0565b505050505050565b81516001600160401b03811115620008e957620008e9620005fc565b6200090181620008fa84546200083f565b846200087b565b602080601f831160018114620009395760008415620009205750858301515b600019600386901b1c1916600185901b178555620008c5565b600085815260208120601f198616915b828110156200096a5788860151825594840194600190910190840162000949565b5085821015620009895787850151600019600388901b60f8161c191681555b5050505050600190811b01905550565b634c42545f60e01b815260008351620009ba81600485016020880162000612565b602d60f81b6004918401918201528351620009dd81600584016020880162000612565b01600501949350505050565b600060208284031215620009fc57600080fd5b620005ae82620005df565b6000825162000a1b81846020870162000612565b9190910192915050565b60805161042d62000a48600039600081816101000152610281015261042d6000f3fe60806040526004361061005e5760003560e01c80632a905318116100435780632a905318146100af57806395d89b41146100c4578063a0a0ea39146100d957610065565b806306fdde031461006f578063188214001461009a57610065565b3661006557005b61006d61012a565b005b34801561007b57600080fd5b5061008461013c565b6040516100919190610332565b60405180910390f35b3480156100a657600080fd5b506100846101ce565b3480156100bb57600080fd5b5061008461025c565b3480156100d057600080fd5b50610084610269565b3480156100e557600080fd5b5060405173ffffffffffffffffffffffffffffffffffffffff7f0000000000000000000000000000000000000000000000000000000000000000168152602001610091565b61013a61013561027d565b61030e565b565b60606000805461014b90610380565b80601f016020809104026020016040519081016040528092919081815260200182805461017790610380565b80156101c45780601f10610199576101008083540402835291602001916101c4565b820191906000526020600020905b8154815290600101906020018083116101a757829003601f168201915b5050505050905090565b600080546101db90610380565b80601f016020809104026020016040519081016040528092919081815260200182805461020790610380565b80156102545780601f1061022957610100808354040283529160200191610254565b820191906000526020600020905b81548152906001019060200180831161023757829003601f168201915b505050505081565b600180546101db90610380565b60606001805461014b90610380565b905090565b60007f000000000000000000000000000000000000000000000000000000000000000073ffffffffffffffffffffffffffffffffffffffff16635c60da1b6040518163ffffffff1660e01b8152600401602060405180830381865afa1580156102ea573d6000803e3d6000fd5b505050506040513d601f19601f8201168201806040525081019061027891906103ba565b3660008037600080366000845af43d6000803e80801561032d573d6000f35b3d6000fd5b600060208083528351808285015260005b8181101561035f57858101830151858201604001528201610343565b506000604082860101526040601f19601f8301168501019250505092915050565b600181811c9082168061039457607f821691505b6020821081036103b457634e487b7160e01b600052602260045260246000fd5b50919050565b6000602082840312156103cc57600080fd5b815173ffffffffffffffffffffffffffffffffffffffff811681146103f057600080fd5b939250505056fea264697066735822122039940639648b8f1a072fa67ef61d6f181c2b9729fdcb7d340d3fd8123382d0f864736f6c63430008140033a2646970667358221220e55a87b2548ca08145232692a0a2dd23c10c5e8e68de0c422774118ae9f3bd9664736f6c63430008140033","linkReferences":{}},"methodIdentifiers":{"DEFAULT_ADMIN_ROLE()":"a217fddf","LB_HOOKS_MANAGER_ROLE()":"1af5bacc","acceptOwnership()":"79ba5097","addQuoteAsset(address)":"5a440923","createLBPair(address,address,uint24,uint16)":"659ac74b","forceDecay(address)":"3c78a941","getAdmin()":"6e9960c3","getAllBinSteps()":"5b35875c","getAllLBPairs(address,address)":"6622e0d7","getFeeRecipient()":"4ccb20c0","getFlashLoanFee()":"fd90c2be","getLBPairAtIndex(uint256)":"7daf5d66","getLBPairImplementation()":"af371065","getLBPairInformation(address,address,uint256)":"704037bd","getMaxFlashLoanFee()":"8ce9aa1c","getMinBinStep()":"701ab8c1","getNumberOfLBPairs()":"4e937c3a","getNumberOfQuoteAssets()":"80c5061e","getOpenBinSteps()":"0282c9c1","getPreset(uint256)":"aabc4b3c","getQuoteAssetAtIndex(uint256)":"0752092b","getRoleAdmin(bytes32)":"248a9ca3","grantRole(bytes32,address)":"2f2ff15d","hasRole(bytes32,address)":"91d14854","initialize(address,address,uint256,address)":"be203094","isQuoteAsset(address)":"27721842","owner()":"8da5cb5b","pendingOwner()":"e30c3978","removeLBHooksOnPair(address,address,uint16)":"2cc06b8c","removePreset(uint16)":"e203a31f","removeQuoteAsset(address)":"ddbfd941","renounceOwnership()":"715018a6","renounceRole(bytes32,address)":"36568abe","revokeRole(bytes32,address)":"d547741f","setAdmin(address)":"704b6c02","setFeeRecipient(address)":"e74b981b","setFeesParametersOnPair(address,address,uint16,uint16,uint16,uint16,uint16,uint24,uint16,uint24)":"093ff769","setFlashLoanFee(uint256)":"e92d0d5d","setLBHooksParametersOnPair(address,address,uint16,bytes32,bytes)":"3a2f1a91","setLBPairIgnored(address,address,uint16,bool)":"69d56ea3","setLBPairImplementation(address)":"b0384781","setPreset(uint16,uint16,uint16,uint16,uint16,uint24,uint16,uint24,bool)":"379ee803","setPresetOpenState(uint16,bool)":"4cd161d3","supportsInterface(bytes4)":"01ffc9a7","transferOwnership(address)":"f2fde38b"},"id":59}