{"abi":[{"type":"constructor","inputs":[],"stateMutability":"nonpayable"},{"type":"function","name":"DEFAULT_ADMIN_ROLE","inputs":[],"outputs":[{"name":"","type":"bytes32","internalType":"bytes32"}],"stateMutability":"view"},{"type":"function","name":"LB_HOOKS_MANAGER_ROLE","inputs":[],"outputs":[{"name":"","type":"bytes32","internalType":"bytes32"}],"stateMutability":"view"},{"type":"function","name":"acceptOwnership","inputs":[],"outputs":[],"stateMutability":"nonpayable"},{"type":"function","name":"addAdmin","inputs":[{"name":"adminAddr","type":"address","internalType":"address"}],"outputs":[],"stateMutability":"nonpayable"},{"type":"function","name":"addQuoteAsset","inputs":[{"name":"quoteAsset","type":"address","internalType":"contract IERC20"}],"outputs":[],"stateMutability":"nonpayable"},{"type":"function","name":"createLBPair","inputs":[{"name":"tokenX","type":"address","internalType":"contract IERC20"},{"name":"tokenY","type":"address","internalType":"contract IERC20"},{"name":"activeId","type":"uint24","internalType":"uint24"},{"name":"binStep","type":"uint16","internalType":"uint16"}],"outputs":[{"name":"pair","type":"address","internalType":"contract ILBPair"}],"stateMutability":"nonpayable"},{"type":"function","name":"forceDecay","inputs":[{"name":"pair","type":"address","internalType":"contract ILBPair"}],"outputs":[],"stateMutability":"nonpayable"},{"type":"function","name":"getAllAdmins","inputs":[],"outputs":[{"name":"","type":"address[]","internalType":"address[]"}],"stateMutability":"view"},{"type":"function","name":"getAllBinSteps","inputs":[],"outputs":[{"name":"binStepWithPreset","type":"uint256[]","internalType":"uint256[]"}],"stateMutability":"view"},{"type":"function","name":"getAllLBPairs","inputs":[{"name":"tokenX","type":"address","internalType":"contract IERC20"},{"name":"tokenY","type":"address","internalType":"contract IERC20"}],"outputs":[{"name":"lbPairsAvailable","type":"tuple[]","internalType":"struct ILBFactory.LBPairInformation[]","components":[{"name":"binStep","type":"uint16","internalType":"uint16"},{"name":"LBPair","type":"address","internalType":"contract ILBPair"},{"name":"createdByOwner","type":"bool","internalType":"bool"},{"name":"ignoredForRouting","type":"bool","internalType":"bool"}]}],"stateMutability":"view"},{"type":"function","name":"getFeeRecipient","inputs":[],"outputs":[{"name":"feeRecipient","type":"address","internalType":"address"}],"stateMutability":"view"},{"type":"function","name":"getFlashLoanFee","inputs":[],"outputs":[{"name":"flashLoanFee","type":"uint256","internalType":"uint256"}],"stateMutability":"view"},{"type":"function","name":"getLBPairAtIndex","inputs":[{"name":"index","type":"uint256","internalType":"uint256"}],"outputs":[{"name":"lbPair","type":"address","internalType":"contract ILBPair"}],"stateMutability":"view"},{"type":"function","name":"getLBPairImplementation","inputs":[],"outputs":[{"name":"lbPairImplementation","type":"address","internalType":"address"}],"stateMutability":"view"},{"type":"function","name":"getLBPairInformation","inputs":[{"name":"tokenA","type":"address","internalType":"contract IERC20"},{"name":"tokenB","type":"address","internalType":"contract IERC20"},{"name":"binStep","type":"uint256","internalType":"uint256"}],"outputs":[{"name":"lbPairInformation","type":"tuple","internalType":"struct ILBFactory.LBPairInformation","components":[{"name":"binStep","type":"uint16","internalType":"uint16"},{"name":"LBPair","type":"address","internalType":"contract ILBPair"},{"name":"createdByOwner","type":"bool","internalType":"bool"},{"name":"ignoredForRouting","type":"bool","internalType":"bool"}]}],"stateMutability":"view"},{"type":"function","name":"getMaxFlashLoanFee","inputs":[],"outputs":[{"name":"maxFee","type":"uint256","internalType":"uint256"}],"stateMutability":"pure"},{"type":"function","name":"getMinBinStep","inputs":[],"outputs":[{"name":"minBinStep","type":"uint256","internalType":"uint256"}],"stateMutability":"pure"},{"type":"function","name":"getNumberOfLBPairs","inputs":[],"outputs":[{"name":"lbPairNumber","type":"uint256","internalType":"uint256"}],"stateMutability":"view"},{"type":"function","name":"getNumberOfQuoteAssets","inputs":[],"outputs":[{"name":"numberOfQuoteAssets","type":"uint256","internalType":"uint256"}],"stateMutability":"view"},{"type":"function","name":"getOpenBinSteps","inputs":[],"outputs":[{"name":"openBinStep","type":"uint256[]","internalType":"uint256[]"}],"stateMutability":"view"},{"type":"function","name":"getPreset","inputs":[{"name":"binStep","type":"uint256","internalType":"uint256"}],"outputs":[{"name":"baseFactor","type":"uint256","internalType":"uint256"},{"name":"filterPeriod","type":"uint256","internalType":"uint256"},{"name":"decayPeriod","type":"uint256","internalType":"uint256"},{"name":"reductionFactor","type":"uint256","internalType":"uint256"},{"name":"variableFeeControl","type":"uint256","internalType":"uint256"},{"name":"protocolShare","type":"uint256","internalType":"uint256"},{"name":"maxVolatilityAccumulator","type":"uint256","internalType":"uint256"},{"name":"isOpen","type":"bool","internalType":"bool"}],"stateMutability":"view"},{"type":"function","name":"getQuoteAssetAtIndex","inputs":[{"name":"index","type":"uint256","internalType":"uint256"}],"outputs":[{"name":"asset","type":"address","internalType":"contract IERC20"}],"stateMutability":"view"},{"type":"function","name":"getRoleAdmin","inputs":[{"name":"role","type":"bytes32","internalType":"bytes32"}],"outputs":[{"name":"","type":"bytes32","internalType":"bytes32"}],"stateMutability":"view"},{"type":"function","name":"grantRole","inputs":[{"name":"role","type":"bytes32","internalType":"bytes32"},{"name":"account","type":"address","internalType":"address"}],"outputs":[],"stateMutability":"nonpayable"},{"type":"function","name":"hasRole","inputs":[{"name":"role","type":"bytes32","internalType":"bytes32"},{"name":"account","type":"address","internalType":"address"}],"outputs":[{"name":"","type":"bool","internalType":"bool"}],"stateMutability":"view"},{"type":"function","name":"initialize","inputs":[{"name":"feeRecipient","type":"address","internalType":"address"},{"name":"initialOwner","type":"address","internalType":"address"},{"name":"flashLoanFee","type":"uint256","internalType":"uint256"},{"name":"lbPairBeaconAddress","type":"address","internalType":"address"}],"outputs":[],"stateMutability":"nonpayable"},{"type":"function","name":"isQuoteAsset","inputs":[{"name":"token","type":"address","internalType":"contract IERC20"}],"outputs":[{"name":"isQuote","type":"bool","internalType":"bool"}],"stateMutability":"view"},{"type":"function","name":"owner","inputs":[],"outputs":[{"name":"","type":"address","internalType":"address"}],"stateMutability":"view"},{"type":"function","name":"pendingOwner","inputs":[],"outputs":[{"name":"","type":"address","internalType":"address"}],"stateMutability":"view"},{"type":"function","name":"removeAdmin","inputs":[{"name":"adminAddr","type":"address","internalType":"address"}],"outputs":[],"stateMutability":"nonpayable"},{"type":"function","name":"removeLBHooksOnPair","inputs":[{"name":"tokenX","type":"address","internalType":"contract IERC20"},{"name":"tokenY","type":"address","internalType":"contract IERC20"},{"name":"binStep","type":"uint16","internalType":"uint16"}],"outputs":[],"stateMutability":"nonpayable"},{"type":"function","name":"removePreset","inputs":[{"name":"binStep","type":"uint16","internalType":"uint16"}],"outputs":[],"stateMutability":"nonpayable"},{"type":"function","name":"removeQuoteAsset","inputs":[{"name":"quoteAsset","type":"address","internalType":"contract IERC20"}],"outputs":[],"stateMutability":"nonpayable"},{"type":"function","name":"renounceOwnership","inputs":[],"outputs":[],"stateMutability":"nonpayable"},{"type":"function","name":"renounceRole","inputs":[{"name":"role","type":"bytes32","internalType":"bytes32"},{"name":"callerConfirmation","type":"address","internalType":"address"}],"outputs":[],"stateMutability":"nonpayable"},{"type":"function","name":"revokeRole","inputs":[{"name":"role","type":"bytes32","internalType":"bytes32"},{"name":"account","type":"address","internalType":"address"}],"outputs":[],"stateMutability":"nonpayable"},{"type":"function","name":"setFeeRecipient","inputs":[{"name":"feeRecipient","type":"address","internalType":"address"}],"outputs":[],"stateMutability":"nonpayable"},{"type":"function","name":"setFeesParametersOnPair","inputs":[{"name":"tokenX","type":"address","internalType":"contract IERC20"},{"name":"tokenY","type":"address","internalType":"contract IERC20"},{"name":"binStep","type":"uint16","internalType":"uint16"},{"name":"baseFactor","type":"uint16","internalType":"uint16"},{"name":"filterPeriod","type":"uint16","internalType":"uint16"},{"name":"decayPeriod","type":"uint16","internalType":"uint16"},{"name":"reductionFactor","type":"uint16","internalType":"uint16"},{"name":"variableFeeControl","type":"uint24","internalType":"uint24"},{"name":"protocolShare","type":"uint16","internalType":"uint16"},{"name":"maxVolatilityAccumulator","type":"uint24","internalType":"uint24"}],"outputs":[],"stateMutability":"nonpayable"},{"type":"function","name":"setFlashLoanFee","inputs":[{"name":"flashLoanFee","type":"uint256","internalType":"uint256"}],"outputs":[],"stateMutability":"nonpayable"},{"type":"function","name":"setLBHooksParametersOnPair","inputs":[{"name":"tokenX","type":"address","internalType":"contract IERC20"},{"name":"tokenY","type":"address","internalType":"contract IERC20"},{"name":"binStep","type":"uint16","internalType":"uint16"},{"name":"hooksParameters","type":"bytes32","internalType":"bytes32"},{"name":"onHooksSetData","type":"bytes","internalType":"bytes"}],"outputs":[],"stateMutability":"nonpayable"},{"type":"function","name":"setLBPairIgnored","inputs":[{"name":"tokenX","type":"address","internalType":"contract IERC20"},{"name":"tokenY","type":"address","internalType":"contract IERC20"},{"name":"binStep","type":"uint16","internalType":"uint16"},{"name":"ignored","type":"bool","internalType":"bool"}],"outputs":[],"stateMutability":"nonpayable"},{"type":"function","name":"setLBPairImplementation","inputs":[{"name":"newLBPairImplementation","type":"address","internalType":"address"}],"outputs":[],"stateMutability":"nonpayable"},{"type":"function","name":"setPreset","inputs":[{"name":"binStep","type":"uint16","internalType":"uint16"},{"name":"baseFactor","type":"uint16","internalType":"uint16"},{"name":"filterPeriod","type":"uint16","internalType":"uint16"},{"name":"decayPeriod","type":"uint16","internalType":"uint16"},{"name":"reductionFactor","type":"uint16","internalType":"uint16"},{"name":"variableFeeControl","type":"uint24","internalType":"uint24"},{"name":"protocolShare","type":"uint16","internalType":"uint16"},{"name":"maxVolatilityAccumulator","type":"uint24","internalType":"uint24"},{"name":"isOpen","type":"bool","internalType":"bool"}],"outputs":[],"stateMutability":"nonpayable"},{"type":"function","name":"setPresetOpenState","inputs":[{"name":"binStep","type":"uint16","internalType":"uint16"},{"name":"isOpen","type":"bool","internalType":"bool"}],"outputs":[],"stateMutability":"nonpayable"},{"type":"function","name":"supportsInterface","inputs":[{"name":"interfaceId","type":"bytes4","internalType":"bytes4"}],"outputs":[{"name":"","type":"bool","internalType":"bool"}],"stateMutability":"view"},{"type":"function","name":"transferOwnership","inputs":[{"name":"newOwner","type":"address","internalType":"address"}],"outputs":[],"stateMutability":"nonpayable"},{"type":"event","name":"AdminAdded","inputs":[{"name":"sender","type":"address","indexed":true,"internalType":"address"},{"name":"admin","type":"address","indexed":true,"internalType":"address"}],"anonymous":false},{"type":"event","name":"AdminRemoved","inputs":[{"name":"sender","type":"address","indexed":true,"internalType":"address"},{"name":"admin","type":"address","indexed":true,"internalType":"address"}],"anonymous":false},{"type":"event","name":"FeeRecipientSet","inputs":[{"name":"oldRecipient","type":"address","indexed":false,"internalType":"address"},{"name":"newRecipient","type":"address","indexed":false,"internalType":"address"}],"anonymous":false},{"type":"event","name":"FlashLoanFeeSet","inputs":[{"name":"oldFlashLoanFee","type":"uint256","indexed":false,"internalType":"uint256"},{"name":"newFlashLoanFee","type":"uint256","indexed":false,"internalType":"uint256"}],"anonymous":false},{"type":"event","name":"Initialized","inputs":[{"name":"version","type":"uint64","indexed":false,"internalType":"uint64"}],"anonymous":false},{"type":"event","name":"LBPairCreated","inputs":[{"name":"tokenX","type":"address","indexed":true,"internalType":"contract IERC20"},{"name":"tokenY","type":"address","indexed":true,"internalType":"contract IERC20"},{"name":"binStep","type":"uint256","indexed":true,"internalType":"uint256"},{"name":"LBPair","type":"address","indexed":false,"internalType":"contract ILBPair"},{"name":"pid","type":"uint256","indexed":false,"internalType":"uint256"}],"anonymous":false},{"type":"event","name":"LBPairIgnoredStateChanged","inputs":[{"name":"LBPair","type":"address","indexed":true,"internalType":"contract ILBPair"},{"name":"ignored","type":"bool","indexed":false,"internalType":"bool"}],"anonymous":false},{"type":"event","name":"LBPairImplementationSet","inputs":[{"name":"oldLBPairImplementation","type":"address","indexed":false,"internalType":"address"},{"name":"LBPairImplementation","type":"address","indexed":false,"internalType":"address"}],"anonymous":false},{"type":"event","name":"OwnershipTransferStarted","inputs":[{"name":"previousOwner","type":"address","indexed":true,"internalType":"address"},{"name":"newOwner","type":"address","indexed":true,"internalType":"address"}],"anonymous":false},{"type":"event","name":"OwnershipTransferred","inputs":[{"name":"previousOwner","type":"address","indexed":true,"internalType":"address"},{"name":"newOwner","type":"address","indexed":true,"internalType":"address"}],"anonymous":false},{"type":"event","name":"PresetOpenStateChanged","inputs":[{"name":"binStep","type":"uint256","indexed":true,"internalType":"uint256"},{"name":"isOpen","type":"bool","indexed":true,"internalType":"bool"}],"anonymous":false},{"type":"event","name":"PresetRemoved","inputs":[{"name":"binStep","type":"uint256","indexed":true,"internalType":"uint256"}],"anonymous":false},{"type":"event","name":"PresetSet","inputs":[{"name":"binStep","type":"uint256","indexed":true,"internalType":"uint256"},{"name":"baseFactor","type":"uint256","indexed":false,"internalType":"uint256"},{"name":"filterPeriod","type":"uint256","indexed":false,"internalType":"uint256"},{"name":"decayPeriod","type":"uint256","indexed":false,"internalType":"uint256"},{"name":"reductionFactor","type":"uint256","indexed":false,"internalType":"uint256"},{"name":"variableFeeControl","type":"uint256","indexed":false,"internalType":"uint256"},{"name":"protocolShare","type":"uint256","indexed":false,"internalType":"uint256"},{"name":"maxVolatilityAccumulator","type":"uint256","indexed":false,"internalType":"uint256"}],"anonymous":false},{"type":"event","name":"QuoteAssetAdded","inputs":[{"name":"quoteAsset","type":"address","indexed":true,"internalType":"contract IERC20"}],"anonymous":false},{"type":"event","name":"QuoteAssetRemoved","inputs":[{"name":"quoteAsset","type":"address","indexed":true,"internalType":"contract IERC20"}],"anonymous":false},{"type":"event","name":"RoleAdminChanged","inputs":[{"name":"role","type":"bytes32","indexed":true,"internalType":"bytes32"},{"name":"previousAdminRole","type":"bytes32","indexed":true,"internalType":"bytes32"},{"name":"newAdminRole","type":"bytes32","indexed":true,"internalType":"bytes32"}],"anonymous":false},{"type":"event","name":"RoleGranted","inputs":[{"name":"role","type":"bytes32","indexed":true,"internalType":"bytes32"},{"name":"account","type":"address","indexed":true,"internalType":"address"},{"name":"sender","type":"address","indexed":true,"internalType":"address"}],"anonymous":false},{"type":"event","name":"RoleRevoked","inputs":[{"name":"role","type":"bytes32","indexed":true,"internalType":"bytes32"},{"name":"account","type":"address","indexed":true,"internalType":"address"},{"name":"sender","type":"address","indexed":true,"internalType":"address"}],"anonymous":false},{"type":"error","name":"AccessControlBadConfirmation","inputs":[]},{"type":"error","name":"AccessControlUnauthorizedAccount","inputs":[{"name":"account","type":"address","internalType":"address"},{"name":"neededRole","type":"bytes32","internalType":"bytes32"}]},{"type":"error","name":"EnumerableMapNonexistentKey","inputs":[{"name":"key","type":"bytes32","internalType":"bytes32"}]},{"type":"error","name":"InvalidInitialization","inputs":[]},{"type":"error","name":"LBFactory__AddressZero","inputs":[]},{"type":"error","name":"LBFactory__AdminDoesExists","inputs":[{"name":"admin","type":"address","internalType":"address"}]},{"type":"error","name":"LBFactory__AdminDoesNotExists","inputs":[{"name":"admin","type":"address","internalType":"address"}]},{"type":"error","name":"LBFactory__BinStepHasNoPreset","inputs":[{"name":"binStep","type":"uint256","internalType":"uint256"}]},{"type":"error","name":"LBFactory__BinStepTooLow","inputs":[{"name":"binStep","type":"uint256","internalType":"uint256"}]},{"type":"error","name":"LBFactory__CannotGrantDefaultAdminRole","inputs":[]},{"type":"error","name":"LBFactory__FlashLoanFeeAboveMax","inputs":[{"name":"fees","type":"uint256","internalType":"uint256"},{"name":"maxFees","type":"uint256","internalType":"uint256"}]},{"type":"error","name":"LBFactory__IdenticalAddresses","inputs":[{"name":"token","type":"address","internalType":"contract IERC20"}]},{"type":"error","name":"LBFactory__ImplementationNotSet","inputs":[]},{"type":"error","name":"LBFactory__InvalidHooksParameters","inputs":[]},{"type":"error","name":"LBFactory__LBPairAlreadyExists","inputs":[{"name":"tokenX","type":"address","internalType":"contract IERC20"},{"name":"tokenY","type":"address","internalType":"contract IERC20"},{"name":"_binStep","type":"uint256","internalType":"uint256"}]},{"type":"error","name":"LBFactory__LBPairDoesNotExist","inputs":[{"name":"tokenX","type":"address","internalType":"contract IERC20"},{"name":"tokenY","type":"address","internalType":"contract IERC20"},{"name":"binStep","type":"uint256","internalType":"uint256"}]},{"type":"error","name":"LBFactory__LBPairIgnoredIsAlreadyInTheSameState","inputs":[]},{"type":"error","name":"LBFactory__LBPairNotCreated","inputs":[{"name":"tokenX","type":"address","internalType":"contract IERC20"},{"name":"tokenY","type":"address","internalType":"contract IERC20"},{"name":"binStep","type":"uint256","internalType":"uint256"}]},{"type":"error","name":"LBFactory__LBPairSafetyCheckFailed","inputs":[{"name":"LBPairImplementation","type":"address","internalType":"address"}]},{"type":"error","name":"LBFactory__PresetIsLockedForUsers","inputs":[{"name":"user","type":"address","internalType":"address"},{"name":"binStep","type":"uint256","internalType":"uint256"}]},{"type":"error","name":"LBFactory__PresetOpenStateIsAlreadyInTheSameState","inputs":[]},{"type":"error","name":"LBFactory__QuoteAssetAlreadyWhitelisted","inputs":[{"name":"quoteAsset","type":"address","internalType":"contract IERC20"}]},{"type":"error","name":"LBFactory__QuoteAssetNotWhitelisted","inputs":[{"name":"quoteAsset","type":"address","internalType":"contract IERC20"}]},{"type":"error","name":"LBFactory__SameFeeRecipient","inputs":[{"name":"feeRecipient","type":"address","internalType":"address"}]},{"type":"error","name":"LBFactory__SameFlashLoanFee","inputs":[{"name":"flashLoanFee","type":"uint256","internalType":"uint256"}]},{"type":"error","name":"LBFactory__SameHooksImplementation","inputs":[{"name":"hooksImplementation","type":"address","internalType":"address"}]},{"type":"error","name":"LBFactory__SameHooksParameters","inputs":[{"name":"hooksParameters","type":"bytes32","internalType":"bytes32"}]},{"type":"error","name":"LBFactory__SameImplementation","inputs":[{"name":"LBPairImplementation","type":"address","internalType":"address"}]},{"type":"error","name":"NotInitializing","inputs":[]},{"type":"error","name":"OwnableInvalidOwner","inputs":[{"name":"owner","type":"address","internalType":"address"}]},{"type":"error","name":"OwnableUnauthorizedAccount","inputs":[{"name":"account","type":"address","internalType":"address"}]},{"type":"error","name":"PairParametersHelper__InvalidParameter","inputs":[]},{"type":"error","name":"SafeCast__Exceeds16Bits","inputs":[]},{"type":"error","name":"Uint128x128Math__PowUnderflow","inputs":[{"name":"x","type":"uint256","internalType":"uint256"},{"name":"y","type":"int256","internalType":"int256"}]}],"bytecode":{"object":"0x608060405234801561001057600080fd5b5061408c806100206000396000f3fe60806040523480156200001157600080fd5b5060043610620003495760003560e01c8063704037bd11620001bd578063af3710651162000101578063e30c397811620000a3578063e9523c97116200007a578063e9523c97146200077c578063f2fde38b1462000795578063fd90c2be14620007ac57600080fd5b8063e30c39781462000744578063e74b981b146200074e578063e92d0d5d146200076557600080fd5b8063d547741f11620000d8578063d547741f14620006ff578063ddbfd9411462000716578063e203a31f146200072d57600080fd5b8063af37106514620006bf578063b038478114620006d1578063be20309414620006e857600080fd5b806380c5061e116200016b57806391d14854116200014257806391d14854146200064a578063a217fddf1462000661578063aabc4b3c146200066a57600080fd5b806380c5061e14620006275780638ce9aa1c14620006315780638da5cb5b146200064057600080fd5b8063715018a611620001a0578063715018a614620005fc57806379ba509714620006065780637daf5d66146200061057600080fd5b8063704037bd14620005bf5780637048027514620005e557600080fd5b8063379ee80311620002915780635a44092311620002335780636622e0d7116200020a5780636622e0d7146200057a57806369d56ea314620005a0578063701ab8c114620005b757600080fd5b80635a44092314620005425780635b35875c1462000559578063659ac74b146200056357600080fd5b80634ccb20c011620002685780634ccb20c014620005105780634cd161d314620005225780634e937c3a146200053957600080fd5b8063379ee80314620004cb5780633a2f1a9114620004e25780633c78a94114620004f957600080fd5b80631af5bacc11620002fb5780632cc06b8c11620002d25780632cc06b8c14620004865780632f2ff15d146200049d57806336568abe14620004b457600080fd5b80631af5bacc14620003f3578063248a9ca3146200042a57806327721842146200046f57600080fd5b80630752092b11620003305780630752092b1462000393578063093ff76914620003c35780631785f53c14620003dc57600080fd5b806301ffc9a7146200034e5780630282c9c1146200037a575b600080fd5b620003656200035f36600462003025565b620007b5565b60405190151581526020015b60405180910390f35b62000384620007ed565b60405162000371919062003051565b620003aa620003a436600462003097565b620008dd565b6040516001600160a01b03909116815260200162000371565b620003da620003d4366004620030ee565b620008ec565b005b620003da620003ed366004620031c1565b620009f9565b6200041b7fdcf4465aa60d92459eb361fac2489220ae3c524301cc0433c30a5d83e8fb0fa981565b60405190815260200162000371565b6200041b6200043b36600462003097565b60009081527f02dd7bc7dec4dceedda775e58dd541e08a116c6c53815c0bd028192f7b626800602052604090206001015490565b6200036562000480366004620031c1565b62000a73565b620003da62000497366004620031e1565b62000a82565b620003da620004ae3660046200322f565b62000ad5565b620003da620004c53660046200322f565b62000b1d565b620003da620004dc36600462003273565b62000b58565b620003da620004f33660046200332e565b62000c7f565b620003da6200050a366004620031c1565b62000d37565b6000546001600160a01b0316620003aa565b620003da62000533366004620033ea565b62000d99565b6003546200041b565b620003da62000553366004620031c1565b62000e71565b6200038462000ee9565b620003aa6200057436600462003422565b62000efc565b620005916200058b36600462003483565b6200148b565b604051620003719190620034b6565b620003da620005b13660046200352d565b62001636565b60016200041b565b620005d6620005d036600462003583565b620017e3565b604051620003719190620035c9565b620003da620005f6366004620031c1565b6200181c565b620003da620018be565b620003da620018d6565b620003aa6200062136600462003097565b62001924565b6200041b62001957565b67016345785d8a00006200041b565b620003aa62001965565b620003656200065b3660046200322f565b6200199a565b6200041b600081565b620006816200067b36600462003097565b62001a15565b604080519889526020890197909752958701949094526060860192909252608085015260a084015260c0830152151560e08201526101000162000371565b6002546001600160a01b0316620003aa565b620003da620006e2366004620031c1565b62001aea565b620003da620006f936600462003606565b62001c34565b620003da620007103660046200322f565b62001e04565b620003da62000727366004620031c1565b62001e4c565b620003da6200073e36600462003660565b62001ec4565b620003aa62001f36565b620003da6200075f366004620031c1565b62001f60565b620003da6200077636600462003097565b62001f75565b620007866200201f565b6040516200037191906200367e565b620003da620007a6366004620031c1565b620020de565b6001546200041b565b60006001600160e01b03198216637965db0b60e01b1480620007e757506301ffc9a760e01b6001600160e01b03198316145b92915050565b60606000620007fd600562002167565b90508015620008d9578067ffffffffffffffff811115620008225762000822620036c1565b6040519080825280602002602001820160405280156200084c578160200160208202803683370190505b5091506000805b82811015620008c9576000806200086c60058462002174565b90925090506200087c8162002192565b15620008b35781868581518110620008985762000898620036d7565b602090810291909101015283620008af8162003703565b9450505b505080620008c19062003703565b905062000853565b5081811015620008d7578083525b505b5090565b6000620007e76008836200219f565b620008f6620021ad565b6000620009098b8b8b61ffff16620021e3565b6020015190506001600160a01b038116620009595760405163b65ee95360e01b81526001600160a01b03808d1660048301528b16602482015261ffff8a1660448201526064015b60405180910390fd5b604051633329c28d60e11b815261ffff808a16600483015280891660248301528088166044830152808716606483015262ffffff808716608484015290851660a4830152831660c48201526001600160a01b03821690636653851a9060e401600060405180830381600087803b158015620009d357600080fd5b505af1158015620009e8573d6000803e3d6000fd5b505050505050505050505050505050565b62000a03620021ad565b62000a10600b826200228f565b62000a3a57604051637024ffb160e01b81526001600160a01b038216600482015260240162000950565b6040516001600160a01b0382169033907fdb9d5d31320daf5bc7181d565b6da4d12e30f0f4d5aa324a992426c14a1d19ce90600090a350565b6000620007e7600883620022a6565b7fdcf4465aa60d92459eb361fac2489220ae3c524301cc0433c30a5d83e8fb0fa962000aae81620022c9565b6040805160008082526020820190925262000acf91869186918691620022d5565b50505050565b60008281527f02dd7bc7dec4dceedda775e58dd541e08a116c6c53815c0bd028192f7b626800602052604090206001015462000b1181620022c9565b62000acf838362002429565b6001600160a01b038116331462000b475760405163334bd91960e11b815260040160405180910390fd5b62000b53828262002456565b505050565b62000b62620021ad565b60018961ffff16101562000b9057604051634f958e7160e01b815261ffff8a16600482015260240162000950565b600062000ba4818a8a8a8a8a8a8a620024f3565b9050811562000bbf5762000bbc81600160ff620025f8565b90505b62000bd1600561ffff8c168362002622565b506040805161ffff8b811682528a8116602083015289811682840152888116606083015262ffffff888116608084015287821660a0840152861660c08301529151918c16917f839844a256a87f87c9c835117d9a1c40be013954064c937072acb32d36db6a289181900360e00190a26040518215159061ffff8c16907f58a8b6a02b964cca2712e5a71d7b0d564a56b4a0f573b4c47f389341ade14cfd90600090a350505050505050505050565b7fdcf4465aa60d92459eb361fac2489220ae3c524301cc0433c30a5d83e8fb0fa962000cab81620022c9565b6001600160a01b038416158062000cca5750836001600160a01b031916155b1562000ce95760405163d43a15d160e01b815260040160405180910390fd5b62000d2e8787878787878080601f016020809104026020016040519081016040528093929190818152602001838380828437600092019190915250620022d592505050565b50505050505050565b62000d41620021ad565b806001600160a01b031663d3b9fbe46040518163ffffffff1660e01b8152600401600060405180830381600087803b15801562000d7d57600080fd5b505af115801562000d92573d6000803e3d6000fd5b5050505050565b62000da3620021ad565b62000db4600561ffff841662002631565b62000dd957604051637d9160bf60e11b815261ffff8316600482015260240162000950565b600062000dec600561ffff85166200263f565b905081151560ff82901c15150362000e17576040516311be38db60e11b815260040160405180910390fd5b62000e3861ffff841662000e2e838560ff620025f8565b6005919062002622565b506040518215159061ffff8516907f58a8b6a02b964cca2712e5a71d7b0d564a56b4a0f573b4c47f389341ade14cfd90600090a3505050565b62000e7b620021ad565b62000e886008826200264d565b62000eb2576040516303ce0ad960e01b81526001600160a01b038216600482015260240162000950565b6040516001600160a01b038216907f84cc2115995684dcb0cd3d3a9565e3d32f075de81db70c8dc3a719b2a47af67e90600090a250565b606062000ef7600562002664565b905090565b600062000f0f600561ffff841662002631565b62000f3457604051637d9160bf60e11b815261ffff8316600482015260240162000950565b600062000f47600561ffff85166200263f565b9050600062000f5562001965565b6001600160a01b0316336001600160a01b031614905062000f768262002192565b15801562000f82575080155b1562000fae576040516304fc2fe760e11b815233600482015261ffff8516602482015260440162000950565b62000fbb600887620022a6565b62000fe557604051638e888ef360e01b81526001600160a01b038716600482015260240162000950565b856001600160a01b0316876001600160a01b0316036200102457604051632f9b185360e01b81526001600160a01b038816600482015260240162000950565b62001030858562002673565b50600080620010408989620026b9565b90925090506001600160a01b0382166200106d57604051632573cfb960e21b815260040160405180910390fd5b6001600160a01b0382811660009081526004602090815260408083208585168452825280832061ffff8b1684529091529020546201000090041615620010e45760405163cb27a43560e01b81526001600160a01b03808b1660048301528916602482015261ffff8716604482015260640162000950565b6002546001600160a01b0316806200110f576040516328b4fcf960e21b815260040160405180910390fd5b60006200111c86620026e3565b6200112787620026f0565b620011328862002701565b6200113d8962002712565b620011488a62002723565b620011538b62002735565b6200115e8c62002746565b60405161ffff978816602482015295871660448701529386166064860152918516608485015262ffffff90811660a4850152931660c4830152821660e4820152908a166101048201526101240160408051601f198184030181529181526020820180517bffffffffffffffffffffffffffffffffffffffffffffffffffffffff166347973bff60e01b179052600d5490519192506001600160a01b0316908c908c908b9085906200120f9062003017565b6200121f95949392919062003767565b604051809103906000f0801580156200123c573d6000803e3d6000fd5b509650505060405180608001604052808761ffff168152602001866001600160a01b0316815260200184151581526020016000151581525060046000846001600160a01b03166001600160a01b031681526020019081526020016000206000836001600160a01b03166001600160a01b0316815260200190815260200160002060008861ffff16815260200190815260200160002060008201518160000160006101000a81548161ffff021916908361ffff16021790555060208201518160000160026101000a8154816001600160a01b0302191690836001600160a01b0316021790555060408201518160000160166101000a81548160ff02191690831515021790555060608201518160000160176101000a81548160ff0219169083151502179055509050506003859080600181540180825580915050600190039060005260206000200160009091909190916101000a8154816001600160a01b0302191690836001600160a01b031602179055506200140d8661ffff16600a6000856001600160a01b03166001600160a01b031681526020019081526020016000206000846001600160a01b03166001600160a01b031681526020019081526020016000206200275890919063ffffffff16565b508561ffff16886001600160a01b03168a6001600160a01b03167f2c8d104b27c6b7f4492017a6f5cf3803043688934ebcaa6a03540beeaf976aff8860016003805490506200145d9190620037b2565b604080516001600160a01b03909316835260208301919091520160405180910390a450505050949350505050565b60606000806200149c8585620026b9565b6001600160a01b038083166000908152600a602090815260408083209385168352929052908120929450909250620014d48262002766565b905080156200162c578067ffffffffffffffff811115620014f957620014f9620036c1565b6040519080825280602002602001820160405280156200154d57816020015b604080516080810182526000808252602080830182905292820181905260608201528252600019909201910181620015185790505b506001600160a01b03808616600090815260046020908152604080832093881683529290529081209196505b82811015620016295760006200159a6200159486846200219f565b62002771565b6040805160808101825261ffff831680825260008181526020888152848220546001600160a01b03620100008204168286015260ff600160b01b8204811615159686019690965292909152879052600160b81b900490911615156060820152895191925090899084908110620016145762001614620036d7565b60209081029190910101525060010162001579565b50505b5050505092915050565b62001640620021ad565b6000806200164f8686620026b9565b6001600160a01b0380831660009081526004602090815260408083208486168452825280832061ffff808c1685529083529281902081516080810183529054938416815262010000840490941691840182905260ff600160b01b84048116151591850191909152600160b81b90920490911615156060830152929450909250906200170b5760405163102a919160e21b81526001600160a01b0380891660048301528716602482015261ffff8616604482015260640162000950565b83151581606001511515036200173357604051626ee66560e11b815260040160405180910390fd5b6001600160a01b0380841660009081526004602090815260408083208685168452825280832061ffff8a1684528252918290208054881515600160b81b027fffffffffffffffff00ffffffffffffffffffffffffffffffffffffffffffffff90911617905583015190519116907f44cf35361c9ff3c8c1397ec6410d5495cc481feaef35c9af11da1a637107de4f90620017d290871515815260200190565b60405180910390a250505050505050565b60408051608081018252600080825260208201819052918101829052606081019190915262001814848484620021e3565b949350505050565b62001826620021ad565b6001600160a01b0381166200184e57604051632573cfb960e21b815260040160405180910390fd5b6200185b600b826200264d565b62001885576040516373b1d54760e11b81526001600160a01b038216600482015260240162000950565b6040516001600160a01b0382169033907fbf3f493c772c8c283fd124432c2d0f539ab343faa04258fe88e52912d36b102b90600090a350565b620018c8620021ad565b620018d460006200279c565b565b3380620018e262001f36565b6001600160a01b031614620019165760405163118cdaa760e01b81526001600160a01b038216600482015260240162000950565b62001921816200279c565b50565b6000600382815481106200193c576200193c620036d7565b6000918252602090912001546001600160a01b031692915050565b600062000ef7600862002766565b6000807f9016d09d72d40fdae2fd8ceac6b6234c7706214fd39c1cd1e609a0528c1993005b546001600160a01b031692915050565b600082620019c857620019ac62001965565b6001600160a01b0316826001600160a01b0316149050620007e7565b60008381527f02dd7bc7dec4dceedda775e58dd541e08a116c6c53815c0bd028192f7b626800602090815260408083206001600160a01b038616845290915290205460ff165b9392505050565b60008080808080808062001a2b60058a62002631565b62001a4d57604051637d9160bf60e11b8152600481018a905260240162000950565b600062001a5c60058b6200263f565b905062001a6981620026e3565b61ffff16985062001a7a81620026f0565b61ffff16975062001a8b8162002701565b61ffff16965062001a9c8162002712565b61ffff16955062001aad8162002723565b62ffffff16945062001abf8162002735565b61ffff16935062001ad08162002746565b62ffffff16925060ff81901c915050919395975091939597565b62001af4620021ad565b306001600160a01b0316816001600160a01b03166388cc58e46040518163ffffffff1660e01b8152600401602060405180830381865afa15801562001b3d573d6000803e3d6000fd5b505050506040513d601f19601f8201168201806040525081019062001b639190620037c8565b6001600160a01b03161462001b9757604051630a3e70af60e11b81526001600160a01b038216600482015260240162000950565b6002546001600160a01b03908116908216810362001bd457604051630ded3b9560e31b81526001600160a01b038316600482015260240162000950565b600280546001600160a01b0319166001600160a01b0384811691821790925560408051928416835260208301919091527f900d0e3d359f50e4f923ecdc06b401e07dbb9f485e17b07bcfc91a13000b277e91015b60405180910390a15050565b7ff0c57e16840df040f15088dc2f81fe391c3923bec73e23a9662efc9c229c6a00805468010000000000000000810460ff16159067ffffffffffffffff1660008115801562001c805750825b905060008267ffffffffffffffff16600114801562001c9e5750303b155b90508115801562001cad575080155b1562001ccc5760405163f92ee8a960e01b815260040160405180910390fd5b845467ffffffffffffffff19166001178555831562001d0157845468ff00000000000000001916680100000000000000001785555b62001d0c88620027da565b67016345785d8a000087111562001d4857604051635e8988c160e01b81526004810188905267016345785d8a0000602482015260440162000950565b62001d5389620027ef565b6001879055600d80546001600160a01b0319166001600160a01b0388161790556040805160008152602081018990527f5c34e91c94c78b662a45d0bd4a25a4e32c584c54a45a76e4a4d43be27ba40e50910160405180910390a1831562001df957845468ff000000000000000019168555604051600181527fc7f505b2f371ae2175ee4913f4499e1f2633a7b5936321eed1cdaeb6115181d29060200160405180910390a15b505050505050505050565b60008281527f02dd7bc7dec4dceedda775e58dd541e08a116c6c53815c0bd028192f7b626800602052604090206001015462001e4081620022c9565b62000acf838362002456565b62001e56620021ad565b62001e636008826200228f565b62001e8d57604051638e888ef360e01b81526001600160a01b038216600482015260240162000950565b6040516001600160a01b038216907f0b767739217755d8af5a2ba75b181a19fa1750f8bb701f09311cb19a90140cb390600090a250565b62001ece620021ad565b62001edf600561ffff8316620028b1565b62001f0457604051637d9160bf60e11b815261ffff8216600482015260240162000950565b60405161ffff8216907fdd86b848bb56ff540caa68683fa467d0e7eb5f8b2d44e4ee435742eeeae9be1390600090a250565b6000807f237e158222e3e6968b72b9db0d8043aacf074ad9f650f0d1606b4d82ee432c006200198a565b62001f6a620021ad565b6200192181620027ef565b62001f7f620021ad565b60015481810362001fa757604051631baa31e960e21b81526004810183905260240162000950565b67016345785d8a000082111562001fe357604051635e8988c160e01b81526004810183905267016345785d8a0000602482015260440162000950565b600182905560408051828152602081018490527f5c34e91c94c78b662a45d0bd4a25a4e32c584c54a45a76e4a4d43be27ba40e50910162001c28565b606060006200202f600b62002766565b905060008167ffffffffffffffff8111156200204f576200204f620036c1565b60405190808252806020026020018201604052801562002079578160200160208202803683370190505b50905060005b82811015620020d75762002095600b826200219f565b828281518110620020aa57620020aa620036d7565b6001600160a01b039092166020928302919091019091015280620020ce8162003703565b9150506200207f565b5092915050565b620020e8620021ad565b7f237e158222e3e6968b72b9db0d8043aacf074ad9f650f0d1606b4d82ee432c0080546001600160a01b0319166001600160a01b03831690811782556200212e62001965565b6001600160a01b03167f38d16b8cac22d99fc7c124b9cd0de2d3fa1faef420bfe791d8c362d765e2270060405160405180910390a35050565b6000620007e782620028bf565b6000808080620021858686620028cc565b9097909650945050505050565b600060ff82901c620007e7565b600062001a0e8383620028f9565b33620021b862001965565b6001600160a01b031614620018d45760405163118cdaa760e01b815233600482015260240162000950565b604080516080810182526000808252602082018190529181018290526060810191909152620022138484620026b9565b6001600160a01b03918216600090815260046020908152604080832093851683529281528282209582529485528190208151608081018352905461ffff811682526201000081049093169481019490945260ff600160b01b83048116151591850191909152600160b81b90910416151560608301525092915050565b600062001a0e836001600160a01b03841662002926565b6001600160a01b0381166000908152600183016020526040812054151562001a0e565b62001921813362002a1f565b6000620022e886868661ffff16620021e3565b6020015190506001600160a01b038116620023345760405163b65ee95360e01b81526001600160a01b0380881660048301528616602482015261ffff8516604482015260640162000950565b82816001600160a01b031663781a89156040518163ffffffff1660e01b8152600401602060405180830381865afa15801562002374573d6000803e3d6000fd5b505050506040513d601f19601f820116820180604052508101906200239a9190620037e8565b03620023bd5760405163b70cd0db60e01b81526004810184905260240162000950565b604051631b057f6d60e01b81526001600160a01b03821690631b057f6d90620023ed908690869060040162003802565b600060405180830381600087803b1580156200240857600080fd5b505af11580156200241d573d6000803e3d6000fd5b50505050505050505050565b6000826200244a57604051633e3253cf60e11b815260040160405180910390fd5b62001a0e838362002a5c565b60007f02dd7bc7dec4dceedda775e58dd541e08a116c6c53815c0bd028192f7b6268006200248584846200199a565b15620024e8576000848152602082815260408083206001600160a01b0387168085529252808320805460ff1916905551339287917ff6391f5c32d9c69d2a47ea670b442974b53935d1edc7fd64eb21e047a839171b9190a46001915050620007e7565b6000915050620007e7565b60008561ffff168761ffff161180620025115750610fff8661ffff16115b806200252257506127108561ffff16115b806200253357506109c48361ffff16115b80620025465750620fffff8262ffffff16115b156200256557604051631c07203f60e01b815260040160405180910390fd5b5060109590951b630fff00001661ffff9690961695909517601c9390931b64fff0000000169290921760289190911b663fff0000000000161760369190911b693fffffc00000000000001617604e9290921b6b0fffc00000000000000000001691909117605c9190911b6dfffff0000000000000000000000016176dffffffffffffffffffffffffffff19919091161790565b60006200181484846200260d57600062002610565b60015b600180861b19929092169116841b1790565b60006200181484848462002b0e565b600062001a0e838362002b2d565b600062001a0e838362002b3b565b600062001a0e836001600160a01b03841662002b87565b6060600062001a0e8362002bd9565b600061271071ffff00000000000000000000000000000000608084901b1604600160801b0162ffffff8416627fffff1901620026b0828262002be6565b95945050505050565b600080826001600160a01b0316846001600160a01b03161115620026db579192915b509192909150565b600061ffff8216620007e7565b6000620007e78260101c610fff1690565b6000620007e782601c1c610fff1690565b6000620007e78260281c613fff1690565b6000620007e78260361c62ffffff1690565b6000620007e782604e1c613fff1690565b6000620007e782605c1c620fffff1690565b600062001a0e838362002b87565b6000620007e7825490565b8061ffff8116811462002797576040516364ae406d60e01b815260040160405180910390fd5b919050565b7f237e158222e3e6968b72b9db0d8043aacf074ad9f650f0d1606b4d82ee432c0080546001600160a01b0319168155620027d68262002e6e565b5050565b620027e462002edf565b620019218162002f2e565b6001600160a01b0381166200281757604051632573cfb960e21b815260040160405180910390fd5b6000546001600160a01b0390811690821681036200285857600054604051634fcea97160e01b81526001600160a01b03909116600482015260240162000950565b600080546001600160a01b0319166001600160a01b0384811691821790925560408051928416835260208301919091527f15d80a013f22151bc7246e3bc132e12828cde19de98870475e3fa70840152721910162001c28565b600062001a0e838362002f64565b6000620007e78262002766565b60008080620028dc85856200219f565b600081815260029690960160205260409095205494959350505050565b6000826000018281548110620029135762002913620036d7565b9060005260206000200154905092915050565b60008181526001830160205260408120548015620024e85760006200294d600183620037b2565b85549091506000906200296390600190620037b2565b9050808214620029cf576000866000018281548110620029875762002987620036d7565b9060005260206000200154905080876000018481548110620029ad57620029ad620036d7565b6000918252602080832090910192909255918252600188019052604090208390555b8554869080620029e357620029e36200381d565b600190038181906000526020600020016000905590558560010160008681526020019081526020016000206000905560019350505050620007e7565b62002a2b82826200199a565b620027d65760405163e2517d3f60e01b81526001600160a01b03821660048201526024810183905260440162000950565b60007f02dd7bc7dec4dceedda775e58dd541e08a116c6c53815c0bd028192f7b62680062002a8b84846200199a565b620024e8576000848152602082815260408083206001600160a01b03871684529091529020805460ff1916600117905562002ac33390565b6001600160a01b0316836001600160a01b0316857f2f8788117e7eff1d82e926ec794901d17c78024a50270940304540a733656f0d60405160405180910390a46001915050620007e7565b6000828152600284016020526040812082905562001814848462002758565b600062001a0e838362002f83565b60008181526002830160205260408120548015801562002b64575062002b62848462002b2d565b155b1562001a0e5760405163015ab34360e11b81526004810184905260240162000950565b600081815260018301602052604081205462002bd057508154600181810184556000848152602080822090930184905584548482528286019093526040902091909155620007e7565b506000620007e7565b6060620007e78262002f9c565b60008060008360000362002c045750600160801b9150620007e79050565b5082600081121562002c17579015906000035b6210000081101562002e2657600160801b9250846fffffffffffffffffffffffffffffffff81111562002c4c57911591600019045b600182161562002c5e5792830260801c925b800260801c600282161562002c755792830260801c925b800260801c600482161562002c8c5792830260801c925b800260801c600882161562002ca35792830260801c925b800260801c601082161562002cba5792830260801c925b800260801c602082161562002cd15792830260801c925b800260801c604082161562002ce85792830260801c925b8002608090811c9082161562002d005792830260801c925b800260801c61010082161562002d185792830260801c925b800260801c61020082161562002d305792830260801c925b800260801c61040082161562002d485792830260801c925b800260801c61080082161562002d605792830260801c925b800260801c61100082161562002d785792830260801c925b800260801c61200082161562002d905792830260801c925b800260801c61400082161562002da85792830260801c925b800260801c61800082161562002dc05792830260801c925b800260801c6201000082161562002dd95792830260801c925b800260801c6202000082161562002df25792830260801c925b800260801c6204000082161562002e0b5792830260801c925b800260801c6208000082161562002e245792830260801c925b505b8260000362002e5357604051631dba598d60e11b8152600481018690526024810185905260440162000950565b8162002e605782620026b0565b620026b08360001962003833565b7f9016d09d72d40fdae2fd8ceac6b6234c7706214fd39c1cd1e609a0528c19930080546001600160a01b031981166001600160a01b03848116918217845560405192169182907f8be0079c531659141344cd1fd0a4f28419497f9722a3daafe3b4186f6b6457e090600090a3505050565b7ff0c57e16840df040f15088dc2f81fe391c3923bec73e23a9662efc9c229c6a005468010000000000000000900460ff16620018d457604051631afcd79f60e31b815260040160405180910390fd5b62002f3862002edf565b6001600160a01b0381166200191657604051631e4fbdf760e01b81526000600482015260240162000950565b6000818152600283016020526040812081905562001a0e838362002fab565b6000818152600183016020526040812054151562001a0e565b6060600062001a0e8362002fb9565b600062001a0e838362002926565b6060816000018054806020026020016040519081016040528092919081815260200182805480156200300b57602002820191906000526020600020905b81548152602001906001019080831162002ff6575b50505050509050919050565b610800806200385783390190565b6000602082840312156200303857600080fd5b81356001600160e01b03198116811462001a0e57600080fd5b6020808252825182820181905260009190848201906040850190845b818110156200308b578351835292840192918401916001016200306d565b50909695505050505050565b600060208284031215620030aa57600080fd5b5035919050565b6001600160a01b03811681146200192157600080fd5b803561ffff811681146200279757600080fd5b803562ffffff811681146200279757600080fd5b6000806000806000806000806000806101408b8d0312156200310f57600080fd5b8a356200311c81620030b1565b995060208b01356200312e81620030b1565b98506200313e60408c01620030c7565b97506200314e60608c01620030c7565b96506200315e60808c01620030c7565b95506200316e60a08c01620030c7565b94506200317e60c08c01620030c7565b93506200318e60e08c01620030da565b92506200319f6101008c01620030c7565b9150620031b06101208c01620030da565b90509295989b9194979a5092959850565b600060208284031215620031d457600080fd5b813562001a0e81620030b1565b600080600060608486031215620031f757600080fd5b83356200320481620030b1565b925060208401356200321681620030b1565b91506200322660408501620030c7565b90509250925092565b600080604083850312156200324357600080fd5b8235915060208301356200325781620030b1565b809150509250929050565b803580151581146200279757600080fd5b60008060008060008060008060006101208a8c0312156200329357600080fd5b6200329e8a620030c7565b9850620032ae60208b01620030c7565b9750620032be60408b01620030c7565b9650620032ce60608b01620030c7565b9550620032de60808b01620030c7565b9450620032ee60a08b01620030da565b9350620032fe60c08b01620030c7565b92506200330e60e08b01620030da565b91506200331f6101008b0162003262565b90509295985092959850929598565b60008060008060008060a087890312156200334857600080fd5b86356200335581620030b1565b955060208701356200336781620030b1565b94506200337760408801620030c7565b935060608701359250608087013567ffffffffffffffff808211156200339c57600080fd5b818901915089601f830112620033b157600080fd5b813581811115620033c157600080fd5b8a6020828501011115620033d457600080fd5b6020830194508093505050509295509295509295565b60008060408385031215620033fe57600080fd5b6200340983620030c7565b9150620034196020840162003262565b90509250929050565b600080600080608085870312156200343957600080fd5b84356200344681620030b1565b935060208501356200345881620030b1565b92506200346860408601620030da565b91506200347860608601620030c7565b905092959194509250565b600080604083850312156200349757600080fd5b8235620034a481620030b1565b915060208301356200325781620030b1565b6020808252825182820181905260009190848201906040850190845b818110156200308b576200351983855161ffff81511682526001600160a01b0360208201511660208301526040810151151560408301526060810151151560608301525050565b9284019260809290920191600101620034d2565b600080600080608085870312156200354457600080fd5b84356200355181620030b1565b935060208501356200356381620030b1565b92506200357360408601620030c7565b9150620034786060860162003262565b6000806000606084860312156200359957600080fd5b8335620035a681620030b1565b92506020840135620035b881620030b1565b929592945050506040919091013590565b815161ffff1681526020808301516001600160a01b03169082015260408083015115159082015260608083015115159082015260808101620007e7565b600080600080608085870312156200361d57600080fd5b84356200362a81620030b1565b935060208501356200363c81620030b1565b92506040850135915060608501356200365581620030b1565b939692955090935050565b6000602082840312156200367357600080fd5b62001a0e82620030c7565b6020808252825182820181905260009190848201906040850190845b818110156200308b5783516001600160a01b0316835292840192918401916001016200369a565b634e487b7160e01b600052604160045260246000fd5b634e487b7160e01b600052603260045260246000fd5b634e487b7160e01b600052601160045260246000fd5b600060018201620037185762003718620036ed565b5060010190565b6000815180845260005b81811015620037475760208185018101518683018201520162003729565b506000602082860101526020601f19601f83011685010191505092915050565b60006001600160a01b038088168352808716602084015280861660408401525061ffff8416606083015260a06080830152620037a760a08301846200371f565b979650505050505050565b81810381811115620007e757620007e7620036ed565b600060208284031215620037db57600080fd5b815162001a0e81620030b1565b600060208284031215620037fb57600080fd5b5051919050565b8281526040602082015260006200181460408301846200371f565b634e487b7160e01b600052603160045260246000fd5b6000826200385157634e487b7160e01b600052601260045260246000fd5b50049056fe60a0604052604051610800380380610800833981016040819052610022916104c4565b604080516020810190915260008152859061003d8282610179565b506001600160a01b0316608052600061007760017f73ef95b1b141b4aeb11976757a225324c423bf4634f4361553b9b059a82050bb6105bf565b60405160200161008991815260200190565b60408051601f198184030181529190528051602090910120905060006100d060017f039c6157caeca9b57df712b1365b48c637c526ae0a75b2c95cd3622e6ffda4fd6105bf565b6040516020016100e291815260200190565b60408051601f1981840301815291905280516020909101209050600061012960017fd1a1c4c8365fed7323947e7cb6a7be46aba18d67bc4a4c5418b50b8bbf5a31856105bf565b60405160200161013b91815260200190565b60405160208183030381529060405280519060200120905086835585825584815561016c888561017960201b60201c565b5050505050505050610617565b61018282610239565b6040516001600160a01b038316907f1cf3b03a6cf19fa2baba4df148e9dcabedea7f8a5c07840e207e5c089be95d3e90600090a280511561022d57610228826001600160a01b0316635c60da1b6040518163ffffffff1660e01b8152600401602060405180830381865afa1580156101fe573d6000803e3d6000fd5b505050506040513d601f19601f8201168201806040525081019061022291906105e0565b8261034c565b505050565b6102356103c5565b5050565b806001600160a01b03163b60000361027457604051631933b43b60e21b81526001600160a01b03821660048201526024015b60405180910390fd5b807fa3f0ad74e5423aebfd80d3ef4346578335a9a72aeaee59ff6cb3582b35133d5080546001600160a01b0319166001600160a01b0392831617905560408051635c60da1b60e01b81529051600092841691635c60da1b9160048083019260209291908290030181865afa1580156102f0573d6000803e3d6000fd5b505050506040513d601f19601f8201168201806040525081019061031491906105e0565b9050806001600160a01b03163b60000361023557604051634c9c8ce360e01b81526001600160a01b038216600482015260240161026b565b6060600080846001600160a01b03168460405161036991906105fb565b600060405180830381855af49150503d80600081146103a4576040519150601f19603f3d011682016040523d82523d6000602084013e6103a9565b606091505b5090925090506103ba8583836103e6565b925050505b92915050565b34156103e45760405163b398979f60e01b815260040160405180910390fd5b565b6060826103fb576103f682610445565b61043e565b815115801561041257506001600160a01b0384163b155b1561043b57604051639996b31560e01b81526001600160a01b038516600482015260240161026b565b50805b9392505050565b8051156104555780518082602001fd5b604051630a12f52160e11b815260040160405180910390fd5b80516001600160a01b038116811461048557600080fd5b919050565b634e487b7160e01b600052604160045260246000fd5b60005b838110156104bb5781810151838201526020016104a3565b50506000910152565b600080600080600060a086880312156104dc57600080fd5b6104e58661046e565b94506104f36020870161046e565b93506105016040870161046e565b9250606086015161ffff8116811461051857600080fd5b60808701519092506001600160401b038082111561053557600080fd5b818801915088601f83011261054957600080fd5b81518181111561055b5761055b61048a565b604051601f8201601f19908116603f011681019083821181831017156105835761058361048a565b816040528281528b602084870101111561059c57600080fd5b6105ad8360208301602088016104a0565b80955050505050509295509295909350565b818103818111156103bf57634e487b7160e01b600052601160045260246000fd5b6000602082840312156105f257600080fd5b61043e8261046e565b6000825161060d8184602087016104a0565b9190910192915050565b6080516101c9610637600039600081816042015260a501526101c96000f3fe6080604052600436106100225760003560e01c80632d6b3a6b1461003357610029565b3661002957005b61003161008a565b005b34801561003f57600080fd5b507f000000000000000000000000000000000000000000000000000000000000000060405173ffffffffffffffffffffffffffffffffffffffff909116815260200160405180910390f35b61009a6100956100a1565b610132565b565b905090565b60007f000000000000000000000000000000000000000000000000000000000000000073ffffffffffffffffffffffffffffffffffffffff16635c60da1b6040518163ffffffff1660e01b8152600401602060405180830381865afa15801561010e573d6000803e3d6000fd5b505050506040513d601f19601f8201168201806040525081019061009c9190610156565b3660008037600080366000845af43d6000803e808015610151573d6000f35b3d6000fd5b60006020828403121561016857600080fd5b815173ffffffffffffffffffffffffffffffffffffffff8116811461018c57600080fd5b939250505056fea26469706673582212209029a9df93b38c5180757e442cdfa31315e1d88c491e45a5c6e2b787c153fbd564736f6c63430008140033a2646970667358221220156db84f77be3bf7132f57a6d694eb5abb7692d11f94204cf73a6a364e83da3164736f6c63430008140033","linkReferences":{}},"methodIdentifiers":{"DEFAULT_ADMIN_ROLE()":"a217fddf","LB_HOOKS_MANAGER_ROLE()":"1af5bacc","acceptOwnership()":"79ba5097","addAdmin(address)":"70480275","addQuoteAsset(address)":"5a440923","createLBPair(address,address,uint24,uint16)":"659ac74b","forceDecay(address)":"3c78a941","getAllAdmins()":"e9523c97","getAllBinSteps()":"5b35875c","getAllLBPairs(address,address)":"6622e0d7","getFeeRecipient()":"4ccb20c0","getFlashLoanFee()":"fd90c2be","getLBPairAtIndex(uint256)":"7daf5d66","getLBPairImplementation()":"af371065","getLBPairInformation(address,address,uint256)":"704037bd","getMaxFlashLoanFee()":"8ce9aa1c","getMinBinStep()":"701ab8c1","getNumberOfLBPairs()":"4e937c3a","getNumberOfQuoteAssets()":"80c5061e","getOpenBinSteps()":"0282c9c1","getPreset(uint256)":"aabc4b3c","getQuoteAssetAtIndex(uint256)":"0752092b","getRoleAdmin(bytes32)":"248a9ca3","grantRole(bytes32,address)":"2f2ff15d","hasRole(bytes32,address)":"91d14854","initialize(address,address,uint256,address)":"be203094","isQuoteAsset(address)":"27721842","owner()":"8da5cb5b","pendingOwner()":"e30c3978","removeAdmin(address)":"1785f53c","removeLBHooksOnPair(address,address,uint16)":"2cc06b8c","removePreset(uint16)":"e203a31f","removeQuoteAsset(address)":"ddbfd941","renounceOwnership()":"715018a6","renounceRole(bytes32,address)":"36568abe","revokeRole(bytes32,address)":"d547741f","setFeeRecipient(address)":"e74b981b","setFeesParametersOnPair(address,address,uint16,uint16,uint16,uint16,uint16,uint24,uint16,uint24)":"093ff769","setFlashLoanFee(uint256)":"e92d0d5d","setLBHooksParametersOnPair(address,address,uint16,bytes32,bytes)":"3a2f1a91","setLBPairIgnored(address,address,uint16,bool)":"69d56ea3","setLBPairImplementation(address)":"b0384781","setPreset(uint16,uint16,uint16,uint16,uint16,uint24,uint16,uint24,bool)":"379ee803","setPresetOpenState(uint16,bool)":"4cd161d3","supportsInterface(bytes4)":"01ffc9a7","transferOwnership(address)":"f2fde38b"},"id":54}