{
  "abi": [
    {
      "inputs": [],
      "stateMutability": "nonpayable",
      "type": "constructor"
    },
    {
      "inputs": [],
      "name": "AccessControlBadConfirmation",
      "type": "error"
    },
    {
      "inputs": [
        {
          "internalType": "address",
          "name": "account",
          "type": "address"
        },
        {
          "internalType": "bytes32",
          "name": "neededRole",
          "type": "bytes32"
        }
      ],
      "name": "AccessControlUnauthorizedAccount",
      "type": "error"
    },
    {
      "inputs": [
        {
          "internalType": "bytes32",
          "name": "key",
          "type": "bytes32"
        }
      ],
      "name": "EnumerableMapNonexistentKey",
      "type": "error"
    },
    {
      "inputs": [],
      "name": "InvalidInitialization",
      "type": "error"
    },
    {
      "inputs": [],
      "name": "LBFactory__AddressZero",
      "type": "error"
    },
    {
      "inputs": [
        {
          "internalType": "uint256",
          "name": "binStep",
          "type": "uint256"
        }
      ],
      "name": "LBFactory__BinStepHasNoPreset",
      "type": "error"
    },
    {
      "inputs": [
        {
          "internalType": "uint256",
          "name": "binStep",
          "type": "uint256"
        }
      ],
      "name": "LBFactory__BinStepTooLow",
      "type": "error"
    },
    {
      "inputs": [],
      "name": "LBFactory__CannotGrantDefaultAdminRole",
      "type": "error"
    },
    {
      "inputs": [
        {
          "internalType": "uint256",
          "name": "fees",
          "type": "uint256"
        },
        {
          "internalType": "uint256",
          "name": "maxFees",
          "type": "uint256"
        }
      ],
      "name": "LBFactory__FlashLoanFeeAboveMax",
      "type": "error"
    },
    {
      "inputs": [
        {
          "internalType": "contract IERC20",
          "name": "token",
          "type": "address"
        }
      ],
      "name": "LBFactory__IdenticalAddresses",
      "type": "error"
    },
    {
      "inputs": [],
      "name": "LBFactory__InvalidHooksParameters",
      "type": "error"
    },
    {
      "inputs": [
        {
          "internalType": "contract IERC20",
          "name": "tokenX",
          "type": "address"
        },
        {
          "internalType": "contract IERC20",
          "name": "tokenY",
          "type": "address"
        },
        {
          "internalType": "uint256",
          "name": "_binStep",
          "type": "uint256"
        }
      ],
      "name": "LBFactory__LBPairAlreadyExists",
      "type": "error"
    },
    {
      "inputs": [
        {
          "internalType": "contract IERC20",
          "name": "tokenX",
          "type": "address"
        },
        {
          "internalType": "contract IERC20",
          "name": "tokenY",
          "type": "address"
        },
        {
          "internalType": "uint256",
          "name": "binStep",
          "type": "uint256"
        }
      ],
      "name": "LBFactory__LBPairDoesNotExist",
      "type": "error"
    },
    {
      "inputs": [],
      "name": "LBFactory__LBPairIgnoredIsAlreadyInTheSameState",
      "type": "error"
    },
    {
      "inputs": [
        {
          "internalType": "contract IERC20",
          "name": "tokenX",
          "type": "address"
        },
        {
          "internalType": "contract IERC20",
          "name": "tokenY",
          "type": "address"
        },
        {
          "internalType": "uint256",
          "name": "binStep",
          "type": "uint256"
        }
      ],
      "name": "LBFactory__LBPairNotCreated",
      "type": "error"
    },
    {
      "inputs": [
        {
          "internalType": "address",
          "name": "LBPairImplementation",
          "type": "address"
        }
      ],
      "name": "LBFactory__LBPairSafetyCheckFailed",
      "type": "error"
    },
    {
      "inputs": [
        {
          "internalType": "address",
          "name": "user",
          "type": "address"
        },
        {
          "internalType": "uint256",
          "name": "binStep",
          "type": "uint256"
        }
      ],
      "name": "LBFactory__PresetIsLockedForUsers",
      "type": "error"
    },
    {
      "inputs": [],
      "name": "LBFactory__PresetOpenStateIsAlreadyInTheSameState",
      "type": "error"
    },
    {
      "inputs": [
        {
          "internalType": "contract IERC20",
          "name": "quoteAsset",
          "type": "address"
        }
      ],
      "name": "LBFactory__QuoteAssetAlreadyWhitelisted",
      "type": "error"
    },
    {
      "inputs": [
        {
          "internalType": "contract IERC20",
          "name": "quoteAsset",
          "type": "address"
        }
      ],
      "name": "LBFactory__QuoteAssetNotWhitelisted",
      "type": "error"
    },
    {
      "inputs": [
        {
          "internalType": "address",
          "name": "feeRecipient",
          "type": "address"
        }
      ],
      "name": "LBFactory__SameFeeRecipient",
      "type": "error"
    },
    {
      "inputs": [
        {
          "internalType": "uint256",
          "name": "flashLoanFee",
          "type": "uint256"
        }
      ],
      "name": "LBFactory__SameFlashLoanFee",
      "type": "error"
    },
    {
      "inputs": [
        {
          "internalType": "address",
          "name": "hooksImplementation",
          "type": "address"
        }
      ],
      "name": "LBFactory__SameHooksImplementation",
      "type": "error"
    },
    {
      "inputs": [
        {
          "internalType": "bytes32",
          "name": "hooksParameters",
          "type": "bytes32"
        }
      ],
      "name": "LBFactory__SameHooksParameters",
      "type": "error"
    },
    {
      "inputs": [
        {
          "internalType": "address",
          "name": "LBPairImplementation",
          "type": "address"
        }
      ],
      "name": "LBFactory__SameImplementation",
      "type": "error"
    },
    {
      "inputs": [],
      "name": "NotInitializing",
      "type": "error"
    },
    {
      "inputs": [
        {
          "internalType": "address",
          "name": "owner",
          "type": "address"
        }
      ],
      "name": "OwnableInvalidOwner",
      "type": "error"
    },
    {
      "inputs": [
        {
          "internalType": "address",
          "name": "account",
          "type": "address"
        }
      ],
      "name": "OwnableUnauthorizedAccount",
      "type": "error"
    },
    {
      "inputs": [],
      "name": "PairParametersHelper__InvalidParameter",
      "type": "error"
    },
    {
      "inputs": [],
      "name": "SafeCast__Exceeds16Bits",
      "type": "error"
    },
    {
      "inputs": [
        {
          "internalType": "uint256",
          "name": "x",
          "type": "uint256"
        },
        {
          "internalType": "int256",
          "name": "y",
          "type": "int256"
        }
      ],
      "name": "Uint128x128Math__PowUnderflow",
      "type": "error"
    },
    {
      "anonymous": false,
      "inputs": [
        {
          "indexed": false,
          "internalType": "address",
          "name": "oldRecipient",
          "type": "address"
        },
        {
          "indexed": false,
          "internalType": "address",
          "name": "newRecipient",
          "type": "address"
        }
      ],
      "name": "FeeRecipientSet",
      "type": "event"
    },
    {
      "anonymous": false,
      "inputs": [
        {
          "indexed": false,
          "internalType": "uint256",
          "name": "oldFlashLoanFee",
          "type": "uint256"
        },
        {
          "indexed": false,
          "internalType": "uint256",
          "name": "newFlashLoanFee",
          "type": "uint256"
        }
      ],
      "name": "FlashLoanFeeSet",
      "type": "event"
    },
    {
      "anonymous": false,
      "inputs": [
        {
          "indexed": false,
          "internalType": "uint64",
          "name": "version",
          "type": "uint64"
        }
      ],
      "name": "Initialized",
      "type": "event"
    },
    {
      "anonymous": false,
      "inputs": [
        {
          "indexed": true,
          "internalType": "contract IERC20",
          "name": "tokenX",
          "type": "address"
        },
        {
          "indexed": true,
          "internalType": "contract IERC20",
          "name": "tokenY",
          "type": "address"
        },
        {
          "indexed": true,
          "internalType": "uint256",
          "name": "binStep",
          "type": "uint256"
        },
        {
          "indexed": false,
          "internalType": "contract ILBPair",
          "name": "LBPair",
          "type": "address"
        },
        {
          "indexed": false,
          "internalType": "uint256",
          "name": "pid",
          "type": "uint256"
        }
      ],
      "name": "LBPairCreated",
      "type": "event"
    },
    {
      "anonymous": false,
      "inputs": [
        {
          "indexed": true,
          "internalType": "contract ILBPair",
          "name": "LBPair",
          "type": "address"
        },
        {
          "indexed": false,
          "internalType": "bool",
          "name": "ignored",
          "type": "bool"
        }
      ],
      "name": "LBPairIgnoredStateChanged",
      "type": "event"
    },
    {
      "anonymous": false,
      "inputs": [
        {
          "indexed": false,
          "internalType": "address",
          "name": "oldLBPairImplementation",
          "type": "address"
        },
        {
          "indexed": false,
          "internalType": "address",
          "name": "LBPairImplementation",
          "type": "address"
        }
      ],
      "name": "LBPairImplementationSet",
      "type": "event"
    },
    {
      "anonymous": false,
      "inputs": [
        {
          "indexed": true,
          "internalType": "address",
          "name": "previousOwner",
          "type": "address"
        },
        {
          "indexed": true,
          "internalType": "address",
          "name": "newOwner",
          "type": "address"
        }
      ],
      "name": "OwnershipTransferStarted",
      "type": "event"
    },
    {
      "anonymous": false,
      "inputs": [
        {
          "indexed": true,
          "internalType": "address",
          "name": "previousOwner",
          "type": "address"
        },
        {
          "indexed": true,
          "internalType": "address",
          "name": "newOwner",
          "type": "address"
        }
      ],
      "name": "OwnershipTransferred",
      "type": "event"
    },
    {
      "anonymous": false,
      "inputs": [
        {
          "indexed": true,
          "internalType": "uint256",
          "name": "binStep",
          "type": "uint256"
        },
        {
          "indexed": true,
          "internalType": "bool",
          "name": "isOpen",
          "type": "bool"
        }
      ],
      "name": "PresetOpenStateChanged",
      "type": "event"
    },
    {
      "anonymous": false,
      "inputs": [
        {
          "indexed": true,
          "internalType": "uint256",
          "name": "binStep",
          "type": "uint256"
        }
      ],
      "name": "PresetRemoved",
      "type": "event"
    },
    {
      "anonymous": false,
      "inputs": [
        {
          "indexed": true,
          "internalType": "uint256",
          "name": "binStep",
          "type": "uint256"
        },
        {
          "indexed": false,
          "internalType": "uint256",
          "name": "baseFactor",
          "type": "uint256"
        },
        {
          "indexed": false,
          "internalType": "uint256",
          "name": "filterPeriod",
          "type": "uint256"
        },
        {
          "indexed": false,
          "internalType": "uint256",
          "name": "decayPeriod",
          "type": "uint256"
        },
        {
          "indexed": false,
          "internalType": "uint256",
          "name": "reductionFactor",
          "type": "uint256"
        },
        {
          "indexed": false,
          "internalType": "uint256",
          "name": "variableFeeControl",
          "type": "uint256"
        },
        {
          "indexed": false,
          "internalType": "uint256",
          "name": "protocolShare",
          "type": "uint256"
        },
        {
          "indexed": false,
          "internalType": "uint256",
          "name": "maxVolatilityAccumulator",
          "type": "uint256"
        }
      ],
      "name": "PresetSet",
      "type": "event"
    },
    {
      "anonymous": false,
      "inputs": [
        {
          "indexed": true,
          "internalType": "contract IERC20",
          "name": "quoteAsset",
          "type": "address"
        }
      ],
      "name": "QuoteAssetAdded",
      "type": "event"
    },
    {
      "anonymous": false,
      "inputs": [
        {
          "indexed": true,
          "internalType": "contract IERC20",
          "name": "quoteAsset",
          "type": "address"
        }
      ],
      "name": "QuoteAssetRemoved",
      "type": "event"
    },
    {
      "anonymous": false,
      "inputs": [
        {
          "indexed": true,
          "internalType": "bytes32",
          "name": "role",
          "type": "bytes32"
        },
        {
          "indexed": true,
          "internalType": "bytes32",
          "name": "previousAdminRole",
          "type": "bytes32"
        },
        {
          "indexed": true,
          "internalType": "bytes32",
          "name": "newAdminRole",
          "type": "bytes32"
        }
      ],
      "name": "RoleAdminChanged",
      "type": "event"
    },
    {
      "anonymous": false,
      "inputs": [
        {
          "indexed": true,
          "internalType": "bytes32",
          "name": "role",
          "type": "bytes32"
        },
        {
          "indexed": true,
          "internalType": "address",
          "name": "account",
          "type": "address"
        },
        {
          "indexed": true,
          "internalType": "address",
          "name": "sender",
          "type": "address"
        }
      ],
      "name": "RoleGranted",
      "type": "event"
    },
    {
      "anonymous": false,
      "inputs": [
        {
          "indexed": true,
          "internalType": "bytes32",
          "name": "role",
          "type": "bytes32"
        },
        {
          "indexed": true,
          "internalType": "address",
          "name": "account",
          "type": "address"
        },
        {
          "indexed": true,
          "internalType": "address",
          "name": "sender",
          "type": "address"
        }
      ],
      "name": "RoleRevoked",
      "type": "event"
    },
    {
      "inputs": [],
      "name": "DEFAULT_ADMIN_ROLE",
      "outputs": [
        {
          "internalType": "bytes32",
          "name": "",
          "type": "bytes32"
        }
      ],
      "stateMutability": "view",
      "type": "function"
    },
    {
      "inputs": [],
      "name": "LB_HOOKS_MANAGER_ROLE",
      "outputs": [
        {
          "internalType": "bytes32",
          "name": "",
          "type": "bytes32"
        }
      ],
      "stateMutability": "view",
      "type": "function"
    },
    {
      "inputs": [],
      "name": "LB_PAIR_BEACON_IMPLEMENTATION_PAUSER_ROLE",
      "outputs": [
        {
          "internalType": "bytes32",
          "name": "",
          "type": "bytes32"
        }
      ],
      "stateMutability": "view",
      "type": "function"
    },
    {
      "inputs": [],
      "name": "acceptOwnership",
      "outputs": [],
      "stateMutability": "nonpayable",
      "type": "function"
    },
    {
      "inputs": [
        {
          "internalType": "contract IERC20",
          "name": "quoteAsset",
          "type": "address"
        }
      ],
      "name": "addQuoteAsset",
      "outputs": [],
      "stateMutability": "nonpayable",
      "type": "function"
    },
    {
      "inputs": [
        {
          "internalType": "contract IERC20",
          "name": "tokenX",
          "type": "address"
        },
        {
          "internalType": "contract IERC20",
          "name": "tokenY",
          "type": "address"
        },
        {
          "internalType": "uint24",
          "name": "activeId",
          "type": "uint24"
        },
        {
          "internalType": "uint16",
          "name": "binStep",
          "type": "uint16"
        }
      ],
      "name": "createLBPair",
      "outputs": [
        {
          "internalType": "contract ILBPair",
          "name": "pair",
          "type": "address"
        }
      ],
      "stateMutability": "nonpayable",
      "type": "function"
    },
    {
      "inputs": [
        {
          "internalType": "contract ILBPair",
          "name": "pair",
          "type": "address"
        }
      ],
      "name": "forceDecay",
      "outputs": [],
      "stateMutability": "nonpayable",
      "type": "function"
    },
    {
      "inputs": [],
      "name": "getAllBinSteps",
      "outputs": [
        {
          "internalType": "uint256[]",
          "name": "binStepWithPreset",
          "type": "uint256[]"
        }
      ],
      "stateMutability": "view",
      "type": "function"
    },
    {
      "inputs": [
        {
          "internalType": "contract IERC20",
          "name": "tokenX",
          "type": "address"
        },
        {
          "internalType": "contract IERC20",
          "name": "tokenY",
          "type": "address"
        }
      ],
      "name": "getAllLBPairs",
      "outputs": [
        {
          "components": [
            {
              "internalType": "uint16",
              "name": "binStep",
              "type": "uint16"
            },
            {
              "internalType": "contract ILBPair",
              "name": "LBPair",
              "type": "address"
            },
            {
              "internalType": "bool",
              "name": "createdByOwner",
              "type": "bool"
            },
            {
              "internalType": "bool",
              "name": "ignoredForRouting",
              "type": "bool"
            }
          ],
          "internalType": "struct ILBFactory.LBPairInformation[]",
          "name": "lbPairsAvailable",
          "type": "tuple[]"
        }
      ],
      "stateMutability": "view",
      "type": "function"
    },
    {
      "inputs": [],
      "name": "getFeeRecipient",
      "outputs": [
        {
          "internalType": "address",
          "name": "feeRecipient",
          "type": "address"
        }
      ],
      "stateMutability": "view",
      "type": "function"
    },
    {
      "inputs": [],
      "name": "getFlashLoanFee",
      "outputs": [
        {
          "internalType": "uint256",
          "name": "flashLoanFee",
          "type": "uint256"
        }
      ],
      "stateMutability": "view",
      "type": "function"
    },
    {
      "inputs": [
        {
          "internalType": "uint256",
          "name": "index",
          "type": "uint256"
        }
      ],
      "name": "getLBPairAtIndex",
      "outputs": [
        {
          "internalType": "contract ILBPair",
          "name": "lbPair",
          "type": "address"
        }
      ],
      "stateMutability": "view",
      "type": "function"
    },
    {
      "inputs": [],
      "name": "getLBPairBeacon",
      "outputs": [
        {
          "internalType": "address",
          "name": "lbPairBeacon",
          "type": "address"
        }
      ],
      "stateMutability": "view",
      "type": "function"
    },
    {
      "inputs": [
        {
          "internalType": "contract IERC20",
          "name": "tokenA",
          "type": "address"
        },
        {
          "internalType": "contract IERC20",
          "name": "tokenB",
          "type": "address"
        },
        {
          "internalType": "uint256",
          "name": "binStep",
          "type": "uint256"
        }
      ],
      "name": "getLBPairInformation",
      "outputs": [
        {
          "components": [
            {
              "internalType": "uint16",
              "name": "binStep",
              "type": "uint16"
            },
            {
              "internalType": "contract ILBPair",
              "name": "LBPair",
              "type": "address"
            },
            {
              "internalType": "bool",
              "name": "createdByOwner",
              "type": "bool"
            },
            {
              "internalType": "bool",
              "name": "ignoredForRouting",
              "type": "bool"
            }
          ],
          "internalType": "struct ILBFactory.LBPairInformation",
          "name": "lbPairInformation",
          "type": "tuple"
        }
      ],
      "stateMutability": "view",
      "type": "function"
    },
    {
      "inputs": [],
      "name": "getMaxFlashLoanFee",
      "outputs": [
        {
          "internalType": "uint256",
          "name": "maxFee",
          "type": "uint256"
        }
      ],
      "stateMutability": "pure",
      "type": "function"
    },
    {
      "inputs": [],
      "name": "getMinBinStep",
      "outputs": [
        {
          "internalType": "uint256",
          "name": "minBinStep",
          "type": "uint256"
        }
      ],
      "stateMutability": "pure",
      "type": "function"
    },
    {
      "inputs": [],
      "name": "getNumberOfLBPairs",
      "outputs": [
        {
          "internalType": "uint256",
          "name": "lbPairNumber",
          "type": "uint256"
        }
      ],
      "stateMutability": "view",
      "type": "function"
    },
    {
      "inputs": [],
      "name": "getNumberOfQuoteAssets",
      "outputs": [
        {
          "internalType": "uint256",
          "name": "numberOfQuoteAssets",
          "type": "uint256"
        }
      ],
      "stateMutability": "view",
      "type": "function"
    },
    {
      "inputs": [],
      "name": "getOpenBinSteps",
      "outputs": [
        {
          "internalType": "uint256[]",
          "name": "openBinStep",
          "type": "uint256[]"
        }
      ],
      "stateMutability": "view",
      "type": "function"
    },
    {
      "inputs": [],
      "name": "getPauserRole",
      "outputs": [
        {
          "internalType": "bytes32",
          "name": "",
          "type": "bytes32"
        }
      ],
      "stateMutability": "pure",
      "type": "function"
    },
    {
      "inputs": [
        {
          "internalType": "uint256",
          "name": "binStep",
          "type": "uint256"
        }
      ],
      "name": "getPreset",
      "outputs": [
        {
          "internalType": "uint256",
          "name": "baseFactor",
          "type": "uint256"
        },
        {
          "internalType": "uint256",
          "name": "filterPeriod",
          "type": "uint256"
        },
        {
          "internalType": "uint256",
          "name": "decayPeriod",
          "type": "uint256"
        },
        {
          "internalType": "uint256",
          "name": "reductionFactor",
          "type": "uint256"
        },
        {
          "internalType": "uint256",
          "name": "variableFeeControl",
          "type": "uint256"
        },
        {
          "internalType": "uint256",
          "name": "protocolShare",
          "type": "uint256"
        },
        {
          "internalType": "uint256",
          "name": "maxVolatilityAccumulator",
          "type": "uint256"
        },
        {
          "internalType": "bool",
          "name": "isOpen",
          "type": "bool"
        }
      ],
      "stateMutability": "view",
      "type": "function"
    },
    {
      "inputs": [
        {
          "internalType": "uint256",
          "name": "index",
          "type": "uint256"
        }
      ],
      "name": "getQuoteAssetAtIndex",
      "outputs": [
        {
          "internalType": "contract IERC20",
          "name": "asset",
          "type": "address"
        }
      ],
      "stateMutability": "view",
      "type": "function"
    },
    {
      "inputs": [
        {
          "internalType": "bytes32",
          "name": "role",
          "type": "bytes32"
        }
      ],
      "name": "getRoleAdmin",
      "outputs": [
        {
          "internalType": "bytes32",
          "name": "",
          "type": "bytes32"
        }
      ],
      "stateMutability": "view",
      "type": "function"
    },
    {
      "inputs": [
        {
          "internalType": "bytes32",
          "name": "role",
          "type": "bytes32"
        },
        {
          "internalType": "address",
          "name": "account",
          "type": "address"
        }
      ],
      "name": "grantRole",
      "outputs": [],
      "stateMutability": "nonpayable",
      "type": "function"
    },
    {
      "inputs": [
        {
          "internalType": "bytes32",
          "name": "role",
          "type": "bytes32"
        },
        {
          "internalType": "address",
          "name": "account",
          "type": "address"
        }
      ],
      "name": "hasRole",
      "outputs": [
        {
          "internalType": "bool",
          "name": "",
          "type": "bool"
        }
      ],
      "stateMutability": "view",
      "type": "function"
    },
    {
      "inputs": [
        {
          "internalType": "address",
          "name": "feeRecipient",
          "type": "address"
        },
        {
          "internalType": "address",
          "name": "initialOwner",
          "type": "address"
        },
        {
          "internalType": "uint256",
          "name": "flashLoanFee",
          "type": "uint256"
        },
        {
          "internalType": "address",
          "name": "lbPairBeaconAddress",
          "type": "address"
        }
      ],
      "name": "initialize",
      "outputs": [],
      "stateMutability": "nonpayable",
      "type": "function"
    },
    {
      "inputs": [
        {
          "internalType": "contract IERC20",
          "name": "token",
          "type": "address"
        }
      ],
      "name": "isQuoteAsset",
      "outputs": [
        {
          "internalType": "bool",
          "name": "isQuote",
          "type": "bool"
        }
      ],
      "stateMutability": "view",
      "type": "function"
    },
    {
      "inputs": [],
      "name": "owner",
      "outputs": [
        {
          "internalType": "address",
          "name": "",
          "type": "address"
        }
      ],
      "stateMutability": "view",
      "type": "function"
    },
    {
      "inputs": [],
      "name": "pendingOwner",
      "outputs": [
        {
          "internalType": "address",
          "name": "",
          "type": "address"
        }
      ],
      "stateMutability": "view",
      "type": "function"
    },
    {
      "inputs": [
        {
          "internalType": "contract IERC20",
          "name": "tokenX",
          "type": "address"
        },
        {
          "internalType": "contract IERC20",
          "name": "tokenY",
          "type": "address"
        },
        {
          "internalType": "uint16",
          "name": "binStep",
          "type": "uint16"
        }
      ],
      "name": "removeLBHooksOnPair",
      "outputs": [],
      "stateMutability": "nonpayable",
      "type": "function"
    },
    {
      "inputs": [
        {
          "internalType": "uint16",
          "name": "binStep",
          "type": "uint16"
        }
      ],
      "name": "removePreset",
      "outputs": [],
      "stateMutability": "nonpayable",
      "type": "function"
    },
    {
      "inputs": [
        {
          "internalType": "contract IERC20",
          "name": "quoteAsset",
          "type": "address"
        }
      ],
      "name": "removeQuoteAsset",
      "outputs": [],
      "stateMutability": "nonpayable",
      "type": "function"
    },
    {
      "inputs": [],
      "name": "renounceOwnership",
      "outputs": [],
      "stateMutability": "nonpayable",
      "type": "function"
    },
    {
      "inputs": [
        {
          "internalType": "bytes32",
          "name": "role",
          "type": "bytes32"
        },
        {
          "internalType": "address",
          "name": "callerConfirmation",
          "type": "address"
        }
      ],
      "name": "renounceRole",
      "outputs": [],
      "stateMutability": "nonpayable",
      "type": "function"
    },
    {
      "inputs": [
        {
          "internalType": "bytes32",
          "name": "role",
          "type": "bytes32"
        },
        {
          "internalType": "address",
          "name": "account",
          "type": "address"
        }
      ],
      "name": "revokeRole",
      "outputs": [],
      "stateMutability": "nonpayable",
      "type": "function"
    },
    {
      "inputs": [
        {
          "internalType": "address",
          "name": "feeRecipient",
          "type": "address"
        }
      ],
      "name": "setFeeRecipient",
      "outputs": [],
      "stateMutability": "nonpayable",
      "type": "function"
    },
    {
      "inputs": [
        {
          "internalType": "contract IERC20",
          "name": "tokenX",
          "type": "address"
        },
        {
          "internalType": "contract IERC20",
          "name": "tokenY",
          "type": "address"
        },
        {
          "internalType": "uint16",
          "name": "binStep",
          "type": "uint16"
        },
        {
          "internalType": "uint16",
          "name": "baseFactor",
          "type": "uint16"
        },
        {
          "internalType": "uint16",
          "name": "filterPeriod",
          "type": "uint16"
        },
        {
          "internalType": "uint16",
          "name": "decayPeriod",
          "type": "uint16"
        },
        {
          "internalType": "uint16",
          "name": "reductionFactor",
          "type": "uint16"
        },
        {
          "internalType": "uint24",
          "name": "variableFeeControl",
          "type": "uint24"
        },
        {
          "internalType": "uint16",
          "name": "protocolShare",
          "type": "uint16"
        },
        {
          "internalType": "uint24",
          "name": "maxVolatilityAccumulator",
          "type": "uint24"
        }
      ],
      "name": "setFeesParametersOnPair",
      "outputs": [],
      "stateMutability": "nonpayable",
      "type": "function"
    },
    {
      "inputs": [
        {
          "internalType": "uint256",
          "name": "flashLoanFee",
          "type": "uint256"
        }
      ],
      "name": "setFlashLoanFee",
      "outputs": [],
      "stateMutability": "nonpayable",
      "type": "function"
    },
    {
      "inputs": [
        {
          "internalType": "contract IERC20",
          "name": "tokenX",
          "type": "address"
        },
        {
          "internalType": "contract IERC20",
          "name": "tokenY",
          "type": "address"
        },
        {
          "internalType": "uint16",
          "name": "binStep",
          "type": "uint16"
        },
        {
          "internalType": "bytes32",
          "name": "hooksParameters",
          "type": "bytes32"
        },
        {
          "internalType": "bytes",
          "name": "onHooksSetData",
          "type": "bytes"
        }
      ],
      "name": "setLBHooksParametersOnPair",
      "outputs": [],
      "stateMutability": "nonpayable",
      "type": "function"
    },
    {
      "inputs": [
        {
          "internalType": "contract IERC20",
          "name": "tokenX",
          "type": "address"
        },
        {
          "internalType": "contract IERC20",
          "name": "tokenY",
          "type": "address"
        },
        {
          "internalType": "uint16",
          "name": "binStep",
          "type": "uint16"
        },
        {
          "internalType": "bool",
          "name": "ignored",
          "type": "bool"
        }
      ],
      "name": "setLBPairIgnored",
      "outputs": [],
      "stateMutability": "nonpayable",
      "type": "function"
    },
    {
      "inputs": [
        {
          "internalType": "uint16",
          "name": "binStep",
          "type": "uint16"
        },
        {
          "internalType": "uint16",
          "name": "baseFactor",
          "type": "uint16"
        },
        {
          "internalType": "uint16",
          "name": "filterPeriod",
          "type": "uint16"
        },
        {
          "internalType": "uint16",
          "name": "decayPeriod",
          "type": "uint16"
        },
        {
          "internalType": "uint16",
          "name": "reductionFactor",
          "type": "uint16"
        },
        {
          "internalType": "uint24",
          "name": "variableFeeControl",
          "type": "uint24"
        },
        {
          "internalType": "uint16",
          "name": "protocolShare",
          "type": "uint16"
        },
        {
          "internalType": "uint24",
          "name": "maxVolatilityAccumulator",
          "type": "uint24"
        },
        {
          "internalType": "bool",
          "name": "isOpen",
          "type": "bool"
        }
      ],
      "name": "setPreset",
      "outputs": [],
      "stateMutability": "nonpayable",
      "type": "function"
    },
    {
      "inputs": [
        {
          "internalType": "uint16",
          "name": "binStep",
          "type": "uint16"
        },
        {
          "internalType": "bool",
          "name": "isOpen",
          "type": "bool"
        }
      ],
      "name": "setPresetOpenState",
      "outputs": [],
      "stateMutability": "nonpayable",
      "type": "function"
    },
    {
      "inputs": [
        {
          "internalType": "bytes4",
          "name": "interfaceId",
          "type": "bytes4"
        }
      ],
      "name": "supportsInterface",
      "outputs": [
        {
          "internalType": "bool",
          "name": "",
          "type": "bool"
        }
      ],
      "stateMutability": "view",
      "type": "function"
    },
    {
      "inputs": [
        {
          "internalType": "address",
          "name": "newOwner",
          "type": "address"
        }
      ],
      "name": "transferOwnership",
      "outputs": [],
      "stateMutability": "nonpayable",
      "type": "function"
    }
  ],
  "bytecode": {
    "object": "0x60806040523480156200001157600080fd5b506200001c62000022565b620000d6565b7ff0c57e16840df040f15088dc2f81fe391c3923bec73e23a9662efc9c229c6a00805468010000000000000000900460ff1615620000735760405163f92ee8a960e01b815260040160405180910390fd5b80546001600160401b0390811614620000d35780546001600160401b0319166001600160401b0390811782556040519081527fc7f505b2f371ae2175ee4913f4499e1f2633a7b5936321eed1cdaeb6115181d29060200160405180910390a15b50565b613b4480620000e66000396000f3fe60806040523480156200001157600080fd5b5060043610620003315760003560e01c8063701ab8c111620001b1578063aabc4b3c11620000f5578063e203a31f11620000a3578063e92d0d5d116200007a578063e92d0d5d1462000757578063f2fde38b146200076e578063fd90c2be146200078557600080fd5b8063e203a31f146200071f578063e30c39781462000736578063e74b981b146200074057600080fd5b8063c1b931be11620000d8578063c1b931be14620006ca578063d547741f14620006f1578063ddbfd941146200070857600080fd5b8063aabc4b3c146200065e578063be20309414620006b357600080fd5b806380c5061e116200015f57806391d14854116200013657806391d14854146200062c578063a0a0ea391462000643578063a217fddf146200065557600080fd5b806380c5061e14620006095780638ce9aa1c14620006135780638da5cb5b146200062257600080fd5b8063715018a61162000194578063715018a614620005de57806379ba509714620005e85780637daf5d6614620005f257600080fd5b8063701ab8c114620005b0578063704037bd14620005b857600080fd5b80633a2f1a9111620002795780635a4409231162000227578063661d7ffb11620001fe578063661d7ffb146200054b5780636622e0d7146200057357806369d56ea3146200059957600080fd5b80635a44092314620005135780635b35875c146200052a578063659ac74b146200053457600080fd5b80634ccb20c0116200025c5780634ccb20c014620004e15780634cd161d314620004f35780634e937c3a146200050a57600080fd5b80633a2f1a9114620004b35780633c78a94114620004ca57600080fd5b8063248a9ca311620002e35780632f2ff15d11620002ba5780632f2ff15d146200046e57806336568abe1462000485578063379ee803146200049c57600080fd5b8063248a9ca314620003fb5780632772184214620004405780632cc06b8c146200045757600080fd5b80630752092b11620003185780630752092b146200037b578063093ff76914620003ab5780631af5bacc14620003c457600080fd5b806301ffc9a714620003365780630282c9c11462000362575b600080fd5b6200034d6200034736600462002c0f565b6200078e565b60405190151581526020015b60405180910390f35b6200036c620007c6565b60405162000359919062002c3b565b620003926200038c36600462002c81565b620008b6565b6040516001600160a01b03909116815260200162000359565b620003c2620003bc36600462002cd8565b620008c5565b005b620003ec7fdcf4465aa60d92459eb361fac2489220ae3c524301cc0433c30a5d83e8fb0fa981565b60405190815260200162000359565b620003ec6200040c36600462002c81565b60009081527f02dd7bc7dec4dceedda775e58dd541e08a116c6c53815c0bd028192f7b626800602052604090206001015490565b6200034d6200045136600462002dab565b620009d2565b620003c26200046836600462002dcb565b620009e1565b620003c26200047f36600462002e19565b62000a34565b620003c26200049636600462002e19565b62000a7c565b620003c2620004ad36600462002e5d565b62000ab7565b620003c2620004c436600462002f18565b62000bde565b620003c2620004db36600462002dab565b62000c96565b6000546001600160a01b031662000392565b620003c26200050436600462002fd4565b62000cf8565b600354620003ec565b620003c26200052436600462002dab565b62000dd0565b6200036c62000e48565b62000392620005453660046200300c565b62000e5b565b620003ec7f9daad794d31bffea33c7c571b462185cbd402366f4696e49c91be26e9222bb9d81565b6200058a620005843660046200306d565b62001334565b604051620003599190620030a0565b620003c2620005aa36600462003117565b620014df565b6001620003ec565b620005cf620005c93660046200316d565b62001671565b604051620003599190620031b3565b620003c2620016aa565b620003c2620016c2565b620003926200060336600462002c81565b62001710565b620003ec62001743565b67016345785d8a0000620003ec565b6200039262001751565b6200034d6200063d36600462002e19565b62001786565b6002546001600160a01b031662000392565b620003ec600081565b620006756200066f36600462002c81565b62001801565b604080519889526020890197909752958701949094526060860192909252608085015260a084015260c0830152151560e08201526101000162000359565b620003c2620006c4366004620031f0565b620018d6565b7f9daad794d31bffea33c7c571b462185cbd402366f4696e49c91be26e9222bb9d620003ec565b620003c26200070236600462002e19565b62001aa6565b620003c26200071936600462002dab565b62001aee565b620003c2620007303660046200324a565b62001b66565b6200039262001bd8565b620003c26200075136600462002dab565b62001c02565b620003c26200076836600462002c81565b62001c17565b620003c26200077f36600462002dab565b62001cc8565b600154620003ec565b60006001600160e01b03198216637965db0b60e01b1480620007c057506301ffc9a760e01b6001600160e01b03198316145b92915050565b60606000620007d6600562001d51565b90508015620008b2578067ffffffffffffffff811115620007fb57620007fb62003268565b60405190808252806020026020018201604052801562000825578160200160208202803683370190505b5091506000805b82811015620008a2576000806200084560058462001d5e565b9092509050620008558162001d7c565b156200088c57818685815181106200087157620008716200327e565b6020908102919091010152836200088881620032aa565b9450505b5050806200089a90620032aa565b90506200082c565b5081811015620008b0578083525b505b5090565b6000620007c060088362001d89565b620008cf62001d97565b6000620008e28b8b8b61ffff1662001dcd565b6020015190506001600160a01b038116620009325760405163b65ee95360e01b81526001600160a01b03808d1660048301528b16602482015261ffff8a1660448201526064015b60405180910390fd5b604051633329c28d60e11b815261ffff808a16600483015280891660248301528088166044830152808716606483015262ffffff808716608484015290851660a4830152831660c48201526001600160a01b03821690636653851a9060e401600060405180830381600087803b158015620009ac57600080fd5b505af1158015620009c1573d6000803e3d6000fd5b505050505050505050505050505050565b6000620007c060088362001e79565b7fdcf4465aa60d92459eb361fac2489220ae3c524301cc0433c30a5d83e8fb0fa962000a0d8162001e9c565b6040805160008082526020820190925262000a2e9186918691869162001ea8565b50505050565b60008281527f02dd7bc7dec4dceedda775e58dd541e08a116c6c53815c0bd028192f7b626800602052604090206001015462000a708162001e9c565b62000a2e838362001ffc565b6001600160a01b038116331462000aa65760405163334bd91960e11b815260040160405180910390fd5b62000ab2828262002029565b505050565b62000ac162001d97565b60018961ffff16101562000aef57604051634f958e7160e01b815261ffff8a16600482015260240162000929565b600062000b03818a8a8a8a8a8a8a620020c6565b9050811562000b1e5762000b1b81600160ff620021cb565b90505b62000b30600561ffff8c1683620021f5565b506040805161ffff8b811682528a8116602083015289811682840152888116606083015262ffffff888116608084015287821660a0840152861660c08301529151918c16917f839844a256a87f87c9c835117d9a1c40be013954064c937072acb32d36db6a289181900360e00190a26040518215159061ffff8c16907f58a8b6a02b964cca2712e5a71d7b0d564a56b4a0f573b4c47f389341ade14cfd90600090a350505050505050505050565b7fdcf4465aa60d92459eb361fac2489220ae3c524301cc0433c30a5d83e8fb0fa962000c0a8162001e9c565b6001600160a01b038416158062000c295750836001600160a01b031916155b1562000c485760405163d43a15d160e01b815260040160405180910390fd5b62000c8d8787878787878080601f01602080910402602001604051908101604052809392919081815260200183838082843760009201919091525062001ea892505050565b50505050505050565b62000ca062001d97565b806001600160a01b031663d3b9fbe46040518163ffffffff1660e01b8152600401600060405180830381600087803b15801562000cdc57600080fd5b505af115801562000cf1573d6000803e3d6000fd5b5050505050565b62000d0262001d97565b62000d13600561ffff841662002204565b62000d3857604051637d9160bf60e11b815261ffff8316600482015260240162000929565b600062000d4b600561ffff851662002212565b905081151560ff82901c15150362000d76576040516311be38db60e11b815260040160405180910390fd5b62000d9761ffff841662000d8d838560ff620021cb565b60059190620021f5565b506040518215159061ffff8516907f58a8b6a02b964cca2712e5a71d7b0d564a56b4a0f573b4c47f389341ade14cfd90600090a3505050565b62000dda62001d97565b62000de760088262002220565b62000e11576040516303ce0ad960e01b81526001600160a01b038216600482015260240162000929565b6040516001600160a01b038216907f84cc2115995684dcb0cd3d3a9565e3d32f075de81db70c8dc3a719b2a47af67e90600090a250565b606062000e56600562002237565b905090565b600062000e6e600561ffff841662002204565b62000e9357604051637d9160bf60e11b815261ffff8316600482015260240162000929565b600062000ea6600561ffff851662002212565b9050600062000eb462001751565b6001600160a01b0316336001600160a01b031614905062000ed58262001d7c565b15801562000ee1575080155b1562000f0d576040516304fc2fe760e11b815233600482015261ffff8516602482015260440162000929565b62000f1a60088762001e79565b62000f4457604051638e888ef360e01b81526001600160a01b038716600482015260240162000929565b856001600160a01b0316876001600160a01b03160362000f8357604051632f9b185360e01b81526001600160a01b038816600482015260240162000929565b62000f8f858562002246565b5060008062000f9f89896200228c565b90925090506001600160a01b03821662000fcc57604051632573cfb960e21b815260040160405180910390fd5b6001600160a01b0382811660009081526004602090815260408083208585168452825280832061ffff8b1684529091529020546201000090041615620010435760405163cb27a43560e01b81526001600160a01b03808b1660048301528916602482015261ffff8716604482015260640162000929565b60006200105085620022b6565b6200105b86620022c3565b6200106687620022d4565b6200107188620022e5565b6200107c89620022f6565b620010878a62002308565b620010928b62002319565b60405161ffff978816602482015295871660448701529386166064860152918516608485015262ffffff90811660a4850152931660c4830152821660e48201529089166101048201526101240160408051601f198184030181529181526020820180517bffffffffffffffffffffffffffffffffffffffffffffffffffffffff166347973bff60e01b17905260025490519192506001600160a01b0316908b908b908a908590620011439062002c01565b620011539594939291906200330e565b604051809103906000f08015801562001170573d6000803e3d6000fd5b506040805160808101825261ffff808b168083526001600160a01b0380861660208086018281528c15158789019081526000606089018181528e8716808352600486528b83208f89168085529087528c84208a855287528c84209b518c549651955193511515600160b81b0260ff60b81b19941515600160b01b02949094167fffffffffffffffff0000ffffffffffffffffffffffffffffffffffffffffffff96909a1662010000027fffffffffffffffffffff000000000000000000000000000000000000000000009097169b169a909a179490941792909216959095171790965560038054600181019091557fc2575a0e9e593c00f959f8c92f12db2869c3395a3b0502d05e2516446f71f85b0180546001600160a01b031916909217909155938152600a84528481209281529190925291909120919750620012b692506200232b565b508561ffff16886001600160a01b03168a6001600160a01b03167f2c8d104b27c6b7f4492017a6f5cf3803043688934ebcaa6a03540beeaf976aff88600160038054905062001306919062003359565b604080516001600160a01b03909316835260208301919091520160405180910390a450505050949350505050565b60606000806200134585856200228c565b6001600160a01b038083166000908152600a6020908152604080832093851683529290529081209294509092506200137d8262002339565b90508015620014d5578067ffffffffffffffff811115620013a257620013a262003268565b604051908082528060200260200182016040528015620013f657816020015b604080516080810182526000808252602080830182905292820181905260608201528252600019909201910181620013c15790505b506001600160a01b03808616600090815260046020908152604080832093881683529290529081209196505b82811015620014d2576000620014436200143d868462001d89565b62002344565b6040805160808101825261ffff831680825260008181526020888152848220546001600160a01b03620100008204168286015260ff600160b01b8204811615159686019690965292909152879052600160b81b900490911615156060820152895191925090899084908110620014bd57620014bd6200327e565b60209081029190910101525060010162001422565b50505b5050505092915050565b620014e962001d97565b600080620014f886866200228c565b6001600160a01b0380831660009081526004602090815260408083208486168452825280832061ffff808c1685529083529281902081516080810183529054938416815262010000840490941691840182905260ff600160b01b84048116151591850191909152600160b81b9092049091161515606083015292945090925090620015b45760405163102a919160e21b81526001600160a01b0380891660048301528716602482015261ffff8616604482015260640162000929565b8315158160600151151503620015dc57604051626ee66560e11b815260040160405180910390fd5b6001600160a01b0380841660009081526004602090815260408083208685168452825280832061ffff8a1684528252918290208054881515600160b81b0260ff60b81b1990911617905583015190519116907f44cf35361c9ff3c8c1397ec6410d5495cc481feaef35c9af11da1a637107de4f906200166090871515815260200190565b60405180910390a250505050505050565b604080516080810182526000808252602082018190529181018290526060810191909152620016a284848462001dcd565b949350505050565b620016b462001d97565b620016c060006200236f565b565b3380620016ce62001bd8565b6001600160a01b031614620017025760405163118cdaa760e01b81526001600160a01b038216600482015260240162000929565b6200170d816200236f565b50565b6000600382815481106200172857620017286200327e565b6000918252602090912001546001600160a01b031692915050565b600062000e56600862002339565b6000807f9016d09d72d40fdae2fd8ceac6b6234c7706214fd39c1cd1e609a0528c1993005b546001600160a01b031692915050565b600082620017b4576200179862001751565b6001600160a01b0316826001600160a01b0316149050620007c0565b60008381527f02dd7bc7dec4dceedda775e58dd541e08a116c6c53815c0bd028192f7b626800602090815260408083206001600160a01b038616845290915290205460ff165b9392505050565b6000808080808080806200181760058a62002204565b6200183957604051637d9160bf60e11b8152600481018a905260240162000929565b60006200184860058b62002212565b90506200185581620022b6565b61ffff1698506200186681620022c3565b61ffff1697506200187781620022d4565b61ffff1696506200188881620022e5565b61ffff1695506200189981620022f6565b62ffffff169450620018ab8162002308565b61ffff169350620018bc8162002319565b62ffffff16925060ff81901c915050919395975091939597565b7ff0c57e16840df040f15088dc2f81fe391c3923bec73e23a9662efc9c229c6a00805468010000000000000000810460ff16159067ffffffffffffffff16600081158015620019225750825b905060008267ffffffffffffffff166001148015620019405750303b155b9050811580156200194f575080155b156200196e5760405163f92ee8a960e01b815260040160405180910390fd5b845467ffffffffffffffff191660011785558315620019a357845468ff00000000000000001916680100000000000000001785555b620019ae88620023ad565b67016345785d8a0000871115620019ea57604051635e8988c160e01b81526004810188905267016345785d8a0000602482015260440162000929565b620019f589620023c2565b6001879055600280546001600160a01b0319166001600160a01b0388161790556040805160008152602081018990527f5c34e91c94c78b662a45d0bd4a25a4e32c584c54a45a76e4a4d43be27ba40e50910160405180910390a1831562001a9b57845468ff000000000000000019168555604051600181527fc7f505b2f371ae2175ee4913f4499e1f2633a7b5936321eed1cdaeb6115181d29060200160405180910390a15b505050505050505050565b60008281527f02dd7bc7dec4dceedda775e58dd541e08a116c6c53815c0bd028192f7b626800602052604090206001015462001ae28162001e9c565b62000a2e838362002029565b62001af862001d97565b62001b0560088262002484565b62001b2f57604051638e888ef360e01b81526001600160a01b038216600482015260240162000929565b6040516001600160a01b038216907f0b767739217755d8af5a2ba75b181a19fa1750f8bb701f09311cb19a90140cb390600090a250565b62001b7062001d97565b62001b81600561ffff83166200249b565b62001ba657604051637d9160bf60e11b815261ffff8216600482015260240162000929565b60405161ffff8216907fdd86b848bb56ff540caa68683fa467d0e7eb5f8b2d44e4ee435742eeeae9be1390600090a250565b6000807f237e158222e3e6968b72b9db0d8043aacf074ad9f650f0d1606b4d82ee432c0062001776565b62001c0c62001d97565b6200170d81620023c2565b62001c2162001d97565b60015481810362001c4957604051631baa31e960e21b81526004810183905260240162000929565b67016345785d8a000082111562001c8557604051635e8988c160e01b81526004810183905267016345785d8a0000602482015260440162000929565b600182905560408051828152602081018490527f5c34e91c94c78b662a45d0bd4a25a4e32c584c54a45a76e4a4d43be27ba40e5091015b60405180910390a15050565b62001cd262001d97565b7f237e158222e3e6968b72b9db0d8043aacf074ad9f650f0d1606b4d82ee432c0080546001600160a01b0319166001600160a01b038316908117825562001d1862001751565b6001600160a01b03167f38d16b8cac22d99fc7c124b9cd0de2d3fa1faef420bfe791d8c362d765e2270060405160405180910390a35050565b6000620007c082620024a9565b600080808062001d6f8686620024b6565b9097909650945050505050565b600060ff82901c620007c0565b6000620017fa8383620024e3565b3362001da262001751565b6001600160a01b031614620016c05760405163118cdaa760e01b815233600482015260240162000929565b60408051608081018252600080825260208201819052918101829052606081019190915262001dfd84846200228c565b6001600160a01b03918216600090815260046020908152604080832093851683529281528282209582529485528190208151608081018352905461ffff811682526201000081049093169481019490945260ff600160b01b83048116151591850191909152600160b81b90910416151560608301525092915050565b6001600160a01b03811660009081526001830160205260408120541515620017fa565b6200170d813362002510565b600062001ebb86868661ffff1662001dcd565b6020015190506001600160a01b03811662001f075760405163b65ee95360e01b81526001600160a01b0380881660048301528616602482015261ffff8516604482015260640162000929565b82816001600160a01b031663781a89156040518163ffffffff1660e01b8152600401602060405180830381865afa15801562001f47573d6000803e3d6000fd5b505050506040513d601f19601f8201168201806040525081019062001f6d91906200336f565b0362001f905760405163b70cd0db60e01b81526004810184905260240162000929565b604051631b057f6d60e01b81526001600160a01b03821690631b057f6d9062001fc0908690869060040162003389565b600060405180830381600087803b15801562001fdb57600080fd5b505af115801562001ff0573d6000803e3d6000fd5b50505050505050505050565b6000826200201d57604051633e3253cf60e11b815260040160405180910390fd5b620017fa83836200254d565b60007f02dd7bc7dec4dceedda775e58dd541e08a116c6c53815c0bd028192f7b62680062002058848462001786565b15620020bb576000848152602082815260408083206001600160a01b0387168085529252808320805460ff1916905551339287917ff6391f5c32d9c69d2a47ea670b442974b53935d1edc7fd64eb21e047a839171b9190a46001915050620007c0565b6000915050620007c0565b60008561ffff168761ffff161180620020e45750610fff8661ffff16115b80620020f557506127108561ffff16115b806200210657506109c48361ffff16115b80620021195750620fffff8262ffffff16115b156200213857604051631c07203f60e01b815260040160405180910390fd5b5060109590951b630fff00001661ffff9690961695909517601c9390931b64fff0000000169290921760289190911b663fff0000000000161760369190911b693fffffc00000000000001617604e9290921b6b0fffc00000000000000000001691909117605c9190911b6dfffff0000000000000000000000016176dffffffffffffffffffffffffffff19919091161790565b6000620016a28484620021e0576000620021e3565b60015b600180861b19929092169116841b1790565b6000620016a2848484620025ff565b6000620017fa83836200261e565b6000620017fa83836200262c565b6000620017fa836001600160a01b03841662002678565b60606000620017fa83620026ca565b600061271071ffff00000000000000000000000000000000608084901b1604600160801b0162ffffff8416627fffff1901620022838282620026d7565b95945050505050565b600080826001600160a01b0316846001600160a01b03161115620022ae579192915b509192909150565b600061ffff8216620007c0565b6000620007c08260101c610fff1690565b6000620007c082601c1c610fff1690565b6000620007c08260281c613fff1690565b6000620007c08260361c62ffffff1690565b6000620007c082604e1c613fff1690565b6000620007c082605c1c620fffff1690565b6000620017fa838362002678565b6000620007c0825490565b8061ffff811681146200236a576040516364ae406d60e01b815260040160405180910390fd5b919050565b7f237e158222e3e6968b72b9db0d8043aacf074ad9f650f0d1606b4d82ee432c0080546001600160a01b0319168155620023a9826200295f565b5050565b620023b7620029d0565b6200170d8162002a1f565b6001600160a01b038116620023ea57604051632573cfb960e21b815260040160405180910390fd5b6000546001600160a01b0390811690821681036200242b57600054604051634fcea97160e01b81526001600160a01b03909116600482015260240162000929565b600080546001600160a01b0319166001600160a01b0384811691821790925560408051928416835260208301919091527f15d80a013f22151bc7246e3bc132e12828cde19de98870475e3fa70840152721910162001cbc565b6000620017fa836001600160a01b03841662002a55565b6000620017fa838362002b4e565b6000620007c08262002339565b60008080620024c6858562001d89565b600081815260029690960160205260409095205494959350505050565b6000826000018281548110620024fd57620024fd6200327e565b9060005260206000200154905092915050565b6200251c828262001786565b620023a95760405163e2517d3f60e01b81526001600160a01b03821660048201526024810183905260440162000929565b60007f02dd7bc7dec4dceedda775e58dd541e08a116c6c53815c0bd028192f7b6268006200257c848462001786565b620020bb576000848152602082815260408083206001600160a01b03871684529091529020805460ff19166001179055620025b43390565b6001600160a01b0316836001600160a01b0316857f2f8788117e7eff1d82e926ec794901d17c78024a50270940304540a733656f0d60405160405180910390a46001915050620007c0565b60008281526002840160205260408120829055620016a284846200232b565b6000620017fa838362002b6d565b6000818152600283016020526040812054801580156200265557506200265384846200261e565b155b15620017fa5760405163015ab34360e11b81526004810184905260240162000929565b6000818152600183016020526040812054620026c157508154600181810184556000848152602080822090930184905584548482528286019093526040902091909155620007c0565b506000620007c0565b6060620007c08262002b86565b600080600083600003620026f55750600160801b9150620007c09050565b5082600081121562002708579015906000035b621000008110156200291757600160801b9250846fffffffffffffffffffffffffffffffff8111156200273d57911591600019045b60018216156200274f5792830260801c925b800260801c6002821615620027665792830260801c925b800260801c60048216156200277d5792830260801c925b800260801c6008821615620027945792830260801c925b800260801c6010821615620027ab5792830260801c925b800260801c6020821615620027c25792830260801c925b800260801c6040821615620027d95792830260801c925b8002608090811c90821615620027f15792830260801c925b800260801c610100821615620028095792830260801c925b800260801c610200821615620028215792830260801c925b800260801c610400821615620028395792830260801c925b800260801c610800821615620028515792830260801c925b800260801c611000821615620028695792830260801c925b800260801c612000821615620028815792830260801c925b800260801c614000821615620028995792830260801c925b800260801c618000821615620028b15792830260801c925b800260801c62010000821615620028ca5792830260801c925b800260801c62020000821615620028e35792830260801c925b800260801c62040000821615620028fc5792830260801c925b800260801c62080000821615620029155792830260801c925b505b826000036200294457604051631dba598d60e11b8152600481018690526024810185905260440162000929565b8162002951578262002283565b6200228383600019620033a4565b7f9016d09d72d40fdae2fd8ceac6b6234c7706214fd39c1cd1e609a0528c19930080546001600160a01b031981166001600160a01b03848116918217845560405192169182907f8be0079c531659141344cd1fd0a4f28419497f9722a3daafe3b4186f6b6457e090600090a3505050565b7ff0c57e16840df040f15088dc2f81fe391c3923bec73e23a9662efc9c229c6a005468010000000000000000900460ff16620016c057604051631afcd79f60e31b815260040160405180910390fd5b62002a29620029d0565b6001600160a01b0381166200170257604051631e4fbdf760e01b81526000600482015260240162000929565b60008181526001830160205260408120548015620020bb57600062002a7c60018362003359565b855490915060009062002a929060019062003359565b905080821462002afe57600086600001828154811062002ab65762002ab66200327e565b906000526020600020015490508087600001848154811062002adc5762002adc6200327e565b6000918252602080832090910192909255918252600188019052604090208390555b855486908062002b125762002b12620033c7565b600190038181906000526020600020016000905590558560010160008681526020019081526020016000206000905560019350505050620007c0565b60008181526002830160205260408120819055620017fa838362002b95565b60008181526001830160205260408120541515620017fa565b60606000620017fa8362002ba3565b6000620017fa838362002a55565b60608160000180548060200260200160405190810160405280929190818152602001828054801562002bf557602002820191906000526020600020905b81548152602001906001019080831162002be0575b50505050509050919050565b61073180620033de83390190565b60006020828403121562002c2257600080fd5b81356001600160e01b031981168114620017fa57600080fd5b6020808252825182820181905260009190848201906040850190845b8181101562002c755783518352928401929184019160010162002c57565b50909695505050505050565b60006020828403121562002c9457600080fd5b5035919050565b6001600160a01b03811681146200170d57600080fd5b803561ffff811681146200236a57600080fd5b803562ffffff811681146200236a57600080fd5b6000806000806000806000806000806101408b8d03121562002cf957600080fd5b8a3562002d068162002c9b565b995060208b013562002d188162002c9b565b985062002d2860408c0162002cb1565b975062002d3860608c0162002cb1565b965062002d4860808c0162002cb1565b955062002d5860a08c0162002cb1565b945062002d6860c08c0162002cb1565b935062002d7860e08c0162002cc4565b925062002d896101008c0162002cb1565b915062002d9a6101208c0162002cc4565b90509295989b9194979a5092959850565b60006020828403121562002dbe57600080fd5b8135620017fa8162002c9b565b60008060006060848603121562002de157600080fd5b833562002dee8162002c9b565b9250602084013562002e008162002c9b565b915062002e106040850162002cb1565b90509250925092565b6000806040838503121562002e2d57600080fd5b82359150602083013562002e418162002c9b565b809150509250929050565b803580151581146200236a57600080fd5b60008060008060008060008060006101208a8c03121562002e7d57600080fd5b62002e888a62002cb1565b985062002e9860208b0162002cb1565b975062002ea860408b0162002cb1565b965062002eb860608b0162002cb1565b955062002ec860808b0162002cb1565b945062002ed860a08b0162002cc4565b935062002ee860c08b0162002cb1565b925062002ef860e08b0162002cc4565b915062002f096101008b0162002e4c565b90509295985092959850929598565b60008060008060008060a0878903121562002f3257600080fd5b863562002f3f8162002c9b565b9550602087013562002f518162002c9b565b945062002f616040880162002cb1565b935060608701359250608087013567ffffffffffffffff8082111562002f8657600080fd5b818901915089601f83011262002f9b57600080fd5b81358181111562002fab57600080fd5b8a602082850101111562002fbe57600080fd5b6020830194508093505050509295509295509295565b6000806040838503121562002fe857600080fd5b62002ff38362002cb1565b9150620030036020840162002e4c565b90509250929050565b600080600080608085870312156200302357600080fd5b8435620030308162002c9b565b93506020850135620030428162002c9b565b9250620030526040860162002cc4565b9150620030626060860162002cb1565b905092959194509250565b600080604083850312156200308157600080fd5b82356200308e8162002c9b565b9150602083013562002e418162002c9b565b6020808252825182820181905260009190848201906040850190845b8181101562002c75576200310383855161ffff81511682526001600160a01b0360208201511660208301526040810151151560408301526060810151151560608301525050565b9284019260809290920191600101620030bc565b600080600080608085870312156200312e57600080fd5b84356200313b8162002c9b565b935060208501356200314d8162002c9b565b92506200315d6040860162002cb1565b9150620030626060860162002e4c565b6000806000606084860312156200318357600080fd5b8335620031908162002c9b565b92506020840135620031a28162002c9b565b929592945050506040919091013590565b815161ffff1681526020808301516001600160a01b03169082015260408083015115159082015260608083015115159082015260808101620007c0565b600080600080608085870312156200320757600080fd5b8435620032148162002c9b565b93506020850135620032268162002c9b565b92506040850135915060608501356200323f8162002c9b565b939692955090935050565b6000602082840312156200325d57600080fd5b620017fa8262002cb1565b634e487b7160e01b600052604160045260246000fd5b634e487b7160e01b600052603260045260246000fd5b634e487b7160e01b600052601160045260246000fd5b600060018201620032bf57620032bf62003294565b5060010190565b6000815180845260005b81811015620032ee57602081850181015186830182015201620032d0565b506000602082860101526020601f19601f83011685010191505092915050565b60006001600160a01b038088168352808716602084015280861660408401525061ffff8416606083015260a060808301526200334e60a0830184620032c6565b979650505050505050565b81810381811115620007c057620007c062003294565b6000602082840312156200338257600080fd5b5051919050565b828152604060208201526000620016a26040830184620032c6565b600082620033c257634e487b7160e01b600052601260045260246000fd5b500490565b634e487b7160e01b600052603160045260246000fdfe60a060405260405161073138038061073183398101604081905261002291610416565b604080516020810190915260008152859061003d82826100cd565b506001600160a01b03166080527f3441ab29b24daf7a3fd59500b0e08396ec08ec96f5cc2d0362924cdd45cfec318481557f7e1935766b7c49e7482a018a5ee52ca183a2ddfcb6810787916934079aa582648481557fff057b3b4d4500dda208cde5d654db7aa2ec63ac10ab9f9956a1f569738427828481556100c088856100cd565b5050505050505050610548565b6100d68261018d565b6040516001600160a01b038316907f1cf3b03a6cf19fa2baba4df148e9dcabedea7f8a5c07840e207e5c089be95d3e90600090a28051156101815761017c826001600160a01b0316635c60da1b6040518163ffffffff1660e01b8152600401602060405180830381865afa158015610152573d6000803e3d6000fd5b505050506040513d601f19601f820116820180604052508101906101769190610511565b826102a0565b505050565b610189610317565b5050565b806001600160a01b03163b6000036101c857604051631933b43b60e21b81526001600160a01b03821660048201526024015b60405180910390fd5b807fa3f0ad74e5423aebfd80d3ef4346578335a9a72aeaee59ff6cb3582b35133d5080546001600160a01b0319166001600160a01b0392831617905560408051635c60da1b60e01b81529051600092841691635c60da1b9160048083019260209291908290030181865afa158015610244573d6000803e3d6000fd5b505050506040513d601f19601f820116820180604052508101906102689190610511565b9050806001600160a01b03163b60000361018957604051634c9c8ce360e01b81526001600160a01b03821660048201526024016101bf565b6060600080846001600160a01b0316846040516102bd919061052c565b600060405180830381855af49150503d80600081146102f8576040519150601f19603f3d011682016040523d82523d6000602084013e6102fd565b606091505b50909250905061030e858383610338565b95945050505050565b34156103365760405163b398979f60e01b815260040160405180910390fd5b565b60608261034d5761034882610397565b610390565b815115801561036457506001600160a01b0384163b155b1561038d57604051639996b31560e01b81526001600160a01b03851660048201526024016101bf565b50805b9392505050565b8051156103a75780518082602001fd5b604051630a12f52160e11b815260040160405180910390fd5b80516001600160a01b03811681146103d757600080fd5b919050565b634e487b7160e01b600052604160045260246000fd5b60005b8381101561040d5781810151838201526020016103f5565b50506000910152565b600080600080600060a0868803121561042e57600080fd5b610437866103c0565b9450610445602087016103c0565b9350610453604087016103c0565b9250606086015161ffff8116811461046a57600080fd5b60808701519092506001600160401b038082111561048757600080fd5b818801915088601f83011261049b57600080fd5b8151818111156104ad576104ad6103dc565b604051601f8201601f19908116603f011681019083821181831017156104d5576104d56103dc565b816040528281528b60208487010111156104ee57600080fd5b6104ff8360208301602088016103f2565b80955050505050509295509295909350565b60006020828403121561052357600080fd5b610390826103c0565b6000825161053e8184602087016103f2565b9190910192915050565b6080516101c9610568600039600081816042015260a501526101c96000f3fe6080604052600436106100225760003560e01c8063a0a0ea391461003357610029565b3661002957005b61003161008a565b005b34801561003f57600080fd5b507f000000000000000000000000000000000000000000000000000000000000000060405173ffffffffffffffffffffffffffffffffffffffff909116815260200160405180910390f35b61009a6100956100a1565b610132565b565b905090565b60007f000000000000000000000000000000000000000000000000000000000000000073ffffffffffffffffffffffffffffffffffffffff16635c60da1b6040518163ffffffff1660e01b8152600401602060405180830381865afa15801561010e573d6000803e3d6000fd5b505050506040513d601f19601f8201168201806040525081019061009c9190610156565b3660008037600080366000845af43d6000803e808015610151573d6000f35b3d6000fd5b60006020828403121561016857600080fd5b815173ffffffffffffffffffffffffffffffffffffffff8116811461018c57600080fd5b939250505056fea2646970667358221220f0f37eb07b5c3cfec8f93a3926d8b9cc57e4663663fe0feb3212c78557ad130a64736f6c63430008140033a2646970667358221220440217821150de802aac920e0a7d0d0d30082ae791bf0e91dbdaac5d78def83164736f6c63430008140033",
    "linkReferences": {}
  },
  "methodIdentifiers": {
    "DEFAULT_ADMIN_ROLE()": "a217fddf",
    "LB_HOOKS_MANAGER_ROLE()": "1af5bacc",
    "LB_PAIR_BEACON_IMPLEMENTATION_PAUSER_ROLE()": "661d7ffb",
    "acceptOwnership()": "79ba5097",
    "addQuoteAsset(address)": "5a440923",
    "createLBPair(address,address,uint24,uint16)": "659ac74b",
    "forceDecay(address)": "3c78a941",
    "getAllBinSteps()": "5b35875c",
    "getAllLBPairs(address,address)": "6622e0d7",
    "getFeeRecipient()": "4ccb20c0",
    "getFlashLoanFee()": "fd90c2be",
    "getLBPairAtIndex(uint256)": "7daf5d66",
    "getLBPairBeacon()": "a0a0ea39",
    "getLBPairInformation(address,address,uint256)": "704037bd",
    "getMaxFlashLoanFee()": "8ce9aa1c",
    "getMinBinStep()": "701ab8c1",
    "getNumberOfLBPairs()": "4e937c3a",
    "getNumberOfQuoteAssets()": "80c5061e",
    "getOpenBinSteps()": "0282c9c1",
    "getPauserRole()": "c1b931be",
    "getPreset(uint256)": "aabc4b3c",
    "getQuoteAssetAtIndex(uint256)": "0752092b",
    "getRoleAdmin(bytes32)": "248a9ca3",
    "grantRole(bytes32,address)": "2f2ff15d",
    "hasRole(bytes32,address)": "91d14854",
    "initialize(address,address,uint256,address)": "be203094",
    "isQuoteAsset(address)": "27721842",
    "owner()": "8da5cb5b",
    "pendingOwner()": "e30c3978",
    "removeLBHooksOnPair(address,address,uint16)": "2cc06b8c",
    "removePreset(uint16)": "e203a31f",
    "removeQuoteAsset(address)": "ddbfd941",
    "renounceOwnership()": "715018a6",
    "renounceRole(bytes32,address)": "36568abe",
    "revokeRole(bytes32,address)": "d547741f",
    "setFeeRecipient(address)": "e74b981b",
    "setFeesParametersOnPair(address,address,uint16,uint16,uint16,uint16,uint16,uint24,uint16,uint24)": "093ff769",
    "setFlashLoanFee(uint256)": "e92d0d5d",
    "setLBHooksParametersOnPair(address,address,uint16,bytes32,bytes)": "3a2f1a91",
    "setLBPairIgnored(address,address,uint16,bool)": "69d56ea3",
    "setPreset(uint16,uint16,uint16,uint16,uint16,uint24,uint16,uint24,bool)": "379ee803",
    "setPresetOpenState(uint16,bool)": "4cd161d3",
    "supportsInterface(bytes4)": "01ffc9a7",
    "transferOwnership(address)": "f2fde38b"
  },
  "id": 80
}