{"abi":[{"type":"constructor","inputs":[{"name":"feeRecipient","type":"address","internalType":"address"},{"name":"initialOwner","type":"address","internalType":"address"},{"name":"flashLoanFee","type":"uint256","internalType":"uint256"}],"stateMutability":"nonpayable"},{"type":"function","name":"DEFAULT_ADMIN_ROLE","inputs":[],"outputs":[{"name":"","type":"bytes32","internalType":"bytes32"}],"stateMutability":"view"},{"type":"function","name":"LB_HOOKS_MANAGER_ROLE","inputs":[],"outputs":[{"name":"","type":"bytes32","internalType":"bytes32"}],"stateMutability":"view"},{"type":"function","name":"acceptOwnership","inputs":[],"outputs":[],"stateMutability":"nonpayable"},{"type":"function","name":"addQuoteAsset","inputs":[{"name":"quoteAsset","type":"address","internalType":"contract IERC20"}],"outputs":[],"stateMutability":"nonpayable"},{"type":"function","name":"createLBPair","inputs":[{"name":"tokenX","type":"address","internalType":"contract IERC20"},{"name":"tokenY","type":"address","internalType":"contract IERC20"},{"name":"activeId","type":"uint24","internalType":"uint24"},{"name":"binStep","type":"uint16","internalType":"uint16"}],"outputs":[{"name":"pair","type":"address","internalType":"contract ILBPair"}],"stateMutability":"nonpayable"},{"type":"function","name":"forceDecay","inputs":[{"name":"pair","type":"address","internalType":"contract ILBPair"}],"outputs":[],"stateMutability":"nonpayable"},{"type":"function","name":"getAllBinSteps","inputs":[],"outputs":[{"name":"binStepWithPreset","type":"uint256[]","internalType":"uint256[]"}],"stateMutability":"view"},{"type":"function","name":"getAllLBPairs","inputs":[{"name":"tokenX","type":"address","internalType":"contract IERC20"},{"name":"tokenY","type":"address","internalType":"contract IERC20"}],"outputs":[{"name":"lbPairsAvailable","type":"tuple[]","internalType":"struct ILBFactory.LBPairInformation[]","components":[{"name":"binStep","type":"uint16","internalType":"uint16"},{"name":"LBPair","type":"address","internalType":"contract ILBPair"},{"name":"createdByOwner","type":"bool","internalType":"bool"},{"name":"ignoredForRouting","type":"bool","internalType":"bool"}]}],"stateMutability":"view"},{"type":"function","name":"getFeeRecipient","inputs":[],"outputs":[{"name":"feeRecipient","type":"address","internalType":"address"}],"stateMutability":"view"},{"type":"function","name":"getFlashLoanFee","inputs":[],"outputs":[{"name":"flashLoanFee","type":"uint256","internalType":"uint256"}],"stateMutability":"view"},{"type":"function","name":"getLBPairAtIndex","inputs":[{"name":"index","type":"uint256","internalType":"uint256"}],"outputs":[{"name":"lbPair","type":"address","internalType":"contract ILBPair"}],"stateMutability":"view"},{"type":"function","name":"getLBPairImplementation","inputs":[],"outputs":[{"name":"lbPairImplementation","type":"address","internalType":"address"}],"stateMutability":"view"},{"type":"function","name":"getLBPairInformation","inputs":[{"name":"tokenA","type":"address","internalType":"contract IERC20"},{"name":"tokenB","type":"address","internalType":"contract IERC20"},{"name":"binStep","type":"uint256","internalType":"uint256"}],"outputs":[{"name":"lbPairInformation","type":"tuple","internalType":"struct ILBFactory.LBPairInformation","components":[{"name":"binStep","type":"uint16","internalType":"uint16"},{"name":"LBPair","type":"address","internalType":"contract ILBPair"},{"name":"createdByOwner","type":"bool","internalType":"bool"},{"name":"ignoredForRouting","type":"bool","internalType":"bool"}]}],"stateMutability":"view"},{"type":"function","name":"getMaxFlashLoanFee","inputs":[],"outputs":[{"name":"maxFee","type":"uint256","internalType":"uint256"}],"stateMutability":"pure"},{"type":"function","name":"getMinBinStep","inputs":[],"outputs":[{"name":"minBinStep","type":"uint256","internalType":"uint256"}],"stateMutability":"pure"},{"type":"function","name":"getNumberOfLBPairs","inputs":[],"outputs":[{"name":"lbPairNumber","type":"uint256","internalType":"uint256"}],"stateMutability":"view"},{"type":"function","name":"getNumberOfQuoteAssets","inputs":[],"outputs":[{"name":"numberOfQuoteAssets","type":"uint256","internalType":"uint256"}],"stateMutability":"view"},{"type":"function","name":"getOpenBinSteps","inputs":[],"outputs":[{"name":"openBinStep","type":"uint256[]","internalType":"uint256[]"}],"stateMutability":"view"},{"type":"function","name":"getPreset","inputs":[{"name":"binStep","type":"uint256","internalType":"uint256"}],"outputs":[{"name":"baseFactor","type":"uint256","internalType":"uint256"},{"name":"filterPeriod","type":"uint256","internalType":"uint256"},{"name":"decayPeriod","type":"uint256","internalType":"uint256"},{"name":"reductionFactor","type":"uint256","internalType":"uint256"},{"name":"variableFeeControl","type":"uint256","internalType":"uint256"},{"name":"protocolShare","type":"uint256","internalType":"uint256"},{"name":"maxVolatilityAccumulator","type":"uint256","internalType":"uint256"},{"name":"isOpen","type":"bool","internalType":"bool"}],"stateMutability":"view"},{"type":"function","name":"getQuoteAssetAtIndex","inputs":[{"name":"index","type":"uint256","internalType":"uint256"}],"outputs":[{"name":"asset","type":"address","internalType":"contract IERC20"}],"stateMutability":"view"},{"type":"function","name":"getRoleAdmin","inputs":[{"name":"role","type":"bytes32","internalType":"bytes32"}],"outputs":[{"name":"","type":"bytes32","internalType":"bytes32"}],"stateMutability":"view"},{"type":"function","name":"grantRole","inputs":[{"name":"role","type":"bytes32","internalType":"bytes32"},{"name":"account","type":"address","internalType":"address"}],"outputs":[],"stateMutability":"nonpayable"},{"type":"function","name":"hasRole","inputs":[{"name":"role","type":"bytes32","internalType":"bytes32"},{"name":"account","type":"address","internalType":"address"}],"outputs":[{"name":"","type":"bool","internalType":"bool"}],"stateMutability":"view"},{"type":"function","name":"isQuoteAsset","inputs":[{"name":"token","type":"address","internalType":"contract IERC20"}],"outputs":[{"name":"isQuote","type":"bool","internalType":"bool"}],"stateMutability":"view"},{"type":"function","name":"owner","inputs":[],"outputs":[{"name":"","type":"address","internalType":"address"}],"stateMutability":"view"},{"type":"function","name":"pendingOwner","inputs":[],"outputs":[{"name":"","type":"address","internalType":"address"}],"stateMutability":"view"},{"type":"function","name":"removeLBHooksOnPair","inputs":[{"name":"tokenX","type":"address","internalType":"contract IERC20"},{"name":"tokenY","type":"address","internalType":"contract IERC20"},{"name":"binStep","type":"uint16","internalType":"uint16"}],"outputs":[],"stateMutability":"nonpayable"},{"type":"function","name":"removePreset","inputs":[{"name":"binStep","type":"uint16","internalType":"uint16"}],"outputs":[],"stateMutability":"nonpayable"},{"type":"function","name":"removeQuoteAsset","inputs":[{"name":"quoteAsset","type":"address","internalType":"contract IERC20"}],"outputs":[],"stateMutability":"nonpayable"},{"type":"function","name":"renounceOwnership","inputs":[],"outputs":[],"stateMutability":"nonpayable"},{"type":"function","name":"renounceRole","inputs":[{"name":"role","type":"bytes32","internalType":"bytes32"},{"name":"callerConfirmation","type":"address","internalType":"address"}],"outputs":[],"stateMutability":"nonpayable"},{"type":"function","name":"revokeRole","inputs":[{"name":"role","type":"bytes32","internalType":"bytes32"},{"name":"account","type":"address","internalType":"address"}],"outputs":[],"stateMutability":"nonpayable"},{"type":"function","name":"setFeeRecipient","inputs":[{"name":"feeRecipient","type":"address","internalType":"address"}],"outputs":[],"stateMutability":"nonpayable"},{"type":"function","name":"setFeesParametersOnPair","inputs":[{"name":"tokenX","type":"address","internalType":"contract IERC20"},{"name":"tokenY","type":"address","internalType":"contract IERC20"},{"name":"binStep","type":"uint16","internalType":"uint16"},{"name":"baseFactor","type":"uint16","internalType":"uint16"},{"name":"filterPeriod","type":"uint16","internalType":"uint16"},{"name":"decayPeriod","type":"uint16","internalType":"uint16"},{"name":"reductionFactor","type":"uint16","internalType":"uint16"},{"name":"variableFeeControl","type":"uint24","internalType":"uint24"},{"name":"protocolShare","type":"uint16","internalType":"uint16"},{"name":"maxVolatilityAccumulator","type":"uint24","internalType":"uint24"}],"outputs":[],"stateMutability":"nonpayable"},{"type":"function","name":"setFlashLoanFee","inputs":[{"name":"flashLoanFee","type":"uint256","internalType":"uint256"}],"outputs":[],"stateMutability":"nonpayable"},{"type":"function","name":"setLBHooksParametersOnPair","inputs":[{"name":"tokenX","type":"address","internalType":"contract IERC20"},{"name":"tokenY","type":"address","internalType":"contract IERC20"},{"name":"binStep","type":"uint16","internalType":"uint16"},{"name":"hooksParameters","type":"bytes32","internalType":"bytes32"},{"name":"onHooksSetData","type":"bytes","internalType":"bytes"}],"outputs":[],"stateMutability":"nonpayable"},{"type":"function","name":"setLBPairIgnored","inputs":[{"name":"tokenX","type":"address","internalType":"contract IERC20"},{"name":"tokenY","type":"address","internalType":"contract IERC20"},{"name":"binStep","type":"uint16","internalType":"uint16"},{"name":"ignored","type":"bool","internalType":"bool"}],"outputs":[],"stateMutability":"nonpayable"},{"type":"function","name":"setLBPairImplementation","inputs":[{"name":"newLBPairImplementation","type":"address","internalType":"address"}],"outputs":[],"stateMutability":"nonpayable"},{"type":"function","name":"setPreset","inputs":[{"name":"binStep","type":"uint16","internalType":"uint16"},{"name":"baseFactor","type":"uint16","internalType":"uint16"},{"name":"filterPeriod","type":"uint16","internalType":"uint16"},{"name":"decayPeriod","type":"uint16","internalType":"uint16"},{"name":"reductionFactor","type":"uint16","internalType":"uint16"},{"name":"variableFeeControl","type":"uint24","internalType":"uint24"},{"name":"protocolShare","type":"uint16","internalType":"uint16"},{"name":"maxVolatilityAccumulator","type":"uint24","internalType":"uint24"},{"name":"isOpen","type":"bool","internalType":"bool"}],"outputs":[],"stateMutability":"nonpayable"},{"type":"function","name":"setPresetOpenState","inputs":[{"name":"binStep","type":"uint16","internalType":"uint16"},{"name":"isOpen","type":"bool","internalType":"bool"}],"outputs":[],"stateMutability":"nonpayable"},{"type":"function","name":"supportsInterface","inputs":[{"name":"interfaceId","type":"bytes4","internalType":"bytes4"}],"outputs":[{"name":"","type":"bool","internalType":"bool"}],"stateMutability":"view"},{"type":"function","name":"transferOwnership","inputs":[{"name":"newOwner","type":"address","internalType":"address"}],"outputs":[],"stateMutability":"nonpayable"},{"type":"event","name":"FeeRecipientSet","inputs":[{"name":"oldRecipient","type":"address","indexed":false,"internalType":"address"},{"name":"newRecipient","type":"address","indexed":false,"internalType":"address"}],"anonymous":false},{"type":"event","name":"FlashLoanFeeSet","inputs":[{"name":"oldFlashLoanFee","type":"uint256","indexed":false,"internalType":"uint256"},{"name":"newFlashLoanFee","type":"uint256","indexed":false,"internalType":"uint256"}],"anonymous":false},{"type":"event","name":"LBPairCreated","inputs":[{"name":"tokenX","type":"address","indexed":true,"internalType":"contract IERC20"},{"name":"tokenY","type":"address","indexed":true,"internalType":"contract IERC20"},{"name":"binStep","type":"uint256","indexed":true,"internalType":"uint256"},{"name":"LBPair","type":"address","indexed":false,"internalType":"contract ILBPair"},{"name":"pid","type":"uint256","indexed":false,"internalType":"uint256"}],"anonymous":false},{"type":"event","name":"LBPairIgnoredStateChanged","inputs":[{"name":"LBPair","type":"address","indexed":true,"internalType":"contract ILBPair"},{"name":"ignored","type":"bool","indexed":false,"internalType":"bool"}],"anonymous":false},{"type":"event","name":"LBPairImplementationSet","inputs":[{"name":"oldLBPairImplementation","type":"address","indexed":false,"internalType":"address"},{"name":"LBPairImplementation","type":"address","indexed":false,"internalType":"address"}],"anonymous":false},{"type":"event","name":"OwnershipTransferStarted","inputs":[{"name":"previousOwner","type":"address","indexed":true,"internalType":"address"},{"name":"newOwner","type":"address","indexed":true,"internalType":"address"}],"anonymous":false},{"type":"event","name":"OwnershipTransferred","inputs":[{"name":"previousOwner","type":"address","indexed":true,"internalType":"address"},{"name":"newOwner","type":"address","indexed":true,"internalType":"address"}],"anonymous":false},{"type":"event","name":"PresetOpenStateChanged","inputs":[{"name":"binStep","type":"uint256","indexed":true,"internalType":"uint256"},{"name":"isOpen","type":"bool","indexed":true,"internalType":"bool"}],"anonymous":false},{"type":"event","name":"PresetRemoved","inputs":[{"name":"binStep","type":"uint256","indexed":true,"internalType":"uint256"}],"anonymous":false},{"type":"event","name":"PresetSet","inputs":[{"name":"binStep","type":"uint256","indexed":true,"internalType":"uint256"},{"name":"baseFactor","type":"uint256","indexed":false,"internalType":"uint256"},{"name":"filterPeriod","type":"uint256","indexed":false,"internalType":"uint256"},{"name":"decayPeriod","type":"uint256","indexed":false,"internalType":"uint256"},{"name":"reductionFactor","type":"uint256","indexed":false,"internalType":"uint256"},{"name":"variableFeeControl","type":"uint256","indexed":false,"internalType":"uint256"},{"name":"protocolShare","type":"uint256","indexed":false,"internalType":"uint256"},{"name":"maxVolatilityAccumulator","type":"uint256","indexed":false,"internalType":"uint256"}],"anonymous":false},{"type":"event","name":"QuoteAssetAdded","inputs":[{"name":"quoteAsset","type":"address","indexed":true,"internalType":"contract IERC20"}],"anonymous":false},{"type":"event","name":"QuoteAssetRemoved","inputs":[{"name":"quoteAsset","type":"address","indexed":true,"internalType":"contract IERC20"}],"anonymous":false},{"type":"event","name":"RoleAdminChanged","inputs":[{"name":"role","type":"bytes32","indexed":true,"internalType":"bytes32"},{"name":"previousAdminRole","type":"bytes32","indexed":true,"internalType":"bytes32"},{"name":"newAdminRole","type":"bytes32","indexed":true,"internalType":"bytes32"}],"anonymous":false},{"type":"event","name":"RoleGranted","inputs":[{"name":"role","type":"bytes32","indexed":true,"internalType":"bytes32"},{"name":"account","type":"address","indexed":true,"internalType":"address"},{"name":"sender","type":"address","indexed":true,"internalType":"address"}],"anonymous":false},{"type":"event","name":"RoleRevoked","inputs":[{"name":"role","type":"bytes32","indexed":true,"internalType":"bytes32"},{"name":"account","type":"address","indexed":true,"internalType":"address"},{"name":"sender","type":"address","indexed":true,"internalType":"address"}],"anonymous":false},{"type":"error","name":"AccessControlBadConfirmation","inputs":[]},{"type":"error","name":"AccessControlUnauthorizedAccount","inputs":[{"name":"account","type":"address","internalType":"address"},{"name":"neededRole","type":"bytes32","internalType":"bytes32"}]},{"type":"error","name":"EnumerableMapNonexistentKey","inputs":[{"name":"key","type":"bytes32","internalType":"bytes32"}]},{"type":"error","name":"LBFactory__AddressZero","inputs":[]},{"type":"error","name":"LBFactory__BinStepHasNoPreset","inputs":[{"name":"binStep","type":"uint256","internalType":"uint256"}]},{"type":"error","name":"LBFactory__BinStepTooLow","inputs":[{"name":"binStep","type":"uint256","internalType":"uint256"}]},{"type":"error","name":"LBFactory__CannotGrantDefaultAdminRole","inputs":[]},{"type":"error","name":"LBFactory__FlashLoanFeeAboveMax","inputs":[{"name":"fees","type":"uint256","internalType":"uint256"},{"name":"maxFees","type":"uint256","internalType":"uint256"}]},{"type":"error","name":"LBFactory__IdenticalAddresses","inputs":[{"name":"token","type":"address","internalType":"contract IERC20"}]},{"type":"error","name":"LBFactory__ImplementationNotSet","inputs":[]},{"type":"error","name":"LBFactory__InvalidHooksParameters","inputs":[]},{"type":"error","name":"LBFactory__LBPairAlreadyExists","inputs":[{"name":"tokenX","type":"address","internalType":"contract IERC20"},{"name":"tokenY","type":"address","internalType":"contract IERC20"},{"name":"_binStep","type":"uint256","internalType":"uint256"}]},{"type":"error","name":"LBFactory__LBPairDoesNotExist","inputs":[{"name":"tokenX","type":"address","internalType":"contract IERC20"},{"name":"tokenY","type":"address","internalType":"contract IERC20"},{"name":"binStep","type":"uint256","internalType":"uint256"}]},{"type":"error","name":"LBFactory__LBPairIgnoredIsAlreadyInTheSameState","inputs":[]},{"type":"error","name":"LBFactory__LBPairNotCreated","inputs":[{"name":"tokenX","type":"address","internalType":"contract IERC20"},{"name":"tokenY","type":"address","internalType":"contract IERC20"},{"name":"binStep","type":"uint256","internalType":"uint256"}]},{"type":"error","name":"LBFactory__LBPairSafetyCheckFailed","inputs":[{"name":"LBPairImplementation","type":"address","internalType":"address"}]},{"type":"error","name":"LBFactory__PresetIsLockedForUsers","inputs":[{"name":"user","type":"address","internalType":"address"},{"name":"binStep","type":"uint256","internalType":"uint256"}]},{"type":"error","name":"LBFactory__PresetOpenStateIsAlreadyInTheSameState","inputs":[]},{"type":"error","name":"LBFactory__QuoteAssetAlreadyWhitelisted","inputs":[{"name":"quoteAsset","type":"address","internalType":"contract IERC20"}]},{"type":"error","name":"LBFactory__QuoteAssetNotWhitelisted","inputs":[{"name":"quoteAsset","type":"address","internalType":"contract IERC20"}]},{"type":"error","name":"LBFactory__SameFeeRecipient","inputs":[{"name":"feeRecipient","type":"address","internalType":"address"}]},{"type":"error","name":"LBFactory__SameFlashLoanFee","inputs":[{"name":"flashLoanFee","type":"uint256","internalType":"uint256"}]},{"type":"error","name":"LBFactory__SameHooksImplementation","inputs":[{"name":"hooksImplementation","type":"address","internalType":"address"}]},{"type":"error","name":"LBFactory__SameHooksParameters","inputs":[{"name":"hooksParameters","type":"bytes32","internalType":"bytes32"}]},{"type":"error","name":"LBFactory__SameImplementation","inputs":[{"name":"LBPairImplementation","type":"address","internalType":"address"}]},{"type":"error","name":"OwnableInvalidOwner","inputs":[{"name":"owner","type":"address","internalType":"address"}]},{"type":"error","name":"OwnableUnauthorizedAccount","inputs":[{"name":"account","type":"address","internalType":"address"}]},{"type":"error","name":"PairParametersHelper__InvalidParameter","inputs":[]},{"type":"error","name":"SafeCast__Exceeds16Bits","inputs":[]},{"type":"error","name":"Uint128x128Math__PowUnderflow","inputs":[{"name":"x","type":"uint256","internalType":"uint256"},{"name":"y","type":"int256","internalType":"int256"}]}],"bytecode":{"object":"0x60806040523480156200001157600080fd5b506040516200319938038062003199833981016040819052620000349162000253565b816001600160a01b0381166200006557604051631e4fbdf760e01b8152600060048201526024015b60405180910390fd5b620000708162000100565b5067016345785d8a0000811115620000ad57604051635e8988c160e01b81526004810182905267016345785d8a000060248201526044016200005c565b620000b8836200011e565b60048190556040805160008152602081018390527f5c34e91c94c78b662a45d0bd4a25a4e32c584c54a45a76e4a4d43be27ba40e50910160405180910390a150505062000294565b600180546001600160a01b03191690556200011b81620001e6565b50565b6001600160a01b0381166200014657604051632573cfb960e21b815260040160405180910390fd5b6003546001600160a01b0390811690821681036200018757600354604051634fcea97160e01b81526001600160a01b0390911660048201526024016200005c565b600380546001600160a01b0319166001600160a01b0384811691821790925560408051928416835260208301919091527f15d80a013f22151bc7246e3bc132e12828cde19de98870475e3fa70840152721910160405180910390a15050565b600080546001600160a01b038381166001600160a01b0319831681178455604051919092169283917f8be0079c531659141344cd1fd0a4f28419497f9722a3daafe3b4186f6b6457e09190a35050565b80516001600160a01b03811681146200024e57600080fd5b919050565b6000806000606084860312156200026957600080fd5b620002748462000236565b9250620002846020850162000236565b9150604084015190509250925092565b612ef580620002a46000396000f3fe608060405234801561001057600080fd5b50600436106102de5760003560e01c8063701ab8c111610186578063aabc4b3c116100e3578063e203a31f11610097578063e92d0d5d11610071578063e92d0d5d14610627578063f2fde38b1461063a578063fd90c2be1461064d57600080fd5b8063e203a31f146105f0578063e30c397814610603578063e74b981b1461061457600080fd5b8063b0384781116100c8578063b0384781146105b7578063d547741f146105ca578063ddbfd941146105dd57600080fd5b8063aabc4b3c14610556578063af371065146105a657600080fd5b806380c5061e1161013a5780638da5cb5b1161011f5780638da5cb5b1461052a57806391d148541461053b578063a217fddf1461054e57600080fd5b806380c5061e146105145780638ce9aa1c1461051c57600080fd5b8063715018a61161016b578063715018a6146104f157806379ba5097146104f95780637daf5d661461050157600080fd5b8063701ab8c1146104ca578063704037bd146104d157600080fd5b8063379ee8031161023f5780634e937c3a116101f3578063659ac74b116101cd578063659ac74b146104845780636622e0d71461049757806369d56ea3146104b757600080fd5b80634e937c3a146104615780635a440923146104695780635b35875c1461047c57600080fd5b80633c78a941116102245780633c78a9411461042a5780634ccb20c01461043d5780634cd161d31461044e57600080fd5b8063379ee803146104045780633a2f1a911461041757600080fd5b8063248a9ca3116102965780632cc06b8c1161027b5780632cc06b8c146103cb5780632f2ff15d146103de57806336568abe146103f157600080fd5b8063248a9ca31461039557806327721842146103b857600080fd5b80630752092b116102c75780630752092b14610320578063093ff7691461034b5780631af5bacc1461036057600080fd5b806301ffc9a7146102e35780630282c9c11461030b575b600080fd5b6102f66102f13660046127ff565b610655565b60405190151581526020015b60405180910390f35b61031361068c565b6040516103029190612829565b61033361032e36600461286d565b610766565b6040516001600160a01b039091168152602001610302565b61035e6103593660046128c0565b610773565b005b6103877fdcf4465aa60d92459eb361fac2489220ae3c524301cc0433c30a5d83e8fb0fa981565b604051908152602001610302565b6103876103a336600461286d565b60009081526002602052604090206001015490565b6102f66103c636600461297e565b610879565b61035e6103d936600461299b565b610886565b61035e6103ec3660046129e2565b6108d5565b61035e6103ff3660046129e2565b6108fa565b61035e610412366004612a22565b610932565b61035e610425366004612aca565b610a4e565b61035e61043836600461297e565b610b00565b6003546001600160a01b0316610333565b61035e61045c366004612b7b565b610b5e565b600654610387565b61035e61047736600461297e565b610c29565b610313610c9b565b610333610492366004612bae565b610cac565b6104aa6104a5366004612c06565b6111f7565b6040516103029190612c34565b61035e6104c5366004612ca8565b61138f565b6001610387565b6104e46104df366004612cf5565b611519565b6040516103029190612d36565b61035e611550565b61035e611564565b61033361050f36600461286d565b6115a8565b6103876115d8565b67016345785d8a0000610387565b6000546001600160a01b0316610333565b6102f66105493660046129e2565b6115e4565b610387600081565b61056961056436600461286d565b611630565b604080519889526020890197909752958701949094526060860192909252608085015260a084015260c0830152151560e082015261010001610302565b6005546001600160a01b0316610333565b61035e6105c536600461297e565b6116f1565b61035e6105d83660046129e2565b611832565b61035e6105eb36600461297e565b611857565b61035e6105fe366004612d72565b6118c9565b6001546001600160a01b0316610333565b61035e61062236600461297e565b611935565b61035e61063536600461286d565b611946565b61035e61064836600461297e565b6119e9565b600454610387565b60006001600160e01b03198216637965db0b60e01b148061068657506301ffc9a760e01b6001600160e01b03198316145b92915050565b6060600061069a6008611a5a565b90508015610762578067ffffffffffffffff8111156106bb576106bb612d8d565b6040519080825280602002602001820160405280156106e4578160200160208202803683370190505b5091506000805b8281101561075357600080610701600884611a65565b909250905061070f81611a81565b15610740578186858151811061072757610727612da3565b60209081029190910101528361073c81612dcf565b9450505b50508061074c90612dcf565b90506106eb565b5081811015610760578083525b505b5090565b6000610686600b83611a8d565b61077b611a99565b600061078c8b8b8b61ffff16611ac6565b6020015190506001600160a01b0381166107db5760405163b65ee95360e01b81526001600160a01b03808d1660048301528b16602482015261ffff8a1660448201526064015b60405180910390fd5b604051633329c28d60e11b815261ffff808a16600483015280891660248301528088166044830152808716606483015262ffffff808716608484015290851660a4830152831660c48201526001600160a01b03821690636653851a9060e401600060405180830381600087803b15801561085457600080fd5b505af1158015610868573d6000803e3d6000fd5b505050505050505050505050505050565b6000610686600b83611b70565b7fdcf4465aa60d92459eb361fac2489220ae3c524301cc0433c30a5d83e8fb0fa96108b081611b92565b604080516000808252602082019092526108cf91869186918691611b9c565b50505050565b6000828152600260205260409020600101546108f081611b92565b6108cf8383611ce3565b6001600160a01b03811633146109235760405163334bd91960e11b815260040160405180910390fd5b61092d8282611d0d565b505050565b61093a611a99565b60018961ffff16101561096657604051634f958e7160e01b815261ffff8a1660048201526024016107d2565b6000610978818a8a8a8a8a8a8a611d82565b905081156109905761098d81600160ff611e82565b90505b6109a0600861ffff8c1683611ea9565b506040805161ffff8b811682528a8116602083015289811682840152888116606083015262ffffff888116608084015287821660a0840152861660c08301529151918c16917f839844a256a87f87c9c835117d9a1c40be013954064c937072acb32d36db6a289181900360e00190a26040518215159061ffff8c16907f58a8b6a02b964cca2712e5a71d7b0d564a56b4a0f573b4c47f389341ade14cfd90600090a350505050505050505050565b7fdcf4465aa60d92459eb361fac2489220ae3c524301cc0433c30a5d83e8fb0fa9610a7881611b92565b6001600160a01b0384161580610a965750836001600160a01b031916155b15610ab45760405163d43a15d160e01b815260040160405180910390fd5b610af78787878787878080601f016020809104026020016040519081016040528093929190818152602001838380828437600092019190915250611b9c92505050565b50505050505050565b610b08611a99565b806001600160a01b031663d3b9fbe46040518163ffffffff1660e01b8152600401600060405180830381600087803b158015610b4357600080fd5b505af1158015610b57573d6000803e3d6000fd5b5050505050565b610b66611a99565b610b75600861ffff8416611eb6565b610b9857604051637d9160bf60e11b815261ffff831660048201526024016107d2565b6000610ba9600861ffff8516611ec2565b905081151560ff82901c151503610bd3576040516311be38db60e11b815260040160405180910390fd5b610bf061ffff8416610be7838560ff611e82565b60089190611ea9565b506040518215159061ffff8516907f58a8b6a02b964cca2712e5a71d7b0d564a56b4a0f573b4c47f389341ade14cfd90600090a3505050565b610c31611a99565b610c3c600b82611ece565b610c64576040516303ce0ad960e01b81526001600160a01b03821660048201526024016107d2565b6040516001600160a01b038216907f84cc2115995684dcb0cd3d3a9565e3d32f075de81db70c8dc3a719b2a47af67e90600090a250565b6060610ca76008611ee3565b905090565b6000610cbd600861ffff8416611eb6565b610ce057604051637d9160bf60e11b815261ffff831660048201526024016107d2565b6000610cf1600861ffff8516611ec2565b90506000610d076000546001600160a01b031690565b6001600160a01b0316336001600160a01b0316149050610d2682611a81565b158015610d31575080155b15610d5b576040516304fc2fe760e11b815233600482015261ffff851660248201526044016107d2565b610d66600b87611b70565b610d8e57604051638e888ef360e01b81526001600160a01b03871660048201526024016107d2565b856001600160a01b0316876001600160a01b031603610dcb57604051632f9b185360e01b81526001600160a01b03881660048201526024016107d2565b610dd58585611ef0565b50600080610de38989611f34565b90925090506001600160a01b038216610e0f57604051632573cfb960e21b815260040160405180910390fd5b6001600160a01b0382811660009081526007602090815260408083208585168452825280832061ffff8b1684529091529020546201000090041615610e845760405163cb27a43560e01b81526001600160a01b03808b1660048301528916602482015261ffff871660448201526064016107d2565b6005546001600160a01b031680610eae576040516328b4fcf960e21b815260040160405180910390fd5b6040516bffffffffffffffffffffffff1960608c811b821660208401528b901b1660348201527fffff00000000000000000000000000000000000000000000000000000000000060f089901b166048820152610f5b908290604a0160408051601f198184030181528282526001600160a01b03808916602085015287169183019190915261ffff8b1660608301529060800160405160208183030381529060405280519060200120611f5d565b6040805160808101825261ffff808b168083526001600160a01b0380861660208086018281528c15158789019081526000606089018181528e8716808352600786528b83208f89168085529087528c84208a855287528c84209b518c549651955193511515600160b81b0260ff60b81b19941515600160b01b02949094167fffffffffffffffff0000ffffffffffffffffffffffffffffffffffffffffffff96909a1662010000027fffffffffffffffffffff000000000000000000000000000000000000000000009097169b169a909a179490941792909216959095171790965560068054600181019091557ff652222313e28459528d920b65115c16c04f3efc82aaedc97be59f3f377c0d3f0180546001600160a01b031916909217909155938152600d8452848120928152919092529190912091975061109e9250612018565b508561ffff16886001600160a01b03168a6001600160a01b03167f2c8d104b27c6b7f4492017a6f5cf3803043688934ebcaa6a03540beeaf976aff8860016006805490506110ec9190612de8565b604080516001600160a01b03909316835260208301919091520160405180910390a4846001600160a01b03166347973bff61112686612024565b61112f87612030565b61113888612040565b61114189612050565b61114a8a612060565b6111538b612071565b61115c8c612081565b6040516001600160e01b031960e08a901b16815261ffff978816600482015295871660248701529386166044860152918516606485015262ffffff9081166084850152931660a4830152821660c4820152908a1660e482015261010401600060405180830381600087803b1580156111d357600080fd5b505af11580156111e7573d6000803e3d6000fd5b5050505050505050949350505050565b60606000806112068585611f34565b6001600160a01b038083166000908152600d60209081526040808320938516835292905290812092945090925061123c82612092565b90508015611385578067ffffffffffffffff81111561125d5761125d612d8d565b6040519080825280602002602001820160405280156112af57816020015b60408051608081018252600080825260208083018290529282018190526060820152825260001990920191018161127b5790505b506001600160a01b03808616600090815260076020908152604080832093881683529290529081209196505b828110156113825760006112f76112f28684611a8d565b61209c565b6040805160808101825261ffff831680825260008181526020888152848220546001600160a01b03620100008204168286015260ff600160b01b8204811615159686019690965292909152879052600160b81b90049091161515606082015289519192509089908490811061136e5761136e612da3565b6020908102919091010152506001016112db565b50505b5050505092915050565b611397611a99565b6000806113a48686611f34565b6001600160a01b0380831660009081526007602090815260408083208486168452825280832061ffff808c1685529083529281902081516080810183529054938416815262010000840490941691840182905260ff600160b01b84048116151591850191909152600160b81b909204909116151560608301529294509092509061145e5760405163102a919160e21b81526001600160a01b0380891660048301528716602482015261ffff861660448201526064016107d2565b831515816060015115150361148557604051626ee66560e11b815260040160405180910390fd5b6001600160a01b0380841660009081526007602090815260408083208685168452825280832061ffff8a1684528252918290208054881515600160b81b0260ff60b81b1990911617905583015190519116907f44cf35361c9ff3c8c1397ec6410d5495cc481feaef35c9af11da1a637107de4f9061150890871515815260200190565b60405180910390a250505050505050565b604080516080810182526000808252602082018190529181018290526060810191909152611548848484611ac6565b949350505050565b611558611a99565b61156260006120c6565b565b60015433906001600160a01b0316811461159c5760405163118cdaa760e01b81526001600160a01b03821660048201526024016107d2565b6115a5816120c6565b50565b6000600682815481106115bd576115bd612da3565b6000918252602090912001546001600160a01b031692915050565b6000610ca7600b612092565b60008261160257506000546001600160a01b03828116911614610686565b60008381526002602090815260408083206001600160a01b038616845290915290205460ff165b9392505050565b60008080808080808061164460088a611eb6565b61166457604051637d9160bf60e11b8152600481018a90526024016107d2565b600061167160088b611ec2565b905061167c81612024565b61ffff16985061168b81612030565b61ffff16975061169a81612040565b61ffff1696506116a981612050565b61ffff1695506116b881612060565b62ffffff1694506116c881612071565b61ffff1693506116d781612081565b62ffffff16925060ff81901c915050919395975091939597565b6116f9611a99565b306001600160a01b0316816001600160a01b03166388cc58e46040518163ffffffff1660e01b8152600401602060405180830381865afa158015611741573d6000803e3d6000fd5b505050506040513d601f19601f820116820180604052508101906117659190612dfb565b6001600160a01b03161461179757604051630a3e70af60e11b81526001600160a01b03821660048201526024016107d2565b6005546001600160a01b0390811690821681036117d257604051630ded3b9560e31b81526001600160a01b03831660048201526024016107d2565b600580546001600160a01b0319166001600160a01b0384811691821790925560408051928416835260208301919091527f900d0e3d359f50e4f923ecdc06b401e07dbb9f485e17b07bcfc91a13000b277e91015b60405180910390a15050565b60008281526002602052604090206001015461184d81611b92565b6108cf8383611d0d565b61185f611a99565b61186a600b826120df565b61189257604051638e888ef360e01b81526001600160a01b03821660048201526024016107d2565b6040516001600160a01b038216907f0b767739217755d8af5a2ba75b181a19fa1750f8bb701f09311cb19a90140cb390600090a250565b6118d1611a99565b6118e0600861ffff83166120f4565b61190357604051637d9160bf60e11b815261ffff821660048201526024016107d2565b60405161ffff8216907fdd86b848bb56ff540caa68683fa467d0e7eb5f8b2d44e4ee435742eeeae9be1390600090a250565b61193d611a99565b6115a581612100565b61194e611a99565b60045481810361197457604051631baa31e960e21b8152600481018390526024016107d2565b67016345785d8a00008211156119ae57604051635e8988c160e01b81526004810183905267016345785d8a000060248201526044016107d2565b600482905560408051828152602081018490527f5c34e91c94c78b662a45d0bd4a25a4e32c584c54a45a76e4a4d43be27ba40e509101611826565b6119f1611a99565b600180546001600160a01b0383166001600160a01b03199091168117909155611a226000546001600160a01b031690565b6001600160a01b03167f38d16b8cac22d99fc7c124b9cd0de2d3fa1faef420bfe791d8c362d765e2270060405160405180910390a350565b6000610686826121be565b6000808080611a7486866121c9565b9097909650945050505050565b600060ff82901c610686565b600061162983836121f4565b6000546001600160a01b031633146115625760405163118cdaa760e01b81523360048201526024016107d2565b604080516080810182526000808252602082018190529181018290526060810191909152611af48484611f34565b6001600160a01b03918216600090815260076020908152604080832093851683529281528282209582529485528190208151608081018352905461ffff811682526201000081049093169481019490945260ff600160b01b83048116151591850191909152600160b81b90910416151560608301525092915050565b6001600160a01b03811660009081526001830160205260408120541515611629565b6115a5813361221e565b6000611bad86868661ffff16611ac6565b6020015190506001600160a01b038116611bf75760405163b65ee95360e01b81526001600160a01b0380881660048301528616602482015261ffff851660448201526064016107d2565b82816001600160a01b031663781a89156040518163ffffffff1660e01b8152600401602060405180830381865afa158015611c36573d6000803e3d6000fd5b505050506040513d601f19601f82011682018060405250810190611c5a9190612e18565b03611c7b5760405163b70cd0db60e01b8152600481018490526024016107d2565b604051631b057f6d60e01b81526001600160a01b03821690631b057f6d90611ca99086908690600401612e31565b600060405180830381600087803b158015611cc357600080fd5b505af1158015611cd7573d6000803e3d6000fd5b50505050505050505050565b600082611d0357604051633e3253cf60e11b815260040160405180910390fd5b611629838361225b565b6000611d1983836115e4565b15611d7a5760008381526002602090815260408083206001600160a01b0386168085529252808320805460ff1916905551339286917ff6391f5c32d9c69d2a47ea670b442974b53935d1edc7fd64eb21e047a839171b9190a4506001610686565b506000610686565b60008561ffff168761ffff161180611d9f5750610fff8661ffff16115b80611daf57506127108561ffff16115b80611dbf57506109c48361ffff16115b80611dd15750620fffff8262ffffff16115b15611def57604051631c07203f60e01b815260040160405180910390fd5b5060109590951b630fff00001661ffff9690961695909517601c9390931b64fff0000000169290921760289190911b663fff0000000000161760369190911b693fffffc00000000000001617604e9290921b6b0fffc00000000000000000001691909117605c9190911b6dfffff0000000000000000000000016176dffffffffffffffffffffffffffff19919091161790565b60006115488484611e94576000611e97565b60015b600180861b19929092169116841b1790565b60006115488484846122e7565b60006116298383612304565b60006116298383612310565b6000611629836001600160a01b038416612357565b606060006116298361239e565b600061271071ffff00000000000000000000000000000000608084901b1604600160801b0162ffffff8416627fffff1901611f2b82826123a9565b95945050505050565b600080826001600160a01b0316846001600160a01b03161115611f55579192915b509192909150565b600060408303516020840351845180602087010180516002830161ffca811115611f8f5763c8c781396000526004601cfd5b6c5af43d3d93803e603357fd5bf3895289600d8a03527d6100003d81600a3d39f3363d3d373d3d3d3d610000806035363936013d738160481b176035820160d81b1760218a03528060f01b835287603f8201601f8b036000f596505085611ffe5763301164256000526004601cfd5b90528552601f19850152603f199093019290925250919050565b60006116298383612357565b600061ffff8216610686565b60006106868260101c610fff1690565b600061068682601c1c610fff1690565b60006106868260281c613fff1690565b60006106868260361c62ffffff1690565b600061068682604e1c613fff1690565b600061068682605c1c620fffff1690565b6000610686825490565b8061ffff811681146120c1576040516364ae406d60e01b815260040160405180910390fd5b919050565b600180546001600160a01b03191690556115a581612612565b6000611629836001600160a01b038416612662565b60006116298383612755565b6001600160a01b03811661212757604051632573cfb960e21b815260040160405180910390fd5b6003546001600160a01b03908116908216810361216657600354604051634fcea97160e01b81526001600160a01b0390911660048201526024016107d2565b600380546001600160a01b0319166001600160a01b0384811691821790925560408051928416835260208301919091527f15d80a013f22151bc7246e3bc132e12828cde19de98870475e3fa708401527219101611826565b600061068682612092565b600080806121d78585611a8d565b600081815260029690960160205260409095205494959350505050565b600082600001828154811061220b5761220b612da3565b9060005260206000200154905092915050565b61222882826115e4565b6122575760405163e2517d3f60e01b81526001600160a01b0382166004820152602481018390526044016107d2565b5050565b600061226783836115e4565b611d7a5760008381526002602090815260408083206001600160a01b03861684529091529020805460ff1916600117905561229f3390565b6001600160a01b0316826001600160a01b0316847f2f8788117e7eff1d82e926ec794901d17c78024a50270940304540a733656f0d60405160405180910390a4506001610686565b600082815260028401602052604081208290556115488484612018565b60006116298383612772565b60008181526002830160205260408120548015801561233657506123348484612304565b155b156116295760405163015ab34360e11b8152600481018490526024016107d2565b6000818152600183016020526040812054611d7a57508154600181810184556000848152602080822090930184905584548482528286019093526040902091909155610686565b60606106868261278a565b6000806000836000036123c55750600160801b91506106869050565b508260008112156123d7579015906000035b621000008110156125d057600160801b9250846fffffffffffffffffffffffffffffffff81111561240a57911591600019045b600182161561241b5792830260801c925b800260801c60028216156124315792830260801c925b800260801c60048216156124475792830260801c925b800260801c600882161561245d5792830260801c925b800260801c60108216156124735792830260801c925b800260801c60208216156124895792830260801c925b800260801c604082161561249f5792830260801c925b8002608090811c908216156124b65792830260801c925b800260801c6101008216156124cd5792830260801c925b800260801c6102008216156124e45792830260801c925b800260801c6104008216156124fb5792830260801c925b800260801c6108008216156125125792830260801c925b800260801c6110008216156125295792830260801c925b800260801c6120008216156125405792830260801c925b800260801c6140008216156125575792830260801c925b800260801c61800082161561256e5792830260801c925b800260801c620100008216156125865792830260801c925b800260801c6202000082161561259e5792830260801c925b800260801c620400008216156125b65792830260801c925b800260801c620800008216156125ce5792830260801c925b505b826000036125fb57604051631dba598d60e11b815260048101869052602481018590526044016107d2565b816126065782611f2b565b611f2b83600019612e87565b600080546001600160a01b038381166001600160a01b0319831681178455604051919092169283917f8be0079c531659141344cd1fd0a4f28419497f9722a3daafe3b4186f6b6457e09190a35050565b6000818152600183016020526040812054801561274b576000612686600183612de8565b855490915060009061269a90600190612de8565b90508082146126ff5760008660000182815481106126ba576126ba612da3565b90600052602060002001549050808760000184815481106126dd576126dd612da3565b6000918252602080832090910192909255918252600188019052604090208390555b855486908061271057612710612ea9565b600190038181906000526020600020016000905590558560010160008681526020019081526020016000206000905560019350505050610686565b6000915050610686565b600081815260028301602052604081208190556116298383612797565b60008181526001830160205260408120541515611629565b60606000611629836127a3565b60006116298383612662565b6060816000018054806020026020016040519081016040528092919081815260200182805480156127f357602002820191906000526020600020905b8154815260200190600101908083116127df575b50505050509050919050565b60006020828403121561281157600080fd5b81356001600160e01b03198116811461162957600080fd5b6020808252825182820181905260009190848201906040850190845b8181101561286157835183529284019291840191600101612845565b50909695505050505050565b60006020828403121561287f57600080fd5b5035919050565b6001600160a01b03811681146115a557600080fd5b803561ffff811681146120c157600080fd5b803562ffffff811681146120c157600080fd5b6000806000806000806000806000806101408b8d0312156128e057600080fd5b8a356128eb81612886565b995060208b01356128fb81612886565b985061290960408c0161289b565b975061291760608c0161289b565b965061292560808c0161289b565b955061293360a08c0161289b565b945061294160c08c0161289b565b935061294f60e08c016128ad565b925061295e6101008c0161289b565b915061296d6101208c016128ad565b90509295989b9194979a5092959850565b60006020828403121561299057600080fd5b813561162981612886565b6000806000606084860312156129b057600080fd5b83356129bb81612886565b925060208401356129cb81612886565b91506129d96040850161289b565b90509250925092565b600080604083850312156129f557600080fd5b823591506020830135612a0781612886565b809150509250929050565b803580151581146120c157600080fd5b60008060008060008060008060006101208a8c031215612a4157600080fd5b612a4a8a61289b565b9850612a5860208b0161289b565b9750612a6660408b0161289b565b9650612a7460608b0161289b565b9550612a8260808b0161289b565b9450612a9060a08b016128ad565b9350612a9e60c08b0161289b565b9250612aac60e08b016128ad565b9150612abb6101008b01612a12565b90509295985092959850929598565b60008060008060008060a08789031215612ae357600080fd5b8635612aee81612886565b95506020870135612afe81612886565b9450612b0c6040880161289b565b935060608701359250608087013567ffffffffffffffff80821115612b3057600080fd5b818901915089601f830112612b4457600080fd5b813581811115612b5357600080fd5b8a6020828501011115612b6557600080fd5b6020830194508093505050509295509295509295565b60008060408385031215612b8e57600080fd5b612b978361289b565b9150612ba560208401612a12565b90509250929050565b60008060008060808587031215612bc457600080fd5b8435612bcf81612886565b93506020850135612bdf81612886565b9250612bed604086016128ad565b9150612bfb6060860161289b565b905092959194509250565b60008060408385031215612c1957600080fd5b8235612c2481612886565b91506020830135612a0781612886565b6020808252825182820181905260009190848201906040850190845b8181101561286157612c9583855161ffff81511682526001600160a01b0360208201511660208301526040810151151560408301526060810151151560608301525050565b9284019260809290920191600101612c50565b60008060008060808587031215612cbe57600080fd5b8435612cc981612886565b93506020850135612cd981612886565b9250612ce76040860161289b565b9150612bfb60608601612a12565b600080600060608486031215612d0a57600080fd5b8335612d1581612886565b92506020840135612d2581612886565b929592945050506040919091013590565b815161ffff1681526020808301516001600160a01b03169082015260408083015115159082015260608083015115159082015260808101610686565b600060208284031215612d8457600080fd5b6116298261289b565b634e487b7160e01b600052604160045260246000fd5b634e487b7160e01b600052603260045260246000fd5b634e487b7160e01b600052601160045260246000fd5b600060018201612de157612de1612db9565b5060010190565b8181038181111561068657610686612db9565b600060208284031215612e0d57600080fd5b815161162981612886565b600060208284031215612e2a57600080fd5b5051919050565b82815260006020604081840152835180604085015260005b81811015612e6557858101830151858201606001528201612e49565b506000606082860101526060601f19601f830116850101925050509392505050565b600082612ea457634e487b7160e01b600052601260045260246000fd5b500490565b634e487b7160e01b600052603160045260246000fdfea264697066735822122044c434169616949a5201b651b01699c4bfc6c4f0d99bb8e1d64c04a5c038ccb364736f6c63430008140033","linkReferences":{}},"methodIdentifiers":{"DEFAULT_ADMIN_ROLE()":"a217fddf","LB_HOOKS_MANAGER_ROLE()":"1af5bacc","acceptOwnership()":"79ba5097","addQuoteAsset(address)":"5a440923","createLBPair(address,address,uint24,uint16)":"659ac74b","forceDecay(address)":"3c78a941","getAllBinSteps()":"5b35875c","getAllLBPairs(address,address)":"6622e0d7","getFeeRecipient()":"4ccb20c0","getFlashLoanFee()":"fd90c2be","getLBPairAtIndex(uint256)":"7daf5d66","getLBPairImplementation()":"af371065","getLBPairInformation(address,address,uint256)":"704037bd","getMaxFlashLoanFee()":"8ce9aa1c","getMinBinStep()":"701ab8c1","getNumberOfLBPairs()":"4e937c3a","getNumberOfQuoteAssets()":"80c5061e","getOpenBinSteps()":"0282c9c1","getPreset(uint256)":"aabc4b3c","getQuoteAssetAtIndex(uint256)":"0752092b","getRoleAdmin(bytes32)":"248a9ca3","grantRole(bytes32,address)":"2f2ff15d","hasRole(bytes32,address)":"91d14854","isQuoteAsset(address)":"27721842","owner()":"8da5cb5b","pendingOwner()":"e30c3978","removeLBHooksOnPair(address,address,uint16)":"2cc06b8c","removePreset(uint16)":"e203a31f","removeQuoteAsset(address)":"ddbfd941","renounceOwnership()":"715018a6","renounceRole(bytes32,address)":"36568abe","revokeRole(bytes32,address)":"d547741f","setFeeRecipient(address)":"e74b981b","setFeesParametersOnPair(address,address,uint16,uint16,uint16,uint16,uint16,uint24,uint16,uint24)":"093ff769","setFlashLoanFee(uint256)":"e92d0d5d","setLBHooksParametersOnPair(address,address,uint16,bytes32,bytes)":"3a2f1a91","setLBPairIgnored(address,address,uint16,bool)":"69d56ea3","setLBPairImplementation(address)":"b0384781","setPreset(uint16,uint16,uint16,uint16,uint16,uint24,uint16,uint24,bool)":"379ee803","setPresetOpenState(uint16,bool)":"4cd161d3","supportsInterface(bytes4)":"01ffc9a7","transferOwnership(address)":"f2fde38b"},"id":43}