{"abi":[{"type":"constructor","inputs":[],"stateMutability":"nonpayable"},{"type":"function","name":"DEFAULT_ADMIN_ROLE","inputs":[],"outputs":[{"name":"","type":"bytes32","internalType":"bytes32"}],"stateMutability":"view"},{"type":"function","name":"LB_HOOKS_MANAGER_ROLE","inputs":[],"outputs":[{"name":"","type":"bytes32","internalType":"bytes32"}],"stateMutability":"view"},{"type":"function","name":"PAUSER_ROLE","inputs":[],"outputs":[{"name":"","type":"bytes32","internalType":"bytes32"}],"stateMutability":"view"},{"type":"function","name":"acceptOwnership","inputs":[],"outputs":[],"stateMutability":"nonpayable"},{"type":"function","name":"addQuoteAsset","inputs":[{"name":"quoteAsset","type":"address","internalType":"contract IERC20"}],"outputs":[],"stateMutability":"nonpayable"},{"type":"function","name":"createLBPair","inputs":[{"name":"tokenX","type":"address","internalType":"contract IERC20"},{"name":"tokenY","type":"address","internalType":"contract IERC20"},{"name":"activeId","type":"uint24","internalType":"uint24"},{"name":"binStep","type":"uint16","internalType":"uint16"}],"outputs":[{"name":"pair","type":"address","internalType":"contract ILBPair"}],"stateMutability":"nonpayable"},{"type":"function","name":"forceDecay","inputs":[{"name":"pair","type":"address","internalType":"contract ILBPair"}],"outputs":[],"stateMutability":"nonpayable"},{"type":"function","name":"getAllBinSteps","inputs":[],"outputs":[{"name":"binStepWithPreset","type":"uint256[]","internalType":"uint256[]"}],"stateMutability":"view"},{"type":"function","name":"getAllLBPairs","inputs":[{"name":"tokenX","type":"address","internalType":"contract IERC20"},{"name":"tokenY","type":"address","internalType":"contract IERC20"}],"outputs":[{"name":"lbPairsAvailable","type":"tuple[]","internalType":"struct ILBFactory.LBPairInformation[]","components":[{"name":"binStep","type":"uint16","internalType":"uint16"},{"name":"LBPair","type":"address","internalType":"contract ILBPair"},{"name":"createdByOwner","type":"bool","internalType":"bool"},{"name":"ignoredForRouting","type":"bool","internalType":"bool"}]}],"stateMutability":"view"},{"type":"function","name":"getFeeRecipient","inputs":[],"outputs":[{"name":"feeRecipient","type":"address","internalType":"address"}],"stateMutability":"view"},{"type":"function","name":"getFlashLoanFee","inputs":[],"outputs":[{"name":"flashLoanFee","type":"uint256","internalType":"uint256"}],"stateMutability":"view"},{"type":"function","name":"getLBPairAtIndex","inputs":[{"name":"index","type":"uint256","internalType":"uint256"}],"outputs":[{"name":"lbPair","type":"address","internalType":"contract ILBPair"}],"stateMutability":"view"},{"type":"function","name":"getLBPairImplementation","inputs":[],"outputs":[{"name":"lbPairImplementation","type":"address","internalType":"address"}],"stateMutability":"view"},{"type":"function","name":"getLBPairInformation","inputs":[{"name":"tokenA","type":"address","internalType":"contract IERC20"},{"name":"tokenB","type":"address","internalType":"contract IERC20"},{"name":"binStep","type":"uint256","internalType":"uint256"}],"outputs":[{"name":"lbPairInformation","type":"tuple","internalType":"struct ILBFactory.LBPairInformation","components":[{"name":"binStep","type":"uint16","internalType":"uint16"},{"name":"LBPair","type":"address","internalType":"contract ILBPair"},{"name":"createdByOwner","type":"bool","internalType":"bool"},{"name":"ignoredForRouting","type":"bool","internalType":"bool"}]}],"stateMutability":"view"},{"type":"function","name":"getMaxFlashLoanFee","inputs":[],"outputs":[{"name":"maxFee","type":"uint256","internalType":"uint256"}],"stateMutability":"pure"},{"type":"function","name":"getMinBinStep","inputs":[],"outputs":[{"name":"minBinStep","type":"uint256","internalType":"uint256"}],"stateMutability":"pure"},{"type":"function","name":"getNumberOfLBPairs","inputs":[],"outputs":[{"name":"lbPairNumber","type":"uint256","internalType":"uint256"}],"stateMutability":"view"},{"type":"function","name":"getNumberOfQuoteAssets","inputs":[],"outputs":[{"name":"numberOfQuoteAssets","type":"uint256","internalType":"uint256"}],"stateMutability":"view"},{"type":"function","name":"getOpenBinSteps","inputs":[],"outputs":[{"name":"openBinStep","type":"uint256[]","internalType":"uint256[]"}],"stateMutability":"view"},{"type":"function","name":"getPauserRole","inputs":[],"outputs":[{"name":"","type":"bytes32","internalType":"bytes32"}],"stateMutability":"pure"},{"type":"function","name":"getPreset","inputs":[{"name":"binStep","type":"uint256","internalType":"uint256"}],"outputs":[{"name":"baseFactor","type":"uint256","internalType":"uint256"},{"name":"filterPeriod","type":"uint256","internalType":"uint256"},{"name":"decayPeriod","type":"uint256","internalType":"uint256"},{"name":"reductionFactor","type":"uint256","internalType":"uint256"},{"name":"variableFeeControl","type":"uint256","internalType":"uint256"},{"name":"protocolShare","type":"uint256","internalType":"uint256"},{"name":"maxVolatilityAccumulator","type":"uint256","internalType":"uint256"},{"name":"isOpen","type":"bool","internalType":"bool"}],"stateMutability":"view"},{"type":"function","name":"getQuoteAssetAtIndex","inputs":[{"name":"index","type":"uint256","internalType":"uint256"}],"outputs":[{"name":"asset","type":"address","internalType":"contract IERC20"}],"stateMutability":"view"},{"type":"function","name":"getRoleAdmin","inputs":[{"name":"role","type":"bytes32","internalType":"bytes32"}],"outputs":[{"name":"","type":"bytes32","internalType":"bytes32"}],"stateMutability":"view"},{"type":"function","name":"grantRole","inputs":[{"name":"role","type":"bytes32","internalType":"bytes32"},{"name":"account","type":"address","internalType":"address"}],"outputs":[],"stateMutability":"nonpayable"},{"type":"function","name":"hasRole","inputs":[{"name":"role","type":"bytes32","internalType":"bytes32"},{"name":"account","type":"address","internalType":"address"}],"outputs":[{"name":"","type":"bool","internalType":"bool"}],"stateMutability":"view"},{"type":"function","name":"initialize","inputs":[{"name":"feeRecipient","type":"address","internalType":"address"},{"name":"initialOwner","type":"address","internalType":"address"},{"name":"flashLoanFee","type":"uint256","internalType":"uint256"},{"name":"lbPairBeaconAddress","type":"address","internalType":"address"}],"outputs":[],"stateMutability":"nonpayable"},{"type":"function","name":"isQuoteAsset","inputs":[{"name":"token","type":"address","internalType":"contract IERC20"}],"outputs":[{"name":"isQuote","type":"bool","internalType":"bool"}],"stateMutability":"view"},{"type":"function","name":"owner","inputs":[],"outputs":[{"name":"","type":"address","internalType":"address"}],"stateMutability":"view"},{"type":"function","name":"pendingOwner","inputs":[],"outputs":[{"name":"","type":"address","internalType":"address"}],"stateMutability":"view"},{"type":"function","name":"removeLBHooksOnPair","inputs":[{"name":"tokenX","type":"address","internalType":"contract IERC20"},{"name":"tokenY","type":"address","internalType":"contract IERC20"},{"name":"binStep","type":"uint16","internalType":"uint16"}],"outputs":[],"stateMutability":"nonpayable"},{"type":"function","name":"removePreset","inputs":[{"name":"binStep","type":"uint16","internalType":"uint16"}],"outputs":[],"stateMutability":"nonpayable"},{"type":"function","name":"removeQuoteAsset","inputs":[{"name":"quoteAsset","type":"address","internalType":"contract IERC20"}],"outputs":[],"stateMutability":"nonpayable"},{"type":"function","name":"renounceOwnership","inputs":[],"outputs":[],"stateMutability":"nonpayable"},{"type":"function","name":"renounceRole","inputs":[{"name":"role","type":"bytes32","internalType":"bytes32"},{"name":"callerConfirmation","type":"address","internalType":"address"}],"outputs":[],"stateMutability":"nonpayable"},{"type":"function","name":"revokeRole","inputs":[{"name":"role","type":"bytes32","internalType":"bytes32"},{"name":"account","type":"address","internalType":"address"}],"outputs":[],"stateMutability":"nonpayable"},{"type":"function","name":"setFeeRecipient","inputs":[{"name":"feeRecipient","type":"address","internalType":"address"}],"outputs":[],"stateMutability":"nonpayable"},{"type":"function","name":"setFeesParametersOnPair","inputs":[{"name":"tokenX","type":"address","internalType":"contract IERC20"},{"name":"tokenY","type":"address","internalType":"contract IERC20"},{"name":"binStep","type":"uint16","internalType":"uint16"},{"name":"baseFactor","type":"uint16","internalType":"uint16"},{"name":"filterPeriod","type":"uint16","internalType":"uint16"},{"name":"decayPeriod","type":"uint16","internalType":"uint16"},{"name":"reductionFactor","type":"uint16","internalType":"uint16"},{"name":"variableFeeControl","type":"uint24","internalType":"uint24"},{"name":"protocolShare","type":"uint16","internalType":"uint16"},{"name":"maxVolatilityAccumulator","type":"uint24","internalType":"uint24"}],"outputs":[],"stateMutability":"nonpayable"},{"type":"function","name":"setFlashLoanFee","inputs":[{"name":"flashLoanFee","type":"uint256","internalType":"uint256"}],"outputs":[],"stateMutability":"nonpayable"},{"type":"function","name":"setLBHooksParametersOnPair","inputs":[{"name":"tokenX","type":"address","internalType":"contract IERC20"},{"name":"tokenY","type":"address","internalType":"contract IERC20"},{"name":"binStep","type":"uint16","internalType":"uint16"},{"name":"hooksParameters","type":"bytes32","internalType":"bytes32"},{"name":"onHooksSetData","type":"bytes","internalType":"bytes"}],"outputs":[],"stateMutability":"nonpayable"},{"type":"function","name":"setLBPairIgnored","inputs":[{"name":"tokenX","type":"address","internalType":"contract IERC20"},{"name":"tokenY","type":"address","internalType":"contract IERC20"},{"name":"binStep","type":"uint16","internalType":"uint16"},{"name":"ignored","type":"bool","internalType":"bool"}],"outputs":[],"stateMutability":"nonpayable"},{"type":"function","name":"setLBPairImplementation","inputs":[{"name":"newLBPairImplementation","type":"address","internalType":"address"}],"outputs":[],"stateMutability":"nonpayable"},{"type":"function","name":"setPreset","inputs":[{"name":"binStep","type":"uint16","internalType":"uint16"},{"name":"baseFactor","type":"uint16","internalType":"uint16"},{"name":"filterPeriod","type":"uint16","internalType":"uint16"},{"name":"decayPeriod","type":"uint16","internalType":"uint16"},{"name":"reductionFactor","type":"uint16","internalType":"uint16"},{"name":"variableFeeControl","type":"uint24","internalType":"uint24"},{"name":"protocolShare","type":"uint16","internalType":"uint16"},{"name":"maxVolatilityAccumulator","type":"uint24","internalType":"uint24"},{"name":"isOpen","type":"bool","internalType":"bool"}],"outputs":[],"stateMutability":"nonpayable"},{"type":"function","name":"setPresetOpenState","inputs":[{"name":"binStep","type":"uint16","internalType":"uint16"},{"name":"isOpen","type":"bool","internalType":"bool"}],"outputs":[],"stateMutability":"nonpayable"},{"type":"function","name":"supportsInterface","inputs":[{"name":"interfaceId","type":"bytes4","internalType":"bytes4"}],"outputs":[{"name":"","type":"bool","internalType":"bool"}],"stateMutability":"view"},{"type":"function","name":"transferOwnership","inputs":[{"name":"newOwner","type":"address","internalType":"address"}],"outputs":[],"stateMutability":"nonpayable"},{"type":"event","name":"FeeRecipientSet","inputs":[{"name":"oldRecipient","type":"address","indexed":false,"internalType":"address"},{"name":"newRecipient","type":"address","indexed":false,"internalType":"address"}],"anonymous":false},{"type":"event","name":"FlashLoanFeeSet","inputs":[{"name":"oldFlashLoanFee","type":"uint256","indexed":false,"internalType":"uint256"},{"name":"newFlashLoanFee","type":"uint256","indexed":false,"internalType":"uint256"}],"anonymous":false},{"type":"event","name":"Initialized","inputs":[{"name":"version","type":"uint64","indexed":false,"internalType":"uint64"}],"anonymous":false},{"type":"event","name":"LBPairCreated","inputs":[{"name":"tokenX","type":"address","indexed":true,"internalType":"contract IERC20"},{"name":"tokenY","type":"address","indexed":true,"internalType":"contract IERC20"},{"name":"binStep","type":"uint256","indexed":true,"internalType":"uint256"},{"name":"LBPair","type":"address","indexed":false,"internalType":"contract ILBPair"},{"name":"pid","type":"uint256","indexed":false,"internalType":"uint256"}],"anonymous":false},{"type":"event","name":"LBPairIgnoredStateChanged","inputs":[{"name":"LBPair","type":"address","indexed":true,"internalType":"contract ILBPair"},{"name":"ignored","type":"bool","indexed":false,"internalType":"bool"}],"anonymous":false},{"type":"event","name":"LBPairImplementationSet","inputs":[{"name":"oldLBPairImplementation","type":"address","indexed":false,"internalType":"address"},{"name":"LBPairImplementation","type":"address","indexed":false,"internalType":"address"}],"anonymous":false},{"type":"event","name":"OwnershipTransferStarted","inputs":[{"name":"previousOwner","type":"address","indexed":true,"internalType":"address"},{"name":"newOwner","type":"address","indexed":true,"internalType":"address"}],"anonymous":false},{"type":"event","name":"OwnershipTransferred","inputs":[{"name":"previousOwner","type":"address","indexed":true,"internalType":"address"},{"name":"newOwner","type":"address","indexed":true,"internalType":"address"}],"anonymous":false},{"type":"event","name":"PresetOpenStateChanged","inputs":[{"name":"binStep","type":"uint256","indexed":true,"internalType":"uint256"},{"name":"isOpen","type":"bool","indexed":true,"internalType":"bool"}],"anonymous":false},{"type":"event","name":"PresetRemoved","inputs":[{"name":"binStep","type":"uint256","indexed":true,"internalType":"uint256"}],"anonymous":false},{"type":"event","name":"PresetSet","inputs":[{"name":"binStep","type":"uint256","indexed":true,"internalType":"uint256"},{"name":"baseFactor","type":"uint256","indexed":false,"internalType":"uint256"},{"name":"filterPeriod","type":"uint256","indexed":false,"internalType":"uint256"},{"name":"decayPeriod","type":"uint256","indexed":false,"internalType":"uint256"},{"name":"reductionFactor","type":"uint256","indexed":false,"internalType":"uint256"},{"name":"variableFeeControl","type":"uint256","indexed":false,"internalType":"uint256"},{"name":"protocolShare","type":"uint256","indexed":false,"internalType":"uint256"},{"name":"maxVolatilityAccumulator","type":"uint256","indexed":false,"internalType":"uint256"}],"anonymous":false},{"type":"event","name":"QuoteAssetAdded","inputs":[{"name":"quoteAsset","type":"address","indexed":true,"internalType":"contract IERC20"}],"anonymous":false},{"type":"event","name":"QuoteAssetRemoved","inputs":[{"name":"quoteAsset","type":"address","indexed":true,"internalType":"contract IERC20"}],"anonymous":false},{"type":"event","name":"RoleAdminChanged","inputs":[{"name":"role","type":"bytes32","indexed":true,"internalType":"bytes32"},{"name":"previousAdminRole","type":"bytes32","indexed":true,"internalType":"bytes32"},{"name":"newAdminRole","type":"bytes32","indexed":true,"internalType":"bytes32"}],"anonymous":false},{"type":"event","name":"RoleGranted","inputs":[{"name":"role","type":"bytes32","indexed":true,"internalType":"bytes32"},{"name":"account","type":"address","indexed":true,"internalType":"address"},{"name":"sender","type":"address","indexed":true,"internalType":"address"}],"anonymous":false},{"type":"event","name":"RoleRevoked","inputs":[{"name":"role","type":"bytes32","indexed":true,"internalType":"bytes32"},{"name":"account","type":"address","indexed":true,"internalType":"address"},{"name":"sender","type":"address","indexed":true,"internalType":"address"}],"anonymous":false},{"type":"error","name":"AccessControlBadConfirmation","inputs":[]},{"type":"error","name":"AccessControlUnauthorizedAccount","inputs":[{"name":"account","type":"address","internalType":"address"},{"name":"neededRole","type":"bytes32","internalType":"bytes32"}]},{"type":"error","name":"EnumerableMapNonexistentKey","inputs":[{"name":"key","type":"bytes32","internalType":"bytes32"}]},{"type":"error","name":"InvalidInitialization","inputs":[]},{"type":"error","name":"LBFactory__AddressZero","inputs":[]},{"type":"error","name":"LBFactory__BinStepHasNoPreset","inputs":[{"name":"binStep","type":"uint256","internalType":"uint256"}]},{"type":"error","name":"LBFactory__BinStepTooLow","inputs":[{"name":"binStep","type":"uint256","internalType":"uint256"}]},{"type":"error","name":"LBFactory__CannotGrantDefaultAdminRole","inputs":[]},{"type":"error","name":"LBFactory__FlashLoanFeeAboveMax","inputs":[{"name":"fees","type":"uint256","internalType":"uint256"},{"name":"maxFees","type":"uint256","internalType":"uint256"}]},{"type":"error","name":"LBFactory__IdenticalAddresses","inputs":[{"name":"token","type":"address","internalType":"contract IERC20"}]},{"type":"error","name":"LBFactory__ImplementationNotSet","inputs":[]},{"type":"error","name":"LBFactory__InvalidHooksParameters","inputs":[]},{"type":"error","name":"LBFactory__LBPairAlreadyExists","inputs":[{"name":"tokenX","type":"address","internalType":"contract IERC20"},{"name":"tokenY","type":"address","internalType":"contract IERC20"},{"name":"_binStep","type":"uint256","internalType":"uint256"}]},{"type":"error","name":"LBFactory__LBPairDoesNotExist","inputs":[{"name":"tokenX","type":"address","internalType":"contract IERC20"},{"name":"tokenY","type":"address","internalType":"contract IERC20"},{"name":"binStep","type":"uint256","internalType":"uint256"}]},{"type":"error","name":"LBFactory__LBPairIgnoredIsAlreadyInTheSameState","inputs":[]},{"type":"error","name":"LBFactory__LBPairNotCreated","inputs":[{"name":"tokenX","type":"address","internalType":"contract IERC20"},{"name":"tokenY","type":"address","internalType":"contract IERC20"},{"name":"binStep","type":"uint256","internalType":"uint256"}]},{"type":"error","name":"LBFactory__LBPairSafetyCheckFailed","inputs":[{"name":"LBPairImplementation","type":"address","internalType":"address"}]},{"type":"error","name":"LBFactory__PresetIsLockedForUsers","inputs":[{"name":"user","type":"address","internalType":"address"},{"name":"binStep","type":"uint256","internalType":"uint256"}]},{"type":"error","name":"LBFactory__PresetOpenStateIsAlreadyInTheSameState","inputs":[]},{"type":"error","name":"LBFactory__QuoteAssetAlreadyWhitelisted","inputs":[{"name":"quoteAsset","type":"address","internalType":"contract IERC20"}]},{"type":"error","name":"LBFactory__QuoteAssetNotWhitelisted","inputs":[{"name":"quoteAsset","type":"address","internalType":"contract IERC20"}]},{"type":"error","name":"LBFactory__SameFeeRecipient","inputs":[{"name":"feeRecipient","type":"address","internalType":"address"}]},{"type":"error","name":"LBFactory__SameFlashLoanFee","inputs":[{"name":"flashLoanFee","type":"uint256","internalType":"uint256"}]},{"type":"error","name":"LBFactory__SameHooksImplementation","inputs":[{"name":"hooksImplementation","type":"address","internalType":"address"}]},{"type":"error","name":"LBFactory__SameHooksParameters","inputs":[{"name":"hooksParameters","type":"bytes32","internalType":"bytes32"}]},{"type":"error","name":"LBFactory__SameImplementation","inputs":[{"name":"LBPairImplementation","type":"address","internalType":"address"}]},{"type":"error","name":"NotInitializing","inputs":[]},{"type":"error","name":"OwnableInvalidOwner","inputs":[{"name":"owner","type":"address","internalType":"address"}]},{"type":"error","name":"OwnableUnauthorizedAccount","inputs":[{"name":"account","type":"address","internalType":"address"}]},{"type":"error","name":"PairParametersHelper__InvalidParameter","inputs":[]},{"type":"error","name":"SafeCast__Exceeds16Bits","inputs":[]},{"type":"error","name":"Uint128x128Math__PowUnderflow","inputs":[{"name":"x","type":"uint256","internalType":"uint256"},{"name":"y","type":"int256","internalType":"int256"}]}],"bytecode":{"object":"0x60806040523480156200001157600080fd5b506200001c62000022565b620000d6565b7ff0c57e16840df040f15088dc2f81fe391c3923bec73e23a9662efc9c229c6a00805468010000000000000000900460ff1615620000735760405163f92ee8a960e01b815260040160405180910390fd5b80546001600160401b0390811614620000d35780546001600160401b0319166001600160401b0390811782556040519081527fc7f505b2f371ae2175ee4913f4499e1f2633a7b5936321eed1cdaeb6115181d29060200160405180910390a15b50565b6144df80620000e66000396000f3fe60806040523480156200001157600080fd5b50600436106200033d5760003560e01c8063704037bd11620001bd578063b03847811162000101578063e30c397811620000a3578063e92d0d5d116200007a578063e92d0d5d146200077a578063f2fde38b1462000791578063fd90c2be14620007a857600080fd5b8063e30c39781462000731578063e63ab1e9146200073b578063e74b981b146200076357600080fd5b8063d547741f11620000d8578063d547741f14620006ec578063ddbfd9411462000703578063e203a31f146200071a57600080fd5b8063b03847811462000697578063be20309414620006ae578063c1b931be14620006c557600080fd5b80638ce9aa1c116200016b578063a217fddf1162000142578063a217fddf1462000627578063aabc4b3c1462000630578063af371065146200068557600080fd5b80638ce9aa1c14620005f75780638da5cb5b146200060657806391d14854146200061057600080fd5b806379ba509711620001a057806379ba509714620005cc5780637daf5d6614620005d657806380c5061e14620005ed57600080fd5b8063704037bd146200059c578063715018a614620005c257600080fd5b80633a2f1a9111620002855780635a44092311620002335780636622e0d7116200020a5780636622e0d7146200055757806369d56ea3146200057d578063701ab8c1146200059457600080fd5b80635a440923146200051f5780635b35875c1462000536578063659ac74b146200054057600080fd5b80634ccb20c011620002685780634ccb20c014620004ed5780634cd161d314620004ff5780634e937c3a146200051657600080fd5b80633a2f1a9114620004bf5780633c78a94114620004d657600080fd5b8063248a9ca311620002ef5780632f2ff15d11620002c65780632f2ff15d146200047a57806336568abe1462000491578063379ee80314620004a857600080fd5b8063248a9ca3146200040757806327721842146200044c5780632cc06b8c146200046357600080fd5b80630752092b11620003245780630752092b1462000387578063093ff76914620003b75780631af5bacc14620003d057600080fd5b806301ffc9a714620003425780630282c9c1146200036e575b600080fd5b620003596200035336600462002e46565b620007b1565b60405190151581526020015b60405180910390f35b62000378620007e9565b60405162000365919062002e72565b6200039e6200039836600462002eb8565b620008d9565b6040516001600160a01b03909116815260200162000365565b620003ce620003c836600462002f0f565b620008e8565b005b620003f87fdcf4465aa60d92459eb361fac2489220ae3c524301cc0433c30a5d83e8fb0fa981565b60405190815260200162000365565b620003f86200041836600462002eb8565b60009081527f02dd7bc7dec4dceedda775e58dd541e08a116c6c53815c0bd028192f7b626800602052604090206001015490565b620003596200045d36600462002fe2565b620009f5565b620003ce6200047436600462003002565b62000a04565b620003ce6200048b36600462003050565b62000a57565b620003ce620004a236600462003050565b62000a9f565b620003ce620004b936600462003094565b62000ada565b620003ce620004d03660046200314f565b62000c01565b620003ce620004e736600462002fe2565b62000cb9565b6000546001600160a01b03166200039e565b620003ce620005103660046200320b565b62000d1b565b600354620003f8565b620003ce6200053036600462002fe2565b62000df3565b6200037862000e6b565b6200039e6200055136600462003243565b62000e7e565b6200056e62000568366004620032a4565b6200140d565b604051620003659190620032d7565b620003ce6200058e3660046200334e565b620015b8565b6001620003f8565b620005b3620005ad366004620033a4565b62001765565b604051620003659190620033ea565b620003ce6200179e565b620003ce620017b6565b6200039e620005e736600462002eb8565b62001804565b620003f862001837565b67016345785d8a0000620003f8565b6200039e62001845565b620003596200062136600462003050565b6200187a565b620003f8600081565b620006476200064136600462002eb8565b620018f5565b604080519889526020890197909752958701949094526060860192909252608085015260a084015260c0830152151560e08201526101000162000365565b6002546001600160a01b03166200039e565b620003ce620006a836600462002fe2565b620019ca565b620003ce620006bf36600462003427565b62001b14565b7f65d7a28e3265b37a6474929f336521b332c1681b933f6cb9f3376673440d862a620003f8565b620003ce620006fd36600462003050565b62001ce4565b620003ce6200071436600462002fe2565b62001d2c565b620003ce6200072b36600462003481565b62001da4565b6200039e62001e16565b620003f87f65d7a28e3265b37a6474929f336521b332c1681b933f6cb9f3376673440d862a81565b620003ce6200077436600462002fe2565b62001e40565b620003ce6200078b36600462002eb8565b62001e55565b620003ce620007a236600462002fe2565b62001eff565b600154620003f8565b60006001600160e01b03198216637965db0b60e01b1480620007e357506301ffc9a760e01b6001600160e01b03198316145b92915050565b60606000620007f9600562001f88565b90508015620008d5578067ffffffffffffffff8111156200081e576200081e6200349f565b60405190808252806020026020018201604052801562000848578160200160208202803683370190505b5091506000805b82811015620008c5576000806200086860058462001f95565b9092509050620008788162001fb3565b15620008af5781868581518110620008945762000894620034b5565b602090810291909101015283620008ab81620034e1565b9450505b505080620008bd90620034e1565b90506200084f565b5081811015620008d3578083525b505b5090565b6000620007e360088362001fc0565b620008f262001fce565b6000620009058b8b8b61ffff1662002004565b6020015190506001600160a01b038116620009555760405163b65ee95360e01b81526001600160a01b03808d1660048301528b16602482015261ffff8a1660448201526064015b60405180910390fd5b604051633329c28d60e11b815261ffff808a16600483015280891660248301528088166044830152808716606483015262ffffff808716608484015290851660a4830152831660c48201526001600160a01b03821690636653851a9060e401600060405180830381600087803b158015620009cf57600080fd5b505af1158015620009e4573d6000803e3d6000fd5b505050505050505050505050505050565b6000620007e3600883620020b0565b7fdcf4465aa60d92459eb361fac2489220ae3c524301cc0433c30a5d83e8fb0fa962000a3081620020d3565b6040805160008082526020820190925262000a5191869186918691620020df565b50505050565b60008281527f02dd7bc7dec4dceedda775e58dd541e08a116c6c53815c0bd028192f7b626800602052604090206001015462000a9381620020d3565b62000a51838362002233565b6001600160a01b038116331462000ac95760405163334bd91960e11b815260040160405180910390fd5b62000ad5828262002260565b505050565b62000ae462001fce565b60018961ffff16101562000b1257604051634f958e7160e01b815261ffff8a1660048201526024016200094c565b600062000b26818a8a8a8a8a8a8a620022fd565b9050811562000b415762000b3e81600160ff62002402565b90505b62000b53600561ffff8c16836200242c565b506040805161ffff8b811682528a8116602083015289811682840152888116606083015262ffffff888116608084015287821660a0840152861660c08301529151918c16917f839844a256a87f87c9c835117d9a1c40be013954064c937072acb32d36db6a289181900360e00190a26040518215159061ffff8c16907f58a8b6a02b964cca2712e5a71d7b0d564a56b4a0f573b4c47f389341ade14cfd90600090a350505050505050505050565b7fdcf4465aa60d92459eb361fac2489220ae3c524301cc0433c30a5d83e8fb0fa962000c2d81620020d3565b6001600160a01b038416158062000c4c5750836001600160a01b031916155b1562000c6b5760405163d43a15d160e01b815260040160405180910390fd5b62000cb08787878787878080601f016020809104026020016040519081016040528093929190818152602001838380828437600092019190915250620020df92505050565b50505050505050565b62000cc362001fce565b806001600160a01b031663d3b9fbe46040518163ffffffff1660e01b8152600401600060405180830381600087803b15801562000cff57600080fd5b505af115801562000d14573d6000803e3d6000fd5b5050505050565b62000d2562001fce565b62000d36600561ffff84166200243b565b62000d5b57604051637d9160bf60e11b815261ffff831660048201526024016200094c565b600062000d6e600561ffff851662002449565b905081151560ff82901c15150362000d99576040516311be38db60e11b815260040160405180910390fd5b62000dba61ffff841662000db0838560ff62002402565b600591906200242c565b506040518215159061ffff8516907f58a8b6a02b964cca2712e5a71d7b0d564a56b4a0f573b4c47f389341ade14cfd90600090a3505050565b62000dfd62001fce565b62000e0a60088262002457565b62000e34576040516303ce0ad960e01b81526001600160a01b03821660048201526024016200094c565b6040516001600160a01b038216907f84cc2115995684dcb0cd3d3a9565e3d32f075de81db70c8dc3a719b2a47af67e90600090a250565b606062000e7960056200246e565b905090565b600062000e91600561ffff84166200243b565b62000eb657604051637d9160bf60e11b815261ffff831660048201526024016200094c565b600062000ec9600561ffff851662002449565b9050600062000ed762001845565b6001600160a01b0316336001600160a01b031614905062000ef88262001fb3565b15801562000f04575080155b1562000f30576040516304fc2fe760e11b815233600482015261ffff851660248201526044016200094c565b62000f3d600887620020b0565b62000f6757604051638e888ef360e01b81526001600160a01b03871660048201526024016200094c565b856001600160a01b0316876001600160a01b03160362000fa657604051632f9b185360e01b81526001600160a01b03881660048201526024016200094c565b62000fb285856200247d565b5060008062000fc28989620024c3565b90925090506001600160a01b03821662000fef57604051632573cfb960e21b815260040160405180910390fd5b6001600160a01b0382811660009081526004602090815260408083208585168452825280832061ffff8b1684529091529020546201000090041615620010665760405163cb27a43560e01b81526001600160a01b03808b1660048301528916602482015261ffff871660448201526064016200094c565b6002546001600160a01b03168062001091576040516328b4fcf960e21b815260040160405180910390fd5b60006200109e86620024ed565b620010a987620024fa565b620010b4886200250b565b620010bf896200251c565b620010ca8a6200252d565b620010d58b6200253f565b620010e08c62002550565b60405161ffff978816602482015295871660448701529386166064860152918516608485015262ffffff90811660a4850152931660c4830152821660e4820152908a166101048201526101240160408051601f198184030181529181526020820180517bffffffffffffffffffffffffffffffffffffffffffffffffffffffff166347973bff60e01b179052600b5490519192506001600160a01b0316908c908c908b908590620011919062002e38565b620011a195949392919062003545565b604051809103906000f080158015620011be573d6000803e3d6000fd5b509650505060405180608001604052808761ffff168152602001866001600160a01b0316815260200184151581526020016000151581525060046000846001600160a01b03166001600160a01b031681526020019081526020016000206000836001600160a01b03166001600160a01b0316815260200190815260200160002060008861ffff16815260200190815260200160002060008201518160000160006101000a81548161ffff021916908361ffff16021790555060208201518160000160026101000a8154816001600160a01b0302191690836001600160a01b0316021790555060408201518160000160166101000a81548160ff02191690831515021790555060608201518160000160176101000a81548160ff0219169083151502179055509050506003859080600181540180825580915050600190039060005260206000200160009091909190916101000a8154816001600160a01b0302191690836001600160a01b031602179055506200138f8661ffff16600a6000856001600160a01b03166001600160a01b031681526020019081526020016000206000846001600160a01b03166001600160a01b031681526020019081526020016000206200256290919063ffffffff16565b508561ffff16886001600160a01b03168a6001600160a01b03167f2c8d104b27c6b7f4492017a6f5cf3803043688934ebcaa6a03540beeaf976aff886001600380549050620013df919062003590565b604080516001600160a01b03909316835260208301919091520160405180910390a450505050949350505050565b60606000806200141e8585620024c3565b6001600160a01b038083166000908152600a602090815260408083209385168352929052908120929450909250620014568262002570565b90508015620015ae578067ffffffffffffffff8111156200147b576200147b6200349f565b604051908082528060200260200182016040528015620014cf57816020015b6040805160808101825260008082526020808301829052928201819052606082015282526000199092019101816200149a5790505b506001600160a01b03808616600090815260046020908152604080832093881683529290529081209196505b82811015620015ab5760006200151c62001516868462001fc0565b6200257b565b6040805160808101825261ffff831680825260008181526020888152848220546001600160a01b03620100008204168286015260ff600160b01b8204811615159686019690965292909152879052600160b81b900490911615156060820152895191925090899084908110620015965762001596620034b5565b602090810291909101015250600101620014fb565b50505b5050505092915050565b620015c262001fce565b600080620015d18686620024c3565b6001600160a01b0380831660009081526004602090815260408083208486168452825280832061ffff808c1685529083529281902081516080810183529054938416815262010000840490941691840182905260ff600160b01b84048116151591850191909152600160b81b90920490911615156060830152929450909250906200168d5760405163102a919160e21b81526001600160a01b0380891660048301528716602482015261ffff861660448201526064016200094c565b8315158160600151151503620016b557604051626ee66560e11b815260040160405180910390fd5b6001600160a01b0380841660009081526004602090815260408083208685168452825280832061ffff8a1684528252918290208054881515600160b81b027fffffffffffffffff00ffffffffffffffffffffffffffffffffffffffffffffff90911617905583015190519116907f44cf35361c9ff3c8c1397ec6410d5495cc481feaef35c9af11da1a637107de4f906200175490871515815260200190565b60405180910390a250505050505050565b6040805160808101825260008082526020820181905291810182905260608101919091526200179684848462002004565b949350505050565b620017a862001fce565b620017b46000620025a6565b565b3380620017c262001e16565b6001600160a01b031614620017f65760405163118cdaa760e01b81526001600160a01b03821660048201526024016200094c565b6200180181620025a6565b50565b6000600382815481106200181c576200181c620034b5565b6000918252602090912001546001600160a01b031692915050565b600062000e79600862002570565b6000807f9016d09d72d40fdae2fd8ceac6b6234c7706214fd39c1cd1e609a0528c1993005b546001600160a01b031692915050565b600082620018a8576200188c62001845565b6001600160a01b0316826001600160a01b0316149050620007e3565b60008381527f02dd7bc7dec4dceedda775e58dd541e08a116c6c53815c0bd028192f7b626800602090815260408083206001600160a01b038616845290915290205460ff165b9392505050565b6000808080808080806200190b60058a6200243b565b6200192d57604051637d9160bf60e11b8152600481018a90526024016200094c565b60006200193c60058b62002449565b90506200194981620024ed565b61ffff1698506200195a81620024fa565b61ffff1697506200196b816200250b565b61ffff1696506200197c816200251c565b61ffff1695506200198d816200252d565b62ffffff1694506200199f816200253f565b61ffff169350620019b08162002550565b62ffffff16925060ff81901c915050919395975091939597565b620019d462001fce565b306001600160a01b0316816001600160a01b03166388cc58e46040518163ffffffff1660e01b8152600401602060405180830381865afa15801562001a1d573d6000803e3d6000fd5b505050506040513d601f19601f8201168201806040525081019062001a439190620035a6565b6001600160a01b03161462001a7757604051630a3e70af60e11b81526001600160a01b03821660048201526024016200094c565b6002546001600160a01b03908116908216810362001ab457604051630ded3b9560e31b81526001600160a01b03831660048201526024016200094c565b600280546001600160a01b0319166001600160a01b0384811691821790925560408051928416835260208301919091527f900d0e3d359f50e4f923ecdc06b401e07dbb9f485e17b07bcfc91a13000b277e91015b60405180910390a15050565b7ff0c57e16840df040f15088dc2f81fe391c3923bec73e23a9662efc9c229c6a00805468010000000000000000810460ff16159067ffffffffffffffff1660008115801562001b605750825b905060008267ffffffffffffffff16600114801562001b7e5750303b155b90508115801562001b8d575080155b1562001bac5760405163f92ee8a960e01b815260040160405180910390fd5b845467ffffffffffffffff19166001178555831562001be157845468ff00000000000000001916680100000000000000001785555b62001bec88620025e4565b67016345785d8a000087111562001c2857604051635e8988c160e01b81526004810188905267016345785d8a000060248201526044016200094c565b62001c3389620025f9565b6001879055600b80546001600160a01b0319166001600160a01b0388161790556040805160008152602081018990527f5c34e91c94c78b662a45d0bd4a25a4e32c584c54a45a76e4a4d43be27ba40e50910160405180910390a1831562001cd957845468ff000000000000000019168555604051600181527fc7f505b2f371ae2175ee4913f4499e1f2633a7b5936321eed1cdaeb6115181d29060200160405180910390a15b505050505050505050565b60008281527f02dd7bc7dec4dceedda775e58dd541e08a116c6c53815c0bd028192f7b626800602052604090206001015462001d2081620020d3565b62000a51838362002260565b62001d3662001fce565b62001d43600882620026bb565b62001d6d57604051638e888ef360e01b81526001600160a01b03821660048201526024016200094c565b6040516001600160a01b038216907f0b767739217755d8af5a2ba75b181a19fa1750f8bb701f09311cb19a90140cb390600090a250565b62001dae62001fce565b62001dbf600561ffff8316620026d2565b62001de457604051637d9160bf60e11b815261ffff821660048201526024016200094c565b60405161ffff8216907fdd86b848bb56ff540caa68683fa467d0e7eb5f8b2d44e4ee435742eeeae9be1390600090a250565b6000807f237e158222e3e6968b72b9db0d8043aacf074ad9f650f0d1606b4d82ee432c006200186a565b62001e4a62001fce565b6200180181620025f9565b62001e5f62001fce565b60015481810362001e8757604051631baa31e960e21b8152600481018390526024016200094c565b67016345785d8a000082111562001ec357604051635e8988c160e01b81526004810183905267016345785d8a000060248201526044016200094c565b600182905560408051828152602081018490527f5c34e91c94c78b662a45d0bd4a25a4e32c584c54a45a76e4a4d43be27ba40e50910162001b08565b62001f0962001fce565b7f237e158222e3e6968b72b9db0d8043aacf074ad9f650f0d1606b4d82ee432c0080546001600160a01b0319166001600160a01b038316908117825562001f4f62001845565b6001600160a01b03167f38d16b8cac22d99fc7c124b9cd0de2d3fa1faef420bfe791d8c362d765e2270060405160405180910390a35050565b6000620007e382620026e0565b600080808062001fa68686620026ed565b9097909650945050505050565b600060ff82901c620007e3565b6000620018ee83836200271a565b3362001fd962001845565b6001600160a01b031614620017b45760405163118cdaa760e01b81523360048201526024016200094c565b604080516080810182526000808252602082018190529181018290526060810191909152620020348484620024c3565b6001600160a01b03918216600090815260046020908152604080832093851683529281528282209582529485528190208151608081018352905461ffff811682526201000081049093169481019490945260ff600160b01b83048116151591850191909152600160b81b90910416151560608301525092915050565b6001600160a01b03811660009081526001830160205260408120541515620018ee565b62001801813362002747565b6000620020f286868661ffff1662002004565b6020015190506001600160a01b0381166200213e5760405163b65ee95360e01b81526001600160a01b0380881660048301528616602482015261ffff851660448201526064016200094c565b82816001600160a01b031663781a89156040518163ffffffff1660e01b8152600401602060405180830381865afa1580156200217e573d6000803e3d6000fd5b505050506040513d601f19601f82011682018060405250810190620021a49190620035c6565b03620021c75760405163b70cd0db60e01b8152600481018490526024016200094c565b604051631b057f6d60e01b81526001600160a01b03821690631b057f6d90620021f79086908690600401620035e0565b600060405180830381600087803b1580156200221257600080fd5b505af115801562002227573d6000803e3d6000fd5b50505050505050505050565b6000826200225457604051633e3253cf60e11b815260040160405180910390fd5b620018ee838362002784565b60007f02dd7bc7dec4dceedda775e58dd541e08a116c6c53815c0bd028192f7b6268006200228f84846200187a565b15620022f2576000848152602082815260408083206001600160a01b0387168085529252808320805460ff1916905551339287917ff6391f5c32d9c69d2a47ea670b442974b53935d1edc7fd64eb21e047a839171b9190a46001915050620007e3565b6000915050620007e3565b60008561ffff168761ffff1611806200231b5750610fff8661ffff16115b806200232c57506127108561ffff16115b806200233d57506109c48361ffff16115b80620023505750620fffff8262ffffff16115b156200236f57604051631c07203f60e01b815260040160405180910390fd5b5060109590951b630fff00001661ffff9690961695909517601c9390931b64fff0000000169290921760289190911b663fff0000000000161760369190911b693fffffc00000000000001617604e9290921b6b0fffc00000000000000000001691909117605c9190911b6dfffff0000000000000000000000016176dffffffffffffffffffffffffffff19919091161790565b6000620017968484620024175760006200241a565b60015b600180861b19929092169116841b1790565b60006200179684848462002836565b6000620018ee838362002855565b6000620018ee838362002863565b6000620018ee836001600160a01b038416620028af565b60606000620018ee8362002901565b600061271071ffff00000000000000000000000000000000608084901b1604600160801b0162ffffff8416627fffff1901620024ba82826200290e565b95945050505050565b600080826001600160a01b0316846001600160a01b03161115620024e5579192915b509192909150565b600061ffff8216620007e3565b6000620007e38260101c610fff1690565b6000620007e382601c1c610fff1690565b6000620007e38260281c613fff1690565b6000620007e38260361c62ffffff1690565b6000620007e382604e1c613fff1690565b6000620007e382605c1c620fffff1690565b6000620018ee8383620028af565b6000620007e3825490565b8061ffff81168114620025a1576040516364ae406d60e01b815260040160405180910390fd5b919050565b7f237e158222e3e6968b72b9db0d8043aacf074ad9f650f0d1606b4d82ee432c0080546001600160a01b0319168155620025e08262002b96565b5050565b620025ee62002c07565b620018018162002c56565b6001600160a01b0381166200262157604051632573cfb960e21b815260040160405180910390fd5b6000546001600160a01b0390811690821681036200266257600054604051634fcea97160e01b81526001600160a01b0390911660048201526024016200094c565b600080546001600160a01b0319166001600160a01b0384811691821790925560408051928416835260208301919091527f15d80a013f22151bc7246e3bc132e12828cde19de98870475e3fa70840152721910162001b08565b6000620018ee836001600160a01b03841662002c8c565b6000620018ee838362002d85565b6000620007e38262002570565b60008080620026fd858562001fc0565b600081815260029690960160205260409095205494959350505050565b6000826000018281548110620027345762002734620034b5565b9060005260206000200154905092915050565b6200275382826200187a565b620025e05760405163e2517d3f60e01b81526001600160a01b0382166004820152602481018390526044016200094c565b60007f02dd7bc7dec4dceedda775e58dd541e08a116c6c53815c0bd028192f7b626800620027b384846200187a565b620022f2576000848152602082815260408083206001600160a01b03871684529091529020805460ff19166001179055620027eb3390565b6001600160a01b0316836001600160a01b0316857f2f8788117e7eff1d82e926ec794901d17c78024a50270940304540a733656f0d60405160405180910390a46001915050620007e3565b6000828152600284016020526040812082905562001796848462002562565b6000620018ee838362002da4565b6000818152600283016020526040812054801580156200288c57506200288a848462002855565b155b15620018ee5760405163015ab34360e11b8152600481018490526024016200094c565b6000818152600183016020526040812054620028f857508154600181810184556000848152602080822090930184905584548482528286019093526040902091909155620007e3565b506000620007e3565b6060620007e38262002dbd565b6000806000836000036200292c5750600160801b9150620007e39050565b508260008112156200293f579015906000035b6210000081101562002b4e57600160801b9250846fffffffffffffffffffffffffffffffff8111156200297457911591600019045b6001821615620029865792830260801c925b800260801c60028216156200299d5792830260801c925b800260801c6004821615620029b45792830260801c925b800260801c6008821615620029cb5792830260801c925b800260801c6010821615620029e25792830260801c925b800260801c6020821615620029f95792830260801c925b800260801c604082161562002a105792830260801c925b8002608090811c9082161562002a285792830260801c925b800260801c61010082161562002a405792830260801c925b800260801c61020082161562002a585792830260801c925b800260801c61040082161562002a705792830260801c925b800260801c61080082161562002a885792830260801c925b800260801c61100082161562002aa05792830260801c925b800260801c61200082161562002ab85792830260801c925b800260801c61400082161562002ad05792830260801c925b800260801c61800082161562002ae85792830260801c925b800260801c6201000082161562002b015792830260801c925b800260801c6202000082161562002b1a5792830260801c925b800260801c6204000082161562002b335792830260801c925b800260801c6208000082161562002b4c5792830260801c925b505b8260000362002b7b57604051631dba598d60e11b815260048101869052602481018590526044016200094c565b8162002b885782620024ba565b620024ba83600019620035fb565b7f9016d09d72d40fdae2fd8ceac6b6234c7706214fd39c1cd1e609a0528c19930080546001600160a01b031981166001600160a01b03848116918217845560405192169182907f8be0079c531659141344cd1fd0a4f28419497f9722a3daafe3b4186f6b6457e090600090a3505050565b7ff0c57e16840df040f15088dc2f81fe391c3923bec73e23a9662efc9c229c6a005468010000000000000000900460ff16620017b457604051631afcd79f60e31b815260040160405180910390fd5b62002c6062002c07565b6001600160a01b038116620017f657604051631e4fbdf760e01b8152600060048201526024016200094c565b60008181526001830160205260408120548015620022f257600062002cb360018362003590565b855490915060009062002cc99060019062003590565b905080821462002d3557600086600001828154811062002ced5762002ced620034b5565b906000526020600020015490508087600001848154811062002d135762002d13620034b5565b6000918252602080832090910192909255918252600188019052604090208390555b855486908062002d495762002d496200361e565b600190038181906000526020600020016000905590558560010160008681526020019081526020016000206000905560019350505050620007e3565b60008181526002830160205260408120819055620018ee838362002dcc565b60008181526001830160205260408120541515620018ee565b60606000620018ee8362002dda565b6000620018ee838362002c8c565b60608160000180548060200260200160405190810160405280929190818152602001828054801562002e2c57602002820191906000526020600020905b81548152602001906001019080831162002e17575b50505050509050919050565b610e75806200363583390190565b60006020828403121562002e5957600080fd5b81356001600160e01b031981168114620018ee57600080fd5b6020808252825182820181905260009190848201906040850190845b8181101562002eac5783518352928401929184019160010162002e8e565b50909695505050505050565b60006020828403121562002ecb57600080fd5b5035919050565b6001600160a01b03811681146200180157600080fd5b803561ffff81168114620025a157600080fd5b803562ffffff81168114620025a157600080fd5b6000806000806000806000806000806101408b8d03121562002f3057600080fd5b8a3562002f3d8162002ed2565b995060208b013562002f4f8162002ed2565b985062002f5f60408c0162002ee8565b975062002f6f60608c0162002ee8565b965062002f7f60808c0162002ee8565b955062002f8f60a08c0162002ee8565b945062002f9f60c08c0162002ee8565b935062002faf60e08c0162002efb565b925062002fc06101008c0162002ee8565b915062002fd16101208c0162002efb565b90509295989b9194979a5092959850565b60006020828403121562002ff557600080fd5b8135620018ee8162002ed2565b6000806000606084860312156200301857600080fd5b8335620030258162002ed2565b92506020840135620030378162002ed2565b9150620030476040850162002ee8565b90509250925092565b600080604083850312156200306457600080fd5b823591506020830135620030788162002ed2565b809150509250929050565b80358015158114620025a157600080fd5b60008060008060008060008060006101208a8c031215620030b457600080fd5b620030bf8a62002ee8565b9850620030cf60208b0162002ee8565b9750620030df60408b0162002ee8565b9650620030ef60608b0162002ee8565b9550620030ff60808b0162002ee8565b94506200310f60a08b0162002efb565b93506200311f60c08b0162002ee8565b92506200312f60e08b0162002efb565b9150620031406101008b0162003083565b90509295985092959850929598565b60008060008060008060a087890312156200316957600080fd5b8635620031768162002ed2565b95506020870135620031888162002ed2565b9450620031986040880162002ee8565b935060608701359250608087013567ffffffffffffffff80821115620031bd57600080fd5b818901915089601f830112620031d257600080fd5b813581811115620031e257600080fd5b8a6020828501011115620031f557600080fd5b6020830194508093505050509295509295509295565b600080604083850312156200321f57600080fd5b6200322a8362002ee8565b91506200323a6020840162003083565b90509250929050565b600080600080608085870312156200325a57600080fd5b8435620032678162002ed2565b93506020850135620032798162002ed2565b9250620032896040860162002efb565b9150620032996060860162002ee8565b905092959194509250565b60008060408385031215620032b857600080fd5b8235620032c58162002ed2565b91506020830135620030788162002ed2565b6020808252825182820181905260009190848201906040850190845b8181101562002eac576200333a83855161ffff81511682526001600160a01b0360208201511660208301526040810151151560408301526060810151151560608301525050565b9284019260809290920191600101620032f3565b600080600080608085870312156200336557600080fd5b8435620033728162002ed2565b93506020850135620033848162002ed2565b9250620033946040860162002ee8565b9150620032996060860162003083565b600080600060608486031215620033ba57600080fd5b8335620033c78162002ed2565b92506020840135620033d98162002ed2565b929592945050506040919091013590565b815161ffff1681526020808301516001600160a01b03169082015260408083015115159082015260608083015115159082015260808101620007e3565b600080600080608085870312156200343e57600080fd5b84356200344b8162002ed2565b935060208501356200345d8162002ed2565b9250604085013591506060850135620034768162002ed2565b939692955090935050565b6000602082840312156200349457600080fd5b620018ee8262002ee8565b634e487b7160e01b600052604160045260246000fd5b634e487b7160e01b600052603260045260246000fd5b634e487b7160e01b600052601160045260246000fd5b600060018201620034f657620034f6620034cb565b5060010190565b6000815180845260005b81811015620035255760208185018101518683018201520162003507565b506000602082860101526020601f19601f83011685010191505092915050565b60006001600160a01b038088168352808716602084015280861660408401525061ffff8416606083015260a060808301526200358560a0830184620034fd565b979650505050505050565b81810381811115620007e357620007e3620034cb565b600060208284031215620035b957600080fd5b8151620018ee8162002ed2565b600060208284031215620035d957600080fd5b5051919050565b828152604060208201526000620017966040830184620034fd565b6000826200361957634e487b7160e01b600052601260045260246000fd5b500490565b634e487b7160e01b600052603160045260246000fdfe60a060405260405162000e7538038062000e758339810160408190526200002691620006b4565b6040805160208101909152600081528590620000438282620002cb565b506001600160a01b031660805260006200007f60017f73ef95b1b141b4aeb11976757a225324c423bf4634f4361553b9b059a82050bb6200075d565b6040516020016200009291815260200190565b60408051601f19818403018152919052805160209091012090506000620000db60017f039c6157caeca9b57df712b1365b48c637c526ae0a75b2c95cd3622e6ffda4fd6200075d565b604051602001620000ee91815260200190565b60408051601f198184030181529190528051602090910120905060006200013760017fd1a1c4c8365fed7323947e7cb6a7be46aba18d67bc4a4c5418b50b8bbf5a31856200075d565b6040516020016200014a91815260200190565b6040516020818303038152906040528051906020012090506000876001600160a01b03166395d89b416040518163ffffffff1660e01b8152600401600060405180830381865afa158015620001a3573d6000803e3d6000fd5b505050506040513d6000823e601f3d908101601f19168201604052620001cd91908101906200077f565b90506000876001600160a01b03166395d89b416040518163ffffffff1660e01b8152600401600060405180830381865afa15801562000210573d6000803e3d6000fd5b505050506040513d6000823e601f3d908101601f191682016040526200023a91908101906200077f565b9050818160405160200162000251929190620007d4565b60405160208183030381529060405260009081620002709190620008cd565b5081816040516020016200028692919062000999565b60405160208183030381529060405260019081620002a59190620008cd565b50888555878455868355620002bb8a87620002cb565b5050505050505050505062000a25565b620002d68262000395565b6040516001600160a01b038316907f1cf3b03a6cf19fa2baba4df148e9dcabedea7f8a5c07840e207e5c089be95d3e90600090a2805115620003875762000382826001600160a01b0316635c60da1b6040518163ffffffff1660e01b8152600401602060405180830381865afa15801562000355573d6000803e3d6000fd5b505050506040513d601f19601f820116820180604052508101906200037b9190620009e9565b82620004ae565b505050565b620003916200052d565b5050565b806001600160a01b03163b600003620003d157604051631933b43b60e21b81526001600160a01b03821660048201526024015b60405180910390fd5b807fa3f0ad74e5423aebfd80d3ef4346578335a9a72aeaee59ff6cb3582b35133d5080546001600160a01b0319166001600160a01b0392831617905560408051635c60da1b60e01b81529051600092841691635c60da1b9160048083019260209291908290030181865afa1580156200044e573d6000803e3d6000fd5b505050506040513d601f19601f82011682018060405250810190620004749190620009e9565b9050806001600160a01b03163b6000036200039157604051634c9c8ce360e01b81526001600160a01b0382166004820152602401620003c8565b6060600080846001600160a01b031684604051620004cd919062000a07565b600060405180830381855af49150503d80600081146200050a576040519150601f19603f3d011682016040523d82523d6000602084013e6200050f565b606091505b509092509050620005228583836200054f565b925050505b92915050565b34156200054d5760405163b398979f60e01b815260040160405180910390fd5b565b60608262000568576200056282620005b5565b620005ae565b81511580156200058057506001600160a01b0384163b155b15620005ab57604051639996b31560e01b81526001600160a01b0385166004820152602401620003c8565b50805b9392505050565b805115620005c65780518082602001fd5b604051630a12f52160e11b815260040160405180910390fd5b80516001600160a01b0381168114620005f757600080fd5b919050565b634e487b7160e01b600052604160045260246000fd5b60005b838110156200062f57818101518382015260200162000615565b50506000910152565b60006001600160401b0380841115620006555762000655620005fc565b604051601f8501601f19908116603f01168101908282118183101715620006805762000680620005fc565b816040528093508581528686860111156200069a57600080fd5b620006aa86602083018762000612565b5050509392505050565b600080600080600060a08688031215620006cd57600080fd5b620006d886620005df565b9450620006e860208701620005df565b9350620006f860408701620005df565b9250606086015161ffff811681146200071057600080fd5b60808701519092506001600160401b038111156200072d57600080fd5b8601601f810188136200073f57600080fd5b620007508882516020840162000638565b9150509295509295909350565b818103818111156200052757634e487b7160e01b600052601160045260246000fd5b6000602082840312156200079257600080fd5b81516001600160401b03811115620007a957600080fd5b8201601f81018413620007bb57600080fd5b620007cc8482516020840162000638565b949350505050565b7f4c697175696469747920426f6f6b20546f6b656e2000000000000000000000008152600083516200080e81601585016020880162000612565b6201016960ed1b60159184019182015283516200083381601884016020880162000612565b01601801949350505050565b600181811c908216806200085457607f821691505b6020821081036200087557634e487b7160e01b600052602260045260246000fd5b50919050565b601f8211156200038257600081815260208120601f850160051c81016020861015620008a45750805b601f850160051c820191505b81811015620008c557828155600101620008b0565b505050505050565b81516001600160401b03811115620008e957620008e9620005fc565b6200090181620008fa84546200083f565b846200087b565b602080601f831160018114620009395760008415620009205750858301515b600019600386901b1c1916600185901b178555620008c5565b600085815260208120601f198616915b828110156200096a5788860151825594840194600190910190840162000949565b5085821015620009895787850151600019600388901b60f8161c191681555b5050505050600190811b01905550565b634c42545f60e01b815260008351620009ba81600485016020880162000612565b602d60f81b6004918401918201528351620009dd81600584016020880162000612565b01600501949350505050565b600060208284031215620009fc57600080fd5b620005ae82620005df565b6000825162000a1b81846020870162000612565b9190910192915050565b60805161042d62000a48600039600081816101000152610281015261042d6000f3fe60806040526004361061005e5760003560e01c80632a905318116100435780632a905318146100af57806395d89b41146100c4578063a0a0ea39146100d957610065565b806306fdde031461006f578063188214001461009a57610065565b3661006557005b61006d61012a565b005b34801561007b57600080fd5b5061008461013c565b6040516100919190610332565b60405180910390f35b3480156100a657600080fd5b506100846101ce565b3480156100bb57600080fd5b5061008461025c565b3480156100d057600080fd5b50610084610269565b3480156100e557600080fd5b5060405173ffffffffffffffffffffffffffffffffffffffff7f0000000000000000000000000000000000000000000000000000000000000000168152602001610091565b61013a61013561027d565b61030e565b565b60606000805461014b90610380565b80601f016020809104026020016040519081016040528092919081815260200182805461017790610380565b80156101c45780601f10610199576101008083540402835291602001916101c4565b820191906000526020600020905b8154815290600101906020018083116101a757829003601f168201915b5050505050905090565b600080546101db90610380565b80601f016020809104026020016040519081016040528092919081815260200182805461020790610380565b80156102545780601f1061022957610100808354040283529160200191610254565b820191906000526020600020905b81548152906001019060200180831161023757829003601f168201915b505050505081565b600180546101db90610380565b60606001805461014b90610380565b905090565b60007f000000000000000000000000000000000000000000000000000000000000000073ffffffffffffffffffffffffffffffffffffffff16635c60da1b6040518163ffffffff1660e01b8152600401602060405180830381865afa1580156102ea573d6000803e3d6000fd5b505050506040513d601f19601f8201168201806040525081019061027891906103ba565b3660008037600080366000845af43d6000803e80801561032d573d6000f35b3d6000fd5b600060208083528351808285015260005b8181101561035f57858101830151858201604001528201610343565b506000604082860101526040601f19601f8301168501019250505092915050565b600181811c9082168061039457607f821691505b6020821081036103b457634e487b7160e01b600052602260045260246000fd5b50919050565b6000602082840312156103cc57600080fd5b815173ffffffffffffffffffffffffffffffffffffffff811681146103f057600080fd5b939250505056fea26469706673582212202732cc560e4346676321313462bd5711fafce7e02b399cd2cea916626493217b64736f6c63430008140033a2646970667358221220d77eeb68d042bdf49f91a006103d7d45d54fec32044a4774792e0fc819f42e7e64736f6c63430008140033","linkReferences":{}},"methodIdentifiers":{"DEFAULT_ADMIN_ROLE()":"a217fddf","LB_HOOKS_MANAGER_ROLE()":"1af5bacc","PAUSER_ROLE()":"e63ab1e9","acceptOwnership()":"79ba5097","addQuoteAsset(address)":"5a440923","createLBPair(address,address,uint24,uint16)":"659ac74b","forceDecay(address)":"3c78a941","getAllBinSteps()":"5b35875c","getAllLBPairs(address,address)":"6622e0d7","getFeeRecipient()":"4ccb20c0","getFlashLoanFee()":"fd90c2be","getLBPairAtIndex(uint256)":"7daf5d66","getLBPairImplementation()":"af371065","getLBPairInformation(address,address,uint256)":"704037bd","getMaxFlashLoanFee()":"8ce9aa1c","getMinBinStep()":"701ab8c1","getNumberOfLBPairs()":"4e937c3a","getNumberOfQuoteAssets()":"80c5061e","getOpenBinSteps()":"0282c9c1","getPauserRole()":"c1b931be","getPreset(uint256)":"aabc4b3c","getQuoteAssetAtIndex(uint256)":"0752092b","getRoleAdmin(bytes32)":"248a9ca3","grantRole(bytes32,address)":"2f2ff15d","hasRole(bytes32,address)":"91d14854","initialize(address,address,uint256,address)":"be203094","isQuoteAsset(address)":"27721842","owner()":"8da5cb5b","pendingOwner()":"e30c3978","removeLBHooksOnPair(address,address,uint16)":"2cc06b8c","removePreset(uint16)":"e203a31f","removeQuoteAsset(address)":"ddbfd941","renounceOwnership()":"715018a6","renounceRole(bytes32,address)":"36568abe","revokeRole(bytes32,address)":"d547741f","setFeeRecipient(address)":"e74b981b","setFeesParametersOnPair(address,address,uint16,uint16,uint16,uint16,uint16,uint24,uint16,uint24)":"093ff769","setFlashLoanFee(uint256)":"e92d0d5d","setLBHooksParametersOnPair(address,address,uint16,bytes32,bytes)":"3a2f1a91","setLBPairIgnored(address,address,uint16,bool)":"69d56ea3","setLBPairImplementation(address)":"b0384781","setPreset(uint16,uint16,uint16,uint16,uint16,uint24,uint16,uint24,bool)":"379ee803","setPresetOpenState(uint16,bool)":"4cd161d3","supportsInterface(bytes4)":"01ffc9a7","transferOwnership(address)":"f2fde38b"},"id":60}