{
  "abi": [
    {
      "inputs": [
        {
          "internalType": "address",
          "name": "_implementation",
          "type": "address"
        },
        {
          "internalType": "address",
          "name": "_owner",
          "type": "address"
        },
        {
          "internalType": "address",
          "name": "_factoryAddress",
          "type": "address"
        }
      ],
      "stateMutability": "nonpayable",
      "type": "constructor"
    },
    {
      "inputs": [
        {
          "internalType": "address",
          "name": "implementation",
          "type": "address"
        }
      ],
      "name": "BeaconInvalidImplementation",
      "type": "error"
    },
    {
      "inputs": [],
      "name": "Beacon__IsNotPaused",
      "type": "error"
    },
    {
      "inputs": [],
      "name": "Beacon__IsPaused",
      "type": "error"
    },
    {
      "inputs": [],
      "name": "Beacon__NoPausedImplementation",
      "type": "error"
    },
    {
      "inputs": [
        {
          "internalType": "address",
          "name": "caller",
          "type": "address"
        }
      ],
      "name": "Beacon__UnauthorizedCaller",
      "type": "error"
    },
    {
      "inputs": [
        {
          "internalType": "address",
          "name": "owner",
          "type": "address"
        }
      ],
      "name": "OwnableInvalidOwner",
      "type": "error"
    },
    {
      "inputs": [
        {
          "internalType": "address",
          "name": "account",
          "type": "address"
        }
      ],
      "name": "OwnableUnauthorizedAccount",
      "type": "error"
    },
    {
      "anonymous": false,
      "inputs": [
        {
          "indexed": true,
          "internalType": "address",
          "name": "previousOwner",
          "type": "address"
        },
        {
          "indexed": true,
          "internalType": "address",
          "name": "newOwner",
          "type": "address"
        }
      ],
      "name": "OwnershipTransferred",
      "type": "event"
    },
    {
      "anonymous": false,
      "inputs": [
        {
          "indexed": true,
          "internalType": "address",
          "name": "implementation",
          "type": "address"
        }
      ],
      "name": "Upgraded",
      "type": "event"
    },
    {
      "inputs": [],
      "name": "TARGET_PAUSED_CONTRACT_ADDRESS",
      "outputs": [
        {
          "internalType": "address",
          "name": "",
          "type": "address"
        }
      ],
      "stateMutability": "view",
      "type": "function"
    },
    {
      "inputs": [],
      "name": "implementation",
      "outputs": [
        {
          "internalType": "address",
          "name": "",
          "type": "address"
        }
      ],
      "stateMutability": "view",
      "type": "function"
    },
    {
      "inputs": [],
      "name": "isPaused",
      "outputs": [
        {
          "internalType": "bool",
          "name": "",
          "type": "bool"
        }
      ],
      "stateMutability": "view",
      "type": "function"
    },
    {
      "inputs": [],
      "name": "lbFactoryAddress",
      "outputs": [
        {
          "internalType": "address",
          "name": "",
          "type": "address"
        }
      ],
      "stateMutability": "view",
      "type": "function"
    },
    {
      "inputs": [],
      "name": "owner",
      "outputs": [
        {
          "internalType": "address",
          "name": "",
          "type": "address"
        }
      ],
      "stateMutability": "view",
      "type": "function"
    },
    {
      "inputs": [],
      "name": "pause",
      "outputs": [],
      "stateMutability": "nonpayable",
      "type": "function"
    },
    {
      "inputs": [],
      "name": "pausedImplementation",
      "outputs": [
        {
          "internalType": "address",
          "name": "",
          "type": "address"
        }
      ],
      "stateMutability": "view",
      "type": "function"
    },
    {
      "inputs": [],
      "name": "renounceOwnership",
      "outputs": [],
      "stateMutability": "nonpayable",
      "type": "function"
    },
    {
      "inputs": [
        {
          "internalType": "address",
          "name": "newOwner",
          "type": "address"
        }
      ],
      "name": "transferOwnership",
      "outputs": [],
      "stateMutability": "nonpayable",
      "type": "function"
    },
    {
      "inputs": [],
      "name": "unpause",
      "outputs": [],
      "stateMutability": "nonpayable",
      "type": "function"
    },
    {
      "inputs": [
        {
          "internalType": "address",
          "name": "newImplementation",
          "type": "address"
        }
      ],
      "name": "upgradeTo",
      "outputs": [],
      "stateMutability": "nonpayable",
      "type": "function"
    }
  ],
  "bytecode": {
    "object": "0x608060405234801561001057600080fd5b506040516108ff3803806108ff83398101604081905261002f9161018a565b8282806001600160a01b03811661006157604051631e4fbdf760e01b8152600060048201526024015b60405180910390fd5b61006a8161009e565b50610074826100ee565b5050600380546001600160a01b0319166001600160a01b0392909216919091179055506101cd9050565b600080546001600160a01b038381166001600160a01b0319831681178455604051919092169283917f8be0079c531659141344cd1fd0a4f28419497f9722a3daafe3b4186f6b6457e09190a35050565b806001600160a01b03163b6000036101245760405163211eb15960e21b81526001600160a01b0382166004820152602401610058565b600180546001600160a01b0319166001600160a01b0383169081179091556040517fbc7cd75a20ee27fd9adebab32041f755214dbc6bffa90cc0225b39da2e5c2d3b90600090a250565b80516001600160a01b038116811461018557600080fd5b919050565b60008060006060848603121561019f57600080fd5b6101a88461016e565b92506101b66020850161016e565b91506101c46040850161016e565b90509250925092565b610723806101dc6000396000f3fe608060405234801561001057600080fd5b50600436106100c95760003560e01c8063762c51a111610081578063a3a4d3611161005b578063a3a4d36114610162578063b187bd2614610173578063f2fde38b1461018b57600080fd5b8063762c51a11461012e5780638456cb59146101495780638da5cb5b1461015157600080fd5b80633f4ba83a116100b25780633f4ba83a1461010d5780635c60da1b14610115578063715018a61461012657600080fd5b80631af7a41f146100ce5780633659cfe6146100f8575b600080fd5b6003546001600160a01b03165b6040516001600160a01b0390911681526020015b60405180910390f35b61010b610106366004610682565b61019e565b005b61010b6101b2565b6001546001600160a01b03166100db565b61010b610358565b6100db73e919920ae49d3027566025548f12cdab4e52b59581565b61010b61036c565b6000546001600160a01b03166100db565b6002546001600160a01b03166100db565b61017b6104fd565b60405190151581526020016100ef565b61010b610199366004610682565b61054a565b6101a6610585565b6101af816105b2565b50565b6000546001600160a01b031633148015906102be5750600354604080516360dc98df60e11b815290516001600160a01b03909216916391d1485491839163c1b931be916004808201926020929091908290030181865afa15801561021a573d6000803e3d6000fd5b505050506040513d601f19601f8201168201806040525081019061023e91906106b2565b6040517fffffffff0000000000000000000000000000000000000000000000000000000060e084901b1681526004810191909152336024820152604401602060405180830381865afa158015610298573d6000803e3d6000fd5b505050506040513d601f19601f820116820180604052508101906102bc91906106cb565b155b156102e357604051630a33ca5d60e31b81523360048201526024015b60405180910390fd5b6102eb6104fd565b61030857604051631d08162f60e11b815260040160405180910390fd5b6002546001600160a01b03166103315760405163a027d3f960e01b815260040160405180910390fd5b600254610346906001600160a01b03166105b2565b600280546001600160a01b0319169055565b610360610585565b61036a6000610632565b565b6000546001600160a01b031633148015906104785750600354604080516360dc98df60e11b815290516001600160a01b03909216916391d1485491839163c1b931be916004808201926020929091908290030181865afa1580156103d4573d6000803e3d6000fd5b505050506040513d601f19601f820116820180604052508101906103f891906106b2565b6040517fffffffff0000000000000000000000000000000000000000000000000000000060e084901b1681526004810191909152336024820152604401602060405180830381865afa158015610452573d6000803e3d6000fd5b505050506040513d601f19601f8201168201806040525081019061047691906106cb565b155b1561049857604051630a33ca5d60e31b81523360048201526024016102da565b6104a06104fd565b156104be57604051636d18edcb60e01b815260040160405180910390fd5b600154600280546001600160a01b0319166001600160a01b0390921691909117905561036a73e919920ae49d3027566025548f12cdab4e52b5956105b2565b600073e919920ae49d3027566025548f12cdab4e52b5956105266001546001600160a01b031690565b6001600160a01b0316148061054557506002546001600160a01b031615155b905090565b610552610585565b6001600160a01b03811661057c57604051631e4fbdf760e01b8152600060048201526024016102da565b6101af81610632565b6000546001600160a01b0316331461036a5760405163118cdaa760e01b81523360048201526024016102da565b806001600160a01b03163b6000036105e85760405163211eb15960e21b81526001600160a01b03821660048201526024016102da565b600180546001600160a01b0319166001600160a01b0383169081179091556040517fbc7cd75a20ee27fd9adebab32041f755214dbc6bffa90cc0225b39da2e5c2d3b90600090a250565b600080546001600160a01b038381166001600160a01b0319831681178455604051919092169283917f8be0079c531659141344cd1fd0a4f28419497f9722a3daafe3b4186f6b6457e09190a35050565b60006020828403121561069457600080fd5b81356001600160a01b03811681146106ab57600080fd5b9392505050565b6000602082840312156106c457600080fd5b5051919050565b6000602082840312156106dd57600080fd5b815180151581146106ab57600080fdfea264697066735822122017084a6a294c7c04d0d46769a1a24663539b83ae7dcec7f168ac0c3156b7598b64736f6c63430008140033",
    "linkReferences": {}
  },
  "methodIdentifiers": {
    "TARGET_PAUSED_CONTRACT_ADDRESS()": "762c51a1",
    "implementation()": "5c60da1b",
    "isPaused()": "b187bd26",
    "lbFactoryAddress()": "1af7a41f",
    "owner()": "8da5cb5b",
    "pause()": "8456cb59",
    "pausedImplementation()": "a3a4d361",
    "renounceOwnership()": "715018a6",
    "transferOwnership(address)": "f2fde38b",
    "unpause()": "3f4ba83a",
    "upgradeTo(address)": "3659cfe6"
  },
  "id": 83
}