{
  "abi": [
    {
      "inputs": [
        {
          "internalType": "address",
          "name": "_implementation",
          "type": "address"
        },
        {
          "internalType": "address",
          "name": "_owner",
          "type": "address"
        },
        {
          "internalType": "address",
          "name": "_factoryAddress",
          "type": "address"
        }
      ],
      "stateMutability": "nonpayable",
      "type": "constructor"
    },
    {
      "inputs": [
        {
          "internalType": "address",
          "name": "implementation",
          "type": "address"
        }
      ],
      "name": "BeaconInvalidImplementation",
      "type": "error"
    },
    {
      "inputs": [],
      "name": "Beacon__IsPaused",
      "type": "error"
    },
    {
      "inputs": [],
      "name": "Beacon__NoPreviousImplementation",
      "type": "error"
    },
    {
      "inputs": [
        {
          "internalType": "address",
          "name": "caller",
          "type": "address"
        }
      ],
      "name": "Beacon__UnauthorizedCaller",
      "type": "error"
    },
    {
      "inputs": [],
      "name": "EnforcedPause",
      "type": "error"
    },
    {
      "inputs": [],
      "name": "ExpectedPause",
      "type": "error"
    },
    {
      "inputs": [
        {
          "internalType": "address",
          "name": "owner",
          "type": "address"
        }
      ],
      "name": "OwnableInvalidOwner",
      "type": "error"
    },
    {
      "inputs": [
        {
          "internalType": "address",
          "name": "account",
          "type": "address"
        }
      ],
      "name": "OwnableUnauthorizedAccount",
      "type": "error"
    },
    {
      "anonymous": false,
      "inputs": [
        {
          "indexed": true,
          "internalType": "address",
          "name": "previousOwner",
          "type": "address"
        },
        {
          "indexed": true,
          "internalType": "address",
          "name": "newOwner",
          "type": "address"
        }
      ],
      "name": "OwnershipTransferred",
      "type": "event"
    },
    {
      "anonymous": false,
      "inputs": [
        {
          "indexed": false,
          "internalType": "address",
          "name": "account",
          "type": "address"
        }
      ],
      "name": "Paused",
      "type": "event"
    },
    {
      "anonymous": false,
      "inputs": [
        {
          "indexed": false,
          "internalType": "address",
          "name": "account",
          "type": "address"
        }
      ],
      "name": "Unpaused",
      "type": "event"
    },
    {
      "anonymous": false,
      "inputs": [
        {
          "indexed": true,
          "internalType": "address",
          "name": "implementation",
          "type": "address"
        }
      ],
      "name": "Upgraded",
      "type": "event"
    },
    {
      "inputs": [],
      "name": "TARGET_PAUSED_CONTRACT_ADDRESS",
      "outputs": [
        {
          "internalType": "address",
          "name": "",
          "type": "address"
        }
      ],
      "stateMutability": "view",
      "type": "function"
    },
    {
      "inputs": [],
      "name": "implementation",
      "outputs": [
        {
          "internalType": "address",
          "name": "",
          "type": "address"
        }
      ],
      "stateMutability": "view",
      "type": "function"
    },
    {
      "inputs": [],
      "name": "lbFactoryAddress",
      "outputs": [
        {
          "internalType": "address",
          "name": "",
          "type": "address"
        }
      ],
      "stateMutability": "view",
      "type": "function"
    },
    {
      "inputs": [],
      "name": "owner",
      "outputs": [
        {
          "internalType": "address",
          "name": "",
          "type": "address"
        }
      ],
      "stateMutability": "view",
      "type": "function"
    },
    {
      "inputs": [],
      "name": "pause",
      "outputs": [],
      "stateMutability": "nonpayable",
      "type": "function"
    },
    {
      "inputs": [],
      "name": "paused",
      "outputs": [
        {
          "internalType": "bool",
          "name": "",
          "type": "bool"
        }
      ],
      "stateMutability": "view",
      "type": "function"
    },
    {
      "inputs": [],
      "name": "previousImplementation",
      "outputs": [
        {
          "internalType": "address",
          "name": "",
          "type": "address"
        }
      ],
      "stateMutability": "view",
      "type": "function"
    },
    {
      "inputs": [],
      "name": "renounceOwnership",
      "outputs": [],
      "stateMutability": "nonpayable",
      "type": "function"
    },
    {
      "inputs": [
        {
          "internalType": "address",
          "name": "newOwner",
          "type": "address"
        }
      ],
      "name": "transferOwnership",
      "outputs": [],
      "stateMutability": "nonpayable",
      "type": "function"
    },
    {
      "inputs": [],
      "name": "unpause",
      "outputs": [],
      "stateMutability": "nonpayable",
      "type": "function"
    },
    {
      "inputs": [
        {
          "internalType": "address",
          "name": "newImplementation",
          "type": "address"
        }
      ],
      "name": "upgradeTo",
      "outputs": [],
      "stateMutability": "nonpayable",
      "type": "function"
    }
  ],
  "bytecode": {
    "object": "0x608060405234801561001057600080fd5b5060405161080238038061080283398101604081905261002f916101af565b8282806001600160a01b03811661006157604051631e4fbdf760e01b8152600060048201526024015b60405180910390fd5b61006a816100c3565b5061007482610113565b50506001805460ff60a01b191690556001600160a01b0382161561009b5761009b826100c3565b600380546001600160a01b0319166001600160a01b0392909216919091179055506101f29050565b600080546001600160a01b038381166001600160a01b0319831681178455604051919092169283917f8be0079c531659141344cd1fd0a4f28419497f9722a3daafe3b4186f6b6457e09190a35050565b806001600160a01b03163b6000036101495760405163211eb15960e21b81526001600160a01b0382166004820152602401610058565b600180546001600160a01b0319166001600160a01b0383169081179091556040517fbc7cd75a20ee27fd9adebab32041f755214dbc6bffa90cc0225b39da2e5c2d3b90600090a250565b80516001600160a01b03811681146101aa57600080fd5b919050565b6000806000606084860312156101c457600080fd5b6101cd84610193565b92506101db60208501610193565b91506101e960408501610193565b90509250925092565b610601806102016000396000f3fe608060405234801561001057600080fd5b50600436106100c95760003560e01c8063715018a6116100815780638da5cb5b1161005b5780638da5cb5b146101655780639d0bcca014610176578063f2fde38b1461018757600080fd5b8063715018a61461013a578063762c51a1146101425780638456cb591461015d57600080fd5b80633f4ba83a116100b25780633f4ba83a1461010d5780635c60da1b146101155780635c975abb1461011d57600080fd5b80631af7a41f146100ce5780633659cfe6146100f8575b600080fd5b6003546001600160a01b03165b6040516001600160a01b0390911681526020015b60405180910390f35b61010b61010636600461058a565b61019a565b005b61010b6101ae565b6100db6102b2565b600154600160a01b900460ff1660405190151581526020016100ef565b61010b6102cc565b6100db73c347b61589e131d5a3fb7ea64c9548095cb434a081565b61010b6102e0565b6000546001600160a01b03166100db565b6002546001600160a01b03166100db565b61010b61019536600461058a565b610412565b6101a261044d565b6101ab8161047a565b50565b6000546001600160a01b0316331480159061023d575060035460408051636e9960c360e01b8152905133926001600160a01b031691636e9960c39160048083019260209291908290030181865afa15801561020d573d6000803e3d6000fd5b505050506040513d601f19601f8201168201806040525081019061023191906105ae565b6001600160a01b031614155b1561026257604051630a33ca5d60e31b81523360048201526024015b60405180910390fd5b6002546001600160a01b031661028b5760405163396f76ad60e11b815260040160405180910390fd5b6002546102a0906001600160a01b031661019a565b600280546001600160a01b0319169055565b60006102bc6104fa565b506001546001600160a01b031690565b6102d461044d565b6102de6000610525565b565b6000546001600160a01b0316331480159061036f575060035460408051636e9960c360e01b8152905133926001600160a01b031691636e9960c39160048083019260209291908290030181865afa15801561033f573d6000803e3d6000fd5b505050506040513d601f19601f8201168201806040525081019061036391906105ae565b6001600160a01b031614155b1561038f57604051630a33ca5d60e31b8152336004820152602401610259565b73c347b61589e131d5a3fb7ea64c9548095cb434a06103ac6102b2565b6001600160a01b0316036103d357604051636d18edcb60e01b815260040160405180910390fd5b600154600280546001600160a01b0319166001600160a01b039092169190911790556102de73c347b61589e131d5a3fb7ea64c9548095cb434a061019a565b61041a61044d565b6001600160a01b03811661044457604051631e4fbdf760e01b815260006004820152602401610259565b6101ab81610525565b6000546001600160a01b031633146102de5760405163118cdaa760e01b8152336004820152602401610259565b806001600160a01b03163b6000036104b05760405163211eb15960e21b81526001600160a01b0382166004820152602401610259565b600180546001600160a01b0319166001600160a01b0383169081179091556040517fbc7cd75a20ee27fd9adebab32041f755214dbc6bffa90cc0225b39da2e5c2d3b90600090a250565b600154600160a01b900460ff16156102de5760405163d93c066560e01b815260040160405180910390fd5b600080546001600160a01b038381166001600160a01b0319831681178455604051919092169283917f8be0079c531659141344cd1fd0a4f28419497f9722a3daafe3b4186f6b6457e09190a35050565b6001600160a01b03811681146101ab57600080fd5b60006020828403121561059c57600080fd5b81356105a781610575565b9392505050565b6000602082840312156105c057600080fd5b81516105a78161057556fea2646970667358221220598dd1e256326623a9156b7c38f00e2e0b4526527d3899053832e494ca937cec64736f6c63430008140033",
    "linkReferences": {}
  },
  "methodIdentifiers": {
    "TARGET_PAUSED_CONTRACT_ADDRESS()": "762c51a1",
    "implementation()": "5c60da1b",
    "lbFactoryAddress()": "1af7a41f",
    "owner()": "8da5cb5b",
    "pause()": "8456cb59",
    "paused()": "5c975abb",
    "previousImplementation()": "9d0bcca0",
    "renounceOwnership()": "715018a6",
    "transferOwnership(address)": "f2fde38b",
    "unpause()": "3f4ba83a",
    "upgradeTo(address)": "3659cfe6"
  },
  "id": 59
}