{"abi":[{"type":"constructor","inputs":[{"name":"_implementation","type":"address","internalType":"address"},{"name":"_owner","type":"address","internalType":"address"},{"name":"_factoryAddress","type":"address","internalType":"address"}],"stateMutability":"nonpayable"},{"type":"function","name":"TARGET_PAUSED_CONTRACT_ADDRESS","inputs":[],"outputs":[{"name":"","type":"address","internalType":"address"}],"stateMutability":"view"},{"type":"function","name":"implementation","inputs":[],"outputs":[{"name":"","type":"address","internalType":"address"}],"stateMutability":"view"},{"type":"function","name":"lbFactoryAddress","inputs":[],"outputs":[{"name":"","type":"address","internalType":"address"}],"stateMutability":"view"},{"type":"function","name":"owner","inputs":[],"outputs":[{"name":"","type":"address","internalType":"address"}],"stateMutability":"view"},{"type":"function","name":"pause","inputs":[],"outputs":[],"stateMutability":"nonpayable"},{"type":"function","name":"paused","inputs":[],"outputs":[{"name":"","type":"bool","internalType":"bool"}],"stateMutability":"view"},{"type":"function","name":"previousImplementation","inputs":[],"outputs":[{"name":"","type":"address","internalType":"address"}],"stateMutability":"view"},{"type":"function","name":"renounceOwnership","inputs":[],"outputs":[],"stateMutability":"nonpayable"},{"type":"function","name":"transferOwnership","inputs":[{"name":"newOwner","type":"address","internalType":"address"}],"outputs":[],"stateMutability":"nonpayable"},{"type":"function","name":"unpause","inputs":[],"outputs":[],"stateMutability":"nonpayable"},{"type":"function","name":"upgradeTo","inputs":[{"name":"newImplementation","type":"address","internalType":"address"}],"outputs":[],"stateMutability":"nonpayable"},{"type":"event","name":"OwnershipTransferred","inputs":[{"name":"previousOwner","type":"address","indexed":true,"internalType":"address"},{"name":"newOwner","type":"address","indexed":true,"internalType":"address"}],"anonymous":false},{"type":"event","name":"Paused","inputs":[{"name":"account","type":"address","indexed":false,"internalType":"address"}],"anonymous":false},{"type":"event","name":"Unpaused","inputs":[{"name":"account","type":"address","indexed":false,"internalType":"address"}],"anonymous":false},{"type":"event","name":"Upgraded","inputs":[{"name":"implementation","type":"address","indexed":true,"internalType":"address"}],"anonymous":false},{"type":"error","name":"BeaconInvalidImplementation","inputs":[{"name":"implementation","type":"address","internalType":"address"}]},{"type":"error","name":"Beacon__IsPaused","inputs":[]},{"type":"error","name":"Beacon__NoPreviousImplementation","inputs":[]},{"type":"error","name":"Beacon__UnauthorizedCaller","inputs":[{"name":"caller","type":"address","internalType":"address"}]},{"type":"error","name":"EnforcedPause","inputs":[]},{"type":"error","name":"ExpectedPause","inputs":[]},{"type":"error","name":"OwnableInvalidOwner","inputs":[{"name":"owner","type":"address","internalType":"address"}]},{"type":"error","name":"OwnableUnauthorizedAccount","inputs":[{"name":"account","type":"address","internalType":"address"}]}],"bytecode":{"object":"0x608060405234801561001057600080fd5b506040516107ec3803806107ec83398101604081905261002f916101af565b8282806001600160a01b03811661006157604051631e4fbdf760e01b8152600060048201526024015b60405180910390fd5b61006a816100c3565b5061007482610113565b50506001805460ff60a01b191690556001600160a01b0382161561009b5761009b826100c3565b600380546001600160a01b0319166001600160a01b0392909216919091179055506101f29050565b600080546001600160a01b038381166001600160a01b0319831681178455604051919092169283917f8be0079c531659141344cd1fd0a4f28419497f9722a3daafe3b4186f6b6457e09190a35050565b806001600160a01b03163b6000036101495760405163211eb15960e21b81526001600160a01b0382166004820152602401610058565b600180546001600160a01b0319166001600160a01b0383169081179091556040517fbc7cd75a20ee27fd9adebab32041f755214dbc6bffa90cc0225b39da2e5c2d3b90600090a250565b80516001600160a01b03811681146101aa57600080fd5b919050565b6000806000606084860312156101c457600080fd5b6101cd84610193565b92506101db60208501610193565b91506101e960408501610193565b90509250925092565b6105eb806102016000396000f3fe608060405234801561001057600080fd5b50600436106100c95760003560e01c8063715018a6116100815780638da5cb5b1161005b5780638da5cb5b146101655780639d0bcca014610176578063f2fde38b1461018757600080fd5b8063715018a61461013a578063762c51a1146101425780638456cb591461015d57600080fd5b80633f4ba83a116100b25780633f4ba83a1461010d5780635c60da1b146101155780635c975abb1461011d57600080fd5b80631af7a41f146100ce5780633659cfe6146100f8575b600080fd5b6003546001600160a01b03165b6040516001600160a01b0390911681526020015b60405180910390f35b61010b610106366004610563565b61019a565b005b61010b6101ae565b6100db6102a9565b600154600160a01b900460ff1660405190151581526020016100ef565b61010b6102c3565b6100db73c347b61589e131d5a3fb7ea64c9548095cb434a081565b61010b6102d7565b6000546001600160a01b03166100db565b6002546001600160a01b03166100db565b61010b610195366004610563565b610400565b6101a261043b565b6101ab81610468565b50565b6000546001600160a01b031633148015906102345750600354604051630935e01b60e21b81523360048201526001600160a01b03909116906324d7806c906024016020604051808303816000875af115801561020e573d6000803e3d6000fd5b505050506040513d601f19601f820116820180604052508101906102329190610593565b155b1561025957604051630a33ca5d60e31b81523360048201526024015b60405180910390fd5b6002546001600160a01b03166102825760405163396f76ad60e11b815260040160405180910390fd5b600254610297906001600160a01b031661019a565b600280546001600160a01b0319169055565b60006102b36104e8565b506001546001600160a01b031690565b6102cb61043b565b6102d56000610513565b565b6000546001600160a01b0316331480159061035d5750600354604051630935e01b60e21b81523360048201526001600160a01b03909116906324d7806c906024016020604051808303816000875af1158015610337573d6000803e3d6000fd5b505050506040513d601f19601f8201168201806040525081019061035b9190610593565b155b1561037d57604051630a33ca5d60e31b8152336004820152602401610250565b73c347b61589e131d5a3fb7ea64c9548095cb434a061039a6102a9565b6001600160a01b0316036103c157604051636d18edcb60e01b815260040160405180910390fd5b600154600280546001600160a01b0319166001600160a01b039092169190911790556102d573c347b61589e131d5a3fb7ea64c9548095cb434a061019a565b61040861043b565b6001600160a01b03811661043257604051631e4fbdf760e01b815260006004820152602401610250565b6101ab81610513565b6000546001600160a01b031633146102d55760405163118cdaa760e01b8152336004820152602401610250565b806001600160a01b03163b60000361049e5760405163211eb15960e21b81526001600160a01b0382166004820152602401610250565b600180546001600160a01b0319166001600160a01b0383169081179091556040517fbc7cd75a20ee27fd9adebab32041f755214dbc6bffa90cc0225b39da2e5c2d3b90600090a250565b600154600160a01b900460ff16156102d55760405163d93c066560e01b815260040160405180910390fd5b600080546001600160a01b038381166001600160a01b0319831681178455604051919092169283917f8be0079c531659141344cd1fd0a4f28419497f9722a3daafe3b4186f6b6457e09190a35050565b60006020828403121561057557600080fd5b81356001600160a01b038116811461058c57600080fd5b9392505050565b6000602082840312156105a557600080fd5b8151801515811461058c57600080fdfea2646970667358221220d09ea74ecbc08330c176d655ad8d70130e86351c98e4bf63076d6c951132129b64736f6c63430008140033","linkReferences":{}},"methodIdentifiers":{"TARGET_PAUSED_CONTRACT_ADDRESS()":"762c51a1","implementation()":"5c60da1b","lbFactoryAddress()":"1af7a41f","owner()":"8da5cb5b","pause()":"8456cb59","paused()":"5c975abb","previousImplementation()":"9d0bcca0","renounceOwnership()":"715018a6","transferOwnership(address)":"f2fde38b","unpause()":"3f4ba83a","upgradeTo(address)":"3659cfe6"},"id":52}