{"abi":[{"type":"constructor","inputs":[{"name":"_implementation","type":"address","internalType":"address"},{"name":"_owner","type":"address","internalType":"address"}],"stateMutability":"nonpayable"},{"type":"function","name":"implementation","inputs":[],"outputs":[{"name":"","type":"address","internalType":"address"}],"stateMutability":"view"},{"type":"function","name":"owner","inputs":[],"outputs":[{"name":"","type":"address","internalType":"address"}],"stateMutability":"view"},{"type":"function","name":"pause","inputs":[],"outputs":[],"stateMutability":"nonpayable"},{"type":"function","name":"paused","inputs":[],"outputs":[{"name":"","type":"bool","internalType":"bool"}],"stateMutability":"view"},{"type":"function","name":"renounceOwnership","inputs":[],"outputs":[],"stateMutability":"nonpayable"},{"type":"function","name":"transferOwnership","inputs":[{"name":"newOwner","type":"address","internalType":"address"}],"outputs":[],"stateMutability":"nonpayable"},{"type":"function","name":"unpause","inputs":[],"outputs":[],"stateMutability":"nonpayable"},{"type":"function","name":"upgradeTo","inputs":[{"name":"newImplementation","type":"address","internalType":"address"}],"outputs":[],"stateMutability":"nonpayable"},{"type":"event","name":"OwnershipTransferred","inputs":[{"name":"previousOwner","type":"address","indexed":true,"internalType":"address"},{"name":"newOwner","type":"address","indexed":true,"internalType":"address"}],"anonymous":false},{"type":"event","name":"Paused","inputs":[{"name":"account","type":"address","indexed":false,"internalType":"address"}],"anonymous":false},{"type":"event","name":"Unpaused","inputs":[{"name":"account","type":"address","indexed":false,"internalType":"address"}],"anonymous":false},{"type":"event","name":"Upgraded","inputs":[{"name":"implementation","type":"address","indexed":true,"internalType":"address"}],"anonymous":false},{"type":"error","name":"BeaconInvalidImplementation","inputs":[{"name":"implementation","type":"address","internalType":"address"}]},{"type":"error","name":"EnforcedPause","inputs":[]},{"type":"error","name":"ExpectedPause","inputs":[]},{"type":"error","name":"OwnableInvalidOwner","inputs":[{"name":"owner","type":"address","internalType":"address"}]},{"type":"error","name":"OwnableUnauthorizedAccount","inputs":[{"name":"account","type":"address","internalType":"address"}]}],"bytecode":{"object":"0x608060405234801561001057600080fd5b5060405161061738038061061783398101604081905261002f9161018e565b8181806001600160a01b03811661006157604051631e4fbdf760e01b8152600060048201526024015b60405180910390fd5b61006a816100a2565b50610074826100f2565b50506001805460ff60a01b191690556001600160a01b0381161561009b5761009b816100a2565b50506101c1565b600080546001600160a01b038381166001600160a01b0319831681178455604051919092169283917f8be0079c531659141344cd1fd0a4f28419497f9722a3daafe3b4186f6b6457e09190a35050565b806001600160a01b03163b6000036101285760405163211eb15960e21b81526001600160a01b0382166004820152602401610058565b600180546001600160a01b0319166001600160a01b0383169081179091556040517fbc7cd75a20ee27fd9adebab32041f755214dbc6bffa90cc0225b39da2e5c2d3b90600090a250565b80516001600160a01b038116811461018957600080fd5b919050565b600080604083850312156101a157600080fd5b6101aa83610172565b91506101b860208401610172565b90509250929050565b610447806101d06000396000f3fe608060405234801561001057600080fd5b50600436106100885760003560e01c8063715018a61161005b578063715018a6146100ec5780638456cb59146100f45780638da5cb5b146100fc578063f2fde38b1461010d57600080fd5b80633659cfe61461008d5780633f4ba83a146100a25780635c60da1b146100aa5780635c975abb146100cf575b600080fd5b6100a061009b3660046103e1565b610120565b005b6100a0610134565b6100b26101c0565b6040516001600160a01b0390911681526020015b60405180910390f35b600154600160a01b900460ff1660405190151581526020016100c6565b6100a06101da565b6100a06101ee565b6000546001600160a01b03166100b2565b6100a061011b3660046103e1565b61027e565b6101286102b9565b610131816102e6565b50565b61013c6102b9565b6002546001600160a01b03166101995760405162461bcd60e51b815260206004820152601a60248201527f4e6f2070726576696f757320696d706c656d656e746174696f6e00000000000060448201526064015b60405180910390fd5b6002546101ae906001600160a01b0316610120565b600280546001600160a01b0319169055565b60006101ca610366565b506001546001600160a01b031690565b6101e26102b9565b6101ec6000610391565b565b6101f66102b9565b6002546001600160a01b0316600019016102525760405162461bcd60e51b815260206004820152601860248201527f626561636f6e20697320696e20706175736564206d6f646500000000000000006044820152606401610190565b60018054600280546001600160a01b0319166001600160a01b039092169190911790556101ec90610120565b6102866102b9565b6001600160a01b0381166102b057604051631e4fbdf760e01b815260006004820152602401610190565b61013181610391565b6000546001600160a01b031633146101ec5760405163118cdaa760e01b8152336004820152602401610190565b806001600160a01b03163b60000361031c5760405163211eb15960e21b81526001600160a01b0382166004820152602401610190565b600180546001600160a01b0319166001600160a01b0383169081179091556040517fbc7cd75a20ee27fd9adebab32041f755214dbc6bffa90cc0225b39da2e5c2d3b90600090a250565b600154600160a01b900460ff16156101ec5760405163d93c066560e01b815260040160405180910390fd5b600080546001600160a01b038381166001600160a01b0319831681178455604051919092169283917f8be0079c531659141344cd1fd0a4f28419497f9722a3daafe3b4186f6b6457e09190a35050565b6000602082840312156103f357600080fd5b81356001600160a01b038116811461040a57600080fd5b939250505056fea2646970667358221220ca635405ddf9dc2f3a4e832d876cba6712d08e0ee4ac78ae2a43492ef93b1d0964736f6c63430008140033","linkReferences":{}},"methodIdentifiers":{"implementation()":"5c60da1b","owner()":"8da5cb5b","pause()":"8456cb59","paused()":"5c975abb","renounceOwnership()":"715018a6","transferOwnership(address)":"f2fde38b","unpause()":"3f4ba83a","upgradeTo(address)":"3659cfe6"},"id":53}