{
  "abi": [
    {
      "inputs": [
        {
          "internalType": "contract ILBFactory",
          "name": "factory_",
          "type": "address"
        }
      ],
      "stateMutability": "nonpayable",
      "type": "constructor"
    },
    {
      "inputs": [
        {
          "internalType": "uint24",
          "name": "id",
          "type": "uint24"
        }
      ],
      "name": "BinHelper__CompositionFactorFlawed",
      "type": "error"
    },
    {
      "inputs": [],
      "name": "BinHelper__LiquidityOverflow",
      "type": "error"
    },
    {
      "inputs": [],
      "name": "BinHelper__MaxLiquidityPerBinExceeded",
      "type": "error"
    },
    {
      "inputs": [],
      "name": "FeeHelper__FeeTooLarge",
      "type": "error"
    },
    {
      "inputs": [],
      "name": "Hooks__CallFailed",
      "type": "error"
    },
    {
      "inputs": [],
      "name": "InvalidInitialization",
      "type": "error"
    },
    {
      "inputs": [],
      "name": "LBPair__AddressZero",
      "type": "error"
    },
    {
      "inputs": [],
      "name": "LBPair__EmptyMarketConfigs",
      "type": "error"
    },
    {
      "inputs": [],
      "name": "LBPair__FlashLoanCallbackFailed",
      "type": "error"
    },
    {
      "inputs": [],
      "name": "LBPair__FlashLoanInsufficientAmount",
      "type": "error"
    },
    {
      "inputs": [],
      "name": "LBPair__InsufficientAmountIn",
      "type": "error"
    },
    {
      "inputs": [],
      "name": "LBPair__InsufficientAmountOut",
      "type": "error"
    },
    {
      "inputs": [],
      "name": "LBPair__InvalidHooks",
      "type": "error"
    },
    {
      "inputs": [],
      "name": "LBPair__InvalidInput",
      "type": "error"
    },
    {
      "inputs": [],
      "name": "LBPair__InvalidStaticFeeParameters",
      "type": "error"
    },
    {
      "inputs": [],
      "name": "LBPair__MaxTotalFeeExceeded",
      "type": "error"
    },
    {
      "inputs": [],
      "name": "LBPair__OnlyFactory",
      "type": "error"
    },
    {
      "inputs": [],
      "name": "LBPair__OnlyProtocolFeeRecipient",
      "type": "error"
    },
    {
      "inputs": [],
      "name": "LBPair__OutOfLiquidity",
      "type": "error"
    },
    {
      "inputs": [],
      "name": "LBPair__TokenNotSupported",
      "type": "error"
    },
    {
      "inputs": [
        {
          "internalType": "uint24",
          "name": "id",
          "type": "uint24"
        }
      ],
      "name": "LBPair__ZeroAmount",
      "type": "error"
    },
    {
      "inputs": [
        {
          "internalType": "uint24",
          "name": "id",
          "type": "uint24"
        }
      ],
      "name": "LBPair__ZeroAmountsOut",
      "type": "error"
    },
    {
      "inputs": [],
      "name": "LBPair__ZeroBorrowAmount",
      "type": "error"
    },
    {
      "inputs": [
        {
          "internalType": "uint24",
          "name": "id",
          "type": "uint24"
        }
      ],
      "name": "LBPair__ZeroShares",
      "type": "error"
    },
    {
      "inputs": [],
      "name": "LBToken__AddressThisOrZero",
      "type": "error"
    },
    {
      "inputs": [
        {
          "internalType": "address",
          "name": "from",
          "type": "address"
        },
        {
          "internalType": "uint256",
          "name": "id",
          "type": "uint256"
        },
        {
          "internalType": "uint256",
          "name": "amount",
          "type": "uint256"
        }
      ],
      "name": "LBToken__BurnExceedsBalance",
      "type": "error"
    },
    {
      "inputs": [],
      "name": "LBToken__InvalidLength",
      "type": "error"
    },
    {
      "inputs": [
        {
          "internalType": "address",
          "name": "owner",
          "type": "address"
        }
      ],
      "name": "LBToken__SelfApproval",
      "type": "error"
    },
    {
      "inputs": [
        {
          "internalType": "address",
          "name": "from",
          "type": "address"
        },
        {
          "internalType": "address",
          "name": "spender",
          "type": "address"
        }
      ],
      "name": "LBToken__SpenderNotApproved",
      "type": "error"
    },
    {
      "inputs": [
        {
          "internalType": "address",
          "name": "from",
          "type": "address"
        },
        {
          "internalType": "uint256",
          "name": "id",
          "type": "uint256"
        },
        {
          "internalType": "uint256",
          "name": "amount",
          "type": "uint256"
        }
      ],
      "name": "LBToken__TransferExceedsBalance",
      "type": "error"
    },
    {
      "inputs": [],
      "name": "LiquidityConfigurations__InvalidConfig",
      "type": "error"
    },
    {
      "inputs": [],
      "name": "NotInitializing",
      "type": "error"
    },
    {
      "inputs": [],
      "name": "OracleHelper__InvalidOracleId",
      "type": "error"
    },
    {
      "inputs": [],
      "name": "OracleHelper__LookUpTimestampTooOld",
      "type": "error"
    },
    {
      "inputs": [],
      "name": "OracleHelper__NewLengthTooSmall",
      "type": "error"
    },
    {
      "inputs": [],
      "name": "PackedUint128Math__AddOverflow",
      "type": "error"
    },
    {
      "inputs": [],
      "name": "PackedUint128Math__MultiplierTooLarge",
      "type": "error"
    },
    {
      "inputs": [],
      "name": "PackedUint128Math__SubUnderflow",
      "type": "error"
    },
    {
      "inputs": [],
      "name": "PairParametersHelper__InvalidParameter",
      "type": "error"
    },
    {
      "inputs": [],
      "name": "ReentrancyGuardReentrantCall",
      "type": "error"
    },
    {
      "inputs": [],
      "name": "SafeCast__Exceeds128Bits",
      "type": "error"
    },
    {
      "inputs": [],
      "name": "SafeCast__Exceeds24Bits",
      "type": "error"
    },
    {
      "inputs": [],
      "name": "SafeCast__Exceeds40Bits",
      "type": "error"
    },
    {
      "inputs": [],
      "name": "TokenHelper__TransferFailed",
      "type": "error"
    },
    {
      "inputs": [],
      "name": "Uint128x128Math__LogUnderflow",
      "type": "error"
    },
    {
      "inputs": [
        {
          "internalType": "uint256",
          "name": "x",
          "type": "uint256"
        },
        {
          "internalType": "int256",
          "name": "y",
          "type": "int256"
        }
      ],
      "name": "Uint128x128Math__PowUnderflow",
      "type": "error"
    },
    {
      "inputs": [],
      "name": "Uint256x256Math__MulDivOverflow",
      "type": "error"
    },
    {
      "inputs": [],
      "name": "Uint256x256Math__MulShiftOverflow",
      "type": "error"
    },
    {
      "anonymous": false,
      "inputs": [
        {
          "indexed": true,
          "internalType": "address",
          "name": "account",
          "type": "address"
        },
        {
          "indexed": true,
          "internalType": "address",
          "name": "sender",
          "type": "address"
        },
        {
          "indexed": false,
          "internalType": "bool",
          "name": "approved",
          "type": "bool"
        }
      ],
      "name": "ApprovalForAll",
      "type": "event"
    },
    {
      "anonymous": false,
      "inputs": [
        {
          "indexed": true,
          "internalType": "address",
          "name": "feeRecipient",
          "type": "address"
        },
        {
          "indexed": false,
          "internalType": "bytes32",
          "name": "protocolFees",
          "type": "bytes32"
        }
      ],
      "name": "CollectedProtocolFees",
      "type": "event"
    },
    {
      "anonymous": false,
      "inputs": [
        {
          "indexed": true,
          "internalType": "address",
          "name": "sender",
          "type": "address"
        },
        {
          "indexed": false,
          "internalType": "uint24",
          "name": "id",
          "type": "uint24"
        },
        {
          "indexed": false,
          "internalType": "bytes32",
          "name": "totalFees",
          "type": "bytes32"
        },
        {
          "indexed": false,
          "internalType": "bytes32",
          "name": "protocolFees",
          "type": "bytes32"
        }
      ],
      "name": "CompositionFees",
      "type": "event"
    },
    {
      "anonymous": false,
      "inputs": [
        {
          "indexed": true,
          "internalType": "address",
          "name": "sender",
          "type": "address"
        },
        {
          "indexed": true,
          "internalType": "address",
          "name": "to",
          "type": "address"
        },
        {
          "indexed": false,
          "internalType": "uint256[]",
          "name": "ids",
          "type": "uint256[]"
        },
        {
          "indexed": false,
          "internalType": "bytes32[]",
          "name": "amounts",
          "type": "bytes32[]"
        }
      ],
      "name": "DepositedToBins",
      "type": "event"
    },
    {
      "anonymous": false,
      "inputs": [
        {
          "indexed": true,
          "internalType": "address",
          "name": "sender",
          "type": "address"
        },
        {
          "indexed": true,
          "internalType": "contract ILBFlashLoanCallback",
          "name": "receiver",
          "type": "address"
        },
        {
          "indexed": false,
          "internalType": "uint24",
          "name": "activeId",
          "type": "uint24"
        },
        {
          "indexed": false,
          "internalType": "bytes32",
          "name": "amounts",
          "type": "bytes32"
        },
        {
          "indexed": false,
          "internalType": "bytes32",
          "name": "totalFees",
          "type": "bytes32"
        },
        {
          "indexed": false,
          "internalType": "bytes32",
          "name": "protocolFees",
          "type": "bytes32"
        }
      ],
      "name": "FlashLoan",
      "type": "event"
    },
    {
      "anonymous": false,
      "inputs": [
        {
          "indexed": true,
          "internalType": "address",
          "name": "sender",
          "type": "address"
        },
        {
          "indexed": false,
          "internalType": "uint24",
          "name": "idReference",
          "type": "uint24"
        },
        {
          "indexed": false,
          "internalType": "uint24",
          "name": "volatilityReference",
          "type": "uint24"
        }
      ],
      "name": "ForcedDecay",
      "type": "event"
    },
    {
      "anonymous": false,
      "inputs": [
        {
          "indexed": true,
          "internalType": "address",
          "name": "sender",
          "type": "address"
        },
        {
          "indexed": false,
          "internalType": "bytes32",
          "name": "hooksParameters",
          "type": "bytes32"
        }
      ],
      "name": "HooksParametersSet",
      "type": "event"
    },
    {
      "anonymous": false,
      "inputs": [
        {
          "indexed": false,
          "internalType": "uint64",
          "name": "version",
          "type": "uint64"
        }
      ],
      "name": "Initialized",
      "type": "event"
    },
    {
      "anonymous": false,
      "inputs": [
        {
          "indexed": true,
          "internalType": "address",
          "name": "sender",
          "type": "address"
        },
        {
          "indexed": false,
          "internalType": "uint16",
          "name": "oracleLength",
          "type": "uint16"
        }
      ],
      "name": "OracleLengthIncreased",
      "type": "event"
    },
    {
      "anonymous": false,
      "inputs": [
        {
          "indexed": true,
          "internalType": "address",
          "name": "sender",
          "type": "address"
        },
        {
          "indexed": false,
          "internalType": "uint16",
          "name": "baseFactor",
          "type": "uint16"
        },
        {
          "indexed": false,
          "internalType": "uint16",
          "name": "filterPeriod",
          "type": "uint16"
        },
        {
          "indexed": false,
          "internalType": "uint16",
          "name": "decayPeriod",
          "type": "uint16"
        },
        {
          "indexed": false,
          "internalType": "uint16",
          "name": "reductionFactor",
          "type": "uint16"
        },
        {
          "indexed": false,
          "internalType": "uint24",
          "name": "variableFeeControl",
          "type": "uint24"
        },
        {
          "indexed": false,
          "internalType": "uint16",
          "name": "protocolShare",
          "type": "uint16"
        },
        {
          "indexed": false,
          "internalType": "uint24",
          "name": "maxVolatilityAccumulator",
          "type": "uint24"
        }
      ],
      "name": "StaticFeeParametersSet",
      "type": "event"
    },
    {
      "anonymous": false,
      "inputs": [
        {
          "indexed": true,
          "internalType": "address",
          "name": "sender",
          "type": "address"
        },
        {
          "indexed": true,
          "internalType": "address",
          "name": "to",
          "type": "address"
        },
        {
          "indexed": false,
          "internalType": "uint24",
          "name": "id",
          "type": "uint24"
        },
        {
          "indexed": false,
          "internalType": "bytes32",
          "name": "amountsIn",
          "type": "bytes32"
        },
        {
          "indexed": false,
          "internalType": "bytes32",
          "name": "amountsOut",
          "type": "bytes32"
        },
        {
          "indexed": false,
          "internalType": "uint24",
          "name": "volatilityAccumulator",
          "type": "uint24"
        },
        {
          "indexed": false,
          "internalType": "bytes32",
          "name": "totalFees",
          "type": "bytes32"
        },
        {
          "indexed": false,
          "internalType": "bytes32",
          "name": "protocolFees",
          "type": "bytes32"
        }
      ],
      "name": "Swap",
      "type": "event"
    },
    {
      "anonymous": false,
      "inputs": [
        {
          "indexed": true,
          "internalType": "address",
          "name": "sender",
          "type": "address"
        },
        {
          "indexed": true,
          "internalType": "address",
          "name": "from",
          "type": "address"
        },
        {
          "indexed": true,
          "internalType": "address",
          "name": "to",
          "type": "address"
        },
        {
          "indexed": false,
          "internalType": "uint256[]",
          "name": "ids",
          "type": "uint256[]"
        },
        {
          "indexed": false,
          "internalType": "uint256[]",
          "name": "amounts",
          "type": "uint256[]"
        }
      ],
      "name": "TransferBatch",
      "type": "event"
    },
    {
      "anonymous": false,
      "inputs": [
        {
          "indexed": true,
          "internalType": "address",
          "name": "sender",
          "type": "address"
        },
        {
          "indexed": true,
          "internalType": "address",
          "name": "to",
          "type": "address"
        },
        {
          "indexed": false,
          "internalType": "uint256[]",
          "name": "ids",
          "type": "uint256[]"
        },
        {
          "indexed": false,
          "internalType": "bytes32[]",
          "name": "amounts",
          "type": "bytes32[]"
        }
      ],
      "name": "WithdrawnFromBins",
      "type": "event"
    },
    {
      "inputs": [
        {
          "internalType": "address",
          "name": "spender",
          "type": "address"
        },
        {
          "internalType": "bool",
          "name": "approved",
          "type": "bool"
        }
      ],
      "name": "approveForAll",
      "outputs": [],
      "stateMutability": "nonpayable",
      "type": "function"
    },
    {
      "inputs": [
        {
          "internalType": "address",
          "name": "account",
          "type": "address"
        },
        {
          "internalType": "uint256",
          "name": "id",
          "type": "uint256"
        }
      ],
      "name": "balanceOf",
      "outputs": [
        {
          "internalType": "uint256",
          "name": "",
          "type": "uint256"
        }
      ],
      "stateMutability": "view",
      "type": "function"
    },
    {
      "inputs": [
        {
          "internalType": "address[]",
          "name": "accounts",
          "type": "address[]"
        },
        {
          "internalType": "uint256[]",
          "name": "ids",
          "type": "uint256[]"
        }
      ],
      "name": "balanceOfBatch",
      "outputs": [
        {
          "internalType": "uint256[]",
          "name": "batchBalances",
          "type": "uint256[]"
        }
      ],
      "stateMutability": "view",
      "type": "function"
    },
    {
      "inputs": [
        {
          "internalType": "address",
          "name": "from",
          "type": "address"
        },
        {
          "internalType": "address",
          "name": "to",
          "type": "address"
        },
        {
          "internalType": "uint256[]",
          "name": "ids",
          "type": "uint256[]"
        },
        {
          "internalType": "uint256[]",
          "name": "amounts",
          "type": "uint256[]"
        }
      ],
      "name": "batchTransferFrom",
      "outputs": [],
      "stateMutability": "nonpayable",
      "type": "function"
    },
    {
      "inputs": [
        {
          "internalType": "address",
          "name": "from",
          "type": "address"
        },
        {
          "internalType": "address",
          "name": "to",
          "type": "address"
        },
        {
          "internalType": "uint256[]",
          "name": "ids",
          "type": "uint256[]"
        },
        {
          "internalType": "uint256[]",
          "name": "amountsToBurn",
          "type": "uint256[]"
        }
      ],
      "name": "burn",
      "outputs": [
        {
          "internalType": "bytes32[]",
          "name": "amounts",
          "type": "bytes32[]"
        }
      ],
      "stateMutability": "nonpayable",
      "type": "function"
    },
    {
      "inputs": [],
      "name": "collectProtocolFees",
      "outputs": [
        {
          "internalType": "bytes32",
          "name": "collectedProtocolFees",
          "type": "bytes32"
        }
      ],
      "stateMutability": "nonpayable",
      "type": "function"
    },
    {
      "inputs": [
        {
          "internalType": "contract ILBFlashLoanCallback",
          "name": "receiver",
          "type": "address"
        },
        {
          "internalType": "bytes32",
          "name": "amounts",
          "type": "bytes32"
        },
        {
          "internalType": "bytes",
          "name": "data",
          "type": "bytes"
        }
      ],
      "name": "flashLoan",
      "outputs": [],
      "stateMutability": "nonpayable",
      "type": "function"
    },
    {
      "inputs": [],
      "name": "forceDecay",
      "outputs": [],
      "stateMutability": "nonpayable",
      "type": "function"
    },
    {
      "inputs": [],
      "name": "getActiveId",
      "outputs": [
        {
          "internalType": "uint24",
          "name": "activeId",
          "type": "uint24"
        }
      ],
      "stateMutability": "view",
      "type": "function"
    },
    {
      "inputs": [
        {
          "internalType": "uint24",
          "name": "id",
          "type": "uint24"
        }
      ],
      "name": "getBin",
      "outputs": [
        {
          "internalType": "uint128",
          "name": "binReserveX",
          "type": "uint128"
        },
        {
          "internalType": "uint128",
          "name": "binReserveY",
          "type": "uint128"
        }
      ],
      "stateMutability": "view",
      "type": "function"
    },
    {
      "inputs": [],
      "name": "getBinStep",
      "outputs": [
        {
          "internalType": "uint16",
          "name": "",
          "type": "uint16"
        }
      ],
      "stateMutability": "view",
      "type": "function"
    },
    {
      "inputs": [],
      "name": "getFactory",
      "outputs": [
        {
          "internalType": "contract ILBFactory",
          "name": "factory",
          "type": "address"
        }
      ],
      "stateMutability": "view",
      "type": "function"
    },
    {
      "inputs": [
        {
          "internalType": "uint256",
          "name": "price",
          "type": "uint256"
        }
      ],
      "name": "getIdFromPrice",
      "outputs": [
        {
          "internalType": "uint24",
          "name": "id",
          "type": "uint24"
        }
      ],
      "stateMutability": "view",
      "type": "function"
    },
    {
      "inputs": [],
      "name": "getLBHooksParameters",
      "outputs": [
        {
          "internalType": "bytes32",
          "name": "",
          "type": "bytes32"
        }
      ],
      "stateMutability": "view",
      "type": "function"
    },
    {
      "inputs": [
        {
          "internalType": "bool",
          "name": "swapForY",
          "type": "bool"
        },
        {
          "internalType": "uint24",
          "name": "id",
          "type": "uint24"
        }
      ],
      "name": "getNextNonEmptyBin",
      "outputs": [
        {
          "internalType": "uint24",
          "name": "nextId",
          "type": "uint24"
        }
      ],
      "stateMutability": "view",
      "type": "function"
    },
    {
      "inputs": [],
      "name": "getOracleParameters",
      "outputs": [
        {
          "internalType": "uint8",
          "name": "sampleLifetime",
          "type": "uint8"
        },
        {
          "internalType": "uint16",
          "name": "size",
          "type": "uint16"
        },
        {
          "internalType": "uint16",
          "name": "activeSize",
          "type": "uint16"
        },
        {
          "internalType": "uint40",
          "name": "lastUpdated",
          "type": "uint40"
        },
        {
          "internalType": "uint40",
          "name": "firstTimestamp",
          "type": "uint40"
        }
      ],
      "stateMutability": "view",
      "type": "function"
    },
    {
      "inputs": [
        {
          "internalType": "uint40",
          "name": "lookupTimestamp",
          "type": "uint40"
        }
      ],
      "name": "getOracleSampleAt",
      "outputs": [
        {
          "internalType": "uint64",
          "name": "cumulativeId",
          "type": "uint64"
        },
        {
          "internalType": "uint64",
          "name": "cumulativeVolatility",
          "type": "uint64"
        },
        {
          "internalType": "uint64",
          "name": "cumulativeBinCrossed",
          "type": "uint64"
        }
      ],
      "stateMutability": "view",
      "type": "function"
    },
    {
      "inputs": [
        {
          "internalType": "uint24",
          "name": "id",
          "type": "uint24"
        }
      ],
      "name": "getPriceFromId",
      "outputs": [
        {
          "internalType": "uint256",
          "name": "price",
          "type": "uint256"
        }
      ],
      "stateMutability": "view",
      "type": "function"
    },
    {
      "inputs": [],
      "name": "getProtocolFees",
      "outputs": [
        {
          "internalType": "uint128",
          "name": "protocolFeeX",
          "type": "uint128"
        },
        {
          "internalType": "uint128",
          "name": "protocolFeeY",
          "type": "uint128"
        }
      ],
      "stateMutability": "view",
      "type": "function"
    },
    {
      "inputs": [],
      "name": "getReserves",
      "outputs": [
        {
          "internalType": "uint128",
          "name": "reserveX",
          "type": "uint128"
        },
        {
          "internalType": "uint128",
          "name": "reserveY",
          "type": "uint128"
        }
      ],
      "stateMutability": "view",
      "type": "function"
    },
    {
      "inputs": [],
      "name": "getStaticFeeParameters",
      "outputs": [
        {
          "internalType": "uint16",
          "name": "baseFactor",
          "type": "uint16"
        },
        {
          "internalType": "uint16",
          "name": "filterPeriod",
          "type": "uint16"
        },
        {
          "internalType": "uint16",
          "name": "decayPeriod",
          "type": "uint16"
        },
        {
          "internalType": "uint16",
          "name": "reductionFactor",
          "type": "uint16"
        },
        {
          "internalType": "uint24",
          "name": "variableFeeControl",
          "type": "uint24"
        },
        {
          "internalType": "uint16",
          "name": "protocolShare",
          "type": "uint16"
        },
        {
          "internalType": "uint24",
          "name": "maxVolatilityAccumulator",
          "type": "uint24"
        }
      ],
      "stateMutability": "view",
      "type": "function"
    },
    {
      "inputs": [
        {
          "internalType": "uint128",
          "name": "amountOut",
          "type": "uint128"
        },
        {
          "internalType": "bool",
          "name": "swapForY",
          "type": "bool"
        }
      ],
      "name": "getSwapIn",
      "outputs": [
        {
          "internalType": "uint128",
          "name": "amountIn",
          "type": "uint128"
        },
        {
          "internalType": "uint128",
          "name": "amountOutLeft",
          "type": "uint128"
        },
        {
          "internalType": "uint128",
          "name": "fee",
          "type": "uint128"
        }
      ],
      "stateMutability": "view",
      "type": "function"
    },
    {
      "inputs": [
        {
          "internalType": "uint128",
          "name": "amountIn",
          "type": "uint128"
        },
        {
          "internalType": "bool",
          "name": "swapForY",
          "type": "bool"
        }
      ],
      "name": "getSwapOut",
      "outputs": [
        {
          "internalType": "uint128",
          "name": "amountInLeft",
          "type": "uint128"
        },
        {
          "internalType": "uint128",
          "name": "amountOut",
          "type": "uint128"
        },
        {
          "internalType": "uint128",
          "name": "fee",
          "type": "uint128"
        }
      ],
      "stateMutability": "view",
      "type": "function"
    },
    {
      "inputs": [],
      "name": "getTokenX",
      "outputs": [
        {
          "internalType": "contract IERC20",
          "name": "tokenX",
          "type": "address"
        }
      ],
      "stateMutability": "view",
      "type": "function"
    },
    {
      "inputs": [],
      "name": "getTokenY",
      "outputs": [
        {
          "internalType": "contract IERC20",
          "name": "tokenY",
          "type": "address"
        }
      ],
      "stateMutability": "view",
      "type": "function"
    },
    {
      "inputs": [],
      "name": "getVariableFeeParameters",
      "outputs": [
        {
          "internalType": "uint24",
          "name": "volatilityAccumulator",
          "type": "uint24"
        },
        {
          "internalType": "uint24",
          "name": "volatilityReference",
          "type": "uint24"
        },
        {
          "internalType": "uint24",
          "name": "idReference",
          "type": "uint24"
        },
        {
          "internalType": "uint40",
          "name": "timeOfLastUpdate",
          "type": "uint40"
        }
      ],
      "stateMutability": "view",
      "type": "function"
    },
    {
      "inputs": [
        {
          "internalType": "uint16",
          "name": "newLength",
          "type": "uint16"
        }
      ],
      "name": "increaseOracleLength",
      "outputs": [],
      "stateMutability": "nonpayable",
      "type": "function"
    },
    {
      "inputs": [
        {
          "internalType": "uint16",
          "name": "baseFactor",
          "type": "uint16"
        },
        {
          "internalType": "uint16",
          "name": "filterPeriod",
          "type": "uint16"
        },
        {
          "internalType": "uint16",
          "name": "decayPeriod",
          "type": "uint16"
        },
        {
          "internalType": "uint16",
          "name": "reductionFactor",
          "type": "uint16"
        },
        {
          "internalType": "uint24",
          "name": "variableFeeControl",
          "type": "uint24"
        },
        {
          "internalType": "uint16",
          "name": "protocolShare",
          "type": "uint16"
        },
        {
          "internalType": "uint24",
          "name": "maxVolatilityAccumulator",
          "type": "uint24"
        },
        {
          "internalType": "uint24",
          "name": "activeId",
          "type": "uint24"
        }
      ],
      "name": "initialize",
      "outputs": [],
      "stateMutability": "nonpayable",
      "type": "function"
    },
    {
      "inputs": [
        {
          "internalType": "address",
          "name": "owner",
          "type": "address"
        },
        {
          "internalType": "address",
          "name": "spender",
          "type": "address"
        }
      ],
      "name": "isApprovedForAll",
      "outputs": [
        {
          "internalType": "bool",
          "name": "",
          "type": "bool"
        }
      ],
      "stateMutability": "view",
      "type": "function"
    },
    {
      "inputs": [
        {
          "internalType": "address",
          "name": "to",
          "type": "address"
        },
        {
          "internalType": "bytes32[]",
          "name": "liquidityConfigs",
          "type": "bytes32[]"
        },
        {
          "internalType": "address",
          "name": "refundTo",
          "type": "address"
        }
      ],
      "name": "mint",
      "outputs": [
        {
          "internalType": "bytes32",
          "name": "amountsReceived",
          "type": "bytes32"
        },
        {
          "internalType": "bytes32",
          "name": "amountsLeft",
          "type": "bytes32"
        },
        {
          "internalType": "uint256[]",
          "name": "liquidityMinted",
          "type": "uint256[]"
        }
      ],
      "stateMutability": "nonpayable",
      "type": "function"
    },
    {
      "inputs": [],
      "name": "name",
      "outputs": [
        {
          "internalType": "string",
          "name": "",
          "type": "string"
        }
      ],
      "stateMutability": "view",
      "type": "function"
    },
    {
      "inputs": [
        {
          "internalType": "bytes32",
          "name": "hooksParameters",
          "type": "bytes32"
        },
        {
          "internalType": "bytes",
          "name": "onHooksSetData",
          "type": "bytes"
        }
      ],
      "name": "setHooksParameters",
      "outputs": [],
      "stateMutability": "nonpayable",
      "type": "function"
    },
    {
      "inputs": [
        {
          "internalType": "uint16",
          "name": "baseFactor",
          "type": "uint16"
        },
        {
          "internalType": "uint16",
          "name": "filterPeriod",
          "type": "uint16"
        },
        {
          "internalType": "uint16",
          "name": "decayPeriod",
          "type": "uint16"
        },
        {
          "internalType": "uint16",
          "name": "reductionFactor",
          "type": "uint16"
        },
        {
          "internalType": "uint24",
          "name": "variableFeeControl",
          "type": "uint24"
        },
        {
          "internalType": "uint16",
          "name": "protocolShare",
          "type": "uint16"
        },
        {
          "internalType": "uint24",
          "name": "maxVolatilityAccumulator",
          "type": "uint24"
        }
      ],
      "name": "setStaticFeeParameters",
      "outputs": [],
      "stateMutability": "nonpayable",
      "type": "function"
    },
    {
      "inputs": [
        {
          "internalType": "bool",
          "name": "swapForY",
          "type": "bool"
        },
        {
          "internalType": "address",
          "name": "to",
          "type": "address"
        }
      ],
      "name": "swap",
      "outputs": [
        {
          "internalType": "bytes32",
          "name": "amountsOut",
          "type": "bytes32"
        }
      ],
      "stateMutability": "nonpayable",
      "type": "function"
    },
    {
      "inputs": [],
      "name": "symbol",
      "outputs": [
        {
          "internalType": "string",
          "name": "",
          "type": "string"
        }
      ],
      "stateMutability": "view",
      "type": "function"
    },
    {
      "inputs": [
        {
          "internalType": "uint256",
          "name": "id",
          "type": "uint256"
        }
      ],
      "name": "totalSupply",
      "outputs": [
        {
          "internalType": "uint256",
          "name": "",
          "type": "uint256"
        }
      ],
      "stateMutability": "view",
      "type": "function"
    }
  ],
  "bytecode": {
    "object": "0x60a06040523480156200001157600080fd5b506040516200666b3803806200666b833981016040819052620000349162000106565b6001600160a01b0381166080526200004b62000052565b5062000138565b7ff0c57e16840df040f15088dc2f81fe391c3923bec73e23a9662efc9c229c6a00805468010000000000000000900460ff1615620000a35760405163f92ee8a960e01b815260040160405180910390fd5b80546001600160401b0390811614620001035780546001600160401b0319166001600160401b0390811782556040519081527fc7f505b2f371ae2175ee4913f4499e1f2633a7b5936321eed1cdaeb6115181d29060200160405180910390a15b50565b6000602082840312156200011957600080fd5b81516001600160a01b03811681146200013157600080fd5b9392505050565b608051616502620001696000396000818161048d0152818161159b0152818161241601526138f301526165026000f3fe608060405234801561001057600080fd5b506004361061025b5760003560e01c80638940a16a11610145578063d3b9fbe4116100bd578063e584b6541161008c578063e985e9c511610071578063e985e9c51461062a578063ea3446bf1461064d578063f5e293291461066057600080fd5b8063e584b65414610604578063e77366f81461061757600080fd5b8063d3b9fbe4146105e4578063d8dfcea0146105ec578063da10610c146105f4578063dbe65edc146105fc57600080fd5b8063a41a01fb11610114578063bd85b039116100f9578063bd85b0391461059e578063c7bd6586146105be578063c9939f5e146105d157600080fd5b8063a41a01fb1461053a578063abcd78301461056157600080fd5b80638940a16a146104b15780638d7024e5146104ef57806395d89b411461052a578063a1af5b9a1461053257600080fd5b806347973bff116101d857806355182894116101a7578063781a89151161018c578063781a89151461042f5780637ca0de301461043957806388cc58e41461048b57600080fd5b806355182894146103d75780636653851a1461041c57600080fd5b806347973bff1461037e5780634c7cffbd146103915780634e1273f4146103a457806353c059a0146103c457600080fd5b80630abe96881161022f57806317fad7fc1161021457806317fad7fc146103345780631b057f6d14610349578063383d15c51461035c57600080fd5b80630abe9688146102e357806317f11ecc1461031957600080fd5b8062fdd58e1461026057806305e8746d1461028657806306fdde03146102a65780630902f1ac146102bb575b600080fd5b61027361026e3660046157ba565b610673565b6040519081526020015b60405180910390f35b61028e61069c565b6040516001600160a01b03909116815260200161027d565b6102ae6106b9565b60405161027d919061580a565b6102c361074d565b604080516001600160801b0393841681529290911660208301520161027d565b6102c36102f1366004615850565b62ffffff166000908152600660205260409020546001600160801b0381169160809190911c90565b610321610787565b60405161ffff909116815260200161027d565b6103476103423660046158b0565b6107b1565b005b610347610357366004615987565b61080c565b61036f61036a3660046159d3565b61092b565b60405161027d93929190615a76565b61034761038c366004615aa7565b610bcd565b61027361039f366004615850565b610e91565b6103b76103b2366004615b3e565b610eca565b60405161027d9190615baa565b6102736103d2366004615bcd565b610fa0565b6103df6112f4565b6040805160ff909616865261ffff9485166020870152939092169284019290925264ffffffffff918216606084015216608082015260a00161027d565b61034761042a366004615c04565b61139e565b6201000954610273565b6104416113d7565b6040805161ffff9889168152968816602088015294871694860194909452918516606085015262ffffff9081166080850152931660a08301529190911660c082015260e00161027d565b7f000000000000000000000000000000000000000000000000000000000000000061028e565b6104c46104bf366004615c8a565b61143f565b6040805167ffffffffffffffff9485168152928416602084015292169181019190915260600161027d565b6104f761153e565b6040805162ffffff95861681529385166020850152919093169082015264ffffffffff909116606082015260800161027d565b6102ae61157e565b61027361158f565b61054d610548366004615cb1565b611755565b60405162ffffff909116815260200161027d565b61057461056f366004615cdb565b611768565b604080516001600160801b039485168152928416602084015292169181019190915260600161027d565b6102736105ac366004615d13565b60009081526001602052604090205490565b6103476105cc366004615d2c565b611916565b6103b76105df3660046158b0565b6119ac565b610347611ce4565b6102c3611d78565b61028e611d93565b61054d611dab565b610347610612366004615d47565b611db8565b610574610625366004615cdb565b611dc7565b61063d610638366004615d65565b611f16565b604051901515815260200161027d565b61034761065b366004615d83565b611f22565b61054d61066e366004615d13565b612220565b6001600160a01b0382166000908152602081815260408083208484529091529020545b92915050565b60006106b460008051602061648d8339815191525490565b905090565b60606201000a80546106ca90615dd3565b80601f01602080910402602001604051908101604052809291908181526020018280546106f690615dd3565b80156107435780601f1061071857610100808354040283529160200191610743565b820191906000526020600020905b81548152906001019060200180831161072657829003601f168201915b5050505050905090565b60008061077e61076a60055460045461225490919063ffffffff16565b6001600160801b0381169160809190911c90565b90939092509050565b60006106b47fff057b3b4d4500dda208cde5d654db7aa2ec63ac10ab9f9956a1f569738427825490565b6107b961228e565b62010009546107ce81338989898989896122c6565b6107dc878787878787612366565b6107f360016000805160206164ad83398151915255565b61080381338989898989896123c4565b50505050505050565b61081461228e565b61081c61240b565b62010009839055604080518481529051849133917f4d24d81a1a6e09c37497747b4c9d67d858ce80438b54df0fa361a24dc742d9349181900360200190a26001600160a01b038116158015906108e55750306001600160a01b0316816001600160a01b0316635f9c01b16040518163ffffffff1660e01b8152600401602060405180830381865afa1580156108b5573d6000803e3d6000fd5b505050506040513d601f19601f820116820180604052508101906108d99190615e07565b6001600160a01b031614155b1561090357604051631b5de6eb60e01b815260040160405180910390fd5b61090e848484612454565b5061092660016000805160206164ad83398151915255565b505050565b60008060608661093a8161247b565b61094261228e565b60008690036109645760405163296db0d960e01b815260040160405180910390fd5b62010009546040805160608101909152600090808967ffffffffffffffff81111561099157610991615e24565b6040519080825280602002602001820160405280156109ba578160200160208202803683370190505b5081526020018967ffffffffffffffff8111156109d9576109d9615e24565b604051908082528060200260200182016040528015610a02578160200160208202803683370190505b5081526020018967ffffffffffffffff811115610a2157610a21615e24565b604051908082528060200260200182016040528015610a4a578160200160208202803683370190505b509052600454909150610a84610a6c60008051602061648d8339815191525490565b60008051602061646d833981519152548391906124b7565b9650610a9483338d8d8d8c6124f7565b610aa18a8a898e86612541565b9550610ab7610ab08888612254565b829061267f565b600455604080830151835191519096506001600160a01b038d169160009133917f4a39dc06d4c0dbc64b70af90fd698a233a518aa5d07e595d983b8c0526c8f7fb91610b0591908b90615e3a565b60405180910390a4815160208301516040516001600160a01b038e169233927f87f1f9dcf5e8089a3e00811b6a008d8f30293a3da878cb1fe8c90ca376402f8a92610b51929190615e3a565b60405180910390a38515610b9157610b91610b7860008051602061648d8339815191525490565b60008051602061646d833981519152548891908b6126b9565b610ba860016000805160206164ad83398151915255565b610bbf83338d8d8d610bba8d8d612254565b612717565b505050509450945094915050565b610bd561240b565b7ff0c57e16840df040f15088dc2f81fe391c3923bec73e23a9662efc9c229c6a00805468010000000000000000810460ff16159067ffffffffffffffff16600081158015610c205750825b905060008267ffffffffffffffff166001148015610c3d5750303b155b905081158015610c4b575080155b15610c695760405163f92ee8a960e01b815260040160405180910390fd5b845467ffffffffffffffff191660011785558315610c9d57845468ff00000000000000001916680100000000000000001785555b610ca5612759565b610cd1610cc5610cc08860035461276990919063ffffffff16565b6127b8565b8e8e8e8e8e8e8e61280c565b6000610ce960008051602061648d8339815191525490565b6001600160a01b03166395d89b416040518163ffffffff1660e01b8152600401600060405180830381865afa158015610d26573d6000803e3d6000fd5b505050506040513d6000823e601f3d908101601f19168201604052610d4e9190810190615e5f565b90506000610d6860008051602061646d8339815191525490565b6001600160a01b03166395d89b416040518163ffffffff1660e01b8152600401600060405180830381865afa158015610da5573d6000803e3d6000fd5b505050506040513d6000823e601f3d908101601f19168201604052610dcd9190810190615e5f565b90508181604051602001610de2929190615f01565b6040516020818303038152906040526201000a9081610e019190615fae565b508181604051602001610e1592919061606e565b6040516020818303038152906040526201000b9081610e349190615fae565b5050508315610e8257845468ff000000000000000019168555604051600181527fc7f505b2f371ae2175ee4913f4499e1f2633a7b5936321eed1cdaeb6115181d29060200160405180910390a15b50505050505050505050505050565b6000610696610ebe7fff057b3b4d4500dda208cde5d654db7aa2ec63ac10ab9f9956a1f569738427825490565b62ffffff84169061299c565b60608382610ed882826129d3565b8567ffffffffffffffff811115610ef157610ef1615e24565b604051908082528060200260200182016040528015610f1a578160200160208202803683370190505b50925060005b86811015610f9557610f70888883818110610f3d57610f3d6160ba565b9050602002016020810190610f5291906160d0565b878784818110610f6457610f646160ba565b90506020020135610673565b848281518110610f8257610f826160ba565b6020908102919091010152600101610f20565b505050949350505050565b6000610faa61228e565b6201000954600454600554600086610fe157610fdc610fd560008051602061646d8339815191525490565b84906129f3565b611001565b611001610ffa60008051602061648d8339815191525490565b8490612a28565b9050600081900361102557604051637df801c760e01b815260040160405180910390fd5b866110338533898486612a57565b61103d848361267f565b600354909450600061106d7fff057b3b4d4500dda208cde5d654db7aa2ec63ac10ab9f9956a1f569738427825490565b9050600061107a83612abb565b90506110868342612ac7565b92505b62ffffff81166000908152600660205260409020546110a9818615612b3d565b6111cd576110b78483612b6c565b9350600080806110cb8488888b898e612bf4565b9194509250905082156111c9576110e28984612254565b98506110ee8d8361267f565b9c5060006111096110fe89612e1a565b839061ffff16612e2a565b9050801561112a5761111b8b8261267f565b9a506111278482612254565b93505b61113e83611138878761267f565b90612254565b62ffffff87166000908152600660205260409020556001600160a01b038f16337fad7d6f97abf51ce18e17a38f4d70e975be9c0708474987bb3e26ad21bd93ca7088878761118b8e612ea0565b6040805162ffffff9586168152602081019490945283019190915290911660608201526080810186905260a0810185905260c00160405180910390a3505b5050505b60008690036111dc5750611226565b60006111e88684612eb1565b905062ffffff81161580611200575062ffffff818116145b1561121e57604051631a6d7fb160e31b815260040160405180910390fd5b915050611089565b60008990036112485760405163439df85d60e11b815260040160405180910390fd5b611252878a612254565b6004556005869055611266600a8483612ed3565b92506112728382612769565b60035583156112a15761129c61129460008051602061646d8339815191525490565b8a908c612fee565b6112c2565b6112c26112ba60008051602061648d8339815191525490565b8a908c61302e565b6112d960016000805160206164ad83398151915255565b6112e688338c878d61303f565b505050505050505092915050565b6003546078906000908190819081908161130d8261309c565b905061ffff811615611395576000611326600a836130ac565b965090506113338161310a565b965061133e81613116565b94508464ffffffffff1660000361135457600095505b61ffff861615611393576113858661ffff168361ffff1681611378576113786160ed565b600a916001910601613137565b905061139081613116565b93505b505b50509091929394565b6113a661228e565b6113ae61240b565b6113c06003548888888888888861280c565b61080360016000805160206164ad83398151915255565b60008060008060008060008060035490506113f18161310a565b97506113fc81613167565b965061140781613177565b955061141281613187565b945061141d81613197565b935061142881612e1a565b9250611433816131a8565b91505090919293949596565b600080600080600354905060006114558261309c565b905061ffff8116158061146e5750428664ffffffffff16115b156114855760008060009450945094505050611537565b6000611493600a83896131b9565b91985096509450905064ffffffffff8088169082161015611533576114c96114ba84612abb565b849064ffffffffff8a166132dc565b925060006114d78289616119565b90508064ffffffffff166114ea85612abb565b62ffffff166114f99190616137565b6115039088616163565b96508064ffffffffff1661151685612ea0565b62ffffff166115259190616137565b61152f9087616163565b9550505b5050505b9193909250565b6000806000806000600354905061155481612ea0565b945061155f816132f4565b935061156a81613305565b925061157581613316565b91505090919293565b60606201000b80546106ca90615dd3565b600061159961228e565b7f00000000000000000000000000000000000000000000000000000000000000006001600160a01b0316634ccb20c06040518163ffffffff1660e01b8152600401602060405180830381865afa1580156115f7573d6000803e3d6000fd5b505050506040513d601f19601f8201168201806040525081019061161b9190615e07565b6001600160a01b0316336001600160a01b03161461164c57604051630f8937c560e21b815260040160405180910390fd5b6005546001600160801b038116608082901c60006116a78261166f576000611672565b60015b60ff166000856001600160801b03161161168d576000611690565b60015b60ff169060801b6001600160801b03919091161790565b90506116b38482612254565b945084156117375760058190556004546116cd9086612254565b60045560405185815233907f3f41a5ddc53701cc7db577ade4f1fca9838a8ec0b5ea50b9f0f5d17bc4554e329060200160405180910390a261173761171e60008051602061648d8339815191525490565b60008051602061646d83398151915254879190336126b9565b5050505061175260016000805160206164ad83398151915255565b90565b60006117618383612eb1565b9392505050565b600354600090839082908161179b7fff057b3b4d4500dda208cde5d654db7aa2ec63ac10ab9f9956a1f569738427825490565b905060006117a883612abb565b90506117b48342612ac7565b92505b62ffffff81166000908152600660205260408120546117d7908915613329565b90506001600160801b038116156118bd5760006117f962ffffff84168561299c565b90506000876001600160801b0316836001600160801b03161161181c578261181e565b875b905061182a8685612b6c565b955060008a61184d576118486001600160801b038316846080613349565b611862565b6118626001600160801b03831660808561337f565b9050600061187088886133b5565b905060006118876001600160801b038416836133d4565b90506118938184616184565b61189d908d616184565b9b506118a9848c6161a4565b9a506118b5818b616184565b995050505050505b856001600160801b03166000036118d4575061190c565b60006118e08984612eb1565b905062ffffff811615806118f8575062ffffff818116145b1561190457505061190c565b9150506117b7565b5050509250925092565b61191e61228e565b600354600061192c8261309c565b90508061ffff1660000361194b57506001611947828261341d565b6003555b611957600a828561346c565b60405161ffff8416815233907fc975541e72d695746a43ba65745d79963a23082637c8f4609354d9bcf70194d69060200160405180910390a250506119a960016000805160206164ad83398151915255565b50565b606086336119ba8282613555565b6119ef5760405163548f773d60e01b81526001600160a01b038084166004830152821660248201526044015b60405180910390fd5b6119f761228e565b851580611a045750858414155b15611a2257604051633ab7870760e01b815260040160405180910390fd5b6201000954611a3781338c8c8c8c8c8c6135a1565b898767ffffffffffffffff811115611a5157611a51615e24565b604051908082528060200260200182016040528015611a7a578160200160208202803683370190505b5094506000805b89811015611bce576000611aac8c8c84818110611aa057611aa06160ba565b905060200201356135e7565b905060008a8a84818110611ac257611ac26160ba565b90506020020135905080600003611af357604051636996a92560e01b815262ffffff831660048201526024016119e6565b62ffffff82166000818152600660209081526040808320546001909252909120549091611b2290889085613612565b6000611b2f838584613693565b90506000819003611b5a5760405163fd44792960e01b815262ffffff861660048201526024016119e6565b611b648382612254565b9250838203611b7a57611b7860078661370b565b505b62ffffff851660009081526006602052604090208390558b5181908d9088908110611ba757611ba76160ba565b6020908102919091010152611bbc878261267f565b96508560010195505050505050611a81565b50600454611bdc9082612254565b6004556040516000906001600160a01b0384169033907f4a39dc06d4c0dbc64b70af90fd698a233a518aa5d07e595d983b8c0526c8f7fb90611c25908f908f908f908f9061620f565b60405180910390a48a6001600160a01b0316336001600160a01b03167fa32e146844d6144a22e94c586715a1317d58a8aa3581ec33d040113ddcb243508c8c8a604051611c7493929190616236565b60405180910390a3611cae611c9560008051602061648d8339815191525490565b60008051602061646d833981519152548391908e6126b9565b611cc560016000805160206164ad83398151915255565b611cd58333848e8e8e8e8e6137ad565b50505050509695505050505050565b611cec61228e565b611cf461240b565b600354611d08611d03826127b8565b6137f3565b600355337f282afaeeae84c1d85ad1424a3aa2ddbedaeefca3b1e53d889d15265fe44db7fc611d3683613305565b611d3f846132f4565b6040805162ffffff93841681529290911660208301520160405180910390a250611d7660016000805160206164ad83398151915255565b565b60055460009081906001600160801b0381169060801c61077e565b60006106b460008051602061646d8339815191525490565b60006106b4600354612abb565b611dc3338383613828565b5050565b6000808080611ddf6001600160801b038716866138dd565b6003549091506000611e0f7fff057b3b4d4500dda208cde5d654db7aa2ec63ac10ab9f9956a1f569738427825490565b90506000611e1c83612abb565b9050611e288342612ac7565b92505b62ffffff8116600090815260066020526040902054611e4b818a15612b3d565b611eb857611e598483612b6c565b935060008080611e6d8488888f898d612bf4565b919450925090508215611eb457611e848884612254565b9750611e91828d15613329565b611e9b908b616184565b9950611ea7818d613329565b611eb1908a616184565b98505b5050505b6000859003611ec75750611eff565b6000611ed38a84612eb1565b905062ffffff81161580611eeb575062ffffff818116145b15611ef7575050611eff565b915050611e2b565b611f098489613329565b9650505050509250925092565b60006117618383613555565b611f2a61228e565b6000839003611f4c5760405163727ab02160e11b815260040160405180910390fd5b62010009546004546000611f5f866138ee565b9050611f6d833389896139f6565b611f9f611f8660008051602061648d8339815191525490565b60008051602061646d833981519152548891908a6126b9565b6000806001600160a01b038916631faa6b8760e01b33611fcb60008051602061648d8339815191525490565b60008051602061646d833981519152548c888d8d604051602401611ff59796959493929190616285565b60408051601f198184030181529181526020820180516001600160e01b03167fffffffff0000000000000000000000000000000000000000000000000000000090941693909317909252905161204b91906162c6565b6000604051808303816000865af19150503d8060008114612088576040519150601f19603f3d011682016040523d82523d6000602084013e61208d565b606091505b50915091508115806120a157508051602014155b806120df57507fab5c473bce5960a8292e9c8db82f9272504caab4e9ef09553fc112f82b62a3c2818060200190518101906120dc91906162e2565b14155b156120fd57604051634a57011360e01b815260040160405180910390fd5b600061213161211860008051602061648d8339815191525490565b60008051602061646d83398151915254600091906124b7565b9050612147612140868661267f565b8290613a4b565b1561216557604051630e3c717160e11b815260040160405180910390fd5b60006121718287612254565b6004839055600554909150612186908261267f565b6005556003546001600160a01b038c169033907fd126bd9d94daca8e55ffd8283fac05394aec8326c6b1639e1e8a445fbe8bbc7d906121c490612abb565b6040805162ffffff9092168252602082018f905281018590526060810185905260800160405180910390a361220660016000805160206164ad83398151915255565b61221387338d8885613a8f565b5050505050505050505050565b600061069661224d7fff057b3b4d4500dda208cde5d654db7aa2ec63ac10ab9f9956a1f569738427825490565b8390613aeb565b8082038281118061227057506001600160801b03808416908216115b156106965760405163e599af5560e01b815260040160405180910390fd5b6000805160206164ad8339815191528054600119016122c057604051633ee5aeb560e01b815260040160405180910390fd5b60029055565b750100000000000000000000000000000000000000000088161561235c5761235c886379c8ccf760e01b8989898989898960405160240161230d97969594939291906162fb565b60408051601f198184030181529190526020810180516001600160e01b03167fffffffff0000000000000000000000000000000000000000000000000000000090931692909217909152613b30565b5050505050505050565b85336123728282613555565b6123a25760405163548f773d60e01b81526001600160a01b038084166004830152821660248201526044016119e6565b61235c888888888888613b94565b60016000805160206164ad83398151915255565b750200000000000000000000000000000000000000000088161561235c5761235c886367ddb27860e01b8989898989898960405160240161230d97969594939291906162fb565b336001600160a01b037f00000000000000000000000000000000000000000000000000000000000000001614611d7657604051632486085360e01b815260040160405180910390fd5b82156109265761092683634e430b5a60e01b85858560405160240161230d93929190616351565b6001600160a01b038116158061249957506001600160a01b03811630145b156119a9576040516345c210e760e11b815260040160405180910390fd5b60006124ef846111386124c985613cf7565b6124d287613cf7565b6001600160801b03169060801b6001600160801b03919091161790565b949350505050565b741000000000000000000000000000000000000000008616156125395761253986630d4abdb360e01b878787878760405160240161230d95949392919061636b565b505050505050565b60008061256c7fff057b3b4d4500dda208cde5d654db7aa2ec63ac10ab9f9956a1f569738427825490565b600354909150600061257d82612abb565b905086935060005b88811015612672576000806125bb8a8d8d868181106125a6576125a66160ba565b90506020020135613d6690919063ffffffff16565b9150915060008060006125d1898886888c613daf565b919450925090506125e28a83612254565b99508362ffffff168b600001518781518110612600576126006160ba565b602002602001018181525050808b602001518781518110612623576126236160ba565b602002602001018181525050828b604001518781518110612646576126466160ba565b6020026020010181815250506126628c8562ffffff1685613fbd565b8560010195505050505050612585565b5050505095945050505050565b8181018281108061269b57506001600160801b03808416908216105b15610696576040516316692de960e01b815260040160405180910390fd5b6001600160801b038416608085901c81156126eb576126eb6001600160a01b038616846001600160801b03851661400a565b6001600160801b03811615612539576125396001600160a01b038516846001600160801b03841661400a565b742000000000000000000000000000000000000000008616156125395761253986637a51a4c660e01b878787878760405160240161230d95949392919061636b565b61276161405b565b611d766140a9565b60007cffffffffffffffffffffffffffffffffffffffffffffffffffffffffff83167fffffff000000000000000000000000000000000000000000000000000000000060e884901b1617611761565b6000806127c483612abb565b90507fffffffffffffffffffff000000ffffffffffffffffffffffffffffffffffffff831675ffffff00000000000000000000000000000000000000609883901b1617611761565b61ffff8716158015612820575061ffff8616155b801561282e575061ffff8516155b801561283c575061ffff8416155b801561284b575062ffffff8316155b8015612859575061ffff8216155b8015612868575062ffffff8116155b15612886576040516331375e0360e11b815260040160405180910390fd5b61289688888888888888886140b1565b975060006128c27fff057b3b4d4500dda208cde5d654db7aa2ec63ac10ab9f9956a1f569738427825490565b905060006128d08a846141ca565b905060006128de8284614228565b6128e88385614268565b6128f291906163aa565b905067016345785d8a000081111561291d576040516372db9c0b60e11b815260040160405180910390fd5b50505060038890556040805161ffff8981168252888116602083015287811682840152868116606083015262ffffff868116608084015290851660a0830152831660c0820152905133917fd09e5ddc721ff14c5c1e66a305cbba1fd70b82c5232bc391aad6f55e62e4b046919081900360e00190a25050505050505050565b600061271061ffff60801b608084901b1604600160801b0162ffffff8416627fffff19016129ca828261428c565b95945050505050565b808214611dc3576040516340311ffd60e11b815260040160405180910390fd5b600080612a008460801c90565b90506124ef81612a0f85613cf7565b612a1991906161a4565b6001600160801b031660801b90565b60006001600160801b0383166124ef81612a4185613cf7565b612a4b91906161a4565b6001600160801b031690565b74010000000000000000000000000000000000000000851615612ab4576040516001600160a01b03808616602483015284166044820152821515606482015260848101829052612ab490869063feee373560e01b9060a40161230d565b5050505050565b600060e882901c610696565b600080612ad384613316565b612ae49064ffffffffff16846163bd565b9050612aef84613167565b61ffff168110612b3357612b02846127b8565b9350612b0d84613177565b61ffff168110612b2757612b228460006144ec565b612b30565b612b30846137f3565b93505b6124ef848461455a565b600081612b5d57612b4e8360801c90565b6001600160801b031615611761565b50506001600160801b03161590565b600080612b7884613305565b62ffffff169050600080828562ffffff1611612b9b578462ffffff168303612ba4565b828562ffffff16035b91506127108202612bb4876132f4565b62ffffff160190506000612bc7876131a8565b62ffffff169050808211612bdb5781612bdd565b805b9150612be987836141ca565b979650505050505050565b6000808080612c0862ffffff87168961299c565b90506000612c178b8915613329565b9050600088612c4257612c3d612c386001600160801b038416856080613349565b6145b3565b612c5a565b612c5a612c386001600160801b03841660808661337f565b90506000612c688c8c6133b5565b90506000612c7f6001600160801b038416836133d4565b9050612c8b8184616184565b92506000612c998a8d613329565b9050600080856001600160801b0316836001600160801b031610612cc4575084915082905085612d3a565b612cd76001600160801b038416866145dd565b91506000612ce583856161a4565b6001600160801b031690508e612d0957612d04612c388260808c614614565b612d18565b612d18612c38828b608061463e565b9150876001600160801b0316826001600160801b03161115612d38578791505b505b8d612d7457612d52836001600160801b031660801b90565b6001600160801b038216612d6f846001600160801b031660801b90565b612d9c565b6001600160801b038316612d91826001600160801b031660801b90565b6001600160801b0384165b809b50819c50829d50505050505050505050507d09745258e83de0d0f4e400fce79aca44773dd596d31a6d336ca2a775b611612dee612de885611138888f61267f90919063ffffffff16565b836146ac565b1115612e0d5760405163a2d7652760e01b815260040160405180910390fd5b5096509650969350505050565b600061069682604e1c613fff1690565b6000816001600160801b0316600003612e4557506000610696565b6127106001600160801b038316811015612e7257604051631514a94960e21b815260040160405180910390fd5b6001600160801b03848116840282900490608086811c86028490049183169082901b175b9695505050505050565b60006106968260701c620fffff1690565b600082612ec857612ec36007836146c8565b611761565b611761600783614814565b600080612edf8461309c565b90508061ffff16600003612ef65783915050611761565b6000612f028683613137565b90506000612f0f82614944565b90506000612f1c83614950565b612f299060ff16836163d0565b90508064ffffffffff16612f3c4261495f565b64ffffffffff161115612fe2576000806000612f818464ffffffffff164203612f648c612abb565b612f6d8d612ea0565b612f778e8e614987565b8a939291906149b7565b9250925092506000612f928761310a565b905064ffffffffff861642036078811115612fc2575096879006600101964295506000612fbf8c8a61341d565b9b505b612fd082868686858c614a1c565b97505050505050612fe2888585614ac0565b50949695505050505050565b6000612ffa8460801c90565b90506001600160801b03811615613028576130286001600160a01b038416836001600160801b03841661400a565b50505050565b60006001600160801b038416612ffa565b74020000000000000000000000000000000000000000851615612ab4576040516001600160a01b03808616602483015284166044820152821515606482015260848101829052612ab49086906353e8079b60e01b9060a40161230d565b60006106968260d81c61ffff1690565b6000806130b98484613137565b91506130c48261310a565b90508061ffff168361ffff1614613103576130e76130e28583613137565b61310a565b90508061ffff168361ffff16116130fe5780613100565b825b90505b9250929050565b600061ffff8216610696565b600061312182614950565b60ff1661312d83614944565b61069691906163d0565b60008161314381614aed565b8361ffff6000198501811690811061315d5761315d6160ba565b0154949350505050565b60006106968260101c610fff1690565b600061069682601c1c610fff1690565b60006106968260281c613fff1690565b60006106968260361c62ffffff1690565b600061069682605c1c620fffff1690565b6000806000806000806131cc89896130ac565b909250905064ffffffffff87166132038a6131e7848c6163ee565b61ffff1661ffff81106131fc576131fc6160ba565b0154613116565b64ffffffffff16111561322957604051631c4e7f9560e21b815260040160405180910390fd5b61323282613116565b95508664ffffffffff168664ffffffffff1611613274578561325383614b12565b61325c84614b28565b61326585614b3e565b955095509550955050506132d3565b8695506000806132868b8b8b86614b54565b9150915060008961329683613116565b6132a09190616119565b905060006132ad84613116565b6132b7908c616119565b90506132c584848484614ca6565b919a50985096505050505050505b93509350935093565b60006132e88483612ac7565b93506124ef8484612b6c565b60006106968260841c620fffff1690565b60006106968260981c62ffffff1690565b60006106968260b01c64ffffffffff1690565b60008161333a57612ec38360801c90565b6001600160801b038316611761565b600061335684848461463e565b9050600160ff83161b8061336c5761336c6160ed565b83850915611761576124ef6001826163aa565b600061338c848484614614565b9050818061339c5761339c6160ed565b600160ff85161b850915611761576124ef6001826163aa565b60006117616133c48484614228565b6133ce8585614268565b016145b3565b6000816133e081614e0a565b6001600160801b03808416670de0b6b3a76400008190039182916000199188160282010181613411576134116160ed565b049250505b5092915050565b60007fffffff0000ffffffffffffffffffffffffffffffffffffffffffffffffffffff83167cffff00000000000000000000000000000000000000000000000000000060d884901b1617611761565b60006134788484613137565b905060006134858261310a565b90508261ffff168161ffff16106134af57604051632c57574160e21b815260040160405180910390fd5b60008461ffff168261ffff16146134e05761ffff8216156134d9576134d48683613137565b6134e2565b60006134e2565b825b905060006134ef8261310a565b61ffff169050808661ffff1611613506578061350c565b8561ffff165b905061ffff83165b8561ffff1681101561353e5781888261ffff8110613534576135346160ba565b0155600101613514565b50610803878761ffff868116881890891617614ac0565b6000816001600160a01b0316836001600160a01b031614806117615750506001600160a01b03918216600090815260026020908152604080832093909416825291909152205460ff1690565b7440000000000000000000000000000000000000000088161561235c5761235c8863ea9db9d360e01b8989898989898960405160240161230d97969594939291906162fb565b8062ffffff8116811461360d57604051639b63641560e01b815260040160405180910390fd5b919050565b6001600160a01b03831660009081526020818152604080832085845291829052909120548281101561366f57604051625b387760e31b81526001600160a01b038616600482015260248101859052604481018490526064016119e6565b60009384526001602090815260408086208054869003905592905292209103905550565b60006001600160801b038416608085901c828083156136c6576136c3612c38886001600160801b03871689614e3c565b91505b6001600160801b038316156136ef576136ec612c38886001600160801b03861689614e3c565b90505b608081901b6001600160801b0383161798975050505050505050565b61ffff600882901c166000818152600284016020526040812054909190600160ff85161b1981168082146137a157600083815260028701602052604081208290558190036137955750600882901c6000818152600187810160205260408220805460ff87169290921b19909116908190559190829003613793578654600160ff83161b191687555b505b60019350505050610696565b50600095945050505050565b7480000000000000000000000000000000000000000088161561235c5761235c8863fdc2725760e01b8989898989898960405160240161230d97969594939291906162fb565b6000806137ff83612ea0565b62ffffff169050600061381184613187565b61ffff169050612710828202046129ca85826144ec565b826138328161247b565b826001600160a01b0316846001600160a01b03160361386f5760405163782ee70760e01b81526001600160a01b03851660048201526024016119e6565b6001600160a01b03848116600081815260026020908152604080832094881680845294825291829020805460ff191687151590811790915591519182527f17307eab39ab6107e8899845ad3d59bd9653f200f220920489ca2b5937696c31910160405180910390a350505050565b60008161333a57612ec38360801b90565b6000807f00000000000000000000000000000000000000000000000000000000000000006001600160a01b031663fd90c2be6040518163ffffffff1660e01b8152600401602060405180830381865afa15801561394f573d6000803e3d6000fd5b505050506040513d601f19601f8201168201806040525081019061397391906162e2565b90506001600160801b0383811690608085901c90670de0b6b3a763ffff906139ac90670de0b6b3a7640000908616850283015b046145b3565b92506139de670de0b6b3a764000082866001600160801b0316856001600160801b03160201816139a6576139a66160ed565b915050608081901b6001600160801b038316176129ca565b74040000000000000000000000000000000000000000841615613028576040516001600160a01b038085166024830152831660448201526064810182905261302890859063505d903360e01b9060840161230d565b60006001600160801b0383811690608085811c9185169085901c81841080612be95750806001600160801b0316836001600160801b03161094505050505092915050565b74080000000000000000000000000000000000000000851615612ab4576040516001600160a01b038086166024830152841660448201526064810183905260848101829052612ab49086906360bed5f360e01b9060a40161230d565b600061271061ffff60801b608084901b1604600160801b0181613b0d82614e5c565b613b1686614e5c565b613b20919061640f565b90506129ca8162800000016135e7565b600080839050602083015160e01c602060008551602087016000865af192503d151583151615613b64573d6000803e3d6000fd5b8060005160e01c14601f3d111683169250508161302857604051636c93cb9b60e01b815260040160405180910390fd5b8281613ba082826129d3565b86613baa8161247b565b6001600160a01b03808a16600090815260208190526040808220928b1682528120905b88811015613c8e5760008a8a83818110613be957613be96160ba565b9050602002013590506000898984818110613c0657613c066160ba565b600085815260208981526040909120549102929092013592505081811015613c63578e83836040516358b4690f60e01b81526004016119e6939291906001600160a01b039390931683526020830191909152604082015260600190565b6000928352602086815260408085209284900390925585905290912080549091019055600101613bcd565b50896001600160a01b03168b6001600160a01b0316336001600160a01b03167f4a39dc06d4c0dbc64b70af90fd698a233a518aa5d07e595d983b8c0526c8f7fb8c8c8c8c604051613ce2949392919061620f565b60405180910390a45050505050505050505050565b6040516370a0823160e01b8152306004820152600090610696906001600160a01b038416906370a0823190602401602060405180830381865afa158015613d42573d6000803e3d6000fd5b505050506040513d601f19601f82011682018060405250810190612c3891906162e2565b6000806000806000613d7787614f69565b670de0b6b3a764000060808a811c90930281900490921b6001600160801b03998a169093029190910490971617979596505050505050565b62ffffff83166000818152600660205260408120549091829182918290613dd6908b61299c565b90506000613df58962ffffff1660009081526001602052604090205490565b9050613e038389848461500c565b909650945084935062ffffff808b16908a1603613f3b57613e25878a426132dc565b96506000613e3784898e89868c615192565b90508015613f35576000613e5584613e4f8985612254565b906146ac565b90506000613e70613e658b612e1a565b849061ffff16612e2a565b90508015613e9657613e828782612254565b600554909750613e92908261267f565b6005555b6000613eb086613e4f613ea98786612254565b8a9061267f565b9050613ebd838683614e3c565b9950613ecb600a8c8f612ed3565b9a508a600381905550336001600160a01b03167f3f0b46725027bb418b2005f4683538eccdbcdf1de2b8649a29dbd9c507d16ff48e8685604051613f299392919062ffffff9390931683526020830191909152604082015260600190565b60405180910390a25050505b50613f46565b613f46858b8b615287565b851580613f51575083155b15613f7657604051634c98d35760e11b815262ffffff8a1660048201526024016119e6565b80600003613f8b57613f8960078a6152ed565b505b613f95838561267f565b62ffffff90991660009081526006602052604090209890985550929891975095509350505050565b60008281526001602052604081208054839290613fdb9084906163aa565b90915550506001600160a01b039092166000908152602081815260408083209383529290522080549091019055565b604080516001600160a01b038416602482015260448082018490528251808303909101815260649091019091526020810180516001600160e01b031663a9059cbb60e01b179052613028848261537a565b7ff0c57e16840df040f15088dc2f81fe391c3923bec73e23a9662efc9c229c6a005468010000000000000000900460ff16611d7657604051631afcd79f60e31b815260040160405180910390fd5b6123b061405b565b60008561ffff168761ffff1611806140ce5750610fff8661ffff16115b806140de57506127108561ffff16115b806140ee57506109c48361ffff16115b806141005750620fffff8262ffffff16115b1561411e57604051631c07203f60e01b815260040160405180910390fd5b605c82901b6dfffff00000000000000000000000166dffffffffffffffffffffffffffff1991821661ffff8a1690811760108a901b630fff000016908117601c8a901b64fff00000001690811760288a901b663fff00000000001690811760368a901b693fffffc000000000000016908117604e8a901b6b0fffc000000000000000000016908117871797949095179092171717909117909117908a16175b9998505050505050505050565b6000620fffff8262ffffff1611156141f557604051631c07203f60e01b815260040160405180910390fd5b700fffff0000000000000000000000000000198316700fffff0000000000000000000000000000607084901b1617611761565b60008061423484613197565b62ffffff16905080156134165760008361ffff1661425186612ea0565b62ffffff1602905060646063828002840201613411565b60008161ffff166142788461310a565b61ffff16026402540be40002905092915050565b6000806000836000036142a85750600160801b91506106969050565b508260008112156142ba579015906000035b621000008110156144aa57600160801b9250846001600160801b038111156142e457911591600019045b60018216156142f55792830260801c925b800260801c600282161561430b5792830260801c925b800260801c60048216156143215792830260801c925b800260801c60088216156143375792830260801c925b800260801c601082161561434d5792830260801c925b800260801c60208216156143635792830260801c925b800260801c60408216156143795792830260801c925b8002608090811c908216156143905792830260801c925b800260801c6101008216156143a75792830260801c925b800260801c6102008216156143be5792830260801c925b800260801c6104008216156143d55792830260801c925b800260801c6108008216156143ec5792830260801c925b800260801c6110008216156144035792830260801c925b800260801c61200082161561441a5792830260801c925b800260801c6140008216156144315792830260801c925b800260801c6180008216156144485792830260801c925b800260801c620100008216156144605792830260801c925b800260801c620200008216156144785792830260801c925b800260801c620400008216156144905792830260801c925b800260801c620800008216156144a85792830260801c925b505b826000036144d557604051631dba598d60e11b815260048101869052602481018590526044016119e6565b816144e057826129ca565b6129ca8360001961643d565b6000620fffff8262ffffff16111561451757604051631c07203f60e01b815260040160405180910390fd5b7fffffffffffffffffffffffffff00000fffffffffffffffffffffffffffffffff831672fffff000000000000000000000000000000000608484901b1617611761565b6000806145668361495f565b90507fffffffffff0000000000ffffffffffffffffffffffffffffffffffffffffffff84167affffffffff0000000000000000000000000000000000000000000060b083901b16176124ef565b806001600160801b038116811461360d57604051632f45db3d60e21b815260040160405180910390fd5b6000816145e981614e0a565b670de0b6b3a7640000670de0b6b3a763ffff6001600160801b03868116908616020104949350505050565b600060ff831684811b9061ffff6101008290031686901c90612e969087906001901b8685856153ea565b600080600061464d8686615496565b9150915081600014614663578360ff1682901c92505b80156146a357600160ff85161b811061468f57604051638e471a8960e01b815260040160405180910390fd5b8360ff166101000361ffff1681901b830192505b50509392505050565b60006001600160801b038316608084901c6129ca8282866154b5565b60008061ffff600884901c1660ff80851690811461471d57600082815260028701602052604081205493506146fd8483615520565b9050600019811461471b5760089290921b9091179250610696915050565b505b5060ff80821690600883901c908214614797576000818152600188016020526040812054945061474d8584615520565b9050600019811461479557600882901b8117600081815260028a0160205260409020549550935061477d8561552f565b60ff1660088560001c901b1795505050505050610696565b505b60ff81811692508214614807578654935060006147b48584615520565b9050600019811461480557600081815260018901602052604090205494509050806147de8561552f565b60ff16600883901b17600081815260028a0160205260409020549550935061477d8561552f565b505b5060009695505050505050565b60008061ffff600884901c1660ff84168015614867576000828152600287016020526040812054935061484784836155cb565b905060001981146148655760089290921b9091179250610696915050565b505b5060ff8116600882901c81156148c6576000818152600188016020526040812054945061489485846155cb565b905060001981146148c457600882901b8117600081815260028a0160205260409020549550935061477d856155db565b505b60ff811691508115614935578654935060006148e285846155cb565b90506000198114614933576000818152600189016020526040902054945090508061490c856155db565b60ff16600883901b17600081815260028a0160205260409020549550935061477d856155db565b505b5062ffffff9695505050505050565b600060d882901c610696565b60006106968260d01c60ff1690565b8064ffffffffff8116811461360d576040516350dbfc8760e11b815260040160405180910390fd5b60008061499384612abb565b90508062ffffff168362ffffff16116149ae578281036124ef565b90910392915050565b64ffffffffff841662ffffff8481168202918482168102918416026149db88614b12565b6149e59084616163565b92506149f088614b28565b6149fa9083616163565b9150614a0588614b3e565b614a0f9082616163565b9050955095509592505050565b60d082901b7aff000000000000000000000000000000000000000000000000000016609084901b79ffffffffffffffff00000000000000000000000000000000000016605086901b71ffffffffffffffff0000000000000000000016601088901b69ffffffffffffffff00001661ffff8a161717171760d882901b7fffffffffff000000000000000000000000000000000000000000000000000000168117612be9565b81614aca81614aed565b818461ffff60001986018116908110614ae557614ae56160ba565b015550505050565b8061ffff166000036119a95760405163944e113960e01b815260040160405180910390fd5b60006106968260101c67ffffffffffffffff1690565b60006106968260501c67ffffffffffffffff1690565b60006106968260901c67ffffffffffffffff1690565b6000808080614b64600186616451565b61ffff16905060008060008961ffff1690505b838511614c225760006001614b8c86886163aa565b901c9050888183089a508b61ffff808d16908110614bac57614bac6160ba565b01549350614bb984613116565b92508964ffffffffff168364ffffffffff161115614be357614bdc6001826163bd565b9450614c1c565b8964ffffffffff168364ffffffffff161015614c0b57614c048160016163aa565b9550614c1c565b838497509750505050505050614c9d565b50614b77565b8164ffffffffff168964ffffffffff161015614c73578961ffff16600003614c48578799505b8a61ffff6000198c018116908110614c6257614c626160ba565b015483965096505050505050614c9d565b8760018b089950828b61ffff808d16908110614c9157614c916160ba565b01549650965050505050505b94509492505050565b600080600080614cb588614b12565b67ffffffffffffffff1690506000614ccc89614b28565b67ffffffffffffffff1690506000614ce38a614b3e565b67ffffffffffffffff1690508664ffffffffff16600003614d0a5791945092509050614e00565b6000614d158a614b12565b67ffffffffffffffff1690506000614d2c8b614b28565b67ffffffffffffffff1690506000614d438c614b3e565b67ffffffffffffffff1690508a64ffffffffff16600003614d6e5791975095509350614e0092505050565b6000614d8464ffffffffff808d16908e166163aa565b9050808b64ffffffffff1685028d64ffffffffff1689020181614da957614da96160ed565b049950808b64ffffffffff1684028d64ffffffffff1688020181614dcf57614dcf6160ed565b049850808b64ffffffffff1683028d64ffffffffff1687020181614df557614df56160ed565b049750505050505050505b9450945094915050565b67016345785d8a0000816001600160801b031611156119a957604051638630bc6b60e01b815260040160405180910390fd5b6000806000614e4b8686615496565b91509150612e9686868685856153ea565b600081600103614e6f5750607f19919050565b81600003614e905760405163125946cf60e11b815260040160405180910390fd5b60019190911c9060006f800000000000000000000000000000008310614eb857506001614ed3565b5060001982600160fe1b81614ecf57614ecf6160ed565b0492505b6000614ee2607f85901c6155db565b707f80000000000000000000000000000000607f82901b16935060ff16905083811c6f800000000000000000000000000000008114614f5e576f400000000000000000000000000000005b6000811315614f5c57908002607f1c90600160801b8210614f54579384019360019190911c905b60011d614f2d565b505b50500260011b919050565b60008080614f818460581c67ffffffffffffffff1690565b9250614f978460181c67ffffffffffffffff1690565b91505062ffffff831672ffffffffffffffffffffffffffffffffffffff841180614fd25750670de0b6b3a76400008367ffffffffffffffff16115b80614fee5750670de0b6b3a76400008267ffffffffffffffff16115b1561153757604051637752557f60e11b815260040160405180910390fd5b6000806001600160801b038516608086901c8261502a8383896154b5565b905080600003615044575060009350839250614c9d915050565b60006150508a896146ac565b905080158061505d575086155b156150795761506b82615676565b899550955050505050614c9d565b615084828883614e3c565b9550600061509387838a6156e8565b9050808311156151325760006150a982856163bd565b9050600160801b81106150ea57608081901c8581116150c857806150ca565b855b90506150d681876163bd565b95506150e6608082901b836163bd565b9150505b89811061511e5760006150fd8b8361643d565b905086811161510c578061510e565b865b905061511a81886163bd565b9650505b608085901b6001600160801b038716179a50505b7d09745258e83de0d0f4e400fce79aca44773dd596d31a6d336ca2a775b61161516461515e8d8d61267f565b8b6146ac565b11156151835760405163a2d7652760e01b815260040160405180910390fd5b50949997985050505050505050565b6000816000036151a457506000612e96565b6001600160801b038416608085901c6000806151d661076a6151c68d8b61267f565b886151d1818c6163aa565b613693565b91509150836001600160801b0316826001600160801b0316111561523957600061521c6152038c8c6133b5565b61520d84876161a4565b6001600160801b031690615705565b9050615231816001600160801b031660801b90565b955050615279565b826001600160801b0316816001600160801b0316111561527957600061526c6152628c8c6133b5565b61520d85886161a4565b6001600160801b03169550505b505050509695505050505050565b8162ffffff168162ffffff161080156152a35750608083901b15155b806152c857508162ffffff168162ffffff161180156152c857506001600160801b0383115b156109265760405163227bd87160e21b815262ffffff821660048201526024016119e6565b61ffff600882901c166000818152600284016020526040812054909190600160ff85161b81178082146137a1576000838152600287016020526040812082905582900361379557600883901c6000818152600180890160205260408220805460ff88169290921b821790559350839003613793578654600160ff83161b1787555060019350505050610696565b600080600052602060008351602085016000875af190508080156153bb573d80156153ae57600160005114831692506153b5565b843b151592505b506153cb565b3d156153cb573d6000803e3d6000fd5b50806109265760405163197138bd60e11b815260040160405180910390fd5b60008160000361540b57838381615403576154036160ed565b0490506129ca565b83821061542b576040516313eae71560e01b815260040160405180910390fd5b600084868809600186198101871660008190038190049091018683119095039490940294038390049390931760029290940460038102831880820284030280820284030280820284030280820284030280820284030290810290920390910292909202949350505050565b6000806000198385098385029250828110838203039150509250929050565b600083156154f05750808302818482816154d1576154d16160ed565b04146154f0576040516363f1e01f60e01b815260040160405180910390fd5b82156117615760809290921b91820182811015611761576040516363f1e01f60e01b815260040160405180910390fd5b60006117618360018401615746565b60008160801b801561554357608091508092505b8260401b90508015615556579150604001815b8260201b90508015615569579150602001815b8260101b9050801561557c579150601001815b8260081b9050801561558f579150600801815b8260041b905080156155a2579150600401815b8260021b905080156155b5579150600201815b508160011b156155c3576001015b60ff03919050565b6000611761836000198401615774565b60006001600160801b038211156155f45750608090811c905b67ffffffffffffffff82111561560c57604091821c91015b63ffffffff82111561562057602091821c91015b61ffff82111561563257601091821c91015b60ff82111561564357600891821c91015b600f82111561565457600491821c91015b600382111561566557600291821c91015b600182111561360d57600101919050565b60008160000361568857506000919050565b6000615693836155db565b600181811c607f1681811b9086901c01811c80860401811c80860401811c80860401811c80860401811c80860401811c80860401901c9384900493925060ff1690508282106156e25782611761565b50919050565b60006156f5848484614e3c565b9050818061336c5761336c6160ed565b60008161571181614e0a565b6ec097ce7bc90715b34b9f1000000000806001600160801b03868116908616908102670de0b6b3a76400009190910102613411565b60ff81169190911c906000821561576a57816157618461552f565b0160ff16611761565b5060001992915050565b60ff8181031691821b91600090831561579a5780615791856155db565b60ff16036124ef565b506000199392505050565b6001600160a01b03811681146119a957600080fd5b600080604083850312156157cd57600080fd5b82356157d8816157a5565b946020939093013593505050565b60005b838110156158015781810151838201526020016157e9565b50506000910152565b60208152600082518060208401526158298160408501602087016157e6565b601f01601f19169190910160400192915050565b803562ffffff8116811461360d57600080fd5b60006020828403121561586257600080fd5b6117618261583d565b60008083601f84011261587d57600080fd5b50813567ffffffffffffffff81111561589557600080fd5b6020830191508360208260051b850101111561310357600080fd5b600080600080600080608087890312156158c957600080fd5b86356158d4816157a5565b955060208701356158e4816157a5565b9450604087013567ffffffffffffffff8082111561590157600080fd5b61590d8a838b0161586b565b9096509450606089013591508082111561592657600080fd5b5061593389828a0161586b565b979a9699509497509295939492505050565b60008083601f84011261595757600080fd5b50813567ffffffffffffffff81111561596f57600080fd5b60208301915083602082850101111561310357600080fd5b60008060006040848603121561599c57600080fd5b83359250602084013567ffffffffffffffff8111156159ba57600080fd5b6159c686828701615945565b9497909650939450505050565b600080600080606085870312156159e957600080fd5b84356159f4816157a5565b9350602085013567ffffffffffffffff811115615a1057600080fd5b615a1c8782880161586b565b9094509250506040850135615a30816157a5565b939692955090935050565b600081518084526020808501945080840160005b83811015615a6b57815187529582019590820190600101615a4f565b509495945050505050565b8381528260208201526060604082015260006129ca6060830184615a3b565b803561ffff8116811461360d57600080fd5b600080600080600080600080610100898b031215615ac457600080fd5b615acd89615a95565b9750615adb60208a01615a95565b9650615ae960408a01615a95565b9550615af760608a01615a95565b9450615b0560808a0161583d565b9350615b1360a08a01615a95565b9250615b2160c08a0161583d565b9150615b2f60e08a0161583d565b90509295985092959890939650565b60008060008060408587031215615b5457600080fd5b843567ffffffffffffffff80821115615b6c57600080fd5b615b788883890161586b565b90965094506020870135915080821115615b9157600080fd5b50615b9e8782880161586b565b95989497509550505050565b6020815260006117616020830184615a3b565b8035801515811461360d57600080fd5b60008060408385031215615be057600080fd5b615be983615bbd565b91506020830135615bf9816157a5565b809150509250929050565b600080600080600080600060e0888a031215615c1f57600080fd5b615c2888615a95565b9650615c3660208901615a95565b9550615c4460408901615a95565b9450615c5260608901615a95565b9350615c606080890161583d565b9250615c6e60a08901615a95565b9150615c7c60c0890161583d565b905092959891949750929550565b600060208284031215615c9c57600080fd5b813564ffffffffff8116811461176157600080fd5b60008060408385031215615cc457600080fd5b615ccd83615bbd565b91506131006020840161583d565b60008060408385031215615cee57600080fd5b82356001600160801b0381168114615d0557600080fd5b915061310060208401615bbd565b600060208284031215615d2557600080fd5b5035919050565b600060208284031215615d3e57600080fd5b61176182615a95565b60008060408385031215615d5a57600080fd5b8235615d05816157a5565b60008060408385031215615d7857600080fd5b8235615be9816157a5565b60008060008060608587031215615d9957600080fd5b8435615da4816157a5565b935060208501359250604085013567ffffffffffffffff811115615dc757600080fd5b615b9e87828801615945565b600181811c90821680615de757607f821691505b6020821081036156e257634e487b7160e01b600052602260045260246000fd5b600060208284031215615e1957600080fd5b8151611761816157a5565b634e487b7160e01b600052604160045260246000fd5b604081526000615e4d6040830185615a3b565b82810360208401526129ca8185615a3b565b600060208284031215615e7157600080fd5b815167ffffffffffffffff80821115615e8957600080fd5b818401915084601f830112615e9d57600080fd5b815181811115615eaf57615eaf615e24565b604051601f8201601f19908116603f01168101908382118183101715615ed757615ed7615e24565b81604052828152876020848701011115615ef057600080fd5b612be98360208301602088016157e6565b7f4c697175696469747920426f6f6b20546f6b656e200000000000000000000000815260008351615f398160158501602088016157e6565b6201016960ed1b6015918401918201528351615f5c8160188401602088016157e6565b01601801949350505050565b601f82111561092657600081815260208120601f850160051c81016020861015615f8f5750805b601f850160051c820191505b8181101561253957828155600101615f9b565b815167ffffffffffffffff811115615fc857615fc8615e24565b615fdc81615fd68454615dd3565b84615f68565b602080601f8311600181146160115760008415615ff95750858301515b600019600386901b1c1916600185901b178555612539565b600085815260208120601f198616915b8281101561604057888601518255948401946001909101908401616021565b508582101561605e5787850151600019600388901b60f8161c191681555b5050505050600190811b01905550565b634c42545f60e01b81526000835161608d8160048501602088016157e6565b602d60f81b60049184019182015283516160ae8160058401602088016157e6565b01600501949350505050565b634e487b7160e01b600052603260045260246000fd5b6000602082840312156160e257600080fd5b8135611761816157a5565b634e487b7160e01b600052601260045260246000fd5b634e487b7160e01b600052601160045260246000fd5b64ffffffffff82811682821603908082111561341657613416616103565b67ffffffffffffffff81811683821602808216919082811461615b5761615b616103565b505092915050565b67ffffffffffffffff81811683821601908082111561341657613416616103565b6001600160801b0381811683821601908082111561341657613416616103565b6001600160801b0382811682821603908082111561341657613416616103565b81835260007f07ffffffffffffffffffffffffffffffffffffffffffffffffffffffffffffff8311156161f657600080fd5b8260051b80836020870137939093016020019392505050565b6040815260006162236040830186886161c4565b8281036020840152612be98185876161c4565b60408152600061624a6040830185876161c4565b8281036020840152612e968185615a3b565b81835281816020850137506000828201602090810191909152601f909101601f19169091010190565b60006001600160a01b03808a168352808916602084015280881660408401525085606083015284608083015260c060a08301526141bd60c08301848661625c565b600082516162d88184602087016157e6565b9190910192915050565b6000602082840312156162f457600080fd5b5051919050565b60006001600160a01b03808a168352808916602084015280881660408401525060a0606083015261633060a0830186886161c4565b82810360808401526163438185876161c4565b9a9950505050505050505050565b8381526040602082015260006129ca60408301848661625c565b60006001600160a01b038088168352808716602084015250608060408301526163986080830185876161c4565b90508260608301529695505050505050565b8082018082111561069657610696616103565b8181038181111561069657610696616103565b64ffffffffff81811683821601908082111561341657613416616103565b600061ffff80841680616403576164036160ed565b92169190910692915050565b60008261641e5761641e6160ed565b600160ff1b82146000198414161561643857616438616103565b500590565b60008261644c5761644c6160ed565b500490565b61ffff8281168282160390808211156134165761341661610356fe7e1935766b7c49e7482a018a5ee52ca183a2ddfcb6810787916934079aa582643441ab29b24daf7a3fd59500b0e08396ec08ec96f5cc2d0362924cdd45cfec319b779b17422d0df92223018b32b4d1fa46e071723d6817e2486d003becc55f00a264697066735822122022e41827a1d530f291cb2c5caf2ee6c94f69297e4c61c802092d1636b82dde8064736f6c63430008140033",
    "linkReferences": {}
  },
  "methodIdentifiers": {
    "approveForAll(address,bool)": "e584b654",
    "balanceOf(address,uint256)": "00fdd58e",
    "balanceOfBatch(address[],uint256[])": "4e1273f4",
    "batchTransferFrom(address,address,uint256[],uint256[])": "17fad7fc",
    "burn(address,address,uint256[],uint256[])": "c9939f5e",
    "collectProtocolFees()": "a1af5b9a",
    "flashLoan(address,bytes32,bytes)": "ea3446bf",
    "forceDecay()": "d3b9fbe4",
    "getActiveId()": "dbe65edc",
    "getBin(uint24)": "0abe9688",
    "getBinStep()": "17f11ecc",
    "getFactory()": "88cc58e4",
    "getIdFromPrice(uint256)": "f5e29329",
    "getLBHooksParameters()": "781a8915",
    "getNextNonEmptyBin(bool,uint24)": "a41a01fb",
    "getOracleParameters()": "55182894",
    "getOracleSampleAt(uint40)": "8940a16a",
    "getPriceFromId(uint24)": "4c7cffbd",
    "getProtocolFees()": "d8dfcea0",
    "getReserves()": "0902f1ac",
    "getStaticFeeParameters()": "7ca0de30",
    "getSwapIn(uint128,bool)": "abcd7830",
    "getSwapOut(uint128,bool)": "e77366f8",
    "getTokenX()": "05e8746d",
    "getTokenY()": "da10610c",
    "getVariableFeeParameters()": "8d7024e5",
    "increaseOracleLength(uint16)": "c7bd6586",
    "initialize(uint16,uint16,uint16,uint16,uint24,uint16,uint24,uint24)": "47973bff",
    "isApprovedForAll(address,address)": "e985e9c5",
    "mint(address,bytes32[],address)": "383d15c5",
    "name()": "06fdde03",
    "setHooksParameters(bytes32,bytes)": "1b057f6d",
    "setStaticFeeParameters(uint16,uint16,uint16,uint16,uint24,uint16,uint24)": "6653851a",
    "swap(bool,address)": "53c059a0",
    "symbol()": "95d89b41",
    "totalSupply(uint256)": "bd85b039"
  },
  "id": 81
}