{
  "abi": [
    {
      "inputs": [
        {
          "internalType": "contract ILBFactory",
          "name": "factory_",
          "type": "address"
        }
      ],
      "stateMutability": "nonpayable",
      "type": "constructor"
    },
    {
      "inputs": [
        {
          "internalType": "uint24",
          "name": "id",
          "type": "uint24"
        }
      ],
      "name": "BinHelper__CompositionFactorFlawed",
      "type": "error"
    },
    {
      "inputs": [],
      "name": "BinHelper__LiquidityOverflow",
      "type": "error"
    },
    {
      "inputs": [],
      "name": "BinHelper__MaxLiquidityPerBinExceeded",
      "type": "error"
    },
    {
      "inputs": [],
      "name": "FeeHelper__FeeTooLarge",
      "type": "error"
    },
    {
      "inputs": [],
      "name": "Hooks__CallFailed",
      "type": "error"
    },
    {
      "inputs": [],
      "name": "InvalidInitialization",
      "type": "error"
    },
    {
      "inputs": [],
      "name": "LBPair__AddressZero",
      "type": "error"
    },
    {
      "inputs": [],
      "name": "LBPair__EmptyMarketConfigs",
      "type": "error"
    },
    {
      "inputs": [],
      "name": "LBPair__FlashLoanCallbackFailed",
      "type": "error"
    },
    {
      "inputs": [],
      "name": "LBPair__FlashLoanInsufficientAmount",
      "type": "error"
    },
    {
      "inputs": [],
      "name": "LBPair__InsufficientAmountIn",
      "type": "error"
    },
    {
      "inputs": [],
      "name": "LBPair__InsufficientAmountOut",
      "type": "error"
    },
    {
      "inputs": [],
      "name": "LBPair__InvalidHooks",
      "type": "error"
    },
    {
      "inputs": [],
      "name": "LBPair__InvalidInput",
      "type": "error"
    },
    {
      "inputs": [],
      "name": "LBPair__InvalidStaticFeeParameters",
      "type": "error"
    },
    {
      "inputs": [],
      "name": "LBPair__MaxTotalFeeExceeded",
      "type": "error"
    },
    {
      "inputs": [],
      "name": "LBPair__OnlyFactory",
      "type": "error"
    },
    {
      "inputs": [],
      "name": "LBPair__OnlyProtocolFeeRecipient",
      "type": "error"
    },
    {
      "inputs": [],
      "name": "LBPair__OutOfLiquidity",
      "type": "error"
    },
    {
      "inputs": [],
      "name": "LBPair__TokenNotSupported",
      "type": "error"
    },
    {
      "inputs": [
        {
          "internalType": "uint24",
          "name": "id",
          "type": "uint24"
        }
      ],
      "name": "LBPair__ZeroAmount",
      "type": "error"
    },
    {
      "inputs": [
        {
          "internalType": "uint24",
          "name": "id",
          "type": "uint24"
        }
      ],
      "name": "LBPair__ZeroAmountsOut",
      "type": "error"
    },
    {
      "inputs": [],
      "name": "LBPair__ZeroBorrowAmount",
      "type": "error"
    },
    {
      "inputs": [
        {
          "internalType": "uint24",
          "name": "id",
          "type": "uint24"
        }
      ],
      "name": "LBPair__ZeroShares",
      "type": "error"
    },
    {
      "inputs": [],
      "name": "LBToken__AddressThisOrZero",
      "type": "error"
    },
    {
      "inputs": [
        {
          "internalType": "address",
          "name": "from",
          "type": "address"
        },
        {
          "internalType": "uint256",
          "name": "id",
          "type": "uint256"
        },
        {
          "internalType": "uint256",
          "name": "amount",
          "type": "uint256"
        }
      ],
      "name": "LBToken__BurnExceedsBalance",
      "type": "error"
    },
    {
      "inputs": [],
      "name": "LBToken__InvalidLength",
      "type": "error"
    },
    {
      "inputs": [
        {
          "internalType": "address",
          "name": "owner",
          "type": "address"
        }
      ],
      "name": "LBToken__SelfApproval",
      "type": "error"
    },
    {
      "inputs": [
        {
          "internalType": "address",
          "name": "from",
          "type": "address"
        },
        {
          "internalType": "address",
          "name": "spender",
          "type": "address"
        }
      ],
      "name": "LBToken__SpenderNotApproved",
      "type": "error"
    },
    {
      "inputs": [
        {
          "internalType": "address",
          "name": "from",
          "type": "address"
        },
        {
          "internalType": "uint256",
          "name": "id",
          "type": "uint256"
        },
        {
          "internalType": "uint256",
          "name": "amount",
          "type": "uint256"
        }
      ],
      "name": "LBToken__TransferExceedsBalance",
      "type": "error"
    },
    {
      "inputs": [],
      "name": "LiquidityConfigurations__InvalidConfig",
      "type": "error"
    },
    {
      "inputs": [],
      "name": "NotInitializing",
      "type": "error"
    },
    {
      "inputs": [],
      "name": "OracleHelper__InvalidOracleId",
      "type": "error"
    },
    {
      "inputs": [],
      "name": "OracleHelper__LookUpTimestampTooOld",
      "type": "error"
    },
    {
      "inputs": [],
      "name": "OracleHelper__NewLengthTooSmall",
      "type": "error"
    },
    {
      "inputs": [],
      "name": "PackedUint128Math__AddOverflow",
      "type": "error"
    },
    {
      "inputs": [],
      "name": "PackedUint128Math__MultiplierTooLarge",
      "type": "error"
    },
    {
      "inputs": [],
      "name": "PackedUint128Math__SubUnderflow",
      "type": "error"
    },
    {
      "inputs": [],
      "name": "PairParametersHelper__InvalidParameter",
      "type": "error"
    },
    {
      "inputs": [],
      "name": "ReentrancyGuardReentrantCall",
      "type": "error"
    },
    {
      "inputs": [],
      "name": "SafeCast__Exceeds128Bits",
      "type": "error"
    },
    {
      "inputs": [],
      "name": "SafeCast__Exceeds24Bits",
      "type": "error"
    },
    {
      "inputs": [],
      "name": "SafeCast__Exceeds40Bits",
      "type": "error"
    },
    {
      "inputs": [],
      "name": "TokenHelper__TransferFailed",
      "type": "error"
    },
    {
      "inputs": [],
      "name": "Uint128x128Math__LogUnderflow",
      "type": "error"
    },
    {
      "inputs": [
        {
          "internalType": "uint256",
          "name": "x",
          "type": "uint256"
        },
        {
          "internalType": "int256",
          "name": "y",
          "type": "int256"
        }
      ],
      "name": "Uint128x128Math__PowUnderflow",
      "type": "error"
    },
    {
      "inputs": [],
      "name": "Uint256x256Math__MulDivOverflow",
      "type": "error"
    },
    {
      "inputs": [],
      "name": "Uint256x256Math__MulShiftOverflow",
      "type": "error"
    },
    {
      "anonymous": false,
      "inputs": [
        {
          "indexed": true,
          "internalType": "address",
          "name": "account",
          "type": "address"
        },
        {
          "indexed": true,
          "internalType": "address",
          "name": "sender",
          "type": "address"
        },
        {
          "indexed": false,
          "internalType": "bool",
          "name": "approved",
          "type": "bool"
        }
      ],
      "name": "ApprovalForAll",
      "type": "event"
    },
    {
      "anonymous": false,
      "inputs": [
        {
          "indexed": true,
          "internalType": "address",
          "name": "feeRecipient",
          "type": "address"
        },
        {
          "indexed": false,
          "internalType": "bytes32",
          "name": "protocolFees",
          "type": "bytes32"
        }
      ],
      "name": "CollectedProtocolFees",
      "type": "event"
    },
    {
      "anonymous": false,
      "inputs": [
        {
          "indexed": true,
          "internalType": "address",
          "name": "sender",
          "type": "address"
        },
        {
          "indexed": false,
          "internalType": "uint24",
          "name": "id",
          "type": "uint24"
        },
        {
          "indexed": false,
          "internalType": "bytes32",
          "name": "totalFees",
          "type": "bytes32"
        },
        {
          "indexed": false,
          "internalType": "bytes32",
          "name": "protocolFees",
          "type": "bytes32"
        }
      ],
      "name": "CompositionFees",
      "type": "event"
    },
    {
      "anonymous": false,
      "inputs": [
        {
          "indexed": true,
          "internalType": "address",
          "name": "sender",
          "type": "address"
        },
        {
          "indexed": true,
          "internalType": "address",
          "name": "to",
          "type": "address"
        },
        {
          "indexed": false,
          "internalType": "uint256[]",
          "name": "ids",
          "type": "uint256[]"
        },
        {
          "indexed": false,
          "internalType": "bytes32[]",
          "name": "amounts",
          "type": "bytes32[]"
        }
      ],
      "name": "DepositedToBins",
      "type": "event"
    },
    {
      "anonymous": false,
      "inputs": [
        {
          "indexed": true,
          "internalType": "address",
          "name": "sender",
          "type": "address"
        },
        {
          "indexed": true,
          "internalType": "contract ILBFlashLoanCallback",
          "name": "receiver",
          "type": "address"
        },
        {
          "indexed": false,
          "internalType": "uint24",
          "name": "activeId",
          "type": "uint24"
        },
        {
          "indexed": false,
          "internalType": "bytes32",
          "name": "amounts",
          "type": "bytes32"
        },
        {
          "indexed": false,
          "internalType": "bytes32",
          "name": "totalFees",
          "type": "bytes32"
        },
        {
          "indexed": false,
          "internalType": "bytes32",
          "name": "protocolFees",
          "type": "bytes32"
        }
      ],
      "name": "FlashLoan",
      "type": "event"
    },
    {
      "anonymous": false,
      "inputs": [
        {
          "indexed": true,
          "internalType": "address",
          "name": "sender",
          "type": "address"
        },
        {
          "indexed": false,
          "internalType": "uint24",
          "name": "idReference",
          "type": "uint24"
        },
        {
          "indexed": false,
          "internalType": "uint24",
          "name": "volatilityReference",
          "type": "uint24"
        }
      ],
      "name": "ForcedDecay",
      "type": "event"
    },
    {
      "anonymous": false,
      "inputs": [
        {
          "indexed": true,
          "internalType": "address",
          "name": "sender",
          "type": "address"
        },
        {
          "indexed": false,
          "internalType": "bytes32",
          "name": "hooksParameters",
          "type": "bytes32"
        }
      ],
      "name": "HooksParametersSet",
      "type": "event"
    },
    {
      "anonymous": false,
      "inputs": [
        {
          "indexed": false,
          "internalType": "uint64",
          "name": "version",
          "type": "uint64"
        }
      ],
      "name": "Initialized",
      "type": "event"
    },
    {
      "anonymous": false,
      "inputs": [
        {
          "indexed": true,
          "internalType": "address",
          "name": "sender",
          "type": "address"
        },
        {
          "indexed": false,
          "internalType": "uint16",
          "name": "oracleLength",
          "type": "uint16"
        }
      ],
      "name": "OracleLengthIncreased",
      "type": "event"
    },
    {
      "anonymous": false,
      "inputs": [
        {
          "indexed": true,
          "internalType": "address",
          "name": "sender",
          "type": "address"
        },
        {
          "indexed": false,
          "internalType": "uint16",
          "name": "baseFactor",
          "type": "uint16"
        },
        {
          "indexed": false,
          "internalType": "uint16",
          "name": "filterPeriod",
          "type": "uint16"
        },
        {
          "indexed": false,
          "internalType": "uint16",
          "name": "decayPeriod",
          "type": "uint16"
        },
        {
          "indexed": false,
          "internalType": "uint16",
          "name": "reductionFactor",
          "type": "uint16"
        },
        {
          "indexed": false,
          "internalType": "uint24",
          "name": "variableFeeControl",
          "type": "uint24"
        },
        {
          "indexed": false,
          "internalType": "uint16",
          "name": "protocolShare",
          "type": "uint16"
        },
        {
          "indexed": false,
          "internalType": "uint24",
          "name": "maxVolatilityAccumulator",
          "type": "uint24"
        }
      ],
      "name": "StaticFeeParametersSet",
      "type": "event"
    },
    {
      "anonymous": false,
      "inputs": [
        {
          "indexed": true,
          "internalType": "address",
          "name": "sender",
          "type": "address"
        },
        {
          "indexed": true,
          "internalType": "address",
          "name": "to",
          "type": "address"
        },
        {
          "indexed": false,
          "internalType": "uint24",
          "name": "id",
          "type": "uint24"
        },
        {
          "indexed": false,
          "internalType": "bytes32",
          "name": "amountsIn",
          "type": "bytes32"
        },
        {
          "indexed": false,
          "internalType": "bytes32",
          "name": "amountsOut",
          "type": "bytes32"
        },
        {
          "indexed": false,
          "internalType": "uint24",
          "name": "volatilityAccumulator",
          "type": "uint24"
        },
        {
          "indexed": false,
          "internalType": "bytes32",
          "name": "totalFees",
          "type": "bytes32"
        },
        {
          "indexed": false,
          "internalType": "bytes32",
          "name": "protocolFees",
          "type": "bytes32"
        }
      ],
      "name": "Swap",
      "type": "event"
    },
    {
      "anonymous": false,
      "inputs": [
        {
          "indexed": true,
          "internalType": "address",
          "name": "sender",
          "type": "address"
        },
        {
          "indexed": true,
          "internalType": "address",
          "name": "from",
          "type": "address"
        },
        {
          "indexed": true,
          "internalType": "address",
          "name": "to",
          "type": "address"
        },
        {
          "indexed": false,
          "internalType": "uint256[]",
          "name": "ids",
          "type": "uint256[]"
        },
        {
          "indexed": false,
          "internalType": "uint256[]",
          "name": "amounts",
          "type": "uint256[]"
        }
      ],
      "name": "TransferBatch",
      "type": "event"
    },
    {
      "anonymous": false,
      "inputs": [
        {
          "indexed": true,
          "internalType": "address",
          "name": "sender",
          "type": "address"
        },
        {
          "indexed": true,
          "internalType": "address",
          "name": "to",
          "type": "address"
        },
        {
          "indexed": false,
          "internalType": "uint256[]",
          "name": "ids",
          "type": "uint256[]"
        },
        {
          "indexed": false,
          "internalType": "bytes32[]",
          "name": "amounts",
          "type": "bytes32[]"
        }
      ],
      "name": "WithdrawnFromBins",
      "type": "event"
    },
    {
      "inputs": [
        {
          "internalType": "address",
          "name": "spender",
          "type": "address"
        },
        {
          "internalType": "bool",
          "name": "approved",
          "type": "bool"
        }
      ],
      "name": "approveForAll",
      "outputs": [],
      "stateMutability": "nonpayable",
      "type": "function"
    },
    {
      "inputs": [
        {
          "internalType": "address",
          "name": "account",
          "type": "address"
        },
        {
          "internalType": "uint256",
          "name": "id",
          "type": "uint256"
        }
      ],
      "name": "balanceOf",
      "outputs": [
        {
          "internalType": "uint256",
          "name": "",
          "type": "uint256"
        }
      ],
      "stateMutability": "view",
      "type": "function"
    },
    {
      "inputs": [
        {
          "internalType": "address[]",
          "name": "accounts",
          "type": "address[]"
        },
        {
          "internalType": "uint256[]",
          "name": "ids",
          "type": "uint256[]"
        }
      ],
      "name": "balanceOfBatch",
      "outputs": [
        {
          "internalType": "uint256[]",
          "name": "batchBalances",
          "type": "uint256[]"
        }
      ],
      "stateMutability": "view",
      "type": "function"
    },
    {
      "inputs": [
        {
          "internalType": "address",
          "name": "from",
          "type": "address"
        },
        {
          "internalType": "address",
          "name": "to",
          "type": "address"
        },
        {
          "internalType": "uint256[]",
          "name": "ids",
          "type": "uint256[]"
        },
        {
          "internalType": "uint256[]",
          "name": "amounts",
          "type": "uint256[]"
        }
      ],
      "name": "batchTransferFrom",
      "outputs": [],
      "stateMutability": "nonpayable",
      "type": "function"
    },
    {
      "inputs": [
        {
          "internalType": "address",
          "name": "from",
          "type": "address"
        },
        {
          "internalType": "address",
          "name": "to",
          "type": "address"
        },
        {
          "internalType": "uint256[]",
          "name": "ids",
          "type": "uint256[]"
        },
        {
          "internalType": "uint256[]",
          "name": "amountsToBurn",
          "type": "uint256[]"
        }
      ],
      "name": "burn",
      "outputs": [
        {
          "internalType": "bytes32[]",
          "name": "amounts",
          "type": "bytes32[]"
        }
      ],
      "stateMutability": "nonpayable",
      "type": "function"
    },
    {
      "inputs": [],
      "name": "collectProtocolFees",
      "outputs": [
        {
          "internalType": "bytes32",
          "name": "collectedProtocolFees",
          "type": "bytes32"
        }
      ],
      "stateMutability": "nonpayable",
      "type": "function"
    },
    {
      "inputs": [
        {
          "internalType": "contract ILBFlashLoanCallback",
          "name": "receiver",
          "type": "address"
        },
        {
          "internalType": "bytes32",
          "name": "amounts",
          "type": "bytes32"
        },
        {
          "internalType": "bytes",
          "name": "data",
          "type": "bytes"
        }
      ],
      "name": "flashLoan",
      "outputs": [],
      "stateMutability": "nonpayable",
      "type": "function"
    },
    {
      "inputs": [],
      "name": "forceDecay",
      "outputs": [],
      "stateMutability": "nonpayable",
      "type": "function"
    },
    {
      "inputs": [],
      "name": "getActiveId",
      "outputs": [
        {
          "internalType": "uint24",
          "name": "activeId",
          "type": "uint24"
        }
      ],
      "stateMutability": "view",
      "type": "function"
    },
    {
      "inputs": [
        {
          "internalType": "uint24",
          "name": "id",
          "type": "uint24"
        }
      ],
      "name": "getBin",
      "outputs": [
        {
          "internalType": "uint128",
          "name": "binReserveX",
          "type": "uint128"
        },
        {
          "internalType": "uint128",
          "name": "binReserveY",
          "type": "uint128"
        }
      ],
      "stateMutability": "view",
      "type": "function"
    },
    {
      "inputs": [],
      "name": "getBinStep",
      "outputs": [
        {
          "internalType": "uint16",
          "name": "",
          "type": "uint16"
        }
      ],
      "stateMutability": "view",
      "type": "function"
    },
    {
      "inputs": [],
      "name": "getFactory",
      "outputs": [
        {
          "internalType": "contract ILBFactory",
          "name": "factory",
          "type": "address"
        }
      ],
      "stateMutability": "view",
      "type": "function"
    },
    {
      "inputs": [
        {
          "internalType": "uint256",
          "name": "price",
          "type": "uint256"
        }
      ],
      "name": "getIdFromPrice",
      "outputs": [
        {
          "internalType": "uint24",
          "name": "id",
          "type": "uint24"
        }
      ],
      "stateMutability": "view",
      "type": "function"
    },
    {
      "inputs": [],
      "name": "getLBHooksParameters",
      "outputs": [
        {
          "internalType": "bytes32",
          "name": "",
          "type": "bytes32"
        }
      ],
      "stateMutability": "view",
      "type": "function"
    },
    {
      "inputs": [
        {
          "internalType": "bool",
          "name": "swapForY",
          "type": "bool"
        },
        {
          "internalType": "uint24",
          "name": "id",
          "type": "uint24"
        }
      ],
      "name": "getNextNonEmptyBin",
      "outputs": [
        {
          "internalType": "uint24",
          "name": "nextId",
          "type": "uint24"
        }
      ],
      "stateMutability": "view",
      "type": "function"
    },
    {
      "inputs": [],
      "name": "getOracleParameters",
      "outputs": [
        {
          "internalType": "uint8",
          "name": "sampleLifetime",
          "type": "uint8"
        },
        {
          "internalType": "uint16",
          "name": "size",
          "type": "uint16"
        },
        {
          "internalType": "uint16",
          "name": "activeSize",
          "type": "uint16"
        },
        {
          "internalType": "uint40",
          "name": "lastUpdated",
          "type": "uint40"
        },
        {
          "internalType": "uint40",
          "name": "firstTimestamp",
          "type": "uint40"
        }
      ],
      "stateMutability": "view",
      "type": "function"
    },
    {
      "inputs": [
        {
          "internalType": "uint40",
          "name": "lookupTimestamp",
          "type": "uint40"
        }
      ],
      "name": "getOracleSampleAt",
      "outputs": [
        {
          "internalType": "uint64",
          "name": "cumulativeId",
          "type": "uint64"
        },
        {
          "internalType": "uint64",
          "name": "cumulativeVolatility",
          "type": "uint64"
        },
        {
          "internalType": "uint64",
          "name": "cumulativeBinCrossed",
          "type": "uint64"
        }
      ],
      "stateMutability": "view",
      "type": "function"
    },
    {
      "inputs": [
        {
          "internalType": "uint24",
          "name": "id",
          "type": "uint24"
        }
      ],
      "name": "getPriceFromId",
      "outputs": [
        {
          "internalType": "uint256",
          "name": "price",
          "type": "uint256"
        }
      ],
      "stateMutability": "view",
      "type": "function"
    },
    {
      "inputs": [],
      "name": "getProtocolFees",
      "outputs": [
        {
          "internalType": "uint128",
          "name": "protocolFeeX",
          "type": "uint128"
        },
        {
          "internalType": "uint128",
          "name": "protocolFeeY",
          "type": "uint128"
        }
      ],
      "stateMutability": "view",
      "type": "function"
    },
    {
      "inputs": [],
      "name": "getReserves",
      "outputs": [
        {
          "internalType": "uint128",
          "name": "reserveX",
          "type": "uint128"
        },
        {
          "internalType": "uint128",
          "name": "reserveY",
          "type": "uint128"
        }
      ],
      "stateMutability": "view",
      "type": "function"
    },
    {
      "inputs": [],
      "name": "getStaticFeeParameters",
      "outputs": [
        {
          "internalType": "uint16",
          "name": "baseFactor",
          "type": "uint16"
        },
        {
          "internalType": "uint16",
          "name": "filterPeriod",
          "type": "uint16"
        },
        {
          "internalType": "uint16",
          "name": "decayPeriod",
          "type": "uint16"
        },
        {
          "internalType": "uint16",
          "name": "reductionFactor",
          "type": "uint16"
        },
        {
          "internalType": "uint24",
          "name": "variableFeeControl",
          "type": "uint24"
        },
        {
          "internalType": "uint16",
          "name": "protocolShare",
          "type": "uint16"
        },
        {
          "internalType": "uint24",
          "name": "maxVolatilityAccumulator",
          "type": "uint24"
        }
      ],
      "stateMutability": "view",
      "type": "function"
    },
    {
      "inputs": [
        {
          "internalType": "uint128",
          "name": "amountOut",
          "type": "uint128"
        },
        {
          "internalType": "bool",
          "name": "swapForY",
          "type": "bool"
        }
      ],
      "name": "getSwapIn",
      "outputs": [
        {
          "internalType": "uint128",
          "name": "amountIn",
          "type": "uint128"
        },
        {
          "internalType": "uint128",
          "name": "amountOutLeft",
          "type": "uint128"
        },
        {
          "internalType": "uint128",
          "name": "fee",
          "type": "uint128"
        }
      ],
      "stateMutability": "view",
      "type": "function"
    },
    {
      "inputs": [
        {
          "internalType": "uint128",
          "name": "amountIn",
          "type": "uint128"
        },
        {
          "internalType": "bool",
          "name": "swapForY",
          "type": "bool"
        }
      ],
      "name": "getSwapOut",
      "outputs": [
        {
          "internalType": "uint128",
          "name": "amountInLeft",
          "type": "uint128"
        },
        {
          "internalType": "uint128",
          "name": "amountOut",
          "type": "uint128"
        },
        {
          "internalType": "uint128",
          "name": "fee",
          "type": "uint128"
        }
      ],
      "stateMutability": "view",
      "type": "function"
    },
    {
      "inputs": [],
      "name": "getTokenX",
      "outputs": [
        {
          "internalType": "contract IERC20",
          "name": "tokenX",
          "type": "address"
        }
      ],
      "stateMutability": "view",
      "type": "function"
    },
    {
      "inputs": [],
      "name": "getTokenY",
      "outputs": [
        {
          "internalType": "contract IERC20",
          "name": "tokenY",
          "type": "address"
        }
      ],
      "stateMutability": "view",
      "type": "function"
    },
    {
      "inputs": [],
      "name": "getVariableFeeParameters",
      "outputs": [
        {
          "internalType": "uint24",
          "name": "volatilityAccumulator",
          "type": "uint24"
        },
        {
          "internalType": "uint24",
          "name": "volatilityReference",
          "type": "uint24"
        },
        {
          "internalType": "uint24",
          "name": "idReference",
          "type": "uint24"
        },
        {
          "internalType": "uint40",
          "name": "timeOfLastUpdate",
          "type": "uint40"
        }
      ],
      "stateMutability": "view",
      "type": "function"
    },
    {
      "inputs": [],
      "name": "implementation",
      "outputs": [
        {
          "internalType": "address",
          "name": "",
          "type": "address"
        }
      ],
      "stateMutability": "view",
      "type": "function"
    },
    {
      "inputs": [
        {
          "internalType": "uint16",
          "name": "newLength",
          "type": "uint16"
        }
      ],
      "name": "increaseOracleLength",
      "outputs": [],
      "stateMutability": "nonpayable",
      "type": "function"
    },
    {
      "inputs": [
        {
          "internalType": "uint16",
          "name": "baseFactor",
          "type": "uint16"
        },
        {
          "internalType": "uint16",
          "name": "filterPeriod",
          "type": "uint16"
        },
        {
          "internalType": "uint16",
          "name": "decayPeriod",
          "type": "uint16"
        },
        {
          "internalType": "uint16",
          "name": "reductionFactor",
          "type": "uint16"
        },
        {
          "internalType": "uint24",
          "name": "variableFeeControl",
          "type": "uint24"
        },
        {
          "internalType": "uint16",
          "name": "protocolShare",
          "type": "uint16"
        },
        {
          "internalType": "uint24",
          "name": "maxVolatilityAccumulator",
          "type": "uint24"
        },
        {
          "internalType": "uint24",
          "name": "activeId",
          "type": "uint24"
        }
      ],
      "name": "initialize",
      "outputs": [],
      "stateMutability": "nonpayable",
      "type": "function"
    },
    {
      "inputs": [
        {
          "internalType": "address",
          "name": "owner",
          "type": "address"
        },
        {
          "internalType": "address",
          "name": "spender",
          "type": "address"
        }
      ],
      "name": "isApprovedForAll",
      "outputs": [
        {
          "internalType": "bool",
          "name": "",
          "type": "bool"
        }
      ],
      "stateMutability": "view",
      "type": "function"
    },
    {
      "inputs": [
        {
          "internalType": "address",
          "name": "to",
          "type": "address"
        },
        {
          "internalType": "bytes32[]",
          "name": "liquidityConfigs",
          "type": "bytes32[]"
        },
        {
          "internalType": "address",
          "name": "refundTo",
          "type": "address"
        }
      ],
      "name": "mint",
      "outputs": [
        {
          "internalType": "bytes32",
          "name": "amountsReceived",
          "type": "bytes32"
        },
        {
          "internalType": "bytes32",
          "name": "amountsLeft",
          "type": "bytes32"
        },
        {
          "internalType": "uint256[]",
          "name": "liquidityMinted",
          "type": "uint256[]"
        }
      ],
      "stateMutability": "nonpayable",
      "type": "function"
    },
    {
      "inputs": [],
      "name": "name",
      "outputs": [
        {
          "internalType": "string",
          "name": "",
          "type": "string"
        }
      ],
      "stateMutability": "view",
      "type": "function"
    },
    {
      "inputs": [
        {
          "internalType": "bytes32",
          "name": "hooksParameters",
          "type": "bytes32"
        },
        {
          "internalType": "bytes",
          "name": "onHooksSetData",
          "type": "bytes"
        }
      ],
      "name": "setHooksParameters",
      "outputs": [],
      "stateMutability": "nonpayable",
      "type": "function"
    },
    {
      "inputs": [
        {
          "internalType": "uint16",
          "name": "baseFactor",
          "type": "uint16"
        },
        {
          "internalType": "uint16",
          "name": "filterPeriod",
          "type": "uint16"
        },
        {
          "internalType": "uint16",
          "name": "decayPeriod",
          "type": "uint16"
        },
        {
          "internalType": "uint16",
          "name": "reductionFactor",
          "type": "uint16"
        },
        {
          "internalType": "uint24",
          "name": "variableFeeControl",
          "type": "uint24"
        },
        {
          "internalType": "uint16",
          "name": "protocolShare",
          "type": "uint16"
        },
        {
          "internalType": "uint24",
          "name": "maxVolatilityAccumulator",
          "type": "uint24"
        }
      ],
      "name": "setStaticFeeParameters",
      "outputs": [],
      "stateMutability": "nonpayable",
      "type": "function"
    },
    {
      "inputs": [
        {
          "internalType": "bool",
          "name": "swapForY",
          "type": "bool"
        },
        {
          "internalType": "address",
          "name": "to",
          "type": "address"
        }
      ],
      "name": "swap",
      "outputs": [
        {
          "internalType": "bytes32",
          "name": "amountsOut",
          "type": "bytes32"
        }
      ],
      "stateMutability": "nonpayable",
      "type": "function"
    },
    {
      "inputs": [],
      "name": "symbol",
      "outputs": [
        {
          "internalType": "string",
          "name": "",
          "type": "string"
        }
      ],
      "stateMutability": "view",
      "type": "function"
    },
    {
      "inputs": [
        {
          "internalType": "uint256",
          "name": "id",
          "type": "uint256"
        }
      ],
      "name": "totalSupply",
      "outputs": [
        {
          "internalType": "uint256",
          "name": "",
          "type": "uint256"
        }
      ],
      "stateMutability": "view",
      "type": "function"
    }
  ],
  "bytecode": {
    "object": "0x60c06040523480156200001157600080fd5b50604051620062653803806200626583398101604081905262000034916200010a565b6001600160a01b03811660a052306080526200004f62000056565b506200013c565b7ff0c57e16840df040f15088dc2f81fe391c3923bec73e23a9662efc9c229c6a00805468010000000000000000900460ff1615620000a75760405163f92ee8a960e01b815260040160405180910390fd5b80546001600160401b0390811614620001075780546001600160401b0319166001600160401b0390811782556040519081527fc7f505b2f371ae2175ee4913f4499e1f2633a7b5936321eed1cdaeb6115181d29060200160405180910390a15b50565b6000602082840312156200011d57600080fd5b81516001600160a01b03811681146200013557600080fd5b9392505050565b60805160a0516160ee62000177600039600081816104fc0152818161141601528181612291015261376e0152600061046901526160ee6000f3fe608060405234801561001057600080fd5b50600436106102765760003560e01c806388cc58e411610160578063c9939f5e116100d8578063e584b6541161008c578063e985e9c511610071578063e985e9c5146106b0578063ea3446bf146106d3578063f5e29329146106e657600080fd5b8063e584b6541461068a578063e77366f81461069d57600080fd5b8063d8dfcea0116100bd578063d8dfcea014610672578063da10610c1461067a578063dbe65edc1461068257600080fd5b8063c9939f5e14610657578063d3b9fbe41461066a57600080fd5b8063a1af5b9a1161012f578063abcd783011610114578063abcd7830146105e7578063bd85b03914610624578063c7bd65861461064457600080fd5b8063a1af5b9a146105b8578063a41a01fb146105c057600080fd5b806388cc58e4146104fa5780638940a16a146105205780638d7024e51461055e57806395d89b411461059957600080fd5b806347973bff116101f357806355182894116101c25780636653851a116101a75780636653851a1461048b578063781a89151461049e5780637ca0de30146104a857600080fd5b8063551828941461041f5780635c60da1b1461046457600080fd5b806347973bff146103c65780634c7cffbd146103d95780634e1273f4146103ec57806353c059a01461040c57600080fd5b80630abe96881161024a57806317fad7fc1161022f57806317fad7fc1461037c5780631b057f6d14610391578063383d15c5146103a457600080fd5b80630abe96881461032b57806317f11ecc1461036157600080fd5b8062fdd58e1461027b57806305e8746d146102a157806306fdde03146102c15780630902f1ac14610303575b600080fd5b61028e610289366004615635565b6106f9565b6040519081526020015b60405180910390f35b6102a9610722565b6040516001600160a01b039091168152602001610298565b60408051808201909152601481527f4c697175696469747920426f6f6b20546f6b656e00000000000000000000000060208201525b6040516102989190615685565b61030b61073f565b604080516001600160801b03938416815292909116602083015201610298565b61030b6103393660046156cb565b62ffffff166000908152600660205260409020546001600160801b0381169160809190911c90565b610369610779565b60405161ffff9091168152602001610298565b61038f61038a36600461572b565b6107a3565b005b61038f61039f366004615802565b6107fe565b6103b76103b236600461584e565b61091d565b604051610298939291906158f1565b61038f6103d4366004615922565b610bbf565b61028e6103e73660046156cb565b610d1d565b6103ff6103fa3660046159b9565b610d56565b6040516102989190615a25565b61028e61041a366004615a48565b610e2c565b610427611180565b6040805160ff909616865261ffff9485166020870152939092169284019290925264ffffffffff918216606084015216608082015260a001610298565b6102a97f000000000000000000000000000000000000000000000000000000000000000081565b61038f610499366004615a7f565b61122a565b620100095461028e565b6104b0611263565b6040805161ffff9889168152968816602088015294871694860194909452918516606085015262ffffff9081166080850152931660a08301529190911660c082015260e001610298565b7f00000000000000000000000000000000000000000000000000000000000000006102a9565b61053361052e366004615b05565b6112cb565b6040805167ffffffffffffffff94851681529284166020840152921691810191909152606001610298565b6105666113ca565b6040805162ffffff95861681529385166020850152919093169082015264ffffffffff9091166060820152608001610298565b60408051808201909152600381526213109560ea1b60208201526102f6565b61028e61140a565b6105d36105ce366004615b2c565b6115d0565b60405162ffffff9091168152602001610298565b6105fa6105f5366004615b56565b6115e3565b604080516001600160801b0394851681529284166020840152921691810191909152606001610298565b61028e610632366004615b8e565b60009081526001602052604090205490565b61038f610652366004615ba7565b611791565b6103ff61066536600461572b565b611827565b61038f611b5f565b61030b611bf3565b6102a9611c0e565b6105d3611c26565b61038f610698366004615bc2565b611c33565b6105fa6106ab366004615b56565b611c42565b6106c36106be366004615be0565b611d91565b6040519015158152602001610298565b61038f6106e1366004615bfe565b611d9d565b6105d36106f4366004615b8e565b61209b565b6001600160a01b0382166000908152602081815260408083208484529091529020545b92915050565b600061073a6000805160206160798339815191525490565b905090565b60008061077061075c6005546004546120cf90919063ffffffff16565b6001600160801b0381169160809190911c90565b90939092509050565b600061073a7fff057b3b4d4500dda208cde5d654db7aa2ec63ac10ab9f9956a1f569738427825490565b6107ab612109565b62010009546107c08133898989898989612141565b6107ce8787878787876121e1565b6107e5600160008051602061609983398151915255565b6107f5813389898989898961223f565b50505050505050565b610806612109565b61080e612286565b62010009839055604080518481529051849133917f4d24d81a1a6e09c37497747b4c9d67d858ce80438b54df0fa361a24dc742d9349181900360200190a26001600160a01b038116158015906108d75750306001600160a01b0316816001600160a01b0316635f9c01b16040518163ffffffff1660e01b8152600401602060405180830381865afa1580156108a7573d6000803e3d6000fd5b505050506040513d601f19601f820116820180604052508101906108cb9190615c4e565b6001600160a01b031614155b156108f557604051631b5de6eb60e01b815260040160405180910390fd5b6109008484846122cf565b50610918600160008051602061609983398151915255565b505050565b60008060608661092c816122f6565b610934612109565b60008690036109565760405163296db0d960e01b815260040160405180910390fd5b62010009546040805160608101909152600090808967ffffffffffffffff81111561098357610983615c6b565b6040519080825280602002602001820160405280156109ac578160200160208202803683370190505b5081526020018967ffffffffffffffff8111156109cb576109cb615c6b565b6040519080825280602002602001820160405280156109f4578160200160208202803683370190505b5081526020018967ffffffffffffffff811115610a1357610a13615c6b565b604051908082528060200260200182016040528015610a3c578160200160208202803683370190505b509052600454909150610a76610a5e6000805160206160798339815191525490565b60008051602061605983398151915254839190612332565b9650610a8683338d8d8d8c612372565b610a938a8a898e866123bc565b9550610aa9610aa288886120cf565b82906124fa565b600455604080830151835191519096506001600160a01b038d169160009133917f4a39dc06d4c0dbc64b70af90fd698a233a518aa5d07e595d983b8c0526c8f7fb91610af791908b90615c81565b60405180910390a4815160208301516040516001600160a01b038e169233927f87f1f9dcf5e8089a3e00811b6a008d8f30293a3da878cb1fe8c90ca376402f8a92610b43929190615c81565b60405180910390a38515610b8357610b83610b6a6000805160206160798339815191525490565b600080516020616059833981519152548891908b612534565b610b9a600160008051602061609983398151915255565b610bb183338d8d8d610bac8d8d6120cf565b612592565b505050509450945094915050565b610bc7612286565b7ff0c57e16840df040f15088dc2f81fe391c3923bec73e23a9662efc9c229c6a00805468010000000000000000810460ff16159067ffffffffffffffff16600081158015610c125750825b905060008267ffffffffffffffff166001148015610c2f5750303b155b905081158015610c3d575080155b15610c5b5760405163f92ee8a960e01b815260040160405180910390fd5b845467ffffffffffffffff191660011785558315610c8f57845468ff00000000000000001916680100000000000000001785555b610c976125d4565b610cc3610cb7610cb2886003546125e490919063ffffffff16565b612633565b8e8e8e8e8e8e8e612687565b8315610d0e57845468ff000000000000000019168555604051600181527fc7f505b2f371ae2175ee4913f4499e1f2633a7b5936321eed1cdaeb6115181d29060200160405180910390a15b50505050505050505050505050565b600061071c610d4a7fff057b3b4d4500dda208cde5d654db7aa2ec63ac10ab9f9956a1f569738427825490565b62ffffff841690612817565b60608382610d64828261284e565b8567ffffffffffffffff811115610d7d57610d7d615c6b565b604051908082528060200260200182016040528015610da6578160200160208202803683370190505b50925060005b86811015610e2157610dfc888883818110610dc957610dc9615ca6565b9050602002016020810190610dde9190615cbc565b878784818110610df057610df0615ca6565b905060200201356106f9565b848281518110610e0e57610e0e615ca6565b6020908102919091010152600101610dac565b505050949350505050565b6000610e36612109565b6201000954600454600554600086610e6d57610e68610e616000805160206160598339815191525490565b849061286e565b610e8d565b610e8d610e866000805160206160798339815191525490565b84906128a3565b90506000819003610eb157604051637df801c760e01b815260040160405180910390fd5b86610ebf85338984866128d2565b610ec984836124fa565b6003549094506000610ef97fff057b3b4d4500dda208cde5d654db7aa2ec63ac10ab9f9956a1f569738427825490565b90506000610f0683612936565b9050610f128342612942565b92505b62ffffff8116600090815260066020526040902054610f358186156129b8565b61105957610f4384836129e7565b935060008080610f578488888b898e612a6f565b91945092509050821561105557610f6e89846120cf565b9850610f7a8d836124fa565b9c506000610f95610f8a89612c95565b839061ffff16612ca5565b90508015610fb657610fa78b826124fa565b9a50610fb384826120cf565b93505b610fca83610fc487876124fa565b906120cf565b62ffffff87166000908152600660205260409020556001600160a01b038f16337fad7d6f97abf51ce18e17a38f4d70e975be9c0708474987bb3e26ad21bd93ca708887876110178e612d1b565b6040805162ffffff9586168152602081019490945283019190915290911660608201526080810186905260a0810185905260c00160405180910390a3505b5050505b600086900361106857506110b2565b60006110748684612d2c565b905062ffffff8116158061108c575062ffffff818116145b156110aa57604051631a6d7fb160e31b815260040160405180910390fd5b915050610f15565b60008990036110d45760405163439df85d60e11b815260040160405180910390fd5b6110de878a6120cf565b60045560058690556110f2600a8483612d4e565b92506110fe83826125e4565b600355831561112d576111286111206000805160206160598339815191525490565b8a908c612e69565b61114e565b61114e6111466000805160206160798339815191525490565b8a908c612ea9565b611165600160008051602061609983398151915255565b61117288338c878d612eba565b505050505050505092915050565b6003546078906000908190819081908161119982612f17565b905061ffff8116156112215760006111b2600a83612f27565b965090506111bf81612f85565b96506111ca81612f91565b94508464ffffffffff166000036111e057600095505b61ffff86161561121f576112118661ffff168361ffff168161120457611204615cd9565b600a916001910601612fb2565b905061121c81612f91565b93505b505b50509091929394565b611232612109565b61123a612286565b61124c60035488888888888888612687565b6107f5600160008051602061609983398151915255565b600080600080600080600080600354905061127d81612f85565b975061128881612fe2565b965061129381612ff2565b955061129e81613002565b94506112a981613012565b93506112b481612c95565b92506112bf81613023565b91505090919293949596565b600080600080600354905060006112e182612f17565b905061ffff811615806112fa5750428664ffffffffff16115b1561131157600080600094509450945050506113c3565b600061131f600a8389613034565b91985096509450905064ffffffffff80881690821610156113bf5761135561134684612936565b849064ffffffffff8a16613157565b925060006113638289615d05565b90508064ffffffffff1661137685612936565b62ffffff166113859190615d23565b61138f9088615d4f565b96508064ffffffffff166113a285612d1b565b62ffffff166113b19190615d23565b6113bb9087615d4f565b9550505b5050505b9193909250565b600080600080600060035490506113e081612d1b565b94506113eb8161316f565b93506113f681613180565b925061140181613191565b91505090919293565b6000611414612109565b7f00000000000000000000000000000000000000000000000000000000000000006001600160a01b0316634ccb20c06040518163ffffffff1660e01b8152600401602060405180830381865afa158015611472573d6000803e3d6000fd5b505050506040513d601f19601f820116820180604052508101906114969190615c4e565b6001600160a01b0316336001600160a01b0316146114c757604051630f8937c560e21b815260040160405180910390fd5b6005546001600160801b038116608082901c6000611522826114ea5760006114ed565b60015b60ff166000856001600160801b03161161150857600061150b565b60015b60ff169060801b6001600160801b03919091161790565b905061152e84826120cf565b945084156115b257600581905560045461154890866120cf565b60045560405185815233907f3f41a5ddc53701cc7db577ade4f1fca9838a8ec0b5ea50b9f0f5d17bc4554e329060200160405180910390a26115b26115996000805160206160798339815191525490565b6000805160206160598339815191525487919033612534565b505050506115cd600160008051602061609983398151915255565b90565b60006115dc8383612d2c565b9392505050565b60035460009083908290816116167fff057b3b4d4500dda208cde5d654db7aa2ec63ac10ab9f9956a1f569738427825490565b9050600061162383612936565b905061162f8342612942565b92505b62ffffff81166000908152600660205260408120546116529089156131a4565b90506001600160801b0381161561173857600061167462ffffff841685612817565b90506000876001600160801b0316836001600160801b0316116116975782611699565b875b90506116a586856129e7565b955060008a6116c8576116c36001600160801b0383168460806131c4565b6116dd565b6116dd6001600160801b0383166080856131fa565b905060006116eb8888613230565b905060006117026001600160801b0384168361324f565b905061170e8184615d70565b611718908d615d70565b9b50611724848c615d90565b9a50611730818b615d70565b995050505050505b856001600160801b031660000361174f5750611787565b600061175b8984612d2c565b905062ffffff81161580611773575062ffffff818116145b1561177f575050611787565b915050611632565b5050509250925092565b611799612109565b60035460006117a782612f17565b90508061ffff166000036117c6575060016117c28282613298565b6003555b6117d2600a82856132e7565b60405161ffff8416815233907fc975541e72d695746a43ba65745d79963a23082637c8f4609354d9bcf70194d69060200160405180910390a25050611824600160008051602061609983398151915255565b50565b6060863361183582826133d0565b61186a5760405163548f773d60e01b81526001600160a01b038084166004830152821660248201526044015b60405180910390fd5b611872612109565b85158061187f5750858414155b1561189d57604051633ab7870760e01b815260040160405180910390fd5b62010009546118b281338c8c8c8c8c8c61341c565b898767ffffffffffffffff8111156118cc576118cc615c6b565b6040519080825280602002602001820160405280156118f5578160200160208202803683370190505b5094506000805b89811015611a495760006119278c8c8481811061191b5761191b615ca6565b90506020020135613462565b905060008a8a8481811061193d5761193d615ca6565b9050602002013590508060000361196e57604051636996a92560e01b815262ffffff83166004820152602401611861565b62ffffff8216600081815260066020908152604080832054600190925290912054909161199d9088908561348d565b60006119aa83858461350e565b905060008190036119d55760405163fd44792960e01b815262ffffff86166004820152602401611861565b6119df83826120cf565b92508382036119f5576119f3600786613586565b505b62ffffff851660009081526006602052604090208390558b5181908d9088908110611a2257611a22615ca6565b6020908102919091010152611a3787826124fa565b965085600101955050505050506118fc565b50600454611a5790826120cf565b6004556040516000906001600160a01b0384169033907f4a39dc06d4c0dbc64b70af90fd698a233a518aa5d07e595d983b8c0526c8f7fb90611aa0908f908f908f908f90615dfb565b60405180910390a48a6001600160a01b0316336001600160a01b03167fa32e146844d6144a22e94c586715a1317d58a8aa3581ec33d040113ddcb243508c8c8a604051611aef93929190615e22565b60405180910390a3611b29611b106000805160206160798339815191525490565b600080516020616059833981519152548391908e612534565b611b40600160008051602061609983398151915255565b611b508333848e8e8e8e8e613628565b50505050509695505050505050565b611b67612109565b611b6f612286565b600354611b83611b7e82612633565b61366e565b600355337f282afaeeae84c1d85ad1424a3aa2ddbedaeefca3b1e53d889d15265fe44db7fc611bb183613180565b611bba8461316f565b6040805162ffffff93841681529290911660208301520160405180910390a250611bf1600160008051602061609983398151915255565b565b60055460009081906001600160801b0381169060801c610770565b600061073a6000805160206160598339815191525490565b600061073a600354612936565b611c3e3383836136a3565b5050565b6000808080611c5a6001600160801b03871686613758565b6003549091506000611c8a7fff057b3b4d4500dda208cde5d654db7aa2ec63ac10ab9f9956a1f569738427825490565b90506000611c9783612936565b9050611ca38342612942565b92505b62ffffff8116600090815260066020526040902054611cc6818a156129b8565b611d3357611cd484836129e7565b935060008080611ce88488888f898d612a6f565b919450925090508215611d2f57611cff88846120cf565b9750611d0c828d156131a4565b611d16908b615d70565b9950611d22818d6131a4565b611d2c908a615d70565b98505b5050505b6000859003611d425750611d7a565b6000611d4e8a84612d2c565b905062ffffff81161580611d66575062ffffff818116145b15611d72575050611d7a565b915050611ca6565b611d8484896131a4565b9650505050509250925092565b60006115dc83836133d0565b611da5612109565b6000839003611dc75760405163727ab02160e11b815260040160405180910390fd5b62010009546004546000611dda86613769565b9050611de883338989613871565b611e1a611e016000805160206160798339815191525490565b600080516020616059833981519152548891908a612534565b6000806001600160a01b038916631faa6b8760e01b33611e466000805160206160798339815191525490565b600080516020616059833981519152548c888d8d604051602401611e709796959493929190615e71565b60408051601f198184030181529181526020820180516001600160e01b03167fffffffff00000000000000000000000000000000000000000000000000000000909416939093179092529051611ec69190615eb2565b6000604051808303816000865af19150503d8060008114611f03576040519150601f19603f3d011682016040523d82523d6000602084013e611f08565b606091505b5091509150811580611f1c57508051602014155b80611f5a57507fab5c473bce5960a8292e9c8db82f9272504caab4e9ef09553fc112f82b62a3c281806020019051810190611f579190615ece565b14155b15611f7857604051634a57011360e01b815260040160405180910390fd5b6000611fac611f936000805160206160798339815191525490565b6000805160206160598339815191525460009190612332565b9050611fc2611fbb86866124fa565b82906138c6565b15611fe057604051630e3c717160e11b815260040160405180910390fd5b6000611fec82876120cf565b600483905560055490915061200190826124fa565b6005556003546001600160a01b038c169033907fd126bd9d94daca8e55ffd8283fac05394aec8326c6b1639e1e8a445fbe8bbc7d9061203f90612936565b6040805162ffffff9092168252602082018f905281018590526060810185905260800160405180910390a3612081600160008051602061609983398151915255565b61208e87338d888561390a565b5050505050505050505050565b600061071c6120c87fff057b3b4d4500dda208cde5d654db7aa2ec63ac10ab9f9956a1f569738427825490565b8390613966565b808203828111806120eb57506001600160801b03808416908216115b1561071c5760405163e599af5560e01b815260040160405180910390fd5b60008051602061609983398151915280546001190161213b57604051633ee5aeb560e01b815260040160405180910390fd5b60029055565b75010000000000000000000000000000000000000000008816156121d7576121d7886379c8ccf760e01b898989898989896040516024016121889796959493929190615ee7565b60408051601f198184030181529190526020810180516001600160e01b03167fffffffff00000000000000000000000000000000000000000000000000000000909316929092179091526139ab565b5050505050505050565b85336121ed82826133d0565b61221d5760405163548f773d60e01b81526001600160a01b03808416600483015282166024820152604401611861565b6121d7888888888888613a0f565b600160008051602061609983398151915255565b75020000000000000000000000000000000000000000008816156121d7576121d7886367ddb27860e01b898989898989896040516024016121889796959493929190615ee7565b336001600160a01b037f00000000000000000000000000000000000000000000000000000000000000001614611bf157604051632486085360e01b815260040160405180910390fd5b82156109185761091883634e430b5a60e01b85858560405160240161218893929190615f3d565b6001600160a01b038116158061231457506001600160a01b03811630145b15611824576040516345c210e760e11b815260040160405180910390fd5b600061236a84610fc461234485613b72565b61234d87613b72565b6001600160801b03169060801b6001600160801b03919091161790565b949350505050565b741000000000000000000000000000000000000000008616156123b4576123b486630d4abdb360e01b8787878787604051602401612188959493929190615f57565b505050505050565b6000806123e77fff057b3b4d4500dda208cde5d654db7aa2ec63ac10ab9f9956a1f569738427825490565b60035490915060006123f882612936565b905086935060005b888110156124ed576000806124368a8d8d8681811061242157612421615ca6565b90506020020135613be190919063ffffffff16565b91509150600080600061244c898886888c613c2a565b9194509250905061245d8a836120cf565b99508362ffffff168b60000151878151811061247b5761247b615ca6565b602002602001018181525050808b60200151878151811061249e5761249e615ca6565b602002602001018181525050828b6040015187815181106124c1576124c1615ca6565b6020026020010181815250506124dd8c8562ffffff1685613e38565b8560010195505050505050612400565b5050505095945050505050565b8181018281108061251657506001600160801b03808416908216105b1561071c576040516316692de960e01b815260040160405180910390fd5b6001600160801b038416608085901c8115612566576125666001600160a01b038616846001600160801b038516613e85565b6001600160801b038116156123b4576123b46001600160a01b038516846001600160801b038416613e85565b742000000000000000000000000000000000000000008616156123b4576123b486637a51a4c660e01b8787878787604051602401612188959493929190615f57565b6125dc613ed6565b611bf1613f24565b60007cffffffffffffffffffffffffffffffffffffffffffffffffffffffffff83167fffffff000000000000000000000000000000000000000000000000000000000060e884901b16176115dc565b60008061263f83612936565b90507fffffffffffffffffffff000000ffffffffffffffffffffffffffffffffffffff831675ffffff00000000000000000000000000000000000000609883901b16176115dc565b61ffff871615801561269b575061ffff8616155b80156126a9575061ffff8516155b80156126b7575061ffff8416155b80156126c6575062ffffff8316155b80156126d4575061ffff8216155b80156126e3575062ffffff8116155b15612701576040516331375e0360e11b815260040160405180910390fd5b6127118888888888888888613f2c565b9750600061273d7fff057b3b4d4500dda208cde5d654db7aa2ec63ac10ab9f9956a1f569738427825490565b9050600061274b8a84614045565b9050600061275982846140a3565b61276383856140e3565b61276d9190615f96565b905067016345785d8a0000811115612798576040516372db9c0b60e11b815260040160405180910390fd5b50505060038890556040805161ffff8981168252888116602083015287811682840152868116606083015262ffffff868116608084015290851660a0830152831660c0820152905133917fd09e5ddc721ff14c5c1e66a305cbba1fd70b82c5232bc391aad6f55e62e4b046919081900360e00190a25050505050505050565b600061271061ffff60801b608084901b1604600160801b0162ffffff8416627fffff19016128458282614107565b95945050505050565b808214611c3e576040516340311ffd60e11b815260040160405180910390fd5b60008061287b8460801c90565b905061236a8161288a85613b72565b6128949190615d90565b6001600160801b031660801b90565b60006001600160801b03831661236a816128bc85613b72565b6128c69190615d90565b6001600160801b031690565b7401000000000000000000000000000000000000000085161561292f576040516001600160a01b0380861660248301528416604482015282151560648201526084810182905261292f90869063feee373560e01b9060a401612188565b5050505050565b600060e882901c61071c565b60008061294e84613191565b61295f9064ffffffffff1684615fa9565b905061296a84612fe2565b61ffff1681106129ae5761297d84612633565b935061298884612ff2565b61ffff1681106129a25761299d846000614367565b6129ab565b6129ab8461366e565b93505b61236a84846143d5565b6000816129d8576129c98360801c90565b6001600160801b0316156115dc565b50506001600160801b03161590565b6000806129f384613180565b62ffffff169050600080828562ffffff1611612a16578462ffffff168303612a1f565b828562ffffff16035b91506127108202612a2f8761316f565b62ffffff160190506000612a4287613023565b62ffffff169050808211612a565781612a58565b805b9150612a648783614045565b979650505050505050565b6000808080612a8362ffffff871689612817565b90506000612a928b89156131a4565b9050600088612abd57612ab8612ab36001600160801b0384168560806131c4565b61442e565b612ad5565b612ad5612ab36001600160801b0384166080866131fa565b90506000612ae38c8c613230565b90506000612afa6001600160801b0384168361324f565b9050612b068184615d70565b92506000612b148a8d6131a4565b9050600080856001600160801b0316836001600160801b031610612b3f575084915082905085612bb5565b612b526001600160801b03841686614458565b91506000612b608385615d90565b6001600160801b031690508e612b8457612b7f612ab38260808c61448f565b612b93565b612b93612ab3828b60806144b9565b9150876001600160801b0316826001600160801b03161115612bb3578791505b505b8d612bef57612bcd836001600160801b031660801b90565b6001600160801b038216612bea846001600160801b031660801b90565b612c17565b6001600160801b038316612c0c826001600160801b031660801b90565b6001600160801b0384165b809b50819c50829d50505050505050505050507d09745258e83de0d0f4e400fce79aca44773dd596d31a6d336ca2a775b611612c69612c6385610fc4888f6124fa90919063ffffffff16565b83614527565b1115612c885760405163a2d7652760e01b815260040160405180910390fd5b5096509650969350505050565b600061071c82604e1c613fff1690565b6000816001600160801b0316600003612cc05750600061071c565b6127106001600160801b038316811015612ced57604051631514a94960e21b815260040160405180910390fd5b6001600160801b03848116840282900490608086811c86028490049183169082901b175b9695505050505050565b600061071c8260701c620fffff1690565b600082612d4357612d3e600783614543565b6115dc565b6115dc60078361468f565b600080612d5a84612f17565b90508061ffff16600003612d7157839150506115dc565b6000612d7d8683612fb2565b90506000612d8a826147bf565b90506000612d97836147cb565b612da49060ff1683615fbc565b90508064ffffffffff16612db7426147da565b64ffffffffff161115612e5d576000806000612dfc8464ffffffffff164203612ddf8c612936565b612de88d612d1b565b612df28e8e614802565b8a93929190614832565b9250925092506000612e0d87612f85565b905064ffffffffff861642036078811115612e3d575096879006600101964295506000612e3a8c8a613298565b9b505b612e4b82868686858c614897565b97505050505050612e5d88858561493b565b50949695505050505050565b6000612e758460801c90565b90506001600160801b03811615612ea357612ea36001600160a01b038416836001600160801b038416613e85565b50505050565b60006001600160801b038416612e75565b7402000000000000000000000000000000000000000085161561292f576040516001600160a01b0380861660248301528416604482015282151560648201526084810182905261292f9086906353e8079b60e01b9060a401612188565b600061071c8260d81c61ffff1690565b600080612f348484612fb2565b9150612f3f82612f85565b90508061ffff168361ffff1614612f7e57612f62612f5d8583612fb2565b612f85565b90508061ffff168361ffff1611612f795780612f7b565b825b90505b9250929050565b600061ffff821661071c565b6000612f9c826147cb565b60ff16612fa8836147bf565b61071c9190615fbc565b600081612fbe81614968565b8361ffff60001985018116908110612fd857612fd8615ca6565b0154949350505050565b600061071c8260101c610fff1690565b600061071c82601c1c610fff1690565b600061071c8260281c613fff1690565b600061071c8260361c62ffffff1690565b600061071c82605c1c620fffff1690565b6000806000806000806130478989612f27565b909250905064ffffffffff871661307e8a613062848c615fda565b61ffff1661ffff811061307757613077615ca6565b0154612f91565b64ffffffffff1611156130a457604051631c4e7f9560e21b815260040160405180910390fd5b6130ad82612f91565b95508664ffffffffff168664ffffffffff16116130ef57856130ce8361498d565b6130d7846149a3565b6130e0856149b9565b9550955095509550505061314e565b8695506000806131018b8b8b866149cf565b9150915060008961311183612f91565b61311b9190615d05565b9050600061312884612f91565b613132908c615d05565b905061314084848484614b21565b919a50985096505050505050505b93509350935093565b60006131638483612942565b935061236a84846129e7565b600061071c8260841c620fffff1690565b600061071c8260981c62ffffff1690565b600061071c8260b01c64ffffffffff1690565b6000816131b557612d3e8360801c90565b6001600160801b0383166115dc565b60006131d18484846144b9565b9050600160ff83161b806131e7576131e7615cd9565b838509156115dc5761236a600182615f96565b600061320784848461448f565b9050818061321757613217615cd9565b600160ff85161b8509156115dc5761236a600182615f96565b60006115dc61323f84846140a3565b61324985856140e3565b0161442e565b60008161325b81614c85565b6001600160801b03808416670de0b6b3a7640000819003918291600019918816028201018161328c5761328c615cd9565b049250505b5092915050565b60007fffffff0000ffffffffffffffffffffffffffffffffffffffffffffffffffffff83167cffff00000000000000000000000000000000000000000000000000000060d884901b16176115dc565b60006132f38484612fb2565b9050600061330082612f85565b90508261ffff168161ffff161061332a57604051632c57574160e21b815260040160405180910390fd5b60008461ffff168261ffff161461335b5761ffff8216156133545761334f8683612fb2565b61335d565b600061335d565b825b9050600061336a82612f85565b61ffff169050808661ffff16116133815780613387565b8561ffff165b905061ffff83165b8561ffff168110156133b95781888261ffff81106133af576133af615ca6565b015560010161338f565b506107f5878761ffff86811688189089161761493b565b6000816001600160a01b0316836001600160a01b031614806115dc5750506001600160a01b03918216600090815260026020908152604080832093909416825291909152205460ff1690565b744000000000000000000000000000000000000000008816156121d7576121d78863ea9db9d360e01b898989898989896040516024016121889796959493929190615ee7565b8062ffffff8116811461348857604051639b63641560e01b815260040160405180910390fd5b919050565b6001600160a01b0383166000908152602081815260408083208584529182905290912054828110156134ea57604051625b387760e31b81526001600160a01b03861660048201526024810185905260448101849052606401611861565b60009384526001602090815260408086208054869003905592905292209103905550565b60006001600160801b038416608085901c828083156135415761353e612ab3886001600160801b03871689614cb7565b91505b6001600160801b0383161561356a57613567612ab3886001600160801b03861689614cb7565b90505b608081901b6001600160801b0383161798975050505050505050565b61ffff600882901c166000818152600284016020526040812054909190600160ff85161b19811680821461361c57600083815260028701602052604081208290558190036136105750600882901c6000818152600187810160205260408220805460ff87169290921b1990911690819055919082900361360e578654600160ff83161b191687555b505b6001935050505061071c565b50600095945050505050565b748000000000000000000000000000000000000000008816156121d7576121d78863fdc2725760e01b898989898989896040516024016121889796959493929190615ee7565b60008061367a83612d1b565b62ffffff169050600061368c84613002565b61ffff169050612710828202046128458582614367565b826136ad816122f6565b826001600160a01b0316846001600160a01b0316036136ea5760405163782ee70760e01b81526001600160a01b0385166004820152602401611861565b6001600160a01b03848116600081815260026020908152604080832094881680845294825291829020805460ff191687151590811790915591519182527f17307eab39ab6107e8899845ad3d59bd9653f200f220920489ca2b5937696c31910160405180910390a350505050565b6000816131b557612d3e8360801b90565b6000807f00000000000000000000000000000000000000000000000000000000000000006001600160a01b031663fd90c2be6040518163ffffffff1660e01b8152600401602060405180830381865afa1580156137ca573d6000803e3d6000fd5b505050506040513d601f19601f820116820180604052508101906137ee9190615ece565b90506001600160801b0383811690608085901c90670de0b6b3a763ffff9061382790670de0b6b3a7640000908616850283015b0461442e565b9250613859670de0b6b3a764000082866001600160801b0316856001600160801b031602018161382157613821615cd9565b915050608081901b6001600160801b03831617612845565b74040000000000000000000000000000000000000000841615612ea3576040516001600160a01b0380851660248301528316604482015260648101829052612ea390859063505d903360e01b90608401612188565b60006001600160801b0383811690608085811c9185169085901c81841080612a645750806001600160801b0316836001600160801b03161094505050505092915050565b7408000000000000000000000000000000000000000085161561292f576040516001600160a01b03808616602483015284166044820152606481018390526084810182905261292f9086906360bed5f360e01b9060a401612188565b600061271061ffff60801b608084901b1604600160801b018161398882614cd7565b61399186614cd7565b61399b9190615ffb565b9050612845816280000001613462565b600080839050602083015160e01c602060008551602087016000865af192503d1515831516156139df573d6000803e3d6000fd5b8060005160e01c14601f3d1116831692505081612ea357604051636c93cb9b60e01b815260040160405180910390fd5b8281613a1b828261284e565b86613a25816122f6565b6001600160a01b03808a16600090815260208190526040808220928b1682528120905b88811015613b095760008a8a83818110613a6457613a64615ca6565b9050602002013590506000898984818110613a8157613a81615ca6565b600085815260208981526040909120549102929092013592505081811015613ade578e83836040516358b4690f60e01b8152600401611861939291906001600160a01b039390931683526020830191909152604082015260600190565b6000928352602086815260408085209284900390925585905290912080549091019055600101613a48565b50896001600160a01b03168b6001600160a01b0316336001600160a01b03167f4a39dc06d4c0dbc64b70af90fd698a233a518aa5d07e595d983b8c0526c8f7fb8c8c8c8c604051613b5d9493929190615dfb565b60405180910390a45050505050505050505050565b6040516370a0823160e01b815230600482015260009061071c906001600160a01b038416906370a0823190602401602060405180830381865afa158015613bbd573d6000803e3d6000fd5b505050506040513d601f19601f82011682018060405250810190612ab39190615ece565b6000806000806000613bf287614de4565b670de0b6b3a764000060808a811c90930281900490921b6001600160801b03998a169093029190910490971617979596505050505050565b62ffffff83166000818152600660205260408120549091829182918290613c51908b612817565b90506000613c708962ffffff1660009081526001602052604090205490565b9050613c7e83898484614e87565b909650945084935062ffffff808b16908a1603613db657613ca0878a42613157565b96506000613cb284898e89868c61500d565b90508015613db0576000613cd084613cca89856120cf565b90614527565b90506000613ceb613ce08b612c95565b849061ffff16612ca5565b90508015613d1157613cfd87826120cf565b600554909750613d0d90826124fa565b6005555b6000613d2b86613cca613d2487866120cf565b8a906124fa565b9050613d38838683614cb7565b9950613d46600a8c8f612d4e565b9a508a600381905550336001600160a01b03167f3f0b46725027bb418b2005f4683538eccdbcdf1de2b8649a29dbd9c507d16ff48e8685604051613da49392919062ffffff9390931683526020830191909152604082015260600190565b60405180910390a25050505b50613dc1565b613dc1858b8b615102565b851580613dcc575083155b15613df157604051634c98d35760e11b815262ffffff8a166004820152602401611861565b80600003613e0657613e0460078a615168565b505b613e1083856124fa565b62ffffff90991660009081526006602052604090209890985550929891975095509350505050565b60008281526001602052604081208054839290613e56908490615f96565b90915550506001600160a01b039092166000908152602081815260408083209383529290522080549091019055565b604080516001600160a01b038416602482015260448082018490528251808303909101815260649091019091526020810180516001600160e01b031663a9059cbb60e01b179052612ea384826151f5565b7ff0c57e16840df040f15088dc2f81fe391c3923bec73e23a9662efc9c229c6a005468010000000000000000900460ff16611bf157604051631afcd79f60e31b815260040160405180910390fd5b61222b613ed6565b60008561ffff168761ffff161180613f495750610fff8661ffff16115b80613f5957506127108561ffff16115b80613f6957506109c48361ffff16115b80613f7b5750620fffff8262ffffff16115b15613f9957604051631c07203f60e01b815260040160405180910390fd5b605c82901b6dfffff00000000000000000000000166dffffffffffffffffffffffffffff1991821661ffff8a1690811760108a901b630fff000016908117601c8a901b64fff00000001690811760288a901b663fff00000000001690811760368a901b693fffffc000000000000016908117604e8a901b6b0fffc000000000000000000016908117871797949095179092171717909117909117908a16175b9998505050505050505050565b6000620fffff8262ffffff16111561407057604051631c07203f60e01b815260040160405180910390fd5b700fffff0000000000000000000000000000198316700fffff0000000000000000000000000000607084901b16176115dc565b6000806140af84613012565b62ffffff16905080156132915760008361ffff166140cc86612d1b565b62ffffff160290506064606382800284020161328c565b60008161ffff166140f384612f85565b61ffff16026402540be40002905092915050565b6000806000836000036141235750600160801b915061071c9050565b50826000811215614135579015906000035b6210000081101561432557600160801b9250846001600160801b0381111561415f57911591600019045b60018216156141705792830260801c925b800260801c60028216156141865792830260801c925b800260801c600482161561419c5792830260801c925b800260801c60088216156141b25792830260801c925b800260801c60108216156141c85792830260801c925b800260801c60208216156141de5792830260801c925b800260801c60408216156141f45792830260801c925b8002608090811c9082161561420b5792830260801c925b800260801c6101008216156142225792830260801c925b800260801c6102008216156142395792830260801c925b800260801c6104008216156142505792830260801c925b800260801c6108008216156142675792830260801c925b800260801c61100082161561427e5792830260801c925b800260801c6120008216156142955792830260801c925b800260801c6140008216156142ac5792830260801c925b800260801c6180008216156142c35792830260801c925b800260801c620100008216156142db5792830260801c925b800260801c620200008216156142f35792830260801c925b800260801c6204000082161561430b5792830260801c925b800260801c620800008216156143235792830260801c925b505b8260000361435057604051631dba598d60e11b81526004810186905260248101859052604401611861565b8161435b5782612845565b61284583600019616029565b6000620fffff8262ffffff16111561439257604051631c07203f60e01b815260040160405180910390fd5b7fffffffffffffffffffffffffff00000fffffffffffffffffffffffffffffffff831672fffff000000000000000000000000000000000608484901b16176115dc565b6000806143e1836147da565b90507fffffffffff0000000000ffffffffffffffffffffffffffffffffffffffffffff84167affffffffff0000000000000000000000000000000000000000000060b083901b161761236a565b806001600160801b038116811461348857604051632f45db3d60e21b815260040160405180910390fd5b60008161446481614c85565b670de0b6b3a7640000670de0b6b3a763ffff6001600160801b03868116908616020104949350505050565b600060ff831684811b9061ffff6101008290031686901c90612d119087906001901b868585615265565b60008060006144c88686615311565b91509150816000146144de578360ff1682901c92505b801561451e57600160ff85161b811061450a57604051638e471a8960e01b815260040160405180910390fd5b8360ff166101000361ffff1681901b830192505b50509392505050565b60006001600160801b038316608084901c612845828286615330565b60008061ffff600884901c1660ff8085169081146145985760008281526002870160205260408120549350614578848361539b565b905060001981146145965760089290921b909117925061071c915050565b505b5060ff80821690600883901c90821461461257600081815260018801602052604081205494506145c8858461539b565b9050600019811461461057600882901b8117600081815260028a016020526040902054955093506145f8856153aa565b60ff1660088560001c901b179550505050505061071c565b505b60ff818116925082146146825786549350600061462f858461539b565b905060001981146146805760008181526001890160205260409020549450905080614659856153aa565b60ff16600883901b17600081815260028a016020526040902054955093506145f8856153aa565b505b5060009695505050505050565b60008061ffff600884901c1660ff841680156146e257600082815260028701602052604081205493506146c28483615446565b905060001981146146e05760089290921b909117925061071c915050565b505b5060ff8116600882901c8115614741576000818152600188016020526040812054945061470f8584615446565b9050600019811461473f57600882901b8117600081815260028a016020526040902054955093506145f885615456565b505b60ff8116915081156147b05786549350600061475d8584615446565b905060001981146147ae576000818152600189016020526040902054945090508061478785615456565b60ff16600883901b17600081815260028a016020526040902054955093506145f885615456565b505b5062ffffff9695505050505050565b600060d882901c61071c565b600061071c8260d01c60ff1690565b8064ffffffffff81168114613488576040516350dbfc8760e11b815260040160405180910390fd5b60008061480e84612936565b90508062ffffff168362ffffff16116148295782810361236a565b90910392915050565b64ffffffffff841662ffffff8481168202918482168102918416026148568861498d565b6148609084615d4f565b925061486b886149a3565b6148759083615d4f565b9150614880886149b9565b61488a9082615d4f565b9050955095509592505050565b60d082901b7aff000000000000000000000000000000000000000000000000000016609084901b79ffffffffffffffff00000000000000000000000000000000000016605086901b71ffffffffffffffff0000000000000000000016601088901b69ffffffffffffffff00001661ffff8a161717171760d882901b7fffffffffff000000000000000000000000000000000000000000000000000000168117612a64565b8161494581614968565b818461ffff6000198601811690811061496057614960615ca6565b015550505050565b8061ffff166000036118245760405163944e113960e01b815260040160405180910390fd5b600061071c8260101c67ffffffffffffffff1690565b600061071c8260501c67ffffffffffffffff1690565b600061071c8260901c67ffffffffffffffff1690565b60008080806149df60018661603d565b61ffff16905060008060008961ffff1690505b838511614a9d5760006001614a078688615f96565b901c9050888183089a508b61ffff808d16908110614a2757614a27615ca6565b01549350614a3484612f91565b92508964ffffffffff168364ffffffffff161115614a5e57614a57600182615fa9565b9450614a97565b8964ffffffffff168364ffffffffff161015614a8657614a7f816001615f96565b9550614a97565b838497509750505050505050614b18565b506149f2565b8164ffffffffff168964ffffffffff161015614aee578961ffff16600003614ac3578799505b8a61ffff6000198c018116908110614add57614add615ca6565b015483965096505050505050614b18565b8760018b089950828b61ffff808d16908110614b0c57614b0c615ca6565b01549650965050505050505b94509492505050565b600080600080614b308861498d565b67ffffffffffffffff1690506000614b47896149a3565b67ffffffffffffffff1690506000614b5e8a6149b9565b67ffffffffffffffff1690508664ffffffffff16600003614b855791945092509050614c7b565b6000614b908a61498d565b67ffffffffffffffff1690506000614ba78b6149a3565b67ffffffffffffffff1690506000614bbe8c6149b9565b67ffffffffffffffff1690508a64ffffffffff16600003614be95791975095509350614c7b92505050565b6000614bff64ffffffffff808d16908e16615f96565b9050808b64ffffffffff1685028d64ffffffffff1689020181614c2457614c24615cd9565b049950808b64ffffffffff1684028d64ffffffffff1688020181614c4a57614c4a615cd9565b049850808b64ffffffffff1683028d64ffffffffff1687020181614c7057614c70615cd9565b049750505050505050505b9450945094915050565b67016345785d8a0000816001600160801b0316111561182457604051638630bc6b60e01b815260040160405180910390fd5b6000806000614cc68686615311565b91509150612d118686868585615265565b600081600103614cea5750607f19919050565b81600003614d0b5760405163125946cf60e11b815260040160405180910390fd5b60019190911c9060006f800000000000000000000000000000008310614d3357506001614d4e565b5060001982600160fe1b81614d4a57614d4a615cd9565b0492505b6000614d5d607f85901c615456565b707f80000000000000000000000000000000607f82901b16935060ff16905083811c6f800000000000000000000000000000008114614dd9576f400000000000000000000000000000005b6000811315614dd757908002607f1c90600160801b8210614dcf579384019360019190911c905b60011d614da8565b505b50500260011b919050565b60008080614dfc8460581c67ffffffffffffffff1690565b9250614e128460181c67ffffffffffffffff1690565b91505062ffffff831672ffffffffffffffffffffffffffffffffffffff841180614e4d5750670de0b6b3a76400008367ffffffffffffffff16115b80614e695750670de0b6b3a76400008267ffffffffffffffff16115b156113c357604051637752557f60e11b815260040160405180910390fd5b6000806001600160801b038516608086901c82614ea5838389615330565b905080600003614ebf575060009350839250614b18915050565b6000614ecb8a89614527565b9050801580614ed8575086155b15614ef457614ee6826154f1565b899550955050505050614b18565b614eff828883614cb7565b95506000614f0e87838a615563565b905080831115614fad576000614f248285615fa9565b9050600160801b8110614f6557608081901c858111614f435780614f45565b855b9050614f518187615fa9565b9550614f61608082901b83615fa9565b9150505b898110614f99576000614f788b83616029565b9050868111614f875780614f89565b865b9050614f958188615fa9565b9650505b608085901b6001600160801b038716179a50505b7d09745258e83de0d0f4e400fce79aca44773dd596d31a6d336ca2a775b611614fdf614fd98d8d6124fa565b8b614527565b1115614ffe5760405163a2d7652760e01b815260040160405180910390fd5b50949997985050505050505050565b60008160000361501f57506000612d11565b6001600160801b038416608085901c60008061505161075c6150418d8b6124fa565b8861504c818c615f96565b61350e565b91509150836001600160801b0316826001600160801b031611156150b457600061509761507e8c8c613230565b6150888487615d90565b6001600160801b031690615580565b90506150ac816001600160801b031660801b90565b9550506150f4565b826001600160801b0316816001600160801b031611156150f45760006150e76150dd8c8c613230565b6150888588615d90565b6001600160801b03169550505b505050509695505050505050565b8162ffffff168162ffffff1610801561511e5750608083901b15155b8061514357508162ffffff168162ffffff1611801561514357506001600160801b0383115b156109185760405163227bd87160e21b815262ffffff82166004820152602401611861565b61ffff600882901c166000818152600284016020526040812054909190600160ff85161b811780821461361c576000838152600287016020526040812082905582900361361057600883901c6000818152600180890160205260408220805460ff88169290921b82179055935083900361360e578654600160ff83161b178755506001935050505061071c565b600080600052602060008351602085016000875af19050808015615236573d80156152295760016000511483169250615230565b843b151592505b50615246565b3d15615246573d6000803e3d6000fd5b50806109185760405163197138bd60e11b815260040160405180910390fd5b6000816000036152865783838161527e5761527e615cd9565b049050612845565b8382106152a6576040516313eae71560e01b815260040160405180910390fd5b600084868809600186198101871660008190038190049091018683119095039490940294038390049390931760029290940460038102831880820284030280820284030280820284030280820284030280820284030290810290920390910292909202949350505050565b6000806000198385098385029250828110838203039150509250929050565b6000831561536b57508083028184828161534c5761534c615cd9565b041461536b576040516363f1e01f60e01b815260040160405180910390fd5b82156115dc5760809290921b918201828110156115dc576040516363f1e01f60e01b815260040160405180910390fd5b60006115dc83600184016155c1565b60008160801b80156153be57608091508092505b8260401b905080156153d1579150604001815b8260201b905080156153e4579150602001815b8260101b905080156153f7579150601001815b8260081b9050801561540a579150600801815b8260041b9050801561541d579150600401815b8260021b90508015615430579150600201815b508160011b1561543e576001015b60ff03919050565b60006115dc8360001984016155ef565b60006001600160801b0382111561546f5750608090811c905b67ffffffffffffffff82111561548757604091821c91015b63ffffffff82111561549b57602091821c91015b61ffff8211156154ad57601091821c91015b60ff8211156154be57600891821c91015b600f8211156154cf57600491821c91015b60038211156154e057600291821c91015b600182111561348857600101919050565b60008160000361550357506000919050565b600061550e83615456565b600181811c607f1681811b9086901c01811c80860401811c80860401811c80860401811c80860401811c80860401811c80860401901c9384900493925060ff16905082821061555d57826115dc565b50919050565b6000615570848484614cb7565b905081806131e7576131e7615cd9565b60008161558c81614c85565b6ec097ce7bc90715b34b9f1000000000806001600160801b03868116908616908102670de0b6b3a7640000919091010261328c565b60ff81169190911c90600082156155e557816155dc846153aa565b0160ff166115dc565b5060001992915050565b60ff8181031691821b916000908315615615578061560c85615456565b60ff160361236a565b506000199392505050565b6001600160a01b038116811461182457600080fd5b6000806040838503121561564857600080fd5b823561565381615620565b946020939093013593505050565b60005b8381101561567c578181015183820152602001615664565b50506000910152565b60208152600082518060208401526156a4816040850160208701615661565b601f01601f19169190910160400192915050565b803562ffffff8116811461348857600080fd5b6000602082840312156156dd57600080fd5b6115dc826156b8565b60008083601f8401126156f857600080fd5b50813567ffffffffffffffff81111561571057600080fd5b6020830191508360208260051b8501011115612f7e57600080fd5b6000806000806000806080878903121561574457600080fd5b863561574f81615620565b9550602087013561575f81615620565b9450604087013567ffffffffffffffff8082111561577c57600080fd5b6157888a838b016156e6565b909650945060608901359150808211156157a157600080fd5b506157ae89828a016156e6565b979a9699509497509295939492505050565b60008083601f8401126157d257600080fd5b50813567ffffffffffffffff8111156157ea57600080fd5b602083019150836020828501011115612f7e57600080fd5b60008060006040848603121561581757600080fd5b83359250602084013567ffffffffffffffff81111561583557600080fd5b615841868287016157c0565b9497909650939450505050565b6000806000806060858703121561586457600080fd5b843561586f81615620565b9350602085013567ffffffffffffffff81111561588b57600080fd5b615897878288016156e6565b90945092505060408501356158ab81615620565b939692955090935050565b600081518084526020808501945080840160005b838110156158e6578151875295820195908201906001016158ca565b509495945050505050565b83815282602082015260606040820152600061284560608301846158b6565b803561ffff8116811461348857600080fd5b600080600080600080600080610100898b03121561593f57600080fd5b61594889615910565b975061595660208a01615910565b965061596460408a01615910565b955061597260608a01615910565b945061598060808a016156b8565b935061598e60a08a01615910565b925061599c60c08a016156b8565b91506159aa60e08a016156b8565b90509295985092959890939650565b600080600080604085870312156159cf57600080fd5b843567ffffffffffffffff808211156159e757600080fd5b6159f3888389016156e6565b90965094506020870135915080821115615a0c57600080fd5b50615a19878288016156e6565b95989497509550505050565b6020815260006115dc60208301846158b6565b8035801515811461348857600080fd5b60008060408385031215615a5b57600080fd5b615a6483615a38565b91506020830135615a7481615620565b809150509250929050565b600080600080600080600060e0888a031215615a9a57600080fd5b615aa388615910565b9650615ab160208901615910565b9550615abf60408901615910565b9450615acd60608901615910565b9350615adb608089016156b8565b9250615ae960a08901615910565b9150615af760c089016156b8565b905092959891949750929550565b600060208284031215615b1757600080fd5b813564ffffffffff811681146115dc57600080fd5b60008060408385031215615b3f57600080fd5b615b4883615a38565b9150612f7b602084016156b8565b60008060408385031215615b6957600080fd5b82356001600160801b0381168114615b8057600080fd5b9150612f7b60208401615a38565b600060208284031215615ba057600080fd5b5035919050565b600060208284031215615bb957600080fd5b6115dc82615910565b60008060408385031215615bd557600080fd5b8235615b8081615620565b60008060408385031215615bf357600080fd5b8235615a6481615620565b60008060008060608587031215615c1457600080fd5b8435615c1f81615620565b935060208501359250604085013567ffffffffffffffff811115615c4257600080fd5b615a19878288016157c0565b600060208284031215615c6057600080fd5b81516115dc81615620565b634e487b7160e01b600052604160045260246000fd5b604081526000615c9460408301856158b6565b828103602084015261284581856158b6565b634e487b7160e01b600052603260045260246000fd5b600060208284031215615cce57600080fd5b81356115dc81615620565b634e487b7160e01b600052601260045260246000fd5b634e487b7160e01b600052601160045260246000fd5b64ffffffffff82811682821603908082111561329157613291615cef565b67ffffffffffffffff818116838216028082169190828114615d4757615d47615cef565b505092915050565b67ffffffffffffffff81811683821601908082111561329157613291615cef565b6001600160801b0381811683821601908082111561329157613291615cef565b6001600160801b0382811682821603908082111561329157613291615cef565b81835260007f07ffffffffffffffffffffffffffffffffffffffffffffffffffffffffffffff831115615de257600080fd5b8260051b80836020870137939093016020019392505050565b604081526000615e0f604083018688615db0565b8281036020840152612a64818587615db0565b604081526000615e36604083018587615db0565b8281036020840152612d1181856158b6565b81835281816020850137506000828201602090810191909152601f909101601f19169091010190565b60006001600160a01b03808a168352808916602084015280881660408401525085606083015284608083015260c060a083015261403860c083018486615e48565b60008251615ec4818460208701615661565b9190910192915050565b600060208284031215615ee057600080fd5b5051919050565b60006001600160a01b03808a168352808916602084015280881660408401525060a06060830152615f1c60a083018688615db0565b8281036080840152615f2f818587615db0565b9a9950505050505050505050565b838152604060208201526000612845604083018486615e48565b60006001600160a01b03808816835280871660208401525060806040830152615f84608083018587615db0565b90508260608301529695505050505050565b8082018082111561071c5761071c615cef565b8181038181111561071c5761071c615cef565b64ffffffffff81811683821601908082111561329157613291615cef565b600061ffff80841680615fef57615fef615cd9565b92169190910692915050565b60008261600a5761600a615cd9565b600160ff1b82146000198414161561602457616024615cef565b500590565b60008261603857616038615cd9565b500490565b61ffff82811682821603908082111561329157613291615cef56fe7e1935766b7c49e7482a018a5ee52ca183a2ddfcb6810787916934079aa582643441ab29b24daf7a3fd59500b0e08396ec08ec96f5cc2d0362924cdd45cfec319b779b17422d0df92223018b32b4d1fa46e071723d6817e2486d003becc55f00a26469706673582212207736ae067da0a3b5fe576a13adef9b1c0fc245ffed2ed5539b111ce0545fa84c64736f6c63430008140033",
    "linkReferences": {}
  },
  "methodIdentifiers": {
    "approveForAll(address,bool)": "e584b654",
    "balanceOf(address,uint256)": "00fdd58e",
    "balanceOfBatch(address[],uint256[])": "4e1273f4",
    "batchTransferFrom(address,address,uint256[],uint256[])": "17fad7fc",
    "burn(address,address,uint256[],uint256[])": "c9939f5e",
    "collectProtocolFees()": "a1af5b9a",
    "flashLoan(address,bytes32,bytes)": "ea3446bf",
    "forceDecay()": "d3b9fbe4",
    "getActiveId()": "dbe65edc",
    "getBin(uint24)": "0abe9688",
    "getBinStep()": "17f11ecc",
    "getFactory()": "88cc58e4",
    "getIdFromPrice(uint256)": "f5e29329",
    "getLBHooksParameters()": "781a8915",
    "getNextNonEmptyBin(bool,uint24)": "a41a01fb",
    "getOracleParameters()": "55182894",
    "getOracleSampleAt(uint40)": "8940a16a",
    "getPriceFromId(uint24)": "4c7cffbd",
    "getProtocolFees()": "d8dfcea0",
    "getReserves()": "0902f1ac",
    "getStaticFeeParameters()": "7ca0de30",
    "getSwapIn(uint128,bool)": "abcd7830",
    "getSwapOut(uint128,bool)": "e77366f8",
    "getTokenX()": "05e8746d",
    "getTokenY()": "da10610c",
    "getVariableFeeParameters()": "8d7024e5",
    "implementation()": "5c60da1b",
    "increaseOracleLength(uint16)": "c7bd6586",
    "initialize(uint16,uint16,uint16,uint16,uint24,uint16,uint24,uint24)": "47973bff",
    "isApprovedForAll(address,address)": "e985e9c5",
    "mint(address,bytes32[],address)": "383d15c5",
    "name()": "06fdde03",
    "setHooksParameters(bytes32,bytes)": "1b057f6d",
    "setStaticFeeParameters(uint16,uint16,uint16,uint16,uint24,uint16,uint24)": "6653851a",
    "swap(bool,address)": "53c059a0",
    "symbol()": "95d89b41",
    "totalSupply(uint256)": "bd85b039"
  },
  "id": 64
}