{
  "abi": [
    {
      "inputs": [
        {
          "internalType": "contract ILBFactory",
          "name": "factory_",
          "type": "address"
        }
      ],
      "stateMutability": "nonpayable",
      "type": "constructor"
    },
    {
      "inputs": [
        {
          "internalType": "uint24",
          "name": "id",
          "type": "uint24"
        }
      ],
      "name": "BinHelper__CompositionFactorFlawed",
      "type": "error"
    },
    {
      "inputs": [],
      "name": "BinHelper__LiquidityOverflow",
      "type": "error"
    },
    {
      "inputs": [],
      "name": "BinHelper__MaxLiquidityPerBinExceeded",
      "type": "error"
    },
    {
      "inputs": [],
      "name": "FeeHelper__FeeTooLarge",
      "type": "error"
    },
    {
      "inputs": [],
      "name": "Hooks__CallFailed",
      "type": "error"
    },
    {
      "inputs": [],
      "name": "InvalidInitialization",
      "type": "error"
    },
    {
      "inputs": [],
      "name": "LBPair__AddressZero",
      "type": "error"
    },
    {
      "inputs": [],
      "name": "LBPair__EmptyMarketConfigs",
      "type": "error"
    },
    {
      "inputs": [],
      "name": "LBPair__FlashLoanCallbackFailed",
      "type": "error"
    },
    {
      "inputs": [],
      "name": "LBPair__FlashLoanInsufficientAmount",
      "type": "error"
    },
    {
      "inputs": [],
      "name": "LBPair__InsufficientAmountIn",
      "type": "error"
    },
    {
      "inputs": [],
      "name": "LBPair__InsufficientAmountOut",
      "type": "error"
    },
    {
      "inputs": [],
      "name": "LBPair__InvalidHooks",
      "type": "error"
    },
    {
      "inputs": [],
      "name": "LBPair__InvalidInput",
      "type": "error"
    },
    {
      "inputs": [],
      "name": "LBPair__InvalidStaticFeeParameters",
      "type": "error"
    },
    {
      "inputs": [],
      "name": "LBPair__MaxTotalFeeExceeded",
      "type": "error"
    },
    {
      "inputs": [],
      "name": "LBPair__OnlyFactory",
      "type": "error"
    },
    {
      "inputs": [],
      "name": "LBPair__OnlyProtocolFeeRecipient",
      "type": "error"
    },
    {
      "inputs": [],
      "name": "LBPair__OutOfLiquidity",
      "type": "error"
    },
    {
      "inputs": [],
      "name": "LBPair__TokenNotSupported",
      "type": "error"
    },
    {
      "inputs": [
        {
          "internalType": "uint24",
          "name": "id",
          "type": "uint24"
        }
      ],
      "name": "LBPair__ZeroAmount",
      "type": "error"
    },
    {
      "inputs": [
        {
          "internalType": "uint24",
          "name": "id",
          "type": "uint24"
        }
      ],
      "name": "LBPair__ZeroAmountsOut",
      "type": "error"
    },
    {
      "inputs": [],
      "name": "LBPair__ZeroBorrowAmount",
      "type": "error"
    },
    {
      "inputs": [
        {
          "internalType": "uint24",
          "name": "id",
          "type": "uint24"
        }
      ],
      "name": "LBPair__ZeroShares",
      "type": "error"
    },
    {
      "inputs": [],
      "name": "LBToken__AddressThisOrZero",
      "type": "error"
    },
    {
      "inputs": [
        {
          "internalType": "address",
          "name": "from",
          "type": "address"
        },
        {
          "internalType": "uint256",
          "name": "id",
          "type": "uint256"
        },
        {
          "internalType": "uint256",
          "name": "amount",
          "type": "uint256"
        }
      ],
      "name": "LBToken__BurnExceedsBalance",
      "type": "error"
    },
    {
      "inputs": [],
      "name": "LBToken__InvalidLength",
      "type": "error"
    },
    {
      "inputs": [
        {
          "internalType": "address",
          "name": "owner",
          "type": "address"
        }
      ],
      "name": "LBToken__SelfApproval",
      "type": "error"
    },
    {
      "inputs": [
        {
          "internalType": "address",
          "name": "from",
          "type": "address"
        },
        {
          "internalType": "address",
          "name": "spender",
          "type": "address"
        }
      ],
      "name": "LBToken__SpenderNotApproved",
      "type": "error"
    },
    {
      "inputs": [
        {
          "internalType": "address",
          "name": "from",
          "type": "address"
        },
        {
          "internalType": "uint256",
          "name": "id",
          "type": "uint256"
        },
        {
          "internalType": "uint256",
          "name": "amount",
          "type": "uint256"
        }
      ],
      "name": "LBToken__TransferExceedsBalance",
      "type": "error"
    },
    {
      "inputs": [],
      "name": "LiquidityConfigurations__InvalidConfig",
      "type": "error"
    },
    {
      "inputs": [],
      "name": "NotInitializing",
      "type": "error"
    },
    {
      "inputs": [],
      "name": "OracleHelper__InvalidOracleId",
      "type": "error"
    },
    {
      "inputs": [],
      "name": "OracleHelper__LookUpTimestampTooOld",
      "type": "error"
    },
    {
      "inputs": [],
      "name": "OracleHelper__NewLengthTooSmall",
      "type": "error"
    },
    {
      "inputs": [],
      "name": "PackedUint128Math__AddOverflow",
      "type": "error"
    },
    {
      "inputs": [],
      "name": "PackedUint128Math__MultiplierTooLarge",
      "type": "error"
    },
    {
      "inputs": [],
      "name": "PackedUint128Math__SubUnderflow",
      "type": "error"
    },
    {
      "inputs": [],
      "name": "PairParametersHelper__InvalidParameter",
      "type": "error"
    },
    {
      "inputs": [],
      "name": "ReentrancyGuardReentrantCall",
      "type": "error"
    },
    {
      "inputs": [],
      "name": "SafeCast__Exceeds128Bits",
      "type": "error"
    },
    {
      "inputs": [],
      "name": "SafeCast__Exceeds24Bits",
      "type": "error"
    },
    {
      "inputs": [],
      "name": "SafeCast__Exceeds40Bits",
      "type": "error"
    },
    {
      "inputs": [],
      "name": "TokenHelper__TransferFailed",
      "type": "error"
    },
    {
      "inputs": [],
      "name": "Uint128x128Math__LogUnderflow",
      "type": "error"
    },
    {
      "inputs": [
        {
          "internalType": "uint256",
          "name": "x",
          "type": "uint256"
        },
        {
          "internalType": "int256",
          "name": "y",
          "type": "int256"
        }
      ],
      "name": "Uint128x128Math__PowUnderflow",
      "type": "error"
    },
    {
      "inputs": [],
      "name": "Uint256x256Math__MulDivOverflow",
      "type": "error"
    },
    {
      "inputs": [],
      "name": "Uint256x256Math__MulShiftOverflow",
      "type": "error"
    },
    {
      "anonymous": false,
      "inputs": [
        {
          "indexed": true,
          "internalType": "address",
          "name": "account",
          "type": "address"
        },
        {
          "indexed": true,
          "internalType": "address",
          "name": "sender",
          "type": "address"
        },
        {
          "indexed": false,
          "internalType": "bool",
          "name": "approved",
          "type": "bool"
        }
      ],
      "name": "ApprovalForAll",
      "type": "event"
    },
    {
      "anonymous": false,
      "inputs": [
        {
          "indexed": true,
          "internalType": "address",
          "name": "feeRecipient",
          "type": "address"
        },
        {
          "indexed": false,
          "internalType": "bytes32",
          "name": "protocolFees",
          "type": "bytes32"
        }
      ],
      "name": "CollectedProtocolFees",
      "type": "event"
    },
    {
      "anonymous": false,
      "inputs": [
        {
          "indexed": true,
          "internalType": "address",
          "name": "sender",
          "type": "address"
        },
        {
          "indexed": false,
          "internalType": "uint24",
          "name": "id",
          "type": "uint24"
        },
        {
          "indexed": false,
          "internalType": "bytes32",
          "name": "totalFees",
          "type": "bytes32"
        },
        {
          "indexed": false,
          "internalType": "bytes32",
          "name": "protocolFees",
          "type": "bytes32"
        }
      ],
      "name": "CompositionFees",
      "type": "event"
    },
    {
      "anonymous": false,
      "inputs": [
        {
          "indexed": true,
          "internalType": "address",
          "name": "sender",
          "type": "address"
        },
        {
          "indexed": true,
          "internalType": "address",
          "name": "to",
          "type": "address"
        },
        {
          "indexed": false,
          "internalType": "uint256[]",
          "name": "ids",
          "type": "uint256[]"
        },
        {
          "indexed": false,
          "internalType": "bytes32[]",
          "name": "amounts",
          "type": "bytes32[]"
        }
      ],
      "name": "DepositedToBins",
      "type": "event"
    },
    {
      "anonymous": false,
      "inputs": [
        {
          "indexed": true,
          "internalType": "address",
          "name": "sender",
          "type": "address"
        },
        {
          "indexed": true,
          "internalType": "contract ILBFlashLoanCallback",
          "name": "receiver",
          "type": "address"
        },
        {
          "indexed": false,
          "internalType": "uint24",
          "name": "activeId",
          "type": "uint24"
        },
        {
          "indexed": false,
          "internalType": "bytes32",
          "name": "amounts",
          "type": "bytes32"
        },
        {
          "indexed": false,
          "internalType": "bytes32",
          "name": "totalFees",
          "type": "bytes32"
        },
        {
          "indexed": false,
          "internalType": "bytes32",
          "name": "protocolFees",
          "type": "bytes32"
        }
      ],
      "name": "FlashLoan",
      "type": "event"
    },
    {
      "anonymous": false,
      "inputs": [
        {
          "indexed": true,
          "internalType": "address",
          "name": "sender",
          "type": "address"
        },
        {
          "indexed": false,
          "internalType": "uint24",
          "name": "idReference",
          "type": "uint24"
        },
        {
          "indexed": false,
          "internalType": "uint24",
          "name": "volatilityReference",
          "type": "uint24"
        }
      ],
      "name": "ForcedDecay",
      "type": "event"
    },
    {
      "anonymous": false,
      "inputs": [
        {
          "indexed": true,
          "internalType": "address",
          "name": "sender",
          "type": "address"
        },
        {
          "indexed": false,
          "internalType": "bytes32",
          "name": "hooksParameters",
          "type": "bytes32"
        }
      ],
      "name": "HooksParametersSet",
      "type": "event"
    },
    {
      "anonymous": false,
      "inputs": [
        {
          "indexed": false,
          "internalType": "uint64",
          "name": "version",
          "type": "uint64"
        }
      ],
      "name": "Initialized",
      "type": "event"
    },
    {
      "anonymous": false,
      "inputs": [
        {
          "indexed": true,
          "internalType": "address",
          "name": "sender",
          "type": "address"
        },
        {
          "indexed": false,
          "internalType": "uint16",
          "name": "oracleLength",
          "type": "uint16"
        }
      ],
      "name": "OracleLengthIncreased",
      "type": "event"
    },
    {
      "anonymous": false,
      "inputs": [
        {
          "indexed": true,
          "internalType": "address",
          "name": "sender",
          "type": "address"
        },
        {
          "indexed": false,
          "internalType": "uint16",
          "name": "baseFactor",
          "type": "uint16"
        },
        {
          "indexed": false,
          "internalType": "uint16",
          "name": "filterPeriod",
          "type": "uint16"
        },
        {
          "indexed": false,
          "internalType": "uint16",
          "name": "decayPeriod",
          "type": "uint16"
        },
        {
          "indexed": false,
          "internalType": "uint16",
          "name": "reductionFactor",
          "type": "uint16"
        },
        {
          "indexed": false,
          "internalType": "uint24",
          "name": "variableFeeControl",
          "type": "uint24"
        },
        {
          "indexed": false,
          "internalType": "uint16",
          "name": "protocolShare",
          "type": "uint16"
        },
        {
          "indexed": false,
          "internalType": "uint24",
          "name": "maxVolatilityAccumulator",
          "type": "uint24"
        }
      ],
      "name": "StaticFeeParametersSet",
      "type": "event"
    },
    {
      "anonymous": false,
      "inputs": [
        {
          "indexed": true,
          "internalType": "address",
          "name": "sender",
          "type": "address"
        },
        {
          "indexed": true,
          "internalType": "address",
          "name": "to",
          "type": "address"
        },
        {
          "indexed": false,
          "internalType": "uint24",
          "name": "id",
          "type": "uint24"
        },
        {
          "indexed": false,
          "internalType": "bytes32",
          "name": "amountsIn",
          "type": "bytes32"
        },
        {
          "indexed": false,
          "internalType": "bytes32",
          "name": "amountsOut",
          "type": "bytes32"
        },
        {
          "indexed": false,
          "internalType": "uint24",
          "name": "volatilityAccumulator",
          "type": "uint24"
        },
        {
          "indexed": false,
          "internalType": "bytes32",
          "name": "totalFees",
          "type": "bytes32"
        },
        {
          "indexed": false,
          "internalType": "bytes32",
          "name": "protocolFees",
          "type": "bytes32"
        }
      ],
      "name": "Swap",
      "type": "event"
    },
    {
      "anonymous": false,
      "inputs": [
        {
          "indexed": true,
          "internalType": "address",
          "name": "sender",
          "type": "address"
        },
        {
          "indexed": true,
          "internalType": "address",
          "name": "from",
          "type": "address"
        },
        {
          "indexed": true,
          "internalType": "address",
          "name": "to",
          "type": "address"
        },
        {
          "indexed": false,
          "internalType": "uint256[]",
          "name": "ids",
          "type": "uint256[]"
        },
        {
          "indexed": false,
          "internalType": "uint256[]",
          "name": "amounts",
          "type": "uint256[]"
        }
      ],
      "name": "TransferBatch",
      "type": "event"
    },
    {
      "anonymous": false,
      "inputs": [
        {
          "indexed": true,
          "internalType": "address",
          "name": "sender",
          "type": "address"
        },
        {
          "indexed": true,
          "internalType": "address",
          "name": "to",
          "type": "address"
        },
        {
          "indexed": false,
          "internalType": "uint256[]",
          "name": "ids",
          "type": "uint256[]"
        },
        {
          "indexed": false,
          "internalType": "bytes32[]",
          "name": "amounts",
          "type": "bytes32[]"
        }
      ],
      "name": "WithdrawnFromBins",
      "type": "event"
    },
    {
      "inputs": [
        {
          "internalType": "address",
          "name": "spender",
          "type": "address"
        },
        {
          "internalType": "bool",
          "name": "approved",
          "type": "bool"
        }
      ],
      "name": "approveForAll",
      "outputs": [],
      "stateMutability": "nonpayable",
      "type": "function"
    },
    {
      "inputs": [
        {
          "internalType": "address",
          "name": "account",
          "type": "address"
        },
        {
          "internalType": "uint256",
          "name": "id",
          "type": "uint256"
        }
      ],
      "name": "balanceOf",
      "outputs": [
        {
          "internalType": "uint256",
          "name": "",
          "type": "uint256"
        }
      ],
      "stateMutability": "view",
      "type": "function"
    },
    {
      "inputs": [
        {
          "internalType": "address[]",
          "name": "accounts",
          "type": "address[]"
        },
        {
          "internalType": "uint256[]",
          "name": "ids",
          "type": "uint256[]"
        }
      ],
      "name": "balanceOfBatch",
      "outputs": [
        {
          "internalType": "uint256[]",
          "name": "batchBalances",
          "type": "uint256[]"
        }
      ],
      "stateMutability": "view",
      "type": "function"
    },
    {
      "inputs": [
        {
          "internalType": "address",
          "name": "from",
          "type": "address"
        },
        {
          "internalType": "address",
          "name": "to",
          "type": "address"
        },
        {
          "internalType": "uint256[]",
          "name": "ids",
          "type": "uint256[]"
        },
        {
          "internalType": "uint256[]",
          "name": "amounts",
          "type": "uint256[]"
        }
      ],
      "name": "batchTransferFrom",
      "outputs": [],
      "stateMutability": "nonpayable",
      "type": "function"
    },
    {
      "inputs": [
        {
          "internalType": "address",
          "name": "from",
          "type": "address"
        },
        {
          "internalType": "address",
          "name": "to",
          "type": "address"
        },
        {
          "internalType": "uint256[]",
          "name": "ids",
          "type": "uint256[]"
        },
        {
          "internalType": "uint256[]",
          "name": "amountsToBurn",
          "type": "uint256[]"
        }
      ],
      "name": "burn",
      "outputs": [
        {
          "internalType": "bytes32[]",
          "name": "amounts",
          "type": "bytes32[]"
        }
      ],
      "stateMutability": "nonpayable",
      "type": "function"
    },
    {
      "inputs": [],
      "name": "collectProtocolFees",
      "outputs": [
        {
          "internalType": "bytes32",
          "name": "collectedProtocolFees",
          "type": "bytes32"
        }
      ],
      "stateMutability": "nonpayable",
      "type": "function"
    },
    {
      "inputs": [
        {
          "internalType": "contract ILBFlashLoanCallback",
          "name": "receiver",
          "type": "address"
        },
        {
          "internalType": "bytes32",
          "name": "amounts",
          "type": "bytes32"
        },
        {
          "internalType": "bytes",
          "name": "data",
          "type": "bytes"
        }
      ],
      "name": "flashLoan",
      "outputs": [],
      "stateMutability": "nonpayable",
      "type": "function"
    },
    {
      "inputs": [],
      "name": "forceDecay",
      "outputs": [],
      "stateMutability": "nonpayable",
      "type": "function"
    },
    {
      "inputs": [],
      "name": "getActiveId",
      "outputs": [
        {
          "internalType": "uint24",
          "name": "activeId",
          "type": "uint24"
        }
      ],
      "stateMutability": "view",
      "type": "function"
    },
    {
      "inputs": [
        {
          "internalType": "uint24",
          "name": "id",
          "type": "uint24"
        }
      ],
      "name": "getBin",
      "outputs": [
        {
          "internalType": "uint128",
          "name": "binReserveX",
          "type": "uint128"
        },
        {
          "internalType": "uint128",
          "name": "binReserveY",
          "type": "uint128"
        }
      ],
      "stateMutability": "view",
      "type": "function"
    },
    {
      "inputs": [],
      "name": "getBinStep",
      "outputs": [
        {
          "internalType": "uint16",
          "name": "",
          "type": "uint16"
        }
      ],
      "stateMutability": "view",
      "type": "function"
    },
    {
      "inputs": [],
      "name": "getFactory",
      "outputs": [
        {
          "internalType": "contract ILBFactory",
          "name": "factory",
          "type": "address"
        }
      ],
      "stateMutability": "view",
      "type": "function"
    },
    {
      "inputs": [
        {
          "internalType": "uint256",
          "name": "price",
          "type": "uint256"
        }
      ],
      "name": "getIdFromPrice",
      "outputs": [
        {
          "internalType": "uint24",
          "name": "id",
          "type": "uint24"
        }
      ],
      "stateMutability": "view",
      "type": "function"
    },
    {
      "inputs": [],
      "name": "getLBHooksParameters",
      "outputs": [
        {
          "internalType": "bytes32",
          "name": "",
          "type": "bytes32"
        }
      ],
      "stateMutability": "view",
      "type": "function"
    },
    {
      "inputs": [
        {
          "internalType": "bool",
          "name": "swapForY",
          "type": "bool"
        },
        {
          "internalType": "uint24",
          "name": "id",
          "type": "uint24"
        }
      ],
      "name": "getNextNonEmptyBin",
      "outputs": [
        {
          "internalType": "uint24",
          "name": "nextId",
          "type": "uint24"
        }
      ],
      "stateMutability": "view",
      "type": "function"
    },
    {
      "inputs": [],
      "name": "getOracleParameters",
      "outputs": [
        {
          "internalType": "uint8",
          "name": "sampleLifetime",
          "type": "uint8"
        },
        {
          "internalType": "uint16",
          "name": "size",
          "type": "uint16"
        },
        {
          "internalType": "uint16",
          "name": "activeSize",
          "type": "uint16"
        },
        {
          "internalType": "uint40",
          "name": "lastUpdated",
          "type": "uint40"
        },
        {
          "internalType": "uint40",
          "name": "firstTimestamp",
          "type": "uint40"
        }
      ],
      "stateMutability": "view",
      "type": "function"
    },
    {
      "inputs": [
        {
          "internalType": "uint40",
          "name": "lookupTimestamp",
          "type": "uint40"
        }
      ],
      "name": "getOracleSampleAt",
      "outputs": [
        {
          "internalType": "uint64",
          "name": "cumulativeId",
          "type": "uint64"
        },
        {
          "internalType": "uint64",
          "name": "cumulativeVolatility",
          "type": "uint64"
        },
        {
          "internalType": "uint64",
          "name": "cumulativeBinCrossed",
          "type": "uint64"
        }
      ],
      "stateMutability": "view",
      "type": "function"
    },
    {
      "inputs": [
        {
          "internalType": "uint24",
          "name": "id",
          "type": "uint24"
        }
      ],
      "name": "getPriceFromId",
      "outputs": [
        {
          "internalType": "uint256",
          "name": "price",
          "type": "uint256"
        }
      ],
      "stateMutability": "view",
      "type": "function"
    },
    {
      "inputs": [],
      "name": "getProtocolFees",
      "outputs": [
        {
          "internalType": "uint128",
          "name": "protocolFeeX",
          "type": "uint128"
        },
        {
          "internalType": "uint128",
          "name": "protocolFeeY",
          "type": "uint128"
        }
      ],
      "stateMutability": "view",
      "type": "function"
    },
    {
      "inputs": [],
      "name": "getReserves",
      "outputs": [
        {
          "internalType": "uint128",
          "name": "reserveX",
          "type": "uint128"
        },
        {
          "internalType": "uint128",
          "name": "reserveY",
          "type": "uint128"
        }
      ],
      "stateMutability": "view",
      "type": "function"
    },
    {
      "inputs": [],
      "name": "getStaticFeeParameters",
      "outputs": [
        {
          "internalType": "uint16",
          "name": "baseFactor",
          "type": "uint16"
        },
        {
          "internalType": "uint16",
          "name": "filterPeriod",
          "type": "uint16"
        },
        {
          "internalType": "uint16",
          "name": "decayPeriod",
          "type": "uint16"
        },
        {
          "internalType": "uint16",
          "name": "reductionFactor",
          "type": "uint16"
        },
        {
          "internalType": "uint24",
          "name": "variableFeeControl",
          "type": "uint24"
        },
        {
          "internalType": "uint16",
          "name": "protocolShare",
          "type": "uint16"
        },
        {
          "internalType": "uint24",
          "name": "maxVolatilityAccumulator",
          "type": "uint24"
        }
      ],
      "stateMutability": "view",
      "type": "function"
    },
    {
      "inputs": [
        {
          "internalType": "uint128",
          "name": "amountOut",
          "type": "uint128"
        },
        {
          "internalType": "bool",
          "name": "swapForY",
          "type": "bool"
        }
      ],
      "name": "getSwapIn",
      "outputs": [
        {
          "internalType": "uint128",
          "name": "amountIn",
          "type": "uint128"
        },
        {
          "internalType": "uint128",
          "name": "amountOutLeft",
          "type": "uint128"
        },
        {
          "internalType": "uint128",
          "name": "fee",
          "type": "uint128"
        }
      ],
      "stateMutability": "view",
      "type": "function"
    },
    {
      "inputs": [
        {
          "internalType": "uint128",
          "name": "amountIn",
          "type": "uint128"
        },
        {
          "internalType": "bool",
          "name": "swapForY",
          "type": "bool"
        }
      ],
      "name": "getSwapOut",
      "outputs": [
        {
          "internalType": "uint128",
          "name": "amountInLeft",
          "type": "uint128"
        },
        {
          "internalType": "uint128",
          "name": "amountOut",
          "type": "uint128"
        },
        {
          "internalType": "uint128",
          "name": "fee",
          "type": "uint128"
        }
      ],
      "stateMutability": "view",
      "type": "function"
    },
    {
      "inputs": [],
      "name": "getTokenX",
      "outputs": [
        {
          "internalType": "contract IERC20",
          "name": "tokenX",
          "type": "address"
        }
      ],
      "stateMutability": "view",
      "type": "function"
    },
    {
      "inputs": [],
      "name": "getTokenY",
      "outputs": [
        {
          "internalType": "contract IERC20",
          "name": "tokenY",
          "type": "address"
        }
      ],
      "stateMutability": "view",
      "type": "function"
    },
    {
      "inputs": [],
      "name": "getVariableFeeParameters",
      "outputs": [
        {
          "internalType": "uint24",
          "name": "volatilityAccumulator",
          "type": "uint24"
        },
        {
          "internalType": "uint24",
          "name": "volatilityReference",
          "type": "uint24"
        },
        {
          "internalType": "uint24",
          "name": "idReference",
          "type": "uint24"
        },
        {
          "internalType": "uint40",
          "name": "timeOfLastUpdate",
          "type": "uint40"
        }
      ],
      "stateMutability": "view",
      "type": "function"
    },
    {
      "inputs": [
        {
          "internalType": "uint16",
          "name": "newLength",
          "type": "uint16"
        }
      ],
      "name": "increaseOracleLength",
      "outputs": [],
      "stateMutability": "nonpayable",
      "type": "function"
    },
    {
      "inputs": [
        {
          "internalType": "uint16",
          "name": "baseFactor",
          "type": "uint16"
        },
        {
          "internalType": "uint16",
          "name": "filterPeriod",
          "type": "uint16"
        },
        {
          "internalType": "uint16",
          "name": "decayPeriod",
          "type": "uint16"
        },
        {
          "internalType": "uint16",
          "name": "reductionFactor",
          "type": "uint16"
        },
        {
          "internalType": "uint24",
          "name": "variableFeeControl",
          "type": "uint24"
        },
        {
          "internalType": "uint16",
          "name": "protocolShare",
          "type": "uint16"
        },
        {
          "internalType": "uint24",
          "name": "maxVolatilityAccumulator",
          "type": "uint24"
        },
        {
          "internalType": "uint24",
          "name": "activeId",
          "type": "uint24"
        }
      ],
      "name": "initialize",
      "outputs": [],
      "stateMutability": "nonpayable",
      "type": "function"
    },
    {
      "inputs": [
        {
          "internalType": "address",
          "name": "owner",
          "type": "address"
        },
        {
          "internalType": "address",
          "name": "spender",
          "type": "address"
        }
      ],
      "name": "isApprovedForAll",
      "outputs": [
        {
          "internalType": "bool",
          "name": "",
          "type": "bool"
        }
      ],
      "stateMutability": "view",
      "type": "function"
    },
    {
      "inputs": [
        {
          "internalType": "address",
          "name": "to",
          "type": "address"
        },
        {
          "internalType": "bytes32[]",
          "name": "liquidityConfigs",
          "type": "bytes32[]"
        },
        {
          "internalType": "address",
          "name": "refundTo",
          "type": "address"
        }
      ],
      "name": "mint",
      "outputs": [
        {
          "internalType": "bytes32",
          "name": "amountsReceived",
          "type": "bytes32"
        },
        {
          "internalType": "bytes32",
          "name": "amountsLeft",
          "type": "bytes32"
        },
        {
          "internalType": "uint256[]",
          "name": "liquidityMinted",
          "type": "uint256[]"
        }
      ],
      "stateMutability": "nonpayable",
      "type": "function"
    },
    {
      "inputs": [],
      "name": "name",
      "outputs": [
        {
          "internalType": "string",
          "name": "",
          "type": "string"
        }
      ],
      "stateMutability": "view",
      "type": "function"
    },
    {
      "inputs": [
        {
          "internalType": "bytes32",
          "name": "hooksParameters",
          "type": "bytes32"
        },
        {
          "internalType": "bytes",
          "name": "onHooksSetData",
          "type": "bytes"
        }
      ],
      "name": "setHooksParameters",
      "outputs": [],
      "stateMutability": "nonpayable",
      "type": "function"
    },
    {
      "inputs": [
        {
          "internalType": "uint16",
          "name": "baseFactor",
          "type": "uint16"
        },
        {
          "internalType": "uint16",
          "name": "filterPeriod",
          "type": "uint16"
        },
        {
          "internalType": "uint16",
          "name": "decayPeriod",
          "type": "uint16"
        },
        {
          "internalType": "uint16",
          "name": "reductionFactor",
          "type": "uint16"
        },
        {
          "internalType": "uint24",
          "name": "variableFeeControl",
          "type": "uint24"
        },
        {
          "internalType": "uint16",
          "name": "protocolShare",
          "type": "uint16"
        },
        {
          "internalType": "uint24",
          "name": "maxVolatilityAccumulator",
          "type": "uint24"
        }
      ],
      "name": "setStaticFeeParameters",
      "outputs": [],
      "stateMutability": "nonpayable",
      "type": "function"
    },
    {
      "inputs": [
        {
          "internalType": "bool",
          "name": "swapForY",
          "type": "bool"
        },
        {
          "internalType": "address",
          "name": "to",
          "type": "address"
        }
      ],
      "name": "swap",
      "outputs": [
        {
          "internalType": "bytes32",
          "name": "amountsOut",
          "type": "bytes32"
        }
      ],
      "stateMutability": "nonpayable",
      "type": "function"
    },
    {
      "inputs": [],
      "name": "symbol",
      "outputs": [
        {
          "internalType": "string",
          "name": "",
          "type": "string"
        }
      ],
      "stateMutability": "view",
      "type": "function"
    },
    {
      "inputs": [
        {
          "internalType": "uint256",
          "name": "id",
          "type": "uint256"
        }
      ],
      "name": "totalSupply",
      "outputs": [
        {
          "internalType": "uint256",
          "name": "",
          "type": "uint256"
        }
      ],
      "stateMutability": "view",
      "type": "function"
    }
  ],
  "bytecode": {
    "object": "0x60a06040523480156200001157600080fd5b50604051620067e6380380620067e6833981016040819052620000349162000106565b6001600160a01b0381166080526200004b62000052565b5062000138565b7ff0c57e16840df040f15088dc2f81fe391c3923bec73e23a9662efc9c229c6a00805468010000000000000000900460ff1615620000a35760405163f92ee8a960e01b815260040160405180910390fd5b80546001600160401b0390811614620001035780546001600160401b0319166001600160401b0390811782556040519081527fc7f505b2f371ae2175ee4913f4499e1f2633a7b5936321eed1cdaeb6115181d29060200160405180910390a15b50565b6000602082840312156200011957600080fd5b81516001600160a01b03811681146200013157600080fd5b9392505050565b60805161667d620001696000396000818161048d0152818161158c015281816123d101526139b7015261667d6000f3fe608060405234801561001057600080fd5b506004361061025b5760003560e01c80638940a16a11610145578063d3b9fbe4116100bd578063e584b6541161008c578063e985e9c511610071578063e985e9c51461062a578063ea3446bf1461064d578063f5e293291461066057600080fd5b8063e584b65414610604578063e77366f81461061757600080fd5b8063d3b9fbe4146105e4578063d8dfcea0146105ec578063da10610c146105f4578063dbe65edc146105fc57600080fd5b8063a41a01fb11610114578063bd85b039116100f9578063bd85b0391461059e578063c7bd6586146105be578063c9939f5e146105d157600080fd5b8063a41a01fb1461053a578063abcd78301461056157600080fd5b80638940a16a146104b15780638d7024e5146104ef57806395d89b411461052a578063a1af5b9a1461053257600080fd5b806347973bff116101d857806355182894116101a7578063781a89151161018c578063781a89151461042f5780637ca0de301461043957806388cc58e41461048b57600080fd5b806355182894146103d75780636653851a1461041c57600080fd5b806347973bff1461037e5780634c7cffbd146103915780634e1273f4146103a457806353c059a0146103c457600080fd5b80630abe96881161022f57806317fad7fc1161021457806317fad7fc146103345780631b057f6d14610349578063383d15c51461035c57600080fd5b80630abe9688146102e357806317f11ecc1461031957600080fd5b8062fdd58e1461026057806305e8746d1461028657806306fdde03146102a65780630902f1ac146102bb575b600080fd5b61027361026e36600461587e565b610673565b6040519081526020015b60405180910390f35b61028e61069c565b6040516001600160a01b03909116815260200161027d565b6102ae6106b9565b60405161027d91906158ce565b6102c361074d565b604080516001600160801b0393841681529290911660208301520161027d565b6102c36102f1366004615914565b62ffffff166000908152600660205260409020546001600160801b0381169160809190911c90565b610321610787565b60405161ffff909116815260200161027d565b610347610342366004615974565b61079f565b005b610347610357366004615a4b565b6107fa565b61036f61036a366004615a97565b610919565b60405161027d93929190615b3a565b61034761038c366004615b6b565b610bbb565b61027361039f366004615914565b610ea6565b6103b76103b2366004615c02565b610ecd565b60405161027d9190615c6e565b6102736103d2366004615c91565b610fa3565b6103df6112e5565b6040805160ff909616865261ffff9485166020870152939092169284019290925264ffffffffff918216606084015216608082015260a00161027d565b61034761042a366004615cc8565b61138f565b6201000954610273565b6104416113c8565b6040805161ffff9889168152968816602088015294871694860194909452918516606085015262ffffff9081166080850152931660a08301529190911660c082015260e00161027d565b7f000000000000000000000000000000000000000000000000000000000000000061028e565b6104c46104bf366004615d4e565b611430565b6040805167ffffffffffffffff9485168152928416602084015292169181019190915260600161027d565b6104f761152f565b6040805162ffffff95861681529385166020850152919093169082015264ffffffffff909116606082015260800161027d565b6102ae61156f565b610273611580565b61054d610548366004615d75565b611746565b60405162ffffff909116815260200161027d565b61057461056f366004615d9f565b611759565b604080516001600160801b039485168152928416602084015292169181019190915260600161027d565b6102736105ac366004615dd7565b60009081526001602052604090205490565b6103476105cc366004615df0565b6118f5565b6103b76105df366004615974565b61198b565b610347611cc3565b6102c3611d57565b61028e611d72565b61054d611d8a565b610347610612366004615e0b565b611d97565b610574610625366004615d9f565b611da6565b61063d610638366004615e29565b611ee3565b604051901515815260200161027d565b61034761065b366004615e47565b611eef565b61054d61066e366004615dd7565b6121ed565b6001600160a01b0382166000908152602081815260408083208484529091529020545b92915050565b60006106b46000805160206166088339815191525490565b905090565b60606201000a80546106ca90615e97565b80601f01602080910402602001604051908101604052809291908181526020018280546106f690615e97565b80156107435780601f1061071857610100808354040283529160200191610743565b820191906000526020600020905b81548152906001019060200180831161072657829003601f168201915b5050505050905090565b60008061077e61076a60055460045461220f90919063ffffffff16565b6001600160801b0381169160809190911c90565b90939092509050565b60006106b46000805160206165e88339815191525490565b6107a7612249565b62010009546107bc8133898989898989612281565b6107ca878787878787612321565b6107e1600160008051602061662883398151915255565b6107f1813389898989898961237f565b50505050505050565b610802612249565b61080a6123c6565b62010009839055604080518481529051849133917f4d24d81a1a6e09c37497747b4c9d67d858ce80438b54df0fa361a24dc742d9349181900360200190a26001600160a01b038116158015906108d35750306001600160a01b0316816001600160a01b0316635f9c01b16040518163ffffffff1660e01b8152600401602060405180830381865afa1580156108a3573d6000803e3d6000fd5b505050506040513d601f19601f820116820180604052508101906108c79190615ecb565b6001600160a01b031614155b156108f157604051631b5de6eb60e01b815260040160405180910390fd5b6108fc84848461240f565b50610914600160008051602061662883398151915255565b505050565b60008060608661092881612436565b610930612249565b60008690036109525760405163296db0d960e01b815260040160405180910390fd5b62010009546040805160608101909152600090808967ffffffffffffffff81111561097f5761097f615ee8565b6040519080825280602002602001820160405280156109a8578160200160208202803683370190505b5081526020018967ffffffffffffffff8111156109c7576109c7615ee8565b6040519080825280602002602001820160405280156109f0578160200160208202803683370190505b5081526020018967ffffffffffffffff811115610a0f57610a0f615ee8565b604051908082528060200260200182016040528015610a38578160200160208202803683370190505b509052600454909150610a72610a5a6000805160206166088339815191525490565b6000805160206165c883398151915254839190612472565b9650610a8283338d8d8d8c6124b2565b610a8f8a8a898e866124fc565b9550610aa5610a9e888861220f565b8290612628565b600455604080830151835191519096506001600160a01b038d169160009133917f4a39dc06d4c0dbc64b70af90fd698a233a518aa5d07e595d983b8c0526c8f7fb91610af391908b90615efe565b60405180910390a4815160208301516040516001600160a01b038e169233927f87f1f9dcf5e8089a3e00811b6a008d8f30293a3da878cb1fe8c90ca376402f8a92610b3f929190615efe565b60405180910390a38515610b7f57610b7f610b666000805160206166088339815191525490565b6000805160206165c8833981519152548891908b612662565b610b96600160008051602061662883398151915255565b610bad83338d8d8d610ba88d8d61220f565b6126c0565b505050509450945094915050565b610bc36123c6565b7ff0c57e16840df040f15088dc2f81fe391c3923bec73e23a9662efc9c229c6a00805468010000000000000000810460ff16159067ffffffffffffffff16600081158015610c0e5750825b905060008267ffffffffffffffff166001148015610c2b5750303b155b905081158015610c39575080155b15610c575760405163f92ee8a960e01b815260040160405180910390fd5b845467ffffffffffffffff191660011785558315610c8b57845468ff00000000000000001916680100000000000000001785555b610c93612702565b610cbf610cb3610cae8860035461271290919063ffffffff16565b612761565b8e8e8e8e8e8e8e6127b5565b6000610cd76000805160206166088339815191525490565b6001600160a01b03166395d89b416040518163ffffffff1660e01b8152600401600060405180830381865afa158015610d14573d6000803e3d6000fd5b505050506040513d6000823e601f3d908101601f19168201604052610d3c9190810190615f23565b90506000610d566000805160206165c88339815191525490565b6001600160a01b03166395d89b416040518163ffffffff1660e01b8152600401600060405180830381865afa158015610d93573d6000803e3d6000fd5b505050506040513d6000823e601f3d908101601f19168201604052610dbb9190810190615f23565b90506000610ddd610dd86000805160206165e88339815191525490565b612933565b9050828282604051602001610df493929190615fc5565b6040516020818303038152906040526201000a9081610e13919061608e565b50828282604051602001610e299392919061614e565b6040516020818303038152906040526201000b9081610e48919061608e565b505050508315610e9757845468ff000000000000000019168555604051600181527fc7f505b2f371ae2175ee4913f4499e1f2633a7b5936321eed1cdaeb6115181d29060200160405180910390a15b50505050505050505050505050565b6000610696610ec16000805160206165e88339815191525490565b62ffffff841690612a60565b60608382610edb8282612a97565b8567ffffffffffffffff811115610ef457610ef4615ee8565b604051908082528060200260200182016040528015610f1d578160200160208202803683370190505b50925060005b86811015610f9857610f73888883818110610f4057610f406161b8565b9050602002016020810190610f5591906161ce565b878784818110610f6757610f676161b8565b90506020020135610673565b848281518110610f8557610f856161b8565b6020908102919091010152600101610f23565b505050949350505050565b6000610fad612249565b6201000954600454600554600086610fe457610fdf610fd86000805160206165c88339815191525490565b8490612ab7565b611004565b611004610ffd6000805160206166088339815191525490565b8490612aec565b9050600081900361102857604051637df801c760e01b815260040160405180910390fd5b866110368533898486612b1b565b6110408483612628565b600354909450600061105e6000805160206165e88339815191525490565b9050600061106b83612b7f565b90506110778342612b8b565b92505b62ffffff811660009081526006602052604090205461109a818615612c01565b6111be576110a88483612c30565b9350600080806110bc8488888b898e612cb8565b9194509250905082156111ba576110d3898461220f565b98506110df8d83612628565b9c5060006110fa6110ef89612ede565b839061ffff16612eee565b9050801561111b5761110c8b82612628565b9a50611118848261220f565b93505b61112f836111298787612628565b9061220f565b62ffffff87166000908152600660205260409020556001600160a01b038f16337fad7d6f97abf51ce18e17a38f4d70e975be9c0708474987bb3e26ad21bd93ca7088878761117c8e612f64565b6040805162ffffff9586168152602081019490945283019190915290911660608201526080810186905260a0810185905260c00160405180910390a3505b5050505b60008690036111cd5750611217565b60006111d98684612f75565b905062ffffff811615806111f1575062ffffff818116145b1561120f57604051631a6d7fb160e31b815260040160405180910390fd5b91505061107a565b60008990036112395760405163439df85d60e11b815260040160405180910390fd5b611243878a61220f565b6004556005869055611257600a8483612f97565b92506112638382612712565b60035583156112925761128d6112856000805160206165c88339815191525490565b8a908c6130b2565b6112b3565b6112b36112ab6000805160206166088339815191525490565b8a908c6130f2565b6112ca600160008051602061662883398151915255565b6112d788338c878d613103565b505050505050505092915050565b600354607890600090819081908190816112fe82613160565b905061ffff811615611386576000611317600a83613170565b96509050611324816131ce565b965061132f816131da565b94508464ffffffffff1660000361134557600095505b61ffff861615611384576113768661ffff168361ffff1681611369576113696161eb565b600a9160019106016131fb565b9050611381816131da565b93505b505b50509091929394565b611397612249565b61139f6123c6565b6113b1600354888888888888886127b5565b6107f1600160008051602061662883398151915255565b60008060008060008060008060035490506113e2816131ce565b97506113ed8161322b565b96506113f88161323b565b95506114038161324b565b945061140e8161325b565b935061141981612ede565b92506114248161326c565b91505090919293949596565b6000806000806003549050600061144682613160565b905061ffff8116158061145f5750428664ffffffffff16115b156114765760008060009450945094505050611528565b6000611484600a838961327d565b91985096509450905064ffffffffff8088169082161015611524576114ba6114ab84612b7f565b849064ffffffffff8a166133a0565b925060006114c88289616217565b90508064ffffffffff166114db85612b7f565b62ffffff166114ea9190616235565b6114f49088616261565b96508064ffffffffff1661150785612f64565b62ffffff166115169190616235565b6115209087616261565b9550505b5050505b9193909250565b6000806000806000600354905061154581612f64565b9450611550816133b8565b935061155b816133c9565b9250611566816133da565b91505090919293565b60606201000b80546106ca90615e97565b600061158a612249565b7f00000000000000000000000000000000000000000000000000000000000000006001600160a01b0316634ccb20c06040518163ffffffff1660e01b8152600401602060405180830381865afa1580156115e8573d6000803e3d6000fd5b505050506040513d601f19601f8201168201806040525081019061160c9190615ecb565b6001600160a01b0316336001600160a01b03161461163d57604051630f8937c560e21b815260040160405180910390fd5b6005546001600160801b038116608082901c600061169882611660576000611663565b60015b60ff166000856001600160801b03161161167e576000611681565b60015b60ff169060801b6001600160801b03919091161790565b90506116a4848261220f565b945084156117285760058190556004546116be908661220f565b60045560405185815233907f3f41a5ddc53701cc7db577ade4f1fca9838a8ec0b5ea50b9f0f5d17bc4554e329060200160405180910390a261172861170f6000805160206166088339815191525490565b6000805160206165c88339815191525487919033612662565b50505050611743600160008051602061662883398151915255565b90565b60006117528383612f75565b9392505050565b600354600090839082908161177a6000805160206165e88339815191525490565b9050600061178783612b7f565b90506117938342612b8b565b92505b62ffffff81166000908152600660205260408120546117b69089156133ed565b90506001600160801b0381161561189c5760006117d862ffffff841685612a60565b90506000876001600160801b0316836001600160801b0316116117fb57826117fd565b875b90506118098685612c30565b955060008a61182c576118276001600160801b03831684608061340d565b611841565b6118416001600160801b038316608085613443565b9050600061184f8888613479565b905060006118666001600160801b03841683613498565b90506118728184616282565b61187c908d616282565b9b50611888848c6162a2565b9a50611894818b616282565b995050505050505b856001600160801b03166000036118b357506118eb565b60006118bf8984612f75565b905062ffffff811615806118d7575062ffffff818116145b156118e35750506118eb565b915050611796565b5050509250925092565b6118fd612249565b600354600061190b82613160565b90508061ffff1660000361192a5750600161192682826134e1565b6003555b611936600a8285613530565b60405161ffff8416815233907fc975541e72d695746a43ba65745d79963a23082637c8f4609354d9bcf70194d69060200160405180910390a25050611988600160008051602061662883398151915255565b50565b606086336119998282613619565b6119ce5760405163548f773d60e01b81526001600160a01b038084166004830152821660248201526044015b60405180910390fd5b6119d6612249565b8515806119e35750858414155b15611a0157604051633ab7870760e01b815260040160405180910390fd5b6201000954611a1681338c8c8c8c8c8c613665565b898767ffffffffffffffff811115611a3057611a30615ee8565b604051908082528060200260200182016040528015611a59578160200160208202803683370190505b5094506000805b89811015611bad576000611a8b8c8c84818110611a7f57611a7f6161b8565b905060200201356136ab565b905060008a8a84818110611aa157611aa16161b8565b90506020020135905080600003611ad257604051636996a92560e01b815262ffffff831660048201526024016119c5565b62ffffff82166000818152600660209081526040808320546001909252909120549091611b01908890856136d6565b6000611b0e838584613757565b90506000819003611b395760405163fd44792960e01b815262ffffff861660048201526024016119c5565b611b43838261220f565b9250838203611b5957611b576007866137cf565b505b62ffffff851660009081526006602052604090208390558b5181908d9088908110611b8657611b866161b8565b6020908102919091010152611b9b8782612628565b96508560010195505050505050611a60565b50600454611bbb908261220f565b6004556040516000906001600160a01b0384169033907f4a39dc06d4c0dbc64b70af90fd698a233a518aa5d07e595d983b8c0526c8f7fb90611c04908f908f908f908f9061630d565b60405180910390a48a6001600160a01b0316336001600160a01b03167fa32e146844d6144a22e94c586715a1317d58a8aa3581ec33d040113ddcb243508c8c8a604051611c5393929190616334565b60405180910390a3611c8d611c746000805160206166088339815191525490565b6000805160206165c8833981519152548391908e612662565b611ca4600160008051602061662883398151915255565b611cb48333848e8e8e8e8e613871565b50505050509695505050505050565b611ccb612249565b611cd36123c6565b600354611ce7611ce282612761565b6138b7565b600355337f282afaeeae84c1d85ad1424a3aa2ddbedaeefca3b1e53d889d15265fe44db7fc611d15836133c9565b611d1e846133b8565b6040805162ffffff93841681529290911660208301520160405180910390a250611d55600160008051602061662883398151915255565b565b60055460009081906001600160801b0381169060801c61077e565b60006106b46000805160206165c88339815191525490565b60006106b4600354612b7f565b611da23383836138ec565b5050565b6000808080611dbe6001600160801b038716866139a1565b6003549091506000611ddc6000805160206165e88339815191525490565b90506000611de983612b7f565b9050611df58342612b8b565b92505b62ffffff8116600090815260066020526040902054611e18818a15612c01565b611e8557611e268483612c30565b935060008080611e3a8488888f898d612cb8565b919450925090508215611e8157611e51888461220f565b9750611e5e828d156133ed565b611e68908b616282565b9950611e74818d6133ed565b611e7e908a616282565b98505b5050505b6000859003611e945750611ecc565b6000611ea08a84612f75565b905062ffffff81161580611eb8575062ffffff818116145b15611ec4575050611ecc565b915050611df8565b611ed684896133ed565b9650505050509250925092565b60006117528383613619565b611ef7612249565b6000839003611f195760405163727ab02160e11b815260040160405180910390fd5b62010009546004546000611f2c866139b2565b9050611f3a83338989613aba565b611f6c611f536000805160206166088339815191525490565b6000805160206165c8833981519152548891908a612662565b6000806001600160a01b038916631faa6b8760e01b33611f986000805160206166088339815191525490565b6000805160206165c8833981519152548c888d8d604051602401611fc29796959493929190616383565b60408051601f198184030181529181526020820180516001600160e01b03167fffffffff0000000000000000000000000000000000000000000000000000000090941693909317909252905161201891906163c4565b6000604051808303816000865af19150503d8060008114612055576040519150601f19603f3d011682016040523d82523d6000602084013e61205a565b606091505b509150915081158061206e57508051602014155b806120ac57507fab5c473bce5960a8292e9c8db82f9272504caab4e9ef09553fc112f82b62a3c2818060200190518101906120a991906163e0565b14155b156120ca57604051634a57011360e01b815260040160405180910390fd5b60006120fe6120e56000805160206166088339815191525490565b6000805160206165c88339815191525460009190612472565b905061211461210d8686612628565b8290613b0f565b1561213257604051630e3c717160e11b815260040160405180910390fd5b600061213e828761220f565b60048390556005549091506121539082612628565b6005556003546001600160a01b038c169033907fd126bd9d94daca8e55ffd8283fac05394aec8326c6b1639e1e8a445fbe8bbc7d9061219190612b7f565b6040805162ffffff9092168252602082018f905281018590526060810185905260800160405180910390a36121d3600160008051602061662883398151915255565b6121e087338d8885613b53565b5050505050505050505050565b60006106966122086000805160206165e88339815191525490565b8390613baf565b8082038281118061222b57506001600160801b03808416908216115b156106965760405163e599af5560e01b815260040160405180910390fd5b60008051602061662883398151915280546001190161227b57604051633ee5aeb560e01b815260040160405180910390fd5b60029055565b750100000000000000000000000000000000000000000088161561231757612317886379c8ccf760e01b898989898989896040516024016122c897969594939291906163f9565b60408051601f198184030181529190526020810180516001600160e01b03167fffffffff0000000000000000000000000000000000000000000000000000000090931692909217909152613bf4565b5050505050505050565b853361232d8282613619565b61235d5760405163548f773d60e01b81526001600160a01b038084166004830152821660248201526044016119c5565b612317888888888888613c58565b600160008051602061662883398151915255565b750200000000000000000000000000000000000000000088161561231757612317886367ddb27860e01b898989898989896040516024016122c897969594939291906163f9565b336001600160a01b037f00000000000000000000000000000000000000000000000000000000000000001614611d5557604051632486085360e01b815260040160405180910390fd5b82156109145761091483634e430b5a60e01b8585856040516024016122c89392919061644f565b6001600160a01b038116158061245457506001600160a01b03811630145b15611988576040516345c210e760e11b815260040160405180910390fd5b60006124aa8461112961248485613dbb565b61248d87613dbb565b6001600160801b03169060801b6001600160801b03919091161790565b949350505050565b741000000000000000000000000000000000000000008616156124f4576124f486630d4abdb360e01b87878787876040516024016122c8959493929190616469565b505050505050565b6000806125156000805160206165e88339815191525490565b600354909150600061252682612b7f565b905086935060005b8881101561261b576000806125648a8d8d8681811061254f5761254f6161b8565b90506020020135613e2a90919063ffffffff16565b91509150600080600061257a898886888c613e73565b9194509250905061258b8a8361220f565b99508362ffffff168b6000015187815181106125a9576125a96161b8565b602002602001018181525050808b6020015187815181106125cc576125cc6161b8565b602002602001018181525050828b6040015187815181106125ef576125ef6161b8565b60200260200101818152505061260b8c8562ffffff1685614081565b856001019550505050505061252e565b5050505095945050505050565b8181018281108061264457506001600160801b03808416908216105b15610696576040516316692de960e01b815260040160405180910390fd5b6001600160801b038416608085901c8115612694576126946001600160a01b038616846001600160801b0385166140ce565b6001600160801b038116156124f4576124f46001600160a01b038516846001600160801b0384166140ce565b742000000000000000000000000000000000000000008616156124f4576124f486637a51a4c660e01b87878787876040516024016122c8959493929190616469565b61270a61411f565b611d5561416d565b60007cffffffffffffffffffffffffffffffffffffffffffffffffffffffffff83167fffffff000000000000000000000000000000000000000000000000000000000060e884901b1617611752565b60008061276d83612b7f565b90507fffffffffffffffffffff000000ffffffffffffffffffffffffffffffffffffff831675ffffff00000000000000000000000000000000000000609883901b1617611752565b61ffff87161580156127c9575061ffff8616155b80156127d7575061ffff8516155b80156127e5575061ffff8416155b80156127f4575062ffffff8316155b8015612802575061ffff8216155b8015612811575062ffffff8116155b1561282f576040516331375e0360e11b815260040160405180910390fd5b61283f8888888888888888614175565b975060006128596000805160206165e88339815191525490565b905060006128678a8461428e565b9050600061287582846142ec565b61287f838561432c565b61288991906164a8565b905067016345785d8a00008111156128b4576040516372db9c0b60e11b815260040160405180910390fd5b50505060038890556040805161ffff8981168252888116602083015287811682840152868116606083015262ffffff868116608084015290851660a0830152831660c0820152905133917fd09e5ddc721ff14c5c1e66a305cbba1fd70b82c5232bc391aad6f55e62e4b046919081900360e00190a25050505050505050565b60608161ffff1660000361295e5750506040805180820190915260018152600360fc1b602082015290565b8160005b61ffff82161561298c5780612976816164bb565b91506129859050600a836164dc565b9150612962565b60008161ffff1667ffffffffffffffff8111156129ab576129ab615ee8565b6040519080825280601f01601f1916602001820160405280156129d5576020820181803683370190505b5090505b61ffff8516156124aa576129ee6001836164fd565b91506129fb600a86616518565b612a06906030616539565b60f81b818361ffff1681518110612a1f57612a1f6161b8565b60200101907effffffffffffffffffffffffffffffffffffffffffffffffffffffffffffff1916908160001a905350612a59600a866164dc565b94506129d9565b600061271061ffff60801b608084901b1604600160801b0162ffffff8416627fffff1901612a8e8282614350565b95945050505050565b808214611da2576040516340311ffd60e11b815260040160405180910390fd5b600080612ac48460801c90565b90506124aa81612ad385613dbb565b612add91906162a2565b6001600160801b031660801b90565b60006001600160801b0383166124aa81612b0585613dbb565b612b0f91906162a2565b6001600160801b031690565b74010000000000000000000000000000000000000000851615612b78576040516001600160a01b03808616602483015284166044820152821515606482015260848101829052612b7890869063feee373560e01b9060a4016122c8565b5050505050565b600060e882901c610696565b600080612b97846133da565b612ba89064ffffffffff1684616554565b9050612bb38461322b565b61ffff168110612bf757612bc684612761565b9350612bd18461323b565b61ffff168110612beb57612be68460006145b0565b612bf4565b612bf4846138b7565b93505b6124aa848461461e565b600081612c2157612c128360801c90565b6001600160801b031615611752565b50506001600160801b03161590565b600080612c3c846133c9565b62ffffff169050600080828562ffffff1611612c5f578462ffffff168303612c68565b828562ffffff16035b91506127108202612c78876133b8565b62ffffff160190506000612c8b8761326c565b62ffffff169050808211612c9f5781612ca1565b805b9150612cad878361428e565b979650505050505050565b6000808080612ccc62ffffff871689612a60565b90506000612cdb8b89156133ed565b9050600088612d0657612d01612cfc6001600160801b03841685608061340d565b614677565b612d1e565b612d1e612cfc6001600160801b038416608086613443565b90506000612d2c8c8c613479565b90506000612d436001600160801b03841683613498565b9050612d4f8184616282565b92506000612d5d8a8d6133ed565b9050600080856001600160801b0316836001600160801b031610612d88575084915082905085612dfe565b612d9b6001600160801b038416866146a1565b91506000612da983856162a2565b6001600160801b031690508e612dcd57612dc8612cfc8260808c6146d8565b612ddc565b612ddc612cfc828b6080614702565b9150876001600160801b0316826001600160801b03161115612dfc578791505b505b8d612e3857612e16836001600160801b031660801b90565b6001600160801b038216612e33846001600160801b031660801b90565b612e60565b6001600160801b038316612e55826001600160801b031660801b90565b6001600160801b0384165b809b50819c50829d50505050505050505050507d09745258e83de0d0f4e400fce79aca44773dd596d31a6d336ca2a775b611612eb2612eac85611129888f61262890919063ffffffff16565b83614770565b1115612ed15760405163a2d7652760e01b815260040160405180910390fd5b5096509650969350505050565b600061069682604e1c613fff1690565b6000816001600160801b0316600003612f0957506000610696565b6127106001600160801b038316811015612f3657604051631514a94960e21b815260040160405180910390fd5b6001600160801b03848116840282900490608086811c86028490049183169082901b175b9695505050505050565b60006106968260701c620fffff1690565b600082612f8c57612f8760078361478c565b611752565b6117526007836148d8565b600080612fa384613160565b90508061ffff16600003612fba5783915050611752565b6000612fc686836131fb565b90506000612fd382614a08565b90506000612fe083614a14565b612fed9060ff1683616567565b90508064ffffffffff1661300042614a23565b64ffffffffff1611156130a65760008060006130458464ffffffffff1642036130288c612b7f565b6130318d612f64565b61303b8e8e614a4b565b8a93929190614a7b565b9250925092506000613056876131ce565b905064ffffffffff8616420360788111156130865750968790066001019642955060006130838c8a6134e1565b9b505b61309482868686858c614ae0565b975050505050506130a6888585614b84565b50949695505050505050565b60006130be8460801c90565b90506001600160801b038116156130ec576130ec6001600160a01b038416836001600160801b0384166140ce565b50505050565b60006001600160801b0384166130be565b74020000000000000000000000000000000000000000851615612b78576040516001600160a01b03808616602483015284166044820152821515606482015260848101829052612b789086906353e8079b60e01b9060a4016122c8565b60006106968260d81c61ffff1690565b60008061317d84846131fb565b9150613188826131ce565b90508061ffff168361ffff16146131c7576131ab6131a685836131fb565b6131ce565b90508061ffff168361ffff16116131c257806131c4565b825b90505b9250929050565b600061ffff8216610696565b60006131e582614a14565b60ff166131f183614a08565b6106969190616567565b60008161320781614bb1565b8361ffff60001985018116908110613221576132216161b8565b0154949350505050565b60006106968260101c610fff1690565b600061069682601c1c610fff1690565b60006106968260281c613fff1690565b60006106968260361c62ffffff1690565b600061069682605c1c620fffff1690565b6000806000806000806132908989613170565b909250905064ffffffffff87166132c78a6132ab848c616518565b61ffff1661ffff81106132c0576132c06161b8565b01546131da565b64ffffffffff1611156132ed57604051631c4e7f9560e21b815260040160405180910390fd5b6132f6826131da565b95508664ffffffffff168664ffffffffff1611613338578561331783614bd6565b61332084614bec565b61332985614c02565b95509550955095505050613397565b86955060008061334a8b8b8b86614c18565b9150915060008961335a836131da565b6133649190616217565b90506000613371846131da565b61337b908c616217565b905061338984848484614d6a565b919a50985096505050505050505b93509350935093565b60006133ac8483612b8b565b93506124aa8484612c30565b60006106968260841c620fffff1690565b60006106968260981c62ffffff1690565b60006106968260b01c64ffffffffff1690565b6000816133fe57612f878360801c90565b6001600160801b038316611752565b600061341a848484614702565b9050600160ff83161b80613430576134306161eb565b83850915611752576124aa6001826164a8565b60006134508484846146d8565b90508180613460576134606161eb565b600160ff85161b850915611752576124aa6001826164a8565b600061175261348884846142ec565b613492858561432c565b01614677565b6000816134a481614ece565b6001600160801b03808416670de0b6b3a764000081900391829160001991881602820101816134d5576134d56161eb565b049250505b5092915050565b60007fffffff0000ffffffffffffffffffffffffffffffffffffffffffffffffffffff83167cffff00000000000000000000000000000000000000000000000000000060d884901b1617611752565b600061353c84846131fb565b90506000613549826131ce565b90508261ffff168161ffff161061357357604051632c57574160e21b815260040160405180910390fd5b60008461ffff168261ffff16146135a45761ffff82161561359d5761359886836131fb565b6135a6565b60006135a6565b825b905060006135b3826131ce565b61ffff169050808661ffff16116135ca57806135d0565b8561ffff165b905061ffff83165b8561ffff168110156136025781888261ffff81106135f8576135f86161b8565b01556001016135d8565b506107f1878761ffff868116881890891617614b84565b6000816001600160a01b0316836001600160a01b031614806117525750506001600160a01b03918216600090815260026020908152604080832093909416825291909152205460ff1690565b74400000000000000000000000000000000000000000881615612317576123178863ea9db9d360e01b898989898989896040516024016122c897969594939291906163f9565b8062ffffff811681146136d157604051639b63641560e01b815260040160405180910390fd5b919050565b6001600160a01b03831660009081526020818152604080832085845291829052909120548281101561373357604051625b387760e31b81526001600160a01b038616600482015260248101859052604481018490526064016119c5565b60009384526001602090815260408086208054869003905592905292209103905550565b60006001600160801b038416608085901c8280831561378a57613787612cfc886001600160801b03871689614f00565b91505b6001600160801b038316156137b3576137b0612cfc886001600160801b03861689614f00565b90505b608081901b6001600160801b0383161798975050505050505050565b61ffff600882901c166000818152600284016020526040812054909190600160ff85161b19811680821461386557600083815260028701602052604081208290558190036138595750600882901c6000818152600187810160205260408220805460ff87169290921b19909116908190559190829003613857578654600160ff83161b191687555b505b60019350505050610696565b50600095945050505050565b74800000000000000000000000000000000000000000881615612317576123178863fdc2725760e01b898989898989896040516024016122c897969594939291906163f9565b6000806138c383612f64565b62ffffff16905060006138d58461324b565b61ffff16905061271082820204612a8e85826145b0565b826138f681612436565b826001600160a01b0316846001600160a01b0316036139335760405163782ee70760e01b81526001600160a01b03851660048201526024016119c5565b6001600160a01b03848116600081815260026020908152604080832094881680845294825291829020805460ff191687151590811790915591519182527f17307eab39ab6107e8899845ad3d59bd9653f200f220920489ca2b5937696c31910160405180910390a350505050565b6000816133fe57612f878360801b90565b6000807f00000000000000000000000000000000000000000000000000000000000000006001600160a01b031663fd90c2be6040518163ffffffff1660e01b8152600401602060405180830381865afa158015613a13573d6000803e3d6000fd5b505050506040513d601f19601f82011682018060405250810190613a3791906163e0565b90506001600160801b0383811690608085901c90670de0b6b3a763ffff90613a7090670de0b6b3a7640000908616850283015b04614677565b9250613aa2670de0b6b3a764000082866001600160801b0316856001600160801b0316020181613a6a57613a6a6161eb565b915050608081901b6001600160801b03831617612a8e565b740400000000000000000000000000000000000000008416156130ec576040516001600160a01b03808516602483015283166044820152606481018290526130ec90859063505d903360e01b906084016122c8565b60006001600160801b0383811690608085811c9185169085901c81841080612cad5750806001600160801b0316836001600160801b03161094505050505092915050565b74080000000000000000000000000000000000000000851615612b78576040516001600160a01b038086166024830152841660448201526064810183905260848101829052612b789086906360bed5f360e01b9060a4016122c8565b600061271061ffff60801b608084901b1604600160801b0181613bd182614f20565b613bda86614f20565b613be49190616585565b9050612a8e8162800000016136ab565b600080839050602083015160e01c602060008551602087016000865af192503d151583151615613c28573d6000803e3d6000fd5b8060005160e01c14601f3d11168316925050816130ec57604051636c93cb9b60e01b815260040160405180910390fd5b8281613c648282612a97565b86613c6e81612436565b6001600160a01b03808a16600090815260208190526040808220928b1682528120905b88811015613d525760008a8a83818110613cad57613cad6161b8565b9050602002013590506000898984818110613cca57613cca6161b8565b600085815260208981526040909120549102929092013592505081811015613d27578e83836040516358b4690f60e01b81526004016119c5939291906001600160a01b039390931683526020830191909152604082015260600190565b6000928352602086815260408085209284900390925585905290912080549091019055600101613c91565b50896001600160a01b03168b6001600160a01b0316336001600160a01b03167f4a39dc06d4c0dbc64b70af90fd698a233a518aa5d07e595d983b8c0526c8f7fb8c8c8c8c604051613da6949392919061630d565b60405180910390a45050505050505050505050565b6040516370a0823160e01b8152306004820152600090610696906001600160a01b038416906370a0823190602401602060405180830381865afa158015613e06573d6000803e3d6000fd5b505050506040513d601f19601f82011682018060405250810190612cfc91906163e0565b6000806000806000613e3b8761502d565b670de0b6b3a764000060808a811c90930281900490921b6001600160801b03998a169093029190910490971617979596505050505050565b62ffffff83166000818152600660205260408120549091829182918290613e9a908b612a60565b90506000613eb98962ffffff1660009081526001602052604090205490565b9050613ec7838984846150d0565b909650945084935062ffffff808b16908a1603613fff57613ee9878a426133a0565b96506000613efb84898e89868c615256565b90508015613ff9576000613f1984613f13898561220f565b90614770565b90506000613f34613f298b612ede565b849061ffff16612eee565b90508015613f5a57613f46878261220f565b600554909750613f569082612628565b6005555b6000613f7486613f13613f6d878661220f565b8a90612628565b9050613f81838683614f00565b9950613f8f600a8c8f612f97565b9a508a600381905550336001600160a01b03167f3f0b46725027bb418b2005f4683538eccdbcdf1de2b8649a29dbd9c507d16ff48e8685604051613fed9392919062ffffff9390931683526020830191909152604082015260600190565b60405180910390a25050505b5061400a565b61400a858b8b61534b565b851580614015575083155b1561403a57604051634c98d35760e11b815262ffffff8a1660048201526024016119c5565b8060000361404f5761404d60078a6153b1565b505b6140598385612628565b62ffffff90991660009081526006602052604090209890985550929891975095509350505050565b6000828152600160205260408120805483929061409f9084906164a8565b90915550506001600160a01b039092166000908152602081815260408083209383529290522080549091019055565b604080516001600160a01b038416602482015260448082018490528251808303909101815260649091019091526020810180516001600160e01b031663a9059cbb60e01b1790526130ec848261543e565b7ff0c57e16840df040f15088dc2f81fe391c3923bec73e23a9662efc9c229c6a005468010000000000000000900460ff16611d5557604051631afcd79f60e31b815260040160405180910390fd5b61236b61411f565b60008561ffff168761ffff1611806141925750610fff8661ffff16115b806141a257506127108561ffff16115b806141b257506109c48361ffff16115b806141c45750620fffff8262ffffff16115b156141e257604051631c07203f60e01b815260040160405180910390fd5b605c82901b6dfffff00000000000000000000000166dffffffffffffffffffffffffffff1991821661ffff8a1690811760108a901b630fff000016908117601c8a901b64fff00000001690811760288a901b663fff00000000001690811760368a901b693fffffc000000000000016908117604e8a901b6b0fffc000000000000000000016908117871797949095179092171717909117909117908a16175b9998505050505050505050565b6000620fffff8262ffffff1611156142b957604051631c07203f60e01b815260040160405180910390fd5b700fffff0000000000000000000000000000198316700fffff0000000000000000000000000000607084901b1617611752565b6000806142f88461325b565b62ffffff16905080156134da5760008361ffff1661431586612f64565b62ffffff16029050606460638280028402016134d5565b60008161ffff1661433c846131ce565b61ffff16026402540be40002905092915050565b60008060008360000361436c5750600160801b91506106969050565b5082600081121561437e579015906000035b6210000081101561456e57600160801b9250846001600160801b038111156143a857911591600019045b60018216156143b95792830260801c925b800260801c60028216156143cf5792830260801c925b800260801c60048216156143e55792830260801c925b800260801c60088216156143fb5792830260801c925b800260801c60108216156144115792830260801c925b800260801c60208216156144275792830260801c925b800260801c604082161561443d5792830260801c925b8002608090811c908216156144545792830260801c925b800260801c61010082161561446b5792830260801c925b800260801c6102008216156144825792830260801c925b800260801c6104008216156144995792830260801c925b800260801c6108008216156144b05792830260801c925b800260801c6110008216156144c75792830260801c925b800260801c6120008216156144de5792830260801c925b800260801c6140008216156144f55792830260801c925b800260801c61800082161561450c5792830260801c925b800260801c620100008216156145245792830260801c925b800260801c6202000082161561453c5792830260801c925b800260801c620400008216156145545792830260801c925b800260801c6208000082161561456c5792830260801c925b505b8260000361459957604051631dba598d60e11b815260048101869052602481018590526044016119c5565b816145a45782612a8e565b612a8e836000196165b3565b6000620fffff8262ffffff1611156145db57604051631c07203f60e01b815260040160405180910390fd5b7fffffffffffffffffffffffffff00000fffffffffffffffffffffffffffffffff831672fffff000000000000000000000000000000000608484901b1617611752565b60008061462a83614a23565b90507fffffffffff0000000000ffffffffffffffffffffffffffffffffffffffffffff84167affffffffff0000000000000000000000000000000000000000000060b083901b16176124aa565b806001600160801b03811681146136d157604051632f45db3d60e21b815260040160405180910390fd5b6000816146ad81614ece565b670de0b6b3a7640000670de0b6b3a763ffff6001600160801b03868116908616020104949350505050565b600060ff831684811b9061ffff6101008290031686901c90612f5a9087906001901b8685856154ae565b6000806000614711868661555a565b9150915081600014614727578360ff1682901c92505b801561476757600160ff85161b811061475357604051638e471a8960e01b815260040160405180910390fd5b8360ff166101000361ffff1681901b830192505b50509392505050565b60006001600160801b038316608084901c612a8e828286615579565b60008061ffff600884901c1660ff8085169081146147e157600082815260028701602052604081205493506147c184836155e4565b905060001981146147df5760089290921b9091179250610696915050565b505b5060ff80821690600883901c90821461485b576000818152600188016020526040812054945061481185846155e4565b9050600019811461485957600882901b8117600081815260028a01602052604090205495509350614841856155f3565b60ff1660088560001c901b1795505050505050610696565b505b60ff818116925082146148cb5786549350600061487885846155e4565b905060001981146148c957600081815260018901602052604090205494509050806148a2856155f3565b60ff16600883901b17600081815260028a01602052604090205495509350614841856155f3565b505b5060009695505050505050565b60008061ffff600884901c1660ff8416801561492b576000828152600287016020526040812054935061490b848361568f565b905060001981146149295760089290921b9091179250610696915050565b505b5060ff8116600882901c811561498a5760008181526001880160205260408120549450614958858461568f565b9050600019811461498857600882901b8117600081815260028a016020526040902054955093506148418561569f565b505b60ff8116915081156149f9578654935060006149a6858461568f565b905060001981146149f757600081815260018901602052604090205494509050806149d08561569f565b60ff16600883901b17600081815260028a016020526040902054955093506148418561569f565b505b5062ffffff9695505050505050565b600060d882901c610696565b60006106968260d01c60ff1690565b8064ffffffffff811681146136d1576040516350dbfc8760e11b815260040160405180910390fd5b600080614a5784612b7f565b90508062ffffff168362ffffff1611614a72578281036124aa565b90910392915050565b64ffffffffff841662ffffff848116820291848216810291841602614a9f88614bd6565b614aa99084616261565b9250614ab488614bec565b614abe9083616261565b9150614ac988614c02565b614ad39082616261565b9050955095509592505050565b60d082901b7aff000000000000000000000000000000000000000000000000000016609084901b79ffffffffffffffff00000000000000000000000000000000000016605086901b71ffffffffffffffff0000000000000000000016601088901b69ffffffffffffffff00001661ffff8a161717171760d882901b7fffffffffff000000000000000000000000000000000000000000000000000000168117612cad565b81614b8e81614bb1565b818461ffff60001986018116908110614ba957614ba96161b8565b015550505050565b8061ffff166000036119885760405163944e113960e01b815260040160405180910390fd5b60006106968260101c67ffffffffffffffff1690565b60006106968260501c67ffffffffffffffff1690565b60006106968260901c67ffffffffffffffff1690565b6000808080614c286001866164fd565b61ffff16905060008060008961ffff1690505b838511614ce65760006001614c5086886164a8565b901c9050888183089a508b61ffff808d16908110614c7057614c706161b8565b01549350614c7d846131da565b92508964ffffffffff168364ffffffffff161115614ca757614ca0600182616554565b9450614ce0565b8964ffffffffff168364ffffffffff161015614ccf57614cc88160016164a8565b9550614ce0565b838497509750505050505050614d61565b50614c3b565b8164ffffffffff168964ffffffffff161015614d37578961ffff16600003614d0c578799505b8a61ffff6000198c018116908110614d2657614d266161b8565b015483965096505050505050614d61565b8760018b089950828b61ffff808d16908110614d5557614d556161b8565b01549650965050505050505b94509492505050565b600080600080614d7988614bd6565b67ffffffffffffffff1690506000614d9089614bec565b67ffffffffffffffff1690506000614da78a614c02565b67ffffffffffffffff1690508664ffffffffff16600003614dce5791945092509050614ec4565b6000614dd98a614bd6565b67ffffffffffffffff1690506000614df08b614bec565b67ffffffffffffffff1690506000614e078c614c02565b67ffffffffffffffff1690508a64ffffffffff16600003614e325791975095509350614ec492505050565b6000614e4864ffffffffff808d16908e166164a8565b9050808b64ffffffffff1685028d64ffffffffff1689020181614e6d57614e6d6161eb565b049950808b64ffffffffff1684028d64ffffffffff1688020181614e9357614e936161eb565b049850808b64ffffffffff1683028d64ffffffffff1687020181614eb957614eb96161eb565b049750505050505050505b9450945094915050565b67016345785d8a0000816001600160801b0316111561198857604051638630bc6b60e01b815260040160405180910390fd5b6000806000614f0f868661555a565b91509150612f5a86868685856154ae565b600081600103614f335750607f19919050565b81600003614f545760405163125946cf60e11b815260040160405180910390fd5b60019190911c9060006f800000000000000000000000000000008310614f7c57506001614f97565b5060001982600160fe1b81614f9357614f936161eb565b0492505b6000614fa6607f85901c61569f565b707f80000000000000000000000000000000607f82901b16935060ff16905083811c6f800000000000000000000000000000008114615022576f400000000000000000000000000000005b600081131561502057908002607f1c90600160801b8210615018579384019360019190911c905b60011d614ff1565b505b50500260011b919050565b600080806150458460581c67ffffffffffffffff1690565b925061505b8460181c67ffffffffffffffff1690565b91505062ffffff831672ffffffffffffffffffffffffffffffffffffff8411806150965750670de0b6b3a76400008367ffffffffffffffff16115b806150b25750670de0b6b3a76400008267ffffffffffffffff16115b1561152857604051637752557f60e11b815260040160405180910390fd5b6000806001600160801b038516608086901c826150ee838389615579565b905080600003615108575060009350839250614d61915050565b60006151148a89614770565b9050801580615121575086155b1561513d5761512f8261573a565b899550955050505050614d61565b615148828883614f00565b9550600061515787838a6157ac565b9050808311156151f657600061516d8285616554565b9050600160801b81106151ae57608081901c85811161518c578061518e565b855b905061519a8187616554565b95506151aa608082901b83616554565b9150505b8981106151e25760006151c18b836165b3565b90508681116151d057806151d2565b865b90506151de8188616554565b9650505b608085901b6001600160801b038716179a50505b7d09745258e83de0d0f4e400fce79aca44773dd596d31a6d336ca2a775b6116152286152228d8d612628565b8b614770565b11156152475760405163a2d7652760e01b815260040160405180910390fd5b50949997985050505050505050565b60008160000361526857506000612f5a565b6001600160801b038416608085901c60008061529a61076a61528a8d8b612628565b88615295818c6164a8565b613757565b91509150836001600160801b0316826001600160801b031611156152fd5760006152e06152c78c8c613479565b6152d184876162a2565b6001600160801b0316906157c9565b90506152f5816001600160801b031660801b90565b95505061533d565b826001600160801b0316816001600160801b0316111561533d5760006153306153268c8c613479565b6152d185886162a2565b6001600160801b03169550505b505050509695505050505050565b8162ffffff168162ffffff161080156153675750608083901b15155b8061538c57508162ffffff168162ffffff1611801561538c57506001600160801b0383115b156109145760405163227bd87160e21b815262ffffff821660048201526024016119c5565b61ffff600882901c166000818152600284016020526040812054909190600160ff85161b8117808214613865576000838152600287016020526040812082905582900361385957600883901c6000818152600180890160205260408220805460ff88169290921b821790559350839003613857578654600160ff83161b1787555060019350505050610696565b600080600052602060008351602085016000875af1905080801561547f573d80156154725760016000511483169250615479565b843b151592505b5061548f565b3d1561548f573d6000803e3d6000fd5b50806109145760405163197138bd60e11b815260040160405180910390fd5b6000816000036154cf578383816154c7576154c76161eb565b049050612a8e565b8382106154ef576040516313eae71560e01b815260040160405180910390fd5b600084868809600186198101871660008190038190049091018683119095039490940294038390049390931760029290940460038102831880820284030280820284030280820284030280820284030280820284030290810290920390910292909202949350505050565b6000806000198385098385029250828110838203039150509250929050565b600083156155b4575080830281848281615595576155956161eb565b04146155b4576040516363f1e01f60e01b815260040160405180910390fd5b82156117525760809290921b91820182811015611752576040516363f1e01f60e01b815260040160405180910390fd5b6000611752836001840161580a565b60008160801b801561560757608091508092505b8260401b9050801561561a579150604001815b8260201b9050801561562d579150602001815b8260101b90508015615640579150601001815b8260081b90508015615653579150600801815b8260041b90508015615666579150600401815b8260021b90508015615679579150600201815b508160011b15615687576001015b60ff03919050565b6000611752836000198401615838565b60006001600160801b038211156156b85750608090811c905b67ffffffffffffffff8211156156d057604091821c91015b63ffffffff8211156156e457602091821c91015b61ffff8211156156f657601091821c91015b60ff82111561570757600891821c91015b600f82111561571857600491821c91015b600382111561572957600291821c91015b60018211156136d157600101919050565b60008160000361574c57506000919050565b60006157578361569f565b600181811c607f1681811b9086901c01811c80860401811c80860401811c80860401811c80860401811c80860401811c80860401901c9384900493925060ff1690508282106157a65782611752565b50919050565b60006157b9848484614f00565b90508180613430576134306161eb565b6000816157d581614ece565b6ec097ce7bc90715b34b9f1000000000806001600160801b03868116908616908102670de0b6b3a764000091909101026134d5565b60ff81169190911c906000821561582e5781615825846155f3565b0160ff16611752565b5060001992915050565b60ff8181031691821b91600090831561585e57806158558561569f565b60ff16036124aa565b506000199392505050565b6001600160a01b038116811461198857600080fd5b6000806040838503121561589157600080fd5b823561589c81615869565b946020939093013593505050565b60005b838110156158c55781810151838201526020016158ad565b50506000910152565b60208152600082518060208401526158ed8160408501602087016158aa565b601f01601f19169190910160400192915050565b803562ffffff811681146136d157600080fd5b60006020828403121561592657600080fd5b61175282615901565b60008083601f84011261594157600080fd5b50813567ffffffffffffffff81111561595957600080fd5b6020830191508360208260051b85010111156131c757600080fd5b6000806000806000806080878903121561598d57600080fd5b863561599881615869565b955060208701356159a881615869565b9450604087013567ffffffffffffffff808211156159c557600080fd5b6159d18a838b0161592f565b909650945060608901359150808211156159ea57600080fd5b506159f789828a0161592f565b979a9699509497509295939492505050565b60008083601f840112615a1b57600080fd5b50813567ffffffffffffffff811115615a3357600080fd5b6020830191508360208285010111156131c757600080fd5b600080600060408486031215615a6057600080fd5b83359250602084013567ffffffffffffffff811115615a7e57600080fd5b615a8a86828701615a09565b9497909650939450505050565b60008060008060608587031215615aad57600080fd5b8435615ab881615869565b9350602085013567ffffffffffffffff811115615ad457600080fd5b615ae08782880161592f565b9094509250506040850135615af481615869565b939692955090935050565b600081518084526020808501945080840160005b83811015615b2f57815187529582019590820190600101615b13565b509495945050505050565b838152826020820152606060408201526000612a8e6060830184615aff565b803561ffff811681146136d157600080fd5b600080600080600080600080610100898b031215615b8857600080fd5b615b9189615b59565b9750615b9f60208a01615b59565b9650615bad60408a01615b59565b9550615bbb60608a01615b59565b9450615bc960808a01615901565b9350615bd760a08a01615b59565b9250615be560c08a01615901565b9150615bf360e08a01615901565b90509295985092959890939650565b60008060008060408587031215615c1857600080fd5b843567ffffffffffffffff80821115615c3057600080fd5b615c3c8883890161592f565b90965094506020870135915080821115615c5557600080fd5b50615c628782880161592f565b95989497509550505050565b6020815260006117526020830184615aff565b803580151581146136d157600080fd5b60008060408385031215615ca457600080fd5b615cad83615c81565b91506020830135615cbd81615869565b809150509250929050565b600080600080600080600060e0888a031215615ce357600080fd5b615cec88615b59565b9650615cfa60208901615b59565b9550615d0860408901615b59565b9450615d1660608901615b59565b9350615d2460808901615901565b9250615d3260a08901615b59565b9150615d4060c08901615901565b905092959891949750929550565b600060208284031215615d6057600080fd5b813564ffffffffff8116811461175257600080fd5b60008060408385031215615d8857600080fd5b615d9183615c81565b91506131c460208401615901565b60008060408385031215615db257600080fd5b82356001600160801b0381168114615dc957600080fd5b91506131c460208401615c81565b600060208284031215615de957600080fd5b5035919050565b600060208284031215615e0257600080fd5b61175282615b59565b60008060408385031215615e1e57600080fd5b8235615dc981615869565b60008060408385031215615e3c57600080fd5b8235615cad81615869565b60008060008060608587031215615e5d57600080fd5b8435615e6881615869565b935060208501359250604085013567ffffffffffffffff811115615e8b57600080fd5b615c6287828801615a09565b600181811c90821680615eab57607f821691505b6020821081036157a657634e487b7160e01b600052602260045260246000fd5b600060208284031215615edd57600080fd5b815161175281615869565b634e487b7160e01b600052604160045260246000fd5b604081526000615f116040830185615aff565b8281036020840152612a8e8185615aff565b600060208284031215615f3557600080fd5b815167ffffffffffffffff80821115615f4d57600080fd5b818401915084601f830112615f6157600080fd5b815181811115615f7357615f73615ee8565b604051601f8201601f19908116603f01168101908382118183101715615f9b57615f9b615ee8565b81604052828152876020848701011115615fb457600080fd5b612cad8360208301602088016158aa565b7f4c697175696469747920426f6f6b20546f6b656e200000000000000000000000815260008451615ffd8160158501602089016158aa565b8083019050602f60f81b8060158301528551616020816016850160208a016158aa565b6016920191820152835161603b8160178401602088016158aa565b0160170195945050505050565b601f82111561091457600081815260208120601f850160051c8101602086101561606f5750805b601f850160051c820191505b818110156124f45782815560010161607b565b815167ffffffffffffffff8111156160a8576160a8615ee8565b6160bc816160b68454615e97565b84616048565b602080601f8311600181146160f157600084156160d95750858301515b600019600386901b1c1916600185901b1785556124f4565b600085815260208120601f198616915b8281101561612057888601518255948401946001909101908401616101565b508582101561613e5787850151600019600388901b60f8161c191681555b5050505050600190811b01905550565b634c42545f60e01b81526000845161616d8160048501602089016158aa565b8083019050602f60f81b8060048301528551616190816005850160208a016158aa565b600592019182015283516161ab8160068401602088016158aa565b0160060195945050505050565b634e487b7160e01b600052603260045260246000fd5b6000602082840312156161e057600080fd5b813561175281615869565b634e487b7160e01b600052601260045260246000fd5b634e487b7160e01b600052601160045260246000fd5b64ffffffffff8281168282160390808211156134da576134da616201565b67ffffffffffffffff81811683821602808216919082811461625957616259616201565b505092915050565b67ffffffffffffffff8181168382160190808211156134da576134da616201565b6001600160801b038181168382160190808211156134da576134da616201565b6001600160801b038281168282160390808211156134da576134da616201565b81835260007f07ffffffffffffffffffffffffffffffffffffffffffffffffffffffffffffff8311156162f457600080fd5b8260051b80836020870137939093016020019392505050565b6040815260006163216040830186886162c2565b8281036020840152612cad8185876162c2565b6040815260006163486040830185876162c2565b8281036020840152612f5a8185615aff565b81835281816020850137506000828201602090810191909152601f909101601f19169091010190565b60006001600160a01b03808a168352808916602084015280881660408401525085606083015284608083015260c060a083015261428160c08301848661635a565b600082516163d68184602087016158aa565b9190910192915050565b6000602082840312156163f257600080fd5b5051919050565b60006001600160a01b03808a168352808916602084015280881660408401525060a0606083015261642e60a0830186886162c2565b82810360808401526164418185876162c2565b9a9950505050505050505050565b838152604060208201526000612a8e60408301848661635a565b60006001600160a01b038088168352808716602084015250608060408301526164966080830185876162c2565b90508260608301529695505050505050565b8082018082111561069657610696616201565b600061ffff8083168181036164d2576164d2616201565b6001019392505050565b600061ffff808416806164f1576164f16161eb565b92169190910492915050565b61ffff8281168282160390808211156134da576134da616201565b600061ffff8084168061652d5761652d6161eb565b92169190910692915050565b61ffff8181168382160190808211156134da576134da616201565b8181038181111561069657610696616201565b64ffffffffff8181168382160190808211156134da576134da616201565b600082616594576165946161eb565b600160ff1b8214600019841416156165ae576165ae616201565b500590565b6000826165c2576165c26161eb565b50049056fe7e1935766b7c49e7482a018a5ee52ca183a2ddfcb6810787916934079aa58264ff057b3b4d4500dda208cde5d654db7aa2ec63ac10ab9f9956a1f569738427823441ab29b24daf7a3fd59500b0e08396ec08ec96f5cc2d0362924cdd45cfec319b779b17422d0df92223018b32b4d1fa46e071723d6817e2486d003becc55f00a26469706673582212206076aa4d749410b596734f37ddf2e17219a4599a496e020148220c1b6532b2a064736f6c63430008140033",
    "linkReferences": {}
  },
  "methodIdentifiers": {
    "approveForAll(address,bool)": "e584b654",
    "balanceOf(address,uint256)": "00fdd58e",
    "balanceOfBatch(address[],uint256[])": "4e1273f4",
    "batchTransferFrom(address,address,uint256[],uint256[])": "17fad7fc",
    "burn(address,address,uint256[],uint256[])": "c9939f5e",
    "collectProtocolFees()": "a1af5b9a",
    "flashLoan(address,bytes32,bytes)": "ea3446bf",
    "forceDecay()": "d3b9fbe4",
    "getActiveId()": "dbe65edc",
    "getBin(uint24)": "0abe9688",
    "getBinStep()": "17f11ecc",
    "getFactory()": "88cc58e4",
    "getIdFromPrice(uint256)": "f5e29329",
    "getLBHooksParameters()": "781a8915",
    "getNextNonEmptyBin(bool,uint24)": "a41a01fb",
    "getOracleParameters()": "55182894",
    "getOracleSampleAt(uint40)": "8940a16a",
    "getPriceFromId(uint24)": "4c7cffbd",
    "getProtocolFees()": "d8dfcea0",
    "getReserves()": "0902f1ac",
    "getStaticFeeParameters()": "7ca0de30",
    "getSwapIn(uint128,bool)": "abcd7830",
    "getSwapOut(uint128,bool)": "e77366f8",
    "getTokenX()": "05e8746d",
    "getTokenY()": "da10610c",
    "getVariableFeeParameters()": "8d7024e5",
    "increaseOracleLength(uint16)": "c7bd6586",
    "initialize(uint16,uint16,uint16,uint16,uint24,uint16,uint24,uint24)": "47973bff",
    "isApprovedForAll(address,address)": "e985e9c5",
    "mint(address,bytes32[],address)": "383d15c5",
    "name()": "06fdde03",
    "setHooksParameters(bytes32,bytes)": "1b057f6d",
    "setStaticFeeParameters(uint16,uint16,uint16,uint16,uint24,uint16,uint24)": "6653851a",
    "swap(bool,address)": "53c059a0",
    "symbol()": "95d89b41",
    "totalSupply(uint256)": "bd85b039"
  },
  "id": 79
}