{
  "abi": [
    {
      "inputs": [
        {
          "internalType": "address",
          "name": "initialOwner",
          "type": "address"
        },
        {
          "internalType": "uint96",
          "name": "_nativePerRequest",
          "type": "uint96"
        },
        {
          "internalType": "uint256",
          "name": "_requestCooldown",
          "type": "uint256"
        }
      ],
      "stateMutability": "payable",
      "type": "constructor"
    },
    {
      "inputs": [
        {
          "internalType": "address",
          "name": "target",
          "type": "address"
        }
      ],
      "name": "AddressEmptyCode",
      "type": "error"
    },
    {
      "inputs": [
        {
          "internalType": "address",
          "name": "account",
          "type": "address"
        }
      ],
      "name": "AddressInsufficientBalance",
      "type": "error"
    },
    {
      "inputs": [],
      "name": "FailedInnerCall",
      "type": "error"
    },
    {
      "inputs": [
        {
          "internalType": "address",
          "name": "owner",
          "type": "address"
        }
      ],
      "name": "OwnableInvalidOwner",
      "type": "error"
    },
    {
      "inputs": [
        {
          "internalType": "address",
          "name": "account",
          "type": "address"
        }
      ],
      "name": "OwnableUnauthorizedAccount",
      "type": "error"
    },
    {
      "inputs": [
        {
          "internalType": "address",
          "name": "token",
          "type": "address"
        }
      ],
      "name": "SafeERC20FailedOperation",
      "type": "error"
    },
    {
      "anonymous": false,
      "inputs": [
        {
          "indexed": true,
          "internalType": "address",
          "name": "previousOwner",
          "type": "address"
        },
        {
          "indexed": true,
          "internalType": "address",
          "name": "newOwner",
          "type": "address"
        }
      ],
      "name": "OwnershipTransferStarted",
      "type": "event"
    },
    {
      "anonymous": false,
      "inputs": [
        {
          "indexed": true,
          "internalType": "address",
          "name": "previousOwner",
          "type": "address"
        },
        {
          "indexed": true,
          "internalType": "address",
          "name": "newOwner",
          "type": "address"
        }
      ],
      "name": "OwnershipTransferred",
      "type": "event"
    },
    {
      "inputs": [],
      "name": "acceptOwnership",
      "outputs": [],
      "stateMutability": "nonpayable",
      "type": "function"
    },
    {
      "inputs": [
        {
          "internalType": "contract IERC20",
          "name": "_token",
          "type": "address"
        },
        {
          "internalType": "uint96",
          "name": "_amountPerRequest",
          "type": "uint96"
        }
      ],
      "name": "addFaucetToken",
      "outputs": [],
      "stateMutability": "nonpayable",
      "type": "function"
    },
    {
      "inputs": [
        {
          "internalType": "uint256",
          "name": "",
          "type": "uint256"
        }
      ],
      "name": "faucetTokens",
      "outputs": [
        {
          "internalType": "contract IERC20",
          "name": "ERC20",
          "type": "address"
        },
        {
          "internalType": "uint96",
          "name": "amountPerRequest",
          "type": "uint96"
        }
      ],
      "stateMutability": "view",
      "type": "function"
    },
    {
      "inputs": [
        {
          "internalType": "address",
          "name": "",
          "type": "address"
        }
      ],
      "name": "lastRequest",
      "outputs": [
        {
          "internalType": "uint256",
          "name": "",
          "type": "uint256"
        }
      ],
      "stateMutability": "view",
      "type": "function"
    },
    {
      "inputs": [],
      "name": "numberOfFaucetTokens",
      "outputs": [
        {
          "internalType": "uint256",
          "name": "",
          "type": "uint256"
        }
      ],
      "stateMutability": "view",
      "type": "function"
    },
    {
      "inputs": [],
      "name": "operator",
      "outputs": [
        {
          "internalType": "address",
          "name": "",
          "type": "address"
        }
      ],
      "stateMutability": "view",
      "type": "function"
    },
    {
      "inputs": [],
      "name": "owner",
      "outputs": [
        {
          "internalType": "address",
          "name": "",
          "type": "address"
        }
      ],
      "stateMutability": "view",
      "type": "function"
    },
    {
      "inputs": [],
      "name": "pendingOwner",
      "outputs": [
        {
          "internalType": "address",
          "name": "",
          "type": "address"
        }
      ],
      "stateMutability": "view",
      "type": "function"
    },
    {
      "inputs": [
        {
          "internalType": "contract IERC20",
          "name": "_token",
          "type": "address"
        }
      ],
      "name": "removeFaucetToken",
      "outputs": [],
      "stateMutability": "nonpayable",
      "type": "function"
    },
    {
      "inputs": [],
      "name": "renounceOwnership",
      "outputs": [],
      "stateMutability": "nonpayable",
      "type": "function"
    },
    {
      "inputs": [
        {
          "internalType": "address",
          "name": "_to",
          "type": "address"
        }
      ],
      "name": "request",
      "outputs": [],
      "stateMutability": "nonpayable",
      "type": "function"
    },
    {
      "inputs": [],
      "name": "request",
      "outputs": [],
      "stateMutability": "nonpayable",
      "type": "function"
    },
    {
      "inputs": [],
      "name": "requestCooldown",
      "outputs": [
        {
          "internalType": "uint256",
          "name": "",
          "type": "uint256"
        }
      ],
      "stateMutability": "view",
      "type": "function"
    },
    {
      "inputs": [
        {
          "internalType": "contract IERC20",
          "name": "_token",
          "type": "address"
        },
        {
          "internalType": "uint96",
          "name": "_amountPerRequest",
          "type": "uint96"
        }
      ],
      "name": "setAmountPerRequest",
      "outputs": [],
      "stateMutability": "nonpayable",
      "type": "function"
    },
    {
      "inputs": [
        {
          "internalType": "address",
          "name": "_newOperator",
          "type": "address"
        }
      ],
      "name": "setOperator",
      "outputs": [],
      "stateMutability": "nonpayable",
      "type": "function"
    },
    {
      "inputs": [
        {
          "internalType": "uint256",
          "name": "_requestCooldown",
          "type": "uint256"
        }
      ],
      "name": "setRequestCooldown",
      "outputs": [],
      "stateMutability": "nonpayable",
      "type": "function"
    },
    {
      "inputs": [
        {
          "internalType": "bool",
          "name": "_unlockedRequest",
          "type": "bool"
        }
      ],
      "name": "setUnlockedRequest",
      "outputs": [],
      "stateMutability": "nonpayable",
      "type": "function"
    },
    {
      "inputs": [
        {
          "internalType": "address",
          "name": "newOwner",
          "type": "address"
        }
      ],
      "name": "transferOwnership",
      "outputs": [],
      "stateMutability": "nonpayable",
      "type": "function"
    },
    {
      "inputs": [],
      "name": "unlockedRequest",
      "outputs": [
        {
          "internalType": "bool",
          "name": "",
          "type": "bool"
        }
      ],
      "stateMutability": "view",
      "type": "function"
    },
    {
      "inputs": [
        {
          "internalType": "contract IERC20",
          "name": "_token",
          "type": "address"
        },
        {
          "internalType": "address",
          "name": "_to",
          "type": "address"
        },
        {
          "internalType": "uint256",
          "name": "_amount",
          "type": "uint256"
        }
      ],
      "name": "withdrawToken",
      "outputs": [],
      "stateMutability": "nonpayable",
      "type": "function"
    },
    {
      "stateMutability": "payable",
      "type": "receive"
    }
  ],
  "bytecode": {
    "object": "0x60806040526040516200154d3803806200154d83398101604081905262000026916200023c565b826001600160a01b0381166200005757604051631e4fbdf760e01b8152600060048201526024015b60405180910390fd5b62000062816200009f565b506200006e81620000bd565b60408051808201909152600081526001600160601b0383166020820152620000969062000116565b5050506200029a565b600180546001600160a01b0319169055620000ba81620001ec565b50565b610e10811015620001115760405162461bcd60e51b815260206004820152601760248201527f556e73616665207265717565737420636f6f6c646f776e00000000000000000060448201526064016200004e565b600355565b80516001600160a01b0316600090815260076020526040902054156200017f5760405162461bcd60e51b815260206004820152601660248201527f416c726561647920612066617563657420746f6b656e0000000000000000000060448201526064016200004e565b60068054600181018255600082815283516020948501516001600160601b0316600160a01b026001600160a01b039091169081177ff652222313e28459528d920b65115c16c04f3efc82aaedc97be59f3f377c0d3f90930192909255915490825260079092526040902055565b600080546001600160a01b038381166001600160a01b0319831681178455604051919092169283917f8be0079c531659141344cd1fd0a4f28419497f9722a3daafe3b4186f6b6457e09190a35050565b6000806000606084860312156200025257600080fd5b83516001600160a01b03811681146200026a57600080fd5b60208501519093506001600160601b03811681146200028857600080fd5b80925050604084015190509250925092565b6112a380620002aa6000396000f3fe6080604052600436106101635760003560e01c80637380f6bd116100c0578063bc3bc40411610074578063f2fde38b11610059578063f2fde38b14610395578063faf034e3146103b5578063fbedbe62146103d557600080fd5b8063bc3bc40414610357578063e30c39781461037757600080fd5b80638da5cb5b116100a55780638da5cb5b14610303578063a9860c8114610321578063b3ab15fb1461033757600080fd5b80637380f6bd146102ce57806379ba5097146102ee57600080fd5b806329954f4311610117578063570ca735116100fc578063570ca735146102545780636fb9584f1461028c578063715018a6146102b957600080fd5b806329954f4314610215578063338cdca11461023f57600080fd5b80630f737c82116101485780630f737c82146101b557806320cca627146101d557806327c78c42146101f557600080fd5b806301e336671461016f5780630d639e031461019157600080fd5b3661016a57005b600080fd5b34801561017b57600080fd5b5061018f61018a36600461109f565b61041c565b005b34801561019d57600080fd5b506006545b6040519081526020015b60405180910390f35b3480156101c157600080fd5b5061018f6101d03660046110e0565b610455565b3480156101e157600080fd5b5061018f6101f0366004611133565b61046b565b34801561020157600080fd5b5061018f610210366004611150565b610486565b34801561022157600080fd5b5060045461022f9060ff1681565b60405190151581526020016101ac565b34801561024b57600080fd5b5061018f61057f565b34801561026057600080fd5b50600254610274906001600160a01b031681565b6040516001600160a01b0390911681526020016101ac565b34801561029857600080fd5b506101a26102a7366004611150565b60056020526000908152604090205481565b3480156102c557600080fd5b5061018f6106ab565b3480156102da57600080fd5b5061018f6102e93660046110e0565b6106bf565b3480156102fa57600080fd5b5061018f6106f6565b34801561030f57600080fd5b506000546001600160a01b0316610274565b34801561032d57600080fd5b506101a260035481565b34801561034357600080fd5b5061018f610352366004611150565b610737565b34801561036357600080fd5b5061018f61037236600461116d565b610761565b34801561038357600080fd5b506001546001600160a01b0316610274565b3480156103a157600080fd5b5061018f6103b0366004611150565b610772565b3480156103c157600080fd5b5061018f6103d0366004611150565b6107e3565b3480156103e157600080fd5b506103f56103f036600461116d565b61097c565b604080516001600160a01b0390931683526001600160601b039091166020830152016101ac565b6104246109b7565b6001600160a01b0383166104415761043c82826109e4565b505050565b61043c6001600160a01b0384168383610a87565b61045d6109b7565b6104678282610aee565b5050565b6104736109b7565b6004805460ff1916911515919091179055565b6002546001600160a01b031633146104e55760405162461bcd60e51b815260206004820152600d60248201527f4f6e6c79206f70657261746f720000000000000000000000000000000000000060448201526064015b60405180910390fd5b6003546001600160a01b038216600090815260056020526040902054829161050c9161119c565b42101561055b5760405162461bcd60e51b815260206004820152601160248201527f546f6f206d616e7920726571756573747300000000000000000000000000000060448201526064016104dc565b6001600160a01b038216600090815260056020526040902042905561046782610bab565b3233146105ce5760405162461bcd60e51b815260206004820152600860248201527f4f6e6c7920454f4100000000000000000000000000000000000000000000000060448201526064016104dc565b60045460ff166106205760405162461bcd60e51b815260206004820152601860248201527f4469726563742072657175657374206973206c6f636b6564000000000000000060448201526064016104dc565b60035433600081815260056020526040902054909161063e9161119c565b42101561068d5760405162461bcd60e51b815260206004820152601160248201527f546f6f206d616e7920726571756573747300000000000000000000000000000060448201526064016104dc565b3360008181526005602052604090204290556106a890610bab565b50565b6106b36109b7565b6106bd6000610d58565b565b6106c76109b7565b6104676040518060400160405280846001600160a01b03168152602001836001600160601b0316815250610d71565b60015433906001600160a01b0316811461072e5760405163118cdaa760e01b81526001600160a01b03821660048201526024016104dc565b6106a881610d58565b61073f6109b7565b600280546001600160a01b0319166001600160a01b0392909216919091179055565b6107696109b7565b6106a881610e45565b61077a6109b7565b600180546001600160a01b0383166001600160a01b031990911681179091556107ab6000546001600160a01b031690565b6001600160a01b03167f38d16b8cac22d99fc7c124b9cd0de2d3fa1faef420bfe791d8c362d765e2270060405160405180910390a350565b6107eb6109b7565b6001600160a01b03811660009081526007602052604090205460028110156108555760405162461bcd60e51b815260206004820152601260248201527f4e6f7420612066617563657420746f6b656e000000000000000000000000000060448201526064016104dc565b600654600090610867906001906111af565b905080610873836111c2565b9250821461093d57600060068281548110610890576108906111d9565b6000918252602091829020604080518082019091529101546001600160a01b0381168252600160a01b90046001600160601b031691810191909152600680549192508291859081106108e4576108e46111d9565b6000918252602091829020835193909201516001600160601b0316600160a01b026001600160a01b039093169290921791015561092283600161119c565b90516001600160a01b03166000908152600760205260409020555b60068181548110610950576109506111d9565b600091825260208083209091018290556001600160a01b03949094168152600790935250506040812055565b6006818154811061098c57600080fd5b6000918252602090912001546001600160a01b0381169150600160a01b90046001600160601b031682565b6000546001600160a01b031633146106bd5760405163118cdaa760e01b81523360048201526024016104dc565b6000826001600160a01b03168260405160006040518083038185875af1925050503d8060008114610a31576040519150601f19603f3d011682016040523d82523d6000602084013e610a36565b606091505b505090508061043c5760405162461bcd60e51b815260206004820152601660248201527f4e4154495645207472616e73666572206661696c65640000000000000000000060448201526064016104dc565b604080516001600160a01b038416602482015260448082018490528251808303909101815260649091019091526020810180517bffffffffffffffffffffffffffffffffffffffffffffffffffffffff1663a9059cbb60e01b17905261043c908490610e9c565b6001600160a01b03821660009081526007602052604081205490819003610b575760405162461bcd60e51b815260206004820152601260248201527f4e6f7420612066617563657420746f6b656e000000000000000000000000000060448201526064016104dc565b816006610b656001846111af565b81548110610b7557610b756111d9565b9060005260206000200160000160146101000a8154816001600160601b0302191690836001600160601b03160217905550505050565b60068054906000908183610bc157610bc16111d9565b6000918252602091829020604080518082019091529101546001600160a01b0381168252600160a01b90046001600160601b0316918101829052915015801590610c18575080602001516001600160601b03164710155b15610c3457610c348382602001516001600160601b03166109e4565b60015b82811015610d525760068181548110610c5257610c526111d9565b6000918252602091829020604080518082019091529101546001600160a01b0381168252600160a01b90046001600160601b0316918101829052925015801590610d165750602082015182516040516370a0823160e01b81523060048201526001600160601b03909216916001600160a01b03909116906370a0823190602401602060405180830381865afa158015610cef573d6000803e3d6000fd5b505050506040513d601f19601f82011682018060405250810190610d1391906111ef565b10155b15610d425760208201518251610d42916001600160a01b039091169086906001600160601b0316610a87565b610d4b81611208565b9050610c37565b50505050565b600180546001600160a01b03191690556106a881610eff565b80516001600160a01b031660009081526007602052604090205415610dd85760405162461bcd60e51b815260206004820152601660248201527f416c726561647920612066617563657420746f6b656e0000000000000000000060448201526064016104dc565b60068054600181018255600082815283516020948501516001600160601b0316600160a01b026001600160a01b039091169081177ff652222313e28459528d920b65115c16c04f3efc82aaedc97be59f3f377c0d3f90930192909255915490825260079092526040902055565b610e10811015610e975760405162461bcd60e51b815260206004820152601760248201527f556e73616665207265717565737420636f6f6c646f776e00000000000000000060448201526064016104dc565b600355565b6000610eb16001600160a01b03841683610f4f565b90508051600014158015610ed6575080806020019051810190610ed49190611221565b155b1561043c57604051635274afe760e01b81526001600160a01b03841660048201526024016104dc565b600080546001600160a01b038381166001600160a01b0319831681178455604051919092169283917f8be0079c531659141344cd1fd0a4f28419497f9722a3daafe3b4186f6b6457e09190a35050565b6060610f5d83836000610f66565b90505b92915050565b606081471015610f8b5760405163cd78605960e01b81523060048201526024016104dc565b600080856001600160a01b03168486604051610fa7919061123e565b60006040518083038185875af1925050503d8060008114610fe4576040519150601f19603f3d011682016040523d82523d6000602084013e610fe9565b606091505b5091509150610ff9868383611005565b925050505b9392505050565b60608261101a5761101582611061565b610ffe565b815115801561103157506001600160a01b0384163b155b1561105a57604051639996b31560e01b81526001600160a01b03851660048201526024016104dc565b5080610ffe565b8051156110715780518082602001fd5b604051630a12f52160e11b815260040160405180910390fd5b6001600160a01b03811681146106a857600080fd5b6000806000606084860312156110b457600080fd5b83356110bf8161108a565b925060208401356110cf8161108a565b929592945050506040919091013590565b600080604083850312156110f357600080fd5b82356110fe8161108a565b915060208301356001600160601b038116811461111a57600080fd5b809150509250929050565b80151581146106a857600080fd5b60006020828403121561114557600080fd5b8135610ffe81611125565b60006020828403121561116257600080fd5b8135610ffe8161108a565b60006020828403121561117f57600080fd5b5035919050565b634e487b7160e01b600052601160045260246000fd5b80820180821115610f6057610f60611186565b81810381811115610f6057610f60611186565b6000816111d1576111d1611186565b506000190190565b634e487b7160e01b600052603260045260246000fd5b60006020828403121561120157600080fd5b5051919050565b60006001820161121a5761121a611186565b5060010190565b60006020828403121561123357600080fd5b8151610ffe81611125565b6000825160005b8181101561125f5760208186018101518583015201611245565b50600092019182525091905056fea2646970667358221220a2ed0a50dc84943f510092e0176197f6463e4f64edf17285e23c42d1f122a6af64736f6c63430008140033",
    "linkReferences": {}
  },
  "methodIdentifiers": {
    "acceptOwnership()": "79ba5097",
    "addFaucetToken(address,uint96)": "7380f6bd",
    "faucetTokens(uint256)": "fbedbe62",
    "lastRequest(address)": "6fb9584f",
    "numberOfFaucetTokens()": "0d639e03",
    "operator()": "570ca735",
    "owner()": "8da5cb5b",
    "pendingOwner()": "e30c3978",
    "removeFaucetToken(address)": "faf034e3",
    "renounceOwnership()": "715018a6",
    "request()": "338cdca1",
    "request(address)": "27c78c42",
    "requestCooldown()": "a9860c81",
    "setAmountPerRequest(address,uint96)": "0f737c82",
    "setOperator(address)": "b3ab15fb",
    "setRequestCooldown(uint256)": "bc3bc404",
    "setUnlockedRequest(bool)": "20cca627",
    "transferOwnership(address)": "f2fde38b",
    "unlockedRequest()": "29954f43",
    "withdrawToken(address,address,uint256)": "01e33667"
  },
  "id": 148
}